:020000040000FA
:10000000F80B002059070000FD070000F937000039
:10001000033800000D3800002138000017380000B8
:10002000000000000000000000000000D91F0000D8
:10003000FD07000000000000851F0000FD07000014
:10004000000000000000000000000000DD230000B0
:1000500000000000FD07000000000000000000009C
:10006000FD070000FD070000FD070000FD07000080
:1000700000000000FD070000FD070000FD07000074
:10008000FD070000FD070000000000000000000068
:10009000FD070000FD070000000000000000000058
:1000A000FD0700000000000000000000FD07000048
:1000B000FD070000FD070000FD070000FD07000030
:1000C000FD070000FD070000FD070000FD07000020
:1000D000FD07000000000000FD0700000000000018
:1000E000FD07000000000000FD0700000000000008
:1000F000FD070000000000000000000000000000FC
:1001000000000000FD0700000000000000000000EB
:1001100000000000000000000000000000000000DF
:1001200000000000FD0700000000000000000000CB
:1001300000000000000000000000000000000000BF
:10014000FD070000407C0000201E00204900000048
:1001500060360000400C0020000000006036000007
:10016000200C002000000000601F0020B1060000ED
:10017000400C002078040000200C00200800000043
:10018000000C00200800000000015F5F000000007C
:10019000FE0F00006D2000000004000000000000C1
:1001A000000000000000000000000000000000004F
:1001B000802000200000000001015F5F03010000BB
:1001C0001F01000081020000000800000000000084
:1001D000010000000100000000000000000000001D
:1001E000881000200000000070000000286A000055
:1001F00080000000000F000001000000410300002B
:100200000100000001015F5F040100001F01000008
:10021000490600000005000000000000000000008A
:10022000010000000000000000000000881800200D
:1002300000000000336A00004000000005070000D5
:0C02400001000000350500000100000076
:1002600038B50025054C29462046D4F80024C4F8AA
:10027000045403F0D8FAC4F8005438BD400C0020F0
:1002800008B500F015F940B900F03CF900F048F964
:1002900018B9BDE8084003F0E7BC08BD13B5114626
:1002A0000022CDE9002242680346302A04683ED18C
:1002B00094F82C20022A18D01AB900F01BF902B0C9
:1002C00010BD1E482468D0F80404013ACDE900406E
:1002D000072A2FD8DFE802F004090D12171C212687
:1002E0006A46184600F003F9E9E7184600F0EDF811
:1002F000E5E76A46184600F0EBF8E0E76A4618467C
:1003000000F0E0F8DBE76A46184600F0E4F8D6E7CC
:100310006A46184600F0E2F8D1E76A46184600F04F
:10032000E0F8CCE76A46184600F0DEF8C7E76FF061
:100330008000C4E76FF08500C1E700BF400C0020DB
:100340002DE9F04F056804469FB0002D40F0AA80CB
:100350002022294602A803F066FA12AF202229467D
:100360000AA803F060FA30222946384603F05BFA07
:10037000A26904F118039846B2B10426A26A04F1F6
:100380002803EAB10425EEB96FF0830630461FB0AA
:10039000BDE8F08F002EF1D053F8041D3246013E27
:1003A0000029F7D01646E9E70326F5E7002DEAD045
:1003B00053F8041D2A46013D0029F7D01546E2E70F
:1003C0000325F5E730233A460021606803F074FA0C
:1003D0003028D9D14FF00109CDE90270334F0DF12A
:1003E000080A04F10C0B4E45D7F800141CD10DF18E
:1003F00028094B46002008EB850EC64533D108B1CD
:10040000C7F80014A3683146C7F804340AAA2B467B
:1004100002A8FFF743FF00270646BD4209F108097D
:1004200038D1FFF71DFFB1E75BF8043FC1F58062EB
:10043000D81C20F00300904204D9FFF711FF6FF0A1
:100440008C06A3E70844CA19C7F800044946606847
:10045000019203F031FA019ACAF80C0009F101097E
:100460004AF8082FBFE758F804CFC1F5806A0CF1AD
:10047000030222F00302524503F1080305D878185D
:1004800043E9020C11440120B7E70028D5D0C7F892
:100490000014D2E7394659E90223606803F016FADE
:1004A0000137BAE76FF0850670E700BF400C002007
:1004B00008B528220021024803F0B5F9002008BD44
:1004C000481000206FF0850070476FF0850070477E
:1004D0006FF0850070476FF0850070476FF0850002
:1004E00070476FF0850070476FF0850070476FF0C0
:1004F00085007047D1E9000103F096BBC0E90021F7
:100500007047000010B5044C0F222046034903F049
:1005100039FC204610BD00BF711000202C070000E0
:1005200008B50121024803F019FB002008BD00BFF7
:1005300070100020F0B503680546B3F57D7FA7B0C5
:1005400007D040F2F532934207D06FF0850027B014
:10055000F0BD00F0B3FB0020F9E700243C22214667
:1005600007A8CDE90244CDE90444069403F05BF901
:100570003C22214617A8169403F055F9AA69019464
:1005800005F1180302B30426AA6A05F128033AB359
:100590000424731E012B52D8012C50D804230021AF
:1005A00068680DEB030203F087F904281AD06FF096
:1005B0008000CCE7002EE7D053F8041D3246013E00
:1005C0000029F7D01646DFE70326F5E7002CE0D038
:1005D00053F8041D2246013C0029F7D01446D8E701
:1005E0000324F5E7022E16D12E69402E29D806AF36
:1005F00033463A460121686803F05EF98642D6D157
:10060000CDE9027602A944B92246019800F068FBC0
:10061000044620469BE70021F5E7EB69402BC6D84E
:1006200016AACDE90423019804AA00F059FBDDE9DC
:10063000042304460021686803F048F9E9E7012033
:1006400085E76FF0890082E7002070472DE9F04FC1
:1006500000259BB004A8049503F052F94FF0180848
:100660000646DFF8C090304FB54201D1002024E0AB
:1006700008FB05FA049B03EB0A02116949454FD1B7
:100680000021946808A853F80A20FFF737FF2022BA
:10069000002112A803F0C7F80DF10E02049B01928D
:1006A00007AA53440092D3F814B0202106AB05AA40
:1006B0000AA8D84720B16FF092001BB0BDE8F08FB8
:1006C0004FF6F8714FF6FF72099B1593069B8B420C
:1006D00088BF1346ADF84A30079B089A1793BDF8B8
:1006E0000E30ADF84830049B53441B69139313F04C
:1006F000FF0308BF1A4648235C4304F124000DEBB6
:1007000003013C4414923844202203F03BFB204672
:10071000059A0AA903F036FB059B23620123636453
:100720000135A1E701010080881D00206D6265642C
:1007300020544C5320332E332E3000000000000094
:08074000303000000100000050
:1007500001F070BB0000000008B572B61E4A1F4BC6
:100760009A601F4B83F309881E4B83F30A8883F337
:100770000B881D4B16A1D1E90001C3E9000100F06F
:100780009FF81A4B1A498B4212D30020194B1A4971
:100790008B4218D302F0F0FF186850F822405868D6
:1007A00040F82240013298688242F5D30C33EAE7E0
:1007B0000022F8E71C6844F8220001325C68A2427B
:1007C000F8D30833E4E70022F8E700BFAFF3008076
:1007D000A5EDF5FEA5EDF5FE0000000000ED00E042
:1007E000F80B002000040020F80B0020440100005A
:1007F000680100006801000088010000FFF7A8FF01
:10080000FEE74FF47F03D3F83001D3F83431BFF360
:100810004F8FC0F30B00A0F10903584258417047B5
:100820004FF47F02D2F83031D2F83401BFF34F8F4A
:10083000C3F30B03092B03D1431E584258417047A1
:100840000020704708B5EFF31083012B0C4A07D145
:10085000126ABFF34F8F511C4A424A41104608BDED
:10086000FFF7CFFF00B172B6126ABFF34F8F531C70
:100870005A425A41FFF7C5FF0028EFD062B6EDE7B4
:100880000080FF0008B5EFF31083012B0B4A06D15F
:10089000D269BFF34F8F02F00102104608BDFFF787
:1008A000B0FF00B172B6D269BFF34F8F02F0010200
:1008B000FFF7A7FF0028F0D062B6EEE70080FF0048
:1008C000584A10B5D2F8D03043F00203C2F8D03005
:1008D000FFF797FF30B14FF050230022C3F81421E7
:1008E000C3F81821FFF79CFF28B101224E4BC3F833
:1008F000382AC3F878254FF47F02D2F83031D2F885
:100900003421BFF34F8FC3F30B03092B05D1012A09
:100910001EBF0122444BC3F87825FFF781FF18B1B1
:100920000E22424BC3F8E42EFFF76BFF30B10022DA
:100930003D4BC3F80C270122C3F810270022D30037
:1009400003F57F03D3F80013BFF34F8F013108D0B5
:10095000D3F800130132D3F80433B2F5807F0B6073
:10096000EDD1EFF31084FFF78DFF00284DD0BFF3DA
:100970004F8F2F4BD3F80024012AFBD1C3F8042555
:10098000D3F80024012AFBD1012C03D0FFF739FF53
:1009900000B172B6FFF776FF58B1264AD36923F04B
:1009A0000103D361BFF34F8F214AD2F80034012BEA
:1009B000FBD1FFF747FF68B11E4A136A23F0FF031C
:1009C00043F020031362BFF34F8F194AD2F800346B
:1009D000012BFBD1012C03D0FFF713FF00B162B64E
:1009E0000022134BC3F80425D3F80024012AFBD1BD
:1009F000BFF34F8F0B49104BCA6802F4E0621343F8
:100A0000CB60BFF34F8F00BFFDE7FFF71BFF002850
:100A1000ADD1044AD2F88C3043F44063C2F88C3034
:100A200010BD00BF00ED00E00040005000A00350EA
:100A3000009003500080FF000400FA05003A18BF40
:100A40000122003918BF012103688900074841EAE3
:100A50004201186359605A6842F001025A60BFF3BC
:100A60004F8FBFF36F8F0020704700BF04AAFF00B5
:100A70004B6830B513F01F052DD102680C68106863
:100A8000C0F30720844226D25068556094600C7CE5
:100A900023F01F0304F001041C438B7CDB0003F0F4
:100AA00018031C434B7C5B0003F006032343D36015
:100AB0008B68013B23F01F04CB685B0003F00E033F
:100AC000234343F0010313615060BFF34F8FBFF323
:100AD0006F8F284630BD0120FCE7036800205A686C
:100AE000C9B258609960D86018615A60704770B593
:100AF0000546002403681E68C6F30726B44201D1E8
:100B0000002070BD21462846FFF7E7FF0134F5E7D6
:100B10000722024BC3F80423704700BF0030005087
:100B20000022074BC3F80021D3F80011C3F80421B9
:100B3000D3F80411C3F80821D3F80831704700BF77
:100B40000030005000231720094A03F5C07101331B
:100B5000202B42F82100F8D100231720044A03F586
:100B6000E0710133202B42F82100F8D1704700BF1B
:100B70000030005010B59DF80840C00B43EA042334
:100B8000064CC90B43EA0213884200D910BDC2B219
:100B900002F5C07244F822300130F5E70030005011
:100BA00010B59DF8084000F1604043EA042301F1CC
:100BB0006041074C400B490B43EA0213884200D9BD
:100BC00010BDC2B202F5E07244F822300130F5E700
:100BD00000300050C0F30E03C3F50043B3FA83F3B3
:100BE000C3F11B03064AC0F3C730DBB240F4807088
:100BF00043F48073C2F80005C2F80435704700BFA3
:100C000000300050C0037047C00300F5FF407F3044
:100C10007047002070471F2070474FF40040704716
:100C200000F57F40C0304003704700004303014897
:100C300018447047FF1FF81F402070475F2070471F
:100C40004FF4005070470000054BC0F30730090215
:100C500041F0300100F5007043F82010704700BFEC
:100C600000300050044BC0F30730090200F500705B
:100C700043F82010704700BF0030005008B502F064
:100C800075FA68B903F0E8F858B9074AD36823F051
:100C900008031B041B0C43F0BF6343F40033D36011
:100CA00008BD45F22350FBE700ED00E0002070474F
:100CB000002070470020704770470000BFF34F8F3F
:100CC0000549064BCA6802F4E0621343CB60BFF3E8
:100CD0004F8F00BFFDE700BF00ED00E00400FA0504
:100CE0000346084611460BB900F040B80320704790
:100CF000BFF34F8F0549064BCA6802F4E062134305
:100D0000CB60BFF34F8F00BFFDE700BF00ED00E0F9
:100D10000400FA0537B5084C6369984748B9E56A95
:100D2000A847C307FCD4236A019303B0BDE8304051
:100D30001847002003B030BD3835000010B5094C0D
:100D40000020A3689847236902209847A46A4FF4BB
:100D5000E1310120A0472346BDE8104001211520C4
:100D6000184700BF38350000FFF7D4BF38B54368D7
:100D70000C2B30D14B68042B2DD14FF0FF3304687E
:100D80000D6821682B6031B3A26822B306230120CD
:100D900001F0C4F9F8B96168104B99420DD9A26805
:100DA0000F485318834202D9F438834210D8206880
:100DB00002F0E8FF0020286038BD0A4B99420AD9AA
:100DC000A26809488B188342F1D90730814202D9C1
:100DD00006488342EBD90220EEE700BFFF01FF0087
:100DE0002C02FF002F01FF003801FF004C01FF0023
:100DF000064B82B01868002382B262F30F03000C26
:100E000060F31F43184602B0704700BF80350000F2
:100E1000012070476FF003007047002382B00193F8
:100E2000019802B070476FF003007047002382B052
:100E30000193019802B07047022814BF6FF00300BD
:100E400000207047014B1869704700BF441E002006
:100E5000014B5869704700BF441E002010B5044C78
:100E6000204600F015FF002084F8200010BD00BFD0
:100E7000441E002038B50C4D0C4695F8203013B9AF
:100E80004FF0FF3038BD0A460146284600F086FF85
:100E9000064B984205D00B3B9842F1D100206C6183
:100EA000F0E76FF00100EDE7441E00200B00AD0BF2
:100EB000F0B51B4E054696F820300C4691B01BB994
:100EC0004FF0FF3011B0F0BD00F06043B3F1005FB0
:100ED00021D100230A460146304600F0EDFB114BBC
:100EE00098421AD00B3B9842EAD1346111E0A71B1B
:100EF000402F28BF4027A9193A46684602F042FF12
:100F000039466846FFF7D4FF0028DBD14036B442AB
:100F1000EDD80020D6E70026F9E76FF00100D1E711
:100F2000441E00200B00AD0BFFF7C2BFC3B2012B64
:100F300010B540F096804DF6C023994270D028D865
:100F4000B1F5615F6FD011D8B1F5965F6DD008D85B
:100F5000B1F5966F6BD0B1F5166F6BD06FF00700DF
:100F60005DE0B1F5165FF9D1454B33E047F612234A
:100F7000994262D007D8B1F5964F61D0B1F5E14FF3
:100F8000ECD1404B26E0B1F5164FE7D14FF41D03ED
:100F900020E03D4B994255D011D8B1F5E13F54D0F6
:100FA00007D8B1F5614F53D0B1F5963FD6D1374B45
:100FB00010E0B1F5613FD1D14FF06C730AE0B1F5AB
:100FC000612F48D0324B994248D0B1F5E12FC5D1BD
:100FD0004FF0E86310F4E06F46D110F4404103D0C5
:100FE000B1F5804F43D1102110F4405203D0B2F537
:100FF000805F3FD10E2210F4403003D0B0F5403F67
:101000003BD10120234C20766276E361A1760A432E
:1010100024681043C4F82435C4F86C05002010BDC2
:101020004FF46503D6E71C4BD4E71C4BD2E74FF4D3
:101030009E23CFE74FF41D23CCE74FF40003C9E70D
:10104000174BC7E74FF08063C4E74FF0EB73C1E77E
:101050004FF46B03BEE74FF07063BBE74FF0805374
:10106000B8E76FF00300DAE76FF00800D7E76FF03A
:101070000A00D4E76FF00900D1E76FF00B00CEE76C
:101080000050270000C0750090D0030000903A0186
:1010900040420F00441E002000F03A0000B0130050
:1010A00000A04E0030B501EB8202914200D130BD6C
:1010B00051F8044B04F07F037F2B4FEA144408BF20
:1010C0004FF0FF33032CF0D8DFE804F002040608E9
:1010D0000360EAE74360E8E78360E6E7C360E4E7CC
:1010E00010B58EB02422002105A802F09CFB4FF021
:1010F000FF33CDE90133CDE903334FF0EB730B93AD
:101100000723104C01A8D4E902128DF83630FFF7FE
:10111000C9FF01460022204600F01EFA0A4B984201
:101120000DD10C9B002023831B0CA3760B9BC4E9E1
:101130000400E361012384F820300EB010BD6FF08D
:101140000100FAE7441E00200000AD0B0346D0F872
:10115000580130B931B9D3F82001003818BF012047
:1011600070470120704730B504460D4685B0102207
:101170000021684602F057FBD4E9001368468DF859
:101180000050984705B030BD7FB504460E46154661
:1011900000211022684602F046FB012368468DF8C4
:1011A0000030CDE90165D4E90013984704B070BD63
:1011B00010B5044600F02CFED4F8583133B1D4F801
:1011C000043313F4800308BFC4F80035BDE81040B1
:1011D00000F026BE30B51546D0F8002285B022F0CA
:1011E0002002C0F80022114A0C46C0F80823FFF77D
:1011F000DFFF002104F14C03A1602161D3E8EF0F70
:1012000020F47F0020F47040C3E8E20F002AF5D1FB
:101210001022684602F007FB042368468DF8003070
:101220000195D4E90013984705B030BD10020A00BB
:1012300070B50D4604460522AA21D0F83C65A86980
:1012400002F0F1FA0522AB69C4F83435C4F8382548
:101250000022C4F81021D4F810110121E162D4F861
:1012600010110029FBD0C4F84C21D4F84C11C4F85B
:101270001021D4F81021D4F83C259642EA6109D116
:101280005A1E043312F8011FAA2903D19A42F9D138
:101290000023EB6170BD000000F01F03400909D17D
:1012A000074A02EB8303D3F80012064A0A40C3F848
:1012B000002270470022803352F82330FFDE00BF47
:1012C00000258450F0F8FCFFD0F8583133B1CB6CD6
:1012D000C3F30032DB0458BFC0F80025704700009C
:1012E000430904D10123034A8340936070470023DC
:1012F0009B60FFDE0025845000F01F0340090BD1E6
:10130000084A02EB8302D2F80012074B0B4043F06D
:101310000303C2F8003270470022803352F82330B2
:10132000FFDE00BF00258450F0F8FCFF2DE9F843F4
:1013300091F8303005460C4690F804800F6853BB96
:101340005023DFF85091781C03FB0893DE6C46F0C5
:101350000072DA6404D03846FFF7C2FFFFF7CCFF13
:101360006068411C01D0FFF797FF94F82C30012BE7
:1013700011D1502303FB0893E06846F02066421C1D
:10138000DE6401D0FFF788FFA068431C03D0FFF79D
:10139000A7FFFFF7B1FF94F82F0038B950223D4B5B
:1013A00002FB0833DA6C42F08072DA6494F82CC0E5
:1013B00094F82D1094F82E202B68D4F828E041EAF8
:1013C0000C010A43E668D4E90198C3F824E5C3F8A0
:1013D0006C2550B9BCF1010FC3F80C75C3F8149516
:1013E00004BFC3F80885C3F81065D3F8682503F275
:1013F0006458012A08BFDA60D3F86425012A13D1A2
:10140000082149F64046244FC3F8001547F001076C
:101410005A60D8F800309BBB2B68D3F88024C3F8FF
:1014200080240022C3F8002500212B6894F8322084
:10143000C3F81011D3F81001C3F82011D3F820011C
:10144000C3F82411D3F82401C3F84411D3F844019C
:10145000C3F85811D3F8581143F307335201002B46
:10146000D2B212DB0D49C81880F8002301225809B6
:1014700003F01F0302FA03F341F82030BDE8F883BC
:101480004020B847013EC4D1C6E7054903F00F0329
:10149000CA54F3E7082F00209035000000E100E077
:1014A00014ED00E000F01F0340090BD1084A02EBE5
:1014B0008302D2F80012074B0B4043F00203C2F83C
:1014C000003270470022803352F82330FFDE00BF25
:1014D00000258450F0F8FCFF70B5CE6C0D4606F088
:1014E00001010446FFF732FE38B94FF4800346F09D
:1014F0000406EE64C4F8043370BDD5E90A365AB167
:10150000296CEA6B761A964228BF16461944324671
:10151000A86B02F037FCAB6B4FF0FF326A641BB173
:10152000C4F84435C4F848650023C4F82031D4F821
:101530002021C4F85831D4F85821C4F85031D4F8D7
:1015400050310823C4F800354FF48003C4F8043345
:101550000123A360D0E700002DE9F3471446502291
:1015600007794F4D02FB07FA05EB0A090E4699F879
:1015700048108046002940F08680484602F053F922
:101580003369B26945F80A307369C9F8383002B175
:10159000013A502303FB0753DA63326A042A81BFFE
:1015A000F2699A610022DA6196F8313033B1502342
:1015B00003FB0753DA6C42F00102DA64502303FBA9
:1015C000075501236C6085F84830D8F80050D5F8ED
:1015D0004C210ABB31464046FFF7A8FE08220023F3
:1015E000D8F800508DF80730C5F800250DF1070236
:1015F000C5F84425C5F8483501230A27AB60EB60E0
:10160000D5F85831002B40D1264B402043F0010340
:101610009847013FF4D123E008226427C5F800254C
:101620006B60204B43F00109D5F84431E3B9D5F89C
:101630002431CBB94FF42070C847013FF4D10023C7
:10164000C5F84C31D5F84C21C5F81031D5F810212A
:10165000C5F84431D5F84421C5F80035002FB9D17B
:10166000114802B0BDE8F0870127E8E796F831405D
:101670000E4B84F001042402D8F8002023430C48C8
:10168000C2F80433EDE70B48EBE70023C5F820313F
:10169000D5F82021C5F80035002CE7D12346EBE72B
:1016A000082F0020903500000100AD0B10020A0049
:1016B0000000AD0B0500AD0B2DE9F04F4FF0500BC6
:1016C00090F804A081460D4616460BFB0AFB85B038
:1016D000002A00F0EF807A4FD0F8008007EB0B046F
:1016E000626862B1990700F0C08013F0020304D071
:1016F000A36B002B00F0AA800123009300E000926E
:101700004FF0500808FB0A7ADAF84C30DA0600F19C
:101710009D80AB19029305F06043039328E00123F9
:10172000019334E0A260019300F07AFB08FB06729B
:10173000D16C019B01F0010120460193FFF706FDEA
:101740008446019BD4F84C05D4F84425BCF1000F25
:101750006ED19342F0D008FB067600297BD000F0D2
:1017600057FB31462046FFF7AFFD4DE000F058FB38
:1017700099F80460D9F8004008FB06739A6B002AB8
:10178000CDD1039BB3F1005F40F09680019200F051
:101790003FFB08FB0672D16C204601F00101FFF708
:1017A000D5FC0028E2D0516C2B460029BCBFD4F8F0
:1017B0004C155164019A42B108FB06722878D2E9AF
:1017C0000E13C854D2E90E32134423B10122C4F8D7
:1017D0004435C4F848250022C4F82021D4F820114B
:1017E000C4F85821D4F85811C4F85021D4F8502125
:1017F00008220099C4F800250122002992D04FF454
:101800008003C4F80433A26000F00AFBDAF8043065
:1018100023BBDAF84C301B0720D52A4B5B44D3E8B6
:10182000EF1F21F00801C3E8E21F002A0ED0F6E7FF
:10183000934208FB067690D100288ED100F0E8FA9A
:1018400031462046FFF740FD00F0EAFA1E4C2046E4
:1018500005B0BDE8F08F0123E36080E7029B01350E
:101860009D427FF458AF194CF1E705F06043B3F1A6
:10187000005F17D0A36B0BB300F0CAFAE36A1BB189
:10188000134C00F0CDFAE2E70122E36CC4E90A56FA
:1018900043F00203E364404607EB0B01FFF71CFE35
:1018A0000A4CEEE700F0B4FAE26A002AE8D1C4E993
:1018B0000A56F0E7074CCAE7074CC8E7074CC6E7EB
:1018C000082F0020542F00200800AD0B0000AD0BA6
:1018D0000B00AD0B0600AD0B0400AD0B0A00AD0B09
:1018E0002DE9F843502590F80480254B05FB08F5B9
:1018F0000468EA18D2E8EF6F46F00806C2E8E06F25
:101900000028F7D1012219B9E2601E48BDE8F8832A
:101910001D49D4F80473C4F80813E2605959A3F1BF
:101920004C0601F0010949462046FFF70FFC00284C
:10193000FAD000F06DFAB9F1000F1CD1D4F82031C3
:101940004BB10123E360D4F85831002BFBD0204683
:101950007119FFF7B9FC00F063FA0023C4F82031D5
:10196000D4F82021502202FB086607F48077C4F8DF
:101970000473F362C9E7D4F85831002BE7D1EAE7E2
:10198000542F00200000AD0B0001400050222DE933
:10199000F04107793A4E7A43046802F14C05354428
:1019A000D5E8EF3F43F48050C5E8EC0FBCF1000FE1
:1019B000F6D1DB0460D4480703D5B3189B69002B2C
:1019C0005CD0304BC4F808330823C4F8003500233A
:1019D000C4F81031D4F81001C4F84C31D4F84C01DB
:1019E000C4F844310803D4F844318B0303F4804332
:1019F00000F400504903034301F400410B43D5E8D0
:101A0000EF1F1943C5E8E01F0028F8D14FF0500838
:101A100008FB0768D8F80830BBB9D8F8043063B9B8
:101A2000D5E8EF3F23F47F0323F47043C5E8E23F9A
:101A3000002AF5D11448BDE8F0810321B018FFF762
:101A400092FBD8F80830002BEAD0502303FB076341
:101A5000DB6CDB0401D40D48EDE7D4F84C310BB955
:101A600001232360502303FB07635B68002BF2D044
:101A7000044BC4F80433EEE70548DCE70548DAE731
:101A8000082F002010020A000200AD0B0000AD0B71
:101A90000B00AD0B0800AD0B2DE9F047884605683B
:101AA000444BD5F80413164611EA030990F804A034
:101AB00008F0604238D0B2F1005FC5F8083373D146
:101AC00050233D4F03FB0A739A6892BB502404FBDA
:101AD0000A74E269C4E90286002A3CD0964232D2F6
:101AE00000273246A1694046C4E9027702F04AF96C
:101AF000E269A069921B8119E26102F00DF9636845
:101B000063B1414632462046FFF73EFBE36C990441
:101B100004D53A4621462846FFF75CFB2748B9F131
:101B2000000F42D1BDE8F087B2F1005FC8D0244871
:101B3000F8E75B680BBBD5F81021F2B1C5F810319E
:101B4000D5F81031C2E74046A16902F01BF9E369FC
:101B500063620023E361502303FB0A73586ADA6867
:101B60009968DB6C121A0144C5F83415C5F838259C
:101B7000DA04D3D501232B60D0E7502303FB0A7787
:101B80003B697BB9FB6CC5F834855B04C7E9048607
:101B9000C5F83865C2D5D5F8003243F02003C5F842
:101BA0000032BBE70748BAE70548024BC5F80433E3
:101BB000B8E700BF10020A00082F00200000AD0B9C
:101BC0000A00AD0B0B00AD0BF8B5502307792C4D77
:101BD000046803FB0753DB6CD4F80002DE044CD529
:101BE00009B983063ED4D4F8003223F02003C4F8A8
:101BF00000324FF484235021794301F14C062E44E6
:101C0000D6E8EF0F1843C6E8EC0FBCF1000FF7D190
:101C100012B96B185B686BBB1A4BC4F8083301230D
:101C20006360D4F84431002BFBD0502303FB0753EF
:101C3000DA6C12F4004218D1DA612046FFF7B8FAE4
:101C4000502303FB07550023AB602B61D6E8EF3F21
:101C500023F47F0323F47043C6E8E23F002AF5D162
:101C60000948F8BD4FF48033C5E720462944FFF703
:101C7000DFFAE2E701236360F2E70448F1E700BF1F
:101C8000082F002010020A000000AD0B0500AD0B6C
:101C90002DE9F8432F4A03680679C3F8082343F374
:101CA0000733002B04460DDB01215A0903F01F0303
:101CB000994002F12003284A42F82310BFF34F8FC6
:101CC000BFF36F8F012220461146FFF77DFF0121F0
:101CD0002046FFF705FE50212279204D236801FBA5
:101CE0000252D46CD3F80C05E201D3F81495D3F862
:101CF0000875D3F8108509D54FF0FF32C3F80C25CD
:101D0000C3F81425C3F80825C3F81025A30116D578
:101D1000411C01D0FFF7C6FBB9F1FF3F02D0484696
:101D2000FFF7C0FB22010AD5B8F1FF3F02D04046C1
:101D3000FFF7B8FB7B1C02D03846FFF7B3FB5023FC
:101D4000002203FB0653DA6483F848205A60BDE89A
:101D5000F88300BF10034A0000E100E0082F0020D4
:101D600010B550240279094B04FB02335B684BB970
:101D70000368D3F810213AB111B1D3F83C350B60A8
:101D8000034810BD0348FCE70348FAE7082F00208A
:101D90000000AD0B0800AD0B0B00AD0BF7B5054611
:101DA0001646FFF779FE164B0446984222D10321CE
:101DB00028462F79FFF7EAFD124B984201D0A04246
:101DC0001BD15022104B02FB07335B6893B90C4CBC
:101DD000284601A9FFF7C4FFA042F9D1019BB342F5
:101DE00007D301222846114603B0BDE8F040FFF7B3
:101DF000EBBE064C204603B0F0BD0446FAE700BF38
:101E00000000AD0B0B00AD0B082F00200800AD0B40
:101E100072B6024A1368013313607047582F0020CE
:101E2000034A1368013B136003B962B6704700BFF1
:101E3000582F0020FEF75CBF08B5154B83F30A88C6
:101E4000144800F08DFA58B9FEF718FF40B9FEF7B4
:101E50002DFF28B9FEF72CFF28B1FEF72BFF20B18C
:101E6000FFF7E8FF09E0FEF727FF00F0FDF8352156
:101E70000948FEF779FF00F0E9FB21210748FEF74A
:101E800073FF00F0DDF800F049F8002008BD00BF46
:101E9000000400208024002096350000CB3500008F
:101EA000F8B501F00C030C2B0CBF154605464A068D
:101EB0000C4601F008061AD58B0658BF2835AB69C9
:101EC00013F8027CB6FA86F35B09B3EBD71F01D097
:101ED000FFF7B0FF402F19D0412F0DD100F034FD96
:101EE000044601460B4800F0D1FB2046F8BDFFF741
:101EF000A1FF0EB9FFF79EFF20210748FEF734FF30
:101F00006FF08300286000F082FEEEE7284600F0C4
:101F1000A3FBEAE7F80B0020EC35000041DF704737
:101F200070B572B6BFF36F8F1446EFF30B855FF099
:101F3000000C002A1FBF8CF30B886C46954683F378
:101F40000B880F4A0123136062B6BFF36F8F0E46F2
:101F500000F046FD72B6BFF36F8F314600F056FDBC
:101F60005FF0000C002C1EBF8CF30B88A54685F398
:101F70000B88034C0025256062B6BFF36F8F70BDE0
:101F800084240020402010EA0E0023D001B500F088
:101F9000DFFFBDE8044088421CD072B6BFF36F8FEC
:101FA000EFF309821EF020031CBF22E9F00F083A6C
:101FB00080E80440B1E804401EF020031CBF083252
:101FC000B2E8F00F0B6882F3098883F30B8862B6DE
:101FD000BFF36F8F70470000EFF308807146EFF397
:101FE0000982EFF30B830CB406B4FFF759FF864662
:101FF00006BC0CBC00F0080001F00801401A01DC2E
:1020000012DB70470CB41EF020031CBF2DE9F00F4B
:10201000BDF1080D094C254626462746A046A14697
:10202000A246A34630B4704730BC1EF020031CBF4C
:102030001DF1080DBDE8F00F06BC7047A5EDF5FEDB
:10204000084BDA6882F07F4282F47F0242F48042D9
:10205000DA6000221A765A76DA76DA77602283F826
:102060002220704700ED00E070470000009A0A4B04
:102070009A420FD10122904301460246034604468C
:102080000546064607468046814682468346844684
:1020900086460447FEE70000A5EDF5FE2DE9F04178
:1020A000044618B943F6DA30BDE8F0810029F9D0CA
:1020B00000254FF018088368104EC3F3802343F0C7
:1020C00002030B6000F13007236AAB4201D8002005
:1020D000EAE7A369E26907EB830308FB02330C22FA
:1020E0006A4399188968090706D59B58B342D9D124
:1020F000306808B100F0A6FA0135E5E7281E002097
:10210000EFF3148381F00201C1F3400161F3000396
:1021100083F31488BFF36F8F002070472DE9F041DF
:102120000E461546002A4AD0C4074BD480F002045C
:10213000C4F34004A40003F00602062A4AD144F086
:10214000010422462946304604F0C4FBB8BB46E8E9
:1021500000F205EB0608100E120208F1FF3747E8FF
:1021600000F34FEA136166D51B0264D5884262D042
:1021700046E800F547E800F7FEF74BFD2D0E8542D7
:102180004FEA176734D3FEF746FD874230D828461A
:10219000FEF73AFD2246C6F101010144304604F043
:1021A00099FB002847D00135AF4218D83846FEF7D2
:1021B00029FD2246A8EB000104F08CFBD8B30020D7
:1021C000BDE8F081EFF39484A40004F0040444F02B
:1021D0001204B0E7990731D544F00804B1E7284666
:1021E000FEF710FD0646FEF718FD22460146D5E72C
:1021F000FEF722FD85421ED3FEF720FD87421AD846
:102200002846FEF713FD2246C6F10101014430467F
:1022100004F060FB78B10135AF4203D83846FEF7D1
:10222000FFFCC6E72846FEF7FBFC0646FEF708FD66
:1022300022460146EBE76FF07F00C1E74CF2DA205F
:10224000BEE70000F0B53B4C87B03B48FEF74FFCC3
:10225000236801255A1C0193384B2260DA681B69F8
:102260004FF4407603930023334801A9029204956A
:10227000ADF814608DF81630FEF7FAFB18B143F68E
:10228000DA3007B0F0BD23688DF816005A1C0193B0
:102290002B4B294802932B4B01A9CDE90335226032
:1022A000ADF81460FEF7E4FB0028E8D123688DF850
:1022B00016005A1C0193244B1F480293234B01A97B
:1022C000CDE903352260ADF81460FEF7D1FB00289C
:1022D000D5D1022740F2011623688DF816005A1C4A
:1022E00001931B4B144802931A4B01A922600393DC
:1022F0000497ADF81460FEF7BBFB0028BFD123683C
:102300008DF816005A1C0193134B0B480293134B84
:1023100001A92260CDE90337ADF81460FEF7A8FBF0
:1023200004460028ABD12A4629460348FEF786FB1F
:102330002046A6E788240020241E00202C3600001A
:1023400060360000206C00004007000040070000DD
:10235000200C0020400C0020000C0020200C00204D
:1023600010B5044600F082F800F090F810B143F682
:10237000DA3010BD00F0ACF80028F8D1FFF762FFAA
:102380000028F4D102232360F3E7884206D08307B4
:1023900006D581F00200C0F340007047002070476E
:1023A0000120704708B520210948FEF7DDFC094BE4
:1023B000D3F80021D3F80821D3F80431FEF7B0FB9D
:1023C0000822054BC3F88021BDE80840FFF732BD65
:1023D0000C3600000030005000E100E0FFF7E2FFA3
:1023E000FEE700000020034BD8765A6A42F47022C0
:1023F0005A62704700ED00E00349044BCA680020B0
:1024000092B21343CB60704700ED00E00800FA057C
:102410000020704700224FF0FF300D4B02F1A00169
:102420000132102A43F82100F8D1D3F8802200208D
:1024300022F00802C3F88022D3F88022D3F8802249
:1024400022F40072C3F88022D3F88032704700BFB4
:1024500000E100E008B5FEF75BFB0822024BC3F881
:1024600080211A60002008BD00E100E0064BD3F88F
:10247000D02022F00102C3F8D020D3F8D02042F0BF
:102480000202C3F8D020704700ED00E037B5012507
:102490000C4CFEF757FBD4E90101072300220095FD
:1024A000FEF768FB07230022074908480095FEF75E
:1024B00077FB2169E0680139FEF78CFB002003B04F
:1024C00030BD00BF2C360000FFFF0320008000203D
:1024D00010B500214048FEF7C5FB00214FF0502009
:1024E000FEF7C0FB00213D48FEF7BCFB00213C4845
:1024F000FEF7B8FB00213B48FEF7B4FB00213A4849
:10250000FEF7B0FB00213948FEF7ACFB002138484C
:10251000FEF7A8FB00213748FEF7A4FB0021364850
:10252000FEF7A0FB00213548FEF79CFB0021344854
:10253000FEF798FB00213348FEF794FB0021324858
:10254000FEF790FB00213148FEF78CFB002130485C
:10255000FEF788FB00212F48FEF784FB00212E4860
:10256000FEF780FB00212D48FEF77CFB00212C4864
:10257000FEF778FB00212B48FEF774FB00212A4868
:10258000FEF770FB294C00212948FEF76BFB002168
:102590002848FEF767FB20460021FEF763FB002179
:1025A0002548FEF75FFB00212448FEF75BFB002077
:1025B0000122234BC3F88004C3F88424C3F8C00469
:1025C000C3F8C42440F20112C4F840254FF48072CD
:1025D000C3F8402410BD00BF0040005000800050F0
:1025E00000A0005000B0005000E0005000F000508B
:1025F00000000150001001500040015000500150F7
:10260000007001500080015000B0015000C0015026
:1026100000D0015000E0015000F0015000000250D5
:102620000010025000200250003002500090035071
:102630000040025000A002500025845000A003502A
:10264000003000500121FEF7FFBA00000122014BCB
:102650001A6070478C24002010B50446094B22896B
:102660001B6861685868062350F8140CFFF756FD84
:1026700028B9054B1B68012B01D100F021F9032378
:10268000236010BD642900208C24002004460D46E0
:10269000A5462847036923B119604FF0EE33436123
:1026A000704703689962704704484FF08051016099
:1026B000BFF34F8FBFF36F8F7047000004ED00E052
:1026C0002DE9F84304461E460068114B9046A26867
:1026D000A0F1080540E90233503890420F4601D27C
:1026E000FFF7A8FBA5F1480948220021484601F060
:1026F0009AF84FF0807345F8043C6FF0020345E907
:10270000036745F8208CC4E90093BDE8F88300BF57
:10271000A5EDF5FE836883F30B880368283383F304
:102720000988406870470000054A1368013303F0C8
:1027300007031360034A0133801A03EBC00070479C
:10274000902400209424002018B1024B013803EBA0
:10275000D00070479424002010B5064800F066FCB5
:10276000044628B18022002101F05DF80023236097
:10277000204610BD94240020014608B5044800F00E
:1027800066FC00280CBF6FF0FC00002008BD00BFF5
:1027900094240020014610B5EFF3108472B603486C
:1027A00000F04FFC84F3108810BD00BF942400207B
:1027B000F0B50346EFF3108672B60024426C00F1C8
:1027C0004405204662B940B10568012CEA6F0260F9
:1027D000284602BF5A698A435A6186F31088F0BDC1
:1027E00097683F687F698F4204BF2846013402F131
:1027F0007C05D26FE6E7000030B5094C02466168FF
:102800000023084640B105686D68954205D11BB1AB
:10281000826860609A60816030BD03468068F1E73D
:102820004029002003689A68DB6812F4806F05D1A4
:102830008B422CBF00206FF0FA0070478B420CBF18
:1028400000206FF0FA00704738B504462AB10B68D3
:102850009B68DB0515D5002038BD0C4B1B685D68F7
:102860001C2D01D1FFF7E6FA002255F81C3C9969AE
:102870002C338A4203D053F8040FA04204D1914272
:10288000E9D16FF0FC00E7E70132F2E764290020AC
:10289000F8B504461E460F46154600212C220C3082
:1028A00000F0C1FF054BA7601B685B68C4E90365C6
:1028B0001C3B6360069B6361F8BD00BF6429002078
:1028C000064B1B685B681C2B04D053F81C3C0BB1F7
:1028D000586870474FF0FF30704700BF64290020F0
:1028E00010B5FFF731FF0446FFF746FF50B9FFF779
:1028F000E7FFA3685B681B685B68834218BF00241E
:10290000204610BD0024FBE7064B10B51B685C6831
:102910001C2C01D1FFF78EFA54F81C3C9868C0F3C8
:10292000802010BD6429002038B5054648B100F06C
:102930000DFCB5EBD07F044601D0FFF77BFA2046B3
:1029400038BDFFF7BDFFF4E72DE9F04108238022F1
:1029500040F22C41154800F03BFB0023144E154F6C
:1029600073607B6000F0F6FBDFF84C80304600F0CF
:1029700083F80446A8B139468023424600F0E4F8C3
:102980000546204600F042F9206804F10801FFF7EF
:1029900085FB08B1FFF74EFA2946204600F004FAFD
:1029A000E4E7BDE8F04100F06FBA00BF94240020D6
:1029B0005029002040290020C0280020002330B5E5
:1029C00000F12802C0F1040452F8041B21B1816F08
:1029D00054F8125019444D600833202BF4D130BD07
:1029E000084B094A1B6810B55B68044619615A61B7
:1029F000D1E90223D1E90001A047044600F007F91C
:102A0000204610BD64290020EDEEEEEE10B5094C15
:102A100023685B685A69084B9A4208BF086000F057
:102A200031FB2368834203D0BDE81040FFF73CBE72
:102A300010BD00BF64290020EDEEEEEE70B5054636
:102A40000C46EFF30583C3F308030BB1FFF7F2F96C
:102A5000084B1A689368A34202D2D168A14206D2F9
:102A6000126821462846BDE87040FFF759BA002396
:102A70001A46F6E74C290020F8B5054608B9FFF7D5
:102A8000D9F92C4E346814F1290F50D82A4B196803
:102A900004F128038B424AD2D4E9063206200C33D3
:102AA00000FB0233226A02EB42021344626A02EB29
:102AB000820213449B00E31801D2994201D2FFF72E
:102AC000B9F923681D4A1B0C1B04934201D0FFF780
:102AD000B1F92388B3F5817F01D3FFF7ABF96368C0
:102AE000002B01DAFFF7A6F9154A176807F14C0326
:102AF0001360144A1268934201D9FFF79BF9D4E995
:102B0000063206210C3301FB0233226A3C6002EBE1
:102B100042021344626A02EB82021344326802EBFF
:102B200083026B683260BB646F603846F8BD002773
:102B3000FBE700BF381E00204836000000005F5F42
:102B4000341E0020443600002DE9F04F85B0884641
:102B500091460746029300B109B9FFF76BF9D7F820
:102B600000A0DAF818100AF1300303EB8103019397
:102B7000DAF81C40234B1D6854B10C2101FB0454AE
:102B80001C60214B1B689C4201D9FFF753F92C466E
:102B900000262546B346DAF81C305B4500D91CB93F
:102BA000304605B0BDE8F08F1822019B02FB0B31C7
:102BB0000023AB604B69C5E900171E438B689A057B
:102BC00016D5B9F1000F02D0029A802A03D00393E0
:102BD000FFF730F9039B13F0E00FD9B202D159F897
:102BE00021301BB10391FFF725F9039949F82150D2
:102BF000D8F804300BF1010BAB60C8F804500C3569
:102C0000C9E700BF301E0020403600007047823008
:102C1000012808B506D8FFF777FE18B9BDE80840C7
:102C2000FFF708B908BD0020704700000C4B70B5D5
:102C30001B6804465D680E4655F8103C1C3D1BB1F0
:102C4000034201D1FFF7F6F8002E05DA21462846A7
:102C5000BDE8704000F03AB96869204070BD00BF1F
:102C60006429002070B50E46044610B1431E03428D
:102C700001D0FFF7DFF8134B2C221B6831465D684B
:102C8000062355F8140C1C3DFFF748FA08B1FFF76E
:102C9000D1F86B690BB9FFF7CDF86B69234201D10D
:102CA000FFF7C8F821462846FFF782FD38B100F14A
:102CB0000C012C22304601F065F8002070BD6FF049
:102CC0008B00FBE764290020F8B506460D46FFF7A8
:102CD00007FE044608B9FFF7ADF8A7680FB9FFF77C
:102CE000A9F8E368991C20D05A1C21D1A5B315F18D
:102CF000820F13D102232360EFF3108672B62946A8
:102D0000204600F01CF9054686F310882368022B44
:102D100024D12046FFF73EFD2846F8BD15F1830F6C
:102D2000EAD0FFF787F80025E6E702232360FAE7F9
:102D3000002BF6DB2046FFF741FE3B689B689B05B6
:102D400001D50223236015F1810FD5D16369002BD2
:102D5000D2DBFFF76FF8CFE73546F4E700232360B7
:102D6000DAE7FDF7C5BF30B5436844781C3BEFF3A5
:102D7000108572B618695A6902400FD0022A08BF3E
:102D80005A694FF0050002BF22F002025A611A6C24
:102D90000A6000221A6185F3108830BD00280CBF3C
:102DA00020460220F7E70000C36802680B432DE9C4
:102DB000F041C36004460020936A116960641944BD
:102DC00007332062E06221F00701906823F00703D7
:102DD000C4E90931284B10F40076236314BF0C2397
:102DE000D369264D04BF9B000C33073323F0070340
:102DF000CB1A9769D168E3615D60002519609D6019
:102E000066B902F1300505EB87054FF0180ED7695A
:102E1000324603F10C0C97421CD19F60A361002342
:102E200084F8340000F4406004F11C02B0F5406FF7
:102E300084F83530E386A26314D0114D9E4218BF4A
:102E40000D46294604F134006FF00102BDE8F0415F
:102E500000F04CB90EFB0258D8F8108001324CF843
:102E6000048BD8E7074B064D1A60002E18BF0D469D
:102E700000F0A4F90346E4E7EDEEEEEE486A000048
:102E8000D13D00004C29002038B50C480C4D00F015
:102E9000F3F80C4B0C4A28461A6000F049F92B68ED
:102EA00004465B6853F8141C53F81C0CFFF728F910
:102EB00008B1FEF7BFFF204638BD00BF672D0000F8
:102EC0006429002048290020000C002038B50D4658
:102ED000044608B9FEF7AEFFEFF3108372B66069DF
:102EE000284008BF256183F3108838BD38B50D46EA
:102EF000044608B9FEF79EFFEFF3108272B66369CD
:102F00002B43636182F31088002038BD10B50C4656
:102F100091B188B103687BB1406868B15969436C6D
:102F2000E3674464FFF7E2FF02216068FFF7CEFF2A
:102F300001230020236010BD6FF08000FBE708B57F
:102F4000406801640221FFF7D1FF002008BD0000A6
:102F50002DE9F84300F096F81A4F04463B68A0F1BB
:102F600034065D68184B29461B68012B21D000B33D
:102F7000A5F11C08B0451CD0EFF30982AB682833DB
:102F8000934201D9FEF756FFEFF3108972B6B1688C
:102F9000D8F80800FFF7F9F938B1B16854F8340CE3
:102FA000FFF7AEF808B1FEF745FF61683C6089F3B2
:102FB0001088064B1B6813B1B26902B11A6028462B
:102FC000BDE8F883642900208424002048290020DB
:102FD0002DE9F8430D4617461E46044618B313B3B1
:102FE00002F1040903FB09F808F10C038B421AD122
:102FF0000A46002100F017FC002004F10C031A46D9
:10300000014601318E42106002EB090C104608D1D6
:103010000020A8EB09084344C4E90037A560BDE8D7
:10302000F8836246EDE76FF0F800F8E7034638B141
:10303000006828B102681A60002340F8043B70471A
:10304000704702680B1F41F8042C0360704700F1C1
:103050000C0399420DD3C91A83688B4209D943687E
:103060000433B1FBF3F203FB1210031F5842584123
:103070007047002070470000014B1860704700BF88
:10308000582900200D4B37B51C6800230C4D0193C7
:103090006CB120462B6801A99847C0B20528607022
:1030A00008D101996068FFF7F5FA012363702046A3
:1030B00003B030BD0128FAD0A468E9E75C290020FC
:1030C00058290020C9B20129064B417005D11A6860
:1030D0002AB101781278914201D3034A106818602E
:1030E000704700BF5C29002060290020F8B50F4E12
:1030F0000446306815461A4618B1237807789F426F
:103100000BD3A060346060682B46FFF7D9FA2046E5
:10311000BDE8F8400121FFF7D5BF0646806810B131
:1031200007789F42F9D3A060B460ECE760290020E3
:1031300038B50546FFF7A6FF0446FFF7B5FA05B117
:103140002C606068BDE83840FFF7E4BA4FF0FF300C
:103150007047000008B500F025F8034B986000F0B8
:1031600027F880F3888808BD00ED02E008B5FFF776
:1031700039F910B143F6DA3008BDFFF73DF9002800
:10318000F8D1FFF745F90028F4D162B6FDF7D6FD76
:10319000FFF740F90028EDD1FFF75CF90028EBD0EC
:1031A000E8E70000014B1868704700BF2C360000AC
:1031B000014B1B68186870472C360000014B1B68D8
:1031C000586870472C3600002DE9F04F0E4699B034
:1031D000049304469146FFF797FB794B07461B681B
:1031E000C6F307255B68A3F11C08F3B203933314FD
:1031F000059304D56FF0800019B0BDE8F08F039BF4
:10320000EB18042BF6D8002CF4D0FFF78DFB6300ED
:103210000690EFD56B4B04F01F0253F82260002E8E
:10322000E8D033683A4631465868FFF70DFB00286E
:1032300040F0BF803046C4F30721FFF7F3FA0028BF
:10324000D8D1EFF3108772B6FFF786FA044687F3FA
:103250001088002800F0B080FFF766FA4FEAC50A30
:103260000790022352464946D8F80800FEF756FF59
:103270000028BFD1039B0499DB000293029A062326
:10328000D8F80800FEF74AFF07460028B2D12022EE
:1032900000210DEB020000F0C6FA2022002110A848
:1032A00000F0C1FA5246494608A800F06BFD0DF146
:1032B000200A029A049910A800F064FDD3464FF04A
:1032C0000009A9452ED1002208AB013295424CD805
:1032D0000DF14009CB46039B9F4249D1069B2046F6
:1032E000079A00933146059BFFF7D2FA224604EB7A
:1032F000850504F114031435C4F10800AB420AF14A
:10330000080A43D10025029B04F1240123449A4278
:1033100009F1080943D1049B21463046A367FFF712
:10332000F5FD69E7DBF8042002235BF8081BD8F8F9
:103330000800FEF7F3FE00287FF45CAF09F10109F5
:10334000BFE7D1F80890C868D3F800C04844844566
:1033500004D258688444E145FFF44CAF0EF1010EED
:103360000831AE45EDD10833AFE719469646F8E788
:10337000DBF8042006235BF8081BD8F80800FEF7EA
:10338000CDFE00287FF436AF0137A4E75AF8041CBD
:1033900043F8041F5AF8081C40F81310AEE759F818
:1033A000040C41F8040F59F8080CC2E9160508325C
:1033B000ADE76FF081001FE76FF082001CE700BFF0
:1033C00064290020C028002040F20110704770B529
:1033D0000546FFF799FA06462846FFF70DFA044618
:1033E00008B9002070BD014632462846FFF72CFA86
:1033F0000028F6D12368D868F4E700002DE9F047EB
:1034000099461C4B0E461B689046D3F804A0FFF764
:1034100067FA044608B9FEF70DFDE368002B01DAF0
:10342000FEF708FD032E01D9FEF704FD04EB860725
:10343000BD69DDB106234A4641465AF8140CFEF731
:103440006DFE08B1FEF7F6FCBB694D46994528BFF5
:103450001D4604EBC6042A464046A16B00F092FCD0
:10346000A36B2B44A363BB695B1BBB612846BDE810
:10347000F08700BF6429002070B50E461546FFF79F
:103480002FFA044608B9FEF7D5FCE368002B01DAF1
:10349000FEF7D0FC032E01D9FEF7CCFC04EB86012D
:1034A000886958B185422A4628BF024604EBC60403
:1034B000A36B801A1344A3638861104670BD00009B
:1034C0002DE9F8431D461B4B0F461B6890465B6871
:1034D000A3F11C09FFF704FA044608B9FEF7AAFC99
:1034E000E368002B01DAFEF7A5FC032F01D9FEF7F4
:1034F000A1FC04EBC70604EB8704A36AF26D9B1AD8
:10350000AB4201D2FEF796FC02232A464146D9F887
:103510000800FEF703FE08B1FEF78CFCD6E916039F
:103520002A461844414600F02DFCF36D2B44F36508
:10353000BDE8F88364290020F10D0000110E0000A1
:10354000E11000005D0E0000390E0000290F0000A0
:10355000750E0000150E0000450E0000510E000013
:103560002D0F00001B0E0000270E00002D0E000086
:10357000010000000E000200000001000F00030027
:103580000302020200000000000000000000000032
:103590000338FDD870471B5B313B33346D5B53659B
:1035A00063205468726561645D205365637572655C
:1035B00020696D61676520696E697469616C697AFB
:1035C000696E67211B5B306D0D0A001B5B313B335D
:1035D000346D426F6F74696E672054462D4D2076AE
:1035E000312E382E301B5B306D0D0A00556E6B6E20
:1035F0006F776E20535643206E756D626572207230
:103600006571756573746564210D0A00506C617491
:10361000666F726D20457863657074696F6E3A20CD
:10362000535055204661756C740D0A0000800000EF
:1036300000800000FFFF0F00007C00000080000001
:0C3640005C200020442000204C02000010
:10366000009A1F4B9A4208D110B500F0FBF800F009
:10367000BDF806BC96460C4674470FDFFEE7009A7D
:10368000174B9A4208D110B500F0F4F800F0AEF8EC
:1036900006BC96460C4674470FDFFEE70CB4029A50
:1036A0000F4B9A4209D10CBC10B500F0EBF800F0BA
:1036B0009DF806BC96460C4674470FDFFEE7009A5D
:1036C000074B9A4202D10749086874470FDFFEE7AB
:1036D000009A034B9A4200D174470FDFFEE70000C7
:1036E000A5EDF5FE201E00200348044B834202D0C6
:1036F000034B03B118477047441F0020441F0020AC
:10370000000000000548064B1B1AD90F01EBA3016E
:10371000491002D0034B03B118477047441F0020E3
:10372000441F00200000000010B5064C237843B968
:10373000FFF7DAFF044B13B10448AFF30080012315
:10374000237010BD5C20002000000000006C000011
:1037500008B5044B1BB104490448AFF30080BDE831
:103760000840CFE70000000060200020006C00004F
:10377000A3F5803A704700BF174B002B08BF134BCF
:103780009D46FFF7F5FF00218B460F461348144A6C
:10379000121A00F048F80E4B002B00D098470D4B42
:1037A000002B00D098470020002104000D000D4898
:1037B000002802D00C48AFF3008003F003F920008A
:1037C0002900FEF739FB03F0E9F800BF000008000C
:1037D0000000000000000000F80B0020601F002027
:1037E000243A00200000000000000000002383F3C2
:1037F00000887047FEF71EBBFFF7FCFFFEE7FEF7F1
:1038000019BBFFF7FCFFFEE7FEF714BBFFF7FCFF59
:10381000FEE7FEF70FBBFFF7FCFFFEE7FEF70ABB74
:10382000FFF7FCFFFEE70346F0B5C9B252B99408B2
:1038300003EB84041344A34211D1F0BD03F8011B30
:10384000013AF3E79C07F9D14FF0013514464D4397
:10385000D618032CEBD9371B3D60043CF9E704F87C
:10386000011BE8E7024B1B685B689B68184700BFB9
:10387000000C0020024B1B685B685B68184700BFA8
:10388000000C002010B4034C246864682468A4462B
:1038900010BC6047000C0020024B1B685B68DB68B3
:1038A000184700BF000C0020024B1B685B681B69B7
:1038B000184700BF000C002010B4034C2468646853
:1038C0006469A44610BC6047000C002010B4034C8F
:1038D00024686468E469A44610BC6047000C0020BA
:1038E000024B1B685B681B6A184700BF000C002076
:1038F000024B1B685B685B6A184700BF000C002026
:103900000020704701680E4A0346914215D1C169F3
:10391000A2F11022A2F1EF1291420ED18268012A87
:103920000BD8C26812B101698A4206D0586928B121
:103930009B691B1A5842584170470120704700BFCD
:1039400055AA00FF0D4B70B59E68A6B13046FFF733
:10395000D9FF044678B9F3686BB935690DB92046CB
:1039600070BD2846FFF7CEFF28B9EB68B34202D1FD
:103970002E462D69F2E70124F1E700BF68290020F7
:103980002DE9F041394E3468F368D4B1B468C4B15C
:10399000002861D000295FD001FB00F5B5FBF0F0F5
:1039A000884259D1291D57D8AA070DD025F0030206
:1039B00004321C4603E0616891424FD2A469002C96
:1039C000F9D12046BDE8F0812A46F2E7891A232979
:1039D00004F12007D4E9050C1AD80123A360A0B193
:1039E000C0F818C0A36903B158610023C4E90533C6
:1039F0003369DB0702D5FFF7A5FFA0BB2A460021EC
:103A000038463C46FFF70FFFDBE7C6F80CC0E9E796
:103A100002F1200804EB08032039C3E9011E2169E3
:103A2000DFF84CE0DC60196144F808E0AEF1102EDC
:103A3000AEF1EF1EC3F81CE001B1CB60C3E9050C89
:103A400040B18361996901B14B6101212361C4E9EE
:103A50000121CAE7F360F5E70024B2E7D4F808E0F3
:103A6000BEF1000FB2D0012002F098FF68290020BB
:103A700055AA00FFF8B5054600283AD0364E3368FF
:103A8000002B36D0B268002A33D0834203D8726844
:103A90001344984202D3012002F080FFA0F12004D9
:103AA0002046FFF72FFF0028F5D155F8183C012BD1
:103AB000F1D145F8180C55E90570DFB1BB68CBB9F9
:103AC00055F81C2C7B68203213447B60386100B1B0
:103AD000C760202200212046FFF7A5FE386908B103
:103AE00083682BB333699B0703D5FFF72BFF0028AF
:103AF000D1D1F8BD40B3836833BB426863681344D7
:103B0000203363600369D4E90521236192B9B9B90F
:103B1000426981696261A161A2B19461A26902B145
:103B2000546103B1DC6020220021FFF77CFED9E75D
:103B30003C46E2E79161A1690029E9D04A61E7E7E3
:103B4000F160F8E7F460E9E7F36845F8083C03B191
:103B50005C61F460C6E700BF6829002038B50D46F7
:103B60001422002104461248FFF75DFE1149124855
:103B700000F030F8232D1AD914F003031FBF043DC1
:103B8000ED18C3F10403E4182A4600212046FFF78C
:103B90004AFE074B094AC3E900459C602260A2F136
:103BA0001022203DA2F1EF126560E261DC6038BDB9
:103BB00068290020753A00008139000055AA00FFED
:103BC0000020704770470000014B1B68184700BF7A
:103BD0003C1E0020024B1860024B00201960704709
:103BE000401E00203C1E002010B50446406A10B163
:103BF000A16A00F0AFF9606AFFF7E6FF0020C4E9B0
:103C0000090010BD38B50446FFF7EEFF236A2C22E9
:103C1000012B0CBF05466FF0960500212046FFF7EB
:103C200002FE284638BD0000054B0A461978C90730
:103C300003D50146181D00F05CB86FF0880070478E
:103C40007C29002010B5074C00F038F8204600F021
:103C500061F8201F082100F07DF9BDE8104000F058
:103C600045B800BF8029002038B50D4D2B78DB0703
:103C700010D4281D00F03BF8044670B900F012F88B
:103C8000044650B900F030F8044630B92B7843F0C0
:103C900001032B700024204638BDFFF7D3FFFAE75D
:103CA0007C290020044A002092F8803543F001036B
:103CB00082F88035704700BF84290020F8B5094C90
:103CC00020252646012720462762FFF79BFF013D5E
:103CD00004F12C04F7D196F8803565F3000386F8DB
:103CE0008035F8BD84290020FCF7B0BC7047002067
:103CF000704713B5002001AB144600F0FFF830B94F
:103D0000019BA34218BF6FF0930002B010BD6FF08B
:103D10009200FAE700207047814270B405461446CD
:103D200002D370BC00F02EB8821821443CB141EAA5
:103D3000020313F003030FD1E018032812D86FF029
:103D40000300A3084343002019441A442344984223
:103D500010D1284670BC704711F8013D013C02F8B3
:103D6000013DE3E7581850F8046C981840F8046CCB
:103D7000043BE1E70C1A14F8016C141A04F8016C06
:103D80000130E4E770B504463AB141EA040313F0A8
:103D900003030CD1D518032D0FD822F003031C44C4
:103DA0001944002302F0030293420CD170BD11F8B4
:103DB000013B013A04F8013BE6E7CD1A2E68E51A0B
:103DC0002E60043BE6E75D5CE5540133ECE7000060
:103DD0002DE9F04F01251F4B8DB0D3F80090D9F895
:103DE0000820D9F800309540013D1BB1984708B133
:103DF000FFF77EFD4FF0010A4FF000412846FFF724
:103E00004BFD0026044609F10C07002CF4D0D9F82C
:103E10000830B34202D8FFF76BFDEDE70AFA06F867
:103E200014EA080F12D03B680BB9FFF761FD01A936
:103E30004046FFF739FD3B6801A8DDF808B0984718
:103E400001465846FFF74CFD24EA080401360437C2
:103E5000DBE700BF000C002010B50C4C236813B149
:103E60000B4B1B682BB900F059FD30B90122084BF0
:103E70001A6001232360002010BD0138062801D9F3
:103E8000044810BD044B53F8200010BD602F0020E3
:103E90005C2F0020FE8FFFFF746A0000144B2DE999
:103EA000F043002814BF04461C46124F236883B019
:103EB000BB4219D016460D4620464FF4E07104F17E
:103EC000040900F047F804F58E78484600F010FC2D
:103ED000404600F035FA2B464A46404606490096D1
:103EE00000F044FA08B92760002003B0BDE8F08371
:103EF000642F0020A5BCC95A7547000070B50D4C51
:103F00001D46002814BF064626460B4B306882B07B
:103F100098420DD106F58E70002633460096144661
:103F200000F072FA002818BF34462C6002B070BD51
:103F30000248FBE7642F0020A5BCC95AE88FFFFFA9
:103F400038B131B1002201440346013081421A7078
:103F5000FAD1704738B131B1002201440346013033
:103F600088421A70FAD170472DE9F04FB2F5C07F40
:103F7000B5B000F2D680DFF8B09114460D464FF48C
:103F8000D07200210DF15C0807464846FFF74BFC54
:103F9000404601F0EFF90023A9F81030202329460C
:103FA00009F11805224689F81730284663BAA9F89E
:103FB0001230FFF7E7FE80225C4B4046079303F187
:103FC0000433089303F1043309932A5503F10433AE
:103FD00007A90A9301F0E4F9824600287ED10FADCB
:103FE00004F119032C460BAE029303970196049536
:103FF000102200210198FFF716FCDFF834B1DDF83C
:1040000008A005940E9B5BF8044C5BF80C7C0B99A4
:104010005BF8100C5BF8085C5C40019BDDE90C620E
:104020007E40554081EA00071A4601214046CDE90D
:104030000B76CDE90D5401F0CDF9BAF1100F94BF14
:10404000AAEB0A0AAAF1100A0BF1100B002863D19F
:10405000BAF1000FD6D1059C102220460199FFF736
:1040600091FE99F8033010340133A04589F80330EC
:10407000BED1049D802229464046039F019E01F047
:104080008FF9824660BB3C4607F1200913AB1A4604
:104090000121404601F09EF9824608BB10222046CD
:1040A00013A91444FFF76EFE4C45EFD1404601F0D2
:1040B00071F94FF4D0711C48FFF74CFF28462021BE
:1040C000FFF748FF07A81021FFF744FF30461021F3
:1040D000FFF740FF504635B0BDE8F08F0FAD0BAE97
:1040E000404601F057F94FF4D0710F48FFF732FF07
:1040F00028462021FFF72EFF102107A8FFF72AFFEF
:1041000010213046FFF726FF20213846FFF722FF17
:10411000504635B0BDE8F08F8246039F019E049D56
:10412000DEE76FF0370AF3E72431002000010203D5
:10413000343100202DE9F04188B004460D4620229C
:10414000002168466F46FFF76EFB04F12006E27B14
:104150000132D2B2E273002A4DD1A27B0132D2B237
:10416000A273002A47D1637B0133DBB26373002B58
:1041700041D1237B0133DBB22373002B3BD1E37AA4
:104180000133DBB2E372002B35D1A37A0133DBB20A
:10419000A372002B2FD1637A0133DBB2637253BB5E
:1041A000237A0133DBB223722BBBE3790133DBB219
:1041B000E37103BBA3790133DBB2A371DBB963798C
:1041C0000133DBB26371B3B923790133DBB22371FD
:1041D0008BB9E3780133DBB2E37063B9A3780133C1
:1041E000DBB2A3703BB963780133DBB2637013B900
:1041F0002378013323703B4622460121304601F0EB
:10420000E9F8804650BB103708AB9F429FD1029A15
:10421000AB68039F534002933046EE6807997E4097
:104220000396049F2E69009B7E4004966E69059F4D
:1042300080227E400596069FAE697E400696EE6916
:104240007140079129684B40009301996B684B407E
:104250006946019301F0A4F8804638B168462021F0
:10426000FFF778FE404608B0BDE8F08110222046F6
:104270000DEB0201FFF786FDF0E700BF2DE9F843E3
:104280001D468369B3F5C07F52D81646C3F5C07288
:10429000AA424DD3C5F5C072D31AB34248D30446DF
:1042A000DFF898904FF4C0720F4648460021FFF7A0
:1042B000BAFA4946D4F89430A269D4F898009847DD
:1042C000002838D1D4F818803DB1D4E925302A46E9
:1042D00009EB0801984770BBA84407B1C6B9174954
:1042E00042460846FFF740FE054638B14FF4C0711C
:1042F0001248FFF72FFE2846BDE8F88320460F49F5
:10430000FFF718FF05460028F0D101232361EDE7F0
:104310003946324609EB0800FFF734FD0749B0443F
:1043200042460846FFF720FE05460028DED1E5E7B5
:104330006FF03705DFE76FF03305DCE7C4320020AC
:1043400010B5A42200210446FFF76DFA4FF0FF31AB
:104350004FF6F072044B2161E26104F19C001B688E
:10436000BDE81040184700BF881E00202DE9F0432B
:10437000054685B00F46164600211022684699462C
:10438000FFF751FA1E4B05F19C0840461B68984701
:1043900020B10446204605B0BDE8F08305F12004B5
:1043A000204600F0E7FFAA69C5E92576EAB920238F
:1043B0002E69AB61002E20DB20466946802200F08A
:1043C000EFFF044630B93346494628460C9AFFF7BA
:1043D00055FF04460B4B40461B689847002818BF02
:1043E0000446204605B0BDE8F0832E69002EE3DACE
:1043F000172A02D801325608DEE70026DCE700BFA4
:10440000841E0020801E00202DE9F04FB2F5806F41
:104410008DB0169F00F2E380B7F5807F00F2DC805C
:10442000044615460E462022002104A89846FFF7B0
:10443000FAF96C4B04F19C0948461B68984783467F
:10444000002840F092802269E3699A4200F391804B
:104450006369002B40F08D80002F40F0A980DFF8C9
:1044600088A16F46002D00F098806F4604F1200867
:104470000EE0102DAB4628BF4FF0100B30463946EA
:104480005A46FFF77FFCB5EB0B055E4400F08580D4
:10449000E37B0133DBB2E373002B4DD1A37B01330C
:1044A000DBB2A373002B47D1637B0133DBB26373B1
:1044B000002B41D1237B0133DBB22373002B3BD193
:1044C000E37A0133DBB2E372002B35D1A37A0133F7
:1044D000DBB2A372002B2FD1637A0133DBB263729C
:1044E00053BB237A0133DBB223722BBBE379013355
:1044F000DBB2E37103BBA3790133DBB2A371DBB998
:1045000063790133DBB26371B3B923790133DBB271
:1045100023718BB9E3780133DBB2E37063B9A3781D
:104520000133DBB2A3703BB963780133DBB2637054
:1045300013B92378013323703B46224601214046BC
:1045400000F048FF8346002893D0DAF80030484650
:1045500098470346202104A8002B18BF9B46FFF76D
:10456000F9FC10213846FFF7F5FC58460DB0BDE8C0
:10457000F08F3A46414600232046FFF77FFEDFF8E2
:1045800068A000283FF46DAF4846DAF8003098473D
:10459000834600283FF465AFE7E7204604A9FFF70C
:1045A000C9FD83460028D0D1236901332361CCE7BC
:1045B0003A46414604A8FFF7D7FC834618B16F4638
:1045C000DFF824A0C1E7204604A9FFF7B3FD834626
:1045D00000283FF444AFF2E76FF0370BC5E76FF008
:1045E000350BC2E7841E0020801E00202DE9F04319
:1045F000202B1D460646884691468BB026D8DBB256
:1046000002AF8DF80480B04658F8041B8DF80530D1
:1046100021B9404600F020FF044640B901230222A0
:104620004046336001A900F02BFF044638B13846FC
:104630002021FFF78FFC20460BB0BDE8F0832A460F
:104640004946404600F01CFF0446F0E702AF194619
:10465000104600233A4601F099F804460028E6D1B6
:104660002023B9461D46CCE72DE9F041D0F8F830BB
:10467000A6B0002BD8BF02AE31DD05460027D0F82A
:104680000C4102AEA4F101089022D5F8FC4031465D
:10469000D0F8000101AB0197B8FA88F8A0474FEABB
:1046A0005818044620B9019B53B9B8F1000F16D031
:1046B00030469021FFF74EFC204626B0BDE8F08141
:1046C000014632462846FFF791FF58B9D5F8043124
:1046D000019A1344C5F80431B8F1000FE8D16FF026
:1046E0003C04E5E70446204626B0BDE8F08100BF63
:1046F00070B500250446142204F588762946C0F8D2
:10470000F850FC30FFF78FF8082229463046FFF7B3
:104710008AF8144B30461B689847204640F8045BE3
:1047200000F080FE104B30461B689847C8B9D4F89B
:10473000F830AB420FDC03EB830204EB8202202152
:10474000C2F800010120C2E9421008490133C2F851
:10475000FC10C4F8F830064B3046BDE870401B68CA
:10476000184770BD881E0020841E0020795200006A
:10477000801E00202DE9F047202A88B07AD83F4BD0
:1047800000F5887904461B684846174688469847CE
:104790000546F8B940F20116D4F8F830002B65D080
:1047A0002046FFF761FF054638B9D4F8F830002BF2
:1047B00014DC013EF2D16FF03B056E4620213046FD
:1047C000FFF7C8FB2E4B48461B689847002818BFC8
:1047D0006FF01D05284608B0BDE8F087D4E94132E6
:1047E000934203D3D4F80C21012A02D0013ED7D141
:1047F000E1E71F2BFAD96E4601462022304604F12C
:10480000040AFFF710F83146504600F063FE0546F3
:104810000028D3D1504600F019FE504600F002FEA9
:104820002946504600F018FE05460028C6D15046DD
:104830002022314600F024FE05460028BED1034662
:1048400032462021304600F0A1FF05460028B5D1B0
:10485000D4F8F8303A46002BC8BF00234046314612
:10486000C8BFC4F80431FFF78DFAA7E76FF03F0522
:104870006E46A3E76FF03B05ACE700BF841E002047
:10488000801E0020002130B58DB0282202A80191A1
:10489000FEF7C9FF02A800F0A1FF044610B12046B0
:1048A0000DB030BD174D4FF0FF31286800F044F9CE
:1048B000044620B1144800F0D5F9012C18D000208E
:1048C00000F06AF9D0B9114A02A901A800F0C6FCAB
:1048D0000446012000F060F960B9286800F034F95E
:1048E0000028DCD00A4800F0BDF920460DB030BDEC
:1048F0000524F2E7074800F0B5F9EEE7064800F0B6
:10490000B1F9E0E76C1E0020906A000044340020FA
:10491000E86A0000C86A0000A86A000030B583B0E9
:1049200000F05CF828B100F0ABF80324204603B097
:1049300030BD00F077F8D8B900F02EF9E0B9224C7C
:10494000D4F828391B0EF02B0AD1D4F8242A1F4B97
:104950009A4231D000F044F8072400F091F8E5E7DE
:10496000062400F03DF800F08BF8204603B030BD7F
:104970000424204603B030BD00F032F800F080F887
:10498000FFF780FF044698B9114D2B68002BCDD15D
:1049900002460146FFF782FA50B968220D4901AB81
:1049A000FFF7ACFA20B920460B4B2B6003B030BDAB
:1049B0000524204603B030BD012000F0EDF80028AA
:1049C000DAD1C4F80C0ADBE7001084500000E020C4
:1049D00064360020683600205AEA5A5A0020704790
:1049E00000207047430504D54FF0FF32034BC3F856
:1049F0000821024BC3F8080A704700BF001084501A
:104A0000014BC3F8040A70470010845008B100F04D
:104A10006BB84FF47500704708B100F04FB84FF411
:104A20007500704710B5114800F072F800B110BD64
:104A30000F4800F06DF80028F9D10E4C204600F028
:104A400067F80028F3D10C4B0C481C6000F060F8AC
:104A500001460028EBD100F02DF8044608B12046AD
:104A600010BD00F07BF82046FAE700BF7C1E002056
:104A7000781E0020741E00206C1E0020701E002076
:104A800008B5084800F04EF8074800F04BF8074812
:104A900000F048F8064800F045F8BDE8084000F08E
:104AA0000BB800BF7C1E0020781E0020741E002062
:104AB000701E002000207047704700BF024610B4EF
:104AC000084CD4F8003A1342FBD021B1D4F8043199
:104AD0000B60C4F80831034B0020C3F8082A10BC4F
:104AE000704700BF00108450044AD2F8003A1842C0
:104AF000FBD0C2F8080A0020704700BF00108450A5
:104B0000FFF70AB9FEF78FBE0A460021FEF78BBEFB
:104B100008B5034B02681B6810689847002008BD61
:104B2000A81E002008B5034B02685B681068984710
:104B3000002008BDA81E0020024B02689B68106878
:104B4000184700BFA81E002008B5034B0268DB68A9
:104B500010689847002008BDA81E002070B5094CB9
:104B6000094D2069AB68984718B1084B08485B6845
:104B700098470021074AEB6811602069BDE8704042
:104B8000184700BF941E0020A81E00208C1E002085
:104B9000006B0000D0360020F8B51A4D1A4E0446BE
:104BA000B26828699047E8B9184F3B684CB1A3B187
:104BB000012B19D0013B3B602869F368984700201E
:104BC000F8BD43B90121124AC2F800151149D1F8C4
:104BD0001029002AFBD101333B60F368286998470C
:104BE0000020F8BD0C48F8BD0A4AD2F81039002B55
:104BF000FBD1074A6FF07E40C2F80035FFF700FF97
:104C00003B68D7E7941E0020A81E0020D036002065
:104C10000000845000108450E98FFFFF014B1B6897
:104C2000184700BFA81E0020014B9B68184700BF13
:104C3000A81E0020014BDB68184700BFA81E0020FB
:104C4000BFF34F8F0549064BCA6802F4E062134375
:104C5000CB60BFF34F8F00BFFDE700BF00ED00E06A
:104C60000400FA0530B44FF0FE320025074B084C23
:104C700008494968C3F80024C3F80424C3F8082489
:104C8000C3F80C24C4F8005530BC08470010845009
:104C9000000084508C1E002010B5044650B163689B
:104CA00013F0685F05D0064A934202D00023626089
:104CB000236010BD034B04485B689847EFE700BFD3
:104CC0002C5F5CA98C1E0020206B0000C8B14368DB
:104CD0000D4A934213D013F0685F0ED0012350E8C1
:104CE000002F194640E8001C9CF0000FF7D1012A64
:104CF000F5D0BFF35F8F0020704704487047044829
:104D000070476FF4E04070472C5F5CA9E98FFFFFAC
:104D1000EA8FFFFF034680B1426809498A420AD000
:104D200012F0685F05D0BFF35F8F002210461A6053
:104D3000704704487047044870476FF4E04070477C
:104D40002C5F5CA9E98FFFFFEA8FFFFF10B50446D7
:104D500020B10023034A2360626010BD0248FFF7C0
:104D600081FFF6E73A00003A486B00002DE9F04772
:104D7000002878D00C46002975D01D46002B72D033
:104D800007461AB1012200232A6003602B68002B1A
:104D900064D02946204600F00FFE804600285FD1EF
:104DA0002146286800F0EEFD8046002858D12B6887
:104DB000082B6CD0042B6DD0A3F10209B9FA89F944
:104DC0004FEA59190121354EC6F8C411C6F84011F1
:104DD000C6F8C411636AC6F83031D6F83021934260
:104DE000F6D14FF0000A4FF0FF30C6F82CA1FFF7C4
:104DF000F9FD6FF01B035046C6F80031FFF700FEC7
:104E0000C6F80C91D6F8040A40F48060FFF7F8FD6C
:104E10000A23C6F83831089B012B29D02369204A80
:104E2000A2FB03231B09626A404602FB03F303EB68
:104E300043031A4ADB039B09C2F8D8310123C2F8A5
:104E40002C313B682A6823F07F4343EA02633B60CE
:104E50002A6843EA02233B60BDE8F087DFF844801C
:104E60004046BDE8F087DFF840804046BDE8F08767
:104E70004FF47F03D3F80C2C013206D0D3F80C3C4E
:104E8000074AA2FB03231B09CDE71623CBE74FF00C
:104E9000030997E74FF0020994E700BF0010845020
:104EA000ABAAAAAA310CF100350CF10058B34B1E85
:104EB000B3F5047F27D230B54FF0000ECD00744615
:104EC00071464B0901F01F0C50F82330BCF11F0F45
:104ED00023FA0CF306D003F0010319B901211C4693
:104EE0008E46EEE79C4201F1010106D01C464FF0D0
:104EF000010EA942E5D1002030BD0EF1010E96450C
:104F0000F7D1024830BD0148704700BF360CF100B0
:104F1000C0B32DE9F0434C1EB4F5047F1DD2E3B1BC
:104F2000DAB100252E46A8462C46CF0003F1FF3902
:104F30004FEA541C04F01F0E50F82C10BEF11F0F46
:104F400021FA0EFC0CD00CF0010C4CB90126E04605
:104F500034463546ECE7964216D90C48BDE8F08356
:104F6000AB420BD0C44508BF0136A945F3D001358B
:104F70000134BC42DCD10020BDE8F0830125E046CD
:104F80002E46F5E7014870471D46F1E7370CF10062
:104F90002DE9F04F91B08346DDE91B460D46002E0A
:104FA0006ED10F691C6000231A990B60002A00F073
:104FB0002F819D4B6A6AD3F83811D3F830319A4269
:104FC00069D10A2967D19BF80330089304F10803DB
:104FD000079304230593954B934CA3FB07239B084E
:104FE00003EB4303A7EB4303039306971A9B069E29
:104FF0001E60002E00F0EA8000F0EEFC0023099312
:10500000BBF1000F00F0D58098464FF0010ADDF8A3
:105010001C90002D00F0CD80089B002B3DD0284631
:1050200008A900F0C9FC002839D0814B984220D053
:10503000089B082B00F0E48000225B0008932946BF
:1050400008AB58460092FFF791FE7A4B984200F069
:10505000D38070B9DBF80020130A03F47F031343F5
:1050600023F07F43CBF80030059B013B0593BDD176
:105070000020039000F0B0FC039811B0BDE8F08F61
:105080004FF47F01D1F80C0C01300CBF4FF40477C2
:10509000D1F80C7C86E76848EBE76648C5E7294607
:1050A000089800F06FFC0028BFD1089B082B00F087
:1050B000A980042B00F0A980A3F10203B3FA83F3C3
:1050C0005B090493C4F8C4A1C4F840A1C4F8C4A106
:1050D0006B6AC4F83031D4F830219342F6D1002302
:1050E0004FF0FF30C4F82C31FFF77CFC002318464A
:1050F0006FF01B03C4F80031FFF782FC049B4B4F99
:10510000C4F80C31D4F8040A40F48060FFF778FC4E
:105110000A23C4F838312B6909A8A7FB03236A6A5C
:105120001B0902FB03F303EB4303DB039B09C4F8F6
:10513000D831C4F82CA1DBF80030089923F07F4265
:105140000B0243EA01631343CBF8003000F00AFC82
:10515000099B03F01A0303437FF46AAFA7FB0637EA
:10516000D4F81431B8EB970F0A93D4F818310B9395
:10517000D4F81C310C93D4F820310D93D4F8243199
:105180000E93D4F828310F9301D1039B9BB9484665
:1051900018220AA9183EFFF7B3FC09F1180908F113
:1051A00001089EB100F018FC00230993002D7FF444
:1051B00033AF224839E748461A46F61A0AA99944F5
:1051C00008F10108FFF79CFC002EEBD1069F079E1B
:1051D0006A6939463046FFF769FEAA6940B94FF45B
:1051E000806339463046FFF793FE00283FF440AF16
:1051F00000231A9A136018E72B6A002B3FF439AF8B
:105200000F4836E7032304935CE70223049359E72E
:10521000012229465846009608ABFFF7A7FD002853
:105220003FF4D4AE25E700BF00108450ABAAAAAA71
:10523000020CF100310CF100300CF100350CF100E2
:10524000320CF10010B4DDE9013401940024DDF8E2
:105250000CC0CDE902C410BCFFF79ABE30B51546AC
:10526000012487B005AB00930022CDE9015404ABC3
:10527000FFF78EFE07B030BDF0B587B0002966D0CD
:105280001E46002B63D01446002A60D0314F0D46D5
:1052900038684FF0FF31FFF74FFC00284DD1002058
:1052A000FFF77AFC002844D12B4800F097FAD8B1D8
:1052B00001204FF0FF35FFF76FFC002835D14FF488
:1052C00008712648FEF73CFE04212548FEF738FE0B
:1052D00021482821FEF734FE3868FFF735FC002806
:1052E0002FD1284607B0F0BD1C4A0346029205AAFA
:1052F000019204AA03900092174902461848FFF74A
:10530000A1FF03460028D3D128461D46059B22460F
:105310009C4228BF1A46049932600831FFF7F0FB1F
:105320000120FFF739FC0028C9D00E48FFF79AFC8E
:10533000C5E70D48FFF796FCB6E70C48FFF792FC6F
:10534000ADE70B48FFF78EFC284607B0F0BD4FF0E5
:10535000FF35C6E76C1E0020E8360020103700201D
:10536000E4360020C86A0000A86A0000906A0000C5
:105370006C6B000010B5044630B100220123626559
:10538000A265E365236610BD0148FFF76BFCF4E7F7
:10539000846B000018B174220021FFF7B3BB704783
:1053A00088B199B110B50024802A846380F83C400C
:1053B00006D1102204631044FFF7A2FB204610BD63
:1053C0006FF01F0010BD6FF0210070476FF01F00DD
:1053D000704700BF70B5044686B0F8B11046EAB118
:1053E000E3B101291AD8A26B16D0012A16D11025D3
:1053F00000210DEB0506019602AA6163294600957E
:1054000000F0F6FA50B92B463246204602A900F0C9
:1054100099FD18B906B070BD002AE8D06FF02100E0
:10542000F8E700BF10B5044628B12046BDE810409B
:10543000F421FFF769BB0448FFF714FC2046BDE8E0
:105440001040F421FFF760BB986B000010B1F4210D
:10545000FEF776BD704700BF08B521B1012908D01D
:105460006FF0360008BD012100F058F80028F7D190
:1054700008BD022100F052F80028F9D0F0E700BF83
:1054800030B505468818B0F5801F0B461446A1B00C
:1054900001D8802A0CD9B3F5801F17D922461946A6
:1054A000284600F07DF8044684B9204621B030BD7E
:1054B0006846FFF725FB22466946284600F070F84B
:1054C000802104466846FFF71FFBEDE76FF03604C6
:1054D000EBE700BF70B5E8B10E46D9B1044600F065
:1054E00031F80546B0B92368012B0BD0022B01D04F
:1054F000284670BD1C22304604F10801FFF700FB6E
:10550000284670BD2022304604F10801FFF7F8FA62
:10551000284670BD6FF03605EAE700BF78B138B5B0
:105520000D46F0210446FFF7EFFA402320462560A0
:10553000E36500F091FA003818BF012038BD012062
:10554000704700BFF0B5056EA5B0044604AEE5B9DE
:1055500000230127019330466760294602AA009381
:1055600000F046FA10B1012025B0F0BD2A462046D1
:1055700002A900F099FA0028F5D1204600F0AAFB14
:105580000028F0D1206625B0F0BD802D2A46304697
:1055900028BF802204F16401FFF7B2FA256ED7E735
:1055A000002800F0AE802DE9F04F1446A5B0002A87
:1055B0003DD00F46002949D0B2F5803F0546006E28
:1055C00020D34FF6FF7805F1640AEB6D1A1AB2FB8F
:1055D000F3F103FB1122002A65D18342B9464FF64D
:1055E000FF7672D0B6FBF3FB03FB0BFBBBF1000FA6
:1055F00030D1002E45D1A4F57F44FF3CB4F5803F67
:105600004744E2D2EA6D161AB6FBF2F302FB1366C8
:10561000A64228BF2646002E75D1824200F08D801A
:10562000B4FBF2F602FB06F62EB9002C79D100206D
:1056300025B0BDE8F08F002331463846CDE9003370
:1056400002AA00F0D5F9002800F09580012025B0CD
:10565000BDE8F08F002359464846CDE9003302AA41
:1056600000F0C6F90028F1D15A46284602A900F0F8
:105670001BFA0028EAD1A6EB0B06286ED944002EAF
:10568000B9D019304946324605EB8000FFF738FAA9
:10569000A4F57F44286EFF3C3044B4F5803F474476
:1056A000286692D2AEE7424528BF424616463946A2
:1056B0005044FFF725FA286EEB6D3044834207EB28
:1056C00006092866A8EB06068CD1802B28BF80230C
:1056D00051461A4604A8FFF713FA0023E96D02AAFF
:1056E000CDE9003304A800F083F90028AED12846A4
:1056F000EA6D02A900F0D8F90028A7D1EB6D286661
:1057000070E70120704705F16403394632461844BA
:10571000FFF7F6F9286EEA6D3044A41B374428667B
:105720007BE72B6E2246193305EB83003946FFF7E2
:10573000E7F92B6E23442B6679E7802A28BF802265
:1057400005F1640104A8FFF7DBF90023E96D04A863
:10575000CDE9003302AA00F04BF900287FF476AFC0
:105760002846EA6D02A900F09FF900287FF46EAF89
:10577000EA6D286654E73246284602A900F094F9FB
:1057800000287FF463AF3744A41B4EE7F8B51C46EE
:105790000546114816460F46FFF744FE21460E48BF
:1057A000FFF75AFE044620B10B48FFF74FFE204694
:1057B000F8BD3A4629460848FFF762FE044600282D
:1057C000F2D131460448FFF785FE04460248FFF750
:1057D0003DFE2046F8BD00BF303900201C2370B5C7
:1057E00082B001A90546019300F032F8044638B9A9
:1057F000019B1C2B07D0144C1C212846FFF784F971
:10580000204602B070BDD5E90112131E18BF012356
:10581000003918BF0121012628689B00EA6843EA85
:105820004103002818BF43F00103EE612AB9C5E91E
:105830000834002BE4D1054CDEE7204643F0080392
:10584000C5E9083402B070BD370CF0000E0CF00052
:105850000346002866D0002964D00A681C2A61D15A
:105860004FF47F023B49D2F8100C88425CD0D2F84A
:10587000101C013158D0D2F8101C4FF47F0219606F
:10588000D2F8140C3449884260D0D2F8141C01318B
:105890005CD0D2F8141C4FF47F025960D2F8181C67
:1058A00011F5947F4FD0D2F8181C01314BD0D2F8AB
:1058B000181C4FF47F029960D2F81C0C27498842CB
:1058C0003ED0D2F81C1C01313AD0D2F81C1C4FF447
:1058D0007F02D960D2F8001C70312FD0D2F8001CA2
:1058E00001312BD0D2F8001C4FF47F021961D2F89D
:1058F000041CAF3120D0D2F8041C01311CD0D2F8E6
:10590000041C4FF47F025961D2F8080C14498842F4
:105910000DD0D2F8081C013109D0D2F8082C002093
:105920009A6170470120704740F6FC01A5E740F2FC
:10593000373200209A6170475121E2E79021D3E786
:1059400042F60411C3E740F6D861B2E742F2D00153
:10595000A1E700BFFCF8FFFFD020FFFF0429FFFFF5
:1059600037F3FFFF014608B54FF48060FFF754F8A6
:105970000022034BC3F8C821C3F82C2108BD00BF87
:10598000001084500138072805D8DFE800F0100E19
:10599000040A0404040607487047CB6800204B62E1
:1059A00070478B6800204B6270474B68F6E70B68C6
:1059B000F4E700BF310CF1000B6802E0082B0B602C
:1059C00006D8026A13424FEA4303F7D0002070471B
:1059D00000487047310CF1000022044B4FF4806006
:1059E000C3F82C21C3F8C421FEF7FCBF001084507B
:1059F000F0B5002483B0B0F1005F8DF8074025D3E7
:105A00008C468444BCF1804F04461FD817461D467F
:105A100001220DF1070300F059FF0646B0B99DF8C9
:105A20000730099A3C603B7192B14DB1024608992A
:105A300028460DF1070300F049FF38B99DF80730FB
:105A40003046099A1560137103B0F0BD4FF4750626
:105A5000304603B0F0BD00BFD8B108B50368012BD4
:105A600004D0022B0FD043B10B4808BD20220B49B4
:105A70000830FFF745F8002008BD14220849083017
:105A8000FFF73EF8F7E7202206490830FFF738F81D
:105A9000F1E74FF4730070470100F300A86B0000BA
:105AA000E86B0000C86B00002DE9F843002900F006
:105AB000F9800446002800F0F98003680F469046FC
:105AC000002B00F0C380013B012B00F2D7804FF088
:105AD000FF3178484FF00209FFF72EF8002840F018
:105AE000BF800020FFF758F80646002840F0C2802B
:105AF000714AD2F81C39002BFBD16F4DD5F8203CF0
