:020000040000FA
:10000000C0250020411F0000B57F0000151F000023
:10001000151F0000151F0000151F0000151F000010
:1000200000000000000000000000000005190000B2
:10003000151F000000000000AD180000512B00004B
:100040008519000085190000851900008519000038
:100050008519000085190000851900008519000028
:100060008519000085190000851900008519000018
:100070008519000085190000851900008519000008
:1000800085190000851900008519000085190000F8
:1000900085190000851900008519000085190000E8
:1000A00085190000851900008519000085190000D8
:1000B00085190000851900008519000085190000C8
:1000C00085190000851900008519000085190000B8
:1000D00085190000851900008519000085190000A8
:1000E0008519000085190000851900008519000098
:1000F0008519000085190000851900008519000088
:100100008519000085190000851900008519000077
:100110008519000085190000851900008519000067
:100120008519000085190000851900008519000057
:100130008519000085190000851900008519000047
:100140008519000000000000000000000000000011
:10015000000000000000000000000000000000009F
:10016000000000000000000000000000000000008F
:10017000000000000000000000000000000000007F
:10018000000000000000000000000000000000006F
:10019000000000000000000000000000000000005F
:1001A000000000000000000000000000000000004F
:1001B000000000000000000000000000000000003F
:1001C000000000000000000000000000000000002F
:1001D000000000000000000000000000000000001F
:1001E000000000000000000000000000000000000F
:1001F00000000000000000000000000000000000FF
:10020000DEE61E284CBBCE8F025B00003C000000E7
:1002100000000100010000000000000000000000DC
:10022000FFFF02910000000000000000000000003D
:1002300000000000000000000000000053B94AB9AF
:10024000002908BF00281CBF4FF0FF314FF0FF30DE
:1002500000F070B9ADF1080C6DE904CE00F006F8BD
:10026000DDF804E0DDE9022304B070472DE9F04732
:10027000089E0D4604468A46002B7FD18A421746C7
:1002800041D9B2FA82F24AB1C2F1200105FA02F371
:100290009740944020FA01F141EA030A4FEA1748D7
:1002A0004FEA144C1FFA87F9BAFBF8FE08FB1EA3AD
:1002B0000EFB09F14CEA0343994206D9FB1802D21E
:1002C000994200F224810EF1FF3E591AA3B2B1FB0C
:1002D000F8F008FB101100FB09F943EA0144A145BD
:1002E00005D93C1902D2A14500F20E810138A4EBD8
:1002F000090440EA0E4000211EB1D4400023C6E9A3
:100300000043BDE8F08702B9FFDEB2FA82F2002AAC
:100310004FD1CB1B4FEA174E1FFA87F80121250C4E
:10032000B3FBFEFC0EFB1C302B4608FB0CF945EA28
:100330000045A9450AD97D192CBF01230023A945F1
:1003400002D9002B00F0D9800CF1FF3CA5EB090588
:10035000A3B2B5FBFEF00EFB105508FB00F843EA14
:100360000544A04505D93C1902D2A04500F2C98038
:100370000138A4EB080440EA0C40BDE78B4208D9E1
:10038000002E00F0B1800021C6E900050846BDE856
:10039000F087B3FA83F1002946D1AB42C0F0A780C1
:1003A000824240F2A4800846002EAAD0C6E9004A44
:1003B000A7E7C2F12000974001FA02F34FEA174E77
:1003C000C14024FA00F51FFA87F894401D43B1FBA1
:1003D000FEF02B0C0EFB101100FB08FC43EA01435E
:1003E0009C4509D9FB182CBF012100219C4502D94D
:1003F000002900F095800138A3EB0C03ADB2B3FBEC
:10040000FEF10EFB113301FB08FC45EA0345AC4548
:1004100005D97D1902D2AC4500F289800139A5EBDE
:100420000C0341EA00417AE7C1F120048B4002FA53
:1004300001F705FA01FCE24020FA04F8E54000FA71
:1004400001FE134348EA0C024FEA13484FEA124CEC
:100450001FFA83F9B5FBF8FA08FB1A550AFB09F0F5
:100460004CEA054C60450AD913EB0C0C2CBF012556
:100470000025604501D9002D55D00AF1FF3AACEBBB
:10048000000C92B2BCFBF8F008FB10CC00FB09F9A1
:1004900042EA0C4CE14505D913EB0C0C01D2E145C5
:1004A0003BD8013840EA0A40ACEB090CA0FB0789B5
:1004B000CC4545464A4602D306D1C64504D201384A
:1004C000B8EB070569EB03022EB3BEEB05036CEB3B
:1004D000020C23FA01F20CFA04F42CFA01F30021C5
:1004E0001443C6E900430CE73146304609E7841A55
:1004F00065EB030301209A4656E7ACF1020C3D443C
:1005000024E702383C4434E702383C44EFE6AEF1DD
:10051000020E3B44D9E63146F3E602389C44C1E77B
:1005200002383B4468E7AAF1020A9C44A7E7023973
:100530003D4474E7704700BF2DE9E04F2746A046D1
:10054000A146A246A346A446A2B02DEC000A84F31D
:10055000008825462646A4473DEC000A22B0BDE8A7
:10056000E08F00000B6801330B60014B1B681847DC
:1005700000000020014B1860704700BF0000002001
:1005800007B50B46002102460191034801A900F07E
:1005900005F803B05DF804FB650500002DE9F04F98
:1005A0008B4692461C46002591B002909AF80000B6
:1005B00008B928465EE325280AF1010707D0594605
:1005C000029B98470028C0F25583013510E218229B
:1005D00000210AA807F049FD9AF80130252B78D0B0
:1005E00000229446164696461046394617F8013BB7
:1005F0002B2B00F09D8000F29480202B00F09B803C
:10060000232B00F09A8028B19DF8300040F00400C0
:100610008DF83000BEF1000F05D09DF8300040F09D
:1006200008008DF830002EB19DF8300040F0100029
:100630008DF83000BCF1000F05D09DF8300040F07F
:1006400020008DF830002AB19DF8302042F04002A1
:100650008DF830209DF8302002F04400442803D16A
:100660006FF386128DF830209DF830202A2B42F04F
:1006700080028DF830207BD19DF831204B1C42F058
:1006800001028DF831201A782E2A0CBF0121002199
:100690009DF8312061F341028DF8312074D15A78F0
:1006A0002A2A6AD000210A260133184610F8012BA5
:1006B000A2F13007092F40F28E809DF830200E9174
:1006C000C2F3400040EAD17161F341028DF830205D
:1006D0005AE00AF102078DF833309DF83130D9071E
:1006E00040F1498154F8049BB9F1000F07DA9DF8F5
:1006F0003020C9F1000942F004028DF830205A0779
:1007000040F1428154F8048BB8F1000F80F241812E
:100710009DF831306FF341038DF831304FF0FF38E1
:1007200037E12D2B0CD0302B7FF46DAF01225CE72D
:100730004FF0010E59E7012657E74FF0010C54E73F
:10074000012052E733460CFB0202303A1E4616F8EF
:10075000010BA0F13007092FF4D9994293D09DF8ED
:1007600030100D92D20F62F341018DF830108AE7FC
:100770000B4600224FF00A0CE8E79DF831200233C7
:1007800042F004028DF831201F4617F8012B6C2A25
:1007900041D025D8682A2BD06A2A46D04C2A4CD082
:1007A0001F4617F8012B9DF83130782A8DF8332039
:1007B00000F2D980572A4DD8412A03D0453A022A5F
:1007C00000F2D18004229DF8323062F302038DF8EA
:1007D000323001239EE006FB01210346303964E7F5
:1007E000742A26D07A2ADBD106229DF831300DE01A
:1007F0005A78682A9DF8312006D1012161F3C6029A
:100800008DF831209F1CCCE71346022262F3C60309
:100810008DF83130C5E75A786C2A9DF8312001D126
:100820000421EBE713460322F0E705229DF831305F
:10083000ECE707229DF83130E8E7BDF8303023F4CB
:10084000F04323F0020343F4804343F00203ADF886
:100850003030A6E7A2F15801202900F2848001A0DF
:1008600050F821F02909000067090000670900001D
:1008700067090000670900006709000067090000B8
:100880006709000067090000C5070000670900004C
:1008900029090000E9080000C5070000C50700009D
:1008A000C507000067090000E908000067090000AB
:1008B00067090000670900006709000031090000AE
:1008C000290900004D0900006709000067090000C0
:1008D0004D090000670900002909000067090000B0
:1008E000670900002909000001209DF8321003F07B
:1008F000780360F30201402B8DF8321002BF9DF89F
:10090000301041F001018DF83010632A31D1003BE5
:1009100018BF01239DF83020C2F340010B4363F35D
:1009200041028DF83020D8E602209DF83210DEE733
:1009300003219DF8322003F07803A3F1400061F316
:10094000020243428DF832204341E3E703219DF840
:10095000322013F0780F61F3020214BF0123002349
:100960008DF83220D6E79DF8303043F001038DF842
:1009700030300023CEE79DF93020002AACBF4FF085
:10098000FF39DDF83490BAE69B077FF5C7AEDDF896
:1009900038800023CDE90D339DF832309DF83120A9
:1009A00003F00703012BC2F3C30236D1D31E042B7D
:1009B00020D8DFE803F00307071F1F0054F8040BDB
:1009C000C11704E0073424F00704F4E80201CDE97C
:1009D0000A019DF8303013F0030654D03B465246CE
:1009E0005946029807F06DFA0028C0F24381054489
:1009F000BA46DBE554F8040B012A4FEAE071CDE971
:100A00000A0105D19DF828300A9300230B93E0E7F3
:100A1000022ADED1BDF92800D2E7022B23D1D31E52
:100A2000042B13D8DFE803F0030A0A121200002196
:100A30002068231D0A900B911C46CAE7073424F056
:100A40000703F3E80201CDE90A01F5E754F8043B96
:100A5000012A0A934FF000030B93D3D0022AB8D196
:100A6000BDF82830D0E7042B07D1073424F0070461
:100A7000F4E80201CDE90A01ABE7032B04BF54F807
:100A8000043B0A93A5E79DF833007828B0D8622884
:100A900022D825283FF493AD5828A9D1DDE90A01D1
:100AA0000DF1260300930CAA04AB07F0BFF98246B0
:100AB000B8F1000F0DF126000CDB9DF83020A0EB03
:100AC0000A036FF3861298458DF8302002D9A8EBFF
:100AD00003030D9380463DE06338152888D801A1B3
:100AE00051F820F0650B0000C90B0000F10900006F
:100AF000F1090000F1090000F1090000C90B000034
:100B0000F1090000F1090000F1090000F1090000FD
:100B1000270C0000F50B0000F90B0000F1090000A4
:100B2000F10900003D0B0000F1090000F50B000089
:100B3000F1090000F1090000F50B0000B8F1000F09
:100B4000DDF828A00ADB4146504607F053FA00269C
:100B50000AEB0008BAF1000F0CD149E7504607F044
:100B600042FAF4E700260A9B0DF111088DF81030C7
:100B70000DF1100AA8EB0A0306B101339DF83220EB
:100B8000D0066BD5023352060D9948BF0E9A0B441E
:100B900048BF9B18B9F1000F79DD9DF83020A9EB13
:100BA0000309C2F380030393530770D4500664D53E
:100BB00046B159463046029B984700285ADB039BB2
:100BC00001351E46302359E01E0711D413F01006DC
:100BD00018BF2026DDE90A23002A73F10001BFF6C1
:100BE0005DAF524263EB43032D26CDE90A2355E75F
:100BF0002B26EFE7002651E70A9848B30DF12603AC
:100C00000093002104AB0CAA07F010F9BDF83230B4
:100C1000824603F0EF0343F4F04343F01003002651
:100C2000ADF8323044E70A9B072A3FF6E1AEDFE831
:100C300002F00D04060D08080D0D1D70D8E61D808C
:100C4000D6E62846E917C3E90001D1E61D60CFE6E4
:100C5000DFF8C4800646A8F1050A8BE7110748BFF4
:100C6000013390E7184603935946029B98470028A2
:100C7000039B04DA11B0BDE8F08F20234D444A46AF
:100C8000002AA5EB090109F1FF39EBDC0D4636B16D
:100C900059463046029B98470028EBDB01359DF80A
:100CA0003230D90601D41A0706D559463020029BA6
:100CB00098470028DEDB01359DF83230DB0607D58A
:100CC00059469DF83300029B98470028D2DB013536
:100CD0000D9E2E44731B002B16DC4346524659468C
:100CE000029807F0EEF80028C4DB0544A944A9EBFC
:100CF0000503002B7FF77CAE59462020029B9847C6
:100D00000028B7DB0135F2E759463020029B9847AF
:100D10000028AFDB0135DDE7D58C0000044608B5BF
:100D20004FF02002EFF3118382F31288BFF36F8F2D
:100D300001F0FEFF204601F033F9034807F04CF8BC
:100D400000F0FAFCFCE700BFD68C00004FF0200258
:100D5000EFF3118382F31288BFF36F8F0121044AEE
:100D6000C2F8401583F31188BFF36F8F00207047DE
:100D70000090035020B1034B800143F0010318475A
:100D8000704700BFE0880000062807D10122044B0D
:100D9000C3F80025BFF34F8F20BFFDE7704700BFAA
:100DA000004000502DE9F84305464FF02003EFF3D3
:100DB000118683F31288BFF36F8F1E4802F0A4FDE3
:100DC00040B91D491D488E2207F098F88E211A4817
:100DD00007F08DF8174802F0B3FD194B1C68002C82
:100DE00038BF00249CB14FF00C09164FDFF8588033
:100DF000D4E90132002D08BF13462BB198F8142016
:100E000009FB02F2B85C98472468002CF0D109482D
:100E100002F088FD40B908490848B92207F06EF889
:100E2000B921054807F063F886F31188BFF36F8F87
:100E3000BDE8F88338020020038D0000308D0000EB
:100E40003C02002044020020E00900200123420966
:100E500000F01F0003FA00F0C043054B03EB8203D0
:100E6000D3E8EF2F0240C3E8E12F0029F8D1704703
:100E700050020020012238B5174B1D7D05F01F03DD
:100E80009A40D043154B690903EB8103D3E8EF1F68
:100E900001EA0004C3E8EC4FBCF1000FF6D11142A7
:100EA00013D00F4B0F4C8BB10C236B43E2185178CE
:100EB000E05C07F031F80020FFF774FF0C230022FC
:100EC0006B43E118E250C1E9012238BD83F3118878
:100ED000BFF36F8FEFE700BFE0090020540200204E
:100EE000197F0000440200202DE9F8432F4B0746EC
:100EF0001C7D4FEA54184FEA88082D4B4344D3E831
:100F0000AF3F04F01F0943FA09F313F0010F294E14
:100F10000AD10146204600F063F828B107C80C2327
:100F200003FB046383E807000C236343F55CF218BA
:100F30002DB92046FFF78AFF2846BDE8F8837B1CC1
:100F40000FD04FF400450021D2F808C01A48002302
:100F5000E5FB0C01194AFFF771F90121381A04F079
:100F600027F802F0D7FF0120FFF71CFF012303FA47
:100F700009F9134B9844D8E8EF3F43EA0903C8E85E
:100F8000E23F002AF7D10F4B33B10C236343F21831
:100F90005178F05CFFF7F8FEFFF76CFF2046FFF793
:100FA00055FF03F0EFFB0120C7E700BFE009002079
:100FB00050020020440200203F420F0040420F0038
:100FC00054020020890D0000044B03EB8000D0E8A0
:100FD000AF0F003818BF0120704700BF5802002033
:100FE0002DE9F74F0E4601A900F048F84FF000092F
:100FF000441EDFF8808024B2631C04D100252846FB
:1010000003B0BDE8F08F019A04EB440312F823000B
:1010100002EB8305FFF7D8FF38BB4FF4004A4FF0CF
:10102000000C6968DFF850B04246EAFB01BC4B4651
:1010300058466146FFF702F94FF0000CA968DFF847
:1010400038B04B46EAFB01BC07464246584661466B
:10105000FFF7F4F8064B1B68591C01D0834204D9F2
:10106000721CCCD03844B042C9D9013C24B2C3E789
:101070000400002040420F003F420F0008B9024B1D
:101080000B600020704700BFE888000000280DDBDF
:101090000122430900F01F0002FA00F0044A203345
:1010A00042F82300BFF34F8FBFF36F8F704700BF2D
:1010B00000E100E0F7B500281C4614BF4FF40053D0
:1010C0004FF400438A420BD294222749274806F066
:1010D00015FF9421244803B0BDE8F04006F007BF97
:1010E00040D00D46224E002839D005F5E077013575
:1010F000AA4246F82740F6D802FB03F0013A4B43D8
:1011000000901C4806F068FE1B4B14F0100F1B49A2
:101110001B4808BF194606F05FFE14F0040F14BF09
:1011200072212D21174806F057FE14F0020F14BF4C
:1011300077212D21134806F04FFE14F0010F0CBF4C
:101140002D2178210F4806F047FE6C210D4806F04E
:1011500043FE0D4803B0BDE8F04006F03DBE05F586
:10116000C077C4E703B0F0BD608D0000308D000093
:1011700000300050818D0000548D00004B8D000028
:10118000328F00009B8D0000D299000030B54FF4E3
:10119000803485B04FF480312548264D06F01CFE82
:1011A0002168254806F018FE2968244806F014FE38
:1011B00010220021684606F058FF23686846009315
:1011C000029400F04BFF012000F07AFF002000F0B5
:1011D00063FF002000F088FF0121002000F0A2FF43
:1011E00000F096FF16482C6806F0F6FD0820FFF781
:1011F0004DFF144A24F00104D2F82038002B07DAFE
:1012000003F00303023B012B9CBF0F4BC2F82038B5
:101210000121082006F09FFEBFF34F8FBFF36F8FB1
:10122000640864002046214622462346FFF784F9DD
:101230009E8D000004000100B58D0000CA8D0000E5
:10124000E88D000000300050000100802DE9F843D7
:10125000704806F0C1FD002140F217130846022233
:10126000FFF728FF6C4D40F20713202202210020D7
:10127000FFF720FF694806F0AFFDC5F30E04684B89
:10128000C4F500449C4208D266496748822206F0B1
:1012900035FE8221634806F02AFEB4FA84F4634ED8
:1012A000C4F11B04D6F80025E4B2D005C5F3C4355B
:1012B0000AD55F495C484FF4BD7206F01FFE4FF43B
:1012C000BD715B4806F013FED6F80435D9050AD582
:1012D0005749554840F27B1206F010FE40F27B1150
:1012E000534806F004FE514B5248C3F80055C3F86A
:1012F0000445D3F80015D3F80425520106F06CFD1F
:10130000464806F069FD00F0ABF8014610B14A48C6
:1013100006F062FD494806F05FFD40F21713042213
:1013200000210120FFF7C6FE404C40F207132022A7
:1013300004210120FFF7BEFE384806F04DFDD4F829
:101340008434DA070AD53A49374840F25B1206F08E
:10135000D5FD40F25B11364806F0C9FD0023384840
:10136000C4F8803406F038FDD4F8C434DB070AD55D
:101370002F492D484FF4B57206F0C0FD4FF4B571FA
:101380002B4806F0B4FD0024284B2E4D2E4E2F4F37
:10139000DFF8C880C3F8C04495F805902146B9F13C
:1013A000000F14BF33463B4640462A6806F014FD42
:1013B000B9F1000F0CD02648013406F00DFD202CA9
:1013C00005F10805E8D11548BDE8F84306F004BD6D
:1013D00095F8049095F90400FFF758FE4FEA890349
:1013E00003F1A04303F54053B9F1310FD3F80028BE
:1013F00006D0002A07DA02F00302023A012A02D8D4
:10140000144AC3F800280121484606F0A4FD1248FA
:10141000D2E700BF1E8E0000E0FF0000D29900005E
:1014200020000000608D0000308D00000030005072
:10143000428E0000748E0000BA8E0000EA8E00001A
:101440000C8F0000E8880000588D0000138E00000B
:10145000358F0000000100803C8F0000288F0000C5
:1014600000220248114603F037BF00BF740200207B
:1014700070B50C461546064650B96FF01500BDE82C
:101480007040714672467346F4468EF3008C744782
:10149000002AF2D006F0A2FD0128EED00B4B9C42B0
:1014A0000AD92A192D339A4209D82A4621463046AC
:1014B00006F0D0FD0020E2E7054B9C4203D9054B26
:1014C0002A199A42F1D94FF0FF30D8E7FF01FF0007
:1014D0002F01FF003801FF0070B506460D46144687
:1014E00006F07CFD01280DD0204606F077FD01288E
:1014F00008D023462A463146084803F021FF2368D6
:10150000AB4201D06FF01500BDE8704071467246E5
:101510007346F4468EF3008C744700BF74020020BB
:101520002DE9F04F81460D4685B081B306F056FD9A
:1015300001282CD1284606F051FD012827D04FF074
:101540000008DFF85CB0DFF85CA001AF5BF8046B6B
:101550009AE807004E4487E807000C2239463046D7
:1015600006F051FD044600B9A6B908F10108B8F12A
:10157000050FEBD16FF00D04204605B0BDE8F04F2C
:10158000714672467346F4468EF3008C74476FF0D2
:101590001504F1E73C223146284606F05BFDEBE7F7
:1015A000E8890000B0880000014803F08DBE00BF4C
:1015B000FC89000008B5B0B14368042B0DD10022AE
:1015C0000368D3E8EF1F012903D1C3E8E02F002807
:1015D000F7D1074808BF104608BD3BB1006802F0CC
:1015E000BDFA0020F8E76FF4E040F5E70148F3E7C3
:1015F000E98FFFFFEA8FFFFF10B5044618B90D4BC6
:101600000D485B689847616808290DD031F00403E4
:101610000AD011F0020108D02146084802F04EF825
:10162000002323600023636010BD1422206806F0AD
:101630001CFDF7E7600000207190000030040020DE
:1016400010B5044618B9164B16485B68984763688E
:10165000042B23D0082B21D0CBB92368BBB94FF082
:10166000FF324FF0FF3321460F4801F0CDFF08B99C
:1016700023681BB90A4B0D485B6898471422002168
:10168000206806F0F2FC636843F0020363602068A0
:1016900006F04DFF636843F00103636010BD00BFB7
:1016A000600000207190000030040020979000003E
:1016B00008B5E8B14368042B0CD101220368D3E8D4
:1016C000EF1F002903D1C3E8E02F0028F7D10BD189
:1016D000002008BD53B100684FF0FF324FF0FF33D8
:1016E00002F064F90028F3D00348F2E70348F0E77A
:1016F0006FF4E040EDE700BFE98FFFFFEA8FFFFFE7
:1017000008B5064940231422054806F0E5FEBDE869
:1017100008400449044803F08BBE00BF5004002079
:1017200030040020148A0000048A000001491022BD
:101730000A60704710ED00E072B6404080F31188F7
:10174000BFF36F8FBFF34F8F30BF62B6BFF36F8FA2
:10175000704700BF37B505460C46C9B18B681048C5
:101760000093D1E90023452106F0DCFB63694521A4
:101770000093D4E903230B4806F0D4FB4521E2692A
:10178000094806F0CFFB4521A269084806F0CAFBCC
:101790002146284603B0BDE8304001F0D5BD00BF6A
:1017A000C4900000F89000002C91000040910000CF
:1017B00043B2002B08DB012200F01F0002FA00F008
:1017C000024A5B0942F82300704700BF00E100E0D5
:1017D000054B420953F82220012300F01F0003FAB1
:1017E00000F01040704700BF00E100E038B54C1C2D
:1017F000072C054608D90D490D48572206F07EFBF7
:1018000057210A4806F073FB6BB2002BACBF03F103
:101810006043084B4FEA4414E4B2ABBF03F56143A5
:1018200005F00F0583F800435C5538BD7391000047
:10183000308D000014ED00E030BFFFF7FDBF00BFAA
:101840000B4A08B50B4B22F07F029A60BFF34F8F13
:10185000BFF36F8FD3F8882022F47002C3F888207A
:1018600001F0E8FD03F012FA00F05EFB01F022FE49
:101870000000000000ED00E0094A0A499368096889
:101880005867996708494B6843F080534B600023C1
:1018900083F31188BFF36F8F9368986F704700BF11
:1018A000E0090020308B000000ED00E013498A6859
:1018B0004FF030001044EFF3098C80E8F01F202037
:1018C00080F31288BFF36F8F0D4F4FF00066CA6927
:1018D0008A603E60506F0023536780F3118802F1E5
:1018E000300090E8F01F8CF3098802F1000004B585
:1018F00006F067FBBDE8044070470000E0090020E7
:1019000004ED00E01EF0040F0CBFEFF30880EFF3CE
:101910000980816911F8021C0229FFD001B506F087
:1019200012FB01BD42F8203C009B0B4942F81C3CD5
:10193000019B21F0010142F8183C029B42F8081C6F
:1019400042F8143C4FF0807342F8043C0023203AE4
:1019500002654367704700BF197E0000084B98601E
:10196000436E83F30B88104681F30988002163B628
:1019700081F31188BFF36F8F0022002306F04CFA29
:10198000E009002001B572B60B4A906900281EBF1D
:101990000021916106F0C4FD62B6EFF30580A0F16D
:1019A00010004FEAC0000549014409C99847BDE845
:1019B0000140034908470000E0090020508600006C
:1019C000C5190000044B9968D869884203D00349BF
:1019D0004FF080520A607047E009002004ED00E0FB
:1019E00070B52E4C06460D462D48452106F09AFA54
:1019F000A26AD30603D545212A4806F093FAA36AC2
:101A00001C0703D54521284806F08CFA234CA36A0D
:101A1000980710D54521254806F084FA626BA36A21
:101A2000190608D54521224806F07CFA1EB1A36AA2
:101A300023F08003A362194CA26AD30703D5452182
:101A40001C4806F06FFAA36A9E0603D545211A4882
:101A500006F068FA114B9A6AD40602D49A6A900783
:101A60000DD59B6AD9060AD51449154840F24F1284
:101A700006F044FA40F24F11104806F038FA002000
:101A8000064B9A6A920642BF5A6A22F400525A6280
:101A90009A6A42F0FF029A62287070BD00ED00E081
:101AA000A9910000C4910000FC9100001492000074
:101AB000319200004C92000070920000A49200004D
:101AC000308D000070B5234C06460D462248452156
:101AD00006F028FAA26AD10403D545211F4806F072
:101AE00021FAA36A1A0503D545211D4806F01AFA02
:101AF000184CA36A9B0510D51A48452106F012FA26
:101B0000A26BA36A180408D54521174806F00AFA03
:101B10001EB1A36A23F40043A3620E4CA36A5905C5
:101B200003D54521114806F0FDF9A36ADA050BD566
:101B300045210F4806F0F6F90020064A936A43F45F
:101B40007F439362287070BDA36A9B04F4D545213E
:101B50000848EFE700ED00E0DE920000F992000097
:101B6000FC9100000F9300002D93000047930000AC
:101B7000679300007092000038B5214C4521214840
:101B800006F0D0F9A26A950103D545211E4806F05A
:101B9000C9F9A36ADC0103D545211C4806F0C2F946
:101BA000174DAC6A14F4801404D04521184806F08F
:101BB000B9F90224AB6A180303D54521154806F08C
:101BC000B1F90F4DAA6A510303D54521124806F019
:101BD000A9F9AB6A9A0303D54521104806F0A2F98A
:101BE000074DAB6ADB0303D545210D4806F09AF992
:101BF000AB6A20466FEA03436FEA1343AB6238BD1A
:101C000000ED00E084930000A1930000B993000070
:101C1000D8930000079400002A9400005494000018
:101C20007394000010B51E4C1E48452106F07AF949
:101C3000A2696369580603D545211B4806F072F96D
:101C40006369D90708D54521184806F06BF963691F
:101C500043F0FF03636110BD63699A0702D5452114
:101C60001348F2E763695B0702D545211148ECE7A9
:101C70006369180702D545210F48E6E76369D9066D
:101C800002D545210D48E0E763699A0602D5452152
:101C90000B48DAE763691B06D9D545210948D4E723
:101CA000D0ED00E0A3940000C1940000D6940000A1
:101CB000F194000014950000349500005695000042
:101CC000709500008F9500002DE9F0417A4B0D468C
:101CD0005C6800268AB0C4F3080786F31188BFF356
:101CE0006F8F02F07F43B3F17F4F1ED112F00103DB
:101CF0003AD012F0400302F0080840F0D6805207B4
:101D000054BF05461E462A686C4B58BF0126134433
:101D1000012B98BF2A6C4521694806F003F9B8F1F8
:101D2000000F1ED0EFF389855DB940F2FB326549A3
:101D3000654806F0E3F840F2FB31624806F0D7F858
:101D400000250023FA1E98468DF807301346092B0C
:101D500000F29980DFE803F00A888C6A90979797E1
:101D60009794EFF38885DFE71E46DEE74521574865
:101D700006F0D8F8504B8DF80780DC6A14F00204A6
:101D800004D04521524806F0CDF877E0DA6A002AFF
:101D90001DDA45214F4806F0C5F89DF807309BB97C
:101DA0002022294602A806F055F9099B002E77D07B
:101DB000C3F3080222B96FEA53236FEA432309935E
:101DC000204602A9FFF7C6FC0AB0BDE8F081DB6A35
:101DD0005B0040D54521404806F0A4F8AB6933F8D4
:101DE000022C4DF602739A420CD003F1604303F6C5
:101DF00026631B786BB101200DF10701FFF7F0FDA1
:101E00000446CAE745212A68344806F08BF82C6856
:101E1000C3E7334B1B782BB101200DF10701FFF70E
:101E200051FEEDE72F4B1B889BB213B1FFF7A4FEC9
:101E3000E6E72D4B5B6913B1FFF7F4FEADE72149EF
:101E400040F2CD22204806F059F840F2CD211D483D
:101E500006F04DF8A1E71B4940F2D1221A4806F0DE
:101E60004DF840F2D121F2E700200DF10701C5E75E
:101E700000200DF10701D2E7FFF7D4FE00248CE724
:101E800045211A487FE71A4914F4F87F194A1A487D
:101E900008BF0A46A7F11003452106F043F8EDE715
:101EA00023F4FF7323F0010389E7B8F1000F7FF4F7
:101EB0003BAF0546012637E700ED00E0A6ED050142
:101EC000D5950000A4920000308D0000F995000027
:101ED000159600003B9600004E960000729600009A
:101EE00029ED00E02AED00E0D0ED00E0939600003F
:101EF000A7950000BC950000BC960000044B5A69F1
:101F000042F010025A615A6942F480625A61704785
:101F100000ED00E0EFF30880EFF3098101B57246B0
:101F2000FFF7D2FE01BD00BF002320210348C218E5
:101F30000133412B82F80013F9D1704700E100E032
:101F4000002080F31488BFF36F8F002080F30A888D
:101F500080F30B8806F01AFB00200E490860BFF3DF
:101F60004F8F0D4880F3088800F03CF8202080F364
:101F700011880A484FF40061401880F30988EFF394
:101F800014800221084380F31488BFF36F8FFFF79A
:101F900057FC000094ED00E0C02500200027002041
:101FA000BFF34F8F0549064BCA6802F4E062134342
:101FB000CB60BFF34F8F00BFFDE700BF00ED00E037
:101FC0000400FA0500231846054A1168C1F30721E9
:101FD0008B4200D17047936010610133F8E700BF76
:101FE00090ED00E010B572B6002484F31388FFF77B
:101FF000E9FF0E4A234611464FF0FF3403F120005B
:102000000133102B42F82040F8D100234FF0FF306D
:1020100003F160020133102B41F82200F8D162B6BF
:10202000BFF34F8FBFF36F8F10BD00BF00E100E023
:10203000084B9B6883420BD1EFF3058343B1064BFA
:102040005A6842F080525A605A6A22F400425A6238
:1020500002F088BDE009002000ED00E082680D4B31
:102060009A60036883F38888436883F38988027BD6
:1020700002F00101EFF3948323F00303920748BFBA
:1020800043F0020309B143F0010383F39488BFF3E3
:102090006F8F704700ED02E0084AD36848B123F41F
:1020A00000531B041B0C43F0BF6343F40033D360A5
:1020B00070479BB243F40053F5E700BF00ED00E02A
:1020C000084AD36840B19BB243F4804343F0BF63F6
:1020D00043F40033D360704723F480431B041B0C8C
:1020E000F4E700BF00ED00E0084AD36840B19BB2BE
:1020F00043F0080343F0BF6343F40033D3607047F9
:1021000023F008031B041B0CF4E700BF00ED00E004
:10211000034AD2F88C3043F44063C2F88C307047E5
:1021200000ED00E0084B1A6818B142F001021A6095
:10213000704722F001021A601A6811B142F00202DF
:10214000F5E722F00202F2E7D0ED00E01FB5094CFE
:10215000094A23460121094800F018F90023039396
:10216000074B0121E41A01A80193029400F02AF917
:1021700004B010BD0080002000000020288A00006C
:102180003001002010B50B680C7A23F01F0204F018
:102190001F031A43CB68640923F01F03044943EA71
:1021A000440343F001038860CA600B6110BD00BFA7
:1021B00090ED00E030B54B680C6885B00A898D7AE7
:1021C0000094013B24F01F04234402F01F0242EA62
:1021D000451223F01F030F2804468DF808200393AF
:1021E00009D902464521064805F09CFE6FF015040A
:1021F000204605B030BD6946FFF7C4FFF8E700BFD1
:10220000D89600002DE9F04F8946144606464FF057
:102210000008514D85B0C84523DA7768002F41D0BA
:102220001F2F17D9FB0615D1D6F800A01AF01F0FE3
:1022300010D1504605F0C9FE834607EB0A0001386D
:1022400005F0C3FE834510D06FF0150B5A464521AB
:10225000424802E042464521414805F063FE6FF0E6
:102260001504204605B0BDE8F08F1BF1160FEDD028
:102270005C45EBDDC5F808B0E968C5F808B02F6922
:1022800021F01F01D6E900321A44994247F01F0796
:1022900002F1FF3A1CD1574508D131465FFA8BF065
:1022A000FFF788FF08F101080C36B4E73146C5F89E
:1022B00008B0EB6822F01F0203F01F031A43EA6024
:1022C000E0B2FFF777FF10F1160FC8D0441CE9E722
:1022D000013B5745E0B223F01F03C5F808B006D113
:1022E0002A69314602F01F0213432B61E9E729698D
:1022F00001F01F010B432B613146FFF75BFF10F12B
:10230000160FACD0C5F808B0EA689DF80830013F58
:1023100062F304038DF808302B699DF808205B08F0
:1023200063F347128DF80820D6E900321344009376
:1023300023F01F033B44441CA3EB0A0AE0B22AF03B
:102340001F030F28039303D902464521054884E75C
:102350006946FFF717FFB9E790ED00E02B97000003
:1023600003970000D89600000522034B5A60BFF384
:102370004F8FBFF36F8F704790ED00E0BFF35F8F1B
:102380000022014B5A60704790ED00E010B50A4CF6
:102390002278FFF737FF207016300CD10749084824
:1023A00040F2111205F0AAFDBDE8104040F21111F3
:1023B000024805F09CBD10BD00140020539700009A
:1023C000308D00002DE9F74F2D4D8A4606464FF01F
:1023D0000008AB462B4FD04502DB03B0BDE8F08FC1
:1023E000D6F80490B9F1000F44D031680846019145
:1023F00005F0EBFD0199044609EB0100013805F0F9
:10240000E4FD84424FF014021F4B13D06FF015030C
:1024100002FB08F84BF8083040F221121B491C4817
:1024200005F06CFD40F22111184803B0BDE8F04FF3
:1024300005F05DBD14F1160F2C60EDD01978A142A6
:10244000EADD02FB08B0BC60BC60FC6800F108017A
:10245000007B64F30400087138690C79400860F36C
:1024600047140C71F96821F01F016960396921F086
:102470001F01296108F1010814350C36ABE700BFD4
:102480005009002090ED00E0001400205397000058
:10249000308D000070B51B4D2E68102E0DD94FF4F5
:1024A000A4721949194805F029FD17484FF4A47181
:1024B00005F01DFD4FF0FF3070BDFFF75FFF0020FE
:1024C000134C144A2263864215D1134B1E70FFF73A
:1024D0004BFF2368C3F30723102B0AD00A490B488C
:1024E0004FF4D67205F00AFD4FF4D671064805F098
:1024F000FEFC0020E0E7696801EB0011FFF742FEF7
:102500000130E0E7348A000053970000308D00006E
:1025100090ED00E0AAFF440000140020014B186079
:10252000704700BF280000202DE9F0410E4C0746FF
:10253000051BC5F347130C255D4305F148000E4606
:102540002044402105F09DFD011E08DB074B2C4473
:10255000C4E91036064B5B59BDE8F04118473846D0
:102560003346BDE8F041184764090020E5800000CB
:10257000748A000038B5CCB2012C054608D9084948
:102580000848792205F0BAFC7921054805F0AFFC2E
:102590000C212B6904FB0134A06C00F0070038BD4E
:1025A00099970000308D0000F8B5CCB2012C05469B
:1025B000164607690AD91849184840F24D1205F025
:1025C0009DFC40F24D11144805F091FC4FF02003A2
:1025D000EFF3118283F31288BFF36F8F0C2303FB99
:1025E0000471896C11F0C00101D08E4211D101211A
:1025F000002003FB0473996482F31188BFF36F8F8B
:1026000030B90C23696803FB041463689847002001
:10261000F8BD4FF0FF30EFE799970000308D0000D4
:1026200070B50D4606490446411A49114022054835
:10263000FFF7BAFF2B4601462046BDE87040184719
:1026400064090020F085000070B5002201210446D5
:102650000520FFF7CBF80F4800F05AFD0E4B9842CB
:1026600015D100F077FD26690C49304605F0C1FB15
:1026700000280BDB0125B5642469084904F120001A
:1026800005F0B7FB002801DB0020656570BD6FF029
:102690000400FBE7D52600000000AD0B8C8A00008B
:1026A00001460C2300224B43084870B5C418483338
:1026B000D4E910561844226405F001FD2DB13246CC
:1026C0002B46BDE870400248184770BD64090020E1
:1026D000F0850000012808B506D0032808D0A0B96D
:1026E0000F4B9B6C5B0719D1BDE80840FFF7D8BFC3
:1026F0000C4940F25E220C4805F000FC40F25E21DD
:10270000BDE80840074805F0F2BB064940F26222E6
:10271000054805F0F3FB40F26221F1E708BD00BF78
:102720006409002099970000308D000008B54FF033
:102730002003EFF3118183F31288BFF36F8F124AE6
:10274000136843F0020013F0010310600CD04FF047
:102750005022D2F80C34D2F80C2413F0010303D029
:102760000A4805F0ACFC012381F31188BFF36F8F99
:1027700023B1BDE808400020FFF792BF0120BDE86B
:10278000084000F009BD00BFBC090020AC090020D2
:10279000074BD3E8EF2F22F00201C3E8E01F002827
:1027A000F7D1D30702D4012000F05EBD704700BF0F
:1027B000BC0900201FB500220123CDE902236B468E
:1027C000084ACDF800D0CDF804D005F09DFC0028D3
:1027D00005DB4FF480420023684601F091FA05B012
:1027E0005DF804FB0381000008B50848084B186039
:1027F00005F064FE38B10748FFF790FE0548FDF785
:10280000B9FE002008BD6FF01200FBE7388600001B
:10281000C0090020192800000A2838B50446074DD1
:1028200004D1286883680D215B689847286883680D
:10283000E1B25B689847204638BD00BFC009002060
:10284000F0B54B79012B26D0032B21D110268B79A3
:10285000032B1DD1CC790CB1012C19D10A7912B1FD
:10286000022A15D10E220B684568B3F5164F2D6864
:1028700065D02DD8B3F5165F64D016D8B3F5966F32
:1028800062D00AD8B3F5967F61D0B3F5167F61D0D8
:102890006FF0850052E00026D9E7B3F5166F5CD0E3
:1028A000B3F5965FF4D1374B3CE0B3F5E14F57D029
:1028B00007D8B3F5615F55D0B3F5964FE8D1324BE9
:1028C00030E047F61227BB42E2D14FF4000329E083
:1028D000B3F5613F48D013D8B3F5963F47D009D838
:1028E0004DF6C027BB4244D0B3F5614FD0D14FF471
:1028F0006B0317E0B3F5E13FCAD14FF0EB7311E082
:10290000B3F5612F38D008D8204FBB4237D0B3F58C
:10291000E12FBDD14FF0E86304E01D4FBB42B7D1BA
:102920004FF0805300693443C5F824352243031D1A
:10293000C5F86C2503C983E803000020F0BD4FF4FF
:102940001D03EFE7134BEDE74FF49E23EAE74FF447
:10295000A033E7E74FF41C33E4E74FF41D23E1E72E
:102960000D4BDFE70D4BDDE74FF06C73DAE70C4BF7
:10297000D8E74FF46503D5E74FF07063D2E74FF027
:102980008063CFE700B0130000A04E0090D003009A
:1029900040420F000050270000C0750000F03A00D0
:1029A00000903A01F8B506460F46046905F0B0FDFF
:1029B00010B92D4B1B7883B94FF02003EFF311852D
:1029C00083F31288BFF36F8F706805F012FC28BB89
:1029D00085F31188BFF36F8FEEE76425706805F00B
:1029E00008FC70B9012005F066FD013DF6D100211B
:1029F000212002F081F8F0E785F31188BFF36F8F93
:102A0000F5E74FF02003EFF3118583F31288BFF34E
:102A10006F8F706805F0EDFB0028EDD0012204F8FF
:102A2000107F71680B68C3F84445C3F8482500223D
:102A3000C3F82021D3F82001C3F85821D3F8582136
:102A40004A68D20608D5082172681268C2F80015D3
:102A50004FF48002C3F8042301229A6085F31188A1
:102A6000BFF36F8FF8BD00BF01140020F7B50F460C
:102A7000164640B918491948202205F03FFA20218E
:102A8000154805F034FA47B913491448212205F0D6
:102A900035FA2121104805F02AFA4FF48065002408
:102AA000A64203D816D1002003B0F0BD331BB3F506
:102AB000806F38BF1D4600202A4601AB391902F04D
:102AC0003FFC20B9019BAB4201D12C44E8E76FF0F9
:102AD0001500E9E71620E7E70E980000308D0000AA
:102AE0000B4B10B59A681968986811F4803F094B30
:102AF000094901D1824205D21A680C6822441A6041
:102B0000034A12681B680A681344181A10BD00BFF4
:102B100010E000E0D4090020CC0900202022002091
:102B2000074B83F82320074B1860074B1860074BAF
:102B3000586098601A6842F007021A60704700BF38
:102B400000ED00E0CC090020D409002010E000E0F6
:102B500008B5FFF7C5FF094A094913680868034427
:102B60000B6000211160074A10681360181A02F008
:102B70005DFABDE80840FEF725BF00BFD40900207C
:102B8000C8090020C4090020F8B5394F51B1421CD2
:102B900008D1384A136823F0010313604FF07F43D4
:102BA0003B60F8BD431C3E6855D0012855DD6FF0F1
:102BB0007F43984253DA441E4FF02003EFF3118510
:102BC00083F31288BFF36F8F2B4800F09DFE40B94E
:102BD0002A492B488E2205F091F98E21274805F0CD
:102BE00086F9254800F0ACFEFFF77AFF4FF0000EA3
:102BF000DFF89CC01F4BDCF800109A6801442148A4
:102C0000CCF80010C0F800E01F480068081A7045B2
:102C100027DA4FF4806038603C689868013C5C605B
:102C20000024824238BF9219121A9C600A4412484A
:102C3000CCF8002000F076FE40B910491048B922C7
:102C400005F05CF9B9210D4805F051F985F31188BB
:102C5000BFF36F8FA5E70D48ADE70024ACE70B4C41
:102C6000AAE7B4F5806FB8BF4FF480643C60D3E747
:102C7000CC09002010E000E0D0090020038D000006
:102C8000308D0000D4090020C4090020FEFFFF00A1
:102C9000C809002038B54FF02003EFF3118583F306
:102CA0001288BFF36F8F154800F02EFE40B914490B
:102CB00014488E2205F022F98E21114805F017F9EB
:102CC0000E4800F03DFEFFF70BFF0F4B1C680F4B4B
:102CD0001B68E41A0444094800F024FE40B908497E
:102CE0000848B92205F00AF9B921054805F0FFF8AE
:102CF00085F31188BFF36F8F204638BDD0090020BF
:102D0000038D0000308D0000C8090020C409002098
:102D1000054B1B68B3F17F4F01BF044A136843F0B2
:102D200001031360704700BFCC09002010E000E0F1
:102D3000024A136823F001031360704710E000E0BB
:102D4000036810B55A090CBF4FF0FF32002203F0A0
:102D50001F0322FA03F3DB0704460AD40E490F4887
:102D600040F2292205F0CAF840F229210A4805F06C
:102D7000BEF8236803F01F025B0922600AD00649EF
:102D8000064840F22E2205F0B9F840F22E21024802
:102D900005F0ADF8024810BD49980000308D0000E4
:102DA000002584500348452108B505F0BBF80020F4
:102DB000FFF7F6F87C9800002DE9F0430025214C40
:102DC000214E54F8048CDFF8889085B0A84503D8CC
:102DD000002005B0BDE8F083636A96E807001F682D
:102DE00001AB83E807000C221946384605F00BF9C1
:102DF00090B98FB1636A21691B681A6991420BD13E
:102E00009A69A169914207D8E169914204D962693E
:102E10005B6932EA03030AD0276A67B10B4804F002
:102E2000DBFF404080F311884FF0040002DFE368CD
:102E300001351C44CAE7484604F0CEFF636A1F60B0
:102E4000F5E700BF3C020000BC8800009E9800002F
:102E5000C7980000064A074B1B681068BFF34F8FE6
:102E6000092B03D1431E5842584170470020704738
:102E70003401FF003001FF00574A08B5136843F0E2
:102E800002031360554B564A1B681268BFF34F8FFD
:102E9000092B01BF4FF050230022C3F81421C3F8BF
:102EA0001821FFF7D7FF30B101234E4A1360A2F675
:102EB0003822C2F87835494B1A6804331B68BFF3CF
:102EC0004F8F092A05D1012B1EBF0122464BC3F8A3
:102ED0007825FFF7BFFF10B10E22444B1A603F4B1D
:102EE0003F4A1B681268BFF34F8F092B04D10022A1
:102EF0003F4B1A6001225A600022D30003F57F0382
:102F0000D3F80013BFF34F8F013108D0D3F800136B
:102F10000132D3F80433B2F5807F0B60EDD1354B2D
:102F2000DB69BFF34F8FD90745D5334B1946D3F82B
:102F30000024012AFBD1C3F80425D1F80034012B69
:102F4000FBD12C4BDA69BFF34F8FD2070AD5DA6970
:102F500022F00102DA61BFF34F8F274AD2F8003422
:102F6000012BFBD1254B1B68BFF34F8F01330DD1D4
:102F7000204A136A23F0FF0343F020031362BFF3D8
:102F80004F8F1D4AD2F80034012BFBD100221A4B7F
:102F9000C3F80425D3F80024012AFBD1BFF34F8FD7
:102FA0001749184BCA6802F4E0621343CB60BFF3C1
:102FB0004F8F00BFFDE7114B1B68BFF34F8F0133ED
:102FC000B3D00F4AD2F88C3043F44063C2F88C304F
:102FD0000D4B0E4A1A6008BDD0ED00E03001FF0035
:102FE0003401FF00384A005000400050E4AE035066
:102FF0000C4700500080FF00009003502080FF002D
:1030000000ED00E00400FA05540000200090D00319
:1030100008B570B101281BD04FF44F721349144802
:1030200004F06CFF11484FF44F7104F060FF002072
:103030000DE031B14FF05023D3F8183403F00303FF
:103040000B704FF05023D3F81804C0F3004008BDB4
:1030500031B14FF05023D3F80C3403F001030B705F
:103060004FF05023D3F80C04EFE700BFFA980000AC
:10307000308D000073B5044660B1012833D020497B
:103080002048D82204F03AFFD8211D4804F02FFF31
:1030900002B070BD4FF050230222C3F80823012272
:1030A000C3F8040103F582731B68174B1A600123F0
:1030B0009C4218BF002642F210758DF8073008BFF9
:1030C0000DF1070631462046FFF7A2FF0028DFD0AA
:1030D0001EB19DF80730012BDAD1012005F0EBF984
:1030E000013DEFD1D4E74FF050230022C3F808038D
:1030F000C3F8002103F580731B68044B1860D6E702
:103100002E990000308D00000C50005004500050EB
:1031100010B5044650B90A490A4840F2151204F0A5
:10312000EDFE40F21511064804F0E1FE064B1A7957
:1031300022B9012205481C601A7110BD0448FCE741
:103140002E990000308D0000D80900200000AD0B42
:103150000C00AD0B08B50D4B1B7953B90C490D484C
:103160004FF4977204F0CAFE4FF49771084804F0C8
:10317000BEFE0520FEF72CFB10B90520FEF718FB5C
:103180004FF050230122C3F8182508BDD8090020AC
:103190002E990000308D00002E4B13B51B7904468C
:1031A00053B92D492D484FF4B47204F0A7FE4FF4E3
:1031B000B471294804F09BFE6CB1012C40D04FF44F
:1031C000D3722549254804F099FE4FF4D371224863
:1031D00004F08DFE1FE020460DF10701FFF718FFF8
:1031E000D8B19DF80730013B012B05D90020FFF72E
:1031F00041FF01238DF807304FF0502300219DF847
:103200000720C3F81825164A116012680222C3F875
:10321000042301229A6002B010BD4FF05022D2F870
:103220001434DB07E5D5D2F81C3403F003038DF822
:103230000730013B012BD9D80223C2F80433EAE757
:103240000022084B1A601B684FF05023C3F8044358
:103250001C60E0E7D80900202E990000308D0000A6
:1032600004510050005100500A4B10B51B79044620
:1032700053B90949094840F2AD1204F03FFE40F24B
:10328000AD11054804F033FE2046BDE81040FFF7BD
:10329000F1BE00BFD80900202E990000308D00003B
:1032A000164B07B51A6852B1002018601B6801223E
:1032B0004FF05023C3F80823114B1B689847114B5C
:1032C0001A688AB100200DF1070118601B68FFF72A
:1032D0009FFE9DF807104FF0502301294FF0020286
:1032E00005D1C3F81825996003B05DF804FBC3F855
:1032F0000823034B01201B689847F5E70051005055
:10330000D8090020045100500E4B70B553F82040EE
:10331000013053F82060A64200D870BDD4E90035D2
:103320002846984765B1EB6830B10028B8BF4042E5
:10333000FF28A8BFFF2018705A7842F001025A7087
:103340000834E8E71C8B0000F7B504460E464FF042
:103350002003EFF3118783F31288BFF36F8F01F01F
:10336000FBFB0022042C98BF1D4B054694BF53F86D
:1033700024301C4B0092452122461B4804F0D2FD0C
:103380003EB1F369C3F308031BB14521174804F0AC
:10339000C9FD35B1284605F0C1F8034608B10278E9
:1033A00002B9134B2A464521124804F0BBFD3146B1
:1033B0002046FFF7F7FC042C08D10F490F488F2255
:1033C00004F09CFD8F210C4804F091FD87F31188D7
:1033D000BFF36F8F284603B0BDE8F040FEF728BE6C
:1033E000348B00006B99000081990000AE990000B9
:1033F00079990000D4990000F1990000308D000007
:10340000012208B5094B02201A70FFF77DFF01F079
:10341000FFFE0320FFF778FF00F0F6F904F0D3FC7D
:10342000034A137B23F00103137308BD011400202A
:10343000B001002008B50348034A0021121A05F024
:1034400047F808BD30010020C015002000230122EC
:1034500070B586B0CDE904230F221825CDE90232DC
:103460004FF4A07201930E4B0E4E05FB00350E4932
:1034700006EBC016044602FB00110C4B30460095CB
:1034800000F06EF9737B0A482C75013423F00403B5
:1034900000EBC4247373EE606C6006B070BD00BFB7
:1034A000E009002030010020C02500205139000033
:1034B0000027002080B5334BA6B003F5006282F3ED
:1034C000088883F30A880024E0232F4D2F4E85F8C7
:1034D0002230EC772C766C76AC7685F82040EC7652
:1034E0006B6A2B4F43F4E0236B626B6A43F4002357
:1034F0006B62AC63EB689BB243F0BF6343F4083389
:10350000EB60FEF7FBFCFEF711F94FF0FF33AB6207
:10351000EB62FEF7BFFFFEF719FE40F20113ADF8B4
:10352000243006ABB360CDE91F44229404F0C5FFFC
:103530002046FFF7E9FE0120164DFFF7E5FE01F0FA
:10354000BBF9154BF5610593012314494FF48052E3
:10355000CDE9034328463B46CDE90144009400F001
:10356000FFF806466A7B284622F004026A7300F0E0
:103570009BFE2046FFF76AFF3A4631462846FEF793
:10358000EDF900BF0027002000ED00E0E009002079
:1035900001340000B00100205D9A0000C015002039
:1035A0002DE9F041144D154CA846154EAC4208D9F2
:1035B000314614483D2204F0A1FC3D21304604F080
:1035C00096FC444502D30020BDE8F081D4E9041202
:1035D00042EA010313F003030BD1E068A3618342C5
:1035E00001D12034E2E7A76901331760A2610A44E0
:1035F000F5E76FF01500E7E7E0000020E0000020AD
:10360000659A0000308D00002DE9F74304460D4611
:103610009046994600F108064FF02003EFF311871A
:1036200083F31288BFF36F8F304600F06DF940B915
:103630001F4920488E2204F061FC8E211C4804F0B2
:1036400056FC304600F07CF9A369C3B12B601B68BF
:10365000A361E3690133E3610024304600F062F9BD
:1036600040B913491348B92204F048FCB921104865
:1036700004F03DFC87F31188BFF36F8F13E058EA25
:10368000090203D16FF00B042B60E6E722463946AE
:103690003046CDE9008900F06FFF044618B9064BAB
:1036A0009B685B692B60204603B0BDE8F08300BFD8
:1036B000038D0000308D0000E00900202DE9F0416D
:1036C00004460D4600F108064FF02003EFF3118782
:1036D00083F31288BFF36F8F304600F015F940B9BD
:1036E0001D491E488E2204F009FC8E211A4804F060
:1036F000FEFB304600F024F9D4F81880B8F1000F32
:103700000FD1204601F09AF858B12A68C0F87880A5
:10371000426100F0C9FD39463046BDE8F04100F095
:10372000C3BB2B68A26930461A602B68A361E369AA
:10373000013BE36100F0F6F840B907490748B922B8
:1037400004F0DCFBB921044804F0D1FB87F31188B5
:10375000BFF36F8FBDE8F081038D0000308D000056
:103760002DE9F04385B0DDF83C900446B9F10F0F28
:103770000F46154698462ED11F4B98452FD104F180
:103780005803C4E91633109B002623730423637384
:103790000E9BE81D02930D9B20F0070001930C9BEC
:1037A0003D18C4E9197000932A464346394620461D
:1037B000C4E90666A66084F80E90E673E666FEF736
:1037C000B1F80E4B66659B6803B11B6F28462367F3
:1037D00005B0BDE8F08309F110031E2BCFD940F2EC
:1037E000FF120749074804F089FB40F2FF11044823
:1037F00004F07DFBC3E700BF51390000E009002061
:103800008A9A0000308D00002DE9F047394F3A4D7B
:103810003E46DFF8EC8086B0BD420AD941463748C3
:1038200040F2D52204F06AFB40F2D521404604F074
:103830005EFBB54205F130041DD300F06BFB40F296
:10384000E7384FF000092C4C2D4DDFF8B0A0B44202
:103850000AD9294650464FF43D7204F04FFB4FF40D
:103860003D71284604F043FBB44221D306B0BDE8C5
:10387000F04700F087BF54F8043C059354F8103C1F
:10388000049354F8143C039354F8183C029354F8EE
:103890001C3C019354F8203C009354E90A2354E95A
:1038A0000C01FFF75DFF54F8303C5D652546B3E73A
:1038B000636A5A1C0FD04FF400424046494623EA3F
:1038C000E373C2FB0301494508BF4045276804D1A3
:1038D000384600F01FFD3034B9E74FF47A72002308
:1038E000FCF7ACFC02460B4607F11800054901F055
:1038F00033FAF0E7E0000020E0000020308D000007
:103900008A9A000099430000006838B1044B00F027
:1039100003001B7DC01A18BF0120704701207047AB
:10392000E0090020054903468A68087D19680243BA
:103930000020914204BF186001207047E009002078
:10394000024A117D93680B4303607047E009002031
:10395000124C08B5A26892F90E20002A08DA104924
:103960001048272204F0CAFA27210D4804F0BFFAB4
:103970000D4D4FF02002EFF3118382F31288BFF355
:103980006F8F01F0DFFA2B78A06113B9FDF7D4FE39
:10399000EFE7FDF7A9FA0028EBD1F7E7E0090020EF
:1039A000AD9A0000308D0000011400202DE9F34194
:1039B000044616461F46EFF3058343B16249634848
:1039C000652204F09BFA65215F4804F090FA4FF0FD
:1039D0002003EFF3118883F31288BFF36F8F5C48E5
:1039E000FFF792FF40B95B4958488E2204F086FAEF
:1039F0008E21584804F07BFA5548FFF7A1FFE36891
:103A0000554AD3B1A0689168884233D056EA07037B
:103A100032D14F48FFF786FF40B94E494B48B92293
:103A200004F06CFAB9214B4804F061FA88F311886C
:103A3000BFF36F8F6FF00F0019E0916891F90E10CE
:103A40000133E360936842482161A360FFF76AFF96
:103A500040B940493D48B92204F050FAB9213D48E7
:103A600004F045FA88F31188BFF36F8F002002B08D
:103A7000BDE8F0812169E3E791F90E1090F90E306D
:103A80006FF07E029942A8BF19469142B8BF114615
:103A90008B423FDD00F096FD054622464146CDE9CA
:103AA00000672B4800F068FD0028E0D04FF02003AD
:103AB000EFF3118683F31288BFF36F8F2448FFF76B
:103AC00023FF40B9234921488E2204F017FA8E21A2
:103AD000204804F00CFA1E48FFF732FF23682169E2
:103AE0009C420AD04BB193F90E309942A8BF1946B7
:103AF0006FF07E039942B8BF1946A06890F90E3066
:103B0000994209D16DB13146114800F0CDF96FF0FD
:103B10000A00ACE70025C0E700F054FD0028F2D110
:103B2000F0E70B48FFF7FEFE40B90A490748B92203
:103B300004F0E4F9B921074804F0D9F986F31188B3
:103B4000BFF36F8FE3E700BFCE9A0000308D000017
:103B5000080A0020038D0000E009002038B5044663
:103B6000EFF3058343B145494548C72204F0C6F940
:103B7000C721424804F0BBF9A368002B78D0414D1F
:103B8000AA68934277D1E36843B93C493C48DF22B5
:103B900004F0B4F9DF21394804F0A9F9EFF3058303
:103BA00043B139493648FD2204F0A8F9FD213648D1
:103BB00004F09DF9AB68DB7B012B08D1324930481A
:103BC000FE2204F09BF9FE212F4804F090F9AA6828
:103BD000D37B013BD373E368012B05D9013BE36041
:103BE00000F0D0FD002038BD4FF02003EFF3118529
:103BF00083F31288BFF36F8F2448FFF785FE40B927
:103C000023491F488E2204F079F98E21204804F0C0
:103C10006EF91E48FFF794FEA068216990F90E30F6
:103C2000994201D000F0CEFC204600F007FEA060D3
:103C300058B190F90E2022610022826700F034FB17
:103C40002946124800F030F9CAE7E0600F48FFF754
:103C500069FE40B90E490A48B92204F04FF9B9216A
:103C60000B4804F044F985F31188BFF36F8FB7E771
:103C70006FF01500B7E74FF0FF30B4E7CE9A0000C1
:103C8000308D0000E0090020F09A0000080A0020B2
:103C9000038D000038B504464FF02003EFF3118583
:103CA00083F31288BFF36F8F1248FFF72DFE40B9E0
:103CB000114912488E2204F021F98E210E4804F099
:103CC00016F90C48FFF73CFE204600F0B7FD48B15E
:103CD0000022826700F0E8FA2946BDE8384005482E
:103CE00000F0E2B8D4E902329A4218BF0133A3606F
:103CF000F2E700BF0C0A0020038D0000308D0000A9
:103D0000F7B5044616461F46EFF305835BB156EA46
:103D1000070308D02B492C48792204F0EFF87921C9
:103D2000284804F0E4F84FF02003EFF3118583F303
:103D30001288BFF36F8F2548FFF7E6FD40B924498D
:103D400021488E2204F0DAF88E21214804F0CFF8C1
:103D50001E48FFF7F5FDA368ABB1013B1B48A3600C
:103D6000FFF7E0FD40B91A491748B92204F0C6F838
:103D7000B921174804F0BBF885F31188BFF36F8FA2
:103D8000002003B0F0BD56EA070313D10F48FFF738
:103D9000C9FD40B90E490C48B92204F0AFF8B92169
:103DA0000B4804F0A4F885F31188BFF36F8F6FF010
:103DB0000F00E6E722462946CDE90067034800F0F8
:103DC000DBFBDEE71B9B0000308D00000C0A0020AF
:103DD000038D000038B5074D2C6854B1FEF75AFF2B
:103DE000054B04441C6128680021BDE8384001F0FF
:103DF000DFB838BD1C0A0020E0090020F8B50546F0
:103E00000E464FF02003EFF3118783F31288BFF3C0
:103E10006F8F1F48FFF778FD40B91E491E488E225C
:103E200004F06CF88E211B4804F061F81848FFF785
:103E300087FD00234FF4004C40F2E7300021174C7F
:103E40004FF47A722361ECFB05010023FCF7F6F9CD
:103E5000002D134B17DC1860124BA0681E60FFF793
:103E6000B9FF0B48FFF75EFD40B90A490A48B9227D
:103E700004F044F8B921074804F039F887F31188B1
:103E8000BFF36F8FF8BD0228B8BF0220E3E700BF81
:103E9000140A0020038D0000308D0000E00900208E
:103EA0001C0A0020180A002010B503460C46C1B9B0
:103EB000EFF30582AAB9144AD1699268914210D0F1
:103EC000FFF730FD40B911491148D02204F016F82F
:103ED000D0210E4804F00BF8BDE810400020FDF79B
:103EE000CBBC1846FFF71EFD40B908490848B92267
:103EF00004F004F8B921054803F0F9FF84F31188B0
:103F0000BFF36F8F10BD00BFE0090020038D0000DC
:103F1000308D000038B54FF02003EFF3118583F3A7
:103F20001288BFF36F8F2048FFF7EEFC40B91F499E
:103F30001F488E2203F0E2FF8E211C4803F0D7FFBA
:103F40001948FFF7FDFCEFF3058343B11949184801
:103F5000FD2203F0D3FFFD21164803F0C8FF164CE5
:103F6000A268D27B012A08D112491148FE2203F02F
:103F7000C5FFFE210F4803F0BAFFA268D37B013BC7
:103F8000D3730948FFF7CEFC40B908490848B92265
:103F900003F0B4FFB921054803F0A9FF85F31188A8
:103FA000BFF36F8F38BD00BF140A0020038D0000DF
:103FB000308D0000F09A0000E00900200B4B10B596
:103FC00099420C460AD10A490A4840F23D4203F0A0
:103FD00095FF40F23D41064803F089FFD4E90032E5
:103FE00013605A600023C4E9003310BD3001002083
:103FF0003B9B0000308D0000836810B5044653B928
:104000000A490B4840F2B92203F078FF40F2B92187
:10401000064803F06CFF2146A068FFF7CFFF637BE3
:1040200023F0020363730023A36010BD3B9B0000D9
:10403000308D000038B50246124804F095FA124D52
:10404000044600B9EC68AAB9AB6843B90F491048F7
:10405000892203F053FF89210C4803F048FFAB6825
:104060005A7BD20606D1A26922B9DA897F2A01D900
:10407000EB6138BDAB68A34202D02046FFF7AAFE31
:10408000EC61F6E7000A0020E00900203B9B0000FD
:10409000308D000070B590F90D200446002A437B56
:1040A00006DA03F07F03014643731F48FFF786FFDC
:1040B000637B63F07F0363731C4B9C4208D11C49F4
:1040C0001C48BA2203F01AFFBA21194803F00FFF67
:1040D000194A114651F8203F556A8B4208BF002308
:1040E000002B38BF0023CBB194F90E6093F90E007A
:1040F00086420FD0801B00280CDD5968C4E90031CE
:104100000C605C609068031B58425841BDE87040E9
:10411000FFF790BFAB4201D01B68E4E7C4E900158C
:104120002C605462EEE700BF000A0020300100203E
:104130003B9B0000308D0000E009002070B5054673
:104140004FF02003EFF3118683F31288BFF36F8FD4
:104150002648FFF7D9FB40B9254926488E2203F0AF
:10416000CDFE8E21224803F0C2FE2048FFF7E8FB77
:10417000214B224A9C6811688C42194614D1204672
:10418000FFF728FE1948FFF7CDFB40B91849194839
:10419000B92203F0B3FEB921154803F0A8FE86F357
:1041A0001188BFF36F8F70BD00201060144A126831
:1041B000C2B1E2897F2A15D8627BD20612D1114A98
:1041C00094F90E00126890420CDB0F4A944209D019
:1041D0001A69AA4203DC2046FFF75CFFCFE7521BB7
:1041E0001A61CFE700230B61CCE700BF140A00205F
:1041F000038D0000308D0000E0090020100A00202F
:104200001C0A0020180A00203001002070B590F927
:104210000D200446002A437B3DDBDA063BD185694D
:10422000002D38D163F07F0343731B4B984208D1B4
:104230001A491B48BA2203F061FEBA21174803F05D
:1042400056FE18490B4653F8200F984218BF0546F2
:10425000002D1A462B4638BF00234D6AB3B194F99E
:104260000E6093F90E0086420CD0801B002809DDF9
:104270005A68C4E9003214605C600020BDE87040F8
:10428000FFF7D8BEAB4201D01B68E7E7C4E90025C1
:104290002C604C62F1E770BD300100203B9B0000B8
:1042A000308D0000E009002038B504464FF02003AF
:1042B000EFF3118583F31288BFF36F8F1248FFF776
:1042C00023FB40B9114912488E2203F017FE8E21BC
:1042D0000E4803F00CFE0C48FFF732FB2046FFF7B8
:1042E00095FF0948FFF71EFB40B908490848B92265
:1042F00003F004FEB921054803F0F9FD85F31188A8
:10430000BFF36F8F38BD00BF140A0020038D00007B
:10431000308D000038B504464FF02003EFF31185CF
:1043200083F31288BFF36F8F1848FFF7EDFA40B997
:10433000174918488E2203F0E1FD8E21144803F03E
:10434000D6FD1248FFF7FCFA637B5A0711D40F48D9
:10435000FFF7E8FA40B90E490E48B92203F0CEFD46
:10436000B9210B4803F0C3FD85F31188BFF36F8FAC
:1043700038BD23F0040320466373FFF747FF294647
:10438000BDE838400148FFF78FBD00BF140A002088
:10439000038D0000308D000070B504464FF02003FF
:1043A000EFF3118683F31288BFF36F8F1B48FFF77B
:1043B000ABFA40B91A491B488E2203F09FFD8E21AB
:1043C000174803F094FD1548FFF7BAFA14F80B3CB0
:1043D00013F0280F10D154F8103CA4F1180513B1B4
:1043E0002846FFF709FE14F80B3C284623F0140377
:1043F00004F80B3CFFF70AFF0848FFF793FA40B9AF
:1044000007490848B92203F079FDB921044803F0AF
:104410006EFD86F31188BFF36F8F70BD140A002004
:10442000038D0000308D000010B590F90D2004467A
:10443000002A437B06DA03F07F03014643730648F4
:10444000FFF7BCFD054B9868031B58425841BDE877
:104450001040FFF7EFBD00BF000A0020E009002078
:1044600038B504460D46FFF7DFFF637B43F00203D8
:10447000637315B3174BA5609C4208D116491748C2
:10448000BA2203F03BFDBA21134803F030FD2B683C
:104490009D4208BF0023002B38BF00239BB194F935
:1044A0000E1093F90E20914208D0521A002A05DD11
:1044B0005A68C4E9003214605C6038BD6A6893428F
:1044C00001D01B68EAE76B68C4E900531C606C60AC
:1044D000F3E700BF300100203B9B0000308D00005F
:1044E0002DE9F04104460D4616461F464FF02003C5
:1044F000EFF3118883F31288BFF36F8F1A48FFF729
:1045000003FA40B919491A488E2203F0F7FC8E21AC
:10451000164803F0ECFC1448FFF712FA204629462F
:10452000FFF79EFF1048FFF7FDF940B90F4910480B
:10453000B92203F0E3FCB9210C4803F0D8FC88F35E
:104540001188BFF36F8F7B1C08BFB6F1FF3F08D007
:1045500032463B4604F118000649BDE8F04100F040
:10456000FBBBBDE8F08100BF140A0020038D0000F2
:10457000308D00009943000038B505460D4B0C46C0
:1045800098680D4B11461860DDE90423FFF7A8FF7A
:104590002846FFF7C7F940B908490948D02203F077
:1045A000ADFCD021054803F0A2FC2046BDE8384010
:1045B000FDF762B9E0090020100A0020038D000019
:1045C000308D0000F8B504460E464FF02003EFF39F
:1045D000118783F31288BFF36F8F3748FFF794F981
:1045E00040B9364936488E2203F088FC8E21334884
:1045F00003F07DFC3048FFF7A3F9637B76B2DA065F
:1046000056D1A569002D53D103F07F036373214672
:104610002C48FFF7D3FC637BA67363F07F036373BF
:10462000294B9C4208D129492548BA2203F066FC4F
:10463000BA21264803F05BFC25490B4653F8200FAE
:10464000984218BF0546002D1A462B4638BF002356
:104650004D6A43B394F90E6093F90E0086421ED062
:10466000801B00281BDD5A68C4E9003214605C60BE
:104670000120FFF7DFFC01240F48FFF753F940B991
:104680000E490F48B92203F039FCB9210B4803F059
:104690002EFC87F31188BFF36F8F2046F8BDAB4225
:1046A00001D01B68D5E7C4E900252C604C62DFE728
:1046B000A6730024E0E700BF140A0020038D000069
:1046C000308D0000000A0020300100203B9B0000DC
:1046D000E009002070B50446183000F0F7FB4FF0F9
:1046E0002003EFF3118683F31288BFF36F8F204806
:1046F000FFF70AF940B91F491F488E2203F0FEFB5D
:104700008E211C4803F0F3FB1948FFF719F994F9BF
:104710000D20637B002A06DA03F07F032146174849
:104720006373FFF74BFC164D637BA86843F01003DF
:104730006373031B58425841FFF77CFC0C48FFF79A
:10474000F1F840B90B490C48B92203F0D7FBB92165
:10475000084803F0CCFB86F31188BFF36F8FAB687A
:10476000A34203D1BDE8704003F0F4BE70BD00BFAA
:10477000140A0020038D0000308D0000000A002084
:10478000E009002038B54FF02003EFF3118583F3E3
:104790001288BFF36F8F2448FFF7B6F840B923495A
:1047A00023488E2203F0AAFB8E21204803F09FFBB2
:1047B000204C1D48FFF7C4F8A268D27B52B91E49AD
:1047C0001B4840F2BB3203F099FB40F2BB311A4860
:1047D00003F08DFBEFF3058353B1174914484FF4F1
:1047E0006F7203F08BFB4FF46F71134803F07FFB84
:1047F000A2680020D37B0133D373FFF71BFC0A4868
:10480000FFF790F840B909490948B92203F076FB4F
:10481000B921064803F06BFB85F31188BFF36F8F56
:10482000BDE8384003F096BE140A0020038D000056
:10483000308D0000E00900203B9B000038B50446A5
:104840004FF02003EFF3118583F31288BFF36F8FCE
:104850001648FFF759F840B9154916488E2203F05B
:104860004DFB8E21124803F042FB1048FFF768F819
:10487000204603F079FE044628B1FFF7BDFB04F1A2
:10488000180000F023FB0948FFF74CF840B908492D
:104890000848B92203F032FBB921054803F027FB91
:1048A00085F31188BFF36F8F204638BD140A0020AE
:1048B000038D0000308D00000021044B084603F1F9
:1048C0002002C3E90822FFF799BA00BFE0090020DF
:1048D000F8B5EFF3058353B139493A4840F2325203
:1048E00003F00CFB40F23251354803F000FB4FF06F
:1048F0002003EFF3118683F31288BFF36F8F3248E2
:10490000FFF702F840B931492E488E2203F0F6FA3B
:104910008E212E4803F0EBFA2D4D2B48FFF710F8AF
:10492000A96805F120004B7B03F07F034B73FFF771
:1049300045FBAC68637B63F07F036373254B9C424C
:1049400008D11F491F48BA2203F0D8FABA211C48DF
:1049500003F0CDFA2B6A2048696A834208BF00231E
:10496000002B38BF002333B394F90E7093F90E2057
:1049700097421CD0D21B002A19DD5A68C4E90032C4
:1049800014605C600120FFF755FB0F48FEF7CAFF7B
:1049900040B90E490B48D02203F0B0FAD0210B48A1
:1049A00003F0A5FA3046BDE8F840FCF765BF8B423E
:1049B00001D01B68D7E7C4E900010C606C62E1E735
:1049C0003B9B0000308D0000140A0020038D000086
:1049D000E009002030010020000A00202DE9F0410C
:1049E00004460D46EFF3058353B13C493C4840F281
:1049F0004E5203F083FA40F24E51384803F077FAF2
:104A000054EA050304D1FFF763FF0020BDE8F081FD
:104A10006FF001031E1B4FF0FF3363EB0507012E00
:104A200077F1000356DA03F0A9FD06194FF02003D1
:104A3000EFF3118883F31288BFF36F8F2948FEF7D5
:104A400063FF40B9284926488E2203F057FA8E2189
:104A5000254803F04CFA254F2248FEF771FFB8684D
:104A6000234B1860FFF7E0FCB86822462B4618304D
:104A7000204900F071F9BA681A48537B43F01003DB
:104A80005373FEF74FFF40B917491548D02203F082
:104A900035FAD021144803F02AFA4046FCF7ECFE20
:104AA000BB685B7BDB060AD50C490D4840F26F52B0
:104AB00003F024FA40F26F51084803F018FA03F0AB
:104AC0005DFD301A66EB0601012871F10003B8BFE5
:104AD00000209BE76FF00106361BA7E73B9B000019
:104AE000308D0000140A0020038D0000E009002032
:104AF000100A00209943000038B504460D46EFF334
:104B0000058353B11149124840F27E5203F0F6F981
:104B100040F27E510D4803F0EAF96B1C08BFB4F176
:104B2000FF3F06D10B4B9868FFF7D4FD4FF0FF30E5
:104B300038BD20462946FFF751FF4FF47A7380FBBA
:104B40000334D80B40EA4440F2E700BF3B9B00002F
:104B5000308D0000E0090020014B9868704700BFCD
:104B6000E00900202DE9F04104464FF02003EFF367
:104B7000118683F31288BFF36F8F3E48FEF7C4FEA1
:104B800040B93D493D488E2203F0B8F98E213A489C
:104B900003F0ADF93748FEF7D3FE637B1A0712D551
:104BA0003448FEF7BFFE40B933493448B92203F018
:104BB000A5F9B921304803F09AF986F31188BFF3BB
:104BC0006F8FBDE8F08123F0200242F00801D20986
:104BD00038D16173A36813B12046FFF70DFA04F1D1
:104BE000180000F073F94FF0000804F15807A56DA4
:104BF000BD4200D085BB0120FFF71CFA204B9B680B
:104C0000A342CDD1EFF30583002BC9D11948FEF79C
:104C100089FE40B918491948D02203F06FF9D02114
:104C2000154803F064F93046FCF726FE40F2AC620A
:104C30001449124803F062F940F2AC61114803F0E4
:104C400056F9ADE703F05F0343F0080321460E4831
:104C50006373FFF7B3F9BDE72846FFF7CDF905F118
:104C6000180000F033F92846C5F87880FFF7CEFA2F
:104C7000BDE700BF140A0020038D0000308D000046
:104C8000E00900203B9B0000000A002008B5064810
:104C9000064A0749121A03F01DFCBDE80840054A00
:104CA0000549064803F016BC000000203001002032
:104CB000BC9B000000000000BC9B00000000002026
:104CC000034B1B680BB9FDF7E5BF0020704700BF21
:104CD000200A002030B5036868B10A4A5268904241
:104CE00009D043B1D3E90421D0E90445121945EBB9
:104CF0000101C3E90421426813605A600023C0E93E
:104D0000003330BD5800002038B5114B1C689C4260
:104D100008BF0024FFF7D4FF0546ACB1D4E9040175
:104D2000401B61EBE571B0F1004F71F100030BDA4C
:104D3000002871F1000300DA0020064B1B6913B153
:104D40009842A8BF184638BD6FF00040F5E700BF95
:104D500058000020E00900202DE9F74F1D466B1C8C
:104D600008BFB2F1FF3F82468B46144600F09C809C
:104D7000036843B14E494F48632203F0BFF86321F3
:104D80004B4803F0B4F8CAF808B04FF02003EFF333
:104D9000118B83F31288BFF36F8F4748FEF7B4FD82
:104DA00040B9464943488E2203F0A8F88E21434873
:104DB00003F09DF84048FEF7C3FD6FF001034FF08C
:104DC000FF32B3EB040862EB0509B8F1000F79F18B
:104DD00000011CDB3A48D0E900105B1A62EB0002CC
:104DE0001E1B62EB0507012E77F10003BCBF0126F5
:104DF0000027CAE90467334AD2E9003693421DD13D
:104E0000CAE90026C6F800A0C2F804A02CE0FFF70B
:104E100057FF631C009345F100030193DDE9002374
:104E2000121843EBE073CAE90423E4E7E01B65EBE7
:104E30000801B342CAE90401E2D01B68002BDFD0AD
:104E4000D3E90478DAE90445BC4275EB0801EDDAF0
:104E5000381B68EB0501C3E904015968CAE9003150
:104E6000C1F800A0C3F804A0136893420BD09A4580
:104E700009D1FFF749FF18B1134B1B69834202D0D8
:104E80000021FDF781FE0C48FEF74CFD40B90B49AF
:104E90000848B92203F032F8B921084803F027F88E
:104EA0008BF31188BFF36F8F03B0BDE8F08F00BFA5
:104EB0005D9B0000308D0000240A0020038D00005F
:104EC0003002002058000020E009002038B50446D8
:104ED0004FF02003EFF3118583F31288BFF36F8F38
:104EE0001548FEF711FD40B9144915488E2203F00C
:104EF00005F88E21114802F0FAFF0F48FEF720FD59
:104F00002368B3B12046FFF7E5FE00240A48FEF708
:104F100009FD40B909490A48B92202F0EFFFB92159
:104F2000064802F0E4FF85F31188BFF36F8F204637
:104F300038BD6FF01504E9E7240A0020038D000056
:104F4000308D000038B54FF02003EFF3118583F367
:104F50001288BFF36F8F1348FEF7D6FC40B9124991
:104F600012488E2202F0CAFF8E210F4802F0BFFFC6
:104F70000C48FEF7E5FCFFF7C7FE04460948FEF7BC
:104F8000D1FC40B908490948B92202F0B7FFB9215C
:104F9000054802F0ACFF85F31188BFF36F8F204600
:104FA00038BD00BF240A0020038D0000308D0000B2
:104FB00070B504460D464FF02003EFF3118683F3DE
:104FC0001288BFF36F8F1648FEF79EFC40B9154953
:104FD00015488E2202F092FF8E21124802F087FFC0
:104FE0000F48FEF7ADFCFFF78FFE012805DDA0425C
:104FF00003DB29462046FDF7C7FD0948FEF792FC72
:1050000040B908490848B92202F078FFB92105489B
:1050100002F06DFF86F31188BFF36F8F70BD00BF84
:10502000240A0020038D0000308D00002DE9F04F90
:1050300085B00446FFF782F84FF02003EFF31189A3
:1050400083F31288BFF36F8F4C48FEF75DFC40B9C5
:105050004B494C488E2202F051FF8E21484802F005
:1050600046FF494F494EBB464448DFF824A1FEF7AE
:1050700067FC3460D6F800C0DAF800806246D7E9F1
:105080000034D045CDE902344FEAE273CDE9002384
:1050900011D0B8F1000F0ED0D8E90412DDE90034C8
:1050A0008B4274EB02032ADA009BC81A019B62EB65
:1050B0000301C8E904010024009B029A03999A188D
:1050C000019B346041EB0303CBE90023FFF71CFE97
:1050D0002146FDF759FD2948FEF724FC40B928492F
:1050E0002848B92202F00AFFB921254802F0FFFE44
:1050F00089F31188BFF36F8F05B0BDE8F08F0022F0
:10510000DDE9024500236418ACEB010045EBE175D5
:105110003060C8E904234046C7E90045FFF7DAFDDF
:105120001648FEF7FFFB40B915491648B92202F0B0
:10513000E5FEB921124802F0DAFE89F31188BFF3C7
:105140006F8F4046D8F8083098474FF02003EFF3B0
:10515000118983F31288BFF36F8F0848FEF7D4FBE1
:1051600040B9074907488E2202F0C8FE8E21044844
:1051700002F0BDFE0148FEF7E3FB7BE7240A0020B6
:10518000038D0000308D000030020020200A002036
:105190005800002070B54FF02003EFF3118683F321
:1051A0001288BFF36F8F1648FEF7AEFB40B9154962
:1051B00015488E2202F0A2FE8E21124802F097FEC0
:1051C0000F48FEF7BDFBFDF765FD104BD3E9004529
:1051D00024180B4845F10005FEF7A4FB40B9094926
:1051E0000948B92202F08AFEB921064802F07FFE82
:1051F00086F31188BFF36F8F2046294670BD00BF2C
:10520000240A0020038D0000308D000030020020B1
:10521000024A0349034802F0DFBD00BF538D00007E
:10522000819B00008E9B000010B50C4C236813B1CD
:105230000B4B1B682BB900F073FE30B90122084BF1
:105240001A6001230020236010BD0138062801D90F
:10525000044810BD044B53F8200010BD280A00205C
:105260002C0A0020FE8FFFFF488B0000BFF34F8FFA
:105270000549064BCA6802F4E0621343CB60BFF3F2
:105280004F8F00BFFDE700BF00ED00E00400FA050E
:105290004FF0FE33002130B4064A074D074C2B6017
:1052A00013602360064A074CEB606368C2F8001580
:1052B00030BC1847041484500014845008148450DF
:1052C0000000845060000020024BD0E90012C3E9C6
:1052D00000127047600000202DE9F043154CDFF804
:1052E0005C80002818BF0446206883B040451DD06C
:1052F00016460D4620464FF4DE7104F1040900F015
:10530000D3F804F58C77484600F0F2FC384600F0FC
:105310001DFB4A4638462B460749009600F02CFBF9
:1053200008B9C4F8008003B0BDE8F083002003B0E2
:10533000BDE8F08304140020715D0000A5BCC95ACB
:10534000F0B50D4C0D4E002808BF2046076883B00D
:10535000B7420ED100261D4600F58C7033460096EC
:10536000144600F057FB002818BF34462C6003B0E9
:10537000F0BD0348FBE700BF04140020A5BCC95AD8
:10538000E88FFFFF10B5044630B16368DB0602D535
:1053900000232360636010BD024B03485B6898479D
:1053A000F3E700BF60000020648B000068B1436831
:1053B0003BB1DB0607D5BFF35F8F002303601846C0
:1053C000704703487047034870476FF4E0407047E8
:1053D000EA8FFFFFE98FFFFF10B5044620B10022DE
:1053E00011232260636010BD0148FFF751FFF6E70B
:1053F0008C8B0000A0B1436883B1DB060CD5012281
:10540000D0E8EF3FC0E8E12F0029F9D1012BF7D018
:10541000BFF35F8F00207047034870470348704711
:105420006FF4E040704700BFE98FFFFFEA8FFFFF96
:105430002DE9F041144C0268C368D0E90156C4E973
:105440000263C4E90025114B0E684868104DC3E99A
:105450000060D1E902760869D5F81411C3E9027633
:105460001861CB060DD5002305F58870C5E94433D6
:10547000C5E96D339047236805F5DA70BDE8F04162
:105480001847BDE8F08100BF7000002080000020B8
:105490000414002038B131B1002201440346013028
:1054A00081421A70FAD1704738B131B100220144FB
:1054B0000346013088421A70FAD170472DE9F04F47
:1054C000B2F5C07FAFB000F22C81DFF86C9290464D
:1054D0000C464FF4D07200218246484602F0C5FDCA
:1054E00011A801F0E9F9002220232146A9F8102093
:1054F00098FA98F4424609F11800A9F8124089F880
:10550000173002F0A7FD8022874B8849884C09EBB1
:105510000800CDE902410276019311A803F10C3392
:1055200001A9049301F0DEF90746002840F0D88075
:1055300008F1190805AE0DF1240B102200213046A8
:1055400002F093FD45467B4C9DF8142014F8103C66
:105550009DF815C014F80F1C9DF81600534014F860
:105560000E2C8CEA010C50409DF8171014F80D2CED
:105570009DF818E0514014F80C2C8DF814308EEA88
:10558000020214F80B3C9DF819E08DF815C08EEA64
:10559000030314F80ACC9DF81AE08DF816008EEA81
:1055A0000C0C14F8090C9DF81BE08DF817108EEA0E
:1055B000000014F8081C9DF81CE08DF818208EEAF5
:1055C000010114F8072C9DF81DE08DF819308EEAC2
:1055D00002029DF81E3014F806EC8DF81AC083EA1A
:1055E0000E038DF81B008DF81C108DF81D208DF812
:1055F0001E309DF81F1014F8053C9DF820C09DF842
:1056000021004B4014F8042C14F8031C8CEA02020D
:1056100041409DF822C014F8020C9DF823E08CEA6A
:10562000000014F801CC8DF81F308EEA0C0C8DF8B8
:1056300020208DF821108DF82200334632460121BA
:1056400011A88DF823C001F067F9102D94BF6D1BD0
:10565000103D002863D11034002D7FF475AF0BEBA3
:1056600007001022314602F0F5FC99F8033010379C
:105670000133202F89F803307FF45FAF8022594631
:1056800011A801F02FF9074668BB54460AF120051E
:105690000DAB1A46012111A801F03EF9074610BBD7
:1056A000102220460DA9144402F0D4FCAC42EFD1E4
:1056B00011A801F011F94FF4D0711F48FFF7F4FE63
:1056C00058462021FFF7F0FE01A81021FFF7ECFE5D
:1056D00030461021FFF7E8FE38462FB0BDE8F08FC6
:1056E00005AE0DF1240B11A801F0F6F84FF4D071BE
:1056F0001148FFF7D9FE58462021FFF7D5FE1021AB
:1057000001A8FFF7D1FE30461021FFF7CDFE50462D
:105710002021FFF7C9FE38462FB0BDE8F08F0746BD
:10572000E1E76FF03707F6E70001020308090A0B0B
:1057300004050607500A0020400A00202DE9F04128
:105740002022044688B00D4668460021A6186F4600
:1057500002F08BFCE27B0132D2B2E273002A4DD11F
:10576000A27B0132D2B2A273002A47D1637B0133FC
:10577000DBB26373002B41D1237B0133DBB2237394
:10578000002B3BD1E37A0133DBB2E372002B35D13E
:10579000A37A0133DBB2A372002B2FD1637A0133DA
:1057A000DBB2637253BB237A0133DBB223722BBBB0
:1057B000E3790133DBB2E37103BBA3790133DBB2DD
:1057C000A371DBB963790133DBB26371B3B92379B8
:1057D0000133DBB223718BB9E3780133DBB2E370C1
:1057E00063B9A3780133DBB2A3703BB963780133AB
:1057F000DBB2637013B92378013323703B46224632
:105800000121304601F088F8804600282AD110375F
:1058100008AB9F429ED100992B686A684B40019962
:1058200030464A40AE68029900937140EB68039E8F
:10583000019273402A69049E0291564005996A6953
:1058400003935140D5E90623069D05915540079ADB
:10585000694653408022CDE90653049601F042F890
:10586000804638B168462021FFF71EFE404608B04A
:10587000BDE8F081102220460DEB020102F0EAFBA8
:10588000F0E700BF2DE9F84304468069B0F5C07F1A
:1058900054D81D46C0F5C073AB424FD3C5F5C07395
:1058A000181A9042164649D3DFF89C904FF4C07204
:1058B0000F464846002102F0D8FB4946D4F8943000
:1058C000A269D4F89800984700283AD1D4F81880F3
:1058D0004DB12A46D4F89430D4F8980009EB080169
:1058E000984770BBA84407B1C6B917494246084655
:1058F000FFF7E4FD054638B14FF4C0711248FFF7D9
:10590000D3FD2846BDE8F88320460F49FFF716FF70
:1059100005460028F0D101232361EDE739463246E0
:1059200009EB080002F096FB0749B04442460846DE
:10593000FFF7C4FD05460028DED1E5E76FF0370527
:10594000DFE76FF03305DCE7E00B002010B5A422A1
:105950000021044602F089FB4FF0FF314FF6F07250
:10596000044B2161E26104F19C001B68BDE810401A
:10597000184700BFC40000202DE9F043054685B05C
:105980000F461646684610220021994602F06DFB2C
:105990001E4B05F19C0840461B68984720B1044601
:1059A000204605B0BDE8F08305F12004204600F054
:1059B00083FFAA69C5E92576EAB920222E69AA6182
:1059C000002E20DB20466946802200F08BFF044633
:1059D00030B93346494628460C9AFFF753FF044630
:1059E0000B4B40461B689847002818BF04462046CA
:1059F00005B0BDE8F0832E69002EE3DA172A02D83D
:105A0000531C5E08DEE70026DCE700BFC80000206C
:105A1000CC0000202DE9F04FB2F5806F8DB0DDF89D
:105A2000588000F2E480B8F5807F00F2DD80044603
:105A300015460E462022002104A81F4602F015FB41
:105A40006C4B04F19C0948461B6898478346002824
:105A500040F093802269E3699A4200F3928063697F
:105A6000002B40F08E80B8F1000F40F0A980DFF8E5
:105A700088A16F46002D00F098806F4604F1200841
:105A80000EE0102DAB4628BF4FF0100B30463946C4
:105A90005A4602F0DFFAB5EB0B055E4400F0858054
:105AA000E37B0133DBB2E373002B4DD1A37B0133E6
:105AB000DBB2A373002B47D1637B0133DBB263738B
:105AC000002B41D1237B0133DBB22373002B3BD16D
:105AD000E37A0133DBB2E372002B35D1A37A0133D1
