:020000040000FA
:10000000F80B002049060000ED060000F92400006E
:10001000032500000D250000212500001725000004
:100020000000000000000000000000003D1600007D
:10003000ED0600000000000001160000ED060000C3
:10004000000000000000000000000000051A000091
:1000500000000000ED0600000000000000000000AD
:10006000ED060000ED060000ED060000ED060000C4
:1000700000000000ED060000ED060000ED060000A7
:10008000ED060000ED06000000000000000000008A
:10009000ED060000ED06000000000000000000007A
:1000A000ED0600000000000000000000ED0600006A
:1000B000ED060000ED060000ED060000ED06000074
:1000C000ED060000ED060000ED060000ED06000064
:1000D000ED06000000000000ED060000000000003A
:1000E000ED06000000000000ED060000000000002A
:1000F000ED0600000000000000000000000000000D
:1001000000000000ED0600000000000000000000FC
:1001100000000000000000000000000000000000DF
:1001200000000000ED0600000000000000000000DC
:1001300000000000000000000000000000000000BF
:10014000ED060000207C0000801D00203E00000025
:1001500060230000400C002000000000602300002D
:10016000200C002000000000801E0020B3060000CC
:10017000400C002050040000200C0020080000006B
:10018000000C00200800000000015F5F000000007C
:10019000FE070000BD160000000400000000000083
:1001A000000000000000000000000000000000004F
:1001B000A01F00200000000001015F5F030100009C
:1001C0001F0100009903000000080000000000006B
:1001D000010000000100000000000000000000001D
:1001E000781500200000000070000000C4560000D8
:1001F00080000000000F0000010000006D040000FE
:100200000100000001015F5F040100001F01000008
:100210007503000000050000000000000000000061
:10022000010000000000000000000000400C002061
:1002300000000000CF56000040000000050700004D
:0C0240000100000061020000010000004D
:10026000F0B503680546B3F57D7FA7B007D040F22F
:10027000F532934207D06FF0850027B0F0BD00F053
:1002800045FC0020F9E700243C22214607A8CDE9DF
:100290000244CDE90444069402F045F93C2221468B
:1002A00017A8169402F03FF9EA69019405F11C03BE
:1002B00002B30426EA6A05F12C033AB30424731E40
:1002C000012B52D8012C50D80423002168680DEB73
:1002D000030205F0ECFA04281AD06FF08000CCE796
:1002E000002EE7D053F8041D3246013E0029F7D016
:1002F0001646DFE70326F5E7002CE0D053F8041D8F
:100300002246013C0029F7D01446D8E70324F5E73C
:10031000022E16D16E69402E29D806AF33463A46D2
:100320000121686805F0C3FA8642D6D1CDE902768C
:1003300002A944B92246019800F0FAFB044620467F
:100340009BE70021F5E72B6A402BC6D816AACDE91A
:100350000423019804AA00F0EBFBDDE90423044622
:100360000021686805F0ABFAE9E7012085E76FF046
:10037000890082E70020704738B50025054C2946E2
:100380002046D4F80024C4F8045402F0CCF8C4F891
:10039000005438BD4411002010B500F01FF9044688
:1003A00068B90121074802F083FA02F007FB04460E
:1003B00028B902F04FF9002818BF6FF083042046D7
:1003C00010BD00BF4011002013B511460022CDE939
:1003D000002242680346302A04683ED194F82C205B
:1003E000022A18D01AB900F01BF902B010BD1E483D
:1003F0002468D0F80404013ACDE90040072A2FD838
:10040000DFE802F004090D12171C21266A4618467F
:1004100000F003F9E9E7184600F0EDF8E5E76A4671
:10042000184600F0EBF8E0E76A46184600F0E0F8FE
:10043000DBE76A46184600F0E4F8D6E76A46184655
:1004400000F0E2F8D1E76A46184600F0E0F8CCE7A1
:100450006A46184600F0DEF8C7E76FF08000C4E790
:100460006FF08500C1E700BF441100202DE9F04F77
:10047000056804469FB0002D40F0AA80202229463E
:1004800002A802F050F812AF202229460AA802F072
:100490004AF830222946384602F045F8E26904F16C
:1004A0001C039846B2B10426E26A04F12C03EAB1B7
:1004B0000425EEB96FF0830630461FB0BDE8F08F1B
:1004C000002EF1D053F8041D3246013E0029F7D02A
:1004D0001646E9E70326F5E7002DEAD053F8041D98
:1004E0002A46013D0029F7D01546E2E70325F5E746
:1004F00030233A460021606805F0D9F93028D9D177
:100500004FF00109CDE90270334F0DF1080A04F1F3
:10051000100B4E45D7F800141CD10DF128094B469D
:10052000002008EB850EC64533D108B1C7F800148A
:10053000A3683146C7F804340AAA2B4602A8FFF77D
:1005400043FF00270646BD4209F1080938D1FFF7ED
:1005500013FFB1E75BF8043FC1F58062D81C20F0BF
:100560000300904204D9FFF707FF6FF08C06A3E762
:100570000844CA19C7F8000449466068019205F0AA
:1005800096F9019ACAF80C0009F101094AF8082FF6
:10059000BFE758F804CFC1F5806A0CF1030222F0DE
:1005A0000302524503F1080305D8781843E9020C09
:1005B00011440120B7E70028D5D0C7F80014D2E7CE
:1005C000394659E90223606805F079F90137BAE73D
:1005D0006FF0850670E700BF4411002008B528229F
:1005E0000021024801F09FFF002008BD4C150020AB
:1005F0006FF0850070476FF0850070476FF08500E1
:1006000070476FF0850070476FF0850070476FF09E
:10061000850070476FF0850070476FF08500704768
:10062000D1E9000102F0AAB90000000000000000BA
:1006300000000000000000000000000000000000BA
:1006400000F0D2BA0000000008B572B61E4A1F4B77
:100650009A601F4B83F309881E4B83F30A8883F348
:100660000B881D4B16A1D1E90001C3E9000100F080
:1006700053F81A4B1A498B4212D30020194B1A49CE
:100680008B4218D301F0F8FE186850F822405868E1
:1006900040F82240013298688242F5D30C33EAE7F1
:1006A0000022F8E71C6844F8220001325C68A2428C
:1006B000F8D30833E4E70022F8E700BFAFF3008087
:1006C000A5EDF5FEA5EDF5FE0000000000ED00E053
:1006D000F80B002000040020F80B0020440100006B
:1006E000680100006801000088010000FFF7A8FF12
:1006F000FEE74FF47F02D2F83031D2F83401BFF375
:100700004F8FC3F30B03092B03D1431E58425841AB
:1007100070470020704700005D4A08B5D2F8D0301D
:1007200043F00203C2F8D0304FF47F02D2F83031E8
:10073000D2F83421BFF34F8FC3F30B03092B01BF52
:100740004FF050230022C3F81421C3F81821FFF7FB
:10075000D0FF28B101224F4BC3F8382AC3F87825BF
:100760004FF47F02D2F83031D2F83421BFF34F8FEB
:10077000C3F30B03092B05D1012A1EBF0122454BF0
:10078000C3F87825FFF7B5FF18B10E22424BC3F826
:10079000E42E4FF47F02D2F83031D2F83421BFF387
:1007A0004F8FC3F30B03092B06D10022394BC3F83B
:1007B0000C270122C3F810270022D30003F57F0382
:1007C000D3F80013BFF34F8F013108D0D3F80013D3
:1007D0000132D3F80433B2F5807F0B60EDD12F4B9B
:1007E000DA69BFF34F8FD10745D5BFF34F8F2C4B3D
:1007F000D3F80024012AFBD1C3F80425D3F8002440
:10080000012AFBD1254BDA69BFF34F8FD2070AD5F6
:10081000DA6922F00102DA61BFF34F8F204AD2F881
:100820000034012BFBD11D4A136ABFF34F8F0133F4
:100830000CD1136A23F0FF0343F020031362BFF3CC
:100840004F8F174AD2F80034012BFBD10022144BF2
:10085000C3F80425D3F80024012AFBD1BFF34F8F3E
:100860000B49104BCA6802F4E0621343CB60BFF33C
:100870004F8F00BFFDE71B6ABFF34F8F0133B4D02A
:10088000034AD2F88C3043F44063C2F88C3008BD80
:1008900000ED00E00040005000A003500080FF0089
:1008A000009003500400FA05003A18BF01220039F5
:1008B00018BF012103688900074841EA4201186313
:1008C00059605A6842F001025A60BFF34F8FBFF37C
:1008D0006F8F0020704700BF04AAFF004B6830B53F
:1008E00013F01F052DD102680C681068C0F30720B3
:1008F000844226D25068556094600C7C23F01F031C
:1009000004F001041C438B7CDB0003F018031C4340
:100910004B7C5B0003F006032343D3608B68013BF1
:1009200023F01F04CB685B0003F00E03234343F066
:10093000010313615060BFF34F8FBFF36F8F2846E1
:1009400030BD0120FCE7036800205A68C9B2586036
:100950009960D86018615A60704770B505460024E8
:1009600003681E68C6F30726B44201D1002070BD9B
:1009700021462846FFF7E7FF0134F5E70722024B3F
:10098000C3F80423704700BF003000500022074B1B
:10099000C3F80021D3F80011C3F80421D3F80411DF
:1009A000C3F80821D3F80831704700BF0030005069
:1009B00000231720094A03F5C0710133202B42F8A8
:1009C0002100F8D100231720044A03F5E071013318
:1009D000202B42F82100F8D1704700BF00300050B2
:1009E00010B59DF80840C00B43EA0423064CC90B20
:1009F00043EA0213884200D910BDC2B202F5C072A8
:100A000044F822300130F5E70030005010B59DF871
:100A1000084000F1604043EA042301F16041074CC3
:100A2000400B490B43EA0213884200D910BDC2B201
:100A300002F5E07244F822300130F5E70030005052
:100A4000C0F30E03C3F50043B3FA83F3C3F11B03F2
:100A5000064AC0F3C730DBB240F4807043F48073C1
:100A6000C2F80005C2F80435704700BF00300050DE
:100A7000C0037047C00300F5FF407F30704700207F
:100A800070471F2070474FF40040704700F57F40CB
:100A9000C0304003704700004303014818447047CA
:100AA000FF1FF81F402070475F2070474FF4005031
:100AB00070470000044BC0F30730090200F50070D6
:100AC00043F82010704700BF0030005008B501F017
:100AD00005FC68B901F0CAFF58B9074AD36823F08A
:100AE00008031B041B0C43F0BF6343F40033D360C3
:100AF00008BD45F22350FBE700ED00E00020704701
:100B0000002070470020704770470000BFF34F8FF0
:100B10000549064BCA6802F4E0621343CB60BFF399
:100B20004F8F00BFFDE700BF00ED00E00400FA05B5
:100B30000346084611460BB900F014B8032070476D
:100B4000BFF34F8F0549064BCA6802F4E0621343B6
:100B5000CB60BFF34F8F00BFFDE700BF00ED00E0AB
:100B60000400FA0538B543680C2B30D14B68042BD0
:100B70002DD14FF0FF3304680D6821682B6031B32D
:100B8000A26822B30623012000F0E3FDF8B96168F2
:100B9000104B99420DD9A2680F485318834202D9CD
:100BA000F438834210D8206801F0DCFC0020286073
:100BB00038BD0A4B99420AD9A26809488B1883426A
:100BC000F1D90730814202D906488342EBD902208D
:100BD000EEE700BFFF01FF002C02FF002F01FF0026
:100BE0003801FF004C01FF00FFF7AABF08B5114B09
:100BF00083F30A88104800F0CDFE58B9FFF766FF6E
:100C000040B9FFF77BFF28B9FFF77AFF28B1FFF75C
:100C100079FF20B1FFF7E8FF05E0FFF775FF00F06F
:100C20004BFD01F027F800F033FD00F04DFC0020F3
:100C300008BD00BF00040020A0230020084B094A83
:100C40001B6810B55B68044619615A61D1E902233B
:100C5000D1E90001A047044600F03CF8204610BD51
:100C6000BC230020EDEEEEEE10B5094C23685B6866
:100C70005A69084B9A4208BF086000F027FC2368B5
:100C8000834203D0BDE8104001F022B810BD00BF80
:100C9000BC230020EDEEEEEE70B505460C46EFF3FA
:100CA0000583C3F308030BB1FFF79EFF084B1A68D7
:100CB0009368A34202D2D168A14206D212682146AB
:100CC0002846BDE8704000F071BC00231A46F6E7E4
:100CD000A82300208230012808B506D801F05EF96B
:100CE00018B9BDE80840FFF77FBF08BD0020704776
:100CF00040F20110704770B5054601F04FF9064605
:100D0000284601F08FF8044608B9002070BD01465E
:100D10003246284601F0AEF80028F6D12368D8689C
:100D2000F4E700002DE9F04F0D469DB0089304460E
:100D3000914601F033F9684B80461B68C5F30726DE
:100D40005F68EBB207932B14A7F11C07099304D536
:100D50006FF080001DB0BDE8F08F079BF318042BE7
:100D6000F6D8002CF4D001F029F963000A90EFD5F1
:100D700014F0E00FE2B2EBD1584B53F82250002DA3
:100D8000E6D02B6842462946586801F073F80028DF
:100D900040F09B80C4F30721284601F059F804462F
:100DA0000028D5D1EFF3108872B600F0E9FF069065
:100DB00088F31088069B002B00F08A801C6000F0EE
:100DC000C7FF4FEAC60B0B9002235A464946F86804
:100DD00000F0BFFC0028BBD1079B08994FEAC30A6B
:100DE00052460623F86800F0B4FC04460028AFD150
:100DF0000DF1300801462022404601F094FB2022EC
:100E0000214614A801F08FFB5A464946404601F09E
:100E1000A9FB5246089914A801F0A4FBC146C34699
:100E2000A246B2451DD1002301339E423DD80DF1AB
:100E30005009079B9C423BD1089B2946CDE90443BE
:100E400014ABCDE902630A9B069800930B9A099BA9
:100E5000CDF8048001F032F82846069900F07CF9BC
:100E600078E7DBF8042002235BF8081BF86800F041
:100E700070FC00287FF46CAF0AF1010AD1E7D2F8C8
:100E800008E0D068D9F800107044814205D2D9F842
:100E9000040001448E45FFF45BAF0CF1010C0832F5
:100EA000B445ECD109F10809BEE74A469C46F7E78C
:100EB000D9F80420062359F8081BF86800F049FC0B
:100EC00000287FF445AF0134B3E76FF0810041E7BC
:100ED0006FF082003EE700BFBC2300205C280020AA
:100EE0000C4B70B51B6804465D680E4655F80C3C0B
:100EF0001C3D1BB1034201D1FFF776FE002E05DA3F
:100F000021462846BDE8704000F0D8B9A8692040C5
:100F100070BD00BFBC23002070B50E46044610B162
:100F2000431E034201D0FFF75FFE134B30221B68C4
:100F300031465D68062355F8100C1C3D00F009FC95
:100F400008B1FFF751FEAB690BB9FFF74DFEAB6976
:100F5000234201D1FFF748FE2146284600F03CFF1E
:100F600038B100F114013022304601F0FBFA0020C4
:100F700070BD6FF08B00FBE7BC2300202DE9F0472C
:100F800099461C4B0E461B689046D3F804A000F00F
:100F9000F1FF044608B9FFF727FE6369002B01DA69
:100FA000FFF722FE032E01D9FFF71EFE04EB860792
:100FB0007D6ADDB106234A4641465AF8100C00F01E
:100FC000C8FB08B1FFF710FE7B6A4D46994528BF64
:100FD0001D4604EBC6042A464046616C01F0C2FA85
:100FE000636C2B4463647B6A5B1B7B622846BDE8B1
:100FF000F08700BFBC23002070B50E46154600F0F8
:10100000B9FF044608B9FFF7EFFD6369002B01DA69
:10101000FFF7EAFD032E01D9FFF7E6FD04EB860199
:10102000486A58B185422A4628BF024604EBC604E6
:10103000636C801A134463644862104670BD0000FC
:101040002DE9F8431D461B4B0F461B6890465B6815
:10105000A3F11C0900F08EFF044608B9FFF7C4FD98
:101060006369002B01DAFFF7BFFD032F01D9FFF7FA
:10107000BBFD04EBC70604EB8704636BB26E9B1ADF
:10108000AB4201D2FFF7B0FD02232A464146D9F810
:101090000C0000F05EFB08B1FFF7A6FDD6E91903CE
:1010A0002A461844414601F05DFAB36E2B44B366FC
:1010B000BDE8F883BC230020F8B506460D4600F0D5
:1010C00059FF044608B9FFF78FFDE7680FB9FFF72E
:1010D0008BFD6369991C20D05A1C21D1A5B315F151
:1010E000820F13D102236360EFF3108672B6294694
:1010F000204600F063F8054686F310886368022BEB
:1011000024D1204600F05AFE2846F8BD15F1830F81
:10111000EAD0FFF769FD0025E6E702236360FAE7FE
:10112000002BF6DB204600F093FF3B689B689B0595
:1011300001D50223636015F1810FD5D1E369002B3E
:10114000D2DBFFF751FDCFE73546F4E700236360BC
:10115000DAE7FFF7F5BC0000F8B50D4641B338B348
:1011600003682BB344681CB35E69EFF3108772B653
:10117000636CC1F88830A36961643343A361636918
:10118000334209D0A16904F13400194000F0FAF9A2
:10119000636923EA0603636187F31088064B05F150
:1011A0001000196800F0E2F9012300206B60F8BD1F
:1011B0006FF08000FBE700BFBC23002008B51030B3
:1011C00000F0E0F9002008BD036902680B4300212C
:1011D000F0B514690361936A95681C44073324F0E1
:1011E000070423F00703C0E90934224B416341643B
:1011F0000162C16215F40071036314BF0823D3694F
:10120000966904BF9B000833073323F00703E31AF2
:10121000D468C3611C6000245C6059B94FF0180C9D
:1012200002F13004D76904EB860403F10806B942E1
:1012300018D1596083600023690580F839304387ED
:1012400000F11C0380F83850C36303D552680AB913
:10125000094A13606FF00102BDE8F04007493830D9
:1012600000F054B90CFB014EDEF810E0013146F8F5
:1012700004EBDCE7EDEEEEEEA8230020C92500002C
:1012800038B50B4B0B4D1A680B4B28461A6000F013
:101290005FF92B6804465B6853F8101C53F81C0C6C
:1012A00000F049FA08B1FFF79FFC204638BD00BFA7
:1012B000901D0020BC230020A423002038B5EFF3AC
:1012C000108572B684690C4005D1054B41611968DF
:1012D000343000F04BF985F31088204638BD00BF4C
:1012E000BC2300202DE9F84300F0F0F81A4F044623
:1012F0003B68A0F138065D68184B29461B68012B36
:1013000021D000B3A5F11C08B0451CD0EFF3098231
:10131000AB682033934201D9FFF766FCEFF31089E5
:1013200072B6F168D8F80C0000F049FB38B1F168EA
:1013300054F8380C00F0FFF908B1FFF755FC61686C
:101340003C6089F31088064B1B6813B1B26802B188
:101350001A602846BDE8F883BC230020C023002083
:10136000A423002001F00C032DE9F0410C2B14BF45
:10137000054615464B0604460E4601F008071AD5E9
:10138000AB6913F8028CB7FA87F35B09B3EBD81F8C
:1013900001D0FFF729FCB8F1400F24D0B8F1410F7C
:1013A00025D100F01BFE06460146454800F082FCB0
:1013B0003046BDE8F081FFF717FCDFF804810FB974
:1013C000FFF712FCA04501D0FFF70EFCFFF790FCE1
:1013D00004462C6000F07AF83A4B1B688342E7D051
:1013E00000F076FCE4E7284600F04AFCE0E7344BE6
:1013F0009C4201D0FFF7F8FBB8F1100F5DD801A3B4
:1014000053F828F0CD13000049140000BB1400006D
:1014100051140000BB140000B11400009D14000022
:10142000BB14000067140000751400008114000054
:10143000A7140000BB140000BB140000BB14000084
:1014400091140000971400002868FFF754FCBFE7D0
:10145000D5E90223D5E90001FFF764FC04462046E4
:10146000FFF738FCB5E7D5E90223D5E90001FFF71E
:1014700085FDADE72868D5E90112FFF7BDFDA7E7B7
:10148000D5E90223D5E90001FFF7DAFD0024E6E7FC
:10149000FFF75FFEFAE7FFF729FC99E7D5E90001BE
:1014A000FFF73AFD94E7D5E90001FFF705FEEDE708
:1014B000D5E90001FFF714FD8AE76FF0830488E7A0
:1014C000F80B0020BC23002041DF7047044B186854
:1014D00010B14378012B00D170478068F8E700BF56
:1014E000B4230020C9B20129064B417005D11A6806
:1014F0002AB101781278914201D3034A106818602A
:10150000704700BFB4230020B823002070B50F4DF2
:1015100004462868134618B12278067896420BD301
:10152000A0602C606068002200F0DEFB2046BDE871
:1015300070400121FFF7D6BF0546806810B10678DC
:101540009642F9D3A060AC60ECE700BFB82300205E
:1015500038B50546FFF7BAFF044600F0B9FB05B100
:101560002C606068BDE8384000F0E8BB02230160F1
:101570004B70024B1A68024B1A607047B823002068
:10158000B423002038B5044600680D4660B14378A6
:10159000022B09D10121FFF7A5FF236829465868CE
:1015A00000F08CFB0023236038BD000070B572B6DC
:1015B0001446EFF30B855FF0000C002A1FBF8CF37D
:1015C0000B886C46954683F30B880C4A0123136005
:1015D00062B60E46FFF732FB72B63146FFF744FBA8
:1015E0005FF0000C002C1EBF8CF30B88A54685F322
:1015F0000B88024C0025256062B670BDC023002018
:10160000402010EA0E0017D001B5FFF76BFEBDE8D1
:101610000440884210D072B6EFF3098222E9F00F3D
:1016200080E80440B1E804400B68B2E8F00F82F3B0
:10163000098883F30B8862B670470000EFF30880D7
:101640007146EFF30982EFF30B830CB406B4FFF796
:1016500089FE864606BC0CBC00F0080001F00801BB
:10166000401A01DC0DDB70470CB42DE9F00F074C7C
:10167000254626462746A046A146A246A34630B4A4
:10168000704730BCBDE8F00F06BC7047A5EDF5FE15
:10169000084BDA6882F07F4282F47F0242F4804293
:1016A000DA6000221A765A76DA76DA77602283F8E0
:1016B0002220704700ED00E07047000000F0FEFDC2
:1016C000009A0A4B9A420FD10122904301460246EA
:1016D000034604460546064607468046814682463E
:1016E0008346844686460447FEE70000A5EDF5FEE6
:1016F000F0B510B943F6DA30F0BD0029FAD0002277
:101700000C2418258368C3F3802343F002030B6085
:10171000016A8A4201D10020EEE704FB02F3D0E91E
:10172000067603EB870305FB063303449B6B1B071D
:10173000E0D40132EDE7EFF3148381F00201C1F34D
:10174000400161F3000383F31488BFF36F8F00201F
:1017500070472DE9F0410E461546002A4AD0C407CD
:101760004BD480F00204C4F34004A40003F006024A
:10177000062A4AD144F0010422462946304603F0A5
:101780002FFFB8BB46E800F205EB0608100E120268
:1017900008F1FF3747E800F34FEA136166D51B02F3
:1017A00064D5884262D046E800F547E800F7FFF7C5
:1017B00066F92D0E85424FEA176734D3FFF761F9BA
:1017C000874230D82846FFF755F92246C6F1010175
:1017D0000144304603F004FF002847D00135AF42F2
:1017E00018D83846FFF744F92246A8EB000103F069
:1017F000F7FED8B30020BDE8F081EFF39484A40095
:1018000004F0040444F01204B0E7990731D544F021
:101810000804B1E72846FFF72BF90646FFF733F92E
:1018200022460146D5E7FFF73DF985421ED3FFF773
:101830003BF987421AD82846FFF72EF92246C6F10F
:1018400001010144304603F0CBFE78B10135AF42CF
:1018500003D83846FFF71AF9C6E72846FFF716F906
:101860000646FFF723F922460146EBE76FF07F00BB
:10187000C1E74CF2DA20BEE7F0B53B4C87B03B48FD
:10188000FFF76BF8236801255A1C0193384B22603F
:10189000DA681B694FF4407603930023334801A9AB
:1018A00002920495ADF814608DF81630FFF716F823
:1018B00018B143F6DA3007B0F0BD23688DF8160092
:1018C0005A1C01932B4B294802932B4B01A9CDE9BC
:1018D00003352260ADF81460FFF700F80028E8D166
:1018E00023688DF816005A1C0193244B1F4802935D
:1018F000234B01A9CDE903352260ADF81460FEF752
:10190000EDFF0028D5D1022740F2011623688DF89B
:1019100016005A1C01931B4B144802931A4B01A941
:10192000226003930497ADF81460FEF7D7FF0028F8
:10193000BFD123688DF816005A1C0193134B0B4836
:101940000293134B01A92260CDE90337ADF814606F
:10195000FEF7C4FF04460028ABD12A4629460348B7
:10196000FEF7A2FF2046A6E7C4230020801D00202A
:10197000342300006023000080580000400600006F
:1019800040060000200C0020400C0020000C00202D
:10199000200C002010B5044600F074F800F082F826
:1019A00010B143F6DA3010BD00F09EF80028F8D1EF
:1019B000FFF762FF0028F4D102232360F3E7884297
:1019C00006D0830706D581F00200C0F340007047BF
:1019D000002070470120704708B5084BD3F800215C
:1019E000D3F80821D3F80431FEF7D0FF0822044BC6
:1019F000C3F88021BDE80840FFF7F6B8003000507A
:101A000000E100E0FFF7E8FFFEE700000020034BE5
:101A1000D8765A6A42F470225A62704700ED00E0AC
:101A20000349044BCA68002092B21343CB6070474D
:101A300000ED00E00800FA050020704700224FF09A
:101A4000FF30094B02F1A0010132102A43F82100B6
:101A5000F8D1D3F88022002022F00802C3F88022B7
:101A6000D3F88032704700BF00E100E008B5FEF710
:101A700085FF0822024BC3F880211A60002008BDB0
:101A800000E100E0064BD3F8D02022F00102C3F8B9
:101A9000D020D3F8D02042F00202C3F8D020704703
:101AA00000ED00E037B501250C4CFEF781FFD4E9CD
:101AB0000101072300220095FEF792FF0723002271
:101AC000074908480095FEF7A1FF2169E068013940
:101AD000FEF7B6FF002003B030BD00BF3423000086
:101AE000FFFF03200080002010B500214448FEF7CE
:101AF000E1FF00214348FEF7DDFF00214FF05020B9
:101B0000FEF7D8FF00214048FEF7D4FF00213F48F0
:101B1000FEF7D0FF00213E48FEF7CCFF00213D48F4
:101B2000FEF7C8FF00213C48FEF7C4FF00213B48F8
:101B3000FEF7C0FF00213A48FEF7BCFF00213948FC
:101B4000FEF7B8FF00213848FEF7B4FF0021374800
:101B5000FEF7B0FF00213648FEF7ACFF0021354804
:101B6000FEF7A8FF00213448FEF7A4FF0021334808
:101B7000FEF7A0FF00213248FEF79CFF002131480C
:101B8000FEF798FF00213048FEF794FF00212F4810
:101B9000FEF790FF00212E48FEF78CFF00212D4814
:101BA000FEF788FF00212C48FEF784FF2B4C002114
:101BB0002B48FEF77FFF00212A48FEF77BFF2046D7
:101BC0000021FEF777FF00212748FEF773FF002171
:101BD0002648FEF76FFF00200122254BC3F8800442
:101BE000C3F88424C3F8C004C3F8C42440F201122B
:101BF000C4F840254FF48072C3F8402410BD00BFE4
:101C000000C0025000400050008000500090005082
:101C100000A0005000B0005000E0005000F0005064
:101C200000000150001001500040015000500150D0
:101C3000007001500080015000B0015000C0015000
:101C400000D0015000E0015000F0015000000250AF
:101C5000001002500020025000300250009003504B
:101C60000040025000A002500025845000A0035004
:101C7000003000500122014B1A607047C823002039
:101C800010B50446094B22891B6861685868062311
:101C900050F8100CFFF75DFD28B9054B1B68012BB0
:101CA00001D100F057F90323236010BDBC230020AD
:101CB000C823002004460D46A5462847036923B1E2
:101CC00019604FF0EE334361704703681962704743
:101CD00004484FF080510160BFF34F8FBFF36F8F07
:101CE0007047000004ED00E02DE9F84304461E466D
:101CF0000068114B9046A268A0F1080540E9023344
:101D0000483890420F4601D2FEF76EFFA5F1400918
:101D100040220021484600F006FC4FF0807345F851
:101D2000043C6FF0020345E9036745F8208CC4E9E1
:101D30000093BDE8F88300BFA5EDF5FE836883F34B
:101D40000B880368203383F30988406870470000DC
:101D5000054A1368013303F007031360034A013394
:101D6000801A03EBC0007047CC230020D023002052
:101D700018B1024B013803EBD0007047D02300208C
:101D800010B5064800F06DFA044628B18C220021F7
:101D900000F0C9FB00236360204610BDD023002063
:101DA000014608B5044800F06DFA00280CBF6FF03A
:101DB000FC00002008BD00BFD0230020014610B564
:101DC000EFF3108472B6034800F056FA84F31088DB
:101DD00010BD00BFD0230020F0B50346EFF31086FE
:101DE00072B60024426C00F1440520466AB948B13D
:101DF0000568012CD5F888200260284602BF9A6940
:101E00008A439A6186F31088F0BDD7683F687F697E
:101E10008F4204BF2846013402F18805D2F8882099
:101E2000E4E7000030B5094C02466168002308462B
:101E300040B105686D68954205D11BB1826860604C
:101E40009A60816030BD03468068F1E7DC2800209D
:101E500003689A68DB6812F4806F05D18B422CBF4F
:101E600000206FF0FA0070478B420CBF00206FF02B
:101E7000FA00704738B504462AB10B689B68DB0549
:101E800015D5002038BD0C4B1B685D681C2D01D199
:101E9000FEF7AAFE002255F81C3C99692C338A42B1
:101EA00003D053F8040FA04204D19142E9D16FF05E
:101EB000FC00E7E70132F2E7BC2300202DE9F84AF5
:101EC0000446894617460021302214309B46099E5D
:101ED0000B9D00F028FB00231D4AC4E90393126800
:101EE000301D526804F1440C1C3AA2600D9AC4F8EB
:101EF00014B0C4F88420089AE26104F120020A991F
:101F00008B4210D10023184604F1300204F1640121
:101F10002E1DDDF830C0083163450ED12368A7615E
:101F20002362BDE8F88A50F8331042F8041F56F8CF
:101F300033104CF833100133E1E756F833C042F860
:101F400004CF55F833C0013341E902C0E1E700BFD7
:101F5000BC230020064B1B685B681C2B04D053F885
:101F60001C3C0BB1586870474FF0FF30704700BF02
:101F7000BC23002010B5FFF7FBFE0446FFF710FF5F
:101F800050B9FFF7E7FFE3685B681B685B68834253
:101F900018BF0024204610BD0024FBE7064B10B5F7
:101FA0001B685C681C2C01D1FEF71EFE54F81C3C1B
:101FB0009868C0F3802010BDBC23002038B50546CA
:101FC00048B100F076F9B5EBD07F044601D0FEF7BA
:101FD0000BFE204638BDFFF7BDFFF4E72DE9F041C9
:101FE00008238C2240F28C41154800F00EF90023A2
:101FF000144E154F73607B6000F05EF9DFF84C8083
:10200000304600F037F80446A8B1394680234246EE
:1020100000F098F80546204600F0F6F8206804F134
:102020000C01FFF765FB08B1FEF7DEFD29462046EF
:10203000FFF7CAF8E4E7BDE8F041FFF721B900BFB8
:10204000D0230020AC230020DC2800205C280020C6
:10205000002330B500F13002444252F8041F29B188
:10206000D0F8841054F8125019444D600833202BD6
:10207000F3D130BDF8B5054608B9FEF7B5FD2C4ED5
:10208000346814F1290F50D82A4B196804F1280339
:102090008B424AD2D4E9063206200C3300FB0233CD
:1020A000226A02EB42021344626A02EB8202134488
:1020B0009B00E31801D2994201D2FEF795FD2368F7
:1020C0001D4A1B0C1B04934201D0FEF78DFD238893
:1020D000B3F5817F01D3FEF787FD6368002B01DA3A
:1020E000FEF782FD154A176807F14C031360144A86
:1020F0001268934201D9FEF777FDD4E90632062132
:102100000C3301FB0233226A3C6002EB42021344AF
:10211000626A02EB82021344326802EB83026B684C
:102120003260BB646F603846F8BD0027FBE700BF34
:102130008C1D00205023000000005F5F881D0020E0
:102140004C2300002DE9F04F85B0884691460746A4
:10215000029300B109B9FEF747FDD7F800A0DAF8FD
:1021600018100AF1300303EB81030193DAF81C40E5
:10217000234B1D6854B10C2101FB04541C60214BFE
:102180001B689C4201D9FEF72FFD2C4600262546F0
:10219000B346DAF81C305B4500D91CB9304605B0AF
:1021A000BDE8F08F1822019B02FB0B310023AB60CE
:1021B0004B69C5E900171E438B689A0516D5B9F11E
:1021C000000F02D0029A802A03D00393FEF70CFD81
:1021D000039B13F0E00FD9B202D159F821301BB1A3
:1021E0000391FEF701FD039949F82150D8F8043016
:1021F0000BF1010BAB60C8F804500C35C9E700BF08
:10220000841D00204823000070472DE9F041164648
:102210001D46044610B30BB302F1040803FB08F794
:1022200007F10C028A4219D1002100F07CF900204C
:1022300004F10C031A46014601318D42106002EB95
:10224000080C104608D10020A7EB08073B44C4E95E
:102250000036A560BDE8F0816246EDE76FF0F8005A
:10226000F8E7034638B1006828B102681A60002315
:1022700040F8043B7047704702680B1F41F8042C7C
:102280000360704700F10C02914210D343688068EC
:10229000043300FB0320814209D20439881AB0FBC1
:1022A000F3F203FB1200B0FA80F0400970470020FF
:1022B00070474FF0FF3070477047000008B500F0DE
:1022C00027F8054B986000F029F880F38888BDE86E
:1022D000084000F029B800BF00ED02E008B5FFF7A4
:1022E00095FB10B143F6DA3008BDFFF799FB0028E3
:1022F000F8D1FFF7A1FB0028F4D162B6FFF79EFBEF
:102300000028EFD1FFF7B2FB0028EDD0EAE700008C
:10231000014B1868704700BF34230000014B1B6855
:102320001868704734230000014B1B6858687047D9
:10233000342300000080000000800000FFFF0F0039
:10234000007C0000008000007C1F0020641F002033
:042350004C0200003B
:10236000009A1D4B9A420CD110B50FB41B48694618
:10237000FEF792FC0FBC00F0B9F806BC96460C467E
:1023800074470FDFFEE7009A134B9A420CD110B549
:102390000FB413486946FEF77FFC0FBC00F0A6F8A7
:1023A00006BC96460C4674470FDFFEE70CB4029A53
:1023B000094B9A420DD10CBC10B50FB409486946BF
:1023C000FEF76AFC0FBC00F091F806BC96460C467E
:1023D00074470FDFFEE70000A5EDF5FEF10C0000ED
:1023E000F70C0000250D00000348044B834202D087
:1023F000034B03B118477047781E0020781E002059
:10240000000000000548064B1B1AD90F01EBA30181
:10241000491002D0034B03B118477047781E0020C3
:10242000781E00200000000010B5064C237843B948
:10243000FFF7DAFF044B13B10448AFF30080012328
:10244000237010BD7C1F00200000000070580000A9
:1024500008B5044B1BB104490448AFF30080BDE844
:102460000840CFE700000000801F002070580000E7
:10247000A3F5803A704700BF174B002B08BF134BE2
:102480009D46FFF7F5FF00218B460F461348144A7F
:10249000121A00F048F80E4B002B00D098470D4B55
:1024A000002B00D098470020002104000D000D48AB
:1024B000002802D00C48AFF3008003F053F820004E
:1024C0002900FEF793FB03F039F800BF0000080075
:1024D0000000000000000000F80B0020801E00201B
:1024E0004C3900200000000000000000002383F3AE
:1024F00000887047FEF778BBFFF7FCFFFEE7FEF7AA
:1025000073BBFFF7FCFFFEE7FEF76EBBFFF7FCFFB8
:10251000FEE7FEF769BBFFF7FCFFFEE7FEF764BBD3
:10252000FFF7FCFFFEE70346F0B5C9B252B99408C5
:1025300003EB84041344A34211D1F0BD03F8011B43
:10254000013AF3E79C07F9D14FF0013514464D43AA
:10255000D618032CEBD9371B3D60043CF9E704F88F
:10256000011BE8E770B504463AB141EA040313F0F1
:1025700003030CD1D518032D0FD822F003031C44FC
:102580001944002302F0030293420CD170BD11F8EC
:10259000013B013A04F8013BE6E7CD1A2E68E51A43
:1025A0002E60043BE6E75D5CE5540133ECE7000098
:1025B000034B1B685A680AB918687047014870478E
:1025C000000C0020D1250000FFF7F2FF00470000BB
:1025D0002DE9F04F01251E4B8DB0D3F80090D9E9BD
:1025E00000329540013D1BB1984708B103F06FF9E7
:1025F0004FF0010A4FF00041284603F050F9002641
:10260000044609F10807002CF4D0D9F80430B3428D
:1026100002D803F05CF9EDE70AFA06F814EA080FAD
:1026200012D03B680BB903F052F96946404603F0FB
:102630003AF93B686846DDF804B0984701465846C9
:1026400003F041F924EA080401360437DBE700BF50
:10265000000C00200020704701680E4A034691429A
:1026600015D1C169A2F11022A2F1EF1291420ED14F
:102670008268012A0BD8C26812B101698A4206D069
:10268000586928B19B691B1A58425841704701206C
:10269000704700BF55AA00FF0D4B70B59E68A6B1EC
:1026A0003046FFF7D9FF044678B9F3686BB935694E
:1026B0000DB9204670BD2846FFF7CEFF28B9EB685C
:1026C000B34202D12E462D69F2E70124F1E700BFA3
:1026D000E42800202DE9F041394E3468F368D4B184
:1026E000B468C4B1002861D000295FD001FB00F5B7
:1026F000B5FBF0F0884259D1291D57D8AA070DD053
:1027000025F0030204321C4603E0616891424FD277
:10271000A469002CF9D12046BDE8F0812A46F2E7F1
:10272000891A232904F12007D4E9050C1AD80123BA
:10273000A360A0B1C0F818C0A36903B15861002319
:10274000C4E905333369DB0702D5FFF7A5FFA0BB5A
:102750002A46002138463C46FFF7E5FEDBE7C6F88F
:102760000CC0E9E702F1200804EB08032039C3E9B3
:10277000011E2169DFF84CE0DC60196144F808E0D3
:10278000AEF1102EAEF1EF1EC3F81CE001B1CB602C
:10279000C3E9050C40B18361996901B14B61012125
:1027A0002361C4E90121CAE7F360F5E70024B2E739
:1027B000D4F808E0BEF1000FB2D0012002F0BEFE56
:1027C000E428002055AA00FFF8B5054600283AD0B5
:1027D000364E3368002B36D0B268002A33D083429D
:1027E00003D872681344984202D3012002F0A6FE77
:1027F000A0F120042046FFF72FFF0028F5D155F85F
:10280000183C012BF1D145F8180C55E90570DFB1E2
:10281000BB68CBB955F81C2C7B68203213447B6015
:10282000386100B1C760202200212046FFF77BFEFF
:10283000386908B183682BB333699B0703D5FFF769
:102840002BFF0028D1D1F8BD40B3836833BB426869
:1028500063681344203363600369D4E9052123616D
:1028600092B9B9B9426981696261A161A2B1946109
:10287000A26902B1546103B1DC6020220021FFF79C
:1028800052FED9E73C46E2E79161A1690029E9D00F
:102890004A61E7E7F160F8E7F460E9E7F36845F8D3
:1028A000083C03B15C61F460C6E700BFE428002087
:1028B00038B50D461422002104461248FFF733FEB6
:1028C0001149124800F030F8232D1AD914F00303EF
:1028D0001FBF043DED18C3F10403E4182A4600218C
:1028E0002046FFF720FE074B094AC3E900459C60DC
:1028F0002260A2F11022203DA2F1EF126560E26198
:10290000DC6038BDE4280020C9270000D52600007F
:1029100055AA00FF0020704770470000014B1B685C
:10292000184700BF941D0020024B1860024B002086
:1029300019607047981D0020941D002010B50446B2
:10294000406A10B1A16A00F00FF9606AFFF7E6FF74
:102950000020C4E9090010BD38B50446FFF7EEFFBA
:10296000236A2C22012B0CBF05466FF0960500212F
:102970002046FFF7D8FD284638BD0000054B0A4623
:102980001978C90703D50146181D00F05CB86FF02F
:1029900088007047F828002010B5074C00F038F880
:1029A000204600F061F8201F082100F0DDF8BDE8A6
:1029B000104000F045B800BFFC28002038B50D4D90
:1029C0002B78DB0710D4281D00F03BF8044670B9C3
:1029D00000F012F8044650B900F030F8044630B95F
:1029E0002B7843F001032B700024204638BDFFF7FD
:1029F000D3FFFAE7F8280020044A002092F8803537
:102A000043F0010382F88035704700BF00290020A1
:102A1000F8B5094C20252646012720462762FFF7F6
:102A20009BFF013D04F12C04F7D196F8803565F346
:102A3000000386F88035F8BD00290020002070478B
:102A400070470020704713B5002001AB144600F01A
:102A50005FF830B9019BA34218BF6FF0930002B03A
:102A600010BD6FF09200FAE70020704710B50C4CD3
:102A7000236813B10B4B1B682BB900F059FD30B91B
:102A80000122084B1A6001232360002010BD013889
:102A9000062801D9044810BD044B53F8200010BD8E
:102AA000882E0020842E0020FE8FFFFFE4560000B9
:102AB000144B2DE9F043002814BF04461C46124F66
:102AC000236883B0BB4219D016460D4620464FF40A
:102AD000E07104F1040900F047F804F58E784846E7
:102AE00000F010FC404600F035FA2B464A464046BE
:102AF0000649009600F044FA08B92760002003B0A8
:102B0000BDE8F0838C2E0020A5BCC95A8933000093
:102B100070B50D4C1D46002814BF064626460B4BCB
:102B2000306882B098420DD106F58E70002633468B
:102B30000096144600F072FA002818BF34462C6044
:102B400002B070BD0248FBE78C2E0020A5BCC95A1C
:102B5000E88FFFFF38B131B1002201440346013054
:102B600081421A70FAD1704738B131B10022014464
:102B70000346013088421A70FAD170472DE9F04FB0
:102B8000B2F5C07FB5B000F2D680DFF8B091144640
:102B90000D464FF4D07200210DF15C0807464846FF
:102BA000FFF7C1FC404601F0EFF90023A9F810300F
:102BB0002023294689F8173009F1180563BA2246FF
:102BC000A9F812302846FFF7CDFC80225C4B404626
:102BD000079303F10433089303F1043309932A554F
:102BE00003F1043307A90A9301F0E4F982460028AF
:102BF0007ED10FAD04F119032C460BAE029303975F
:102C000001960495102200210198FFF78CFCDFF853
:102C100034B1DDF808A005940E9B5BF8044C5BF81A
:102C20000C7C0B995BF8100C5BF8085C5C40019B1A
:102C3000DDE90C627E40554081EA00071A46012119
:102C40004046CDE90B76CDE90D5401F0CDF9BAF14E
:102C5000100F94BFAAEB0A0AAAF1100A0BF1100B8D
:102C6000002863D1BAF1000FD6D1059C102220466E
:102C70000199FFF777FC99F8033010340133A04530
:102C800089F80330BED1049D802229464046039F27
:102C9000019E01F08FF9824660BB3C4607F1200996
:102CA00013AB1A460121404601F09EF9824608BB4B
:102CB0001022204613A91444FFF754FC4C45EFD1D1
:102CC000404601F071F94FF4D0711C48FFF74CFFFA
:102CD00028462021FFF748FF07A81021FFF744FFEF
:102CE00030461021FFF740FF504635B0BDE8F08F69
:102CF0000FAD0BAE404601F057F94FF4D0710F48BD
:102D0000FFF732FF28462021FFF72EFF102107A8EA
:102D1000FFF72AFF10213046FFF726FF2021384613
:102D2000FFF722FF504635B0BDE8F08F8246039F83
:102D3000019E049DDEE76FF0370AF3E74C30002078
:102D4000000102035C3000202DE9F04188B0044608
:102D50000D462022002168466F46FFF7E4FB04F190
:102D60002006E27B0132D2B2E273002A4DD1A27B6F
:102D70000132D2B2A273002A47D1637B0133DBB2A6
:102D80006373002B41D1237B0133DBB22373002B10
:102D90003BD1E37A0133DBB2E372002B35D1A37A66
:102DA0000133DBB2A372002B2FD1637A0133DBB284
:102DB000637253BB237A0133DBB223722BBBE379FB
:102DC0000133DBB2E37103BBA3790133DBB2A3713F
:102DD000DBB963790133DBB26371B3B923790133B2
:102DE000DBB223718BB9E3780133DBB2E37063B9F3
:102DF000A3780133DBB2A3703BB963780133DBB254
:102E0000637013B92378013323703B4622460121B6
:102E1000304601F0E9F8804650BB103708AB9F42BE
:102E20009FD1029AAB68039F534002933046EE68ED
:102E300007997E400396049F2E69009B7E4004966E
:102E40006E69059F80227E400596069FAE697E4092
:102E50000696EE697140079129684B4000930199ED
:102E60006B684B406946019301F0A4F8804638B185
:102E700068462021FFF778FE404608B0BDE8F081A3
:102E8000102220460DEB0201FFF76CFBF0E700BFBC
:102E90002DE9F8431D468369B3F5C07F52D8164625
:102EA000C3F5C072AA424DD3C5F5C072D31AB3425E
:102EB00048D30446DFF898904FF4C0720F46484656
:102EC0000021FFF730FB4946D4F89430A269D4F8CA
:102ED00098009847002838D1D4F818803DB1D4E93B
:102EE00025302A4609EB0801984770BBA84407B172
:102EF000C6B9174942460846FFF740FE054638B1B5
:102F00004FF4C0711248FFF72FFE2846BDE8F88342
:102F100020460F49FFF718FF05460028F0D101238E
:102F20002361EDE73946324609EB0800FFF71AFB4B
:102F30000749B04442460846FFF720FE05460028F0
:102F4000DED1E5E76FF03705DFE76FF03305DCE74B
:102F5000EC31002010B5A42200210446FFF7E3FA6B
:102F60004FF0FF314FF6F072044B2161E26104F142
:102F70009C001B68BDE81040184700BFBC1D002026
:102F80002DE9F043054685B00F4616460021102274
:102F900068469946FFF7C7FA1E4B05F19C08404664
:102FA0001B68984720B10446204605B0BDE8F08371
:102FB00005F12004204600F0E7FFAA69C5E925765F
:102FC000EAB920232E69AB61002E20DB204669463A
:102FD000802200F0EFFF044630B9334649462846C8
:102FE0000C9AFFF755FF04460B4B40461B68984769
:102FF000002818BF0446204605B0BDE8F0832E69BE
:10300000002EE3DA172A02D801325608DEE700263E
:10301000DCE700BFB81D0020B41D00202DE9F04FF3
:10302000B2F5806F8DB0169F00F2E380B7F5807F18
:1030300000F2DC80044615460E462022002104A83A
:103040009846FFF770FA6C4B04F19C0948461B68E0
:1030500098478346002840F092802269E3699A42AB
:1030600000F391806369002B40F08D80002F40F0C9
:10307000A980DFF888A16F46002D00F098806F4688
:1030800004F120080EE0102DAB4628BF4FF0100BC6
:10309000304639465A46FFF765FAB5EB0B055E44F4
:1030A00000F08580E37B0133DBB2E373002B4DD16D
:1030B000A37B0133DBB2A373002B47D1637B0133C6
:1030C000DBB26373002B41D1237B0133DBB223736B
:1030D000002B3BD1E37A0133DBB2E372002B35D115
:1030E000A37A0133DBB2A372002B2FD1637A0133B1
:1030F000DBB2637253BB237A0133DBB223722BBB87
:10310000E3790133DBB2E37103BBA3790133DBB2B3
:10311000A371DBB963790133DBB26371B3B923798E
:103120000133DBB223718BB9E3780133DBB2E37097
:1031300063B9A3780133DBB2A3703BB96378013381
:10314000DBB2637013B92378013323703B46224608
:103150000121404600F048FF8346002893D0DAF86A
:103160000030484698470346202104A8002B18BF8A
:103170009B46FFF7F9FC10213846FFF7F5FC58464F
:103180000DB0BDE8F08F3A46414600232046FFF7D8
:103190007FFEDFF868A000283FF46DAF4846DAF8FC
:1031A00000309847834600283FF465AFE7E72046A4
:1031B00004A9FFF7C9FD83460028D0D12369013354
:1031C0002361CCE73A46414604A8FFF7D7FC834683
:1031D00018B16F46DFF824A0C1E7204604A9FFF725
:1031E000B3FD834600283FF444AFF2E76FF0370B9E
:1031F000C5E76FF0350BC2E7B81D0020B41D0020F5
:103200002DE9F043202B1D460646884691468BB09B
:1032100026D8DBB202AF8DF80480B04658F8041B04
:103220008DF8053021B9404600F020FF044640B932
:10323000012302224046336001A900F02BFF04461F
:1032400038B138462021FFF78FFC20460BB0BDE88F
:10325000F0832A464946404600F01CFF0446F0E74A
:1032600002AF1946104600233A4601F099F8044689
:103270000028E6D12023B9461D46CCE72DE9F041D0
:10328000D0F8F830A6B0002BD8BF02AE31DD05462D
:103290000027D0F80C4102AEA4F101089022D5F825
:1032A000FC403146D0F8000101AB0197B8FA88F82C
:1032B000A0474FEA5818044620B9019B53B9B8F10A
:1032C000000F16D030469021FFF74EFC204626B066
:1032D000BDE8F081014632462846FFF791FF58B914
:1032E000D5F80431019A1344C5F80431B8F1000F40
:1032F000E8D16FF03C04E5E70446204626B0BDE87F
:10330000F08100BF70B500250446142204F58876CC
:103310002946C0F8F850FC30FFF705F90822294685
:103320003046FFF700F9144B30461B68984720469B
:1033300040F8045B00F080FE104B30461B68984755
:10334000C8B9D4F8F830AB420FDC03EB830204EBCE
:1033500082022021C2F800010120C2E9421008497E
:103360000133C2F8FC10C4F8F830064B3046BDE813
:1033700070401B68184770BDBC1D0020B81D0020A0
:103380008D3E0000B41D00202DE9F047202A88B0B2
:103390007AD83F4B00F5887904461B6848461746A3
:1033A000884698470546F8B940F20116D4F8F83037
:1033B000002B65D02046FFF761FF054638B9D4F8E9
:1033C000F830002B14DC013EF2D16FF03B056E4665
:1033D00020213046FFF7C8FB2E4B48461B68984714
:1033E000002818BF6FF01D05284608B0BDE8F0871B
:1033F000D4E94132934203D3D4F80C21012A02D0FC
:10340000013ED7D1E1E71F2BFAD96E4601462022B3
:10341000304604F1040AFFF786F83146504600F0C2
:1034200063FE05460028D3D1504600F019FE5046F1
:1034300000F002FE2946504600F018FE054600281E
:10344000C6D150462022314600F024FE0546002811
:10345000BED1034632462021304600F0A1FF05468A
:103460000028B5D1D4F8F8303A46002BC8BF002365
:1034700040463146C8BFC4F80431FFF773F8A7E7E8
:103480006FF03F056E46A3E76FF03B05ACE700BF6A
:10349000B81D0020B41D0020002130B58DB02822B9
:1034A00002A80191FFF73FF802A800F0A1FF04462F
:1034B00010B120460DB030BD174D4FF0FF312868D8
:1034C00000F044F9044620B1144800F0D5F9012C6D
:1034D00018D0002000F06AF9D0B9114A02A901A859
:1034E00000F0C6FC0446012000F060F960B92868CD
:1034F00000F034F90028DCD00A4800F0BDF920467D
:103500000DB030BD0524F2E7074800F0B5F9EEE74D
:10351000064800F0B1F9E0E7A01D002000570000C8
:103520006C3300205857000038570000185700002F
:1035300030B583B000F05CF828B100F0ABF803249C
:10354000204603B030BD00F077F8D8B900F02EF96E
:10355000E0B9224CD4F828391B0EF02B0AD1D4F84C
:10356000242A1F4B9A4231D000F044F8072400F07F
:1035700091F8E5E7062400F03DF800F08BF82046CE
:1035800003B030BD0424204603B030BD00F032F853
:1035900000F080F8FFF780FF044698B9114D2B68C2
:1035A000002BCDD102460146FFF782FA50B96822BE
:1035B0000D4901ABFFF7ACFA20B920460B4B2B604D
:1035C00003B030BD0524204603B030BD012000F01B
:1035D000EDF80028DAD1C4F80C0ADBE700108450BB
:1035E0000000E0208C350020903500205AEA5A5A1D
:1035F0000020704700207047430504D54FF0FF328C
:10360000034BC3F80821024BC3F8080A704700BFF8
:1036100000108450014BC3F8040A70470010845016
:1036200008B100F06BB84FF47500704708B100F0B6
:103630004FB84FF47500704710B5114800F072F89C
:1036400000B110BD0F4800F06DF80028F9D10E4C04
:10365000204600F067F80028F3D10C4B0C481C60A2
:1036600000F060F801460028EBD100F02DF8044688
:1036700008B1204610BD00F07BF82046FAE700BFF5
:10368000B01D0020AC1D0020A81D0020A01D0020A2
:10369000A41D002008B5084800F04EF8074800F0C7
:1036A0004BF8074800F048F8064800F045F8BDE838
:1036B000084000F00BB800BFB01D0020AC1D00207A
:1036C000A81D0020A41D002000207047704700BFE7
:1036D000024610B4084CD4F8003A1342FBD021B192
:1036E000D4F804310B60C4F80831034B0020C3F850
:1036F000082A10BC704700BF00108450044AD2F85A
:10370000003A1842FBD0C2F8080A0020704700BFF8
:103710000010845001F04ABFFEF705BF0A460021A1
:10372000FEF701BF08B5034B02681B681068984795
:10373000002008BDDC1D002008B5034B02685B6853
:1037400010689847002008BDDC1D0020024B02686D
:103750009B681068184700BFDC1D002008B5034BAC
:103760000268DB6810689847002008BDDC1D002057
:1037700070B5094C094D2069AB68984718B1084BE2
:1037800008485B6898470021074AEB681160206988
:10379000BDE87040184700BFC81D0020DC1D002098
:1037A000C01D002070570000F8350020F8B51A4DF4
:1037B0001A4E0446B26828699047E8B9184F3B682A
:1037C0004CB1A3B1012B19D0013B3B602869F368D0
:1037D00098470020F8BD43B90121124AC2F80015EC
:1037E0001149D1F81029002AFBD101333B60F3685D
:1037F000286998470020F8BD0C48F8BD0A4AD2F85D
:103800001039002BFBD1074A6FF07E40C2F800351B
:10381000FFF700FF3B68D7E7C81D0020DC1D002034
:10382000F83500200000845000108450E98FFFFF1D
:10383000014B1B68184700BFDC1D0020014B9B6833
:10384000184700BFDC1D0020014BDB68184700BF94
:10385000DC1D0020BFF34F8F0549064BCA6802F4F8
:10386000E0621343CB60BFF34F8F00BFFDE700BFA3
:1038700000ED00E00400FA0530B44FF0FE32002500
:10388000074B084C08494968C3F80024C3F80424CE
:10389000C3F80824C3F80C24C4F8005530BC08470A
:1038A0000010845000008450C01D002010B5044654
:1038B00050B1636813F0685F05D0064A934202D0A6
:1038C00000236260236010BD034B04485B68984787
:1038D000EFE700BF2C5F5CA9C01D002090570000DF
:1038E000C8B143680D4A934213D013F0685F0ED0FD
:1038F000012350E8002F194640E8001C9CF0000FFF
:10390000F7D1012AF5D0BFF35F8F0020704704483C
:103910007047044870476FF4E04070472C5F5CA923
:10392000E98FFFFFEA8FFFFF034680B14268094934
:103930008A420AD012F0685F05D0BFF35F8F002281
:1039400010461A60704704487047044870476FF487
:10395000E04070472C5F5CA9E98FFFFFEA8FFFFF13
:1039600010B5044620B10023034A2360626010BDF5
:103970000248FFF781FFF6E73A00003AB857000027
:103980002DE9F047002878D00C46002975D01D4657
:10399000002B72D007461AB1012200232A6003606F
:1039A0002B68002B64D02946204600F00FFE80468D
:1039B00000285FD12146286800F0EEFD80460028EF
:1039C00058D12B68082B6CD0042B6DD0A3F10209C1
:1039D000B9FA89F94FEA59190121354EC6F8C411CF
:1039E000C6F84011C6F8C411636AC6F83031D6F87B
:1039F00030219342F6D14FF0000A4FF0FF30C6F865
:103A00002CA1FFF7F9FD6FF01B035046C6F80031FB
:103A1000FFF700FEC6F80C91D6F8040A40F4806067
:103A2000FFF7F8FD0A23C6F83831089B012B29D08F
:103A30002369204AA2FB03231B09626A404602FB5A
:103A400003F303EB43031A4ADB039B09C2F8D831A3
:103A50000123C2F82C313B682A6823F07F4343EAF4
:103A600002633B602A6843EA02233B60BDE8F087BB
:103A7000DFF844804046BDE8F087DFF840804046EC
:103A8000BDE8F0874FF47F03D3F80C2C013206D049
:103A9000D3F80C3C074AA2FB03231B09CDE71623EE
:103AA000CBE74FF0030997E74FF0020994E700BF17
:103AB00000108450ABAAAAAA310CF100350CF10019
:103AC00058B34B1EB3F5047F27D230B54FF0000E2C
:103AD000CD00744671464B0901F01F0C50F823309D
:103AE000BCF11F0F23FA0CF306D003F0010319B940
:103AF00001211C468E46EEE79C4201F1010106D0F1
:103B00001C464FF0010EA942E5D1002030BD0EF158
:103B1000010E9645F7D1024830BD0148704700BFFD
:103B2000360CF100C0B32DE9F0434C1EB4F5047F10
:103B30001DD2E3B1DAB100252E46A8462C46CF00AF
:103B400003F1FF394FEA541C04F01F0E50F82C10FB
:103B5000BEF11F0F21FA0EFC0CD00CF0010C4CB979
:103B60000126E04634463546ECE7964216D90C4825
:103B7000BDE8F083AB420BD0C44508BF0136A94570
:103B8000F3D001350134BC42DCD10020BDE8F08324
:103B90000125E0462E46F5E7014870471D46F1E74E
:103BA000370CF1002DE9F04F91B08346DDE91B465B
:103BB0000D46002E6ED10F691C6000231A990B6010
:103BC000002A00F02F819D4B6A6AD3F83811D3F890
:103BD00030319A4269D10A2967D19BF803300893A2
:103BE00004F10803079304230593954B934CA3FB1F
:103BF00007239B0803EB4303A7EB430303930697B9
:103C00001A9B069E1E60002E00F0EA8000F0EEFC7B
:103C100000230993BBF1000F00F0D58098464FF0C8
:103C2000010ADDF81C90002D00F0CD80089B002BD0
:103C30003DD0284608A900F0C9FC002839D0814BA6
:103C4000984220D0089B082B00F0E48000225B0003
:103C50000893294608AB58460092FFF791FE7A4B2D
:103C6000984200F0D38070B9DBF80020130A03F407
:103C70007F03134323F07F43CBF80030059B013BC8
:103C80000593BDD10020039000F0B0FC039811B063
:103C9000BDE8F08F4FF47F01D1F80C0C01300CBF60
:103CA0004FF40477D1F80C7C86E76848EBE7664868
:103CB000C5E72946089800F06FFC0028BFD1089B93
:103CC000082B00F0A980042B00F0A980A3F10203C7
:103CD000B3FA83F35B090493C4F8C4A1C4F840A108
:103CE000C4F8C4A16B6AC4F83031D4F830219342CF
:103CF000F6D100234FF0FF30C4F82C31FFF77CFCE5
:103D0000002318466FF01B03C4F80031FFF782FC54
:103D1000049B4B4FC4F80C31D4F8040A40F4806083
:103D2000FFF778FC0A23C4F838312B6909A8A7FBF0
:103D300003236A6A1B0902FB03F303EB4303DB0360
:103D40009B09C4F8D831C4F82CA1DBF800300899DD
:103D500023F07F420B0243EA01631343CBF80030A8
:103D600000F00AFC099B03F01A0303437FF46AAFD7
:103D7000A7FB0637D4F81431B8EB970F0A93D4F8A1
:103D800018310B93D4F81C310C93D4F820310D93D7
:103D9000D4F824310E93D4F828310F9301D1039B2A
:103DA0009BB9484618220AA9183EFFF7B3FC09F14F
:103DB000180908F101089EB100F018FC00230993CE
:103DC000002D7FF433AF224839E748461A46F61AE9
:103DD0000AA9994408F10108FFF79CFC002EEBD1D9
:103DE000069F079E6A6939463046FFF769FEAA6951
:103DF00040B94FF4806339463046FFF793FE002800
:103E00003FF440AF00231A9A136018E72B6A002B87
:103E10003FF439AF0F4836E7032304935CE70223EE
:103E2000049359E7012229465846009608ABFFF74C
:103E3000A7FD00283FF4D4AE25E700BF0010845052
:103E4000ABAAAAAA020CF100310CF100300CF1006F
:103E5000350CF100320CF10010B4DDE901340194AD
:103E60000024DDF80CC0CDE902C410BCFFF79ABEF7
:103E700030B51546012487B005AB00930022CDE98B
:103E8000015404ABFFF78EFE07B030BDF0B587B02C
:103E9000002966D01E46002B63D01446002A60D04D
:103EA000314F0D4638684FF0FF31FFF74FFC0028C7
:103EB0004DD10020FFF77AFC002844D12B4800F0B8
:103EC00097FAD8B101204FF0FF35FFF76FFC0028BB
:103ED00035D14FF408712648FEF73CFE04212548F1
:103EE000FEF738FE21482821FEF734FE3868FFF738
:103EF00035FC00282FD1284607B0F0BD1C4A0346E8
:103F0000029205AA019204AA039000921749024660
:103F10001848FFF7A1FF03460028D3D128461D46C5
:103F2000059B22469C4228BF1A46049932600831FC
:103F3000FFF7F0FB0120FFF739FC0028C9D00E483D
:103F4000FFF79AFCC5E70D48FFF796FCB6E70C486B
:103F5000FFF792FCADE70B48FFF78EFC284607B051
:103F6000F0BD4FF0FF35C6E7A01D00201036002041
:103F7000383600200C360020385700001857000053
:103F800000570000DC57000010B5044630B1002295
:103F900001236265A265E365236610BD0148FFF752
:103FA0006BFCF4E7F457000018B174220021FFF70E
:103FB000B3BB704788B199B110B50024802A8463DF
:103FC00080F83C4006D1102204631044FFF7A2FBA6
:103FD000204610BD6FF01F0010BD6FF0210070472C
:103FE0006FF01F00704700BF70B5044686B0F8B18F
:103FF0001046EAB1E3B101291AD8A26B16D0012A02
:1040000016D1102500210DEB0506019602AA616369
:104010002946009500F0F6FA50B92B463246204664
:1040200002A900F099FD18B906B070BD002AE8D0C9
:104030006FF02100F8E700BF10B5044628B1204614
:10404000BDE81040F421FFF769BB0448FFF714FCFA
:104050002046BDE81040F421FFF760BB085800007F
:1040600010B1F421FEF776BD704700BF08B521B14D
:10407000012908D06FF0360008BD012100F058F882
:104080000028F7D108BD022100F052F80028F9D02D
:10409000F0E700BF30B505468818B0F5801F0B4625
:1040A0001446A1B001D8802A0CD9B3F5801F17D9C6
:1040B00022461946284600F07DF8044684B9204679
:1040C00021B030BD6846FFF725FB224669462846E9
:1040D00000F070F8802104466846FFF71FFBEDE70B
:1040E0006FF03604EBE700BF70B5E8B10E46D9B10A
:1040F000044600F031F80546B0B92368012B0BD017
:10410000022B01D0284670BD1C22304604F1080164
:10411000FFF700FB284670BD2022304604F108015D
:10412000FFF7F8FA284670BD6FF03605EAE700BFE2
:1041300078B138B50D46F0210446FFF7EFFA402379
:1041400020462560E36500F091FA003818BF012091
:1041500038BD0120704700BFF0B5056EA5B004461C
:1041600004AEE5B900230127019330466760294674
:1041700002AA009300F046FA10B1012025B0F0BD6C
:104180002A46204602A900F099FA0028F5D12046D7
:1041900000F0AAFB0028F0D1206625B0F0BD802DEC
:1041A0002A46304628BF802204F16401FFF7B2FAA4
:1041B000256ED7E7002800F0AE802DE9F04F1446B9
:1041C000A5B0002A3DD00F46002949D0B2F5803F66
:1041D0000546006E20D34FF6FF7805F1640AEB6DBB
:1041E0001A1AB2FBF3F103FB1122002A65D18342B4
:1041F000B9464FF6FF7672D0B6FBF3FB03FB0BFB21
:10420000BBF1000F30D1002E45D1A4F57F44FF3C17
:10421000B4F5803F4744E2D2EA6D161AB6FBF2F3DA
:1042200002FB1366A64228BF2646002E75D18242A5
:1042300000F08D80B4FBF2F602FB06F62EB9002CDE
:1042400079D1002025B0BDE8F08F002331463846F3
:10425000CDE9003302AA00F0D5F9002800F09580DE
:10426000012025B0BDE8F08F002359464846CDE92E
:10427000003302AA00F0C6F90028F1D15A462846B8
:1042800002A900F01BFA0028EAD1A6EB0B06286E63
:10429000D944002EB9D019304946324605EB80008A
:1042A000FFF738FAA4F57F44286EFF3C3044B4F59C
:1042B000803F4744286692D2AEE7424528BF424637
:1042C000164639465044FFF725FA286EEB6D304408
:1042D000834207EB06092866A8EB06068CD1802BE3
:1042E00028BF802351461A4604A8FFF713FA00237B
:1042F000E96D02AACDE9003304A800F083F9002893
:10430000AED12846EA6D02A900F0D8F90028A7D15D
:10431000EB6D286670E70120704705F164033946AC
:1043200032461844FFF7F6F9286EEA6D3044A41BB4
:10433000374428667BE72B6E2246193305EB830052
:104340003946FFF7E7F92B6E23442B6679E7802A7D
:1043500028BF802205F1640104A8FFF7DBF90023E0
:10436000E96D04A8CDE9003302AA00F04BF900285A
:104370007FF476AF2846EA6D02A900F09FF9002885
:104380007FF46EAFEA6D286654E73246284602A9EC
:1043900000F094F900287FF463AF3744A41B4EE784
:1043A000F8B51C460546114816460F46FFF744FE71
:1043B00021460E48FFF75AFE044620B10B48FFF78E
:1043C0004FFE2046F8BD3A4629460848FFF762FEF0
:1043D00004460028F2D131460448FFF785FE044622
:1043E0000248FFF73DFE2046F8BD00BF58380020C8
:1043F0001C2370B582B001A90546019300F032F884
:10440000044638B9019B1C2B07D0144C1C212846AC
:10441000FFF784F9204602B070BDD5E90112131EE2
:1044200018BF0123003918BF0121012628689B000D
:10443000EA6843EA4103002818BF43F00103EE6134
:104440002AB9C5E90834002BE4D1054CDEE7204643
:1044500043F00803C5E9083402B070BD370CF00022
:104460000E0CF0000346002866D0002964D00A68CC
:104470001C2A61D14FF47F023B49D2F8100C8842CC
:104480005CD0D2F8101C013158D0D2F8101C4FF477
:104490007F021960D2F8140C3449884260D0D2F8F7
:1044A000141C01315CD0D2F8141C4FF47F02596007
:1044B000D2F8181C11F5947F4FD0D2F8181C013196
:1044C0004BD0D2F8181C4FF47F029960D2F81C0C24
:1044D000274988423ED0D2F81C1C01313AD0D2F88C
:1044E0001C1C4FF47F02D960D2F8001C70312FD011
:1044F000D2F8001C01312BD0D2F8001C4FF47F02FF
:104500001961D2F8041CAF3120D0D2F8041C01315B
:104510001CD0D2F8041C4FF47F025961D2F8080C69
:10452000144988420DD0D2F8081C013109D0D2F8C4
:10453000082C00209A6170470120704740F6FC016A
:10454000A5E740F2373200209A6170475121E2E737
:104550009021D3E742F60411C3E740F6D861B2E7F1
:1045600042F2D001A1E700BFFCF8FFFFD020FFFF1F
:104570000429FFFF37F3FFFF014608B54FF48060C1
:10458000FFF754F80022034BC3F8C821C3F82C21CD
:1045900008BD00BF001084500138072805D8DFE8A7
:1045A00000F0100E040A0404040607487047CB68A4
:1045B00000204B6270478B6800204B6270474B684D
:1045C000F6E70B68F4E700BF310CF1000B6802E07E
:1045D000082B0B6006D8026A13424FEA4303F7D058
:1045E0000020704700487047310CF1000022044B56
:1045F0004FF48060C3F82C21C3F8C421FEF7FCBF40
:1046000000108450F0B5002483B0B0F1005F8DF845
:10461000074025D38C468444BCF1804F04461FD804
:1046200017461D4601220DF1070300F083FF0646E1
:10463000B0B99DF80730099A3C603B7192B14DB119
:104640000246089928460DF1070300F073FF38B9B8
:104650009DF807303046099A1560137103B0F0BD1C
:104660004FF47506304603B0F0BD00BFD8B108B5B1
:104670000368012B04D0022B0FD043B10B4808BDB7
:1046800020220B490830FFF745F8002008BD14220E
:1046900008490830FFF73EF8F7E7202206490830BE
:1046A000FFF738F8F1E74FF4730070470100F300AB
:1046B0001858000058580000385800002DE9F843F9
:1046C000002900F0F9800446002800F0F980036812
:1046D0000F469046002B00F0C380013B012B00F2F7
:1046E000D7804FF0FF3178484FF00209FFF72EF8DE
:1046F000002840F0BF800020FFF758F80646002849
:1047000040F0C280714AD2F81C39002BFBD16F4DAA
:10471000D5F8203C002BFBD14FF0FF30FEF76CFFAB
:10472000D5F8040A20F04000FEF774FF01230722A9
:10473000C5F81838C5F80029C5F8C437A36CC5F802
:10474000CC37E36CC5F8D037C5F8C09723685BB1A8
:10475000013B012B18D8636AC5F85C36236AC5F89B
:104760005836E369C5F85436A269584BC3F8502649
:104770006269C3F84C262269C3F84826E268C3F888
:104780004426A268C3F84026504AD2F81039002BBC
:10479000FBD1B8F1000F5FD063684020012B08BF48
:1047A000C2F884363A68494BC3F8282CC3F82C8CDD
:1047B000FEF736FF0646454AD2F81039002BFBD1EA
:1047C000424AD2F8203C002BFBD123685BB1013B6D
:1047D000012B18D8D2F85C366362D2F858362362BF
:1047E000D2F85436E361394BD3F85026A261D3F89E
:1047F0004C266261D3F848262261D3F84426E26051
:10480000D3F84036A36000230121304AD2F8CC0708
:10481000A064D2F8D007E064C2F8C417C2F88436A6
:10482000C2F8C837D2F81039002BFBD1C2F81838BB
:10483000002E3BD1254BD3F8040A40F04000FEF790
:10484000E9FE0120FEF7B2FF60BB1F48FEF786FFBE
:1048500010BB3046BDE8F8830423C2F8C837AAE786
:104860004FF0FF3118484FF00109FEF76FFF0028A5
:104870003FF441AF1648FEF7FFFF0020FEF796FF1A
:10488000064600283FF43EAF1248FEF7F5FF39E731
:10489000114E3046BDE8F8831048FEF7EDFF304674
:1048A000BDE8F8830E48FEF7E7FFCEE7102104F1DC
:1048B0000800FEF733FFBDE70A4E3046BDE8F88337
:1048C0004FF47306C5E700BFB01D002000108450F0
:1048D00000570000185700000100F300585700006F
:1048E000385700000300F300A0B3034670B4D0E9CA
:1048F0000240D3E9041226BA05BA0CBA10BAC3E9C9
:104900000440D3E90612986A09BAC3E9026512BAEB
:10491000996100BAD3E9084125BA0CBAC3E9072561
:10492000D3E90B12C3E9094009BAD86B12BAD962AC
:10493000D3E90D4125BAC3E90C250CBA00BAD3E975
:10494000101209BA12BAC3E90E40196400205A6461
:1049500070BC70474FF47300704700BF002867D0E9
:1049600038B590F83C300446022B17D0032B42D0C8
:10497000002B31D03048314D2A68314B1268C3F8D2
:1049800000242A685268C3F804242A689268C3F88D
:1049900008242A68D268C3F80C2438BD016B006C67
:1049A00000F0CEFB254D0028E6D12A68244B126882
:1049B000C3F800242A685268C3F804242A6892685D
:1049C000C3F808242A68D268C3F80C24216B206C31
:1049D00000F026FC68B1CFE70269194BC3F8002448
:1049E0004269C3F804248269C3F80824C269C3F881
:1049F0000C24002038BD016B006C00F0E3FB0F4D70
:104A00000028B9D12A680E4B1268C3F800242A681E
:104A10005268C3F804242A689268C3F808242A68F4
:104A2000D268C3F80C2400F0F1FB0028E1D0A3E722
:104A30004FF47100704700BF0900F1009C1D002079
:104A40000010845038B50446364AD2F81039002B8D
:104A5000FBD1344AD2F87034002BFBD1314AD2F862
:104A6000203D002BFBD12F4AD2F8203C002BFBD15C
:104A70002C4AD2F8383D002BFBD12A4DD5F8383CD2
:104A8000002BFBD14FF0FF30FEF7B6FD636BD5F87E
:104A9000040A23F00403032BE36D39D0012B0CBF70
:104AA00020F0800020F02000FEF7B4FD01231D4A15
:104AB000C2F80039D2F81039002BFBD1194AD2F8CC
:104AC0007034002BFBD11749C2F8BC34D1F810392F
:104AD000002BFBD1134AD2F87034002BFBD1626B50
:104AE000002022F00401032918BFA36B4FEA8202C1
:104AF00018BF03F001030B4902F01C021A43C1F86E
:104B0000C024636B072B04BF0123C1F87C3438BD7C
:104B1000012B0CBF20F0400020F01000FEF77AFDC2
:104B2000C4E700BF00108450094A0A4B11680968A5
:104B3000C3F8001411684968C3F80414116889683F
:104B4000C3F808141268D268C3F80C24704700BF79
:104B50009C1D0020001084502DE9F04F85B00029E5
:104B600000F0EC809046002A00F0E880054600281E
:104B700000F029819946C36D0E46002B52D1B9F53C
:104B8000805F54D295F83C30042B00F0FF80002762
:104B90004FF0FF31AC48FEF7D9FD002840F0D5803A
:104BA0000020FEF703FE002840F0D8800123A7482C
:104BB000C0F81038D0F81049002CFBD16B6B032BD8
:104BC0003ADC002B3BDAA24CA04AD2F81039002B79
:104BD000FBD1002F40F0D1806B6BEA6D23F0040312
:104BE000032B9A4BD3F8040A00F09F80012A0CBFD4
:104BF00040F0800040F02000FEF70CFD0022934BB7
:104C00000120C3F81028FEF7D1FD002840F0B18044
:104C10008D48FEF7A3FD002840F0A480204605B093
:104C2000BDE8F08F012BADD1B9F5803FAAD3894CF7
:104C3000204605B0BDE8F08F063B012BC3D8AB6B17
:104C4000012B00F2BE80EB6D012B7CD82B6E012B6B
:104C500000F2E8802846FFF7F5FE04460028B3D1AD
:104C60002846FFF77BFE04460028ADD16B6B072B6F
:104C7000A9D801229A4012F08A0F40F0D58012F094
:104C8000440F40F0BA80D2079DD523F00403032BD4
:104C900032680DD02B6ED8F80010012B6B4B0BBF78
:104CA000C3F8281DC3F8301DC3F82C9DC3F8349DEC
:104CB000EB6D012B654B0BBFC3F8282CC3F8302CD0
:104CC000C3F82C9CC3F8349C6B6B23F00403032BB8
:104CD00000F0A2802B6E012B14BF20208020FEF755
:104CE0009FFC044600287FF46FAF584BD3F810495F
:104CF000002CFBD1696B072914D801228A4012F0DD
:104D00008A0F40F0BB8012F0440F0BD0D3F8602420
:104D10002A60D3F864246A60D3F86824AA60D3F8C0
:104D20006C34EB600123AB654EE7012A0CBF40F009
:104D3000400040F01000FEF76DFC5FE7464C204657
:104D400005B0BDE8F08F454C3EE74548FEF794FDC1
:104D50000020FEF72BFD00283FF428AF4148FEF766
:104D60008BFD23E74048FEF787FD204605B0BDE8F0
:104D7000F08F3E48FEF780FD4AE70423202105F12D
:104D8000100085F83C30FEF7C9FC25E7296B286C3C
:104D900000F0C0F998B9364F2C4C3B681B68C4F83A
:104DA00000343B685B68C4F804343B689B68C4F813
:104DB00008343B68DB68C4F80C34296B31B1012737
:104DC000E6E62C4C00E74FF4710427E74FF0100B98
:104DD0002B6D05EB0B0A0193EB6CCDF808A000934B
:104DE000286CD5E91123CDF80CB000F08BFA00281F
:104DF00051D1002385F83C30E1E72A68134BC3F812
:104E000060246A68C3F86424AA68C3F86824EA685E
:104E1000C3F86C246B6B38E7EB6D012B14BF1020CB
:104E200040205CE7144CCFE62A68084BC3F84024C6
:104E30006A68C3F84424AA68C3F84824EA68C3F837
:104E40004C246B6B21E700BFB01D00200010845084
:104E50000100F1000500F1000B00F1000300F1007A
:104E6000005700001857000058570000385700003E
:104E70009C1D00200200F1000400F100D3F8402442
:104E80002A60D3F844246A60D3F84824AA60D3F88F
:104E90004C34EB6046E73B6859461B685046C4F803
:104EA00000343B685B68C4F804343B689B68C4F812
:104EB00008343B68DB68C4F80C34FEF72FFC98E735
:104EC0002DE9F04109B302B30446002800F0AF8099
:104ED0001D46436B0E46072B1BD05DB9032B10D12B
:104EE000836D73B945668566C5660567102500F153
:104EF00064030B602B4631462046BDE8F041FFF7C6
:104F00002BBE2F463846BDE8F081764F3846BDE8C7
:104F1000F081C36D002B40F08D80B5F5805F80F08F
:104F200090801DB9A36D002B40F08B804FF0FF31B6
:104F30006D48FEF70BFC002840F08F800020FEF744
:104F400035FC002840F085800123684AC2F81038FB
:104F5000D2F81039002BFBD1636B032B4FDD063BDE
:104F6000012B4ED8A36B012B6DD8E36D012B78D8A4
:104F7000236E012B77D82046FFF764FD07460028F3
:104F800040D12046FFF7EAFC074600283AD1626B81
:104F9000072A36D80123934013F08A0F40F081800E
:104FA00013F0440F6FD1DB072BD501224F4BC3F811
:104FB0007C24C3F8BC543168002D56D1A16D09B9C9
:104FC000C3F82425494BD3F81079002FFBD1616B2E
:104FD000072917D801228A4012F08A0F6FD112F0E8
:104FE000440F0FD0D3F860242260D3F864246260A9
:104FF000D3F86824A260D3F86C34E36002E0002B9D
:10500000B0DA3B4F394AD2F81039002BFBD10120DE
:10501000C2F81038FEF7CAFBB8B93348FEF79EFB5A
:1050200000283FF46FAF3348FEF726FC6AE74FF4E1
:10503000710767E7012B7FF474AFB5F5803FFFF48C
:1050400070AF2D4F5EE72D4FDCE72D48FEF714FCC7
:10505000E3E72C48FEF710FC76E72B48FEF70CFC44
:105060006CE72A4FCEE72A4FCCE7E26D012A33D016
:105070001020C3F8301CC3F8345CFEF7D1FA0746A1
:1050800000289FD0BEE72268184BC3F860246268EE
:10509000C3F86424A268C3F86824E268C3F86C24E7
:1050A00083E72268114BC3F840246268C3F84424A4
:1050B000A268C3F84824E268C3F84C2475E7D3F823
:1050C00040242260D3F844246260D3F84824A260CC
:1050D000D3F84C34E36095E7C3F8281C4020C3F8AC
:1050E0002C5CCAE70B00F100B01D002000108450BA
:1050F0000100F100585700000500F1000200F10026
:105100003857000018570000005700000300F10056
:105110000400F1007F280CD849B1032901D00648CA
:10512000704706497F280CBF084600207047084694
:1051300070470248704700BF0300F7000100F70006
:1051400070B41B4D431C4FEAC00CC5F800350CF57C
:105150007F0303F504431B6883B0BFF34F8F002226
:105160000093C5F80025134B009C9C4216D099B1C2
:10517000861C114CC5F8006554F80C40BFF34F8FE6
:105180000194C5F80025019A9A4207D07F2805D8D6
:10519000032907D0094802E07F2805D9084803B051
:1051A00070BC70477F28F9D0002003B070BC7047F6
:1051B00000900350501A84500884FF000300F70049
:1051C0000100F700B9B90D4AC30003F57F030130B0
:1051D000C2F8000503F5044382B01B68BFF34F8F8C
:1051E0000193C2F80015019A054B06489A4208BF80
:1051F000002002B070470448704700BF0090035081
:10520000501A84500100F7000300F700002001222B
:10521000024BC3F8380AC3F8782470470010845052
:1052200009B13148704730B40124304B304D84B05F
:10523000C5F80045C3F80811D3F80851C20002951B
:10524000029DC3F80011D3F8005120440295029D3D
:10525000C3F80411D3F8041102F57F0202910299F8
:1052600002F50442C3F800051268BFF34F8F0392A2
:105270000399204A914231D11C6005E09DF8062037
:10528000DAB99DF80720C2B9D3F80021003A18BF57
:1052900001228DF80520D3F80821003A18BF012219
:1052A0008DF80620D3F80421003A18BF01228DF8AA
:1052B00007209DF80520002AE0D09DF806308BB924
:1052C0009DF8073003F0FF0233B91046074BC3F8CF
:1052D000002504B030BC70470748FAE7074804B01F
:1052E00030BC70470648F4E70C00F1000090035012
:1052F00000008450001484500200F7000600F700FC
:105300000100F7002DE9F0470024CEB006468A469A
:1053100017462146742210A89946599DDDF86081F0
:10532000FDF701F9802221462EA82D94FDF7FBF808
:105330008423B5F57F6FCDE90C440F940E9406934A
:105340007DD8FFF7F1FB2DAC06AB01934946DDE9B3
:10535000562338460295009400F08CF8002875D149
:1053600007231D93012300222893F7180123DFF858
:10537000ECC0F10001F57F01CDE92623CDF870A046
:105380001E90209601F50441CCF800750B68BFF320
:105390004F8F0793CCF80005079A314B9A4244D0BF
:1053A00002220DF117031A701B78102110A88DF836
:1053B0007C30FEF7B3F910220DF128090092204647
:1053C00006990CABCDF8049008AAFFF71BF9074625
:1053D00000BB012410E0102D2E4628BF102610A976
:1053E0003246FEF797F9102110A8FEF797F901341D
:1053F000AD1B3744E4B22ED0069B4A4608A910A83C
:105400008DF8B440FFF75CFD034608EB0700002B66
:10541000E1D01F467422002110A8FEF77DF9FFF7A6
:1054200083FB38464EB0BDE8F0870E4B1B68B34295
:105430000AD103220DF117038DF81720B4E70A4FA4
:1054400038464EB0BDE8F087084FEAE7084F3846C7
:105450004EB0BDE8F0872F46DCE700BF0090035058
:10546000501A84500C1E00200F00F1000C00F100B7
:105470000E00F1002DE9F041002482B00A9D019454
:10548000B5F57F6F40D8ED00B5F5807F1E4634BF7F
:105490000323042301F1FF3CBCF13F0F0C460093B2
:1054A00032D888B3174666BB089A6AB3099A11685E
:1054B00051B3A2191344994226D3089B01462246B0
:1054C000581CFEF727F9089B04F102081C4400232E
:1054D000637026BB089BFF2D009503EB080017D9CE
:1054E0002B029BB243EA1523022201A90193FEF786
:1054F00011F908F102030020099A136002B0BDE817
:10550000F0810AB1402ECFD9094802B0BDE8F08140
:1055100001226946FEF7FEF808F10103EBE7089B5C
:10552000324603EB08003946FEF7F4F8B044D1E701
:105530000600008000201870704700BF08B5074BB8
:10554000044613B10021AFF30080054B1868836A4D
:1055500003B19847204600F0A7F800BF0000000004
:105560006C58000070B50D4D00260D4C641BA41046
:10557000A64209D10B4D00260B4C00F097F8641B96
:10558000A410A64205D170BD55F8043B01369847DA
:10559000EEE755F8043B01369847F2E7701E00200D
:1055A000701E0020701E0020741E0020884210B55E
:1055B00001EB020402D98442234607D8431EA142CC
:1055C00008D011F8012B03F8012FF8E70244014637
:1055D0008A4200D110BD13F8014D02F8014DF7E7E2
:1055E000431810B501D21F2A01D9002010BD01397E
:1055F00002F014030144102B80EA01043CD009DCC2
:105600008BB1042BF1D11F2C40E840F315D941E8B0
:1056100040F10EE0142BE8D11F2C40E8C0F30CD968
:1056200041E8C0F105E01F2C40E800F305D941E84E
:1056300000F11C460B468C42D7D122F01402013AED
:105640000A2AD2D801A151F822F000BF9B560000CF
:105650009556000087560000EB550000EB55000002
:10566000EB550000EB550000A15600009B560000D2
:105670008F560000875600001F2C40E880F3DCD9CD
:1056800041E880F1D5E713F4001FAFD1ADE713F483
:10569000801FFAE75B02A9D5A7E713F4002FF4E710
:1056A00013F4802FF1E700BFFEE700BFF8B500BF9D
:1056B000F8BC08BC9E467047F8B500BFF8BC08BCF3
:1056C0009E46704754464D5F43525950544F0054C4
:1056D000464D5F504C4154464F524D5F53455256D4
:1056E00049434500FF8FFFFFFF8FFFFFFE8FFFFF46
:1056F000FE8FFFFFFD8FFFFFFC8FFFFFFC8FFFFF83
:105700004661696C20746F206163717569726520F0
:105710006D757465780A00004661696C20746F20AD
:10572000696E63726561736520504D20636F756E9D
:105730007465720A000000004661696C20746F2075
:10574000646563726561736520504D20636F756E8B
:105750007465720A000000004661696C20746F2055
:1057600072656C65617365206D757465780A0000FB
:10577000436F756C64206E6F74206C6F636B207068
:105780006F7765722073617665206D75746578003A
:105790006D757465785F667265652063616C6C65B4
:1057A000642077697468204E554C4C20706172619A
:1057B0006D6574657200000043616E277420696E28
:1057C000697469616C697A65206D757465782C20DF
:1057D000776173204E554C4C0D0A00004661696C90
:1057E00020746F20756E6C6F636B206D75746578B7
:1057F0000A0000006374782063616E6E6F7420622B
:1058000065204E554C4C00000A6374782069732063
:105810004E554C4C0A00000067E6096A85AE67BB2E
:1058200072F36E3C3AF54FA57F520E518C68059B82
:10583000ABD9831F19CDE05BD89E05C107D57C3657
:1058400017DD703039590EF7310BC0FF111558684C
:10585000A78FF964A44FFABE0123456789ABCDEF4A
:10586000FEDCBA9876543210F0E1D2C3101E00204C
:105870000000000000000000000000000000000028
:10588000FBF70AFA1FBD1FB515486946F8E71FB5B3
:1058900014486946F4E71FB513486946F0E71FB599
:1058A00012486946ECE71FB511486946E8E71FB59D
:1058B00010486946E4E71FB50F486946E0E71FB5A1
:1058C0000E486946DCE71FB50D486946D8E71FB5A5
:1058D0000C486946D4E71FB50B486946D0E700007D
:1058E000F10C0000F70C0000250D0000E10E000097
:1058F000190F00007D0F0000F90F0000411000009B
:10590000B910000053110000ED0C000064CBFF7FC4
:045910000100000092
:107C00007FE97FE9FAF7ACBB7FE97FE9FAF7BBBB15
:107C10007FE97FE9FAF7CABB00000000000000001E
:107C200090ED00E0641F0020801E0020880100000D
:107C3000000C0020192900001529000090350020B3
:107C4000A81D0020D81D0020D01D0020CC1D002024
:107C5000C81D0020493800003D38000031380000C0
:107C60000000000055380000041E0020FC1D00200C
:107C7000F41D002000000000EC1D00206139000010
:107C8000AD380000E138000029390000FC35002043
:107C90003A00003A003600203A00003A043600204C
:107CA0003A00003A083600203A00003AFFFF000090
:107CB00000000000000000000000000000000000C4
:107CC00000000000000000000000000000000000B4
:107CD00000000000000000000000000000000000A4
:107CE0000000000000000000000000000000000094
:107CF0000000000000000000000000000000000084
:107D00000000000000000000000000000000000073
:087D10005124000029240000A9
:10800000780101208DA00000A92E010061A00000D0
:1080100061A0000061A0000061A0000061A000005C
:10802000000000000000000000000000519C000063
:1080300061A0000000000000F19B000061A00000B2
:10804000D99C0000D99C0000D99C0000D99C00005C
:10805000D99C0000D99C0000D99C0000D99C00004C
:10806000D99C0000D99C0000D99C0000D99C00003C
:10807000D99C0000D99C0000D99C0000D99C00002C
:10808000D99C0000D99C0000D99C0000D99C00001C
:10809000D99C0000D99C0000D99C0000D99C00000C
:1080A000D99C0000D99C0000D99C0000D99C0000FC
:1080B000D99C0000D99C0000D99C0000D99C0000EC
