:020000040000FA
:100000000008002045010000A7010000F91E0000C3
:10001000FB1E0000FD1E0000FF1E0000A91E0000C8
:10002000000000000000000000000000AD1E000005
:10003000C301000000000000711E0000CB010000A1
:10004000000000000000000000000000BD280000CB
:1000500000000000D30100000000000000000000CC
:10006000D7010000DB010000DF010000E301000018
:1000700000000000E7010000EB010000EF010000BC
:10008000F3010000F7010000000000000000000084
:10009000FB010000FF010000000000000000000064
:1000A0000302000000000000000000000702000042
:1000B0000B0200000F0200001302000017020000F4
:1000C0001B0200001F0200002302000027020000A4
:1000D0002B020000000000002F02000000000000C2
:1000E00033020000000000003702000000000000A2
:1000F0003B020000000000000000000000000000C3
:10010000000000003F0200000000000000000000AE
:1001100000000000000000000000000000000000DF
:10012000000000004302000000000000000000008A
:1001300000000000000000000000000000000000BF
:1001400047020000114C124DAC4209DA2168626886
:10015000A368043BA2BFC858D050FAE70C34F3E7B9
:100160000C4B0D4CA34208DA19685A680020043A77
:10017000A4BF8850FBE70833F4E772B60748084984
:10018000086000F009FF00F0BBFE00004C02000018
:1001900070020000700200008802000000000000F1
:1001A00008ED00E0FEE7FFF7FEBF01F0A5BE01F09D
:1001B000A4BE01F0A3BE01F0A2BE01F075BE01F025
:1001C00075BEFFF7FEBF01F053BEFFF7FEBF02F0A2
:1001D00075BBFFF7FEBFFFF7FEBFFFF7FEBFFFF7E0
:1001E000FEBFFFF7FEBFFFF7FEBFFFF7FEBFFFF743
:1001F000FEBFFFF7FEBFFFF7FEBFFFF7FEBFFFF733
:10020000FEBFFFF7FEBFFFF7FEBFFFF7FEBFFFF722
:10021000FEBFFFF7FEBFFFF7FEBFFFF7FEBFFFF712
:10022000FEBFFFF7FEBFFFF7FEBFFFF7FEBFFFF702
:10023000FEBFFFF7FEBFFFF7FEBFFFF7FEBFFFF7F2
:10024000FEBFFFF7FEBFFFF7FEBF00BFD85500009F
:1002500040670020F4000000E0550000202000204E
:1002600000000000E0550000002000200000000019
:10027000406800204020000020200020204700008F
:08028000002000202000000016
:1002A000024B0A460146186800F05CB8C867002097
:1002B00008B5074B044613B1002100E000BF054B11
:1002C0001868836A03B19847204604F0F5FF00BF21
:1002D000000000000C05000070B50D4D00260D4C0F
:1002E000641BA410A64209D10B4D00260B4C04F050
:1002F000E5FF641BA410A64205D170BD55F8043B70
:1003000001369847EEE755F8043B01369847F2E787
:100310002C6800202C6800202C6800203068002009
:10032000024B0146186800F02BB800BFC8670020D8
:10033000884210B501EB020402D98442234607D853
:10034000431EA14208D011F8012B03F8012FF8E752
:10035000024401468A4200D110BD13F8014D02F853
:10036000014DF7E738B502FB01F5294600F056F8D4
:10037000044618B12A46002100F09CF9204638BDF9
:1003800038B50546002945D051F8043C0C1F002B18
:10039000B8BFE41800F0ACF81F4A1368104633B930
:1003A000636014602846BDE8384000F0A7B8A34257
:1003B0000BD921686218934202BF1A685B68521811
:1003C000636008BF22600460ECE71A465B680BB10B
:1003D000A342FAD911685018A0420BD120680144F9
:1003E000501811608342DDD118685B680144536086
:1003F0001160D7E702D90C232B60D3E720682118BE
:100400008B4202BF19685B680918636008BF2160EE
:100410005460C7E738BD00BFD4820020F8B5CD1CBA
:10042000064625F0030508350C2D38BF0C25002D98
:1004300001DBA94203D90C2333600020F8BD00F092
:1004400057F821490A6814469CB9204F3B6823B9E4
:100450002146304600F03CF838602946304600F02E
:1004600037F8431C23D10C233046336000F046F8A4
:10047000E3E723685B1B17D40B2B03D923601C44D1
:10048000256004E06368A2420CBF0B6053603046F5
:1004900000F034F804F10B00231D20F00700C21A0D
:1004A000CCD01B1AA350C9E722466468CCE7C41C11
:1004B00024F00304A042E3D0211A304600F008F8EB
:1004C0000130DDD1CFE700BFD4820020D8820020E8
:1004D00038B50023054D044608462B6004F0DEFEC7
:1004E000431C02D12B6803B1236038BD7088002003
:1004F000014800F009B800BF78880020014800F0EA
:1005000004B800BF7888002070477047CC6700208F
:10051000009A284B9A4209D11FB527486946002204
:1005200000F040FE0FBC0CBC9E4674470FDFFEE798
:10053000009A204B9A4209D11FB5204869460022F3
:1005400000F030FE0FBC0CBC9E4674470FDFFEE788
:10055000009A184B9A4209D11FB5194869460022E2
:1005600000F020FE0FBC0CBC9E4674470FDFFEE778
:100570000CB4029A0F4B9A420AD10CBC1FB5114819
:100580006946002200F00EFE0FBC0CBC9E4674476C
:100590000FDFFEE7009A074B9A4209D11FB50A48C0
:1005A0006946002200F0FEFD0FBC0CBC9E4674475D
:1005B0000FDFFEE7A5EDF5FEDD110000E311000001
:1005C00011120000D912000061150000C3438B42D4
:1005D0006DD332F01F036AD1013902F014030144D4
:1005E00010B481EA0004142B0ED8DFE803F03F0DAD
:1005F0000D0D480D0D0D0D0D0D0D0D0D0D0D510DAC
:100600000D0D1000DC0200D4002010BC70471F2C20
:1006100040E8C0F305D91C4641E8C0F10B469C42B6
:10062000F2D122F01402013A0A2AEDD801A151F8C0
:1006300022F000BF67060000A90600006106000066
:10064000090600000906000009060000090600006E
:10065000A306000067060000050600006106000012
:100660009B02D2D4D0E71A03CFD4CDE71F2C40E8A9
:1006700000F3D6D91C4641E800F10B46CFE71F2C0A
:1006800040E840F3CDD91C4641E840F10B46C6E7AF
:100690001F2C40E880F3C4D91C4641E880F10B468A
:1006A000BDE75B03B0D5B0E75902AED5ACE700209B
:1006B000704700BF0346F0B5CEB2C2B113F00305D8
:1006C00016D10F0446EA016407F47F0709023C4390
:1006D00089B221431446D718032C0DD86FF00301BB
:1006E000940801FB042203EB8403AA420AD1F0BD63
:1006F00003F8016B013AE0E7A7EB040CCCF800101B
:10070000043CE9E7EE540135EFE70346F0B58AB360
:1007100043EA010515F0010513D1012A23D941EA65
:10072000030414F0020412D11619032E15D86FF029
:100730000304960804FB062203EB860301EB860103
:1007400016E011F8014B013A03F8014BDFE731F8ED
:10075000024B023A23F8024BDFE70E1B37681E1BE1
:100760003760043CE0E70024DEE76C5CEC540135C4
:100770009542FAD1F0BD42DF0047000000000000C2
:1007800001015F5F030100001F030000C1080000BA
:100790000020000000000000010000000100000037
:1007A00000000000000000003042002000000000B7
:1007B00070000000CC53000010000000800000001A
:1007C000000700000100000000015F5F040100005D
:1007D0001F030000710D0000000500000000000074
:1007E0000000000003000000000000000000000006
:1007F0003062002000000000D7530000100000000D
:10080000400000000005000001000000F45300005B
:100810002000000041000000000500000100000071
:100820000A540000400000004200000000040000E4
:100830000100000000015F5F00000000FE030000F7
:100840003D1F000000040000000000000000000048
:10085000000000000000000000000000E082002016
:100860000000000001015F5F01000000FF030000C5
:100870005D1F0000000100000000000000000000FB
:10088000000000000000000000000000E0860020E2
:040890000000000064
:1008A00038B5002441F204430448214600F5A05520
:1008B0002A68C450FFF7FEFE2C6038BD24200020BB
:1008C0002DE9F04FADB000F0E9F8002840F0D880F5
:1008D00001216D4802F0A0FD02F020FE002840F04A
:1008E000CF801FAD014634222846FFF7E3FE4FF0CC
:1008F000FF34664F4FF000414FF0FF3004F002FD2F
:10090000C20640F1BC80102013A904F0FFFC00B126
:10091000FEE71399002940F0B18034232A46149849
:1009200004F0FCFC342805D11F9C402C04D94FF066
:10093000FF341EE0631C1CD02022002103A8FFF717
:10094000B9FE202200210BA8FFF7B4FE04231AAA47
:1009500052F804191E46013B49B134234FF0010BF4
:10096000039504930DF10C090DF1600826E0002BAE
:10097000EED16FF0830673E0454AD8F80030106876
:10098000D91C21F00301C0F5A0529142C24663D8A0
:10099000C21901443E48019201605946149804F07E
:1009A000BDFC019ADAF80030C9F80820C9F80C300B
:1009B00008F104080BF1010B09F10809B345DBD379
:1009C0004FF004091EAB53F80429C84609F1FF395A
:1009D0001AB34FF0000E7346DFF8B4C00BA9DCF871
:1009E00000200DF16C0A5AF8049BC2F5A05B09F1D6
:1009F000030020F00300584501F1080127D8013316
:100A000002EB070E434541E902E902444FF0010EB3
:100A1000E9D19946CCF8002002E0B9F1000FD2D11B
:100A2000159A1C4B31461A601B4B0BAA53F82480B5
:100A300003A84B46C0474FF0000806460DF12C0AAC
:100A4000C8450AF1080A10D1FFF72AFF08E0BEF1F5
:100A5000000F01D0CCF80020FFF722FF6FF08C06CA
:100A60003146149804F066FC44E741465AE90223F3
:100A7000149804F05BFC08F10108E1E7FEE7FEE7EB
:100A80002DB0BDE8F08F00BF2020002024200020E2
:100A90002434002028340020B80D000008B54FF49D
:100AA000606200210248FFF705FE002008BD00BF7C
:100AB000303400206FF0850070476FF0850070477C
:100AC0006FF0850070476FF0850070476FF085000C
:100AD00070476FF0850070476FF0850070476FF0CA
:100AE000850070476FF0850070476FF08500704794
:100AF0006FF0850070476FF0850070476FF08500DC
:100B000070476FF0850070476FF0850070476FF099
:100B1000850070476FF0850070476FF08500704763
:100B20006FF0850070476FF0850070476FF08500AB
:100B300070476FF0850070476FF0850070476FF069
:100B4000850070476FF0850070476FF08500704733
:100B50006FF0850070476FF0850070476FF085007B
:100B600070476FF0850070476FF0850070476FF039
:100B7000850070476FF0850070476FF08500704703
:100B80006FF0850070476FF0850070476FF085004B
:100B900070476FF0850070476FF0850070476FF009
:100BA000850070476FF0850070476FF085007047D3
:100BB0006FF0850070476FF0850070476FF085001B
:100BC00070476FF0850070476FF0850070476FF0D9
:100BD000850070476FF0850070476FF085007047A3
:100BE0006FF0850070476FF0850070476FF08500EB
:100BF00070476FF0850070476FF0850070476FF0A9
:100C0000850070476FF0850070476FF08500704772
:100C10006FF0850070476FF0850070476FF08500BA
:100C200070476FF0850070476FF0850070476FF078
:100C300085007047012908D1012B06D84368342B61
:100C400003D1D2E9000102F039BC6FF08000704797
:100C50006FF08500704708B502F02CF9002008BD40
:100C600070B5002405460426A6B03C22214607A8FC
:100C7000CDE90244CDE904440694FFF71BFD3C2274
:100C8000214617A81694FFF715FD019405F11C03E2
:100C900053F804193246013E09B1164601E0002E10
:100CA000F6D1042405F12C0353F804192246013C23
:100CB00009B1144601E0002CF6D1731E012B38D87F
:100CC000012C36D80423002168680DEB030204F0E0
:100CD00025FB042804D06FF08006304626B070BD96
:100CE000022E24D16B69402BF5D806AE3246012185
:100CF000686804F013FB6B699842ECD1CDE902609F
:100D000002A934B12B6A402BE5D816AACDE90423F9
:100D100004AC2246019802F0DFF80646002CDCD035
:100D2000DDE904230021686804F000FBD5E7002119
:100D3000E7E70126D1E710B58CB00C46694604F010
:100D4000E5FA009B002B04DA02330BDA04F002FB15
:100D50000CE003D0A3F2F233012BF7D86846A0478A
:100D6000014600E00021019804F0E4FA0CB010BD47
:100D700070B50E4C0E4D0F4E4FF000414FF0FF304E
:100D800004F0C0FAC10604D531461020FFF7D3FFA6
:100D9000F2E7820602D529462020F7E7430602D56E
:100DA00021464020F2E704F0D5FAE5E7510C0000B7
:100DB000610C0000570C00000B0C0000110C00002F
:100DC000F90B0000FF0B0000F30B0000050C000006
:100DD000170C00001D0C0000230C0000290C000063
:100DE0000F0B0000150B0000EB0A0000F10A0000D9
:100DF000F70A0000FD0A0000030B0000090B0000C9
:100E00003F0B0000450B00001B0B0000210B0000F6
:100E1000270B00002D0B0000330B0000390B0000E6
:100E2000DF0A0000E50A0000C10A0000C70A00004E
:100E3000B50A0000BB0A0000CD0A0000D30A00007A
:100E4000D90A00004B0B0000510B0000570B0000AB
:100E50005D0B00006F0B0000750B00007B0B0000AA
:100E6000870B0000810B0000690B00008D0B000058
:100E7000630B0000930B0000990B00009F0B000018
:100E8000A50B0000AB0B0000B10B0000B70B00007E
:100E9000BD0B0000C30B0000C90B0000D50B000008
:100EA000E70B0000CF0B0000DB0B0000E10B0000A4
:100EB000ED0B0000350C00002F0C000000000000BE
:100EC00010B5054C237833B9044B13B1044800E046
:100ED00000BF0123237010BDB06900200000000096
:100EE000CC55000008B5034B1BB10349034800E093
:100EF00000BF08BD00000000B4690020CC55000010
:100F0000154B002B08BF134B9D46A3F5803A0021DB
:100F10008B460F461348144A121AFFF7CBFB0F4BB0
:100F2000002B00D098470E4B002B00D09847002094
:100F3000002104000D000D48002802D00C4800E0FC
:100F400000BFFFF7C9F92000290000F0F1F8FFF712
:100F5000AFF900BF000008000010002000000000F2
:100F60000000000040680020808800200000000091
:100F700000000000064A074B1B681068BFF34F8F44
:100F8000092B03D1431E5842584170470020704737
:100F90003401FF003001FF00574A08B5136843F0E1
:100FA00002031360554B564A1B681268BFF34F8FFC
:100FB000092B01BF4FF050230022C3F81421C3F8BE
:100FC0001821FFF7D7FF30B101234E4A1360A2F674
:100FD0003822C2F87835494B1A6804331B68BFF3CE
:100FE0004F8F092A05D1012B1EBF0122464BC3F8A2
:100FF0007825FFF7BFFF10B10E22444B1A603F4B1C
:101000003F4A1B681268BFF34F8F092B04D100229F
:101010003F4B1A6001225A600022D30003F57F0380
:10102000D3F80013BFF34F8F013108D0D3F800136A
:101030000132D3F80433B2F5807F0B60EDD1354B2C
:10104000DB69BFF34F8FD90745D5334B1946D3F82A
:101050000024012AFBD1C3F80425D1F80034012B68
:10106000FBD12C4BDA69BFF34F8FD2070AD5DA696F
:1010700022F00102DA61BFF34F8F274AD2F8003421
:10108000012BFBD1254B1B68BFF34F8F01330DD1D3
:10109000204A136A23F0FF0343F020031362BFF3D7
:1010A0004F8F1D4AD2F80034012BFBD100221A4B7E
:1010B000C3F80425D3F80024012AFBD1BFF34F8FD6
:1010C0001749184BCA6802F4E0621343CB60BFF3C0
:1010D0004F8F00BFFDE7114B1B68BFF34F8F0133EC
:1010E000B3D00F4AD2F88C3043F44063C2F88C304E
:1010F0000D4B0E4A1A6008BDD0ED00E03001FF0034
:101100003401FF00384A005000400050E4AE035064
:101110000C4700500080FF00009003502080FF002B
:1011200000ED00E00400FA05406700200090D003C5
:101130000248024903B400F003F80020A5EDF5FED3
:1011400008B5124B83F30A8801F032FD58B901F05B
:101150009DFE40B901F0A6FE28B901F0A5FE28B118
:1011600001F0A4FE20B100F08EFF07E001F0A0FE28
:1011700000F0DAFE00F0FCFE00F0D6FD00F0C0FE4C
:1011800000F0D3FE00F0CCFD002008BD00040020DC
:1011900038B5D1E9022305460C46D1E90001A8473C
:1011A000206038BD10B513460C461AB1084B1B68B9
:1011B000D3E90023214600F035FE00F0C1FD054BC8
:1011C0001B68834202D000F067FF206010BD00BFA3
:1011D000E8870020EC8700200020704740F20110D3
:1011E000704770B5054601F01BF90646284601F028
:1011F00019F8044608B9002070BD01463246284659
:1012000001F050F80028F6D123681869F4E70000CF
:10121000F0B589B006460F4601F002F905463046A2
:1012200001F000F8044630B91DB16FF0810009B03B
:10123000F0BD00F028FF2368DB689B0503D5002D77
:1012400045D100F020FF2A462146304601F02AF819
:1012500018B1002DE9D100F016FF3946204601F003
:101260000DF818B1002DE0D100F00DFF284601F077
:10127000ECF80646EFF3108572B60146204600F002
:101280005DFF074685F3108810B96FF08200CEE746
:1012900001F028F805460028F7D0384600F036FF60
:1012A0000023024621462846CDE90433CDE9023326
:1012B000CDE900634FF0FF3301F016F829462046D0
:1012C000044B9B68079309B0BDE8F04018476FF0E6
:1012D0008000ACE7285400002DE9F04F0D469FB088
:1012E0000A930646174601F09BF82B140446C5F3F3
:1012F00007295FFA85FA0B9316D520B16FF08000AD
:101300001FB0BDE8F08F00F0BEFEB9F1040F10D899
:10131000BAF1040F0DD802E0BAF1040F07D809EBB7
:101320000A03042B03D806E0B9F1040FF4D9002C0A
:10133000E4D100F0A8FE204601F087F87300099080
:1013400040F1A48016F0E00FF5B203D0002CD5D107
:1013500000F099FE804B53F82580B8F1000F01D1C1
:1013600000F091FED8F8003022464146986800F01F
:1013700099FF20B1002C40F0E98000F084FE404647
:10138000C6F3072100F07AFF18B1002CB6D100F0A7
:101390007AFEEFF3108672B64046099900F0CEFE51
:1013A000054686F3108820B9002C40F0D28000F06A
:1013B0006AFE002328462B6000F0A8FE064601F0D6
:1013C0003CF84FEAC90B079000900123224659468A
:1013D000384601F005F818B1002C8FD100F053FE0B
:1013E0004FEACA030893079B2246009308990223F9
:1013F0000A9800F0F5FF20B1002C7FF47FAF00F0D9
:1014000042FE202200210EA800F012FE2022002120
:1014100016A800F00DFE5A4639460EA800F0D2FD7F
:10142000089A0A9916A800F0CDFD0EAFBB445F459F
:101430004ED14FF0000B0FAF0BF1010BD94557D830
:10144000089B16AF3B449B465F456FD1284600F092
:1014500049FF054620B9002C7FF450AF00F013FE81
:101460000A9B4146CDE904A316ABCDE902930EAB2E
:101470000193099B2846009332460B9B00F034FFF2
:10148000364B294640469B68984739E7304600F07E
:101490004DFE0999054600F06FFE20B1002C7FF447
:1014A0002DAF00F0F0FD6B68012B04D1002C7FF410
:1014B00025AF00F0E8FD6B68022B3FF41FAFD5F8B5
:1014C0001480B8F1000F7FF47AAF00F0DCFD76E70E
:1014D000079B22460093D7E90001012300F080FF1B
:1014E00020B1002C7FF40AAF00F0CDFD08379EE755
:1014F00059463B1FD3F808C0DA6857F8040C624419
:1015000090420CD23A680244944508D2CDE90C319D
:10151000002C7FF4F3AE00F0B6FDDDE90C310131B3
:10152000894503F10803E5D8083785E7079B22467C
:101530000093D7E90001022300F052FF20B1002CF4
:101540007FF4DCAE00F09FFD08377DE76FF081008F
:10155000D6E66FF08200D3E6F08700202854000022
:101560002DE9F04389B0044600F05AFF0546002CEF
:101570003FD0630003D500283BD100F084FD28460E
:1015800000F063FF8046204600F0D0FD414607464C
:1015900000F0F2FD10B165BB00F075FDD7F81490B6
:1015A000B9F1000F01D100F06EFD384600F09AFE4F
:1015B000064608B900F067FD7B68012B02D1C5B96A
:1015C00000F061FD002349463046CDE90433CDE902
:1015D0000233CDE9008322466FF0010300F084FE60
:1015E00031464846044B9B68079309B0BDE8F04379
:1015F000184709B0BDE8F0832854000070B50546CF
:101600000E4600F033FE044608B900F03CFDA36B23
:101610001D4201D100F037FD002E09DA236C1D4276
:1016200006D1054BE563196804F11C0000F0E0FBEE
:10163000206C284070BD00BFEC87002073B50E46BB
:10164000054610B1431E034201D000F01CFD00F01E
:101650000DFE044608B900F016FD2368986800F0F6
:10166000DFFD0223009000223021304600F0B8FE5A
:1016700008B100F008FD236C0BB900F004FD236CE9
:101680001D4201D100F0FFFC2946204600F09FFDDD
:1016900058B1012300F1100140F8083C30223046D7
:1016A00000F090FC002002B070BD6FF08B00FAE7F4
:1016B00070B506460D4600F075FE044608B900F008
:1016C000E2FCA3681B68DB689B0501D500F0DBFC2E
:1016D0003046E56100F02AFD2A460146A068BDE8D3
:1016E000704000F071BD2DE9F3470E4690469946D3
:1016F00000F058FE044608B900F0C5FCA3685B681A
:101700001B68986800F08CFD23698246002B01DA83
:1017100000F0B9FC032E01D900F0B5FC04EB8607FC
:101720003D6ADDB10223002249464046CDF800A0C3
:1017300000F056FE08B100F0A6FC3D6A04EBC604BA
:101740004D4528BF4D4640462A46216C00F03AFCE4
:10175000236C2B4423643B6A5B1B3B62284602B02C
:10176000BDE8F08770B50E46154600F01BFE044636
:1017700008B900F088FC2369002B01DA00F083FC33
:10178000032E01D900F07FFC04EB8601086A58B1F2
:1017900085422A4628BF024604EBC604236C801A01
:1017A000134423640862104670BD2DE9F7430D46CB
:1017B00090461E4600F0F6FD044608B900F063FCB2
:1017C000A3685B681B68986800F02AFD236981465E
:1017D000002B01DA00F057FC032D01D900F053FC77
:1017E00004EBC5070C3554F825307A6E9B1AB342CA
:1017F00001D200F048FC0123002231464046CDF8DA
:10180000009000F0EDFD08B100F03DFCD7E91803B1
:1018100032464146184400F0D5FB7B6E33447B666C
:1018200003B0BDE8F08300002DE9F04180460C468E
:1018300000F0B8FD054608B900F025FCAF680FB907
:1018400000F021FC404600F071FC2B690646991C13
:1018500012D05A1C15D154B314F1820F05D1014690
:10186000384600F09DFC00231FE014F1830FFAD0EE
:1018700000F009FC0024F6E70146384600F090FC31
:10188000F8E7002BF4DB284600F064FE3B68DB68D9
:101890009B0503D53146384600F082FC14F1810FD8
:1018A000E1D1AB69002B04DA0223736003E0444604
:1018B000F4E700F0E8FBEFF3108672B6044B214624
:1018C0002846DB68984786F31088BDE8F08100BFA2
:1018D0002854000008B500F0BBFCBDE80840082112
:1018E00000F04ABE10B500F0C1FC044608B900F093
:1018F000CAFB236C1B0701D400F0C5FBEFF3108279
:1019000072B6236C23F00803236482F3108810BDA1
:1019100070B5064600F0AAFC044608B900F0B3FB17
:101920003146206800F043FE054608B900F0ABFBE5
:101930006B680BB100F0A7FB236C1E4201D100F0D5
:10194000A2FBEFF3108372B6206C20EA060020643D
:1019500083F31088E86801F061F9E868BDE8704039
:1019600001F036B901F0C0BA38B5054600F07EFC8A
:10197000044608B900F087FB2068294600F017FEEE
:10198000044608B900F07FFBE068BDE8384001F08C
:101990001FB938B5054600F069FC044608B900F0E7
:1019A00072FB2068294600F002FE044608B900F0E8
:1019B0006AFBE06801F01CF9012038BD70B50546EE
:1019C00000F054FC044608B900F05DFB294620688D
:1019D00000F0EDFD064608B900F055FB73680BB941
:1019E00000F051FB236C1D4201D100F04CFBEFF3E2
:1019F000108372B6206C20EA0500206483F31088FF
:101A000070BD08B50C3000F0F9F9002008BD0000E9
:101A1000F8B506460D4621B118B103680BB143680D
:101A20000BB900F030FBD6E900345E68EFF31087A5
:101A300072B6236B05F184025A60C5F884302346E0
:101A400043F8302FC5F88830E16B236C314243EA0C
:101A50000603236408D0194004F11C0000F0CEF9FD
:101A6000E36B23EA0603E36387F31088034B05F176
:101A70000C00196800F0BCF90020F8BDEC870020CC
:101A800038B5084D284600F0A5F92B6804465B6878
:101A900053E9080100F051FF08B100F0F4FA2046C4
:101AA00038BD00BFEC8700200022836B73B505684A
:101AB000194300F13003C0E90C33AB6841F0080171
:101AC00003746B6800F1200604468163C2614274AE
:101AD0004282466123B900F00BFF0246064B1E60AE
:101AE000AB6A296904F1100019440091E96800F01B
:101AF00047F902B070BD00BFE88700202DE9F04132
:101B0000164D06462B68046886B00BB900F0BBFA88
:101B10002B6862695B68D2F80480203B9C4210D13C
:101B2000EFF3098700220E4B716802A8CDE9008708
:101B300000F0BEFA02A800F0DFFA059806B0BDE892
:101B4000F08161685B681768994202D0206800F0F4
:101B5000F4FE2B6820345C60E4E700BFEC870020D3
:101B60007707000070B50E4D064628688A6B4068FE
:101B70000C4650F81C0C52F81C1C884203D052F83A
:101B8000200C00F0DAFEA36B2A6853605B6883F3D5
:101B90000B88E36A83F30988A06A266370BD00BFDF
:101BA000EC870020F8B501F00C040C2C14BF04469F
:101BB000144611F0400607460D4627D0A36913F8D6
:101BC000026C85F00803C3F3C003B3EBD61F01D04A
:101BD00000F059FA422E30D01BD8402E29D0412E89
:101BE0001ED04D48C71B082F01D900F04CFA132E08
:101BF00000F28F80DFE806F02733373C43484D5230
:101C0000575E646B7074777B7E81858900F03BFA48
:101C1000D7E7802EE5D12046BDE8F840FFF76EBF3C
:101C200000F024FC054601463B4800F02EFA284609
:101C3000F8BD204600F0A2F9F9E739462068BDE872
:101C4000F840FFF78FBFFFF7C9FA206000F078F87F
:101C5000324B1B688342EAD000F01EFAE7E72068A7
:101C6000FFF7BFFAF1E7D4E90001FFF7D1FAECE79B
:101C7000D4E90223D4E90001FFF72EFBE5E7206851
:101C8000FFF76EFC0020E0E7D4E90001FFF7B6FCA7
:101C9000DBE7D4E90001FFF7D1FCD6E7D4E9000186
:101CA000FFF706FDEEE7D4E90223D4E90001FFF7D0
:101CB0001AFDCAE72068D4E90112FFF753FDC4E713
:101CC000D4E90223D4E90001FFF76FFDDAE7D4E994
:101CD0000001FFF7A9FDD5E72068FFF7FBFDD1E77D
:101CE000FFF700FECEE72068FFF712FECAE7FFF716
:101CF00039FEC7E7FFF770FAA7E72068FFF734FE61
:101D0000C0E72068FFF745FE9FE72068FFF756FE13
:101D1000B8E76FF0830098E700080020EC87002008
:101D200041DF7047FEE7000008B500F0D5FD034B2A
:101D3000986000F0D7FD80F3888808BD00ED02E0D0
:101D4000044B186810B14378012B00D170478068AC
:101D5000F8E700BFCC690020C9B20129064B4170E9
:101D600005D11A682AB101781278914201D3034A49
:101D700010681860704700BFCC690020D06900204F
:101D8000F7B50D4612490446086816461F4618B1B5
:101D9000237802789A4211D3A0600C60204601217A
:101DA000FFF7DAFF089B3246CDE9007329466068E9
:101DB00025F0010300F07CF903B0F0BD0246806815
:101DC00010B101789942F9D3A0609460E6E700BFB2
:101DD000D069002038B50546FFF7B2FF044600F091
:101DE0005BF905B12C606068BDE8384000F084B94B
:101DF0000346084619600221FFF7AEBF38B5044616
:101E000000680D4660B14378022B09D10121FFF72C
:101E1000A3FF23682946586800F03BF9002323609C
:101E200038BD000070B572B61446EFF30B855FF055
:101E3000000C002A1FBF8CF30B886C46954683F379
:101E40000B880A4A0123136062B6FFF7A1F972B644
:101E50005FF0000C002C1EBF8CF30B88A54685F3A9
:101E60000B88024C0025256062B670BDD469002045
:101E7000402010EA0E0016D001B500F03BFBBDE893
:101E8000044088420FD0EFF30982EFF30B8322E97D
:101E9000F00F80E81C4091E81C40B2E8F00F82F39C
:101EA000098883F30B887047FEE70000EFF3088092
:101EB0007146EFF3098206B4FFF774FE864606BC4E
:101EC00000F0080001F00803C01A01DC0DDB7047C8
:101ED00006B42DE9F00F074C254626462746A046B6
:101EE000A146A246A34630B4704730BCBDE8F00F0F
:101EF00006BC7047A5EDF5FEFEE7FEE7FEE7FEE750
:101F0000084BDA6882F07F4282F47F0242F480421A
:101F1000DA6000221A765A76DA76DA77602283F867
:101F20002220704700ED00E07047EFF3148030F09E
:101F3000040080F31488BFF36F8F704704460122BA
:101F400094432046214622462346254626462746D8
:101F5000A046A146A246A346A446044708B50021D0
:101F60004FF0FF3003F0CEF90028F8D130BFF6E78C
:101F70000122014B1A607047D8690020F7B5D0E9FB
:101F80000167044600F072F9054608B900F07BF8D5
:101F90002B68986800F044F9022300900022304634
:101FA000B9B200F01DFA18B10323236003B0F0BDED
:101FB000034B1B68012BF7D100F0E8F9F4E700BFF1
:101FC000D86900200346F0B58AB343EA010515F04D
:101FD000010513D1012A23D941EA030414F00204B4
:101FE00012D11619032E15D86FF00304960804FBBE
:101FF000062203EB860301EB860116E011F8014B84
:10200000013A03F8014BDFE731F8024B023A23F8BB
:10201000024BDFE70E1B37681E1B3760043CE0E70E
:102020000024DEE76C5CEC5401359542FAD1F0BD3A
:102030000346F0B5CEB2C2B113F0030516D10F04BA
:1020400046EA016407F47F0709023C4389B2214351
:102050001446D718032C0DD86FF00301940801FB28
:10206000042203EB8403AA420AD1F0BD03F8016BFA
:10207000013AE0E7A7EB040CCCF80010043CE9E7D8
:10208000EE540135EFE700F02FBF083880F30888E1
:10209000084703681962704704484FF08051016097
:1020A000BFF34F8FBFF36F8F7047000004ED00E068
:1020B0002DE9F843099C1F460E4BA4F1080644E99C
:1020C0000233483C0546884691460021402220467E
:1020D000FFF7AEFF4FF0807346F8043C6FF0020349
:1020E00046E9037846F8209CEB60089BC5E900436D
:1020F000BDE8F883A5EDF5FE436883F30B8803681C
:10210000203383F30988C06870470000054A1368CC
:10211000013303F007031360034A0133801A03EB12
:10212000C00070476C740020DC69002018B1024BBD
:10213000013803EBD0007047DC69002070B505461C
:102140000C480E4600F086FB044688B1A022002110
:10215000FFF76EFF0023AA68C4E9013604F1980373
:1021600065615360C4F8982045F8083FC4F89C5056
:10217000204670BDDC69002038B504460D46014696
:10218000054800F080FB28B1A1680448A94208BFB7
:10219000002038BD0148FCE7DC6900200500008014
:1021A00038B50024CC60EFF3108572B60548D1E94C
:1021B000262353601A6000F05BFB85F310882046ED
:1021C00038BD00BFDC69002000200A607047426B08
:1021D000F0B500F13005AA4203461FD0EFF310849A
:1021E00072B6426B0020AA4204D11A6C22EA0101A5
:1021F000196408E052F87C7CA2F184063F687F688D
:102200008F4209D110B184F31088F0BDD2E90007E4
:1022100047605768386030465268E4E70020F4E7CA
:1022200001207047094B30B55C680146002220460A
:1022300040B10568AD688D4205D11AB10169586099
:102240001161046130BD02460069F1E7707400203D
:10225000054A0346506800B97047026852689A42BE
:10226000FAD0406CF7E700BFE0870020024B1B6804
:1022700058682038704700BFEC8700200368DA6890
:10228000186912F4806F064B04D1884234BF184697
:1022900000207047884214BF18460020704700BFD6
:1022A0000300008038B505462AB10B68DB68DB0502
:1022B0000DD5002038BDFFF7D9FF044608B9FFF758
:1022C000E2FE0022236899692C338A4201D1044836
:1022D000F0E753F8040FA842EBD00132F5E700BF56
:1022E000050000800C3070472DE9F0420446894615
:1022F00016460021302210301F46079DFFF798FE3A
:102300000023204AE36022601F4AC4F80890126844
:10231000291D52682761203A62600B9A04F1400738
:10232000C4F88020069AA26104F120020898834232
:1023300015D10025099B0A9904F1300004F16002CF
:1023400003EBC1018B4202F1080212D130466661F3
:10235000FFF7ECFE08B10368E361BDE8F08251F8D5
:10236000330042F8040B55F8330047F833000133CB
:10237000DCE75F6840F8047B53F8087B42E90275AC
:10238000E0E700BF43431515EC87002008B5FFF7D1
:102390006DFF18B103680BB1586808BD4FF0FF30EE
:1023A000FBE7000010B5FFF7C1FE044601460A48EE
:1023B00000F069FA68B1E268084B9A420AD1FFF767
:1023C000E5FF63695B681B685B68834202D104F1C7
:1023D0000C0010BD0020FCE7DC690020434315150C
:1023E00038B5049D144699B1A0B1CA43824201D2C6
:1023F000094838BD022B0CBF062202220DB942F05B
:1024000008020CB142F0200200F0A6FA0028EFD139
:102410000020EEE70148ECE70400008001000080A6
:1024200010B5FFF723FF044608B9FFF72CFE236819
:102430005868B0FA80F0400910BD08B5FFF716FFE4
:1024400008B9FFF720FE012008BD38B5054648B1A0
:1024500000F030FAB5EBD07F044601D0FFF713FE51
:10246000204638BDFFF792FFF4E700002DE9F7435F
:1024700000251023A0224FF42961194800F0C2F969
:10248000184E194B75605D6000F017FAB046DFF822
:102490006090164E404600F0A9F80446C8B107689F
:1024A000FB692BB180234A460F4900F007F9054626
:1024B0007B6A13B1204600F067F92068211D00F007
:1024C0001DFA08B1FFF7DFFD29462046336898471B
:1024D000E0E77368019303B0BDE8F043184700BF1D
:1024E000DC690020E0870020707400202854000080
:1024F000F08700202DE9F041FFF722FC134E144B2A
:1025000035681B686F68012B044639461BD0D0B173
:10251000103DA0F11008454515D0EFF309826B6A14
:102520002033934201D9FFF7AEFDD8F804106B6851
:102530008B4206D054F8100C00F0FFF908B1FFF7F9
:10254000A2FD616834603846BDE8F081EC87002068
:10255000D4690020002330B500F1300100F164049B
:1025600051F8042B22B1D0F88020E5581A44556068
:102570000833202BF4D130BD70B50D46044608B9A0
:10258000FFF781FDEFF3108672B6236CE16B2B43EE
:102590002942236408D0194004F11C00FFF72EFCE7
:1025A000E16B21EA0501E16386F3108870BD70B527
:1025B00091B14B1E0B400FD114220C26846900F1FF
:1025C000300505EB8405C46902FB0455046A06FB6B
:1025D0000454456A9D4201D1002070BD02FB0340B6
:1025E00006698E42F9D00133F4E70000F8B50546DC
:1025F00008B9FFF748FD2C4E346814F1290F50D864
:102600002A4B196804F128038B424AD2236AA26933
:1026100003EB43030C32606A1344E2690244E04373
:1026200002EB82021344B0EB830F4FEA830202D322
:10263000A318994201D2FFF726FD23681C4A1B0C00
:102640001B04934201D0FFF71EFD2388B3F5817F61
:1026500001D3FFF718FD6368002B01DAFFF713FDC4
:10266000144A176807F148031360134A126893422B
:1026700001D9FFF708FD236AA26903EB43030C327B
:10268000616A1344E2693C600A4402EB820213442B
:10269000326802EB830333606B687B646F6038469B
:1026A000F8BD0027FBE700BF446700203854000056
:1026B00000005F5F486700203C5400002DE9F04FA8
:1026C00085B0884691460746029300B109B9FFF7E5
:1026D000DAFC3E68B26906F1300303EB8203019332
:1026E000F569274BD3F800A095B1142000FB05A590
:1026F0001D60244B1B689D4201D9FFF7C4FC0025D7
:102700005446AB46F3695B4502D9BAF1000F03D1D9
:10271000284605B0BDE8F08F1422019B02FB0B3266
:1027200000232361B368C4E90027990544BF5368B7
:102730001D4304F10803C4E90233D3689A0516D592
:10274000B9F1000F02D0029A802A03D00393FFF759
:102750009AFC039B13F0E00FDAB202D159F8223051
:102760001BB10392FFF78FFC039A49F82240D8F877
:1027700004300BF1010B2361C8F804401434C1E7A5
:102780004C670020405400002DE9F047044608B98A
:10279000FFF779FC4FF0140925680026AA6905F1B6
:1027A000300303EB8208EB6940F2011A09FB038353
:1027B0004FF00C082A6A08FB023809FB06F16B6A25
:1027C00001EB0807B34201D8BDE8F087A36B3A6973
:1027D00020461343A36351F808303946984708B19F
:1027E000FFF751FC2B88B3F5807F04D1F86800F027
:1027F000EFF90136E1E75345FBD1F86800F0F8F94D
:10280000F7E70000F8B516461D460446F0B1EBB1F7
:1028100002F1080703FB07F210328A4216D10021A9
:10282000FFF706FC002204F10801C4E9021104F1DB
:102830001003A0680132954243601860A36059609C
:102840003B44F6D10020C4E90065F8BD0048FCE730
:102850000100008058B1C3680830834206D0D3E934
:10286000001203F108004A601160704700207047B1
:102870008268A1F10803536041F8082C40F8083F32
:1028800041F8040C7047024652F8103B40689142F0
:102890000ED3083300FB0320814209D20839891A7C
:1028A000B1FBF3F003FB1011B1FA81F0400970475E
:1028B000002070474FF0FF307047704708B500F0B8
:1028C00091FB0822034BC3F88021BDE80840FFF7C5
:1028D00029BA00BF00E100E0014B1868704700BF53
:1028E00044540000014B1B681868704744540000B2
:1028F000014B1B685868704744540000F0B510B98C
:1029000043F6DA30F0BD0029FAD0012300220C256D
:102910001426046A0B60A24201D10020F2E705FBF5
:1029200002F1D0E9067301EB870106FB03130344B0
:102930009B6B1B07E4D40132EDE7EFF3148311F036
:102940000F0F0CBF0122002262F3000383F31488EF
:10295000BFF36F8F002070472DE9F04112F0200582
:1029600007460E4609D0EFF39483DD074FF01205BA
:102970004CBF42F0080222F00802140702F00603DE
:1029800048BF45F00405062B3FD145F001052A4616
:1029900031463846FDF71AFE002814BF01200020FA
:1029A0002CD147E800F13E440C0E06F1FF38090235
:1029B00048E800F34FEA136262F31F631ED51B025F
:1029C0001CD5A2421AD047E800F448E800F800F00D
:1029D0007AFB240E84424FEA186832D300F075FB6C
:1029E00080452ED8204600F069FB2A46C7F1010138
:1029F00001443846FDF7EAFDA8B90020002814BFBD
:102A000000206FF07F00BDE8F08190073DD545F0D4
:102A10000805BCE7204600F04FFB074600F057FBD7
:102A20002A460146E5E701344445F3D3404600F029
:102A300043FB2A46311AFDF7C9FD003818BF0120B3
:102A4000DCE700F053FB8442D7D300F051FB804514
:102A5000D3D8204600F044FB2A46C7F101010144C7
:102A60003846FDF7B3FD0028C7D00134A04503D890
:102A7000404600F02FFBDCE7204600F02BFB07462A
:102A800000F038FB2A460146EAE74CF2DA20BAE7C2
:102A90002DE9F0413B4C86B03B4800F08BFA2368AF
:102AA00001255A1C0193394B2260DA681B694FF4E7
:102AB000407803930023344801A902920495ADF8AD
:102AC00014808DF8163000F039FA20B143F6DA3070
:102AD00006B0BDE8F08123688DF816005A1C0193FA
:102AE0002B4B294802932B4B01A9CDE903352260DA
:102AF000ADF8148000F022FA0028E7D1022740F256
:102B0000011623688DF816005A1C0193224B1E48AB
:102B10000293224B01A9226003930497ADF814603D
:102B200000F00CFA0028D1D123688DF816005A1C49
:102B300001931B4B144802931A4B01A9CDE90335AD
:102B40002260ADF8148000F0F9F90028BED12368A6
:102B50008DF816005A1C0193134B0B480293134B2C
:102B600001A92260CDE90337ADF8146000F0E6F961
:102B700004460028AAD12A462946034800F0C6F98F
:102B80002046A5E7787400205067002044540000D8
:102B9000A0020000800700000008002000100020B4
:102BA000C00E0000C00E00000020002020200020E9
:102BB00008B500F081F800F08BF828B900F0A2F811
:102BC00010B9FFF765FF08B143F6DA3008BD000021
:102BD00043B2002B08DB012200F01F0002FA00F0D4
:102BE000024A5B0942F823000020704700E100E040
:102BF00043B2002B0DDB012200F01F0002FA00F0AF
:102C00005B09054A203342F82300BFF34F8FBFF31F
:102C10006F8F0020704700BF00E100E043B2002B3F
:102C200009DB012200F01F0002FA00F05B09034AF1
:102C3000603342F823000020704700BF00E100E04D
:102C40000020034BD8765A6A42F470225A627047C9
:102C500000ED00E00349044BCA68002092B2134320
:102C6000CB60704700ED00E00800FA0500207047D7
:102C700000224FF0FF30094B02F1A0010132102A6F
:102C800043F82100F8D1D3F88022002022F0080276
:102C9000C3F88022D3F88032704700BF00E100E023
:102CA00008B500F097F90822024BC3F880211A609A
:102CB000002008BD00E100E0044B1A6822F0010288
:102CC0001A601A6842F002021A607047D0ED00E004
:102CD00010B5094C00F098F9D4E9010100F0ACF905
:102CE0000649074800F0BAF92169E068013900F0A7
:102CF000CBF9002010BD00BF44540000FFFF0320AB
:102D00000000012010B50021444800F0F7F900212F
:102D10004FF0502000F0F2F90021414800F0EEF9A8
:102D20000021404800F0EAF900213F4800F0E6F9B0
:102D300000213E4800F0E2F900213D4800F0DEF9B4
:102D400000213C4800F0DAF900213B4800F0D6F9B8
:102D500000213A4800F0D2F90021394800F0CEF9BC
:102D60000021384800F0CAF90021374800F0C6F9C0
:102D70000021364800F0C2F90021354800F0BEF9C4
:102D80000021344800F0BAF90021334800F0B6F9C8
:102D90000021324800F0B2F90021314800F0AEF9CC
:102DA0000021304800F0AAF92F4C00212F4800F0F4
:102DB000A5F900212E4800F0A1F92046002100F0DD
:102DC0009DF92046002100F099F90021294800F0E2
:102DD00095F90021284800F091F904F5B03400215C
:102DE000264800F08BF92046002100F087F90021E9
:102DF000234800F083F90021224800F07FF90122E6
:102E00000020214BC3F88004C3F88424C3F8C00415
:102E1000C3F8C424C4F8402510BD00BF00400050D2
:102E2000008000500090005000A0005000B0005002
:102E300000E0005000F00050000001500010015070
:102E400000400150005001500070015000800150BE
:102E500000B0015000C0015000D0015000E001500E
:102E600000F00150000002500030025000100250EB
:102E700000200250006002500080025000A002506A
:102E800000A00350002584500030005008B500F029
:102E900045F930B900F096FB45F22353002818BFDE
:102EA000184608BD0020704700207047002070477A
:102EB00070470000BFF34F8F0549064BCA6802F404
:102EC000E0621343CB60BFF34F8F00BFFDE700BF4D
:102ED00000ED00E00400FA050346084611460BB970
:102EE00000F030B903207047BFF34F8F0549064B00
:102EF000CA6802F4E0621343CB60BFF34F8F00BF98
:102F0000FDE700BF00ED00E00400FA05002918BF4E
:102F10000421002A18BF02220368074811431863DE
:102F200059605A6842F001025A60BFF34F8FBFF3F5
:102F30006F8F0020704700BF04AAFF004A68034655
:102F400012F01F0070B529D10E680F2E26D81C680C
:102F500022F01F0265686060A6600B7C03F001032D
:102F600013438A7CD20002F018021A434B7C5B00A8
:102F700003F006031343E3608B68013B23F01F0259
:102F8000CB685B0003F00E03134343F0010323619E
:102F90006560BFF34F8FBFF36F8F70BD0120FCE7FB
:102FA000036800205A68C9B258609960D8601861F7
:102FB0005A60704738B5054603681C68C4F3072497
:102FC0000CB9204638BD013C21462846FFF7E8FFF2
:102FD000F6E700000722024BC3F80423704700BF46
:102FE000003000500023054A13601268044A136041
:102FF0001268044A13601368704700BF0031005024
:1030000004310050083100500A4A10B5002317243B
:10301000114603F5C0700133202B42F82040F8D14F
:103020000023172003F5E0720133202B41F8220022
:10303000F8D110BD0030005010B540F20714064A18
:10304000C00BC90B884200D910BDC3B203F5C073D1
:1030500042F823400130F5E70030005010B540F24F
:10306000071400F1604001F16041064A400B490B32
:10307000884200D910BDC3B203F5E07342F8234083
:103080000130F5E700300050C0F30E03C3F50043F4
:10309000B3FA83F3C3F11B03064AC0F3C730DBB2B4
:1030A00040F4807043F48073C2F80005C2F8043520
:1030B000704700BF00300050C0037047C00300F5E8
:1030C000FF407F307047002070471F2070474FF44B
:1030D0000040704700F57F40C0304003704700005B
:1030E0004303014818447047FF1FF81F40207047F2
:1030F0005F2070474FF4005070470000002914BF54
:103100004FF480720022044BC0F3073000F50070CA
:1031100043F82020704700BF0030005008B5FFF78B
:103120008FFD60B9FFF796FD48B9FFF79FFD30B9F5
:1031300062B6FFF79DFD10B9FFF7B2FD08B143F687
:10314000DA3008BD38B543680C2B01D0022038BDF9
:103150004B68042BFAD14FF0FF3304680D682068E8
:103160002B600028F2D0A1680029EFD02622FFF7BB
:10317000F3FB0028EAD161680B4B99420AD9A26897
:103180002D338818984208D82068FDF7BEFA002031
:103190002860DCE7054B9942D8D9A268044B88180F
:1031A0009842D3D8F0E700BFFF01FF002F01FF00D6
:1031B0003801FF0001680E4A0346914215D1C169EA
:1031C000A2F11022A2F1EF1291420ED18268012ADF
:1031D0000BD8C26812B101698A4206D0586928B179
:1031E0009B691B1A5842584170470120704700BF25
:1031F00055AA00FF0D4B70B59E68A6B13046FFF78B
:10320000D9FF044678B9F3686BB935690DB9204622
:1032100070BD2846FFF7CEFF28B9EB68B34202D154
:103220002E462D69F2E70124F1E700BF7C740020EF
:103230002DE9F041394D2C68D4B1AC68C4B10028F7
:1032400061D000295FD001FB00F6B6FBF0F08842A8
:1032500059D1311D57D8B2070DD026F003020432E0
:10326000EC6803E0616891424FD2A469002CF9D167
:103270002046BDE8F0813246F2E7891A232904F19D
:103280002007D4E9050C1AD80123A360A0B1C0F827
:1032900018C0A36903B158610023C4E905332B6941
:1032A000DB0702D5FFF7A6FFA0BB32460021384658
:1032B0003C46FDF7FFF9DBE7C5F80CC0E9E702F192
:1032C000200804EB08032039C3E9011E2169DFF857
:1032D00050E0DC60196144F808E0AEF1102EAEF168
:1032E000EF1EC3F81CE001B1CB60C3E9050C40B18F
:1032F0008361996901B14B6101212361C4E9012115
:10330000CAE7EB60F5E70024B2E7D4F808E0BEF1C5
:10331000000FB2D00120FCF7CBFF00BF7C7400206F
:1033200055AA00FFF8B5054600285DD0394E336830
:10333000002B59D0B268002A56D0834203D8726855
:103340001344984202D30120FCF7B2FFA0F12004FD
:103350002046FFF72FFF0028F5D155F8183C012B28
:10336000F1D155F8147C45F8180CB7B1BB68002BA7
:103370003BD155F81C3C03F120027B6813447B6071
:1033800055F8103C3B6103B1DF602046202200214C
:10339000FDF790F923463C461F462069002830D0AF
:1033A0008368002B2DD16368426820331344636027
:1033B0000369D4E905212361CAB9F1B94269816978
:1033C0006261A161DAB19461A26902B1546103B191
:1033D000DC6020220021FDF76DF933699B0703D5DE
:1033E000FFF708FF0028AED1F8BD0746D5E7916189
:1033F000A1690029E2D04A61E0E7F160F8E7F460F2
:10340000E2E7002FE9D1F368A36103B15C61F460E6
:10341000E3E700BF7C74002038B50D46142200217C
:1034200004461248FDF746F91149124801F02CFFF5
:10343000232D1AD914F003031FBF043DED18C3F167
:103440000403E4182A4600212046FDF733F9074B10
:10345000094AC3E900459C602260A2F11022203D88
:10346000A2F1EF126560E261DC6038BD7C7400207F
:10347000253300003132000055AA00FF10B5044684
:10348000406A10B1A16A00F01FF9606A01F0F6FE0F
:103490000020C4E9090010BD38B50446FFF7EEFF6F
:1034A000236A2C22012B0CBF05466FF096050021E4
:1034B0002046FDF7FFF8284638BD000037B5054621
:1034C0000B480C46037ADB070ED500230A4601930E
:1034D000294601AB00F066F820B9019BA34218BF52
:1034E0006FF0930003B030BD6FF08800FAE700BFC3
:1034F0009074002008B500F03DF80748037A13F0F7
:10350000060F03D008220021FDF7D4F8BDE80840DB
:103510000C21014800F0D8B89074002038B50E4C4A
:10352000217A11F0010112D108222046FDF7C2F8DC
:103530000222237A62F34203237200F00FF8054659
:1035400038B9237A43F001032372284638BD002599
:10355000FBE7FFF7CFFFF8E790740020044A002054
:1035600092F8803543F0010382F88035704700BF40
:103570009C740020F8B50A4C0025264601272046F9
:1035800001352762FFF788FF202D04F12C04F6D1C6
:1035900096F880356FF3000386F88035F8BD00BFDC
:1035A0009C74002038B5002014461D4600F05EF8DB
:1035B00028B92B68A34218BF6FF0930038BD6FF095
:1035C0009200FBE710B50C4C236813B10B4B1B6842
:1035D0002BB900F089FC30B90122084B1A60012395
:1035E0000020236010BD0138062801D9044810BD11
:1035F000044B53F8200010BD207A0020247A0020CC
:10360000FE8FFFFF585400002DE9F043144C154F76
:10361000002818BF0446236883B0BB421CD016465E
:103620000D4620464FF4147104F1040900F04CF8E3
:1036300004F58E78484600F045FB404600F0D2F88D
:103640002B464A4640460849009600F0EDF900B97D
:10365000276003B0BDE8F083002003B0BDE8F0832D
:10366000287A0020A5BCC95A413D000070B50E4D16
:1036700082B0002814BF8446AC461D46DCF800002A
:103680000A4B98420DD100260CF58E7033460096F9
:10369000144600F0F3F9002818BF34462C6002B03D
:1036A00070BD0348FBE700BF287A0020A5BCC95ABB
:1036B000E88FFFFF38B131B10022014403460130E9
:1036C00081421A70FAD1704738B131B100220144F9
:1036D0000346013088421A70FAD1704770B590B035
:1036E00000287AD03E4C0D46402236210646204620
:1036F000FCF7E0FF40225C21A018FCF7DBFF2B1D4C
:103700009C4203D204F144039D4252D32B682268A9
:10371000534023602B68226C534023646B686268BB
:10372000534063606B68626C53406364AB68A2682B
:103730005340A360AB68A26C5340A364EB68E2689B
:103740005340E360EB68E26C5340E3642B69226909
:1037500053402361226D2B695340236562696B6975
:10376000534063616B69626D53406365AB69A269E5
:103770005340A361AB69A26D5340A365EB69E26955
:103780005340E361EB69E26D5340E365002130464D
:1037900001F0E2F8044628B940223046104901F011
:1037A000EFF8044640216846FFF78EFF204610B030
:1037B00070BD631E04F13F01013D1F3415F8010F78
:1037C00013F8012F42401A7011F8012F2878A342F4
:1037D00082EA00020A70F1D1D8E76FF07304E5E7DE
:1037E000787C002010B54FF49A7200210446FCF753
:1037F00061FF42F21072044BC4F8202104F5967068
:103800001B68BDE810401847686700202DE9F04F9D
:1038100004468946924695B0002900F0A780002A08
:1038200014BF0227012700238DF80C30002C00F074
:103830009F80DFF8448104AE08F1400B0021204650
:1038400001F08AF8034648B1304620210193FFF782
:103850003BFF019B184615B0BDE8F08F4022414662
:10386000204601F08DF803460028EDD104F1F4055F
:1038700020222946204601F083F803460028E3D1A0
:103880000122204603A901F07BF803460028DBD182
:10389000022F62D020460CA901F09CF803460028B4
:1038A000D2D11946204601F057F803460028CBD163
:1038B00040225946204601F063F803460028C3D150
:1038C000202220460CA901F05BF803460028BBD15A
:1038D0003146204601F07EF803460028B4D1314637
:1038E0002046FFF7FBFE03460028ADD120222946E3
:1038F000204601F045F803460028A5D120460CA932
:1039000001F068F8034600289ED10146204601F0E8
:1039100023F80346002897D140225946204601F05B
:103920002FF8034600288FD1202220460CA901F051
:1039300027F80346002887D12946204601F04AF897
:103940000346002880D19DF80C200132D2B2BA4241
:103950008DF80C20FFF472AF76E7524649462046B8
:1039600001F00EF80346002894D06DE701275AE7CE
:103970006FF0730304AE67E7787C00202DE9F04117
:1039800004460F4615469846D0F81801E0B013B12A
:1039900000EB40004008B5F5807F3ED82844B0F5E4
:1039A000C07F3AD84FF4C07200216846FCF782FE0F
:1039B0006946D4F82431D4F81821D4F8280198475E
:1039C00070BBD4F81861B8F1000F0AD0D4E94930BF
:1039D00072080DEB0601984710BBD4F8183106EBBE
:1039E000530607B18DB9324669462046FFF70EFFF0
:1039F000054610B90123C4F8143131466846FFF773
:103A000063FE284660B0BDE8F0810DEB0600394644
:103A10002A462E44FCF779FEE5E76FF00405F0E74F
:103A20006FF00805EDE700BF2DE9F047044604F10B
:103A3000F4050F4691461E46DDF8208000F072FF27
:103A400029462046FFF74AFE08B1BDE8F087284620
:103A500020220121FCF72EFED4F81831C4F824717D
:103A6000C4F8289113B92023C4F8183142463146CE
:103A70002046BDE8F0470123FFF780BFB2F5806F15
:103A800000F295802DE9F04F89B09A46129BB3F56C
:103A9000807F00F29080D0F8243116460446884694
:103AA0004BB3D0F81C31012B05D0D0F81421D0F83D
:103AB00020319A421FDD514600232046129AFFF71B
:103AC0005DFF014698B900231293002E5ED0DFF807
:103AD000EC9009F1400B0021204600F03DFF202E24
:103AE0003546014628BF202504F1F40790B1084669
:103AF00009B0BDE8F08FBAF1000FE6D0129B002BA1
:103B0000E1D051461A462046FFF780FE01460028C4
:103B1000DBD0ECE749464022204600F031FF014669
:103B20000028E4D139462022204600F029FF014632
:103B30000028DCD16946204600F04CFF01460028F1
:103B4000D5D1204600F008FF01460028CFD15946C4
:103B50004022204600F014FF01460028C7D16946E4
:103B60002022204600F00CFF01460028BFD1394634
:103B7000204600F02FFF01460028B8D140462A46D3
:103B80003946FCF7C2FD761BA844A4D15146204615
:103B9000129AFFF73BFE01460028A8D10846D4F848
:103BA00014310133C4F8143109B0BDE8F08F6FF05F
:103BB0000201084670476FF0040198E7787C002006
:103BC0002DE9F043202B1D460646884691468BB0D2
:103BD00026D8DBB202AF31688DF804808DF805304D
:103BE00006F1040821B9404600F0B6FE044640B98B
:103BF000012302224046336001A900F0C1FE0446C1
:103C000038B138462021FFF75FFD20460BB0BDE8F4
:103C1000F0832A464946404600F0B2FE0446F0E7EB
:103C200002AF1946104600233A4601F03BF804461D
:103C30000028E6D12023B9461D46CCE72DE9F04106
:103C4000D0F8F830A6B0002BD8BF02AE31DD054663
:103C50000027D0F80C4102AEA4F101089022D5F85B
:103C6000FC403146D0F8000101AB0197B8FA88F862
:103C7000A0474FEA5818044620B9019B53B9B8F140
:103C8000000F16D030469021FFF71EFD204626B0CB
:103C9000BDE8F081014632462846FFF791FF58B94A
:103CA000D5F80431019A1344C5F80431B8F1000F76
:103CB000E8D16FF03C04E5E70446204626B0BDE8B5
:103CC000F08100BF70B50025044614222946C0F8D3
:103CD000F850FC30FCF7EEFC154B04F588761B68B9
:103CE00030469847204640F8045B00F01BFE114B1D
:103CF00030461B689847C8B9D4F8F830AB420FDC9F
:103D000003EB830204EB82022021C2F800010120B0
:103D1000C2E9421008490133C2F8FC10C4F8F83077
:103D2000064B3046BDE870401B68184770BD00BFA9
:103D3000686700206C670020214800007067002041
:103D40002DE9F047202A88B078D83E4B00F58879D5
:103D500004461B684846174688469847054640BBB8
:103D600040F20116D4F8F830002B63D02046FFF75C
:103D700065FF054600285FD1D4F8F830002B07DD39
:103D8000D4E94102904203D3D4F80C21012A14D083
:103D9000013EE9D16FF03B056E4620213046FFF72A
:103DA00093FC294B48461B689847002818BF6FF0C2
:103DB0001D05284608B0BDE8F0871F28E8D96E46E3
:103DC00029462022304604F1040AFCF773FC3146F0
:103DD000504600F0FFFD05460028DED1504600F0B9
:103DE000B5FD504600F09EFD2946504600F0B4FD5A
:103DF00005460028D1D150462022314600F0C0FDB2
:103E000005460028C9D1034632462021304600F03D
:103E100049FF05460028C0D1D4F8F8303A46002BB7
:103E2000C8BF002340463146C8BFC4F80431FCF780
:103E30006CFCB2E76FF03F056E46AEE76FF03B05F6
:103E4000B7E700BF6C67002070670020002130B525
:103E50008DB0282202A80191FCF72CFC02A800F0EA
:103E600049FF044610B120460DB030BD184D4FF04B
:103E7000FF31286800F038F90446C0B9002000F08E
:103E800063F900BB134A02A901A800F0BBFC044679
:103E9000012000F059F990B9286800F02DF90028A8
:103EA000E1D00D4800F0B8F920460DB030BD0B4808
:103EB00000F0B2F9012C08BF0524EDD0DEE7084878
:103EC00000F0AAF9E8E7074800F0A6F9DAE700BF32
:103ED00064670020607D0020CC5400007454000012
:103EE000AC5400008C54000010B582B000F050F8C3
:103EF00028B100F09FF80324204602B010BD00F066
:103F00006BF8D8B900F020F9E0B91E4CD4F8283984
:103F10001B0EF02B0AD1D4F8242A1B4B9A4229D02D
:103F200000F038F8072400F085F8E5E7062400F0F3
:103F300031F800F07FF8204602B010BD042420467E
:103F400002B010BD00F026F800F074F8FFF77EFF15
:103F5000044658B902460146FFF756FB30B96822BD
:103F60000A4901ABFFF782FB0028C5D00524204693
:103F700002B010BD012000F0E7F80028E2D1C4F83B
:103F80000C0AE3E7001084500000E020F87C0020D9
:103F90000020704700207047430504D54FF0FF32E2
:103FA000034BC3F80821024BC3F8080A704700BF4F
:103FB00000108450014BC3F8040A7047001084506D
:103FC00008B100F06BB84FF47500704708B100F00D
:103FD0004FB84FF47500704710B5114800F070F8F5
:103FE00000B110BD0F4800F06BF80028F9D10E4C5D
:103FF000204600F065F80028F3D10C4B0C481C60FB
:1040000000F05EF801460028EBD100F02DF80446E0
:1040100008B1204610BD00F079F82046FAE700BF4D
:1040200060670020546700205C6700206467002000
:104030005867002008B5084800F04CF8074800F021
:1040400049F8074800F046F8064800F043F8BDE894
:10405000084000F00BB800BF6067002054670020E4
:104060005C6700205867002000207047704700BF41
:10407000024610B4084CD4F8003A1342FBD021B1E8
:10408000D4F804310B60C4F80831034B0020C3F8A6
:10409000082A10BC704700BF00108450044AD2F8B0
:1040A000003A1842FBD0C2F8080A0020704700BF4F
:1040B00000108450FCF73CB90A460021FCF7FABA1C
:1040C00008B5034B02681B6810689847002008BDBC
:1040D0008467002008B5034B02685B681068984746
:1040E000002008BD84670020024B02689B681068AE
:1040F000184700BF8467002008B5034B0268DB68DF
:1041000010689847002008BD8467002070B5094CEE
:10411000094D2069AB68984718B1084B08485B689F
:1041200098470021074AEB6811602069BDE870409C
:10413000184700BF94670020846700207467002040
:10414000E4540000807F002070B51B4D1B4E0446D8
:10415000B26828699047F8B95CB1194C2368B3B1CB
:10416000012B1BD0013B23602869F368984700208E
:1041700070BD134C216841B90122124BC3F80025D0
:10418000114AD2F81039002BFBD101312160F368BC
:1041900028699847002070BD0C4870BD0A4AD2F8C3
:1041A0001039002BFBD1074A6FF07E40C2F8003572
:1041B000FFF700FF2368D5E794670020846700209D
:1041C000807F00200000845000108450E98FFFFFA2
:1041D000014B1B68184700BF84670020014B9B6898
:1041E000184700BF84670020014BDB68184700BFF9
:1041F00084670020BFF34F8F0549064BCA6802F45D
:10420000E0621343CB60BFF34F8F00BFFDE700BFF9
:1042100000ED00E00400FA0530B44FF0FE32002556
:10422000074B084C08494968C3F80024C3F8042424
:10423000C3F80824C3F80C24C4F8005530BC084760
:1042400000108450000084507467002010B50446AC
:1042500030B16368DB0602D500232360636010BDC4
:10426000024B03485B689847F3E700BF7467002080
:1042700004550000B0B1436893B1DB060ED50123AD
:1042800050E8002F194640E8001C9CF0000FF7D1C1
:10429000012AF5D0BFF35F8F0020704703487047B5
:1042A000034870476FF4E040704700BFE98FFFFF9D
:1042B000EA8FFFFF034668B142683AB1D20607D5DC
:1042C000BFF35F8F002210461A60704703487047A3
:1042D000034870476FF4E040704700BFEA8FFFFF6C
:1042E000E98FFFFF10B5044620B1002211232260A0
:1042F000636010BD0148FFF78FFFF6E72C55000003
:10430000002800F084802DE9F0430C4683B000299A
:1043100078D01D46002B75D007461AB10122002324
:104320002A6003602B68002B67D02946204600F0E6
:10433000D7FD0346002861D12146286800F0B2FD70
:10434000034600285AD12A68082A72D0042A73D05A
:10435000A2F10208B8FA88F84FEA58180120384E3E
:10436000C6F8C401C6F84001C6F8C401626AC6F8BE
:104370003021D6F830118A42F6D14FF0000901936E
:104380004FF0FF30C6F82C91FFF706FE6FF01B02CE
:104390004846C6F80021FFF70DFEC6F80C81D6F896
:1043A000040A40F48060FFF705FE0A22C6F83821AF
:1043B0000A9B012B019B2DD022692249A1FB0212ED
:1043C0001209616A184601FB02F202EB42021C4923
:1043D000D2039209C1F8D8210122C1F82C213A68F0
:1043E000296822F07F4242EA01623A60296842EA83
:1043F00001223A6003B0BDE8F083134B184603B0C6
:10440000BDE8F083114B184603B0BDE8F0830F4BB5
:10441000184670474FF47F02D2F80C1C013106D0C9
:10442000D2F80C2C0749A1FB02121209C9E7162287
:10443000C7E74FF0030891E74FF002088EE700BF8F
:1044400000108450ABAAAAAA310CF100350CF1007F
:1044500070B50024C9004FF0010C2546A6464E1E3B
:1044600008E09E4514D00125B44516D89E46013477
:104470000CF1010C630950F8233004F01F01CB400C
:104480001F2918BF03F00103002CEAD10125EDE735
:1044900001359542E8D1024870BD002070BD00BFD3
:1044A000360CF10000283FD02DE9F0414C1EB4F548
:1044B000047F28D23BB332B34FF0000E76467546E8
:1044C0007446CF0003F1FF38610950F8211004F061
:1044D0001F0C21FA0CF1BCF11F0F18BF01F00101F4
:1044E000A4B1AB4218D08E4208BF0EF1010EA84510
:1044F00015D0314601350134BC4201D00E46E3E708
:104500000020BDE8F0810948BDE8F0814FF0010EC0
:104510000E4674467546D7E70125AE46EBE7724571
:10452000F1D331461D46E6E700487047370CF100ED
:104530002DE9F04F91B08346DDE91B460D46002E74
:104540004DD1096906911C6000231A990B60002A5D
:1045500000F025819E4B6A6AD3F83811D3F83031C8
:104560009A4248D10A2946D19BF80330089304F1B6
:10457000080307930423069A0593964B944CA3FBD8
:1045800002139B0803EB4303A2EB430303931A9B21
:10459000069E1E60002E34D04FF000084FF0010A36
:1045A000DDF81C9000F0ACFC00230993BBF1000F78
:1045B00000F0DF80002D00F0DC80089BEBB1284686
:1045C00008A900F08DFC00283ED0834B984218D1FA
:1045D000039000F095FC039811B0BDE8F08F4FF404
:1045E0007F01D1F80C0C01300CBF4FF40471D1F8ED
:1045F0000C1C0691A7E77948EAE77948764B984280
:10460000E6D0089B082B00F0C88000225B000893CE
:10461000294608AB58460092FFF772FE704B98424D
:1046200000F0B7800028D3D1DBF80020130A03F490
:104630007F03134323F07F43CBF80030059B013BFE
:104640000593A4D10020C3E72946089800F02AFC6E
:104650000028BAD1089B082B00F09580042B00F0AD
:104660009580A3F10203B3FA83F35B090493C4F8C2
:10467000C4A1C4F840A1C4F8C4A16B6AC4F8303125
:10468000D4F830219342F6D100234FF0FF30C4F824
:104690002C31FFF781FC002318466FF01B03C4F890
:1046A0000031FFF787FC049B4A4FC4F80C31D4F863
:1046B000040A40F48060FFF77DFC0A23C4F8383117
:1046C0002B6909A8A7FB03236A6A1B0902FB03F3F2
:1046D00003EB4303DB039B09C4F8D831C4F82CA1D6
:1046E0000899DBF800200B0222F07F4243EA0163C5
:1046F0001343CBF8003000F0C5FB099B03F01A030D
:1047000003437FF47EAFA7FB0637D4F81431B8EB30
:10471000970F0A93D4F818310B93D4F81C310C93EB
:10472000D4F820310D93D4F824310E93D4F82831E5
:104730000F9301D1039BF3B9484618220AA9183EEA
:1047400009F11809FFF7B6FC08F10108002E7FF403
:1047500029AF069BB3F5047F36D8079E194630462D
:104760006A691F46FFF774FE20B300231A9A13608C
:104770002BE71C4829E748461A460AA9F61A994425
:10478000FFF798FCE0E70323049370E70223049308
:104790006DE72B6A002B3FF41BAF134818E701228B
:1047A00029465846009608ABFFF7AAFD00283FF4BB
:1047B000DEAE0DE74FF4806339463046AA69FFF755
:1047C00071FE0028D1D13DE71A9B1E6019E700BF9A
:1047D00000108450ABAAAAAA020CF100300CF10020
:1047E000310CF100350CF100320CF10010B4DDE9B0
:1047F000013401940024DDF80CC0CDE902C410BCE2
:10480000FFF796BE30B51546012487B005AB00937F
:104810000022CDE9015404ABFFF78AFE07B030BD9A
:104820002DE9F04188B00592002968D01C46002B84
:1048300065D01546002A62D0DFF8C8800E46D8F849
:1048400000004FF0FF31FFF74FFC00284CD1002053
:10485000FFF77AFC002843D12B4800F04BFAE8B16F
:1048600001204FF0FF37FFF76FFC002834D14FF4E1
:1048700008712648FEF71EFF04212548FEF71AFF9F
:1048800021482821FEF716FFD8F80000FFF734FC76
:1048900000282DD1384608B0BDE8F0811B4B0246F8
:1048A000029307AB0390009317491948019405AB95
:1048B000FFF79CFF0028D3D12368AB42D0D30799E0
:1048C00007462A4630460831FFF7F4FB01202560F1
:1048D000FFF73AFC0028CAD00E48FFF79DFCC6E758
:1048E0000D48FFF799FCB7E70C48FFF795FCAEE7DA
:1048F0000B48FFF791FC384608B0BDE8F0814FF057
:10490000FF37C7E764670020B8810020987F002048
:10491000947F0020AC5400008C54000074540000BC
:104920005055000010B5044628B12046BDE810409F
:10493000F421FFF7C1BB0448FFF76EFC2046BDE839
:104940001040F421FFF7B8BB6855000010B1F42106
:10495000FEF7B0BE704700BF08B561B1012907D1AD
:10496000022100F05BF8002818BF6FF0360008BD88
:104970006FF0360008BD012100F050F8F3E700BFEA
:1049800030B505468818B0F5801F0B461446A1B017
:1049900001D8802A0CD9B3F5801F17D922461946B1
:1049A000284600F07DF8044684B9204621B030BD89
:1049B0006846FFF77FFB22466946284600F070F8FC
:1049C000802104466846FFF777FBEDE76FF0360479
:1049D000EBE700BF70B5E8B10E46D9B1044600F070
:1049E00031F80546B0B92368012B0BD0022B01D05A
:1049F000284670BD1C22304604F10801FFF75AFB1F
:104A0000284670BD2022304604F10801FFF752FB12
:104A1000284670BD6FF03605EAE700BF78B138B5BB
:104A20000D46F0210446FFF747FB40232046256052
:104A3000E36500F0A5FA003818BF012038BD012059
:104A4000704700BFF0B5056EA5B0044604AEE5B9E9
:104A500000230127019330466760294602AA00938C
:104A600000F05AFA10B1012025B0F0BD2A462046C8
:104A700002A900F0AFFA0028F5D1204600F0C0FBF3
:104A80000028F0D1206625B0F0BD802D2A463046A2
:104A900028BF802204F16401FFF70CFB256ED7E7E5
:104AA000002800F0DC802DE9F04F1746A5B0002A61
:104AB00000F0AB800C46002961D0B2F5803F05467E
:104AC000C0F0ED804FF6FF7AA2F57F47006EFF3F02
:104AD00005F1640B01EB0A09EA6DA9F57F46141A8A
:104AE000B4FBF2F302FB1344FF3E002C61D182427F
:104AF0004FF6FF746ED0B4FBF2F802FB08F8B8F181
:104B0000000F40D154B9A7F57F43B7F5803F4C461D
:104B1000A3F1FF03D14414D31F46DDE71930224629
:104B2000314605EB8000FFF7C5FA286EA7F57F43F5
:104B30002044B7F5803F4C462866D144A3F1FF03DB
:104B4000EAD2EA6D161AB6FBF2F302FB1366BE4216
:104B500028BF3E46002E74D1904200F08280B7FB01
:104B6000F2F602FB06F6002E5CD00023314620460A
:104B7000CDE9003302AA00F0CFF9002849D0012086
:104B800025B0BDE8F08F002341463046CDE9003323
:104B900002AA00F0C1F90028F1D14246284602A934
:104BA00000F018FA0028EAD1286E4644A4EB080465
:104BB000A8E7544528BF5446314622465844FFF7DB
:104BC00079FA286EEA6D2044824226442866AAEBD0
:104BD000040490D1802A28BF8022594604A8FFF7F8
:104BE00069FA0023E96D02AACDE9003304A800F0B8
:104BF00093F90028C3D12846EA6D02A900F0EAF92A
:104C00000028BCD1EA6D286675E7384625B0BDE8B6
:104C1000F08F3246284602A900F0DCF90028AED118
:104C20003444BF1B002FF0D02B6E3A46193305EBEE
:104C300083002146FFF73EFA2B6E00203B442B6693
:104C40009EE705F16403214632461844FFF732FA25
:104C5000286EEA6D3044BF1B344428667CE701208F
:104C60007047802A28BF802205F1640104A8FFF75D
:104C700021FA0023E96D04A8CDE9003302AA00F06F
:104C80004BF900287FF47BAF2846EA6D02A900F0BB
:104C9000A1F900287FF473AFEA6D28665FE7006E24
:104CA0004FE700BFF8B51C460546114816460F46AB
:104CB000FFF738FE21460E48FFF74EFE044620B1AE
:104CC0000B48FFF743FE2046F8BD3A462946084800
:104CD000FFF756FE04460028F2D131460448FFF79C
:104CE00079FE04460248FFF731FE2046F8BD00BFBA
:104CF000E08100201C2330B583B001A90446019354
:104D000000F036F8054638B9019B1C2B07D0164D2C
:104D10001C212046FFF7D0F9284603B030BD012101
:104D2000D4E90032003B18BF0123E1610AB143F02E
:104D30000203A26832B9E26842B9C4E908328BB909
:104D40000A4DE5E7E26843F004033AB10022284641
:104D500043F00803C4E9083203B030BD1546C4E986
:104D60000832D9E71546D7E7370CF0000E0CF000F3
:104D70000346002866D0002964D00A681C2A61D145
:104D80004FF47F023B49D2F8100C88425CD0D2F835
:104D9000101C013158D0D2F8101C4FF47F0219605A
:104DA000D2F8140C3449884260D0D2F8141C013176
:104DB0005CD0D2F8141C4FF47F025960D2F8181C52
:104DC00011F5947F4FD0D2F8181C01314BD0D2F896
:104DD000181C4FF47F029960D2F81C0C27498842B6
:104DE0003ED0D2F81C1C01313AD0D2F81C1C4FF432
:104DF0007F02D960D2F8001C70312FD0D2F8001C8D
:104E000001312BD0D2F8001C4FF47F021961D2F887
:104E1000041CAF3120D0D2F8041C01311CD0D2F8D0
:104E2000041C4FF47F025961D2F8080C14498842DF
:104E30000DD0D2F8081C013109D0D2F8082C00207E
:104E40009A6170470120704740F6FC01A5E740F2E7
:104E5000373200209A6170475121E2E79021D3E771
:104E600042F60411C3E740F6D861B2E742F2D0013E
:104E7000A1E700BFFCF8FFFFD020FFFF0429FFFFE0
:104E800037F3FFFF014608B54FF48060FFF79EF847
:104E90000022034BC3F8C821C3F82C2108BD00BF72
:104EA000001084500138072805D8DFE800F0120E02
:104EB000040A0404040609487047CB6800204B62CA
:104EC00070478B6800204B6270474B6800204B6234
:104ED00070470B6800204B62704700BF310CF10037
:104EE0000B6802E0082B0B6006D8026A13424FEAF7
:104EF0004303F7D00020704700487047310CF100A1
:104F00000022044B4FF48060C3F82C21C3F8C42165
:104F1000FFF742B800108450F0B5002483B0B0F120
:104F2000005F8DF8074025D38C468444BCF1804F48
:104F300004461FD817461D4601220DF1070300F055
:104F400099F90646B0B99DF80730099A3C603B7163
:104F500092B14DB10246089928460DF1070300F0C1
:104F600089F938B99DF807303046099A15601371F0
:104F700003B0F0BD4FF47506304603B0F0BD00BF7E
:104F8000E8B110B50468012C04D0022C10D044B153
:104F90000C4810BD20220C490830FFF78BF8002088
:104FA00010BD142209490830FFF784F8204610BDCF
:104FB000202207490830FFF77DF8002010BD4FF48C
:104FC000730070470100F300AC55000078550000F5
:104FD0008C5500002DE9F843002900F0F9800446C3
:104FE000002800F0F98003680F469046002B00F07F
:104FF000C380013B012B00F2D7804FF0FF3178488E
:105000004FF00209FFF770F8002840F0BF80002041
:10501000FFF79AF80646002840F0C280714AD2F89D
:105020001C39002BFBD16F4DD5F8203C002BFBD158
:105030004FF0FF30FEF7B0FFD5F8040A20F0400033
:10504000FEF7B8FF01230722C5F81838C5F8002974
:10505000C5F8C437A36CC5F8CC37E36CC5F8D037B6
:10506000C5F8C09723685BB1013B012B18D8636A70
:10507000C5F85C36236AC5F85836E369C5F8543676
:10508000A269584BC3F850266269C3F84C262269BE
:10509000C3F84826E268C3F84426A268C3F840264D
:1050A000504AD2F81039002BFBD1B8F1000F5FD075
:1050B00063684020012B08BFC2F884363A68494B28
:1050C000C3F8282CC3F82C8CFEF77AFF0646454A15
:1050D000D2F81039002BFBD1424AD2F8203C002BE9
:1050E000FBD123685BB1013B012B18D8D2F85C36A9
:1050F0006362D2F858362362D2F85436E361394BF2
:10510000D3F85026A261D3F84C266261D3F8482622
:105110002261D3F84426E260D3F84036A36000232E
:105120000121304AD2F8CC07A064D2F8D007E0645D
:10513000C2F8C417C2F88436C2F8C837D2F810399A
:10514000002BFBD1C2F81838002E3BD1254BD3F8E9
:10515000040A40F04000FEF72DFF0120FEF7F4FFA7
:1051600060BB1F48FEF7C8FF10BB3046BDE8F883A0
:105170000423C2F8C837AAE74FF0FF3118484FF0B0
:105180000109FEF7B1FF00283FF441AF1648FFF7D1
:1051900043F80020FEF7D8FF064600283FF43EAF54
:1051A0001248FFF739F839E7114E3046BDE8F88369
:1051B0001048FFF731F83046BDE8F8830E48FFF796
:1051C0002BF8CEE7102104F10800FEF775FFBDE7CC
:1051D0000A4E3046BDE8F8834FF47306C5E700BFBA
:1051E0006067002000108450745400008C5400004C
:1051F0000100F300CC540000AC5400000300F300A5
:10520000A0B3034670B4D0E90240D3E9041226BA31
:1052100005BA0CBA10BAC3E90440D3E90612986A79
:1052200009BAC3E9026512BA996100BAD3E9084123
:1052300025BA0CBAC3E90725D3E90B12C3E9094023
:1052400009BAD86B12BAD962D3E90D4125BAC3E9BC
:105250000C250CBA00BAD3E9101209BA12BAC3E984
:105260000E40196400205A6470BC70474FF47300FC
:10527000704700BF00201870704700BF014B1B68CB
:10528000184700BFC4670020024B1860024B002083
:1052900019607047C0670020C46700200449054AB0
:1052A0000B68002B08BF13461A1818460A6070478F
:1052B000DC82002000100020FEE700BFF8B500BF30
:1052C000F8BC08BC9E467047F8B500BFF8BC08BCE7
:1052D0009E4670470122FBF765FF1FBD1FB527489B
:1052E0006946F7E71FB526486946F3E71FB5254825
:1052F0006946EFE71FB524486946EBE71FB5234829
:105300006946E7E71FB522486946E3E71FB521482C
:105310006946DFE71FB520486946DBE71FB51F4830
:105320006946D7E71FB51E486946D3E71FB51D4834
:105330006946CFE71FB51C486946CBE71FB51B4838
:105340006946C7E71FB51A486946C3E71FB519483C
:105350006946BFE71FB518486946BBE71FB5174840
:105360006946B7E71FB516486946B3E71FB5154844
:105370006946AFE71FB514486946ABE7DD11000089
:10538000E311000011120000D912000061150000A5
:10539000FD1500003D160000B1160000E7160000E4
:1053A00065170000AB17000029180000D518000091
:1053B000E51800001119000065190000931900009C
:1053C00069190000BD190000D911000054464D5F55
:1053D00043525950544F0054464D5F53505F504C08
:1053E0004154464F524D5F53595354454D5F5245BA
:1053F0005345540054464D5F53505F504C41544602
:105400004F524D5F494F43544C0054464D5F5350EB
:105410005F504C4154464F524D5F4E565F434F557F
:105420004E54455200000000A91A0000811A0000E5
:10543000111A0000031A000094080000606900209F
:10544000B06900200080000000800000FFFF0F0016
:10545000007C000000800000FF8FFFFFFF8FFFFF38
:10546000FE8FFFFFFE8FFFFFFD8FFFFFFC8FFFFF13
:10547000FC8FFFFF4661696C20746F20616371755A
:10548000697265206D757465780A00004661696C03
:1054900020746F20696E63726561736520504D20C2
:1054A000636F756E7465720A000000004661696C76
:1054B00020746F20646563726561736520504D20B0
:1054C000636F756E7465720A000000004661696C56
:1054D00020746F2072656C65617365206D757465ED
:1054E000780A0000436F756C64206E6F74206C6FD7
:1054F000636B20706F7765722073617665206D75C0
:10550000746578006D757465785F66726565206393
:10551000616C6C65642077697468204E554C4C2032
:10552000706172616D6574657200000043616E2781
:105530007420696E697469616C697A65206D75742F
:1055400065782C20776173204E554C4C0D0A000075
:105550004661696C20746F20756E6C6F636B206D93
:10556000757465780A0000000A63747820697320F6
:105570004E554C4C0A0000000123456789ABCDEF26
:10558000FEDCBA9876543210F0E1D2C3D89E05C141
:1055900007D57C3617DD703039590EF7310BC0FF57
:1055A00011155868A78FF964A44FFABE67E6096A17
:1055B00085AE67BB72F36E3C3AF54FA57F520E5134
:1055C0008C68059BABD9831F19CDE05B0000000000
:1055D00030B9FF7F010000000090D0038007000079
:1055E000406800206069002090ED00E0986700208E
:1055F000A46700209C670020946700205C6700205F
:10560000D1410000DD410000E94100000000000040
:10561000F5410000847F002011000000E5420000F9
:105620004D42000075420000B5420000B8670020FE
:105630007C670020B067002000000000A867002001
:10564000887F0020110000008C7F002011000000E6
:10565000907F002011000000A10200002103000043
:10566000CC670020000000000000000000000000E7
:10567000000000000000000000000000000000002A
:10568000000000000000000000000000000000001A
:10569000000000000000000000000000000000000A
:1056A00000000000000000000000000000000000FA
:1056B00000000000000000000000000000000000EA
:0C56C00000000000E50E0000C10E00001C
:107C00007FE97FE9F8F784BC7FE97FE9F8F790BC6A
:107C10007FE97FE9F8F7BEBC7FE97FE9F8F798BC18
:107C20007FE97FE9F8F7A4BC000000000000000035
:107C30000000000000000000000000000000000044
:10800000E076012069A00000B53101003DA000002C
:108010003DA000003DA000003DA000003DA00000EC
:10802000000000000000000000000000BD9C0000F7
:108030003DA00000000000005D9C00003DA000008D
:10804000459D0000459D0000459D0000459D0000A8
:10805000459D0000459D0000459D0000459D000098
:10806000459D0000459D0000459D0000459D000088
:10807000459D0000459D0000459D0000459D000078
:10808000459D0000459D0000459D0000459D000068
:10809000459D0000459D0000459D0000459D000058
:1080A000459D0000459D0000459D0000459D000048
:1080B00013380100459D0000459D0000459D0000CE
:1080C000459D0000459D0000459D0000459D000028
:1080D000459D0000459D0000459D0000459D000018
:1080E000459D0000459D0000459D0000459D000008
:1080F000459D0000459D0000459D0000459D0000F8
:10810000459D0000459D0000459D0000459D0000E7
:10811000459D0000459D0000459D0000459D0000D7
:10812000459D0000459D0000459D0000459D0000C7
:10813000459D0000459D0000459D0000459D0000B7
:10814000459D000053B94AB9002908BF00281CBF4B
:108150004FF0FF314FF0FF3000F070B9ADF1080C77
:108160006DE904CE00F006F8DDF804E0DDE9022355
:1081700004B070472DE9F047089E0D4604468A4634
:10818000002B7FD18A42174641D9B2FA82F24AB116
:10819000C2F1200105FA02F39740944020FA01F160
:1081A00041EA030A4FEA17484FEA144C1FFA87F9CD
:1081B000BAFBF8FE08FB1EA30EFB09F14CEA0343D1
:1081C000994206D9FB1802D2994200F224810EF19D
:1081D000FF3E591AA3B2B1FBF8F008FB101100FBE7
:1081E00009F943EA0144A14505D93C1902D2A14548
:1081F00000F20E810138A4EB090440EA0E40002190
:108200001EB1D4400023C6E90043BDE8F08702B99F
:10821000FFDEB2FA82F2002A4FD1CB1B4FEA174E93
:108220001FFA87F80121250CB3FBFEFC0EFB1C3066
:108230002B4608FB0CF945EA0045A9450AD97D19EA
:108240002CBF01230023A94502D9002B00F0D980BF
:108250000CF1FF3CA5EB0905A3B2B5FBFEF00EFB4C
:10826000105508FB00F843EA0544A04505D93C1920
:1082700002D2A04500F2C9800138A4EB080440EA0C
:108280000C40BDE78B4208D9002E00F0B1800021E0
:10829000C6E900050846BDE8F087B3FA83F1002976
:1082A00046D1AB42C0F0A780824240F2A48008468B
:1082B000002EAAD0C6E9004AA7E7C2F120009740E5
:1082C00001FA02F34FEA174EC14024FA00F51FFAF3
:1082D00087F894401D43B1FBFEF02B0C0EFB1011F0
:1082E00000FB08FC43EA01439C4509D9FB182CBF5D
:1082F000012100219C4502D9002900F09580013818
:10830000A3EB0C03ADB2B3FBFEF10EFB113301FB8B
:1083100008FC45EA0345AC4505D97D1902D2AC45B8
:1083200000F289800139A5EB0C0341EA00417AE7AC
:10833000C1F120048B4002FA01F705FA01FCE2408A
:1083400020FA04F8E54000FA01FE134348EA0C0263
:108350004FEA13484FEA124C1FFA83F9B5FBF8FABB
:1083600008FB1A550AFB09F04CEA054C60450AD98E
:1083700013EB0C0C2CBF01250025604501D9002D05
:1083800055D00AF1FF3AACEB000C92B2BCFBF8F00E
:1083900008FB10CC00FB09F942EA0C4CE14505D979
:1083A00013EB0C0C01D2E1453BD8013840EA0A40FE
:1083B000ACEB090CA0FB0789CC4545464A4602D3E5
:1083C00006D1C64504D20138B8EB070569EB0302B4
:1083D0002EB3BEEB05036CEB020C23FA01F20CFA90
:1083E00004F42CFA01F300211443C6E900430CE71E
