:020000040000FA
:1000000068260120F92D000043660000CD2D000078
:10001000CD2D0000CD2D0000CD2D0000CD2D0000F8
:100020000000000000000000000000008D2900001A
:10003000CD2D000000000000CD2D0000CD2D0000D2
:10004000E9290000E9290000E9290000E929000068
:10005000E9290000E9290000E9290000E929000058
:10006000E9290000E9290000E9290000E929000048
:10007000E9290000E9290000E9290000E929000038
:10008000E9290000E9290000E9290000E929000028
:10009000E9290000E9290000E9290000E929000018
:1000A000E9290000E9290000E9290000E929000008
:1000B000E9290000E9290000E9290000E9290000F8
:1000C000E9290000E9290000E9290000E9290000E8
:1000D000E9290000E9290000E9290000E9290000D8
:1000E000E9290000E9290000E9290000E9290000C8
:1000F000E9290000E9290000E9290000E9290000B8
:10010000E9290000E9290000E9290000E9290000A7
:10011000E9290000E9290000E9290000E929000097
:10012000E9290000E9290000E9290000E929000087
:10013000E9290000E9290000E9290000E929000077
:10014000E929000053B94AB9002908BF00281CBF9B
:100150004FF0FF314FF0FF3000F00CB8ADF1080C5C
:100160006DE904CE00F008F8DDF804E0DDE90223D3
:1001700004B07047704700BF2DE9F04F07468C462A
:100180000846099E15463C461946002B40F0C5809E
:100190008242B2FA82F746D94FB1C7F1200E00FA77
:1001A00007F3BD4024FA0EFEBC404EEA030C4FEAB2
:1001B00015481FFA85FE220CBCFBF8F908FB19C391
:1001C00009FB0EFA42EA03439A4528D9EB1809F1D4
:1001D000FF3004D29A4502D9A9F102002B44A3EBC7
:1001E0000A03A4B2B3FBF8F208FB123302FB0EFEC3
:1001F00044EA0344A64514D92C1902F1FF3303D273
:10020000A64501D9931E2C44A4EB0E0443EA0040FA
:100210001EB1FC40002334607360BDE8F08F484697
:10022000DDE71346F0E702B9FFDE87BB831A012141
:100230004FEA154EAAB2200CB3FBFEFC0EFB1C339A
:100240000CFB02F840EA0343984562D9EB180CF125
:10025000FF3004D2984502D9ACF102002B44A3EB45
:100260000803A4B2B3FBFEFC0EFB1C330CFB02F232
:1002700044EA0344A2424ED92C190CF1FF3304D2B4
:10028000A24202D9ACF102032C44A41ABEE7C7F182
:10029000200CBD4000FA07F320FA0CF84FEA154E87
:1002A00024FA0CFCBC404CEA0302ABB2B8FBFEFCE7
:1002B000110C0EFB1C800CFB03F941EA0040814548
:1002C00023D928180CF1FF3104D2814502D9ACF1B1
:1002D00002012844A0EB090092B2B0FBFEFC0EFB29
:1002E0001C000CFB03F842EA004398450FD9EB18B9
:1002F0000CF1FF3204D2984502D9ACF102022B4432
:10030000A3EB080342EA014192E76146E2E7624655
:10031000F6E76046A3E76346B7E7834205D90EB127
:10032000C6E900700021084677E7B3FA83F181B986
:10033000834201D3BA420AD8BC1A60EB03030120FE
:100340009C46002E67D0C6E9004C002165E70846B0
:10035000F7E7C1F1200C8B4002FA01F522FA0CF408
:1003600020FA0CFB27FA0CF28F401C4300FA01F331
:100370004FEA144913431FFA84FE1A0CBBFBF9F829
:1003800009FB18BB08FB0EFA42EA0B4292453ED924
:10039000A21808F1FF3004D2924502D9A8F1020058
:1003A0002244A2EB0A029BB2B2FBF9F809FB182225
:1003B00008FB0EFE43EA024296452AD9A21808F12C
:1003C000FF3304D2964502D9A8F10203224443EA3E
:1003D0000040A2EB0E02A0FB05939A42CE4698463F
:1003E00002D306D14F4504D20138B9EB050E63EBB9
:1003F000040886B1B7EB0E0362EB080707FA0CFCA2
:10040000CB40CF404CEA0303C6E900379DE74046A6
:10041000C7E74346DBE73146FFE600007FB53E4BCA
:100420003E4A3F48C3F800264921C3F80426C3F8D2
:100430000826C3F80C26C3F81026C3F81426C3F800
:100440001826C3F81C2605F0EBFD00F0AFF8354880
:1004500000F07EF828B94521324A334805F0E0FD26
:10046000FEE7324804F050FF0446026981681368D1
:1004700023F0806313600B682D4A1A219847A36804
:1004800020465B6801A9984790B9019B5A010FD497
:100490004FF05023D3F800340BB1DB0708D54921C6
:1004A000244805F0BDFD01F05DFD234802F0C2F8CF
:1004B00001A800F0D9FC214B1B68834204D04521E0
:1004C0001F4805F0ADFDFEE7039A49211D4805F0E0
:1004D000A7FD49211C4805F0A3FD69469DF80800C9
:1004E00000F042F8009B039C1C44019B1D8900F016
:1004F0007BFF66194FF02002EFF3118382F312881D
:10050000BFF36F8F635983F3088873689847452159
:100510000E4805F085FDFEE7008001503546526E1D
:10052000148F00002D8F0000408F00005F8F0000AF
:1005300010000100668F0000188B00002CC70020FF
:100540008A8F0000AD8F0000DC8F0000019000005A
:1005500010B5044C236813B904F0D6FE206020685F
:1005600010BD00BF28C70020024608B538B10548B5
:100570000023452105F054FD6FF0150008BD08600B
:10058000FCE700BF249000001FB5074A03460C4655
:100590001068194601AA06F0D8F918B9019B236022
:1005A000029B636004B010BD28C700204FF4C05107
:1005B000014803F0C3BF00BF9EE000202DE9F04FCB
:1005C000DFF8ECA1F9B038A8DDE9844817461D46EC
:1005D000DAF8006007F04CFF002138A804F0B4F806
:1005E0003CB1B8F1000F04DD4246214638A807F0BF
:1005F00043FF4FF000097B89B7F808809844FB68F7
:100600009844C8454BD80DA938A807F072FF869BBF
:1006100023B1202218460DA906F05FF800232A46D0
:10062000009339464FF6FF7307A805F0A5F9044675
:10063000002840F0B68080464FF0FF37DFF8749115
:100640000DF1160305AA06A907A805F0E1F9041E95
:10065000C0F2A78040F09880BDF816B0BBF1100F33
:1006600034D1BDF81480B8F1200F40F09880434693
:100670002846069938AA05F0E3FC0446002840F015
:100680009080424638A90DA805F00DFA04464A4B61
:100690001B68834240F085804FF00108D0E7DDF809
:1006A0000CB2A8EB09039B4528BF9B4649465B4615
:1006B0002846829A05F0C4FC0446002871D15A46A7
:1006C000829938A807F0D8FED9449AE7BBF1010F08
:1006D00036D1BDF81430202B61D82846069938AAA7
:1006E00005F0AEFC044600285BD19DF814B0BBF1C8
:1006F000200F03D94FF0FF342746A1E7D9F8003087
:100700002E4F0393039B9C42F4DA1DA807F0B0FE22
:1007100000211DA804F018F87A681DA8126857F87F
:10072000081B07F0A9FE15A91DA807F0E2FE5A460E
:1007300038A915A805F0A8FF0028DDD00134E1E7AD
:10074000BBF1200F7FF47CAF7B1C3FF479AFD9F86D
:100750000030BB4215DDBDF81430B3F5807F1ED1EB
:100760002846069938AA05F06BFC0446C8B9FFB2C2
:100770005946BDF81430009738AA0DA800F020F8AB
:1007800006464FF0FF375BE7B8F1000F0DD00A4B7C
:100790001B68B34201D0DAF80060344601E04FF044
:1007A000FF34204679B0BDE8F08F0124F9E700BF9F
:1007B00000C50020208B00002CC70020248B0000E7
:1007C0002DE9F04F9846ADF54B7D6B4B074627A8BA
:1007D0009DF850638A4691461D6807F006FE674BF8
:1007E0008AAA53F8364003EBC6035B680294196883
:1007F00002A80C443023214606F081FB68BB029B13
:100800008A9A13449C4228D1214629AA02A806F0BC
:100810008AFB10BB0DF1B00B5A46214602A806F028
:1008200082FB0646C8B929A806F09FFE029B2890C5
:100830009C4212D133463246CDE9006B29A927A844
:1008400007F08FFD48B927A803F01CFF28B929A895
:1008500006F08BFE804528900AD027A807F0CFFD30
:1008600027A807F0CCFD28460DF54B7DBDE8F08F9D
:10087000B8F5807F02D04FF0FF35F1E7BAF1200FD5
:10088000F9D149468AAA27A803F020FF0446002888
:10089000F1D19DF82733BC2BEDD10DF5A478DF26DF
:1008A000454603900CA807F0E3FD00210CA803F0D7
:1008B0004BFF20220DF207310CA807F0DDFD0422CA
:1008C00003A90CA807F0D8FD04A90CA807F011FE95
:1008D0001F2ED4BFB1464FF020099DF80F3040467F
:1008E00001334A4604A9A6EB09068DF80F3005F03E
:1008F000F4FE002EC844D5DC28462A46DF238AAE03
:10090000117816F801CB013B81EA0C0102F8011BBA
:10091000F6D12B7803F07F032B7010F8016B002EBB
:10092000A9D10134BE2CF8D195F8BE30012BA2D14B
:100930000CA807F09DFD31460CA803F005FF082226
:100940000F490CA807F098FD394620220CA807F0A3
:1009500093FD20220DF207210CA807F08DFD04A9BC
:100960000CA807F0C6FD20220DF2073104A805F0FF
:100970009AF8054681E700BF00C50020248B0000DF
:100980004A9000002DE9F041022386B00D466F46E3
:100990000026DFF86880ADF8003017F8010B01A9D8
:1009A00001F0DAF90446A0B901981023816802AA7F
:1009B000103905F045FB0446019805F040FB44B9A9
:1009C0001022414602A805F05FFE40B12EB14FF063
:1009D000FF34204606B0BDE8F0810126DDE701982E
:1009E00006F0A4F90423A0F108012A46019805F0B5
:1009F00027FB0446019805F022FBEAE7048F00007C
:100A00002DE9F041384B88B0064600200D461C68A1
:100A100004F0A7FF06A9C0B201F09EF9002857D143
:100A2000294604F09EFF2C2407A9C0B204FB0564EC
:100A300001F092F9002836D04FF02C0808FB05F899
:100A400006EB0807396911F0100137D14FF48073B4
:100A50000193264B224600930846CDE90311069BDD
:100A60000291FFF7ABFD0446214B56F8082006988B
:100A70009A420CD13A89FB68D1438B4207D8134480
:100A80008268934203D21B4B1B68A3421DD045B31F
:100A90008268002105F00CFB174A4521174805F034
:100AA000BFFA012411E0079805F022FB07460798DA
:100AB00005F0C5FA631EE21C93420DD1002DF0D063
:100AC0003046069905F0E7F82C46069805F0B7FA87
:100AD000204608B0BDE8F08113F8011FB942EBD001
:100AE000AAE7074AD9E700BF00C500209EF800200A
:100AF0003DB8F3962CC7002052900000649000008F
:100B00005C90000073B50D46002104462846CDE9EF
:100B1000001105F07FF830B3164E2368B34203D1BD
:100B2000204601AA05F00AF8E36AB34204D16A46F6
:100B30000121204605F002F8DDE90032934288BF2A
:100B40000193019BAB60019A2946204600F03AFBD5
:100B5000094B1A68002A03DD5721084805F060FA9E
:100B6000002002B070BD05F10801FFF70BFFAB6874
:100B70000193E8E73DB8F39690DB00208C900000ED
:100B80002DE9F84F884691469A460026DFF868B06E
:100B90001A4C1B4D0B9B9E4201D300200FE00B9B78
:100BA00040469F1BB7F5806F28BF4FF48067124AFD
:100BB0003B4606EB0A0105F043FA10B10120BDE8FF
:100BC000F88F0A993B465A464846711805F054FA80
:100BD0000028F3D1C4F800563E44C4F80456C4F8C3
:100BE0000856C4F80C56C4F81056C4F81456C4F885
:100BF0001856C4F81C56CDE790C70020008001505D
:100C00003546526E2DE9F0430F4600218E4B85B0DC
:100C10001E688E4B044643628D4B0365084604F004
:100C2000A0FE04F12001C0B201F096F801210020DD
:100C300004F097FE04F14C01C0B201F08DF80546B6
:100C4000204604F0BCFF804668B9002220461146C9
:100C500004F05CFF804608B3002257217D4805F070
:100C6000DFF9012392E04FF4807257217A4805F0B2
:100C7000D7F90123984584F85830E6D194F85830D4
:100C8000042B8DF8073000F28480012B00F288805D
:100C900000F09F80FF2384F858309AE0204600F04F
:100CA000A7F90028DDD0684604F0ABFF694620466E
:100CB00005F046F818B1424657216848CFE7684624
:100CC00004F0A8FF80F001016A462046C9B204F092
:100CD0001DFF02460028BFD1684604F09BFF8046F6
:100CE00060BB69462046FFF70DFF9DF8073084F88A
:100CF0005830033B012B06D8404605F06FF810B181
:100D0000FF2384F858309DF80730023B022B0BD8A4
:100D1000002005F051F838B1FF2384F85830452100
:100D20004F4805F07DF9FEE794F85830FF2BF6D0D8
:100D30006A460021204604F0E9FE92E79DF80790FC
:100D4000B9F1010F17D1104603F026FA831E022BCA
:100D500080460DD849462046FFF752FE414B1B689E
:100D6000984205D001280CBF4FF001084FF005084C
:100D700084F8588082E701212046FFF741FE394B75
:100D80001B68984214BF05239DF8073084F858303B
:100D900074E7052B7FF47EAF002005F01FF813E009
:100DA00069462046FFF7AEFE94F858300546DA1E35
:100DB000012A0CD8002005F011F8054600287FF420
:100DC00069AF002004F0F8FF054610B162E7022B7E
:100DD000F7D094F85830FF2B04D14521204805F076
:100DE0001FF9FEE7012B06D06A460021204604F0D9
:100DF0008DFE0546D0B900212046FFF701FE0646CC
:100E0000DFF86080D8F8003098420FD1102200211E
:100E1000684605F06DFC206A04F0ACFD00253871D1
:100E2000236AD8F800605B683C60BB60E06C05F04A
:100E300006F9206A05F003F9002D14BF2846304654
:100E400005B0BDE8F08300BF00C5002090CB0020B6
:100E500090D30020FD900000BB900000299100007D
:100E6000539100002CC7002038B5064D044660227F
:100E70000021284605F03CFC21462846FFF7C2FE2B
:100E800038BD00BF30C7002073B516461C4633B3CB
:100E9000436A5D686379012B15D101BB1F4B226842
:100EA0001B689A4298BF0025002004F05AFD01A952
:100EB000C0B200F051FFF0B10125019805F0BFF874
:100EC000284602B070BD022B09D12368012B08D936
:100ED000124A1268934202D8B1FA81F149090025F9
:100EE000E2E7FCD10029DFD00129F8D121790239CC
:100EF00018BF0121F3E7294620233246019805F067
:100F00009FF805460028D7D1002CD6D03568044874
:100F10002D1A18BF4FF0FF35CFE700BF04C50020E2
:100F20003DB8F3962DE9F04F07460C4685B00146D3
:100F30000020164604F0BEFD051E52DB3846E46D67
:100F400004F0C2FD5FFA84F94FF0000A4FF0010B84
:100F50004FF0FF3405F1FF3809FB08089DB9BAF1DD
:100F6000010F03DD4521214805F05AF8631C06D026
:100F7000FF2C2ADC40F2011301343460B380284690
:100F800005B0BDE8F08F6B1E009341460123384643
:100F90000DF10F0205F054F8031E019323DB01222B
:100FA00038460DF10F0105F0D5FE019B40B15B45C0
:100FB00001D00AF1010A9B46009DA8EB0908CDE784
:100FC000B4F1FF3F08BF2C46F5E70223A4F5807477
:100FD0007371631004F00104013301343360347120
:100FE000CDE70725CBE70125C9E700BF5F910000EA
:100FF000816A426D38B5914208D0531C8B4205D0AE
:101000005721144805F00CF8002038BDB1F5807F59
:101010001CD957211048F5E7446A056D04EBC30459
:1010200005EBC30564686D68AC4202D057210B48DC
:10103000E8E701339A42EFD1914205D9436A03EBC5
:10104000C2025368A342F1D10120DEE700231C460F
:10105000F0E700BF82910000BA910000E991000022
:1010600000B589B0022004A905F0DAFE9DF8102031
:10107000012A41D0254B2649032A18BF0B469DF86B
:101080001320492102929DF81220224801929DF8D6
:1010900011200092204A04F0C3FF062006A905F0A3
:1010A000BFFE9DF81820012A28D0184B1849032AA2
:1010B00018BF0B469DF81B20492102929DF81A206B
:1010C000144801929DF819200092144A04F0A8FFD8
:1010D0009DF81030012B13D19DF81230032B0FD146
:1010E0009DF81830012B0BD00D48492104F098FFD2
:1010F000022009B05DF804FB0A4BC0E7094BD9E7B1
:101100000948492104F08CFF0020F2E71A92000000
:10111000209200003292000024920000739200009E
:101120008392000015920000A292000070B54B68F7
:1011300014461E4A03F0FF23934206460D4686B02E
:101140002FD10B68012B2CD1204604A902F0D0FF2F
:101150009DF81020012A26D0154B1649032A18BFE6
:101160000B469DF81320492102929DF81220124847
:1011700001929DF811200092104A04F051FF9DF851
:101180001030032B0DD12146304604F084FD20465B
:1011900005F039FE2046A96804F0A9FC204602F0BB
:1011A00087FF06B070BD064BDBE700BF00010004FF
:1011B0001A92000020920000329200007392000008
:1011C000159200002DE9F04F05460C468148492153
:1011D00089B0174604F024FF6B6A01225E68002381
:1011E0003344BB42114602F10102F9D3DFF8E8A112
:1011F0002046CAF8001004F00DFD08B3E86D04F0B5
:1012000054FC0023AF6A013F3344834201D2013FC3
:10121000FAE7DAF80030BB4212D357216F4804F0E6
:10122000FFFEDAF8002007FB06F3572102FB0662F7
:101230006B4804F0F5FE0123E37109B0BDE8F08FBF
:1012400006A9022000F088FD07A9062000F084FD11
:1012500021462846079AFFF769FF6379012B08D1D9
:10126000DAF80070DFF87CB1DAF80030A7B90123B2
:1012700023604FF002030127DFF868816371DAF819
:101280000030DDF818909F424BD9484604F0D7FE55
:10129000079804F0D4FED0E7226801339B1A9F42DE
:1012A0003DD86B6A012A196853F8370003EBC7036E
:1012B00053F8083CDDF81880A3EB0103A0EB01090B
:1012C000029312D1E268079B022A0AD041462846BF
:1012D000039304F0E0FC22464146284604F011FD49
:1012E000039B1946284604F0D6FC32464946404640
:1012F00004F0CFFC029B424641462846CDE90096C9
:10130000FFF73EFC2146284604F091FC2368013398
:10131000236020B1DBF800300133CBF80030013F0F
:10132000A2E723689F4252D36A6AFB0052F8371043
:10133000083B04911168DDF81CB00391296DC85871
:101340000968411A0291217901293ED1D158039BA4
:101350003246C91A4846059104F09BFC0599029B48
:101360004A460091284659460196FFF709FC214656
:10137000284604F05CFC4FF00203237120B1D8F83A
:1013800000300133C8F8003032460299584604F064
:1013900080FC029B494600932846DDE90323019621
:1013A0009B1A5A46FFF7ECFB2146284604F03FFC07
:1013B0002368013323604FF00103237138B1D8F85B
:1013C00000300133C8F8003001E00229DCD00137D9
:1013D00055E700BFB992000004C50020E29200006A
:1013E0001193000090DB002038B501224FF0FF344C
:1013F00000251A4B29465A60C3F84843C3F80843EE
:1014000003F580535A60C3F84843C3F80843A3F573
:101410005043C3F800558022C3F80843104805F034
:1014200067F9802229460F4805F062F90E4B8022A9
:10143000C3F800552946C3F808430C4805F058F98D
:10144000802229460A4805F053F90A4BC3F808459B
:101450004FF05023C3F8084338BD00BF004001508F
:10146000808000508081005000900050809000509B
:1014700080910050007001502DE9F0430546079817
:1014800010B91060BDE8F0830324B0FBF4F404EB62
:101490004407B84218BF0134B4F1804F05D34FF070
:1014A000FF3313606FF00B00ECE7A40001348C42B3
:1014B00000D80DB91460F5E72E460024DFF8B4E03B
:1014C000BC4231469C4606F1040603F1030329D3CE
:1014D000844222D20134844228BF00239CF8006059
:1014E000244F38BF9CF801304FEAA60C17F80CC007
:1014F000844281F800C007EB131C2FBF3D239B00E3
:1015000003F03C03FB5C36018B703D2306F0300694
:101510001CF80660CB704E70043100204D1B156026
:101520000870AFE713F803CC13F8021C4FEAAC09BC
:101530001EF809904FEA0C1C13F8018C0CF0300CCB
:1015400006F8049C0EEB111919F80CC0890006F876
:1015500003CC01F03C010EEB981C1CF8011008F0C4
:101560003F0806F8021C1EF80810033406F8011C98
:10157000A6E700BFD09400008C4600212DE9F0437F
:1015800007460D460846079EDFF81881B5420AD384
:101590002E4604E00135AE420EF1010E05D190BB9E
:1015A0001060BDE8F0834FF0000E5C5D202CF1D0A0
:1015B000AE42F4D0A6EB0509B9F1010F13D00D2C02
:1015C00011D103EB050999F80190B9F10A0F18D070
:1015D000BEF1000F04D13D2C07D10131022907D9FA
:1015E0006FF01500DDE70A2CF1E714F0800FF7D15A
:1015F00018F804407F2CF3D03F2C01D80029EFD1FC
:1016000001300135C2E74FF0060E00F00705C408AF
:101610000EFB05F50EFB04F40735641A04EBD50444
:101620008FB164450FD800249C461E4403203B46DE
:101630002146DFF870E0DFF87080664507D1DB1BDC
:1016400000201360ADE76FF00B001460A9E71CF8F1
:10165000019BA9F10A05EDB2162D03D828FA05F56C
:10166000ED07EAD41EF809500131402D08BF0138BA
:1016700005F03F05042945EA8414DED178B1210C38
:101680000128197002D101330021D6E702284FEA60
:101690001421597016BF9C7002330333F4E70146DE
:1016A000CBE700BF50940000090040000B680133F5
:1016B0000B60014B1B68184708C500201FB50024AC
:1016C00002460B46009403A90248039400F0E4F894
:1016D00004B010BDAD1600002DE9F84FB0F8189019
:1016E000044619F0080893460DD001290CBF49F0B3
:1016F000100949F02009A0F818908BF31188BFF366
:101700006F8FBDE8F88F09F00709022907D120463D
:1017100004F0DAFB0028F0D00128238B4ED1676952
:10172000218B002F15DA256821F00701C4E9008814
:1017300041F0010121830026218B01F0070ACA45EF
:1017400002D0A368002B5AD10DB9002E71D000230E
:1017500056E001F007035A1F012A1ED821F00701A5
:10176000062B256889B2C4E900880AD13DB12A4612
:10177000638B126801339BB2002AFAD1638341F074
:1017800002012046218304F09FFB06460028D3D0A7
:10179000238B43F020032383CDE7042B0CD121F0CE
:1017A000070189B22046218304F08EFB05460028FC
:1017B000C1D041F0200121830025BCE7032809D1D5
:1017C000226923F00703166843F0060300252383EC
:1017D0002F46B1E7042806D1226923F00703566893
:1017E00043F00403F2E7052806D1226923F007033A
:1017F000966843F00503E9E700252E46E8E7012354
:1018000041F0080121838BF31188BFF36F8FFBB97F
:1018100085BB16B120461F49B0474FF02003EFF3B8
:10182000118B83F31288BFF36F8F238B23F0080390
:101830002383238BDA0625D5012123F0100323838C
:10184000B4F8189009F0070900297FF45EAF54E757
:10185000A1680029DCD0D1F800903B4652462046D2
:10186000D1F804B0D847B9F1000FD1D04946D9F822
:101870000090F2E729463B46524620462D6804F088
:101880003FFBC5E713F020011EBF23F02003022118
:101890002383D5E72D5F00002DE9F04F8A464FF0F6
:1018A00000098FB01D46531E01900293029B587889
:1018B0005C1C252821D14FF0000C4FF0FF37184653
:1018C00061463C460A260230CDF80CC002780290F0
:1018D000392A00F1010059D81F2A18D8002A00F02F
:1018E000F7815146019B25209847029B5146187865
:1018F000019B984709F10209D8E7002800F0E88128
:101900005146019B984709F101090294CEE7A2F1E3
:101910002003192BE5D80FF2080E5EF823F000BF64
:1019200089190000E3180000E3180000891900007D
:10193000E31800000D1A0000E3180000E31800008F
:10194000E3180000E31800004F1A00008919000096
:10195000E3180000631A00001B1A0000E3180000DF
:10196000271A0000431A0000431A0000431A00001F
:10197000431A0000431A0000431A0000431A0000F3
:10198000431A0000431A000094469FE7582A00F0CB
:101990001B81A2F163035FFA83FEBEF1170FA0D88B
:1019A000172B9ED80FF2040E5EF823F02B1C0000BC
:1019B000891A0000E3180000E3180000E318000093
:1019C000691A0000891A0000E3180000E3180000FB
:1019D000691A0000E3180000E3180000E318000093
:1019E000731B0000E3180000E31800000B1C00004C
:1019F000E3180000891A0000E3180000E318000053
:101A0000731B0000E3180000691A000051462520EE
:101A1000019B984709F1010948E7039B002703F060
:101A2000FE03039352E7002C0BDA002F0BDA039B23
:101A3000002B00F0498124EAE47406FB0424303CC6
:101A400044E7002FF7DB06FB0727303F3EE7002F78
:101A500055F8043B01DB1F4638E71C1EBFF636AFC6
:101A600064420223039331E7682A03D1682906D12F
:101A700048212BE76C2A02D16C2900F0278100292C
:101A80007FF42FAF114621E77A2907D1752A05F196
:101A900004062D6862D14FF000080DE06C29F5D0E6
:101AA0004C29F3D1EB1D23F007031E46752AF6E8F7
:101AB000020107D1D3E90058BCF1200F51D1864B68
:101AC000013C09E005468846B8F1000FF4DA6D42A2
:101AD000824B68EB4808013C4FF0000B00930DABC4
:101AE0000593284641460A220023CDF810B0FEF7A0
:101AF00029FB059B303203F80129CDE9053528463D
:101B0000002341460A22CDF81C80FEF71BFB069BF2
:101B100005460A2B079B884673F100030BF1FF3B38
:101B2000DFD2049B049AC3F1010B0EAB9D18002F6A
:101B3000A5F1040504DA039B13F0010F18BF274633
:101B4000039BA7EB0B08B8F1000FD4BFA4EB0B0469
:101B5000E41B9B0700F18180274677E04FEAE57898
:101B6000B2E7BCF12B0F0ABF5D4B5E4B04F1FF34B3
:101B7000B2E7702A28D12E4656F8041B002300290C
:101B80005CD059480090023C002502F06002A2F1AE
:101B900039080DF1340E01F00F02092A88BF4244C2
:101BA00030320EF8012910294FEA111242EA03726D
:101BB0004FEA131073F1000305F1FF3C21D20EAB85
:101BC000C5F1010B1D44B2E76C2904D12E46002358
:101BD00056F8041B08E04C29F8D1073525F0070515
:101BE0002E466B6856F8081BBCF1230F06D13F4DFB
:101BF00012F0200F3C4808BF2846C3E73948009040
:101C0000C2E7654611460346C5E72E4656F8045B13
:101C1000284604F026FD002F834602DBB842A8BF09
:101C2000BB46304B002700938AE72E4656F8043B0C
:101C30004FF0010B8DF8203008ADF2E74FF0050BA7
:101C40002B4DEEE751462020019B9847013FF9D5E7
:101C500024EAE473013C9944E41A009BA9EB0309CC
:101C600004E000935146019B9847009B09EB030752
:101C700013F8010B0028F4D1C146B9F1010913D5BD
:101C8000D94628EAE878B9F1010912D5BBF1000F6D
:101C9000A8BFD8442546013D11D5002CA8BFA044BB
:101CA000354608EB070901E65146019B302098476D
:101CB000E3E7514615F8010B019B9847E3E75146CE
:101CC000019B20209847E6E70123CBE64C21FDE568
:101CD00048460FB0BDE8F08F329A00001095000022
:101CE00012950000CC9D000017950000149500008F
:101CF0001A95000008B54FF02002EFF3118382F32C
:101D00001288BFF36F8F01F0A7F8034804F0CFF8F3
:101D100000F0A2FDFCE700BF209500004FF020027C
:101D2000EFF3118382F31288BFF36F8F0121044A0E
:101D3000C2F8401583F31188BFF36F8F00207047FE
:101D40000090035020B1034B800143F0010318477A
:101D5000704700BF108B0000104B70B51B680C461D
:101D60008BB10F4A116800228A4202DB6FF001003A
:101D700070BD1D4613F8106B864207D00132F3E7A1
:101D800000202560F4E76FF00C00F1E7E86804F04C
:101D900054F90028F4D16FF01200E9E70CC50020D7
:101DA000D08B000070B588B005460C46C0B26946BD
:101DB0001646FFF7D1FF00281FDB009BEBB15A68E6
:101DC000216802929A68D868CDE90326002201951D
:101DD000CDE90612059203F097FA0546009804F043
:101DE0002EF96DB12846084901AA04F0B2FD079802
:101DF00008B9059B236008B070BD6FF01500FAE7C5
:101E00006FF01200F7E700BF03610000014803F024
:101E10003DBC00BFD48B0000F7B5244E306883680A
:101E20005B6C03B19847306883685B6BA3B9204C47
:101E3000204D306883689B698BB101220DF1070149
:101E4000984701280BD1236893B92B684BB94521DA
:101E5000194804F0E5F802E098470028E7D103B0FC
:101E6000F0BD69681A688B422A6000D16A602360FD
:101E7000124A9DF807001188B1F5007F04D223684B
:101E80004F1C0B44178018720A28D2D100202368F7
:101E90001188186059600A494D6825B9C1E90033B5
:101EA00010802060C4E72B604B60F9E7BCDF0020A6
:101EB0009CDB002094DB00204D9500009CE000207E
:101EC000B4DF0020044B10B5044618688368E1B203
:101ED0005B689847204610BDBCDF0020F8B5064679
:101EE0000F4615464FF02003EFF3118C83F3128851
:101EF000BFF36F8F18490B6843B1184A5068984276
:101F000004D000241C6090B9C2E90033144B186857
:101F100028B15C680268A0421A6008BF5A608CF35E
:101F20001188BFF36F8F086020B92860F8BD036087
:101F30005360EBE7446800F10801A742D8BF07F1FE
:101F4000FF342246304604F0C8FB002333550123FA
:101F50002B60E018EAE700BFA0DB002094DB002044
:101F6000B4DF002037B500251C4B1D4AC3E90055DE
:101F70001C4B1D4C1D4803F502711360C3F8085239
:101F800019605160206006F0F0FB10B32068836890
:101F900023B19B6C13B12A46154998472068836882
:101FA0005B6B0BB1984748B1206883689B6903B9A4
:101FB000FEE701220DF107019847F4E700250D4BDC
:101FC00020681D8083689B6A33B19847284603B018
:101FD00030BD4FF0FF30FAE71846F8E7B4DF0020D5
:101FE00094DB0020A4DB0020BCDF00204088000040
:101FF000191E00009CE0002040F6061300202DE989
:10200000F043DFF8EC90D9B0D9F80010ADF8083003
:10201000384BDFF8E4801F680B78A7EB0807013323
:102020000B707BBA4B808B8808225BBA8B80487020
:1020300003F009FF3A464146ADF80C0003F003FFF8
:1020400002252E4E40BA3368BCB2ADF80C00022116
:1020500002A85B68984704F10A035BBA0DF10E0110
:10206000022205A8ADF80E3004F037FBD9F80010B5
:1020700008220DF11600ADF80E5004F02EFBBDF84D
:102080000E0005AB083080B23A464146ADF80E006E
:10209000184404F022FBBDF80E0005AB204480B2CA
:1020A0002A46ADF80E0003A9184404F016FBBDF84B
:1020B0000E3004AA2B449BB2ADF80E300093BD2124
:1020C00005AB28A8FFF7D8F904993368ADF80E10CE
:1020D00028A85B6889B29847336829465B68084836
:1020E00098474921074803F09BFF59B0BDE8F083AA
:1020F000C4DF002010C500209FF90020C0DF0020B1
:10210000A6950000A995000037B50E4C05460A219A
:10211000204604F0F8F96B460B4A92E8030083E886
:1021200003001946204604F0DFF92946204604F052
:10213000D2F90A21204604F001FAFFF75DFF03B04F
:1021400030BD00BF10C50020E08A0000F0B50C686B
:10215000164F85B002380D46C4F500710090144B3F
:10216000381903AA0131FFF707FA0446D8B92B68DA
:10217000039A1344022B2B6012D93E88023B76BA95
:10218000B6B29E420CD13246B91C03F05CFE38B99F
:10219000022E05D92B68023B1F442B60BC70012422
:1021A000204605B0F0BD4FF0FF34F9E71FFA0020DC
:1021B00022FC0020034A044B13608033D3600023C9
:1021C0009360704710C500209FF900202DE9F0476B
:1021D00007290446A8B040F2B680027812F0FD0547
:1021E00040F0B1804388A1F108065BBA9BB2B342CC
:1021F000C0F0A980A14B186083885BBA8380FFF789
:10220000D9FF8088012840F0EF81E77947B1012F9D
:1022100000F0AD80082028B0BDE8F047FFF774BF9C
:102220000146974E974804F06EF996E8030008AB14
:1022300083E803001946934804F056F905219148B4
:1022400004F055F9DFF840823C4606F108071036E5
:102250002146002003F085FB07A9C0B2FFF77CFDF3
:102260000546002864D12023014610AA079803F0F0
:10227000E7FE109B43456BD0844B1D68079803F025
:10228000DEFE834B1B68AB4252D114217D4804F023
:102290003AF997E803000AAB83E803001946794846
:1022A00004F022F92146774804F015F996E8030076
:1022B0000CAB0DF1600983E803001946714804F086
:1022C00013F99DF85410484603F04CFF4FF02E0AC6
:1022D00028AB451C18449DF8551000F840AC09EB9C
:1022E000050003F03FFF28AB2844451C1844BDF807
:1022F000561000F840AC09EB050003F033FF28ABA3
:1023000005442B440135169903F840AC09EB050050
:1023100003F028FF4846CDF8389004F0A2F90EA942
:102320000F90584804F0E0F81421564804F006F9DC
:1023300064B10521534804F0FEF82146514804F0E9
:10234000FDF8FFF759FE28B0BDE8F08701247FE7CC
:102350004023019318AB2946CDE90355029500931C
:102360002846079B10AAFEF729F9054686E731465D
:102370000AAB18AA04F10800089500F059FA08B948
:10238000032434E00A9B9E42FAD14FF0FF342A46E0
:102390002846A2462646A146A846279F18AB974244
:1023A00055D1B9F1FF3F08BFB6F1FF3FE8D0B8F112
:1023B000000FE5D0002103F0D4FA08A9C0B2FFF75E
:1023C000CBFC0028DCD156EA0903324F08D1089B28
:1023D00038609B68A34270EB0A03D1DB2E4B1C6074
:1023E00000243B684C4508BFB3425BD00024224622
:1023F00049212A4803F014FE294D0A21214804F0FE
:1024000082F895E8030010AB83E8030019461D48E5
:1024100004F06AF821461B4804F05DF86CB9D5E970
:1024200008010EAB83E803001946164804F05CF877
:10243000184B1448196804F04EF80A21114804F0AA
:102440007DF8FFF7D9FD089803F0F9FD7BE7197ACD
:10245000032904D8DFE801F00206090D18680132EB
:102460000C339CE7D3E90085F9E71C684FEAE47A6E
:10247000F5E71E684FEAE679F1E700BFC4DF002008
:10248000E88A000010C500203DB8F39600C5002082
:102490002CC70020C8DF0020D8DF00207C96000079
:1024A000E08A0000DFF86CA12B44DAF800209342A8
:1024B0003FF666AF089803F012FEB5FBF0F606FB98
:1024C0001050C6B23868DAF8003042199A4202D287
:1024D0000EB1AD1B26460CA92844FEF755F804465C
:1024E00020B145214C4803F09BFD80E7DFF82C919B
:1024F0000C9AD9F800309A4212D049214848C9F8BC
:10250000002003F08DFDDDE90C12089803F0D0FDEA
:10251000044628B122464521424803F081FD66E782
:102520003A6849214048AB1803F07AFD002E42D0AA
:10253000AC1B2BD0234642463968089803F09CFD1B
:1025400000287FF41DAF35463B68A04423443B6020
:102550003246414610A804F0C0F8089803F0C8FDC0
:1025600010AB0146C6F10802981904F0C1F8089CA6
:102570003E68204603F0B3FD31460346204610AACC
:1025800003F07AFD00287FF4FBAE01E0002DDFD1DF
:102590003B681D44DAF800303D609D427FF426AF71
:1025A000089803F091FA0CA9FDF7EEFF044638B144
:1025B00045211E4897E72B46424639680898DFE7D1
:1025C0000C9AD9F800309A427FF610AF492114488E
:1025D00003F026FDDDE90C12089803F069FD0446BE
:1025E00000283FF404AF95E700287FF413AEE379A9
:1025F000012B3FF410AE052B03D0002B7FF40AAE65
:10260000A1E6FFF781FD0A4806F0C3F80120FFF7B5
:1026100071FB00BFD8DF0020B195000024C5002069
:10262000DC950000FF950000229600004296000015
:1026300090D0030001232DE9F34100240646DFF882
:102640009C80274D88F80030264B274F0094186057
:1026500000F002F9254BC4F50071C3F8005601AA39
:10266000C3F804560131C3F808563819C3F80C569C
:10267000C3F81056C3F81456C3F81856C3F81C56BE
:10268000336898470028019B00DC33B104445BB9F0
:1026900040F201239C4200D1002498F80030002B26
:1026A000D6D102B0BDE8F0813B78062B09D17B780A
:1026B000092B0BD1002300936946A01EFFF746FDAE
:1026C00004E0042B02D17B78142BF5D00128E3D150
:1026D000009907480239FFF779FDDDE79EF90020F0
:1026E0003546526EC0DF002020FC002000800150E3
:1026F00021FA002030B585B005460C4603F01EFED9
:1027000020B9002404F0010005B030BD0C2304F111
:102710003C02CDE9014305210120054B009503F062
:102720001DFE0446284603F017FE0028E9D0E9E71D
:102730003527000073B504460E4603F03DFF0546FD
:1027400038B3364B6946009305232046019303F0C6
:10275000F2FD38B13146204603F0A1FD10B100234F
:10276000337240E0204603F02AFFA8B12C4B6946A3
:10277000009304232046019303F0DDFD60B1314650
:10278000204603F0D5FD38B101253572204603F00F
:102790001AFF284602B070BD204603F010FF78B142
:1027A000204B6946009303232046019303F0C3FDA9
:1027B00030B13146204603F072FD08B10223CFE765
:1027C000204603F0FCFE80B10325174B69462046E6
:1027D0000093019503F0AFFD38B13146204603F078
:1027E0005EFD10B135720125D0E7204603F0E7FE0B
:1027F00008B90025CAE70D4B69460093032320461C
:10280000019303F098FD0028F3D03146204603F0F1
:102810008FFD0028EDD00423A2E700BF7D920000C9
:102820008A9600008F960000A29500009396000003
:102830001FB54FF0020C0124CDE9014C024C00946D
:1028400003F0C5FE04B010BDF526000001491022BA
:102850000A60704710ED00E072B6404080F31188C6
:10286000BFF36F8FBFF34F8F30BF62B6BFF36F8F71
:10287000704700BF72B6494081F3118820BF80F3D2
:10288000118862B6704700BF37B505460C46C9B11E
:102890008B6810480093D1E90023452103F0C0FB69
:1028A000636945210093D4E903230B4803F0B8FB87
:1028B0004521E269094803F0B3FB4521A2690848B4
:1028C00003F0AEFB2146284603B0BDE8304002F0DD
:1028D00045BD00BF97960000CB960000FF96000014
:1028E0001397000043B2002B08DB012200F01F0009
:1028F00002FA00F0024A5B0942F82300704700BF69
:1029000000E100E0054B420953F82220012300F0CA
:102910001F0003FA00F01040704700BF00E100E024
:1029200043B2002B01F10101ACBF03F16043064B40
:102930004FEA4111C9B2ABBF03F5614300F00F008C
:1029400083F800131954704714ED00E030BFFFF70F
:10295000FDBF00BF0B4A08B50B4B22F07F029A6007
:10296000BFF34F8FBFF36F8FD3F8882022F470022C
:10297000C3F8882002F048FD02F08CFD00F030FA28
:1029800002F04EFD0000000000ED00E01EF0040F1C
:102990000CBFEFF30880EFF30980816911F8021C86
:1029A0000229FFD001B503F044FE01BD04460846EC
:1029B00011461A46002383F30B880A4B2025A3F502
:1029C000205686F30B8883F3098863B64FF0000323
:1029D00083F31188BFF36F8FA04785F31188BFF38E
:1029E0006F8FFEE76826012001B5EFF30580A0F1A7
:1029F00010004FEAC0000449014409C99847BDE8E6
:102A0000014002490847000070880000112A0000B8
:102A1000704700BF38B5214C4521214803F000FB29
:102A2000A36A9D0103D545211E4803F0F9FAA36A64
:102A3000DC0103D545211C4803F0F2FA174DAC6ABE
:102A400014F4801404D04521184803F0E9FA022454
:102A5000AB6A180303D54521154803F0E1FA0F4D81
:102A6000AB6A590303D54521124803F0D9FAAB6A82
:102A70009A0303D54521104803F0D2FA074DAB6AFB
:102A8000DB0303D545210D4803F0CAFAAB6A2046A3
:102A90006FEA03436FEA1343AB6238BD00ED00E019
:102AA00046970000639700007B9700009A9700000C
:102AB000C9970000EC9700001698000035980000B8
:102AC00070B5234C06460D462248452103F0A8FA6E
:102AD000A36AD90403D545211F4803F0A1FAA36ACC
:102AE0001A0503D545211D4803F09AFA184CA36A2C
:102AF0009B0510D51A48452103F092FAA26BA36AF0
:102B0000180408D54521174803F08AFA1EB1A36AB4
:102B100023F40043A3620E4CA36A590503D5452153
:102B2000114803F07DFAA36ADA050BD545210F4859
:102B300003F076FA0020064A936A43F47F439362D7
:102B4000287070BDA36A9B04F4D545210848EFE7BF
:102B500000ED00E065980000809800009698000065
:102B6000AE980000CC980000E6980000069900009E
:102B70002399000070B5264C06460D462548452190
:102B800003F04EFAA36AD80603D54521224803F084
:102B900047FAA36A190703D54521204803F040FAF4
:102BA0001B4CA36A9A0710D545211D4803F038FA3B
:102BB000626BA36A1B0608D545211A4803F030FA58
:102BC0001EB1A36A23F08003A362114CA36ADE073F
:102BD00003D54521144803F023FAA36A980603D5C8
:102BE0004521124803F01CFA0020094B9A6AD106CD
:102BF00058BF9A6A9A6A920642BF5A6A22F40052F1
:102C00005A62034A936A43F0FF039362287070BDCF
:102C100000ED00E0579900007299000096980000BE
:102C2000AA990000C7990000E299000023990000CA
:102C30002DE9F041544B0F465E6800258AB0C6F37B
:102C4000080485F31188BFF36F8F02F07F43B3F15F
:102C50007F4F07D102F00C03082B05D145214B48CB
:102C600003F0DEF92F4603E0120701D407460125E1
:102C70004FF00008E31E8DF80780092B72D8DFE8BB
:102C800003F005666A6371717171716E3E4E452184
:102C90003F4803F0C5F9F46A8DF8078014F0020488
:102CA00005D045213B4803F0BBF9002406E0F36A58
:102CB000002B1DDA4521384803F0B2F99DF80730A2
:102CC0009BB92022394602A803F007FD099B002D7D
:102CD00055D0C3F3080222B96FEA53236FEA4323A6
:102CE0000993204602A9FFF7CFFD0AB0BDE8F081A5
:102CF000F36A5B00E2D54521284803F091F9BB69EE
:102D000033F8022C4DF602739A4209D096F8283017
:102D10006BB101200DF10701FFF72CFF0446CDE751
:102D200045213A681E4803F07BF93C68C6E796F8EF
:102D300029302BB101200DF10701FFF7C1FEEDE7AE
:102D4000738D9BB2002BB9D0FFF764FEE6E700203D
:102D50000DF10701E0E700200DF10701EDE7452146
:102D60001048A0E7104916F4F87F104A104808BF31
:102D70000A46A4F11003452103F052F995E723F424
:102D8000FF7323F00103ABE700ED00E0349A00008D
:102D9000649A0000809A0000A69A0000B99A000088
:102DA000DD9A0000FE9A0000069A00001B9A0000BF
:102DB000279B0000044B5A6942F010025A615A697D
:102DC00042F480625A61704700ED00E0EFF3088042
:102DD000EFF3098101B57246FFF72AFF01BD00BF7D
:102DE000002320210348C2180133412B82F800132D
:102DF000F9D1704700E100E0002080F31488BFF3B0
:102E00006F8F002080F30A8880F30B8805F0C6FCE2
:102E100000200E490860BFF34F8F0D4880F30888EB
:102E200000F03EF8202080F311880A484FF400613A
:102E3000401880F30988EFF314800221084380F3DF
:102E40001488BFF36F8FFFF785FD000094ED00E05D
:102E50006826012068260120BFF34F8F0549064BE5
:102E6000CA6802F4E0621343CB60BFF34F8F00BF28
:102E7000FDE700BF00ED00E00400FA05002318465E
:102E80000649D1F89020C2F30722934200D170473F
:102E9000C1F89830C1F8A0000133F6E700ED00E07A
:102EA00010B572B6002484F31388FFF7E7FF2346BA
:102EB0004FF0FF300B4A03F120010133102B42F891
:102EC0002100F8D100234FF0FF3003F160010133FE
:102ED000102B42F82100F8D162B6BFF34F8FBFF339
:102EE0006F8F10BD00E100E00121024B024A034850
:102EF00000F01EB90000042000C50020DC8B00009B
:102F000010B50B680C7A23F01F0204F01F031A435C
:102F1000CB68640923F01F03054943EA440343F0E7
:102F20000103C1F89800C1F89C20C1F8A03010BD81
:102F300000ED00E030B54B680C6885B00A894D891A
:102F40000094013B24F01F04234402F01F0242EAD4
:102F5000451223F01F030F2804468DF80820039321
:102F600009D902464521064803F05AF86FF01504C6
:102F7000204605B030BD6946FFF7C2FFF8E700BF45
:102F8000439B00002DE9F04F8946144606464FF05A
:102F90000008584D85B0C84527DAD6F804A0BAF124
:102FA000000F44D0BAF11F0F18D91AF01F0F15D116
:102FB000D6F800B01BF01F0F10D1584603F048FBA5
:102FC00007460AEB0B00013803F042FB874210D0A2
:102FD0006FF015073A464521474802E04246452131
:102FE000464803F01DF86FF01504204605B0BDE813
:102FF000F08F17F1160FEDD0BC42EBDDC5F89870DD
:10300000D5F89C10C5F89870D5F8A03021F01F01B4
:1030100043F01F0BD6E900321A44994202F1FF3AFD
:103020001DD1D34507D13146F8B2FFF783FF08F130
:1030300001080C36AFE73146C5F89870D5F89C30DA
:1030400022F01F0203F01F031A43C5F89C20E0B2D0
:10305000FFF770FF10F1160FC5D0441CE7E7013BE6
:10306000D345E0B223F01F03C5F8987008D1D5F816
:10307000A020314602F01F021343C5F8A030E7E755
:10308000D5F8A01001F01F010B43C5F8A030314660
:10309000FFF750FF10F1160FA5D0C5F89870D5F8BE
:1030A0009C209DF808300BF1FF3B62F304038DF880
:1030B0000830D5F8A0309DF808205B0863F347126C
:1030C000D6E900310B44009323F01F0301305B4429
:1030D000A3EB0A03C0B223F01F030F288DF80820CA
:1030E000039303D90246452105487AE76946FFF76D
:1030F00007FFB2E700ED00E0969B00006E9B00002A
:10310000439B00000522044BC3F89420BFF34F8F6C
:10311000BFF36F8F704700BF00ED00E0BFF35F8F1C
:103120000022024BC3F89420704700BF00ED00E07E
:1031300010B5034C2278FFF725FF207010BD00BFAB
:1031400021FE002038B50E4D2C68102C15D800201B
:10315000FFF7E4FF0B4B0C4AC3F8C020844205D1B3
:103160000A4B00201C70FFF7CDFF38BD696801EBEA
:103170000011FFF7C5FE0130F0E74FF0FF30F4E734
:10318000E88B000000ED00E0AAFF440021FE0020D3
:10319000084B70B5C31A0D4607499B1004465943A6
:1031A0004022064803F0C9FA2B4601462046BDE8F6
:1031B00070401847ECDF0020B76DDBB6F8870000E1
:1031C000402373B50B4C0093041B0B460D460A4974
:1031D000A41061430646094A094803F0DBFA011EC0
:1031E00005DA30462B4602B0BDE87040184702B001
:1031F00070BD00BFECDF0020B76DDBB609680000D2
:10320000F887000070B50022012104460520FFF771
:1032100087FB0F4801F094FC0E4B984215D105F046
:1032200049FA26690C49304602F09DFE00280BDB66
:10323000012524690849356404F11C0002F093FE5D
:10324000002801DB0020E56470BD6FF00400FBE79F
:10325000913200000000AD0B448C000001460C23AD
:1032600000224B43084870B5C4184033D4E90E56C9
:103270001844A26303F04EFA2DB132462B46BDE846
:1032800070400248184770BDECDF0020F88700004E
:1032900010B1012804D07047034B1B6C5B0701D1B0
:1032A000FFF7DCBF704700BFECDF002008B54FF030
:1032B0002003EFF3118183F31288BFF36F8F124A5B
:1032C000136843F0020013F0010310600CD04FF0BC
:1032D0005022D2F80C34D2F80C2413F0010303D09E
:1032E0000A4803F017FA012381F31188BFF36F8FA7
:1032F00023B1BDE808400020FFF7B0BF0120BDE8C2
:10330000084005F0E5B900BF3CE000202CE00020BB
:10331000074BD3E8EF2F22F00201C3E8E01F00289B
:10332000F7D1D30702D4012005F013BA704700BFCC
:103330003CE000202DE9F843012207463549D1E859
:10334000EF3FC1E8E02F0028F9D133B932493348C3
:103350004B60CB608A6002F019FE7B1E012B31D8D6
:10336000012F07D14FF05023D3F81C3403F003038F
:10337000022B27D005F007FA044618B9284B1B7812
:10338000002B3FD14FF02003EFF3118683F3128817
:10339000BFF36F8F01244FF050254FF00008DFF886
:1033A0008490D5F81834D5F81824D2030CD503F03E
:1033B0000303022B01D0012F06D1ECB186F3118853
:1033C000BFF36F8FBDE8F8833046FFF753FAD5F8A7
:1033D0001835DBB2012BE4D1D5F80421002AE0D066
:1033E000C5F80481D5F804210222C5F81825202249
:1033F000C9F88021AB60D4E74FF050230222C3F814
:103400000423DFE74FF0502302220646C3F80823C7
:10341000C1E700BF40E00020DCDF002008E0002022
:1034200066FE002000E100E030B5406801F01F05B5
:10343000047BB2F5001F45EA441585B04FF0000447
:1034400004D1284601F008FE00202CE0B2F5800FE0
:10345000CDE9024429D1B3F1007F0CBF0423052339
:103460008DF80830836823FA01F1C90729D4B2F135
:10347000A07F26D11B4A05F01F03803352F823306A
:10348000DB071ED40DF107042146284601F04CFD50
:10349000154B984214D1204601F094FD134B9842ED
:1034A0000ED06FF00B0005B030BDB3F1C06F05D08A
:1034B000B3F1007F0CBF02230123D1E70323CFE741
:1034C000039400232846194602AA01F003FC074B87
:1034D000984204D10121284601F07AFDB4E76FF04B
:1034E0000400E0E7002584500400AD0B0000AD0BA4
:1034F00010B501F057FD044668B901F02BFD084BEB
:1035000098420AD12146074801F008FD22460521CC
:103510000D20FFF705FA002010BD6FF00400FBE757
:103520000000AD0B29350000430970B510D1094BDF
:10353000596869B101250C68074E85408A682A40A0
:1035400002D030464B68984714B121462468F5E70D
:1035500070BD00BF44E00020108800002DE9F0435A
:10356000476801F01F053B7B0E46144685B045EACF
:103570004315CAB902A9284601F0D6FC04462846DC
:1035800001F092FD494B984204D06FF0040005B061
:10359000BDE8F083844205D19DF8080001F00CFDE0
:1035A000A042F2D10020F2E74FF000090DF1030133
:1035B0002846CDE9029901F0B7FC4B4680464946C2
:1035C000284602AA01F086FB384B984202D06FF0E1
:1035D0001500DCE7804503D19DF8030001F0ECFC09
:1035E000A3034FD540F2066340F2062223409342E4
:1035F0003AD00CD8062B15D004D89BB1022BE6D1BB
:1036000004230FE0B3F5007FE1D101230AE040F28B
:10361000024293422AD0B3F5C06F29D0B3F5806F30
:10362000D5D102238DF8043084F48033C3F30043F2
:10363000E0068DF805304CBF0323C4F3401321038B
:103640008DF8063016D501217B6801FA06F69E60DA
:103650000022284601A901F0E7FB144B984214BF51
:103660006FF01500002092E70723DBE70523D9E779
:103670000323D7E7620341BF01217B6801FA06F605
:10368000DE60E5E7E3064FF000034CBF0324C4F31C
:1036900040141A46284601A98DF8044001F01AFB8F
:1036A000024B98423FF47EAF91E700BF0000AD0BA4
:1036B000024B0B6001231360704700BF50E00020F5
:1036C00000487047988C000010B505F04AF8034C8C
:1036D000206005F043F86060002010BD50E000203D
:1036E000F8B50E46144605F039F821460546304631
:1036F00003F0E3F83746F8B1B6FBF5F305FB1363C7
:1037000023B9B4FBF5F005FB104040B12346324627
:1037100045210C4802F084FC6FF015000BE0A54237
:1037200009D805F01BF80546384601F09FFD641BDB
:103730002F44F9D12046F8BD2346324645210248A0
:10374000E8E700BFED9B0000119C0000F8B50E46B5
:103750001946304617461C4603F0AFF840B92346D9
:1037600032464521124802F05BFC6FF01500F8BDAF
:1037700044EA060515F0030504D0234632464521E8
:103780000C48F0E78CB124F00304AC4205EB0600D2
:1037900006D1094AD2F80034DB07FBD50020E6E762
:1037A000795901F081FD0435EFE72046DFE700BFDE
:1037B000119C0000339C00000090035070B50D4632
:1037C0001946284616461C4603F077F840B90948C2
:1037D00023462A46452102F023FC6FF0150070BDF8
:1037E00034B122462946304602F077FF0020F6E742
:1037F0002046F4E7119C0000F8B505460E4607691F
:1038000004F0C1FF10B91E4B1B78A3B94FF0200381
:10381000EFF3118483F31288BFF36F8F686803F0AE
:103820008EF900BB84F31188BFF36F8FEEE784F34A
:103830001188BFF36F8F6424686803F080F928B99A
:10384000012004F0E9FE013CF6D1F4E74FF020033B
:10385000EFF3118483F31288BFF36F8F686803F06E
:103860006EF90028E3D07B6901221E7079696868CF
:1038700003F04AF984F31188BFF36F8FF8BD00BFDE
:1038800066FE0020F0B54B79012B26D0032B21D109
:1038900010268B79032B1DD1CC790CB1012C19D1B9
:1038A0000A7912B1022A15D10E220B684568B3F5C8
:1038B000164F2D6865D02DD8B3F5165F64D016D895
:1038C000B3F5966F62D00AD8B3F5967F61D0B3F5A1
:1038D000167F61D06FF0850052E00026D9E7B3F57E
:1038E000166F5CD0B3F5965FF4D1374B3CE0B3F57F
:1038F000E14F57D007D8B3F5615F55D0B3F5964F78
:10390000E8D1324B30E047F61227BB42E2D14FF408
:10391000000329E0B3F5613F48D013D8B3F5963FD3
:1039200047D009D84DF6C027BB4244D0B3F5614F0C
:10393000D0D14FF46B0317E0B3F5E13FCAD14FF09C
:10394000EB7311E0B3F5612F38D008D8204FBB429C
:1039500037D0B3F5E12FBDD14FF0E86304E01D4F40
:10396000BB42B7D14FF0805300693443C5F82435CA
:103970002243031DC5F86C2503C983E8030000201A
:10398000F0BD4FF41D03EFE7134BEDE74FF49E231B
:10399000EAE74FF4A033E7E74FF41C33E4E74FF4D2
:1039A0001D23E1E70D4BDFE70D4BDDE74FF06C73B7
:1039B000DAE70C4BD8E74FF46503D5E74FF07063B7
:1039C000D2E74FF08063CFE700B0130000A04E00B5
:1039D00090D0030040420F000050270000C0750047
:1039E00000F03A0000903A012DE9F7430021D0F8A9
:1039F00004800669D8F80040D8F80C90C4F8001587
:103A00000746306001AA484603F05CF9051E1FDB3B
:103A1000019BD9F800201979186800F0B5FA051E45
:103A200016DB3846311DFFF72DFF054680B9D8F863
:103A3000043099071CD506F11C0001F0C5F8214B94
:103A4000984209D04521204802F0EAFA6FF00405B7
:103A5000284603B0BDE8F083327F42F00043C4F84B
:103A6000A031C4F88C3001239340184AC2F80435C1
:103A70000823C4F8003598F8083053B9C4F8103159
:103A8000D4F81031B369C4F834350123C4F838359B
:103A90002360D8F804309A075CBF4FF48072C4F8F2
:103AA0000423DB0644BF4FF48003C4F80433736976
:103AB000C4F844350023C4F848350123A360E3600B
:103AC000C6E700BF0000AD0B609C00000070015015
:103AD0000123834010B5DC430D4AD2E8EF1F01EA11
:103AE000040CC2E8EECFBEF1000FF6D14FF48032E5
:103AF00002FA00F002F15022C2F80803BFF35F8F10
:103B0000BFF36F8F0B4214BF0120002010BD00BF18
:103B10005CE000201949F8B5044622F07F450868AA
:103B2000C1E90023A5F50013101AB3F5400F22D206
:103B3000134B1B681A0A1B065E19124B42F1000751
:103B4000C3E90067012601F001FDA30003F1502342
:103B500003F58033D3F84025AA420BD11EB94FF4A8
:103B60000002C3F840254FF48030074B00FA04F4FC
:103B7000C3F84443F8BD0026E5E700BF98C600201F
:103B800060E0002080C6002000500150E1B1012318
:103B90000E4A8340D2E8EF1F1943C2E8EC1FBCF184
:103BA000000FF7D14FF48033094A8340C2F8043341
:103BB000084BD3E8AF3F23FA00F0C30742BF4FF4EE
:103BC0000012054BC3F80021704700BF5CE00020E5
:103BD0000050015058E0002000E100E00D4B186853
:103BE000010A0006BFF35F8F0B4BD3F8043518189A
:103BF00041F10001B3F5801F0AD2084BD3E900233D
:103C0000904271EB030303D210F1807041F1000187
:103C1000704700BF60E000200050015080C60020C7
:103C20002DE9F04F85B0164698460546FFF750FF40
:103C30000090FFF7D3FFB04271EB080376D2434BFD
:103C4000301A68EB0101984271F100037BD2404BBE
:103C500003EB0513D3E902ABD84508BF564550D056
:103C60004FF4803326F07F4214464FEA850905F170
:103C7000500709F15029BF00AB4009F58039BFB2A8
:103C800007F150270193D9F84005324B07F58037EB
:103C9000D3F80415401A20F07F4021F07F4C012812
:103CA000C9F840C507D1CDE90221132004F071FD08
:103CB000DDE90221274B01F1020CA4EB0C0020F0FE
:103CC0007F40B0F5000F88BF644600203860386838
:103CD0000198C3F8440324F07F40C9F84005D3F8A5
:103CE0000405814206D0201A023820F07F40B0F54A
:103CF000000F19D8A41A24F07F4414EB060A48F1E7
:103D0000000B002412490E982B0101EB0512C8503C
:103D1000C2E902AB0F9B536028460099FFF736FFBC
:103D2000204605B0BDE8F08F2046B1E701230A4ADE
:103D3000AB40D2E8EF1F1943C2E8E01F0028F8D1DA
:103D4000B246C346DDE76FF01504E5E70100000168
:103D500088C600200050015058E0002073B50024B0
:103D60004FF0FF304FF0FF31164D174BC5F80845A7
:103D7000C3E902014FF4803302264FF40012C5F864
:103D80000433124B0121C5F804631520C3F88021C8
:103D90002246FEF7C5FD1520FEF7A4FD01230C4ABF
:103DA000AB602B6013600B4B0B4A00932046002343
:103DB0000194FFF735FF3046FFF7BCFA204602B00A
:103DC00070BD00BF0050015088C6002000E100E037
:103DD0005CE00020153B0000FFFF7F00354B2DE924
:103DE000F743D3F8042391070BD5D3F8042142B14C
:103DF0000022C3F80421304AD3F804311368013398
:103E000013604FF02003EFF3118183F31288BFF3A7
:103E10006F8F284BD3F80423D2030ED5274AD2E85C
:103E2000EF0F20F00104C2E8E54F002DF7D1002884
:103E300037D1D3F84021002A33D1002381F31188F0
:103E4000BFF36F8F53B3FFF7C9FE4FF02003EFF3BB
:103E5000118783F31288BFF36F8F194BD3E90245A3
:103E6000A04271EB05024FF0000221D3D3E9001606
:103E70004FF0FF384FF0FF391A604FF48032C3E93A
:103E800002890C4BC3F8482387F31188BFF36F8F67
:103E900021B122462B4600200096884703B0BDE89A
:103EA000F0830022C3F84021D3F840310123C5E755
:103EB0001146E9E70050015060E0002058E0002082
:103EC00088C60020431C13B520D0012820DDB0F5A2
:103ED000000F1FDA441EFFF781FE0F4BD3E90013DA
:103EE000401AB0F5000F28BF0024013002190B481A
:103EF000824228BF024600205218094901900091D1
:103F000043F10003FFF78CFE02B010BD0348E1E768
:103F10000024E0E7014CDEE798C60020FFFF7F00A9
:103F2000153B000008B5FFF759FE024B1B68C01A8D
:103F300008BD00BF98C6002000F01F030120984074
:103F4000024B09B9D86070479860704700258450CB
:103F500000F48053002B18BF002110B50CBF14468D
:103F6000012400F01F03C0F3811200F4706040EAE6
:103F700082020A43034942EA4402803341F8232083
:103F800010BD00BF002584502DE9F0411446804645
:103F90000125414E00EB8107B84502D10020BDE864
:103FA000F081D8F800301A0C192A72D8DFE802F034
:103FB0000D1A2146263A46717171714B507171711B
:103FC0007171717171715562676C03F03F03C4F8D0
:103FD0000C35D8F8003003F01F0305FA03F3B36083
:103FE000012204E003F03F03C4F814350022114617
:103FF00011E003F03F03C4F80835EAE7002201218D
:1040000003F03F03C4F80835D8F8003003F01F036D
:1040100005FA03F3F360D8F80000FFF799FF08F101
:104020000408B9E703F03F03C4F80C35D8F80030B2
:1040300003F01F0305FA03F3F360D1E703F03F0336
:10404000C4F81035D2E703F03F03C4F80835CDE7D4
:1040500003F03F03C4F80C35C8E703F03F03C4F88E
:104060006035D8F80000C0F3403100F03F00FFF7A2
:1040700063FFB5E703F03F03C4F86435F1E703F0ED
:104080003F03C4F86835ECE703F03F03C4F86C3530
:10409000E7E76FF0850082E700258450034845215B
:1040A00008B501F0BDFF0020FEF7D6FEA29C00007F
:1040B00030B5816885B0103921F00704054602F05B
:1040C00017F810220146684602F012FB10226846DB
:1040D000064902F002FB10236A462146284601F0F9
:1040E000CBFF003818BF012005B030BD048F0000A1
:1040F00030B50C46816887B0102302AA10390546F6
:1041000001F09EFF002802DA012007B030BD102226
:10411000284602A902F0F9FD90B303232370284634
:1041200002F004FE012301460DF10702284601F0CA
:1041300087FF0028E8DB9DF80730284603F00F02D0
:104140001B096270237101220DF1070102F0DDFDF0
:1041500010B96378042B03D9012363700023237102
:10416000AA682846183A22F00702083AA11C02F071
:10417000F7FD0028C8D12846E11C02F04BFEC4E739
:104180001022044902A802F07FFA002814BF02237B
:104190000123C3E7048F00002DE9F04385B00646F4
:1041A0006946022002F03CFE054618B1FF2005B02A
:1041B000BDE8F083062002A902F032FE0128044681
:1041C0003FD1324649212C4801F02AFF03238DF8C4
:1041D00009408DF808308DF80A308DF80B308DF8D5
:1041E0000C5000229DF800509DF808609DF8037067
:1041F0009DF80B809DF80290204C2946207802F013
:104200009BFD18B33146607802F096FDF0B1A378BB
:10421000042B01D0BB4219D1E378042B01D04345D4
:1042200014D12379042B0FD16379022B19D1144AAD
:104230001448492101F0F4FE6079831E022BB6D99F
:10424000B4E70028CDD0B1E74B45EDD00132032AC9
:1042500004F10604D1D10C48492101F0E1FE01200E
:10426000A5E7032B05D0094A0949042B18BF0A46C4
:10427000DEE7084ADCE700BFE79C00005A9D00002B
:10428000CB9C0000329D0000459D0000C49C0000B6
:10429000D59C0000D09C000001680E4A0346914264
:1042A00015D1C169A2F11022A2F1EF1291420ED1F3
:1042B0008268012A0BD8C26812B101698A4206D00D
:1042C000586928B19B691B1A584258417047012010
:1042D000704700BF55AA00FF0D4B70B59E68A6B190
:1042E0003046FFF7D9FF044678B9F3686BB93569F2
:1042F0000DB9204670BD2846FFF7CEFF28B9EB6800
:10430000B34202D12E462D69F2E70124F1E700BF46
:1043100064E000202DE9F843404F3C68D4B1BC680C
:10432000C4B100284DD000294BD001FB00F5B5FBEE
:10433000F0F0884245D1281D43D8A9070DD025F0BB
:1043400003060436FC6803E06368B3423BD2A46909
:10435000002CF9D12046BDE8F8832E46F2E7F8603C
:1043600044E006F1200C04EB0C03203959600021D5
:10437000DFF8ACE0C3E902142169196144F80CE0EC
:10438000DFF8A0C0C3F81CC001B1CB60C3E90520B1
:10439000AAB193619A6902B15361236100234FF07E
:1043A0000109C4E905333B69C4E90169DB072DD57F
:1043B000FFF792FF50B31C4B48461B6825E0FB609B
:1043C000E8E70024C6E7A3681BB1174B01201B6870
:1043D0009847D4E90520616804F12008891B232946
:1043E000BFD80123A360002AB9D09061A36903B1AB
:1043F0005A610023C4E905333B69DA0706D5FFF7A4
:104400006BFF18B10120084B1B6898472A46002112
:104410004046444602F06CF99CE700BF64E000208F
:1044200055AA00FF669911EE94C500202DE9F041D0
:10443000054600287CD03F4F3B68002B78D0BA68F7
:10444000002A75D0834203D87A681344984203D374
:10445000394B01201B689847A5F120042046FFF73F
:104460001BFF18B1344B01201B68984755F8183CC6
:10447000012B03D0304B01201B689847002355F8CF
:10448000146C45F8183CAEB1B26892B955F81C3CB2
:1044900003F1200273681344736055F8103C3361D4
:1044A00003B1DE6020462022002102F021F92346DC
:1044B00034461E462069002832D08368002B2FD155
:1044C000636842682033134463600369D4E90521BB
:1044D0002361DAB901BB426981696261A161EAB114
:1044E0009461A26902B1546103B1DC602022002111
:1044F00002F0FEF83B699B071AD5FFF7EDFEB8B155
:10450000BDE8F0410C4B01201B6818479161A1697F
:104510000029E0D04A61DEE7F960F8E7FC60E0E7F7
:10452000002EE7D1FB68A36103B15C61FC60E1E7A9
:10453000BDE8F08164E0002094C5002038B50D4648
:10454000142200210446124802F0D2F81149124800
:1045500000F032F8232D1AD914F003031FBF043DD5
:10456000ED18C3F10403E4182A460021204602F0A6
:10457000BFF8074B094AC3E900459C602260A2F1DD
:104580001022203DA2F1EF126560E261DC6038BDCF
:1045900064E000202D4400001543000055AA00FFF0
:1045A000014B1B68184700BF90C50020014B1B68DA
:1045B000184700BF98C50020024B1860024B00202E
:1045C0001960704790C5002098C50020F8B500F12B
:1045D00008064768044630460D4602F0C6FF87428B
:1045E00016D16368B3F5807F12D80021304603F0FE
:1045F0001BF900280CDD0021304602F089FF38B19C
:1046000045B9002104F1140003F00EF900281EDC66
:104610001B481EE004F12C060021304603F004F98B
:104620000028F5DD0021304602F072FF0028EFD0AF
:1046300004F138060021304603F0F6F80028E7DDE3
:104640000021304602F064FF0028DAD1E0E70DB91E
:104650000020F8BD002104F1440003F0E5F8002833
:10466000D6DD002104F1500003F0DEF80028CFDD94
:10467000002104F15C0003F0D7F80028E8DCC7E76C
:1046800080BFFFFF70B500210446FFF79FFF05467E
:10469000B8B904F10806304602F04BFF7F2810D964
:1046A00014342946204602F033FF50B1204602F070
:1046B00040FF012805D93146204603F074F8002850
:1046C00000DB014D284670BD00BEFFFFF0B50C4673
:1046D00087B0002105461646FFF778FF80BB03A888
:1046E00002F06FFE21466A6803A802F044FF044608
:1046F000D0B905F10804214603A803F054F80028B6
:104700001BDA05F1680303A900930846234605F167
:1047100014026F6803F0AEFB044628B93A463146EE
:1047200003A802F049FF044603A802F050FE0CB1B2
:10473000A4F58544204607B0F0BD6FF00304F3E70D
:10474000004CF7E780BFFFFF0023C0E90033C1B989
:10475000194A1A4BDFF868C0C0E90223194B1A4AFC
:10476000C0E904C3194BC0E90623194B036203F1E6
:104770007453A3F52303A3F692434362816600209A
:104780007047144B144ADFF854C0C0E9022303F108
:10479000794303F5740303F501630361104BC0E92A
:1047A00005C303F1D14303F5C01303F51E63C361D1
:1047B0000C4B03620C4BE0E767E6096A85AE67BB0A
:1047C00072F36E3C3AF54FA57F520E518C68059BF3
:1047D000ABD9831F07D57C36D89E05C139590EF752
:1047E000310BC0FFA78FF964A44FFABE2DE9F04F3B
:1047F000D1B048AB019300F1080600F128030493FF
:104800003346019A53F8040B42F8040B0498834290
:10481000F8D1DDE948474FF000094F9B4CAD0293BA
:10482000DDE94AE30393454B06AA059395E8201179
:10483000B9F10F0F6AD84B7891F800B01B0443EA26
:104840000B6391F803B091F802A043EA0B0343EA2B
:104850000A234FEAF52080EAB51080EA756A8CEAEF
:104860000800DDF814B0284080EA0C0050445BF8E2
:1048700004AB936082440298534403444FEA743A71
:1048800044EA0700CDF814B08AEAB40A00EA0E0040
:1048900004EA070B8AEAB45A40EA0B00504409F1D3
:1048A0000109DDF80CA0B9F1400F9A44CDE902CE20
:1048B000034402F1040201F1040120D1CDE94D5875
:1048C000CDE94834CDF83CC1CDF830A14A970790E6
:1048D000CDF82CE106930199336851F8042B134469
:1048E00046F8043B049B0191B342F4D106A84FF46F
:1048F000947100F0D3FE002051B0BDE8F08FBE46A9
:10490000C4462746A8461C46554691E7136852F808
:1049100034BC4FEAF34A8AEA734A52F8380C8AEAFE
:10492000932A52F8143C03444FEABB4080EAFB1040
:104930009A4480EADB0353448BE700BF548D0000A8
:1049400008B54FF47F03D3F83021D3F83431BFF3E7
:104950004F8F092A01BF4FF050230022C3F81421C2
:10496000C3F8182103F047FE28B101224C4BC3F8CD
:10497000382AC3F878254FF47F03D3F83021D3F8D1
:104980003431BFF34F8F092A05D1012B1EBF0122FD
:10499000434BC3F8782503F02EFE18B10E22414B8D
:1049A000C3F8E42E4FF47F03D3F83021D3F8343129
:1049B000BFF34F8F092A06D10022394BC3F80C27C9
:1049C0000122C3F810270022D30003F57F03D3F898
:1049D0000013BFF34F8F013108D0D3F80013013219
:1049E000D3F80433B2F5807F0B60EDD12E4BDA693A
:1049F000BFF34F8FD10743D52C4BD3F80024012AA6
:104A0000FBD1C3F80425D3F80024012AFBD1264B9F
:104A1000DA69BFF34F8FD2070AD5DA6922F00102B3
:104A2000DA61BFF34F8F214AD2F80034012BFBD15A
:104A30001D4A136ABFF34F8F01330CD1136A23F061
:104A4000FF0343F020031362BFF34F8F174AD2F8DE
:104A50000034012BFBD10022144BC3F80425D3F8FA
:104A60000024012AFBD1BFF34F8F1149114BCA68B3
:104A700002F4E0621343CB60BFF34F8F00BFFDE74A
:104A80001B6ABFF34F8F0133B6D0094AD2F88C307E
:104A900043F44063C2F88C30074B084A1A6008BDE3
:104AA0000040005000A003500080FF000090035021
:104AB00000ED00E00400FA059CC500200090D00342
:104AC00070B501250268B2FA82F3C3F11F035E1CC0
:104AD000DCB210D005FA03F322EA0303D0E8EF6F4B
:104AE000964204D1C0E8EC3FBCF1000FF6D1E9D109
:104AF00002480C7070BD0248FCE700BF0000AD0B1F
:104B00000200AD0B036810B5CB40DB0711D40123C5
:104B100003FA01F1036841EA0302D0E8EF4F9C4237
:104B200004D1C0E8EC2FBCF1000FF6D1F2D102485D
:104B300010BD0248FCE700BF0000AD0B0400AD0B48
:104B4000044B1A7922B9012218601A710248704781
:104B50000248704778E000200000AD0B0C00AD0B60
:104B60004FF05023D3F8002110B552B10020C3F804
:104B70000001D3F800210122C3F80823114B1B6860
:104B800098474FF05023D3F804218AB10022C3F88C
:104B90000421D3F80421D3F81824D3F8181402F010
:104BA0000302012A4FF0020103D1C3F818159A60DD
:104BB00010BDC3F80813034B0120BDE810401B686B
:104BC000184700BF78E0002001460148FFF778BF92
:104BD000A0C5002000F01F02054800EB8200D0F8BD
:104BE000003223F4403343EA0143C0F800327047F7
:104BF00000258450034B083033F81000C0F34010F8
:104C0000704700BFA4C5002070B50D4C00F108032B
:104C100034F813300546DA050E4607D5C3F34323AF
:104C200004EBC302526854F833309847A3682BB1A1
:104C300031462846E268BDE87040184770BD00BFA5
:104C4000A4C50020124A083032F8103010B4D9053B
:104C50001BD5C3F3432123F4F85322F8103000206E
:104C600002F1100434F8023B13F4807F03D0C3F345
:104C70004323994209D001302028F3D1002305486D
:104C800010BC42F83130FFF73DBF10BC704700BF89
:104C9000A4C50020F8C5002038B50246FFF7AAFFDA
:104CA0000B4C02F1080560B1002134F815305B0BA4
:104CB0009B0003F1A04303F55043C3F81015C3F85C
:104CC00010151046FFF7BEFF002324F8153038BD3D
:104CD000A4C500202DE9F34104461D4609B34D4FFC
:104CE00000F1080837F81860B30706D5FFF782FF10
:104CF00018B1494802B0BDE8F081484B04F01F00EC
:104D000003EB8000D0F80032097823F00F0326F07F
:104D1000020643EA810346F00106C0F8003227F894
:104D2000186092B13B4B04F1080633F81610107866
:104D30008F0752680CD5002ADBD133F8162022F0F9
:104D40001C0242EA800023F81600CDBB3448D1E7AC
:104D500021F02001C904C90C23F81610002AECD058
:104D60000328C6D892F800C06246920002F1A04221
:104D700002F5504220B9C2F81005C2F81005DCE770
:104D8000D2F8107541EA4C3127F00307C2F81075CC
:104D9000D2F8107541F0200127F4473727F4407707
:104DA000C2F81075D2F810E5270207F4F8574EEA5A
:104DB000004E47EA0E07C2F8107523F81610BCE73C
:104DC0002046D5E90067FFF73DFF002EBED0114D0C
:104DD0002B689E4204D16B689F4201D1002209E0FA
:104DE00010480DF10701FFF76BFE0D4B984281D182
:104DF0009DF8072005EBC20308345F6035F81430D6
:104E000045F8326043EA422343F4807325F81430B6
:104E10009CE700BFA4C500200400AD0B0025845012
:104E20000000AD0BF8C50020F8B5044669B3374E55
:104E300000F1080736F81750AB0704D4FFF7DAFE85
:104E400008B13348F8BD15F01C0F4B7801D0012B89
:104E5000F7D0304804F01F0C00EB8C0CDCF800029B
:104E600091F800E05B0020F4E160897843EA0E23CA
:104E700020F00700034343EA810343F0010345F0B8
:104E80000305CCF8003226F817500AB92248D9E7B2
:104E90001E4E04F1080736F817008307D1D592F8A3
:104EA00000C00023614620F02000890001F1A041EC
:104EB000C00401F55041C00CC1F8103526F81700A8
:104EC000C1F810355578002DE0D0D1F81035927822
:104ED00023F4981323F4F853C1F81035D1F810E5F2
:104EE000230203F4F8532D0443EA0E0305F440357E
:104EF00012052B4302F4801240EA4C30134340F079
:104F00002000C1F8103526F81700BFE7A4C500201F
:104F10000400AD0B002584500000AD0B014BC3E92C
:104F200002017047A4C5002008B50246FFF762FEE3
:104F300038B1054B083233F8123004485B0B0B7064
:104F400008BD0348FCE700BFA4C500200000AD0B6E
:104F50000400AD0B38B50F4C94F85850BDB9402241
:104F6000294604F1100001F0C3FB0D20FDF7BAFC47
:104F7000094B0A48C3F87C51D3F87C214FF000421A
:104F8000C3F80423012384F85830636538BD04480E
:104F9000FCE700BFA4C5002000D000500000AD0B0E
:104FA0000500AD0B034B93F85800003818BF0120E3
:104FB000704700BFA4C5002001460148FFF7A2BD0D
:104FC000F4C5002001460148FFF77ABDF4C5002072
:104FD000024610B5FFF70EFE1C4B02F1080433F831
:104FE0001430E0B113F0020419D15B0B9A0002F106
:104FF000A04000F5514002F1A042046002F5504289
:105000000068D2F8100540F00100C2F8100529B17F
:10501000012202FA03F30E4AC2F8043310BDC3F3AF
:105020008203042B0ED0052B0ED00A4B196902F017
:105030001F03D94001F0010102311046BDE81040C4
:10504000FFF7C8BD0321F8E70221F6E7A4C5002059
:1050500000D000500025845008B50246FFF7CAFD75
:10506000C0B10F4B02F1080133F81130990711D488
:1050700001225B0B9A400B499B0003F1A043C1F84E
:10508000082303F55043D3F8102522F00302C3F898
:10509000102508BD0021BDE808401046FFF79ABD65
:1050A000A4C5002000D000500C4B00F1080233F8DA
:1050B000123010B5DB0704460DD5FFF7CDFF2046B3
:1050C000FFF7EAFD0222064B04F01F048034054876
:1050D00043F8242010BD0448FCE700BFA4C500200D
:1050E000002584500000AD0B0400AD0B2DE9F04FFE
:1050F000002501222C464D4B4D484E4985B01E6877
:1051000036B1D0F8046316421EBF1C601E681543FA
:1051100004338B424FEA4202F1D1454FD7F87C313C
:1051200093B1454E336A039333624FF001090DF199
:105130000C08039850B9C7F87C01D7F87C31336A62
:1051400003933362002BF0D1012469E090FAA0FAB6
:10515000BAFA8AFA394A0AF1080332F813104FEA08
:10516000DA0C0AF0070309FA03F418F80C30C1F35B
:10517000820223EA040308F80C3006EB8A03D3F812
:105180000042C8069346C4F3014418D51146504660
:105190000193FFF739FD019BE4B2D3F80032C3F36A
:1051A00001439C4207D100215046FFF713FD2146E1
:1051B0005046FFF70FFD09FA0AF03062B9E7022CFA
:1051C0000CBF0321022150460192FFF703FD019A13
:1051D000032A04D0022C07D1BBF1010FEBD15946B1
:1051E0005046FFF711FDE6E7032CE4D1BBF1020FB7
:1051F000F4E795FAA5F3B3FA83F304FA03F29B00FC
:1052000003F1A04303F55043D3F81005D3F810156C
:10521000C0F30420C1F3014125EA0205FFF7F4FCC5
:10522000002DE6D105B0BDE8F08F00BF00D10050E1
:1052300000D0005020D1005000258450A4C500208B
:105240000022034BC3F88425C3F80425704700BF30
:1052500000900350044AD2F80834DB07FBD5016004
:10526000BFF35F8F704700BF0090035008B5C0F3D5
:105270000B0383B90222094BC3F88425C3F8042524
:105280004FF0FF320260D3F80024D207FBD5FFF7BE
:10529000D7FF034808BD0348FCE700BF0090035058
:1052A0000000AD0B0A00AD0B012208B5054BC3F899
:1052B0008425C3F80425FFF7CDFFBDE80840FFF7BC
:1052C000BFBF00BF009003500E4B70B553F8204095
:1052D000013053F82060A64200D870BDD4E90035F3
:1052E0002846984765B1EB6830B10028B8BF404206
:1052F000FF28A8BFFF2018705A7842F001025A70A8
:105300000834E8E7548E000070B5054610B9002453
:10531000204670BD0378002BF9D00E4C0E4EB442DF
:1053200008D10C4CB442F2D0204603F01EFA50B91A
:105330001834F7E7204603F018FA10B12368AB429F
:10534000E6D01834EBE72846216801F091F90028EF
:10535000EED1DDE7F88700007088000073B50446E1
:105360000D464FF02003EFF3118683F31288BFF34D
:105370006F8F0022042896BF114B124B53F8203038
:10538000009245210246104800F04AFE3DB1EB690B
:10539000C3F308031BB145210C4800F041FE002275
:1053A0000B4B45210B4800F03BFE29462046FEF7FB
:1053B00075FE86F31188BFF36F8F02B070BD00BF1A
:1053C000688E00006C9D00007A9D0000A79D000083
:1053D000CD9D0000D59D0000012208B5084B02209C
:1053E0001A70FFF771FF03F0D8F90320FFF76CFF85
:1053F000FBF714F8034A137B23F00103137308BD72
:1054000066FE0020A0C6002008B50348034A00211C
:10541000121A03F0B4F908BD80C6002068FE00200F
:1054200008B5194B03F5006282F3088883F30A88F4
:105430000025E023154C84F82230E5772576657643
:10544000A57684F82050636A43F4E023636284F80D
:105450002350FDF7AFFCFDF7F9F94FF0FF33A362DE
:10546000E362FDF76FFEFDF73FFD03F07DF928468F
:10547000FFF72AFF0120FFF727FF2B462A46294680
:105480000348FDF793FA00BF6826012000ED00E015
:10549000D953000008B50648064A0749121A03F016
:1054A00070F9BDE80840054A0549064803F069B9A6
:1054B00000C500207CC60020589E000000000000AF
:1054C000409E000000C50020034B1B680BB9FEF78F
:1054D00029BD0020704700BF80E000200D4B10B5B3
:1054E0001C689C4208BF0024FFF7EEFF74B1D4E9AA
:1054F00004321B1A62EBE070B3F1004F70F100024E
:1055000004DA0028ACBF1846002010BD6FF0004040
:10551000FBE700BF00C6002030B5036868B10A4A47
:105520005268904209D043B1D3E90421D0E904453F
:10553000121941EB0501C3E90421426813605A6066
:105540000023C0E9003330BD00C600202DE9F84338
:105550004FF02003EFF3118483F31288BFF36F8FB2
:10556000234EDFF89080244D3060D8F80000326878
:1055700040454FEAE277D5E9001E0BD050B1D0E9A3
:10558000043C9A4277EB0C0916DA9B1A6CEB070C79
:10559000C0E9043C52184EEB0707C5E90027002577
:1055A0003560FFF79BFF2946FEF78CFC84F31188DA
:1055B000BFF36F8FBDE8F88359184EEBE377D31A2A
:1055C000336000220023C0E90423C5E90017FFF778
:1055D000A3FF84F31188BFF36F8F836898474FF060
:1055E0002003EFF3118483F31288BFF36F8FBCE7BE
:1055F00080E0002000C6002020C7002010B50A4C23
:1056000023681BB101230020236010BD00F050F877
:105610000028F7D00138062803D8044B53F820009F
:1056200010BD034810BD00BF84E000207C8E000048
:10563000FE8FFFFFBFF34F8F0549064BCA6802F488
:10564000E0621343CB60BFF34F8F00BFFDE700BFA5
:1056500000ED00E00400FA0530B44FF0FE32002502
:10566000074B084C08494968C3F80024C3F80424D0
:10567000C3F80824C3F80C24C4F8005530BC08470C
:10568000001084500000845008C60020024BD0E96E
:105690000012C3E90012704708C6002038B131B1CA
:1056A000002201440346013088421A70FAD1704743
:1056B00038B500F02FF820B1032400F063F820463D
:1056C00038BD00F031F898B900F0ACF898B90F4D3A
:1056D000D5F828391B0EF02B08D1D5F8242A0C4B0D
:1056E0009A420AD0072400F017F8E6E70624FAE702
:1056F0000424204638BD0024F5E7012000F092F88C
:1057000004460028F7D1C5F80C0AD8E700108450E9
:105710000000E0200020704700207047014BC3F8D4
:10572000040A70470010845010B5114800F048F882
:1057300000B110BD0F4800F043F80028F9D10E4C1D
:10574000204600F03DF80028F3D10C4B0C481C60BB
:1057500000F036F801460028EBD100F02DF80446A1
:1057600008B1204610BD00F03FF82046FAE700BF20
:105770001CC6002010C6002018C6002020C600202D
:1057800014C6002008B5084800F024F8074800F0C7
:1057900021F8074800F01EF8064800F01BF8BDE8A5
:1057A000084000F00BB800BF1CC6002010C6002047
:1057B00018C6002014C6002000207047704700BFA4
:1057C00008B5034B02681B6810689847002008BDA5
:1057D0002CC6002008B5034B02685B681068984728
:1057E000002008BD2CC6002070B5094C094D206969
:1057F000AB68984718B1084B08485B689847002188
:10580000074AEB6811602069BDE87040184700BF87
:105810003CC600202CC6002008C60020988E000040
:1058200088E0002070B51B4D1B4E0446B268286905
:105830009047F8B95CB1194C2368B3B1012B1BD068
:10584000013B23602869F3689847002070BD134C22
:10585000216841B90122124BC3F80025114AD2F840
:105860001039002BFBD101312160F368286998477A
:10587000002070BD0C4870BD0A4AD2F81039002BC8
:10588000FBD1074A6FF07E40C2F80035FFF746FFB4
:105890002368D5E73CC600202CC6002088E0002005
:1058A0000000845000108450E98FFFFF10B50446BB
:1058B00030B16368DB0602D500232360636010BD4E
:1058C000024B03485B689847F3E700BF08C6002017
:1058D000B88E0000B0B1436893B1DB060ED501234A
:1058E00050E8002F194640E8001C9CF0000FF7D14B
:1058F000012AF5D0BFF35F8F00207047034870473F
:10590000034870476FF4E040704700BFE98FFFFF26
:10591000EA8FFFFF034668B142683AB1D20607D565
:10592000BFF35F8F002210461A607047034870472C
:10593000034870476FF4E040704700BFEA8FFFFFF5
:10594000E98FFFFF10B5044620B100221123226029
:10595000636010BD0148FFF77FFEF6E7E08E0000B0
:10596000704729B1012914BF6FF015000620704758
:1059700002207047002070472DE9F7430E46174676
:105980009946044628B94FF0FF38404603B0BDE8B9
:10599000F0830029F7D0002AF5D0CB680D8938466E
:1059A0001D44042329460DEB030200F049FB804609
:1059B0000028E8D146F60812BDF804107389914218
:1059C00023D1BDF806109942DDD1042338460DEBF2
:1059D0000302294400F034FB0028D4D146F6071313
:1059E000BDF804209A42CED19DF82830BDF806209B
:1059F000A3727389C4E900672B44E3600435134440
:105A0000A4F8089063612561BFE7002BE6D0BAE7F0
:105A10002DE9F7430F4690461E46044620B94FF045
:105A2000FF3003B0BDE8F0830368002BF7D0436874
:105A3000002BF4D04FF6FF79D4E904239A4216D212
:105A400023685B8923B1E368934204BF0433236175
:105A50000423216960680DEB030200F0F1FA0028CD
:105A6000DDD1A37A256923B1E368AB4201D80120D7
:105A7000D7E72189BDF80620494502F1040303D088
:105A8000BDF804C08C450BD116B1BDF804103180AF
:105A900004353D60A8F80020226913442361C0E763
:105AA0002B442361C8E700F0EFBD4FF44073584327
:105AB000303070470B7803F0FB03022B14BF4FF01C
:105AC000FF304FF44070704710B5044600F007FBFC
:105AD0004FF44072A368303B02FB103010BD816868
