:020000040000FA
:10000000E0190020552C00005B7F0000B52C00009B
:10001000B52C0000B52C0000B52C0000B52C00005C
:100020000000000000000000000000008129000026
:10003000B52C000000000000ED280000C11E0000EB
:10004000152C0000152C0000152C0000152C0000AC
:10005000152C0000152C0000152C0000152C00009C
:10006000152C0000152C0000152C0000152C00008C
:10007000152C0000152C0000152C0000152C00007C
:10008000152C0000152C0000152C0000152C00006C
:10009000152C0000152C0000152C0000152C00005C
:1000A000152C0000152C0000152C0000152C00004C
:1000B000152C0000152C0000152C0000152C00003C
:1000C000152C0000152C0000152C0000152C00002C
:1000D000152C0000152C0000152C0000152C00001C
:1000E000152C0000152C0000152C0000152C00000C
:1000F000152C0000152C0000152C0000152C0000FC
:10010000152C0000152C0000152C0000152C0000EB
:10011000152C0000152C0000152C0000152C0000DB
:10012000152C0000152C0000152C0000152C0000CB
:10013000152C0000152C0000152C0000152C0000BB
:10014000152C00000000000000000000000000006E
:10015000000000000000000000000000000000009F
:10016000000000000000000000000000000000008F
:10017000000000000000000000000000000000007F
:10018000000000000000000000000000000000006F
:10019000000000000000000000000000000000005F
:1001A000000000000000000000000000000000004F
:1001B000000000000000000000000000000000003F
:1001C000000000000000000000000000000000002F
:1001D000000000000000000000000000000000001F
:1001E000000000000000000000000000000000000F
:1001F00000000000000000000000000000000000FF
:10020000DEE61E284CBBCE8F025B00003C000000E7
:1002100000000100010000000000000000000000DC
:10022000FFFF02910000000000000000000000003D
:1002300000000000000000000000000053B94AB9AF
:10024000002908BF00281CBF4FF0FF314FF0FF30DE
:1002500000F06CB9ADF1080C6DE904CE00F006F8C1
:10026000DDF804E0DDE9022304B070472DE9F04732
:10027000089D04468846002B7DD18A4217463FD907
:10028000B2FA82F242B1C2F120009140974024FAC2
:1002900000F0944040EA01084FEA174C230C1FFA83
:1002A00087FEB8FBFCF60CFB168106FB0EF043EA5A
:1002B0000143984205D9FB1802D2984200F22481EA
:1002C000013E191AA3B2B1FBFCF00CFB101100FBAC
:1002D0000EFE43EA0144A64505D93C1902D2A645C3
:1002E00000F20F81013840EA0640A4EB0E0400261C
:1002F0001DB1D4400023C5E900433146BDE8F08775
:1003000002B9FFDEB2FA82F2002A50D1CB1B4FEACB
:10031000174E1FFA87F80126210CB3FBFEFC0EFBDB
:100320001C300B4608FB0CF941EA004189450AD90B
:1003300079182CBF01230023894502D9002B00F036
:10034000D9800CF1FF3CA1EB0901A3B2B1FBFEF097
:100350000EFB101108FB00F843EA0144A04505D943
:100360003C1902D2A04500F2C9800138A4EB080470
:1003700040EA0C40BCE78B4209D9002D00F0B18067
:100380000026C5E9000130463146BDE8F087B3FAE2
:1003900083F6002E46D18B42C0F0A680824240F206
:1003A000A3803046002DA8D0C5E90048A5E79740B6
:1003B000C2F1200301FA02F04FEA174ED94024FAA5
:1003C00003F31FFA87F894400343B1FBFEF01E0CC1
:1003D0000EFB101100FB08FC46EA01418C4509D9CF
:1003E00079182CBF012600268C4502D9002E00F07A
:1003F00093800138A1EB0C019BB2B1FBFEF60EFB22
:10040000161106FB08FC43EA01418C4505D9791811
:1004100002D28C4500F28780013EA1EB0C0346EA34
:10042000004679E7C6F1200703FA06F402FA06FC53
:1004300001FA06FEFA4020FA07F8F94000FA06F33E
:10044000224348EA0E044FEA12484FEA144E1FFABC
:1004500082F9B1FBF8FA08FB1A110AFB09F04EEA1F
:10046000014E70450AD912EB0E0E2CBF012100215E
:10047000704501D9002952D00AF1FF3AAEEB000EC7
:10048000A4B2BEFBF8F008FB10EE00FB09F944EA49
:100490000E4EF14505D912EB0E0E01D2F14538D8BA
:1004A000013840EA0A40AEEB090EA0FB0C89CE45AC
:1004B00041464C4602D306D1434504D20138B8EB3D
:1004C0000C0169EB020415B35A1A6EEB040EF240EC
:1004D0000EFA07F72EFA06F300261743C5E9007354
:1004E0000BE72E46284608E7841A61EB030101203A
:1004F000884657E7ACF1020C394424E702383C4403
:1005000034E702383C44EEE6023E3B44D9E62E4650
:10051000F3E602389644C4E7023839446AE7AAF1A0
:10052000020A9644AAE7023E394476E7704700BFC4
:100530002DE9E04F2746A046A146A246A346A44681
:100540002DED108B4FF0000545EC185B45EC195A6A
:1005500045EC1A5A45EC1B5A45EC1C5A45EC1D5A01
:1005600045EC1E5A45EC1F5AF1EE105A4FF66076D4
:10057000C0F6FF763540E1EE105A84F30088254638
:100580002646A447BDEC108BBDE8E08F38B5446823
:10059000054604F00304032C816002D02CB1002036
:1005A00000E0006800236B6038BD4522044905481F
:1005B00007F086FA4521024807F087FBEFE700BF06
:1005C00035890000588900000B6801330B60014B2E
:1005D0001B68184700000020014B1860704700BFDF
:1005E0000000002007B50B46002102460191034898
:1005F00001A900F089FA03B05DF804FBC905000009
:100600002DE9F04F2DED028BB0F81C9083B019F05E
:10061000080F044601921FD001290CBF49F01009B0
:1006200049F02009A0F81C9004F1140004F088FEA1
:1006300040B99C499C48AC2207F042FAAC21994849
:1006400007F043FB019B83F31188BFF36F8F03B067
:10065000BDEC028BBDE8F08F944FDFF84C82DFF8E1
:1006600044A209F00709022906D1204607F035FA0D
:100670000028D9D0012869D1D4F818B0A38BBBF1D8
:10068000000F1CDA0026256823F00703C4E9006682
:1006900043F00103A3830096A38B03F007024A45AE
:1006A00008EE102A03D0A268002A40F001811DB98B
:1006B000009A002A00F041814FF00009FAE003F0AF
:1006C0000702511F012923D8002123F00703062A1E
:1006D00025689BB2C4E900110CD18D422A4638BF6F
:1006E0000A462AB1E18B12680131E183002AF8D170
:1006F00043F002032046A38307F0EFF9002800F03F
:10070000CC80A38B43F02003A38300230093C3E793
:10071000042A0FD123F007039AB22046A28307F0E0
:10072000DCF9002800F0BB8042F02002A283002503
:100730000095B1E73946404640F21B1207F0C0F978
:1007400040F21B11384607F0C0FAF0E7032832D117
:10075000B9F1000F0AD0394640464FF4AB7207F0AA
:10076000AFF94FF4AB71384607F0AFFA236853B9CD
:100770003946404640F2571207F0A2F940F25711AD
:10078000384607F0A2FA23691B68009353B939462B
:1007900040464FF4AD7207F093F94FF4AD7138460F
:1007A00007F093FAA38B23F0070343F00603002519
:1007B000A383AB4670E704282FD1B9F1020F0AD00A
:1007C0003946404640F25D1207F07AF940F25D1179
:1007D000384607F07AFAE38B53B1394640464FF476
:1007E000AF7207F06DF94FF4AF71384607F06DFA4C
:1007F00023695B68009353B93946404640F2611261
:1008000007F05EF940F26111384607F05EFAA38BFB
:1008100023F0070343F00403C9E705282FD1B9F1FA
:10082000010F0AD0394640464FF4B27207F048F93A
:100830004FF4B271384607F048FA236853B9394685
:10084000404640F2651207F03BF940F26511384628
:1008500007F03BFA23699B68009353B93946404639
:100860004FF4B47207F02CF94FF4B471384607F026
:100870002CFAA38B23F0070343F0050397E7002529
:1008800040F26B123946404607F01AF940F26B11FC
:10089000384607F01AFA00958BE70090FCE605460B
:1008A00046E700BF92890000588900007089000067
:1008B0004FF0010943F00803A38304F11403184621
:1008C00008EE903A04F03CFD40B951464046AC2257
:1008D00007F0F6F8AC21504607F0F7F9019B83F3D7
:1008E0001188BFF36F8FB9F1000F35D1002D49D1B9
:1008F000009B13B120462C4998474FF02003EFF39B
:10090000118B83F31188BFF36F8F18EE900ACDF827
:1009100004B004F007FD40B951464046812207F07B
:10092000CFF88121504607F0D0F918EE900A04F074
:1009300017FDA38B23F00803A383A38BDA062AD524
:10094000012123F01003A383B4F81C9009F00709D8
:1009500000297FF488AE67E6A1680029C6D00B683D
:10096000002B38BF002399464B6818EE102A1E460C
:1009700020465B46B047B9F1000FB7D04946D9F8D9
:100980000030EDE729465B4618EE102A20462D6818
:1009900007F0BFF8AAE713F020011EBF23F02003E1
:1009A0000221A383D0E700BFAD090000F8B50446DB
:1009B0000D4600F114064FF02003EFF3118783F387
:1009C0001188BFF36F8F304604F0ACFC40B90A4980
:1009D0000A48812207F074F88121074807F075F969
:1009E000304604F0BDFC3A462046A5610121BDE831
:1009F000F840FFF705BE00BF92890000588900004B
:100A00002DE9F04704460F4607F099F8051E54DB20
:100A100004F114094FF02003EFF3118A83F31188D6
:100A2000BFF36F8F484604F07DFC40B9334934482A
:100A3000812207F045F88121304807F046F9484601
:100A400004F08EFC4FF6FF71E38BA28B8B4202F019
:100A500007064AD0022E1FD135464FF00108013358
:100A6000E383484604F06CFC40B924492448AC2296
:100A700007F026F8AC21214807F027F98AF31188FE
:100A8000BFF36F8FB8F1000F17D0002332463946FD
:100A9000204607F03EF810E0930701D0062E0FD154
:100AA00000233B606368EBB9C4E900773546F6B9CB
:100AB000524602212046FFF7A3FD2846BDE8F087F5
:100AC000052E17D0012E0AD00E490D4840F2C9124A
:100AD00006F0F6FF40F2C9110A4807F0F6F86FF089
:100AE000040504E01F606760E0E76FF00A054FF05F
:100AF0000008B6E76FF02205F9E700BF9289000011
:100B000058890000708900002DE9F04F8846914611
:100B10001C460025A5B0039099F8000010B928469E
:100B200000F018BE09F101032528099307D04146BA
:100B3000039B98470028C0F20D86013545E2182234
:100B4000002116A807F08DFA99F80130252B79D0ED
:100B5000002216469646174694460998014610F814
:100B6000013B2B2B00F09E8000F29580202B00F0A3
:100B70009B80232B00F09B80BCF1000F05D09DF8DB
:100B8000600040F004008DF860002FB19DF8600017
:100B900040F008008DF86000BEF1000F05D09DF810
:100BA000600040F010008DF860002EB19DF86000EC
:100BB00040F020008DF860002AB19DF8602042F0DE
:100BC00040028DF860209DF8602002F04400442827
:100BD00003D16FF386128DF860209DF860202A2BD8
:100BE00042F080028DF860207CD19DF861204B1C82
:100BF00042F001028DF861201A782E2A0CBF0121E3
:100C000000219DF8612061F341028DF8612075D1CA
:100C10005A782A2A6BD000210A260133184610F888
:100C2000012BA2F13007092F40F2AA809DF8602025
:100C30001A91C2F3400040EAD17161F341028DF88C
:100C400060205BE009F1020209928DF863309DF8A3
:100C50006130DE0740F16F8154F8042B002A0892BE
:100C600008DA9DF8602042F004028DF86020089AAE
:100C700052420892580740F1668154F8047B002FD5
:100C800080F265819DF861306FF341038DF861302A
:100C90004FF0FF375BE12D2B0BD0302B7FF46CAF87
:100CA00001225BE7012759E74FF0010E56E70126C5
:100CB00054E74FF0010C51E733460CFB0202303A87
:100CC0001E4616F8010BA0F13007092FF4D99942FE
:100CD00092D09DF860101992D20F62F341018DF805
:100CE000601089E70B4600224FF00A0CE8E79DF8F8
:100CF0006120023342F004028DF86120194611F898
:100D0000012B6C2A5CD040D8682A46D06A2A61D070
:100D10004C2A67D019460B4613F8012B782A099301
:100D20008DF8632000F2DF80572A68D8412A04D06A
:100D3000A2F14503022B00F2D68004219DF8623017
:100D400002F0DF02A2F1410A61F30203DAF10002CC
:100D50009DF8611042EB0A0262F3C7110A068DF892
:100D600062308DF86110CBB200F1E38003F07802BD
:100D7000182A40F0B5806FF3C6038DF861309CE00F
:100D800006FB01210346303948E7742A26D07A2A27
:100D9000C0D106229DF861300DE05A78682A9DF88E
:100DA000612006D1012161F3C6028DF86120991CF2
:100DB000B1E71346022262F3C6038DF86130AAE759
:100DC0005A786C2A9DF8612001D10421EBE7134683
:100DD0000322F0E705229DF86130ECE707229DF839
:100DE0006130E8E7BDF8603023F4F04323F00203FC
:100DF00043F4804343F00203ADF860308BE7A2F187
:100E00005803202B6FD801A151F823F0BF0E00002A
:100E1000E70E0000E70E0000E70E0000E70E0000FE
:100E2000E70E0000E70E0000E70E0000E70E0000EE
:100E30003B0D0000E70E0000BF0E0000910E000009
:100E40003B0D00003B0D00003B0D0000E70E0000D5
:100E5000910E0000E70E0000E70E0000E70E000014
:100E6000E70E0000F50E0000BF0E0000150F000099
:100E7000E70E0000E70E0000150F0000E70E00006F
:100E8000BF0E0000E70E0000E70E0000BF0E0000DE
:100E900001219DF8623061F302038DF862309DF804
:100EA000613003F07803402B02BF9DF8601041F0E1
:100EB00001018DF86010632A05D0002306E00221AD
:100EC0009DF86230E7E7003B18BF01239DF86020E2
:100ED000C2F340010B4363F341028DF86020B6E694
:100EE00013F0380FE9D09DF8603043F001038DF81E
:100EF0006030E2E703229DF8623062F302038DF86E
:100F000062309DF8613003F07803A3F140077B4223
:100F10007B41DBE703229DF8623062F302038DF828
:100F200062309DF8613013F0780F14BF0123002365
:100F3000CCE70123CAE79DF96020002AACBF4FF03F
:100F4000FF32199A95E699077FF5A2AE1A9F002302
:100F5000CDE919339DF8623003F00703042B09D162
:100F60009DF861309A0705D49DF96130002BB4BF1C
:100F70000D2706279DF862309DF8611003F00703E6
:100F8000012BC1F3C30136D1CB1E042B20D8DFE8DF
:100F900003F00307071F1F0054F8042BD31704E0C6
:100FA000073424F00704F4E80223CDE916239DF862
:100FB0006060B30755D04A464146099B039806F046
:100FC0006BFE0028C0F2C6830544DDF82490A3E53B
:100FD00054F8042B01294FEAE273CDE9162305D119
:100FE0009DF85830169300231793E0E70229DED1CD
:100FF000BDF95820D2E7022B23D1CB1E042B13D8E6
:10100000DFE803F0030A0A12120000232268201D01
:10101000169217930446CAE7073424F00700F0E855
:101020000223CDE91623F5E754F8043B0129169372
:101030004FF000031793D3D00229B8D1BDF8583030
:10104000D0E7042B07D1073424F00704F4E8022387
:10105000CDE91623ABE7032B04BF54F8043B1693EA
:10106000A5E79DF86390B9F1780FAED8B9F1570FA5
:1010700000F2A780B9F1250F00F0EE80B9F1240F3E
:10108000A3D9B9F1410F03D0A9F14503022B9CD894
:10109000DDE91623002A73F10001C0F2D581310782
:1010A00000F1D48116F0100618BF2026C3F30A5BA6
:1010B000C3F3130306920793DDE90623CDE9122358
:1010C000BBF1000F40F0C481DDE90632134314BFC9
:1010D0004FF0010C4FF0000C58460799B9F1460F3C
:1010E0004FEAC123069908BF4FF06609CA0243EAD6
:1010F00051534BEA02010C91C11719430D91DDE9DF
:101100000C010143CDE9122300F01582BCF1000F60
:1011100040F0D581129B05210493139BABF2FE3B5B
:1011200043F000430593DDE90423CDE912230023B6
:101130001A461BF1020FC0F2CB811BB1DDE904019D
:10114000CDE91201DDE91231BBF1000F00F3DB81C3
:101150001399129BCBF104000BF11C0B01FA0BFB52
:10116000A0F1200CC34021FA0CFC43EA0B0343EA34
:101170000C03C140CDE9123109F0DF03472B40F0E9
:10118000E181D01C02DB974280F2D881A9F10209EB
:10119000002F5FFA89F900DD013F9DF86030990664
:1011A00000F1D081002FD4BF00230123B9F1660FD5
:1011B0000E9340F0C981BB1840F1C7814FF0000A7F
:1011C000C7E1A9F15803202B3FF6FFAE01A252F868
:1011D00023F000BFE9130000CB0F0000CB0F00008D
:1011E000CB0F0000CB0F0000CB0F0000CB0F000097
:1011F000CB0F0000CB0F000091100000CB0F0000C0
:101200008512000089130000911000009110000069
:1012100091100000CB0F000089130000CB0F0000DD
:10122000CB0F0000CB0F0000CB0F00001F140000FD
:10123000E9130000ED130000CB0F0000CB0F0000FE
:101240005F120000CB0F0000E9130000CB0F00007D
:10125000CB0F0000E91300004146484668E4002F28
:10126000DDF858900ADB3946484606F093FE002622
:1012700009EB000AB9F1000F0CD1A6E6484606F0CA
:1012800082FEF4E70026169B0DF1750A8DF8743086
:101290000DF17409AAEB090206B101329DF8620052
:1012A000C30640F14C820232199940060A44089B59
:1012B00044BF1A995218002B25DD9B1A9DF8602017
:1012C0005107C2F3800B00F14C82570640F1458272
:1012D000002E00F04482089341463046039B984715
:1012E0000028C0F237825E463027089B01350893FC
:1012F00003EB050B089BABEB0305002B03F1FF335E
:10130000089300F320823EB141463046039B984744
:101310000028C0F21F8201359DF86220560640F178
:101320007E829DF96120002AC0F21D82A5EB09058D
:1013300099F800004F46A0F13002092A05EB090B8D
:1013400009F1010940F23F829DF86220199E900642
:1013500008D406EB0B09002EA9EB060B06F1FF36AD
:1013600000F3388238782E280BD14146039B9847EA
:101370000028C0F2EF81002E0BF1010B00F3328246
:101380000137ABEB070B38E230072BD416F0100611
:1013900018BF2026DDE91623002A73F1000105DAC3
:1013A0002D26524263EB4303CDE91623DDE91601F6
:1013B0000DF18D03009318AA1DAB06F022FC8146A7
:1013C000002F0DF18D030BDB9DF86010A3EB0902DC
:1013D0006FF3861197428DF8601001D9BF1A1997E3
:1013E0009A4647E72B26D5E70026DFE71698002820
:1013F00000F09F810DF18D03009300211DAB18AA11
:1014000006F0FFFBBDF86230814603F0EF0343F4C2
:10141000F04343F010030026ADF86230D0E7169B8E
:1014200007293FF6D2ADDFE801F00D04060D0808EC
:101430000D0D1D70C9E51D80C7E52846E917C3E9F4
:101440000001C2E51D60C0E52D262FE62B262DE606
:1014500040F2FF739B452DD1DDE906231343A9F12B
:10146000410918D1B9F1190F95BF44F6496346F601
:101470006963ADF87430ADF8743094BF46236623C9
:101480008DF876309DF860300DF1770A6FF3861392
:101490008DF86030FCE6B9F1190F95BF44F24E1398
:1014A00046F26E13ADF87430ADF8743094BF4E232D
:1014B0006E23E5E74FF0000C0EE60BF1FF3B9218B0
:1014C0005B41002A73F10001F7DACDE9122321E62E
:1014D000049B05985B0843EAC0734008B0F1333FB2
:1014E000DC46CDE904300BF1010BF1D2A3FB01ABDB
:1014F0004843CDE904AB059B0CF1020BC3180593DF
:10150000013A012315E6023341F1000112A8CDE9A9
:1015100012310E9206F03FFBDDE912010E9A0BF13B
:10152000FF3B013200184941002871F100030BF123
:10153000FF3BF7DA04E60022934609E64FF066091E
:10154000BF1A2AE6002331E67B1C102BA8BF10230C
:101550009A461021002011914FF00061CDE914014D
:10156000DDE914100AF1FF3ABAF1FF3F1FD1129BD7
:10157000CB180A93139B6FF0704140EB03034FF0BD
:10158000FF300B93DDE90AAB594508BF50451AD32C
:1015900050465946CDE91201B9F1660F53D1002AE0
:1015A00020DC30230DF1750A8DF874302BE04908EA
:1015B00041EAC0714008CDE9141014A80F9206F05A
:1015C000EAFA0F9ACCE70A9B0F920B9A5B0843EA60
:1015D000C273510812A8CDE9123106F0DCFA0F9A55
:1015E0000132D9E70DF1740A1199002909DD11A919
:1015F00012A80F9206F0EEFA0F9A0AF8010B013AC0
:10160000F2D1199200229DF86010880601D4002FB3
:101610003FDD53462E2103F8011B92B1002F76DDEA
:101620005142B942A8BF394600291991A7EB0107D9
:10163000D4BF002101219DF8620061F345108DF8AF
:1016400062009A4620E011A912A80F9206F0C2FA91
:101650000F9A9DF86030302818BF02F1FF329906CA
:101660008DF8740001D4002F53DD2E238DF87530D2
:101670000DF17603E5E711A912A80F9206F0AAFA78
:101680000F9A0AF8010B013F002F02DD1199002982
:10169000F1DC0E9B002B3FD11A9709F0DF014529A1
:1016A00023D1002AB4BF2D212B215046B8BF52426E
:1016B000632A00F8029B8AF801100ADD642792FB76
:1016C000F7F107FB112201F1300C0AF103008AF84F
:1016D00002C00A2792FBF7F1824607FB112201F1B3
:1016E000300C30320AF802CB4270199A002A1EDC04
:1016F0001A9A002AD4BF002201229DF8621062F3D8
:10170000861100228DF862108AF80020C0E59A4602
:10171000BFE70DF1750ABCE700211A9150461AF88F
:10172000011D3029FAD02E2918BF8246B5E70122C3
:10173000E3E7DFF83CA10646AAF10509AAE5070799
:1017400048BF0132B0E541463846039B9847002820
:10175000BFF6D0AD25B0BDE8F08F2027C7E5302714
:10176000C5E50893CFE5A5EB090B4E460BEB090544
:1017700019F8010B702820D11A9A02EB0509A9EB80
:101780000502002A43DC534632464146039806F0E0
:1017900083FA0028DEDB089B2844034405469A466A
:1017A000AAEB0503002B7FF710AC41462020039BDA
:1017B00098470028CEDB0135F2E74146039B984766
:1017C0000028D2DAC6E74146039B98470028BFF6B7
:1017D000AFADBFE741463020039B98470028BFF6D6
:1017E000BAADB7E741463020039B9847013EBFE5BD
:1017F0004146039B98470028ACDB3E460BEB0705B0
:1018000017F8010BA0F13002092AF1D9B4E74146DB
:101810003020039B984700289CDB0135AFE7D106B9
:1018200001D4120706D541463020039B9847002873
:1018300090DB01359DF86220D30607D541469DF81F
:101840006300039B9847002884DB0135199E2E44D2
:10185000721B002A02DC53464A4696E74146302076
:10186000039B98470028FFF675AF0135F0E700BFEE
:10187000BD89000007B501904FF02002EFF31183FE
:1018800082F31188BFF36F8F06F0A4FA019801F07C
:101890008BFC034806F014F901F00CF9FCE700BFDB
:1018A000BE8900004FF02002EFF3118382F311880C
:1018B000BFF36F8F0121044AC2F8401583F31188EA
:1018C000BFF36F8F002070470090035020B1034B8F
:1018D000800143F001031847704700BF30860000C5
:1018E00084B004AB03E907009DF80430062B07D150
:1018F0000122044BC3F80025BFF34F8F20BFFDE743
:1019000004B0704700400050F8B505464FF0200382
:10191000EFF3118683F31188BFF36F8F194803F03B
:1019200001FD40B918491948812206F0C9F8812102
:10193000154806F0CAF9134803F012FD144B1C6851
:10194000002C38BF00245CB1124FD4E90132002DC5
:1019500008BF13460BB1387898472468002CF4D19F
:10196000084803F0EDFC40B907490848AC2206F0EE
:10197000A7F8AC21044806F0A8F986F31188BFF354
:101980006F8FF8BD40030020928900005889000045
:10199000440300204C030020084B10B51C685CB9C0
:1019A00001221A60064B93E8070006F098F92046DA
:1019B000BDE81040FFF7A8BF10BD00BF0400002025
:1019C0004C030020F0B585B06E461D4C014605461F
:1019D000304606F09CF996E8070084E80700207876
:1019E00060B30020174B18606B1C19D0914208D2CD
:1019F00015491648BD2206F063F8BD21124806F0CD
:101A000064F94FF400460021A76811480023E6FB63
:101A10000701104AFEF712FC0121281A04F0CCFF3E
:101A200003F06AFF0120FFF76FFF94E80700FFF75C
:101A300057FFFFF7B1FF04F047F9207805B0F0BD7C
:101A40004C03002004000020EB89000058890000AE
:101A50003F420F0040420F0008B5064803F06CF902
:101A6000054B1860054801F065FE0448FEF7B4FD1B
:101A7000002008BD168A000058030020811A0000CB
:101A80000A2838B50446074D04D1286883680D211B
:101A90005B68984728688368E1B25B68984720468E
:101AA00038BD00BF580300202DE9F0410E4C074619
:101AB000051BC5F347130C255D4305F148000E4691
:101AC0002044402106F028F9011E08DB074B2C4476
:101AD000C4E91036064B5B59BDE8F041184738465B
:101AE0003346BDE8F0411847700300207B7D0000BD
:101AF0004C86000038B5CCB2012C054608D90849FF
:101B000008487E2205F0DCFF7E21054806F0DDF85E
:101B10000C212B6904FB0134A06C00F0070038BDD8
:101B20001D8A000058890000F8B5CCB2012C05468A
:101B3000164607690AD91849184840F2531205F0A9
:101B4000BFFF40F25311144806F0BFF84FF02003D6
:101B5000EFF3118283F31188BFF36F8F0C2303FB24
:101B60000471896C11F0C00101D08E4211D10121A4
:101B7000002003FB0473996482F31188BFF36F8F15
:101B800030B90C23696803FB04146368984700208C
:101B9000F8BD4FF0FF30EFE71D8A000058890000C4
:101BA00070B50D4606490446411A491140220548C0
:101BB000FFF7BAFF2B4601462046BDE870401847A4
:101BC00070030020F000002070B5002201210446BF
:101BD000052000F003FF052000F0E2FE0F4802F0B0
:101BE000E9FA0F4B984215D102F004FB26690D4922
:101BF000304605F0B3FF00280BDB0125B5642469EE
:101C0000084904F1200005F0A9FF002801DB0020AD
:101C1000656570BD6FF00400FBE700BF651C000048
:101C20000000AD0B6486000073B50C23014600264E
:101C30004B430A48C4184833D4E910521844266468
:101C4000019206F087F835B12B46019A044802B09C
:101C5000BDE87040184702B070BD00BF700300209F
:101C6000F0000020012808B506D0032808D0A0B94C
:101C70000F4B9B6C5B0719D1BDE80840FFF7D4BF41
:101C80000C4940F266220C4805F01AFF40F266212A
:101C9000BDE80840074806F018B8064940F26A2235
:101CA000054805F00DFF40F26A21F1E708BD00BFCD
:101CB000700300201D8A00005889000008B54FF00D
:101CC0002003EFF3118183F31188BFF36F8F124A62
:101CD000136843F0020013F0010310600CD04FF0C2
:101CE0005022D2F80C34D2F80C2413F0010303D0A4
:101CF0000A4806F02FF8012381F31188BFF36F8F94
:101D000023B1BDE808400020FFF78EBF0120BDE8E9
:101D1000084002F08DBA00BFC8030020B8030020BD
:101D2000074BD3E8EF2F22F00201C3E8E01F0028A1
:101D3000F7D1D30702D4012002F0CABA704700BF1E
:101D4000C80300201FB500220123CDE902236B4602
:101D5000084ACDF800D0CDF804D006F020F80028CD
:101D600005DB4FF480420023684603F0BBFC05B05E
:101D70005DF804FB997D00002DE9F843012205463A
:101D80004649D1E8EF3FC1E8E02F0028F9D19BB9DF
:101D9000434944484B60CB608A60FEF731FE00281F
:101DA0000ADA4149414840F2262205F089FE40F214
:101DB00026213D4805F089FFADB36B1E012B59D894
:101DC000012D07D14FF05023D3F81C3403F0030347
:101DD000022B28D006F047FA044618B9344B1B787A
:101DE000002B54D14FF02003EFF3118683F31188B9
:101DF000BFF36F8F01242F4FDFF8BC80DFF8BC905A
:101E00004FF05022D2F81834D2F81824D2030CD54F
:101E100003F00303022B01D0012D06D124B386F376
:101E20001188BFF36F8FBDE8F883C4B1304600F06E
:101E30004FFE4FF05022D2F81835DBB2012BDFD124
:101E400039680029DCD00021396039680221C2F8E4
:101E500018152022C8F88021C9F80030D0E70021E9
:101E6000212004F043FBE4E74FF050230222C3F8A3
:101E70000423D8E70C490D484FF40E7205F020FEFC
:101E8000BDE8F8434FF40E71074805F01EBF4FF050
:101E9000502302220646C3F80823ACE7CC030020F7
:101EA00060030020900300201D8A00005889000074
:101EB000DD0900200451005000E100E0085000500E
:101EC00010B5064C06482146172205F0F9FD2046BC
:101ED000BDE81040172105F0F8BE00BF748A00006D
:101EE00058890000044A1368C91A21F07F4003444E
:101EF000136004F09FBD00BFE00300202DE9F04710
:101F00004FF480374FF00009860000F1500406F1CD
:101F10005026A40006F58036A4B204F15024D6F869
:101F20004035DFF86C8021F07F4504F58034874030
:101F3000D8F804A5A3EB0A0323F07F432AF07F42DD
:101F4000012BC6F8402502D1132006F0C6F90AF18C
:101F50000202AB1A23F07F43B3F5000F88BF15468A
:101F6000C4F80090236825F07F43C8F84473C6F88E
:101F70004035D8F804359A4506D0EB1A023B23F0D9
:101F80007F43B3F5000F01D8BDE8F0872B46CFE7BC
:101F900000500150F8B5002427460F4E0F4B104A51
:101FA00018461D6804B1F8BDD2F80413C903FAD568
:101FB00031680029F7D0346031684FF48031C2F8BD
:101FC00048130124D2F8401525B100205A681F603B
:101FD000A847E3E70560E6E740510150D40300203D
:101FE0000050015038B500244FF480334FF40012F4
:101FF0000D4D0121C5F80845C5F804330B4B1520DC
:10200000C3F88021224600F0E9FC152000F0C8FC4E
:102010000123074A02201360064A2B601360FFF772
:10202000ABFE204638BD00BF0050015000E100E08B
:1020300008500150DC030020134BB0F1FF3F08BFF4
:102040001846013800281CDD9842A8BF18460F4BDF
:10205000D3F804250E4B1968521A12F4000F18BF5A
:10206000002022F07F4301330A4A03440A481060EB
:1020700000205060044A934294BFC9188918FFF7A2
:102080003DBF0020E3E700BFFFFF7F00005001508D
:10209000E0030020D4030020E51E000038B54FF017
:1020A0002003EFF3118583F31188BFF36F8F154879
:1020B00003F038F940B914491448812205F000FDB5
:1020C0008121114805F001FE0E4803F049F9104B3B
:1020D0000C48D3F804450F4B1B68E41A24F07F44E6
:1020E00003F02EF940B908490848AC2205F0E8FC95
:1020F000AC21054805F0E9FD85F31188BFF36F8F2A
:10210000204638BDE4030020928900005889000071
:1021100000500150E0030020034610B588B08DF850
:1021200007300DF1070302930123094ACDE9051396
:1021300010680393002207238DF810208DF81C30BF
:10214000836802225C6802A94623A04708B010BD3C
:10215000E803002070B586B00E460DF10701054674
:102160001446FFF7D9FFC8B99DF807308DF808501D
:1021700023EA06010A4B44EA0102186802AB039302
:1021800002238DF807208DF8092004938DF8143070
:10219000836801225C6803A94623A04706B070BD8E
:1021A000E803002008B502F0C7FD044B00281860C2
:1021B0000CBF6FF01200002008BD00BFE803002034
:1021C00000280DDB0122430900F01F0002FA00F095
:1021D000044A203342F82300BFF34F8FBFF36F8FC1
:1021E000704700BF00E100E0F7B500281C4614BFAF
:1021F0004FF400534FF400438A420BD294222749F4
:10220000274805F05DFC9421244803B0BDE8F04068
:1022100005F05BBD40D00D46224E002839D005F5B3
:10222000E0770135AA4246F82740F6D802FB03F0D2
:10223000013A4B4300901C4805F042FC1B4B14F044
:10224000100F1B491B4808BF194605F039FC14F054
:10225000040F14BF72212D21174805F031FC14F032
:10226000020F14BF77212D21134805F029FC14F02B
:10227000010F0CBF2D2178210F4805F021FC6C21A6
:102280000D4805F01DFC0D4803B0BDE8F04005F019
:1022900017BC05F5C077C4E703B0F0BDF68A0000AF
:1022A0005889000000300050178B0000EA8A0000B7
:1022B000E18A0000C88C0000318B0000B896000055
:1022C00030B54FF4803485B04FF480313548364D09
:1022D00005F0F6FB2168354805F0F2FB2968344823
:1022E00005F0EEFB10220021684605F0BAFE2368D7
:1022F00068460093029400F0BDFF012000F0EAFF61
:10230000002000F0D3FF002000F0F8FF01210020A2
:1023100001F012F801F006F826482C6805F0D0FB11
:102320000820FFF74DFF244A24F00104D2F820389A
:10233000002B07DA03F00303023B012B9CBF1F4B6A
:10234000C2F820380121082005F0D1FDBFF34F8FDE
:10235000BFF36F8F6408640020462146224623465F
:10236000B7EE000AF7EE000AB7EE001AF7EE001A11
:10237000B7EE002AF7EE002AB7EE003AF7EE003A81
:10238000B7EE004AF7EE004AB7EE005AF7EE005AF1
:10239000B7EE006AF7EE006AB7EE007AF7EE007A61
:1023A000FEF7C6F8348B0000040001004B8B0000E0
:1023B000608B00007E8B0000003000500001008028
:1023C0002DE9F8435E4805F07BFB002140F217132E
:1023D00008460222FFF708FF5A4D40F20713202259
:1023E00002210020FFF700FF574805F069FBC5F305
:1023F0000E04564BC4F500449C4208D2544955483B
:10240000822205F05DFB8221514805F05EFC524EB0
:10241000C4F34314D6F80025C5F3C435D2050AD554
:102420004E494C484FF4BD7205F04AFB4FF4BD7164
:102430004A4805F04AFCD6F80435DB050AD5474979
:10244000444840F27B1205F03BFB40F27B114348CD
:1024500005F03BFC404B4248C3F80055C3F8044527
:10246000D3F80015D3F80425520105F029FB3648AE
:1024700005F026FB05F0DDFC014610B1394805F0FA
:102480001FFB0024384805F01BFB40F217130822FD
:1024900000210120FFF7A8FE2F4D40F20713202254
:1024A00008210120FFF7A0FE274805F009FBC5F829
:1024B00080442E4805F004FB2D4EC5F8C0442D4F36
:1024C0002D4DDFF8C48095F805902146B9F1000F35
:1024D00014BF33463B4640462A6805F0F1FAB9F18D
:1024E000000F0CD12548013405F0EAFA1C2C05F147
:1024F0000805E8D11448BDE8F84305F0E1BA95F8BD
:10250000049095F90400FFF75BFE4FEA890303F19D
:10251000A04303F54053B9F1310FD3F8002806D09A
:10252000002A07DA02F00302023A012A02D8144A0A
:10253000C3F800280121484605F0D9FC1148D2E72C
:10254000B48B0000E0FF0000B896000020000000FF
:10255000F68A00005889000000300050D88B000037
:102560000A8C0000508C0000808C0000A28C0000BF
:10257000A98B0000EE8A000070860000CB8C000062
:1025800000010080D28C0000BE8C000070B50C46AB
:1025900015460646B0BB6FF01500BDE870407146A9
:1025A00072467346B7EE000AF7EE000AB7EE001A5D
:1025B000F7EE001AB7EE002AF7EE002AB7EE003A5F
:1025C000F7EE003AB7EE004AF7EE004AB7EE005ACF
:1025D000F7EE005AB7EE006AF7EE006AB7EE007A3F
:1025E000F7EE007A8EF3008C10B4F1EE10CA4FF6BD
:1025F0006074C0F6FF740CEA040CE1EE10CA10BC63
:10260000F4467447002AC6D005F0B8FC0128C2D0B1
:102610000C4B9C420BD92A1903F61D239A4209D868
:102620002A462146304605F0F1FC0020B5E7064B6E
:102630009C4203D9054B2A199A42F1D94FF0FF3039
:10264000ABE700BF0302FF002F01FF003801FF00CE
:102650002DE9F04F81460D4685B000295DD005F08B
:102660008DFC012859D1284605F088FC012854D05A
:102670004FF00008DFF8B4B0DFF8B4A001AF5BF8AA
:10268000046B9AE807004E4487E807000C2239469D
:10269000304605F094FC044608B9002E40D108F1FC
:1026A0000108B8F1050FEAD16FF00D04204605B01E
:1026B000B7EE000AF7EE000AB7EE001AF7EE001ABE
:1026C000B7EE002AF7EE002AB7EE003AF7EE003A2E
:1026D000B7EE004AF7EE004AB7EE005AF7EE005A9E
:1026E000B7EE006AF7EE006AB7EE007ABDE8F04F89
:1026F000714672467346F7EE007A8EF3008C10B482
:10270000F1EE10CA4FF66074C0F6FF740CEA040CC8
:10271000E1EE10CA10BCF44674476FF01504C5E72B
:102720003C223146284605F071FCBFE75087000087
:10273000E0850000014804F095BC00BF64870000FC
:1027400008B5B0B14368042B0DD100220368D3E86B
:10275000EF1F012903D1C3E8E02F0028F7D1074874
:1027600008BF104608BD3BB1006802F0E9FE00203A
:10277000F8E76FF4E040F5E70148F3E7E98FFFFF82
:10278000EA8FFFFF10B5044618B90D4B0D485B6882
:102790009847616808290DD031F004030AD011F080
:1027A000020108D02146084802F096FC002323606D
:1027B0000023636010BD1422206805F052FCF7E787
:1027C000A4000020E38D0000EC03002010B50446B7
:1027D00018B9164B16485B6898476368042B23D0DA
:1027E000082B21D0CBB92368BBB94FF0FF324FF093
:1027F000FF3321460F4802F015FC08B923681BB9C6
:102800000A4B0D485B68984714220021206805F0A8
:1028100028FC636843F002036360206805F032FD22
:10282000636843F00103636010BD00BFA400002093
:10283000E38D0000EC030020098E000008B5E8B12C
:102840004368042B0CD101220368D3E8EF1F002951
:1028500003D1C3E8E02F0028F7D10BD1002008BD39
:1028600053B100684FF0FF324FF0FF3302F096FD96
:102870000028F3D00348F2E70348F0E76FF4E040A4
:10288000EDE700BFE98FFFFFEA8FFFFF08B50649BC
:1028900040231422054805F0CAFCBDE8084004495D
:1028A000044804F031BC00BF0C040020EC030020FD
:1028B0007C8700006C870000094A0A499368096810
:1028C0005867996708494B6843F080534B60002371
:1028D00083F31188BFF36F8F9368986F704700BFC1
:1028E0006C0900202888000000ED00E022498A6879
:1028F00082F8BDE04FF030001044EFF3098C80E81F
:10290000F01F1EF0100F03D102F17C0080EC108A42
:10291000202080F31188BFF36F8F184F4FF00066AF
:102920004A6A8A603E6092F9BDE0506F00235367A7
:1029300080F311881EF0100F03D00023E1EE103A4F
:1029400003E002F17C0090EC108AEFF3148323F093
:10295000040383F31488BFF36F8F02F1300090E813
:10296000F01F8CF3098802F1000004B505F0EDFAC0
:10297000BDE80440704700006C09002004ED00E051
:102980001EF0040F0CBFEFF30880EFF3098081699C
:1029900011F8021C0229FFD001B505F0DAFA01BDD9
:1029A00043B2002B08DB012200F01F0002FA00F006
:1029B000024A5B0942F82300704700BF00E100E0D3
:1029C000054B420953F82220012300F01F0003FAAF
:1029D00000F01040704700BF00E100E038B54C1C2B
:1029E000072C054608D90D490D48582205F068F80E
:1029F00058210A4805F069F96BB2002BACBF03F10E
:102A00006043084B4FEA4414E4B2ABBF03F56143A3
:102A100005F00F0583F800435C5538BD368E000085
:102A20005889000014ED00E042F8203C009B0D495D
:102A300042F81C3C019B21F0010142F8183C029B2A
:102A400042F8081C42F8143C4FF0807342F8043CF2
:102A5000002343674FF47D43203A0265C0F8BC3041
:102A6000704700BF837B00000023E1EE103AEFF3D4
:102A7000148323F0040383F31488BFF36F8F094B8F
:102A80009860436E83F30B88104681F30988002118
:102A900063B681F31188BFF36F8F0022002305F026
:102AA00070F800BF6C090020014910220A607047CD
:102AB00010ED00E072B6404080F31188BFF36F8FD5
:102AC000BFF34F8F30BF62B6BFF36F8F704700BF49
:102AD00072B6494081F3118820BF80F3118862B635
:102AE000704700BF2DE9F04107460C4686B000292B
:102AF0004AD08B6828480093D1E90023452105F08E
:102B0000F9F8636945210093D4E90323234805F0CC
:102B1000F1F84521E269224805F0ECF82646002547
:102B2000DFF88880D6ED0B7AFCEEE77A96ED087A2E
:102B3000CDED057AEB1C0493D6ED0A7AFCEEE77A2C
:102B4000CDED037AAB1C0293D6ED097AFCEEE77A61
:102B5000CDED017AFCEEC77A6B1C2A460093452125
:102B600017EE903A4046043505F0C4F8102D06F1F2
:102B70001006D7D14521226E0A4805F0BBF8452141
:102B8000A269094805F0B6F82146384606B0BDE806
:102B9000F04102F0FDB800BF6C8E0000A08E000076
:102BA000D48E0000308F0000448F0000E88E0000BB
:102BB00030BFFFF7FDBF00BF144A08B5144B22F029
:102BC0007F029A60BFF34F8FBFF36F8FD3F88820D7
:102BD00022F47002C3F88820D3F8882042F4A002BF
:102BE000C3F888204FF04042C3F83422BFF34F8F20
:102BF000BFF36F8F0023E1EE103A02F025F903F0E6
:102C00003FFD00F019FB02F043F900BF0000000097
:102C100000ED00E001B572B60B4A106A00281EBF35
:102C20000021116205F027FB62B6EFF30580A0F1E9
:102C300010004FEAC0000549014409C99847BDE8A2
:102C400001400349084700006C0900204C83000044
:102C50008D310000002080F31488BFF36F8F0020B7
:102C600080F30A8880F30B8805F037F800200E49BE
:102C70000860BFF34F8F0D4880F3088800F0B6FA64
:102C8000202080F311880A484FF40061401880F337
:102C90000988EFF314800221084380F31488BFF3FE
:102CA0006F8FFFF789FF000094ED00E0E01900202E
:102CB000201B0020EFF30880EFF3098101B5724675
:102CC00000F070F901BD00BF70B52B4C06460D46F3
:102CD0002A48452105F00EF8A26AD00603D5452101
:102CE000274805F007F8A36A190703D545212548A9
:102CF00005F000F8204CA36A9A0710D54521224818
:102D000004F0F8FF626BA36A1B0608D545211F4833
:102D100004F0F0FF1EB1A36A23F08003A362164CF7
:102D2000A26AD60703D54521194804F0E3FFA36A38
:102D3000980603D54521174804F0DCFF0E4B9A6A2C
:102D4000D10602D49A6A92070DD59B6ADB060AD592
:102D50001149124840F24F1204F0B2FE40F24F11F6
:102D60000D4804F0B2FF0020034A936A43F0FF03CA
:102D70009362287070BD00BF00ED00E0778F000007
:102D8000928F0000CA8F0000E28F0000FF8F0000CA
:102D90001A9000003E9000007290000058890000D8
:102DA00070B5234C06460D462248452104F0A2FF8B
:102DB000A26AD10403D545211F4804F09BFFA36AF2
:102DC0001A0503D545211D4804F094FF184CA36A49
:102DD0009B0510D51A48452104F08CFFA26BA36A0D
:102DE000180408D54521174804F084FF1EB1A36AD2
:102DF00023F40043A3620E4CA36A590503D5452171
:102E0000114804F077FFA36ADA050BD545210F4876
:102E100004F070FF0020064A936A43F47F439362F4
:102E2000287070BDA36A9B04F4D545210848EFE7DC
:102E300000ED00E0AC900000C7900000CA8F0000D9
:102E4000DD900000FB90000015910000359100001E
:102E50003E90000038B5214C4521214804F04AFF3E
:102E6000A26A950103D545211E4804F043FFA36AD9
:102E7000DC0103D545211C4804F03CFF174DAC6A2A
:102E800014F4801404D04521184804F033FF0224C0
:102E9000AB6A180303D54521154804F02BFF0F4DED
:102EA000AA6A510303D54521124804F023FFAB6AF7
:102EB0009A0303D54521104804F01CFF074DAB6A67
:102EC000DB0303D545210D4804F014FFAB6A20460F
:102ED0006FEA03436FEA1343AB6238BD00ED00E0D5
:102EE000529100006F91000087910000A6910000B0
:102EF000D5910000F891000022920000419200005C
:102F000010B51E4C1E48452104F0F4FEA269636909
:102F1000580603D545211B4804F0ECFE6369D90728
:102F200008D54521184804F0E5FE636943F0FF0326
:102F3000636110BD63699A0702D545211348F2E722
:102F400063695B0702D545211148ECE763691807FF
:102F500002D545210F48E6E76369D90602D5452128
:102F60000D48E0E763699A0602D545210B48DAE788
:102F700063691B06D9D545210948D4E7D0ED00E0A7
:102F8000719200008F920000A4920000BF92000096
:102F9000E292000002930000249300003E930000A0
:102FA0005D9300002DE9F041624B05465C68002608
:102FB0009CB0C4F3080786F31188BFF36F8F02F04B
:102FC0007F43B3F17F4F1ED112F001033BD012F0CB
:102FD000400302F0080840F0A880520744BF0D46A5
:102FE0001E462A68544B58BF01261344012B98BF34
:102FF0002A6C4521514804F07DFEB8F1000F1DD028
:10300000EFF389855DB940F2E1324D494D4804F056
:1030100057FD40F2E1314A4804F057FE00250023F5
:10302000FA1E98468DF807301346092B6BD8DFE857
:1030300003F00C5B5F3A636A6A6A6A67EFF388853C
:10304000E0E70D46DEE71E46DDE745213E4804F099
:1030500051FE384B8DF80780DC6A14F0020404D06E
:1030600045213A4804F046FE48E0DB6A5B0022D581
:103070004521374804F03EFE364B1B7833B1012022
:103080000DF10701FFF720FE044614E0324B1B78D8
:103090002BB101200DF10701FFF782FEF4E72F4B62
:1030A0001B889BB213B1FFF7D5FEEDE72C4B5B6994
:1030B0000BB1FFF725FF9DF8073093B96822294629
:1030C00002A804F0A3FF099B56B3C3F3080222B978
:1030D0006FEA53236FEA43230993204602A9FFF7BF
:1030E00001FD1CB0BDE8F08100200DF10701C9E72A
:1030F00000200DF10701CFE7FFF702FF0024DAE718
:1031000045211848AEE7184914F4F87F174A1848C3
:1031100008BF0A46A7F11003452104F0EBFDEDE7D7
:1031200023F4FF7323F00103D6E7B8F1000F88D131
:10313000012667E700ED00E0A6ED0501A39300007E
:103140007290000058890000C7930000E3930000CC
:103150000994000028ED00E029ED00E02AED00E0F0
:10316000D0ED00E02D940000759300008A930000DC
:1031700056940000044B5A6942F010025A615A6991
:1031800042F480625A61704700ED00E0044B996898
:10319000586A884203D003494FF080520A60704752
:1031A0006C09002004ED00E0BFF34F8F0549064B8A
:1031B000CA6802F4E0621343CB60BFF34F8F00BFD5
:1031C000FDE700BF00ED00E00400FA05002318460B
:1031D000054A1168C1F307218B4200D17047936003
:1031E00010610133F8E700BF90ED00E010B572B652
:1031F000002484F31388FFF7E9FF0E4A23461146A3
:103200004FF0FF3403F120000133102B42F820402F
:10321000F8D100234FF0FF3003F160020133102B8F
:1032200041F82200F8D162B6BFF34F8FBFF36F8F22
:1032300010BD00BF00E100E0002320210348C218B8
:103240000133412B82F80013F9D1704700E100E00F
:10325000064B9B68834207D1EFF3058323B1044AF1
:10326000536843F08053536003F076B96C09002033
:1032700000ED00E082680C4B9A60036883F3888855
:10328000436883F38988027B02F00101EFF39483A2
:1032900023F00303920748BF43F0020309B143F050
:1032A000010383F39488704700ED02E0084AD36875
:1032B00048B123F400531B041B0C43F0BF6343F4D9
:1032C0000033D36070479BB243F40053F5E700BF6F
:1032D00000ED00E0084AD36840B19BB243F480435C
:1032E00043F0BF6343F40033D360704723F480435B
:1032F0001B041B0CF4E700BF00ED00E0084AD36894
:1033000040B19BB243F0080343F0BF6343F4003382
:10331000D360704723F008031B041B0CF4E700BFC5
:1033200000ED00E0034AD2F88C3043F44063C2F869
:103330008C30704700ED00E0084B1A6818B142F07D
:1033400001021A60704722F001021A601A6811B176
:1033500042F00202F5E722F00202F2E7D0ED00E0CF
:103360001FB5094C094A23460121094800F01AF902
:1033700000230393074B0121E41A01A8019302944F
:1033800000F02CF904B010BD000001200000002066
:1033900090870000B801002010B50B680C7A23F06C
:1033A0001F0204F01F031A43CB68640923F01F03B4
:1033B000044943EA440343F001038860CA600B6197
:1033C00010BD00BF90ED00E030B54B680C6885B0D3
:1033D0000A898D7A0094013B24F01F04234402F0F3
:1033E0001F0242EA451223F01F030F2804468DF8FE
:1033F0000820039309D902464521064804F07AFCC7
:103400006FF01504204605B030BD6946FFF7C4FFD4
:10341000F8E700BF729400002DE9F04F894614468A
:1034200006464FF00008524D85B0C84523DA77684C
:10343000002F42D01F2F17D9FB0615D1D6F800A0B8
:103440001AF01F0F10D1504604F08EFD834607EB93
:103450000A00013804F088FD834510D06FF0150B89
:103460005A464521434802E042464521424804F07D
:1034700041FC6FF01504204605B0BDE8F08F1BF14C
:10348000160FEDD0631E5B45EADBC5F808B0E968AE
:10349000C5F808B02F6921F01F01D6E900321A449F
:1034A000994247F01F0702F1FF3A1CD1574508D156
:1034B00031465FFA8BF0FFF787FF08F101080C3601
:1034C000B3E73146C5F808B0EB6822F01F0203F0FD
:1034D0001F031A43EA60E0B2FFF776FF10F1160F00
:1034E000C7D0441CE9E7013B5745E0B223F01F0376
:1034F000C5F808B006D12A69314602F01F0213430D
:103500002B61E9E7296901F01F010B432B6131466B
:10351000FFF75AFF10F1160FABD0C5F808B0EA68F4
:103520009DF80830013F62F304038DF808302B69E1
:103530009DF808205B0863F347128DF80820D6E950
:1035400000321344009323F01F033B44441CA3EBBD
:103550000A0AE0B22AF01F030F28039303D9024698
:103560004521064883E76946FFF716FFB9E700BF24
:1035700090ED00E0C59400009D940000729400005E
:103580000522034B5A60BFF34F8FBFF36F8F704715
:1035900090ED00E0BFF35F8F0022014B5A6070474F
:1035A00090ED00E010B50A4C2278FFF735FF20704F
:1035B00016300CD10749084840F2051204F080FA91
:1035C000BDE8104040F20511024804F07EBB10BD7A
:1035D000DC090020ED940000588900002DE9F74F28
:1035E0002D4D8A4606464FF00008AB462B4FD0457E
:1035F00002DB03B0BDE8F08FD6F80490B9F1000FFC
:1036000044D031680846019104F0AEFC01990446AB
:1036100009EB0100013804F0A7FC84424FF01402CA
:103620001F4B13D06FF0150302FB08F84BF808305E
:1036300040F215121B491C4804F042FA40F21511E1
:10364000184803B0BDE8F04F04F03FBB14F1160F6B
:103650002C60EDD01978A142EADD02FB08B0BC6015
:10366000BC60FC6800F10801007B64F30400087191
:1036700038690C79400860F347140C71F96821F03F
:103680001F016960396921F01F01296108F10108F2
:1036900014350C36ABE700BF0C09002090ED00E0BC
:1036A000DC090020ED9400005889000070B51B4D26
:1036B0002E68102E0DD94FF49E721949194804F046
:1036C000FFF917484FF49E7104F0FFFA4FF0FF30F6
:1036D00070BDFFF75FFF0020134C144A226386423F
:1036E00015D1134B1E70FFF74BFF2368C3F307235D
:1036F000102B0AD00A490B484FF4CF7204F0E0F9BE
:103700004FF4CF71064804F0E0FA0020E0E7696862
:1037100001EB0011FFF740FE0130E0E79C8700005D
:10372000ED9400005889000090ED00E0AAFF4400ED
:10373000DC090020014B1860704700BF2800002002
:1037400010B52A48FEF72EFD044658B14521024621
:10375000274804F0CFFA22464521264804F0CAFA49
:10376000204610BD04F04FFB044618B10246452127
:103770002148EEE704F053FB044618B10246452108
:103780001E48E6E7012004F04FFB044618B102464C
:1037900045211B48DDE7012004F03AFB04460028E0
:1037A000D9D1072004F01DFB044618B1024645217B
:1037B0001448CEE71F2004F00EFB044618B1024661
:1037C00045211148C5E7072004F016FB044618B14F
:1037D000024645210D48BCE7012004F008FB0446E1
:1037E0000028BDD0024645210948B2E733950000C4
:1037F00039950000BA960000679500009495000086
:10380000C7950000FB9500002D9600005D96000016
:103810009696000010B50446002201210A20FFF709
:10382000DDF860682369094A00F1080100F046FEEE
:10383000074B984207D007484521226804F05AFAFE
:103840006FF00F0010BD0020FCE700BF99380000AA
:103850000000AD0BF6960000CA0708B5436809D40E
:10386000C1F34202012A08D0022A0FD0452109489B
:1038700004F040FA6FF0150007E04FF0CC721B68BF
:10388000C3F8242503690020596208BD4FF0C862BF
:103890001B68F5E71B9700000378012B08D0022B6B
:1038A00008D04BB9054B0B6201F1100001F0E4BEEA
:1038B000034BF8E7034BF6E7034BF4E70000AD0BCF
:1038C0000100AE0B0200AE0B0100AD0B2DE9F04F75
:1038D000934614221E4604698BB0054689460DEBBB
:1038E00002000021D4F82C80B4F828A004F0B9FB21
:1038F0008DF815604FF0FF324FF0FF33204601F096
:10390000F1FE2869103000270022002301F0EAFEB2
:10391000686800F047FE4E463C465F4501D30024F0
:1039200043E0317A0B0700F19B80BAF1000F0DD014
:103930007B1C5B450AD2880708D4337D81EA0302E9
:1039400002F0010203F0040313431FD0002C36D110
:1039500000243368089373680693337A686803F029
:10396000010213F0020F8DF8142005A90CBF2022CC
:10397000002200F073FE3C4B984234D00B33984247
:103980000CBF6FF00F046FF004040EE001230393EB
:1039900073681A19524514D9224645213348CDF887
:1039A00000A004F0A7F96FF01B04686800F022FE85
:1039B000286901F061FE20460BB0BDE8F08F0023BE
:1039C000E5E7CA0705D41A46316808EB040004F09D
:1039D0001DFB73681C44039B63BB002CB8D0CDF85F
:1039E00020800694B9E7286910304FF48042002304
:1039F00001F078FE78B145213A461D4804F07AF985
:103A0000686800F0F7FD6B68D3E9020101F016F970
:103A10006FF00404C9E72B691A6A134B9A4205D068
:103A20003B464521134804F065F9F1E7337ADB079B
:103A300003D4002401370C366FE7089B9845F8D172
:103A40000C2303FB07935A680C3B9442F1D3A41A4E
:103A5000D86808EB0401039304F0D8FA039BF2E75B
:103A60006FF02204A1E700BF0000AD0B3297000009
:103A70005997000088970000F0B54B79012B2AD0A8
:103A8000032B25D110268B79032B21D1CC792CB196
:103A9000012C1DD143685B689B0719D00A7912B1CC
:103AA000022A15D10E220B684568B3F5164F2D6812
:103AB00065D02DD8B3F5165F64D016D8B3F5966FE0
:103AC00062D00AD8B3F5967F61D0B3F5167F61D086
:103AD0006FF0220052E00026D5E7B3F5166F5CD0F8
:103AE000B3F5965FF4D1374B3CE0B3F5E14F57D0D7
:103AF00007D8B3F5615F55D0B3F5964FE8D1324B97
:103B000030E047F61227BB42E2D14FF4000329E030
:103B1000B3F5613F48D013D8B3F5963F47D009D8E5
:103B20004DF6C027BB4244D0B3F5614FD0D14FF41E
:103B30006B0317E0B3F5E13FCAD14FF0EB7311E02F
:103B4000B3F5612F38D008D8204FBB4237D0B3F53A
:103B5000E12FBDD14FF0E86304E01D4FBB42B7D168
:103B60004FF08053C5F824350369344322430433AE
:103B700003C9C5F86C2583E803000020F0BD4FF4AD
:103B80001D03EFE7134BEDE74FF49E23EAE74FF4F5
:103B9000A033E7E74FF41C33E4E74FF41D23E1E7DC
:103BA0000D4BDFE70D4BDDE74FF06C73DAE70C4BA5
:103BB000D8E74FF46503D5E74FF07063D2E74FF0D5
:103BC0008063CFE700B0130000A04E0090D0030048
:103BD00040420F000050270000C0750000F03A007E
:103BE00000903A01036810B55A090CBF4FF0FF323C
:103BF000002203F01F0322FA03F3DB0704460AD472
:103C00000E490F484FF4057203F05AFF4FF4057147
:103C10000A4804F05AF8236803F01F025B09226087
:103C20000AD00649064840F2192203F049FF40F243
:103C30001921024804F049F8024810BDC09700005D
:103C40005889000000258450F8B505460F460669DE
:103C500004F009FB10B92C4B1B7883B94FF02003FB
:103C6000EFF3118483F31188BFF36F8F284604F0BC
:103C700067FA28BB84F31188BFF36F8FEEE76424E3
:103C8000284604F05DFA70B9012004F088FA013C7E
:103C9000F6D10021212002F029FCF0E784F31188FD
:103CA000BFF36F8FF5E74FF02003EFF3118483F339
:103CB0001188BFF36F8F284604F042FA0028EDD038
:103CC000012206F8107F69680B68C3F84465C3F8E1
:103CD00048250022C3F82021D3F82001C3F8582139
:103CE000D3F858214A68D20641BF0822C3F80025FC
:103CF0004FF48002C3F8042301229A6084F31188F0
:103D0000BFF36F8FF8BD00BFDD0900202DE9F34739
:103D10004FF00008436807691C680B68C4F8008509
:103D20000646386001A80D460193FFF75BFF0123AB
:103D3000019A934083602B6801A80193FFF752FF1B
:103D40000322019B803340F823206B68591C07D065
:103D500001A80193FFF746FF019B803340F82380C1
:103D6000D5E90023C4F80C25C4F81435AB685A1CF7
:103D700008D001A80193FFF735FF0022019B803393
:103D800040F82320EB68581C11D001A80193FFF7DD
:103D900029FF0123019A93408360EB6801A80193F6
:103DA000FFF720FF0322019B803340F82320316975
:103DB000D5E902323046C4F808250431C4F810357C
:103DC000FFF75AFE804680B973685B6819073AD5D9
:103DD00007F1120000F016FB304B984209D0452144
:103DE0002F4803F087FF6FF00408404602B0BDE89B
:103DF000F08714F5907A97F812900AD129492A4849
:103E00004FF4F67203F05CFE4FF4F671254803F0B0
:103E10005CFF49F0004914F10C0FCAF880900AD1F8
:103E2000204921484FF4F97203F04AFE4FF4F9712A
:103E30001C4803F04AFF0123C4F88C90BA7C9340DD
:103E40001A4AC2F804350823C4F800356B680133F8
:103E50000CD00023C4F81031D4F8103107F111034D
:103E6000C4F834350123C4F838352360736810373B
:103E70005B681A075CBF4FF48072C4F80423DB064A
:103E800044BF4FF48003C4F804330023C4F84475DE
:103E9000C4F848350123A360E360A6E70000AD0B3A
:103EA000F397000017980000588900000070015037
:103EB00030B585B06C460546084B0FCB84E80F0043
:103EC000002201210820FEF789FD0820FEF768FD89
:103ED00021462846FFF71AFF05B030BDEC850000EB
:103EE00030B585B06C460546084B0FCB84E80F0013
:103EF000002201210920FEF771FD0920FEF750FD87
:103F000021462846FFF702FF05B030BDFC850000C2
:103F10000348452108B503F0EDFE0020FFF744F902
:103F2000669800002DE9F0430025214C214E54F8FD
:103F3000048CDFF8889085B0A84503D8002005B030
:103F4000BDE8F083636A96E807001F6801AB83E869
:103F500007000C221946384604F031F890B98FB1A9
:103F6000636A21691B681A6991420BD19A69A16938
:103F7000914207D8E169914204D962695B6932EAEA
:103F800003030AD0276A67B10B4803F099FD40404C
:103F900080F311884FF0040002DFE36801351C4410
:103FA000CAE7484603F08CFD636A1F60F5E700BF6F
:103FB0003C0200000C86000088980000B1980000C8
:103FC000054B1868043B1B68092B03D1431E58425C
:103FD00058417047002070473401FF004F4A08B530
:103FE000136843F0020313604D4B1B68092B01BF9C
:103FF0004FF050230022C3F81421C3F81821FFF713
:10400000DFFF30B10123474A1360A2F63822C2F81D
:104010007835434B1B68092B07D1434B1B68012B99
:104020001EBF0122414BC3F87825FFF7C9FF10B12D
:104030000E223F4B1A603A4B1B68092B04D1002219
:104040003C4B1A6001225A600022D30003F57F0323
:10405000D3F80013013108D0D3F800130132D3F89C
:104060000433B2F5807F0B60EFD1334BDA69D107AF
:104070003BD5324B1946D3F80024012AFBD1C3F8B3
:104080000425D1F80034012BFBD12B4BDA69D20780
:1040900008D5DA69294922F00102DA61D1F8002451
:1040A000012AFBD11A6A01320AD11A6A22F0FF02F0
:1040B00042F020021A62214AD2F80034012BFBD1CF
:1040C00000221E4BC3F80425D3F80024012AFBD19B
:1040D000BFF34F8F1A491B4BCA6802F4E0621343C7
:1040E000CB60BFF34F8F00BFFDE71B6A0133C0D029
:1040F000134BD3F88C2042F44062C3F88C20D3F8E1
:10410000882042F47002C3F88820BFF34F8FBFF3BA
:104110006F8F0D4B0D4A1A6008BD00BFD0ED00E057
:104120003001FF00384A00503401FF0000400050C9
:10413000E4AE03500C4700500080FF000090035095
:1041400000ED00E00400FA05840000200090D00398
:1041500008B570B101281BD04FF44F7213491448B1
:1041600003F0AEFC11484FF44F7103F0AEFD002098
:104170000DE031B14FF05023D3F8183403F00303AE
:104180000B704FF05023D3F81804C0F3004008BD63
:1041900031B14FF05023D3F80C3403F001030B700E
:1041A0004FF05023D3F80C04EFE700BFE498000071
:1041B0005889000010B5044640B909490948B5229C
:1041C00003F07EFCB521064803F07FFD064B1A790B
:1041D00022B9012205481C601A7110BD0448FCE791
:1041E00018990000588900002C0900200000AD0B30
:1041F0000C00AD0B08B50B4B1B7943B90A490B48B2
:10420000CE2203F05DFCCE21074803F05EFD0520C1
:10421000FEF7D6FB20B9BDE808400520FEF7C0BB7D
:1042200008BD00BF2C090020189900005889000023
:10423000224B13B51B79044653B9214921484FF449
:10424000857203F03DFC4FF485711D4803F03DFD80
:104250006CB1012C28D04FF49E721949194803F013
:104260002FFC4FF49E71164803F02FFD18E02046F6
:104270000DF10701FFF76CFF4FF0502390B19DF84F
:104280000720022A0ED1C3F8182500220E4B1A600F
:104290001B6802224FF05023C3F8042301229A60C6
:1042A00002B010BD0122EEE70022084B1A601B6825
:1042B0004FF05023C3F804431C60F1E72C090020A1
:1042C0001899000058890000045100500051005016
:1042D0002D4B13B51B79044653B92C492C4840F299
:1042E000431203F0EDFB40F24311284803F0EDFCCC
:1042F00074B1012C27D02549254840F25F1203F004
:10430000DFFB40F25F11214803F0DFFC02B010BD7B
:104310004FF050230222C3F808230122C3F80441BE
:1043200042F2107403F582731B681A4B1A60002165
:104330000846FFF70DFF0028E8D0012003F02FFF0B
:10434000013CF4D1E2E74FF050230022C3F80843C8
:10435000C3F8002103F580731B680F4B1C608DF8B8
:10436000074042F2107401200DF10701FFF7F0FE43
:104370000028CBD09DF807000128C7D103F00FFF1C
:10438000013CF0D1C2E700BF2C09002018990000C1
:10439000588900000C50005004500050164B07B5CF
:1043A0001A6852B1002018601B6801224FF0502398
:1043B000C3F80823114B1B689847114B1A688AB140
:1043C00000200DF1070118601B68FFF7C1FE9DF882
:1043D00007104FF0502301294FF0020205D1C3F816
:1043E0001825996003B05DF804FBC3F80823034B5C
:1043F00001201B689847F5E7005100502C09002068
:1044000004510050F0B54FF02003EFF3118783F310
:104410001188BFF36F8F0D4A1668F14389B291B1CD
:104420000025ECB221FA04F3DB0705F10105F8D50C
:104430000123A340334304700548136087F31188B8
:10444000BFF36F8FF0BD0348F8E700BF34090020C9
:104450000000AD0B0200AD0B036810B55A090CBF8C
:104460004FF0FF32002203F01F0322FA03F3DB07B1
:1044700004460AD40E490F484FF4057203F020FB9E
:104480004FF405710A4803F020FC236803F01F0273
:104490005B0922600AD00649064840F2192203F05F
:1044A0000FFB40F21921024803F00FFC024810BD37
:1044B000C097000058890000002584502DE9F3477B
:1044C0000646924699460C4651B9314931484FF457
:1044D000837203F0F5FA4FF483712D4803F0F5FB76
:1044E000D4E900239A420AD129492A4840F2071206
:1044F00003F0E6FA40F20711254803F0E6FB342703
:1045000096F80480244D07FB08F7E91991F82D303F
:10451000002B3BD18B6081F8303081F82F30637BEA
:10452000C1F8049081F83230236845F807A001A84B
:10453000D6F8009040F20C6A0193FFF78DFF019BC3
:10454000803340F823A0636801A80193FFF784FF3C
:10455000019B803340F823A0D4E90023C9F8082543
:10456000C9F80C35A368C9F82435EB5923B1306874
:1045700040F30730FEF714FA342303FB08550123F8
:10458000064885F82D3002B0BDE8F0870448FAE708
:104590005599000058890000380900200000AD0B33
:1045A0000500AD0B342270B50F4D0479064602FBB1
:1045B000045292F82D20012A0AD00C490C484FF4DD
:1045C000B57203F07DFA4FF4B571084803F07DFB36
:1045D00006223368C3F80025342303FB0454022366
:1045E00084F82D3070BD00BF3809002055990000B7
:1045F00058890000342270B5144D0479064602FB38
:10460000045292F82D2052B91149124840F2751205
:1046100003F056FA40F275110D4803F056FB3423AF
:10462000002103FB045332680B489960C2F8080369
:10463000D2F8000220F4BC50C2F80002C2F8001503
:10464000012283F82F1083F82D2070BD3809002037
:10465000559900005889000002029C012DE9F0479D
:10466000037980460D4617463BB94B68B3F5805F2A
:1046700003D28B68B3F5805F0AD3BC49BC4840F2D3
:104680008A2203F01DFA40F28A21B84803F01DFB8C
:10469000342498F80490B74E04FB09F43359FBB95D
:1046A0002B78022B0ED02B78032B19D140F29322BA
:1046B000AE49AF4803F004FA40F29321AB4803F04F
:1046C00004FB0DE040F29222A849A94803F0F8F952
:1046D00040F29221A54803F0F8FA3359002BE2D0BA
:1046E0003423002203FB0963D8F8004083F82E200E
:1046F0006B6853B1EB6803F06043B3F1005F04D023
:10470000DFF878824046BDE8F0874FF0340C0CFBB0
:10471000096C994BC4F808339CF82F3003F0FF0A5A
:1047200033B1DCF80830DFF85882C4F80433E9E725
:1047300017F0140F0CBF01230023A8468CF82F306C
:104740000CF10C0EB8E80F00AEE80F00D8F80030FE
:10475000CCF82070CEF80030C7F300138CF830305E
:104760006B78C4F88835C4F804A1D4F80431C4F8CF
:1047700024A1D4F82431C4F860A1D4F86031C4F87D
:1047800048A1D4F8483117F0010318BF0123C4F839
:10479000503517F0020318BF0123C4F840352B78B9
:1047A000032B00F2DF80DFE803F0AECA9302F906C4
:1047B0000AD56E496E484FF4E77203F081F94FF461
:1047C000E7716A4803F081FA3A070AD567496848F1
:1047D00040F2CF1203F074F940F2CF11634803F0B6
:1047E00074FA7B070AD5614961484FF4E87203F017
:1047F00067F94FF4E8715D4803F067FA2A6902F03F
:104800006043B3F1005F7FF47BAF4FF48073E968DE
:10481000C4F800326B68C4F84415C4F84835002366
:10482000C4F85031D4F8501101212162A160D4F8AC
:1048300050110029FBD0C4F85031D4F85031AB6886
:10484000C4F84425C4F8483534234FF4802203FBD0
:1048500009639A600823DFF82C81380707D42A7887
:10486000032A04D00122E2506B6803B96261342349
:1048700003FB09F3F218F358002B40F08780012561
:10488000D4F84821D4F80411002940F09780003A68
:1048900018BF0122D4F82411002900F09580C4F833
:1048A0002431D4F82411D4F86001D4F8001210B1E6
:1048B00011F4007F04D1256265610028E0D0002258
:1048C000C90540F18180C4F84831D4F84821D7E7C0
:1048D0006B68EA68C4F84425C4F848352B6903F0CE
:1048E0006042B2F1005F7FF40BAFAA68C4F83435C0
:1048F0004FF48453C4F83825C4F80032342302221C
:1049000003FB096312E06B68EA6817F0200FC4F834
:104910004425C4F848354FF034030BD04FF480726F
:10492000C4F800224FF4802203FB09639A6001233C
:1049300023628FE74FF40072C4F80022DFE76B6850
:10494000EA68C4F83425C4F838354FF48053C4F805
:1049500000323423022203FB09639A60012323629D
:10496000002378E70823DFF8208076E755990000D8
:10497000588900003809002002029C010A00AD0B92
:104980000B00AD0B0000AD0B0400AD0B790744BF6D
:10499000002393607B0606D4342303FB09639A68E3
:1049A00042F002029A60342303FB0966B36843F4C1
:1049B0000073B360B368C4F80433A3E6C4F80431E9
:1049C000D4F80421012265E7002A3FF459AF3421CD
:1049D000002001FB0962D4F8C434C4F8C43482F85E
:1049E0002F008BB10F4A104913F0010F14BF9046EE
:1049F0008846013213F0020F18BF904613F0040FDF
:104A00000A4B18BF98467DE67B063FF57BAE2046F5
:104A100009FB016103F0C5FB034B002808BF984662
:104A200070E600BF0000AE0B0100AD0B0200AE0B44
:104A3000F0B5624C87B0236853B96149614840F2D0
:104A4000CD2203F03DF840F2CD215D4803F03DF961
:104A50005D4BD3F824211D46FAB10022C3F824216E
:104A6000D3F82421D3F80421BAB9A268C3F80823E3
:104A70000222A260A268C3F80423D3F860211AB10D
:104A8000D3F800329E0503D401224F4B1A625A61BB
:104A9000012384F82E3007B0F0BDD5F80431002B87
:104AA00054D00023C5F80431D5F80431236A5D06DB
:104AB0000AD494F82E303BB94049434803F071FBC7
:104AC00080F0010084F82E00236A13F0040722D13D
:104AD0003E4E01AD0FCE0FC5336894F830C02B6049
:104AE000394BC3F86071D3F86021C3F85C71D3F817
:104AF0005C21BCF1000F02D094F82E205AB10022A4
:104B0000C3F80022A260324AC3F808234FF480623F
:104B1000304BC3F880212C4AD2F8C4349807C2F82D
:104B2000C4343CD501238DF8003094F830300BB9F3
:104B300084F82F30236A5B0703D594F82E30002BBE
:104B4000A9D0D4E9003168469847A4E7C5F84831B0
:104B5000D5F84831237B83B91C4F01AE0FCF0FC668
:104B60003B68336094F83030002BD4D1C5F8003264
:104B7000A360174BC5F80833C8E74FF40073C5F8B6
:104B8000003240F20223A36003F1CE73C5F808336C
:104B9000A368C5F804330123AB602B627BE7590798
:104BA00001D50223BFE7DA0701D50323BBE794F859
:104BB0002E30002BB7D00423B5E700BF3809002002
:104BC000559900005889000000A0005044090020B9
:104BD00002029C0100E100E0036810B55A090CBF15
:104BE0004FF0FF32002203F01F0322FA03F3DB072A
:104BF00004460AD40E490F484FF4057202F060FFD4
:104C00004FF405710A4803F060F8236803F01F02AF
:104C10005B0922600AD00649064840F2192202F0D8
:104C20004FFF40F21921024803F04FF8024810BD2F
:104C3000C09700005889000000258450F7B50C4645
:104C4000064603F0DEFA204603F0DBFA01A840F244
:104C50000D650196FFF7C0FF019B0127803340F8E7
:104C6000235001A80194FFF7B7FF019B803340F860
:104C70002350042003F093FA092501A80194FFF7BB
:104C8000ABFF019A0369D340DB0714D401A8019656
:104C9000FFF7A2FF019B013D07FA03F3C360042065
:104CA00003F07DFA304603F0ACFA042003F077FA03
:104CB00015F0FF05E1D101A80194FFF78DFF012355
:104CC000019A9340C360042003F069FA204603F080
:104CD00098FA042003F063FA01A80194FFF77CFF1F
:104CE000019A03690348D34003F00103C01A03B0DB
:104CF000F0BD00BF0100AD0B0E4B70B553F8204066
:104D0000013053F82060A64200D870BDD4E90035C8
:104D10002846984765B1EB6830B10028B8BF4042DB
:104D2000FF28A8BFFF2018705A7842F001025A707D
:104D30000834E8E71488000070B5054610B900246F
:104D4000204670BD0378002BF9D00F4A0F4C164651
:104D5000944208D10D4CB442F1D0204603F05EFAE3
:104D600050B91834F7E7204603F058FA10B1236819
:104D7000AB42E5D01834EBE72846216803F013F97D
:104D80000028EED1DCE700BF68010020F000002021
:104D9000F7B504460E464FF02003EFF3118783F377
:104DA0001188BFF36F8F01F0D1FB0022042C98BF54
:104DB0001D4B054694BF53F824301C4B00924521EF
:104DC00022461B4802F096FF3EB1F369C3F3080385
:104DD0001BB14521174802F08DFF2DB1284603F085
:104DE00048FA08B1037803B9134803462A46452117
:104DF000124802F07FFF31462046FFF789F8042C65
:104E000008D10F490F488F2202F05AFE8F210C481B
:104E100002F05BFF87F31188BFF36F8F284603B062
:104E2000BDE8F040FEF714BA2C880000919900000C
:104E3000A7990000D49900009F990000FA990000FA
:104E4000179A0000588900000248034A0021121AEC
:104E500003F007B9B8010020E0090020012208B5DD
:104E6000094B02201A70FFF747FF01F0D5FE03201F
:104E7000FFF742FF00F0D6F902F008FE034A137B69
:104E800023F00103137308BDDD0900207802002020
:104E90002DE980483F4BB7B003F5006787F30888DA
:104EA00083F30A880024E0233B4D4FF0010B85F883
:104EB0002230EC772C766C76AC76EC766B6A374EDB
:104EC00043F4E0236B626B6ADFF8E8A043F400234D
:104ED0006B62AC63EB68DFF8E0809BB243F0BF63CA
:104EE00043F40833EB60FEF745F9FDF7DDFD4FF0C5
:104EF000FF33AB62EB62FEF7D9FBFEF731FA40F20B
:104F00000113274DADF8243006ABAB60CDE91F444B
:104F100003F083F92046FFF7EFFE0120FFF7ECFED8
:104F200001F0C4F91F4B6E624FF480521E49059385
:104F300030465346CDE9034BCDE90144009400F0DF
:104F40001DF9737B814623F004033046737301F02F
:104F500023F80F234FF4A072CDE902431349144BF9
:104F60004046CDE904B4CDE9005400F007F998F8C3
:104F70000D30524623F0040388F80D3005F1180374
:104F800049463046C5E90633C5F80C802C756F607C
:104F9000FDF76AFD201B002000ED00E078020020F4
:104FA0006C090020839A0000E0090020E01900202D
:104FB000715300005D4E0000B80100202DE9F04162
:104FC000144D154CA846154EAC4208D9314614482C
:104FD0003C2202F075FD3C21304602F076FE44454D
:104FE00002D30020BDE8F081D4E9041242EA0103B3
:104FF00013F003030BD1E068A361834201D1203495
:10500000E2E7A76901331760A2610A44F5E76FF090
:105010001500E7E768010020680100208B9A000076
:10502000588900002DE9F74304460D4690469946FD
:1050300000F108064FF02003EFF3118783F3118886
:10504000BFF36F8F304600F06DF940B91F4920481B
:10505000812202F035FD81211C4802F036FE3046E7
:1050600000F07EF9A369C3B12B601B68A361E369FB
:105070000133E3610024304600F062F940B913497E
:105080001348AC2202F01CFDAC21104802F01DFEBA
:1050900087F31188BFF36F8F13E058EA090203D139
:1050A0006FF00B042B60E6E7224639463046CDE927
:1050B000008900F08BFD044618B9064B9B685B69BC
:1050C0002B60204603B0BDE8F08300BF928900004A
:1050D000588900006C0900202DE9F04104460D4676
:1050E00000F108064FF02003EFF3118783F31188D6
:1050F000BFF36F8F304600F015F940B91D491E48C7
:10510000812202F0DDFC81211A4802F0DEFD3046EA
:1051100000F026F9D4F81880B8F1000F0FD120461E
:1051200001F086F858B12A68C0F87880426100F032
:1051300033FF39463046BDE8F04100F0A7BB2B688D
:10514000A26930461A602B68A361E369013BE36101
:1051500000F0F6F840B907490748AC2202F0B0FC6D
:10516000AC21044802F0B1FD87F31188BFF36F8FC3
:10517000BDE8F08192890000588900002DE9F043D4
:1051800085B0DDF83C900446B9F10F0F0F46154687
:1051900098462ED11F4B98452FD104F15803C4E9EE
:1051A0001633109B00262373042363730E9BE81DA4
:1051B00002930D9B20F0070001930C9B3D18C4E95E
:1051C000197000932A46434639462046C4E90666CC
:1051D000A66084F80E90E673E666FDF725FC0E4B9C
:1051E00066659B6803B11B6F2846236705B0BDE861
:1051F000F08309F110031E2BCFD94FF40272074937
:10520000074802F05DFC4FF40271044802F05DFDB6
:10521000C3E700BF715300006C090020B09A000082
:10522000588900002DE9F047394F3A4D3E46DFF8E6
:10523000EC8086B0BD420AD9414637484FF43672F9
:1052400002F03EFC4FF43671404602F03EFDB5429E
:1052500005F130041DD300F04FFB40F2E7384FF06A
:1052600000092C4C2D4DDFF8B0A0B4420AD92946D4
:10527000504640F2F72202F023FC40F2F721284684
:1052800002F023FDB44221D306B0BDE8F04700F0A0
:105290001BBD54F8043C059354F8103C049354F897
:1052A000143C039354F8183C029354F81C3C0193AB
:1052B00054F8203C009354E90A2354E90C01FFF709
:1052C0005DFF54F8303C5D652546B3E7636A5A1CC0
:1052D0000FD04FF400424046494623EAE373C2FB35
:1052E0000301494508BF4045276804D1384600F00E
:1052F00089FE3034B9E74FF47A720023FAF79EFF43
:1053000002460B4607F11800054901F023FAF0E7C1
:10531000680100206801002058890000B09A000050
:1053200089600000006838B1044B00F003001B7D69
:10533000C01A18BF01207047012070476C09002077
:10534000064A117D936802680B439A424FF00003AE
:1053500006BF036001201846704700BF6C0900209B
:10536000024A117D93680B43036070476C0900206B
:1053700008B5094C4FF02002EFF3118382F3118836
:10538000BFF36F8F01F0E2FA2062FCF71BFB0028ED
:10539000F0D1FDF78FFBEDE76C0900202DE9F3411B
:1053A000044616461F46EFF3058343B15F49604844
:1053B000652202F085FB65215C4802F086FC4FF017
:1053C0002003EFF3118883F31188BFF36F8F5948DF
:1053D000FFF7A8FF40B958495548812202F070FBF9
:1053E0008121554802F071FC5248FFF7B9FFE3688C
:1053F000524AD3B1A0689168884233D056EA070375
:1054000032D14C48FFF79CFF40B94B494848AC2289
:1054100002F056FBAC21484802F057FC88F3118893
:10542000BFF36F8F6FF00F0019E0916891F90E10C4
:105430000133E36093683F482161A360FFF780FF79
:1054400040B93D493A48AC2202F03AFBAC213A4817
:1054500002F03BFC88F31188BFF36F8F002002B08D
:10546000BDE8F0812169E3E790F90E3091F90E1063
:105470009942A8BF194621EAE1718B423CDD00F058
:105480004DFE054622464146CDE90067294800F019
:105490009DFB0028E3D04FF02003EFF3118683F348
:1054A0001188BFF36F8F2348FFF73CFF40B92249B3
:1054B0001F48812202F004FB81211F4802F005FCF5
:1054C0001C48FFF74DFF236821699C4207D033B188
:1054D00093F90E309942A8BF194621EAE171A068FC
:1054E00090F90E30994209D16DB13146114800F062
:1054F000CDF96FF00A00B2E70025C3E700F00EFE19
:105500000028F2D1F0E70B48FFF71AFF40B90A492B
:105510000748AC2202F0D4FAAC21074802F0D5FBD0
:1055200086F31188BFF36F8FE3E700BFD39A0000C3
:1055300058890000A0090020928900006C09002011
:1055400038B50446EFF3058343B145494548C722C2
:1055500002F0B6FAC721424802F0B7FBA368002B5D
:1055600078D0414DAA68934277D1E36843B93C496A
:105570003C48DF2202F0A4FADF21394802F0A5FB03
:10558000EFF3058343B139493648FE2202F098FA19
:10559000FE21364802F099FBAB68DB7B012B08D17A
:1055A00032493048FF2202F08BFAFF212F4802F0E7
:1055B0008CFBAA68D37B013BD373E368012B05D036
:1055C000013BE36000F080FB002038BD4FF020037A
:1055D000EFF3118583F31188BFF36F8F2448FFF732
:1055E000A1FE40B923491F48812202F069FA8121B6
:1055F000204802F06AFB1E48FFF7B2FEA06821694E
:1056000090F90E30994201D000F088FD204600F05C
:105610000FFEA06058B190F90E202261002282672F
:1056200000F0BAFC2946124800F030F9CAE7E06001
:105630000F48FFF785FE40B90E490A48AC2202F038
:105640003FFAAC210B4802F040FB85F31188BFF311
:105650006F8FB7E76FF01500B7E74FF0FF30B4E793
:10566000D39A0000588900006C090020F59A0000C8
:10567000A00900209289000038B504464FF02003AD
:10568000EFF3118583F31188BFF36F8F1248FFF793
:1056900049FE40B911491248812202F011FA8121D4
:1056A0000E4802F012FB0C48FFF75AFE204600F0AD
:1056B000BFFD48B10022826700F06EFC2946BDE8BC
:1056C0003840054800F0E2B8D4E902329A4218BFE7
:1056D0000133A360F2E700BFA40900209289000013
:1056E00058890000F7B5044616461F46EFF30583B8
:1056F0005BB156EA070308D02B492C48792202F007
:10570000DFF97921284802F0E0FA4FF02003EFF3A7
:10571000118583F31188BFF36F8F2548FFF702FED1
:1057200040B924492148812202F0CAF98121214847
:1057300002F0CBFA1E48FFF713FEA368ABB1013BA2
:105740001B48A360FFF7FCFD40B91A491748AC227B
:1057500002F0B6F9AC21174802F0B7FA85F31188C8
:10576000BFF36F8F002003B0F0BD56EA070313D1DB
:105770000F48FFF7E5FD40B90E490C48AC2202F096
:105780009FF9AC210B4802F0A0FA85F31188BFF312
:105790006F8F6FF00F00E6E722462946CDE90067DC
:1057A000034800F013FADEE7209B00005889000050
:1057B000A40900209289000010B5084C23685BB151
:1057C000FCF76CFC2268064910440861BDE81040F3
:1057D0000021104601F0F0B810BD00BFB409002050
:1057E0006C090020F8B504460D464FF02003EFF396
:1057F000118683F31188BFF36F8F1E48FFF792FD68
:1058000040B91D491D48812202F05AF981211A48E8
:1058100002F05BFA1748FFF7A3FD4FF400470022A0
:1058200040F2E7300021164BE7FB04011A61002328
:105830004FF47A72FAF702FD002C124B16DC186056
:10584000114B1D60FFF7B8FF0A48FFF779FD40B91B
:1058500009490A48AC2202F033F9AC21064802F0AB
:1058600034FA86F31188BFF36F8FF8BD0228B8BFF2
:105870000220E4E7AC09002092890000588900006A
:105880006C090020B4090020B009002010B50346BF
:105890000C46C1B9EFF30582AAB9144A516A92685D
:1058A000914210D0FFF74CFD40B911491148C32275
:1058B00002F006F9C3210E4802F007FABDE81040D5
:1058C0000020FCF7F9BF1846FFF73AFD40B9084938
:1058D0000848AC2202F0F4F8AC21054802F0F5F9D2
:1058E00084F31188BFF36F8F10BD00BF6C090020D7
:1058F000928900005889000038B54FF02003EFF37B
:10590000118583F31188BFF36F8F2048FFF70AFDDD
:1059100040B91F491F48812202F0D2F881211C485A
:1059200002F0D3F91948FFF71BFDEFF3058343B1EC
:1059300019491848FE2202F0C3F8FE21164802F069
:10594000C4F9164CA268D27B012A08D11249114829
:10595000FF2202F0B5F8FF210F4802F0B6F9A26865
:10596000D37B013BD3730948FFF7EAFC40B90849F0
:105970000848AC2202F0A4F8AC21054802F0A5F9D1
:1059800085F31188BFF36F8F38BD00BFAC090020CD
:105990009289000058890000F59A00006C090020E7
:1059A0000B4B10B599420C460AD10A490A484FF4EC
:1059B000717202F085F84FF47171064802F085F9B2
:1059C000D4E9003213605A600023C4E9003310BDEB
:1059D000B8010020409B000058890000836810B582
:1059E000044653B90A490B4840F24F2202F068F8C6
:1059F00040F24F21064802F068F92146A068FFF7FF
:105A0000CFFF637B23F0020363730023A36010BD09
:105A1000409B00005889000038B50246124802F049
:105A20004EFC124D044600B9EC68AAB9AB6843B904
:105A30000F491048852202F043F885210C4802F0F6
:105A400044F9AB685A7BD20606D1A26922B9DA8939
:105A50007F2A01D96B6238BDAB68A34201D0FFF742
:105A6000ABFE6C62F7E700BF940900206C090020D0
:105A7000409B00005889000010B590F90D200446A5
:105A8000002A437B06DA03F07F030146437306488E
:105A9000FFF786FF054B9868031B58425841BDE845
:105AA0001040FFF7B9BF00BF940900206C09002027
:105AB00038B504460D46FFF7DFFF637B43F0020372
:105AC000637325B3184BA5609C420AD11749184847
:105AD00040F2B53201F0F4FF40F2B531134802F064
