:020000040000FA
:10000000A02700207924000045900000D92400009A
:10001000D9240000D9240000D9240000D9240000EC
:100020000000000000000000000000005922000055
:10003000D924000000000000012200007118000017
:10004000392400003924000039240000392400003C
:10005000392400003924000039240000392400002C
:10006000392400003924000039240000392400001C
:10007000392400003924000039240000392400000C
:1000800039240000392400003924000039240000FC
:1000900039240000392400003924000039240000EC
:1000A00039240000392400003924000039240000DC
:1000B00039240000392400003924000039240000CC
:1000C00039240000392400003924000039240000BC
:1000D00039240000392400003924000039240000AC
:1000E000392400003924000039240000392400009C
:1000F000392400003924000039240000392400008C
:10010000392400003924000039240000392400007B
:10011000392400003924000039240000392400006B
:10012000392400003924000039240000392400005B
:10013000392400003924000039240000392400004B
:100140003924000000000000000000000000000052
:10015000000000000000000000000000000000009F
:10016000000000000000000000000000000000008F
:10017000000000000000000000000000000000007F
:10018000000000000000000000000000000000006F
:10019000000000000000000000000000000000005F
:1001A000000000000000000000000000000000004F
:1001B000000000000000000000000000000000003F
:1001C000000000000000000000000000000000002F
:1001D000000000000000000000000000000000001F
:1001E000000000000000000000000000000000000F
:1001F00000000000000000000000000000000000FF
:10020000DEE61E284CBBCE8F025B00003C000000E7
:1002100000000100010000000000000000000000DC
:10022000FFFF02910000000000000000000000003D
:1002300000000000000000000000000053B94AB9AF
:10024000002908BF00281CBF4FF0FF314FF0FF30DE
:1002500000F070B9ADF1080C6DE904CE00F006F8BD
:10026000DDF804E0DDE9022304B070472DE9F04732
:10027000089E0D4604468A46002B7FD18A421746C7
:1002800041D9B2FA82F24AB1C2F1200105FA02F371
:100290009740944020FA01F141EA030A4FEA1748D7
:1002A0004FEA144C1FFA87F9BAFBF8FE08FB1EA3AD
:1002B0000EFB09F14CEA0343994206D9FB1802D21E
:1002C000994200F224810EF1FF3E591AA3B2B1FB0C
:1002D000F8F008FB101100FB09F943EA0144A145BD
:1002E00005D93C1902D2A14500F20E810138A4EBD8
:1002F000090440EA0E4000211EB1D4400023C6E9A3
:100300000043BDE8F08702B9FFDEB2FA82F2002AAC
:100310004FD1CB1B4FEA174E1FFA87F80121250C4E
:10032000B3FBFEFC0EFB1C302B4608FB0CF945EA28
:100330000045A9450AD97D192CBF01230023A945F1
:1003400002D9002B00F0D9800CF1FF3CA5EB090588
:10035000A3B2B5FBFEF00EFB105508FB00F843EA14
:100360000544A04505D93C1902D2A04500F2C98038
:100370000138A4EB080440EA0C40BDE78B4208D9E1
:10038000002E00F0B1800021C6E900050846BDE856
:10039000F087B3FA83F1002946D1AB42C0F0A780C1
:1003A000824240F2A4800846002EAAD0C6E9004A44
:1003B000A7E7C2F12000974001FA02F34FEA174E77
:1003C000C14024FA00F51FFA87F894401D43B1FBA1
:1003D000FEF02B0C0EFB101100FB08FC43EA01435E
:1003E0009C4509D9FB182CBF012100219C4502D94D
:1003F000002900F095800138A3EB0C03ADB2B3FBEC
:10040000FEF10EFB113301FB08FC45EA0345AC4548
:1004100005D97D1902D2AC4500F289800139A5EBDE
:100420000C0341EA00417AE7C1F120048B4002FA53
:1004300001F705FA01FCE24020FA04F8E54000FA71
:1004400001FE134348EA0C024FEA13484FEA124CEC
:100450001FFA83F9B5FBF8FA08FB1A550AFB09F0F5
:100460004CEA054C60450AD913EB0C0C2CBF012556
:100470000025604501D9002D55D00AF1FF3AACEBBB
:10048000000C92B2BCFBF8F008FB10CC00FB09F9A1
:1004900042EA0C4CE14505D913EB0C0C01D2E145C5
:1004A0003BD8013840EA0A40ACEB090CA0FB0789B5
:1004B000CC4545464A4602D306D1C64504D201384A
:1004C000B8EB070569EB03022EB3BEEB05036CEB3B
:1004D000020C23FA01F20CFA04F42CFA01F30021C5
:1004E0001443C6E900430CE73146304609E7841A55
:1004F00065EB030301209A4656E7ACF1020C3D443C
:1005000024E702383C4434E702383C44EFE6AEF1DD
:10051000020E3B44D9E63146F3E602389C44C1E77B
:1005200002383B4468E7AAF1020A9C44A7E7023973
:100530003D4474E7704700BF2DE9E04F2746A046D1
:10054000A146A246A346A446A2B02DEC000A84F31D
:10055000008825462646A4473DEC000A22B0BDE8A7
:10056000E08F000038B54468054604F00304032C0E
:10057000816002D02CB1002000E0006800236B6095
:1005800038BD45220449054808F09EFB4521024834
:1005900008F066FCEFE700BFCF9B0000F29B000075
:1005A0000B6801330B60014B1B68184700000020EB
:1005B000014B1860704700BF0000002007B50B46D4
:1005C000002102460191034801A900F06DFA03B031
:1005D0005DF804FBA10500002DE9F74FB0F81CA061
:1005E00004461AF0080F93461CD001290CBF4AF0AC
:1005F000100A4AF0200AA0F81CA004F1140004F02C
:10060000F9F940B9BA49BB48AC2208F05DFBAC210E
:10061000B74808F025FC8BF31188BFF36F8F03B048
:10062000BDE8F08FB44FDFF8CC820AF0070A022948
:1006300006D1204608F055FB0028DED0012865D100
:10064000D4F81890A38BB9F1000F19DA00262568A9
:1006500023F00703C4E9006643F00103A383A38BDF
:1006600003F007025245009203D0A268002A40F02E
:10067000F18015B9002E00F02B814FF0000AEBE05D
:1006800003F00702511F012922D8002123F007039C
:10069000062A25689BB2C4E900110CD18D422A4676
:1006A00038BF0A462AB1E18B12680131E183002A82
:1006B000F8D143F002032046A38308F012FB06465C
:1006C0000028CCD0A38B43F02003A3830026C6E7E9
:1006D000042A0DD123F007039AB22046A28308F022
:1006E00000FB054680B142F020020025A283EDE721
:1006F00040F21B123946404608F0E6FA40F21B1160
:10070000384608F0ADFB00252E46A8E7032831D176
:10071000BAF1000F0AD0394640464FF4AB7208F0E8
:10072000D3FA4FF4AB71384608F09AFB236853B9FB
:100730003946404640F2571208F0C6FA40F25711C7
:10074000384608F08DFB23691E6856B93946404685
:100750004FF4AD7208F0B8FA4FF4AD71384608F0B6
:100760007FFBA38B23F0070343F006030025A3833D
:10077000A94674E704282ED1BAF1020F0AD03946EF
:10078000404640F25D1208F09FFA40F25D11384693
:1007900008F066FBE38B53B1394640464FF4AF7225
:1007A00008F092FA4FF4AF71384608F059FB23690C
:1007B0005E6856B93946404640F2611208F084FA44
:1007C00040F26111384608F04BFBA38B23F007037E
:1007D00043F00403CAE705282ED1BAF1010F0AD06D
:1007E000394640464FF4B27208F06EFA4FF4B271D7
:1007F000384608F035FB236853B93946404640F285
:10080000651208F061FA40F26511384608F028FBDD
:1008100023699E6856B9394640464FF4B47208F0D1
:1008200053FA4FF4B471384608F01AFBA38B23F047
:10083000070343F0050399E7002540F26B123946A0
:10084000404608F041FA40F26B11384608F008FBC8
:100850002E468DE74FF0010A43F00803A38304F10D
:1008600014031846019304F0C5F840B940462049E6
:10087000AC2208F029FAAC211D4808F0F1FA8BF3FC
:100880001188BFF36F8FBAF1000F39D1002D4CD111
:1008900016B120461949B0474FF02003EFF3118BF2
:1008A00083F31188BFF36F8F019804F095F840B976
:1008B00040460F49812208F007FA81210C4808F0D0
:1008C000CFFA019804F0A4F8A38B23F00803A383C4
:1008D000A38BDA0631D5012123F01003A383B4F8EA
:1008E0001CA00AF0070A00297FF4A1AE85E600BF2C
:1008F0002C9C0000F29B00000A9C00004D090000A7
:10090000A1680029C2D00B68002B38BF00239A468B
:1009100020464B46D1F804B0009AD847BAF1000FF0
:10092000B4D05146DAF80030EEE729464B4620466F
:10093000009A2D6808F0F1F9A8E713F020011EBF16
:1009400023F020030221A383C9E700BFF8B50446C2
:100950000D4600F114064FF02003EFF3118783F3E7
:100960001188BFF36F8F304604F036F840B90A495A
:100970000A48812208F0A8F98121074808F070FA96
:10098000304604F045F83A462046A5610121BDE80D
:10099000F840FFF721BE00BF2C9C0000F29B000036
:1009A0002DE9F04704460F4608F0CDF9051E54DB4B
:1009B00004F114094FF02003EFF3118A83F3118837
:1009C000BFF36F8F484604F007F840B93349344805
:1009D000812208F079F98121304808F041FA48462F
:1009E00004F016F84FF6FF71E38BA28B8B4202F0F6
:1009F00007064AD0022E1FD135464FF001080133B9
:100A0000E383484603F0F6FF40B924492448AC226A
:100A100008F05AF9AC21214808F022FA8AF311882B
:100A2000BFF36F8FB8F1000F17D00023324639465D
:100A3000204608F072F910E0930701D0062E0FD17E
:100A400000233B606368EBB9C4E900773546F6B92B
:100A5000524602212046FFF7BFFD2846BDE8F08739
:100A6000052E17D0012E0AD00E490D4840F2C912AA
:100A700008F02AF940F2C9110A4808F0F1F96FF0BC
:100A8000040504E01F606760E0E76FF00A054FF0BF
:100A90000008B6E76FF08505F9E700BF2C9C000061
:100AA000F29B00000A9C00002DE9F04F8B46924615
:100AB0001C46002591B002909AF8000008B928461B
:100AC0005EE325280AF1010707D05946029B9847A3
:100AD0000028C0F25583013510E2182200210AA82F
:100AE00008F033FB9AF80130252B78D00022944689
:100AF000164696461046394617F8013B2B2B00F058
:100B00009D8000F29480202B00F09B80232B00F02E
:100B10009A8028B19DF8300040F004008DF8300034
:100B2000BEF1000F05D09DF8300040F008008DF8B0
:100B300030002EB19DF8300040F010008DF83000EC
:100B4000BCF1000F05D09DF8300040F020008DF87A
:100B500030002AB19DF8302042F040028DF830205C
:100B60009DF8302002F04400442803D16FF3861230
:100B70008DF830209DF830202A2B42F080028DF82D
:100B800030207BD19DF831204B1C42F001028DF8C2
:100B900031201A782E2A0CBF012100219DF8312026
:100BA00061F341028DF8312074D15A782A2A6AD033
:100BB00000210A260133184610F8012BA2F1300754
:100BC000092F40F28E809DF830200E91C2F3400034
:100BD00040EAD17161F341028DF830205AE00AF108
:100BE00002078DF833309DF83130D90740F1498143
:100BF00054F8049BB9F1000F07DA9DF83020C9F1D1
:100C0000000942F004028DF830205A0740F1428179
:100C100054F8048BB8F1000F80F241819DF8313017
:100C20006FF341038DF831304FF0FF3837E12D2B52
:100C30000CD0302B7FF46DAF01225CE74FF0010E3A
:100C400059E7012657E74FF0010C54E7012052E71E
:100C500033460CFB0202303A1E4616F8010BA0F197
:100C60003007092FF4D9994293D09DF830100D9296
:100C7000D20F62F341018DF830108AE70B46002253
:100C80004FF00A0CE8E79DF83120023342F00402ED
:100C90008DF831201F4617F8012B6C2A41D025D83A
:100CA000682A2BD06A2A46D04C2A4CD01F4617F807
:100CB000012B9DF83130782A8DF8332000F2D9804D
:100CC000572A4DD8412A03D0453A022A00F2D18052
:100CD00004229DF8323062F302038DF83230012392
:100CE0009EE006FB01210346303964E7742A26D0D2
:100CF0007A2ADBD106229DF831300DE05A78682A35
:100D00009DF8312006D1012161F3C6028DF8312012
:100D10009F1CCCE71346022262F3C6038DF83130E4
:100D2000C5E75A786C2A9DF8312001D10421EBE700
:100D300013460322F0E705229DF83130ECE7072245
:100D40009DF83130E8E7BDF8303023F4F04323F06C
:100D5000020343F4804343F00203ADF83030A6E7CA
:100D6000A2F15801202900F2848001A050F821F05E
:100D7000350E0000730E0000730E0000730E0000AD
:100D8000730E0000730E0000730E0000730E00005F
:100D9000730E0000D10C0000730E0000350E000031
:100DA000F50D0000D10C0000D10C0000D10C0000AA
:100DB000730E0000F50D0000730E0000730E0000AE
:100DC000730E0000730E00003D0E0000350E000093
:100DD000590E0000730E0000730E0000590E000043
:100DE000730E0000350E0000730E0000730E00003D
:100DF000350E000001209DF8321003F0780360F3F7
:100E00000201402B8DF8321002BF9DF8301041F0E6
:100E100001018DF83010632A31D1003B18BF012346
:100E20009DF83020C2F340010B4363F341028DF87B
:100E30003020D8E602209DF83210DEE703219DF82D
:100E4000322003F07803A3F1400061F30202434231
:100E50008DF832204341E3E703219DF8322013F05F
:100E6000780F61F3020214BF012300238DF83220B2
:100E7000D6E79DF8303043F001038DF83030002381
:100E8000CEE79DF93020002AACBF4FF0FF39DDF8E6
:100E90003490BAE69B077FF5C7AEDDF838800023B3
:100EA000CDE90D339DF832309DF8312003F0070372
:100EB000012BC2F3C30236D1D31E042B20D8DFE8A6
:100EC00003F00307071F1F0054F8040BC11704E0C9
:100ED000073424F00704F4E80201CDE90A019DF883
:100EE000303013F0030654D03B4652465946029820
:100EF00007F0A0FF0028C0F243810544BA46DBE5B5
:100F000054F8040B012A4FEAE071CDE90A0105D13A
:100F10009DF828300A9300230B93E0E7022ADED1E4
:100F2000BDF92800D2E7022B23D1D31E042B13D8FE
:100F3000DFE803F0030A0A12120000212068231DD3
:100F40000A900B911C46CAE7073424F00703F3E824
:100F50000201CDE90A01F5E754F8043B012A0A939E
:100F60004FF000030B93D3D0022AB8D1BDF828303C
:100F7000D0E7042B07D1073424F00704F4E802017A
:100F8000CDE90A01ABE7032B04BF54F8043B0A93F5
:100F9000A5E79DF833007828B0D8622822D8252804
:100FA0003FF493AD5828A9D1DDE90A010DF12603DC
:100FB00000930CAA04AB07F0F2FE8246B8F1000FD2
:100FC0000DF126000CDB9DF83020A0EB0A036FF337
:100FD000861298458DF8302002D9A8EB03030D93B3
:100FE00080463DE06338152888D801A151F820F0EB
:100FF00071100000D5100000FD0E0000FD0E000075
:10100000FD0E0000FD0E0000D5100000FD0E0000DA
:10101000FD0E0000FD0E0000FD0E0000331100006B
:101020000111000005110000FD0E0000FD0E000082
:1010300049100000FD0E000001110000FD0E00002F
:10104000FD0E000001110000B8F1000FDDF828A02E
:101050000ADB4146504608F011F800260AEB00086A
:10106000BAF1000F0CD149E7504608F000F8F4E758
:1010700000260A9B0DF111088DF810300DF1100AB1
:10108000A8EB0A0306B101339DF83220D0066BD5D8
:10109000023352060D9948BF0E9A0B4448BF9B1865
:1010A000B9F1000F79DD9DF83020A9EB0309C2F3F7
:1010B00080030393530770D4500664D546B1594654
:1010C0003046029B984700285ADB039B01351E4699
:1010D000302359E01E0711D413F0100618BF202644
:1010E000DDE90A23002A73F10001BFF65DAF524229
:1010F00063EB43032D26CDE90A2355E72B26EFE7C3
:10110000002651E70A9848B30DF126030093002109
:1011100004AB0CAA07F043FEBDF83230824603F060
:10112000EF0343F4F04343F010030026ADF83230F0
:1011300044E70A9B072A3FF6E1AEDFE802F00D0420
:10114000060D08080D0D1D70D8E61D80D6E6284650
:10115000E917C3E90001D1E61D60CFE6DFF8C480DE
:101160000646A8F1050A8BE7110748BF013390E74F
:10117000184603935946029B98470028039B04DABC
:1011800011B0BDE8F08F20234D444A46002AA5EB5C
:10119000090109F1FF39EBDC0D4636B159463046FD
:1011A000029B98470028EBDB01359DF83230D906C9
:1011B00001D41A0706D559463020029B98470028CB
:1011C000DEDB01359DF83230DB0607D559469DF848
:1011D0003300029B98470028D2DB01350D9E2E4438
:1011E000731B002B16DC434652465946029807F003
:1011F00021FE0028C4DB0544A944A9EB0503002B0C
:101200007FF77CAE59462020029B98470028B7DB29
:101210000135F2E759463020029B98470028AFDBA2
:101220000135DDE7579C0000044608B54FF0200269
:10123000EFF3118382F31188BFF36F8F07F095FEF0
:10124000204601F0C3FB034807F03EFD01F08EF895
:10125000FCE700BF589C00004FF02002EFF3118321
:1012600082F31188BFF36F8F0121044AC2F8401541
:1012700083F31188BFF36F8F0020704700900350F5
:1012800020B1034B800143F001031847704700BFB2
:101290003098000084B004AB03E907009DF80430E7
:1012A000062B07D10122044BC3F80025BFF34F8F53
:1012B00020BFFDE704B0704700400050F8B5054678
:1012C0004FF02003EFF3118683F31188BFF36F8F84
:1012D000194803F081FB40B918491948812207F0E9
:1012E000F3FC8121154807F0BBFD134803F090FB88
:1012F000144B1C68002C38BF00245CB1124FD4E999
:101300000132002D08BF13460BB138789847246886
:10131000002CF4D1084803F06DFB40B90749084898
:10132000AC2207F0D1FCAC21044807F099FD86F30C
:101330001188BFF36F8FF8BDE80200202C9C0000DD
:10134000F29B0000EC020020F4020020084B10B5D4
:101350001C685CB901221A60064B93E8070007F08D
:1013600089FD2046BDE81040FFF7A8BF10BD00BFB3
:1013700004000020F4020020F0B585B06E461D4C3C
:1013800001460546304607F08DFD96E8070084E8E3
:101390000700207860B30020174B18606B1C19D031
:1013A000914208D215491648BD2207F08DFCBD2197
:1013B000124807F055FD4FF400460021A768114878
:1013C0000023E6FB0701104AFEF738FF0121281A27
:1013D00004F048FE03F0E8FD0120FFF76FFF94E8FA
:1013E0000700FFF757FFFFF7B1FF03F0C5FF2078B5
:1013F00005B0F0BDF402002004000020859C000030
:10140000F29B00003F420F0040420F0010B507481A
:1014100002F0ECFF064C074B1860204601F09CFDE3
:101420002046FFF7C5F8002010BD00BFB09C0000AB
:1014300039140000000300200A2838B50446074D7F
:1014400004D1286883680D215B6898472868836801
:10145000E1B25B689847204638BD00BF000300201A
:101460002DE9F0410E4C0746051BC5F347130C252B
:101470005D4305F148000E462044402107F017FD6A
:10148000011E08DB074B2C44C4E91036064B5B59A0
:10149000BDE8F041184738463346BDE8F0411847EB
:1014A00018030020118F00004C98000038B5CCB212
:1014B000012C054608D9084908487E2207F004FC9B
:1014C0007E21054807F0CCFC0C212B6904FB01347C
:1014D000A06C00F0070038BDB79C0000F29B000034
:1014E000F8B5CCB2012C0546164607690AD9184949
:1014F000184840F2531207F0E7FB40F2531114482A
:1015000007F0AEFC4FF02003EFF3118283F3118854
:10151000BFF36F8F0C2303FB0471896C11F0C001C2
:1015200001D08E4211D10121002003FB0473996484
:1015300082F31188BFF36F8F30B90C23696803FB06
:101540000414636898470020F8BD4FF0FF30EFE7C0
:10155000B79C0000F29B000070B50D46064904469A
:10156000411A491140220548FFF7BAFF2B460146B0
:101570002046BDE8704018471803002000010020F5
:1015800070B5002201210446052000F093FE0520DD
:1015900000F072FE0F4802F091F90F4B984215D1FE
:1015A00002F0ACF926690D49304607F0DBFB002854
:1015B0000BDB0125B5642469084904F1200007F01C
:1015C000D1FB002801DB0020656570BD6FF00400D1
:1015D000FBE700BF151600000000AD0B649800008B
:1015E00001460C2300224B43084870B5C418483309
:1015F000D4E910561844226407F077FC2DB1324626
:101600002B46BDE870400248184770BD1803002003
:1016100000010020012808B506D0032808D0A0B991
:101620000F4B9B6C5B0719D1BDE80840FFF7D8BF93
:101630000C4940F266220C4807F046FB40F2662156
:10164000BDE80840074807F00BBC064940F26A2293
:10165000054807F039FB40F26A21F1E708BD00BFF9
:1016600018030020B79C0000F29B000008B54FF063
:101670002003EFF3118183F31188BFF36F8F124AB8
:10168000136843F0020013F0010310600CD04FF018
:101690005022D2F80C34D2F80C2413F0010303D0FA
:1016A0000A4807F022FC012381F31188BFF36F8FF2
:1016B00023B1BDE808400020FFF792BF0120BDE83C
:1016C000084002F039B900BF700300206003002019
:1016D000074BD3E8EF2F22F00201C3E8E01F0028F8
:1016E000F7D1D30702D4012002F076B9704700BFCA
:1016F000700300201FB500220123CDE902236B46B1
:10170000084ACDF800D0CDF804D007F013FC00282B
:1017100005DB4FF480420023684603F03BFB05B035
:101720005DF804FB2F8F00002DE9F84301220546E8
:101730004649D1E8EF3FC1E8E02F0028F9D19BB935
:10174000434944484B60CB608A60FFF729F9002881
:101750000ADA4149414840F2262207F0B5FA40F240
:1017600026213D4807F07CFBADB36B1E012B59D8F9
:10177000012D07D14FF05023D3F81C3403F003039D
:10178000022B28D007F06CFE044618B9344B1B78A6
:10179000002B54D14FF02003EFF3118683F311880F
:1017A000BFF36F8F01242F4FDFF8BC80DFF8BC90B0
:1017B0004FF05022D2F81834D2F81824D2030CD5A6
:1017C00003F00303022B01D0012D06D124B386F3CD
:1017D0001188BFF36F8FBDE8F883C4B1304600F0C5
:1017E000D3FD4FF05022D2F81835DBB2012BDFD1F8
:1017F00039680029DCD00021396039680221C2F83B
:1018000018152022C8F88021C9F80030D0E700213F
:10181000212004F0C1F9E4E74FF050230222C3F87D
:101820000423D8E70C490D484FF40E7207F04CFA28
:10183000BDE8F8434FF40E71074807F011BB4FF0B5
:10184000502302220646C3F80823ACE774030020A5
:101850000803002038030020B79C0000F29B000022
:10186000991700200451005000E100E0085000509A
:1018700010B5064C06482146172207F025FA2046E7
:10188000BDE81040172107F0EBBA00BF0E9D000025
:10189000F29B0000044A1368C81A20F07F400344FA
:1018A000136004F01DBC00BF880300202DE9F04741
:1018B0004FF480374FF00009860000F1500406F124
:1018C0005026A40006F58036A4B204F15024D6F8C0
:1018D0004035DFF86C8021F07F4504F58034874087
:1018E000D8F804A5A3EB0A0323F07F432AF07F4234
:1018F000012BC6F8402502D1132007F0EBFD0AF1B9
:101900000202AB1A23F07F43B3F5000F88BF1546E0
:10191000C4F80090236825F07F43C8F84473C6F8E4
:101920004035D8F804359A4506D0EB1A023B23F02F
:101930007F43B3F5000F01D8BDE8F0872B46CFE712
:1019400000500150F8B5002427460F4E0F4B104AA7
:1019500018461D6804B1F8BDD2F80413C903FAD5BE
:1019600031680029F7D0346031684FF48031C2F813
:1019700048130124D2F8401525B100205A681F6091
:10198000A847E3E70560E6E7405101507C030020EB
:101990000050015038B500244FF480334FF400124A
:1019A0000D4D0121C5F80845C5F804330B4B152032
:1019B000C3F88021224600F07DFC152000F05CFC7D
:1019C0000123074A02201360064A2B601360FFF7C9
:1019D000ABFE204638BD00BF0050015000E100E0E2
:1019E0000850015084030020134BB0F1FF3F08BFA3
:1019F0001846013800281CDD9842A8BF18460F4B36
:101A0000D3F804250E4B1968521A12F4000F18BFB0
:101A1000002022F07F4301330A4A03440A48106041
:101A200000205060044A934294BFC9188918FFF7F8
:101A30003DBF0020E3E700BFFFFF7F0000500150E3
:101A4000880300207C0300209518000038B54FF073
:101A50002003EFF3118583F31188BFF36F8F1548CF
:101A600002F0BAFF40B914491448812207F02CF95A
:101A70008121114807F0F4F90E4802F0C9FF104B1C
:101A80000C48D3F804450F4B1B68E41A24F07F443C
:101A900002F0B0FF40B908490848AC2207F014F939
:101AA000AC21054807F0DCF985F31188BFF36F8F8F
:101AB000204638BD8C0300202C9C0000F29B0000C7
:101AC0000050015088030020034610B588B08DF8FF
:101AD00007300DF1070302930123094ACDE90513ED
:101AE00010680393002207238DF810208DF81C3016
:101AF000836802225C6802A94623A04708B010BD93
:101B00009003002070B586B00E460DF10701054622
:101B10001446FFF7D9FFC0B90D4B9DF80720186890
:101B200002AB0393022322EA060222438DF8072028
:101B30008DF808508DF8092004938DF814308368CF
:101B400001225C6803A94623A04706B070BD00BF10
:101B50009003002008B502F049FC044B00281860EF
:101B60000CBF6FF01200002008BD00BF90030020E2
:101B700000280DDB0122430900F01F0002FA00F0EB
:101B8000044A203342F82300BFF34F8FBFF36F8F17
:101B9000704700BF00E100E0F7B500281C4614BF05
:101BA0004FF400534FF400438A420BD2942227494A
:101BB000274807F089F89421244803B0BDE8F04095
:101BC00007F04EB940D00D46224E002839D005F519
:101BD000E0770135AA4246F82740F6D802FB03F029
:101BE000013A4B4300901C4807F06EF81B4B14F071
:101BF000100F1B491B4808BF194607F065F814F081
:101C0000040F14BF72212D21174807F05DF814F05E
:101C1000020F14BF77212D21134807F055F814F057
:101C2000010F0CBF2D2178210F4807F04DF86C21D2
:101C30000D4807F049F80D4803B0BDE8F04007F043
:101C400043B805F5C077C4E703B0F0BD909D000030
:101C5000F29B000000300050B19D0000849D000008
:101C60007B9D0000629F0000CB9D0000F6A8000055
:101C700030B54FF4803485B04FF480312548264D7F
:101C800007F022F82168254807F01EF82968244843
:101C900007F01AF810220021684607F056FA236868
:101CA00068460093029400F0F7FE012000F024FF44
:101CB000002000F00DFF002000F032FF0121002085
:101CC00000F04CFF00F040FF16482C6806F0FCFFC7
:101CD0000820FFF74DFF144A24F00104D2F8203801
:101CE000002B07DA03F00303023B012B9CBF0F4BD1
:101CF000C2F820380121082007F06DF9BFF34F8F9B
:101D0000BFF36F8F640864002046214622462346B5
:101D1000FEF712FCCE9D000004000100E59D0000CE
:101D2000FA9D0000189E0000003000500001008065
:101D30002DE9F8435E4806F0C7FF002140F2171373
:101D400008460222FFF728FF5A4D40F207132022CF
:101D500002210020FFF720FF574806F0B5FFC5F32A
:101D60000E04564BC4F500449C4208D254495548D1
:101D7000822206F0A9FF8221514807F071F8524EE5
:101D8000C4F34314D6F80025C5F3C435D2050AD5EB
:101D90004E494C484FF4BD7206F096FF4FF4BD71AA
:101DA0004A4807F05DF8D6F80435DB050AD54749FF
:101DB000444840F27B1206F087FF40F27B11434813
:101DC00007F04EF8404B4248C3F80055C3F80445AD
:101DD000D3F80015D3F80425520106F075FF3648F4
:101DE00006F072FF00F08AF8014610B1394806F09B
:101DF0006BFF0024384806F067FF40F217130822F3
:101E000000210120FFF7C8FE2F4D40F207132022CA
:101E100008210120FFF7C0FE274806F055FFC5F84E
:101E200080442E4806F050FF2D4EC5F8C0442D4F7B
:101E30002D4DDFF8C48095F805902146B9F1000FCB
:101E400014BF33463B4640462A6806F03DFFB9F1D1
:101E5000000F0CD12548013406F036FF1C2C05F18B
:101E60000805E8D11448BDE8F84306F02DBF95F801
:101E7000049095F90400FFF77BFE4FEA890303F114
:101E8000A04303F54053B9F1310FD3F8002806D031
:101E9000002A07DA02F00302023A012A02D8144AA1
:101EA000C3F800280121484607F095F81148D2E709
:101EB0004E9E0000E0FF0000F6A800002000000099
:101EC000909D0000F29B000000300050729E0000C8
:101ED000A49E0000EA9E00001A9F00003C9F0000A4
:101EE000439E0000889D000070980000659F0000E0
:101EF000000100806C9F0000589F000000220248F3
:101F0000114604F043BA00BF9403002070B50C469C
:101F10001546064650B96FF01500BDE87040714691
:101F200072467346F4468EF3008C7447002AF2D052
:101F300007F098F80128EED00C4B9C420BD92A19D7
:101F400003F61D239A4209D82A462146304607F057
:101F5000D1F80020E1E7064B9C4203D9054B2A1932
:101F60009A42F1D94FF0FF30D7E700BF0302FF00DC
:101F70002F01FF003801FF0070B506460D461446DC
:101F800007F070F801280DD0204607F06BF8012803
:101F900008D023462A463146084804F02BFA236825
:101FA000AB4201D06FF01500BDE87040714672463B
:101FB0007346F4468EF3008C744700BF94030020F0
:101FC0002DE9F04F81460D4685B081B307F04AF800
:101FD00001282CD1284607F045F8012827D04FF0DA
:101FE0000008DFF85CB0DFF85CA001AF5BF8046BC1
:101FF0009AE807004E4487E807000C22394630462D
:1020000007F051F8044600B9A6B908F10108B8F183
:10201000050FEBD16FF00D04204605B0BDE8F04F81
:10202000714672467346F4468EF3008C74476FF027
:102030001504F1E73C223146284607F05BF8EBE750
:1020400050990000E0970000014804F097B900BFE4
:102050006499000008B5B0B14368042B0DD100228B
:102060000368D3E8EF1F012903D1C3E8E02F00285C
:10207000F7D1074808BF104608BD3BB1006802F021
:10208000B7FD0020F8E76FF4E040F5E70148F3E71B
:10209000E98FFFFFEA8FFFFF10B5044618B90D4B1B
:1020A0000D485B689847616808290DD031F004033A
:1020B0000AD011F0020108D02146084802F066FB60
:1020C000002323600023636010BD1422206807F002
:1020D0003CF8F7E7900000207DA0000050050020AC
:1020E00010B5044618B9164B16485B6898476368E4
:1020F000042B23D0082B21D0CBB92368BBB94FF0D8
:10210000FF324FF0FF3321460F4802F0E5FA08B9DD
:1021100023681BB90A4B0D485B68984714220021BD
:10212000206807F012F8636843F0020363602068D8
:1021300007F0A5F9636843F00103636010BD00BFB9
:10214000900000207DA0000050050020A3A000000A
:1021500008B5E8B14368042B0CD101220368D3E829
:10216000EF1F002903D1C3E8E02F0028F7D10BD1DE
:10217000002008BD53B100684FF0FF324FF0FF332D
:1021800002F064FC0028F3D00348F2E70348F0E7CC
:102190006FF4E040EDE700BFE98FFFFFEA8FFFFF3C
:1021A00008B5064940231422054807F03DF9BDE86B
:1021B00008400449044804F089B900BF70050020B4
:1021C000500500207C9900006C990000094A0A49DA
:1021D000936809685867996708494B6843F08053CA
:1021E0004B60002383F31188BFF36F8F9368986F60
:1021F000704700BF8C0C0020309A000000ED00E01A
:1022000013498A684FF030001044EFF3098C80E8DE
:10221000F01F202080F31188BFF36F8F0D4F4FF018
:1022200000664A6A8A603E60506F0023536780F3FD
:10223000118802F1300090E8F01F8CF3098802F158
:10224000000004B506F0F6FEBDE80440704700004B
:102250008C0C002004ED00E01EF0040F0CBFEFF327
:102260000880EFF30980816911F8021C0229FFD070
:1022700001B506F0E3FE01BD43B2002B08DB0122ED
:1022800000F01F0002FA00F0024A5B0942F8230046
:10229000704700BF00E100E0054B420953F82220DF
:1022A000012300F01F0003FA00F01040704700BF48
:1022B00000E100E038B54C1C072C054608D90D4953
:1022C0000D48582206F000FD58210A4806F0C8FDC6
:1022D0006BB2002BACBF03F16043084B4FEA4414D0
:1022E000E4B2ABBF03F5614305F00F0583F800438B
:1022F0005C5538BDD0A00000F29B000014ED00E05A
:1023000042F8203C009B0B4942F81C3C019B21F009
:10231000010142F8183C029B42F8081C42F8143CA8
:102320004FF0807342F8043C0023203A0265436773
:10233000704700BF8B8D0000084B9860436E83F39D
:102340000B88104681F30988002163B681F3118858
:10235000BFF36F8F0022002306F017FD8C0C0020C6
:10236000014910220A60704710ED00E072B640404B
:1023700080F31188BFF36F8FBFF34F8F30BF62B60A
:10238000BFF36F8F704700BF72B6494081F3118869
:1023900020BF80F3118862B6704700BF37B505468D
:1023A0000C46C9B18B6810480093D1E90023452140
:1023B00006F06BFD636945210093D4E903230B48C4
:1023C00006F063FD4521E269094806F05EFD4521FE
:1023D000A269084806F059FD2146284603B0BDE829
:1023E000304002F02FB800BF06A100003AA1000063
:1023F0006EA1000082A1000030BFFFF7FDBF00BF4B
:102400000B4A08B50B4B22F07F029A60BFF34F8F47
:10241000BFF36F8FD3F8882022F47002C3F88820AE
:1024200002F06CF803F082FC00F018FB02F08AF86E
:102430000000000000ED00E001B572B60B4A106A22
:1024400000281EBF0021116207F012F862B6EFF3F8
:102450000580A0F110004FEAC0000549014409C9F8
:102460009847BDE801400349084700008C0C002054
:1024700050950000B1290000002080F31488BFF3BC
:102480006F8F002080F30A8880F30B8806F0F0FC41
:1024900000200E490860BFF34F8F0D4880F3088875
:1024A00000F0B6FA202080F311880A484FF400614A
:1024B000401880F30988EFF314800221084380F369
:1024C0001488BFF36F8FFFF79BFF000094ED00E0CF
:1024D000A0270020E0280020EFF30880EFF3098117
:1024E00001B5724600F070F901BD00BF70B52B4C0C
:1024F00006460D462A48452106F0C7FCA26AD006CA
:1025000003D54521274806F0C0FCA36A190703D567
:102510004521254806F0B9FC204CA36A9A0710D53E
:102520004521224806F0B1FC626BA36A1B0608D560
:1025300045211F4806F0A9FC1EB1A36A23F08003C1
:10254000A362164CA26AD60703D54521194806F0A6
:102550009CFCA36A980603D54521174806F095FC14
:102560000E4B9A6AD10602D49A6A92070DD59B6ADD
:10257000DB060AD51149124840F24F1206F0A4FBBF
:1025800040F24F110D4806F06BFC0020034A936A9D
:1025900043F0FF039362287070BD00BF00ED00E0C0
:1025A000B5A10000D0A1000008A2000020A20000F8
:1025B0003DA2000058A200007CA20000B0A20000D2
:1025C000F29B000070B5234C06460D46224845217B
:1025D00006F05BFCA26AD10403D545211F4806F032
:1025E00054FCA36A1A0503D545211D4806F04DFC8D
:1025F000184CA36A9B0510D51A48452106F045FCE6
:10260000A26BA36A180408D54521174806F03DFCC3
:102610001EB1A36A23F40043A3620E4CA36A5905BA
:1026200003D54521114806F030FCA36ADA050BD525
:1026300045210F4806F029FC0020064A936A43F41E
:102640007F439362287070BDA36A9B04F4D5452133
:102650000848EFE700ED00E0EAA2000005A3000053
:1026600008A200001BA3000039A3000053A3000030
:1026700073A300007CA2000038B5214C45212148FD
:1026800006F003FCA26A950103D545211E4806F019
:10269000FCFBA36ADC0103D545211C4806F0F5FBD1
:1026A000174DAC6A14F4801404D04521184806F084
:1026B000ECFB0224AB6A180303D54521154806F04C
:1026C000E4FB0F4DAA6A510303D54521124806F0D9
:1026D000DCFBAB6A9A0303D54521104806F0D5FB15
:1026E000074DAB6ADB0303D545210D4806F0CDFB52
:1026F000AB6A20466FEA03436FEA1343AB6238BD0F
:1027000000ED00E090A30000ADA30000C5A3000011
:10271000E4A3000013A4000036A4000060A400009D
:102720007FA4000010B51E4C1E48452106F0ADFBED
:10273000A2696369580603D545211B4806F0A5FB2D
:102740006369D90708D54521184806F09EFB6369DF
:1027500043F0FF03636110BD63699A0702D5452109
:102760001348F2E763695B0702D545211148ECE79E
:102770006369180702D545210F48E6E76369D90662
:1027800002D545210D48E0E763699A0602D5452147
:102790000B48DAE763691B06D9D545210948D4E718
:1027A000D0ED00E0AFA40000CDA40000E2A4000042
:1027B000FDA4000020A5000040A5000062A50000C7
:1027C0007CA500009BA500002DE9F041624B0D4661
:1027D0005C6800268AB0C4F3080786F31188BFF34B
:1027E0006F8F02F07F43B3F17F4F1ED112F00103D0
:1027F00039D012F0400302F0080840F0A6805207DA
:1028000054BF05461E462A68544B58BF0126134440
:10281000012B98BF2A6C4521514806F036FBB8F1D0
:10282000000F1DD0EFF389855DB940F2E1324D49CB
:102830004D4806F049FA40F2E1314A4806F010FBF3
:1028400000250023FA1E98468DF807301346092B01
:1028500069D8DFE803F00A595D386168686868651F
:10286000EFF38885E0E71E46DFE745213F4806F0A5
:102870000CFB394B8DF80780DC6A14F0020404D09D
:1028800045213B4806F001FB48E0DB6A5B0022D5AE
:102890004521384806F0F9FA374B1B7833B101204F
:1028A0000DF10701FFF722FE044614E0334B1B78BD
:1028B0002BB101200DF10701FFF784FEF4E7304B47
:1028C0001B889BB213B1FFF7D7FEEDE72D4B5B6979
:1028D0000BB1FFF727FF9DF8073093B92022294657
:1028E00002A806F007FC099B56B3C3F3080222B9FD
:1028F0006FEA53236FEA43230993204602A9FFF7A7
:102900004DFD0AB0BDE8F08100200DF10701C9E7D7
:1029100000200DF10701CFE7FFF704FF0024DAE7FD
:1029200045211948AEE7194914F4F87F184A1948A7
:1029300008BF0A46A7F11003452106F0A6FAEDE705
:1029400023F4FF7323F00103D6E7B8F1000F7FF4FF
:102950006BAF0546012667E700ED00E0A6ED050137
:10296000E1A50000B0A20000F29B000005A6000057
:1029700021A6000047A6000028ED00E029ED00E0B8
:102980002AED00E0D0ED00E06BA60000B3A500004A
:10299000C8A5000094A60000044B5A6942F010023A
:1029A0005A615A6942F480625A61704700ED00E052
:1029B000044B9968586A884203D003494FF080520B
:1029C0000A6070478C0C002004ED00E0BFF34F8FCD
:1029D0000549064BCA6802F4E0621343CB60BFF3BB
:1029E0004F8F00BFFDE700BF00ED00E00400FA05D7
:1029F00000231846054A1168C1F307218B4200D114
:102A00007047936010610133F8E700BF90ED00E07C
:102A100010B572B6002484F31388FFF7E9FF0E4A5D
:102A2000234611464FF0FF3403F120000133102BF1
:102A300042F82040F8D100234FF0FF3003F160024C
:102A40000133102B41F82200F8D162B6BFF34F8F4B
:102A5000BFF36F8F10BD00BF00E100E00023202115
:102A60000348C2180133412B82F80013F9D1704793
:102A700000E100E0064B9B68834207D1EFF305833A
:102A800023B1044A536843F08053536003F0BAB84B
:102A90008C0C002000ED00E082680C4B9A6003680B
:102AA00083F38888436883F38988027B02F00101FD
:102AB000EFF3948323F00303920748BF43F002032C
:102AC00009B143F0010383F39488704700ED02E0FD
:102AD000084AD36848B123F400531B041B0C43F08D
:102AE000BF6343F40033D36070479BB243F4005399
:102AF000F5E700BF00ED00E0084AD36840B19BB2A3
:102B000043F4804343F0BF6343F40033D360704722
:102B100023F480431B041B0CF4E700BF00ED00E02E
:102B2000084AD36840B19BB243F0080343F0BF6347
:102B300043F40033D360704723F008031B041B0CDD
:102B4000F4E700BF00ED00E0034AD2F88C3043F414
:102B50004063C2F88C30704700ED00E0084B1A6803
:102B600018B142F001021A60704722F001021A60A7
:102B70001A6811B142F00202F5E722F00202F2E710
:102B8000D0ED00E01FB5094C094A23460121094850
:102B900000F01AF900230393074B0121E41A01A85E
:102BA0000193029400F02CF904B010BD0000012044
:102BB0000000002090990000E001002010B50B6893
:102BC0000C7A23F01F0204F01F031A43CB68640938
:102BD00023F01F03044943EA440343F001038860E0
:102BE000CA600B6110BD00BF90ED00E030B54B68CE
:102BF0000C6885B00A898D7A0094013B24F01F048B
:102C0000234402F01F0242EA451223F01F030F285B
:102C100004468DF80820039309D902464521064849
:102C200006F033F96FF01504204605B030BD694653
:102C3000FFF7C4FFF8E700BFB0A600002DE9F04F92
:102C40008946144606464FF00008524D85B0C845E7
:102C500023DA7768002F42D01F2F17D9FB0615D132
:102C6000D6F800A01AF01F0F10D1504606F0F1F967
:102C7000834607EB0A00013806F0EBF9834510D0D4
:102C80006FF0150B5A464521434802E04246452164
:102C9000424806F0FAF86FF01504204605B0BDE88A
:102CA000F08F1BF1160FEDD0631E5B45EADBC5F814
:102CB00008B0E968C5F808B02F6921F01F01D6E90E
:102CC00000321A44994247F01F0702F1FF3A1CD123
:102CD000574508D131465FFA8BF0FFF787FF08F1BF
:102CE00001080C36B3E73146C5F808B0EB6822F0AE
:102CF0001F0203F01F031A43EA60E0B2FFF776FFFA
:102D000010F1160FC7D0441CE9E7013B5745E0B26C
:102D100023F01F03C5F808B006D12A69314602F036
:102D20001F0213432B61E9E7296901F01F010B43DF
:102D30002B613146FFF75AFF10F1160FABD0C5F8E3
:102D400008B0EA689DF80830013F62F304038DF88B
:102D500008302B699DF808205B0863F347128DF853
:102D60000820D6E900321344009323F01F033B44AC
:102D7000441CA3EB0A0AE0B22AF01F030F280393B6
:102D800003D902464521064883E76946FFF716FF47
:102D9000B9E700BF90ED00E003A70000DBA600004C
:102DA000B0A600000522034B5A60BFF34F8FBFF35C
:102DB0006F8F704790ED00E0BFF35F8F0022014BF3
:102DC0005A60704790ED00E010B50A4C2278FFF78A
:102DD00035FF207016300CD10749084840F2051223
:102DE00005F072FFBDE8104040F20511024806F000
:102DF00037B810BD981700202BA70000F29B0000E9
:102E00002DE9F74F2D4D8A4606464FF00008AB4698
:102E10002B4FD04502DB03B0BDE8F08FD6F804900D
:102E2000B9F1000F44D031680846019106F011F95C
:102E30000199044609EB0100013806F00AF98442C1
:102E40004FF014021F4B13D06FF0150302FB08F86C
:102E50004BF8083040F215121B491C4805F034FFAE
:102E600040F21511184803B0BDE8F04F05F0F8BF67
:102E700014F1160F2C60EDD01978A142EADD02FBA7
:102E800008B0BC60BC60FC6800F10801007B64F322
:102E90000400087138690C79400860F347140C711C
:102EA000F96821F01F016960396921F01F0129616A
:102EB00008F1010814350C36ABE700BF700A00209A
:102EC00090ED00E0981700202BA70000F29B000077
:102ED00070B51B4D2E68102E0DD94FF49E721949F6
:102EE000194805F0F1FE17484FF49E7105F0B8FF40
:102EF0004FF0FF3070BDFFF75FFF0020134C144A06
:102F00002263864215D1134B1E70FFF74BFF2368D7
:102F1000C3F30723102B0AD00A490B484FF4CF7292
:102F200005F0D2FE4FF4CF71064805F099FF00205E
:102F3000E0E7696801EB0011FFF740FE0130E0E7D0
:102F40009C9900002BA70000F29B000090ED00E090
:102F5000AAFF440098170020014B1860704700BF7B
:102F60002800002010B52A48FEF7F4FD044658B1A9
:102F700045210246274805F088FF2246452126487C
:102F800005F083FF204610BD06F008F8044618B18E
:102F9000024645212148EEE706F00CF8044618B138
:102FA000024645211E48E6E7012006F008F80446DF
:102FB00018B1024645211B48DDE7012005F0F3FF6B
:102FC00004460028D9D1072005F0D6FF044618B1E1
:102FD000024645211448CEE71F2005F0C7FF0446EE
:102FE00018B1024645211148C5E7072005F0CFFF7B
:102FF000044618B1024645210D48BCE7012005F002
:10300000C1FF04460028BDD0024645210948B2E769
:1030100071A7000077A70000F8A80000A5A700008E
:10302000D2A7000005A8000039A800006BA8000086
:103030009BA80000D4A8000010B50446002201217E
:103040000A20FFF737F960682369094A00F108018F
:1030500000F08EFD074B984207D0074845212268B3
:1030600005F013FF6FF00F0010BD0020FCE700BF5C
:10307000BD3000000000AD0B34A90000CA0708B540
:10308000436809D4C1F34202012A08D0022A0FD0B2
:103090004521094805F0F9FE6FF0150007E04FF0F3
:1030A000CC721B68C3F8242503690020596208BD4F
:1030B0004FF0C8621B68F5E759A900000378012B9F
:1030C00008D0022B08D04BB9054B0B6201F1100060
:1030D00001F02ABE034BF8E7034BF6E7034BF4E796
:1030E0000000AD0B0100AE0B0200AE0B0100AD0BFA
:1030F0002DE9F04F934614221E4604698BB0054615
:1031000089460DEB02000021D4F82C80B4F828A0E9
:1031100006F01BF88DF815604FF0FF324FF0FF33CB
:10312000204601F037FE28691030002700220023D6
:1031300001F030FE686800F08FFD4E463C465F456A
:1031400001D3002443E0317A0B0700F19B80BAF1F0
:10315000000F0DD07B1C5B450AD2880708D4337D55
:1031600081EA030202F0010203F0040313431FD0BB
:10317000002C36D100243368089373680693337AA1
:10318000686803F0010213F0020F8DF8142005A9FE
:103190000CBF2022002200F0BBFD3C4B984234D0F3
:1031A0000B3398420CBF6FF00F046FF004040EE075
:1031B000012372681019504515D91346452122463E
:1031C0003348CDF800A005F060FE6FF01B0468687E
:1031D00000F06AFD286901F0A7FD20460BB0BDE8AC
:1031E000F08F0023E5E7C90706D4316808EB040037
:1031F000039305F07FFF039B7268144463BB002CAC
:10320000B8D0CDF820800694B9E7286910304FF483
:103210008042002301F0BEFD78B145213A461D48A9
:1032200005F033FE686800F03FFD6B68D3E90201EA
:1032300001F05EF86FF00404C9E72B691A6A134BBA
:103240009A4205D03B464521134805F01EFEF1E7A2
:10325000337ADB0703D4002401370C366FE7089B71
:103260009845F8D10C2303FB07935A680C3B944212
:10327000F1D3A41AD86808EB0401039305F03AFFD0
:10328000039BF2E76FF08504A1E700BF0000AD0BE0
:1032900070A9000097A90000C6A90000F0B54B79FD
:1032A000012B2AD0032B25D110268B79032B21D17A
:1032B000CC792CB1012C1DD143685B689B0719D0D8
:1032C0000A7912B1022A15D10E220B684568B3F5AE
:1032D000164F2D6865D02DD8B3F5165F64D016D87B
:1032E000B3F5966F62D00AD8B3F5967F61D0B3F587
:1032F000167F61D06FF0850052E00026D5E7B3F568
:10330000166F5CD0B3F5965FF4D1374B3CE0B3F564
:10331000E14F57D007D8B3F5615F55D0B3F5964F5D
:10332000E8D1324B30E047F61227BB42E2D14FF4EE
:10333000000329E0B3F5613F48D013D8B3F5963FB9
:1033400047D009D84DF6C027BB4244D0B3F5614FF2
:10335000D0D14FF46B0317E0B3F5E13FCAD14FF082
:10336000EB7311E0B3F5612F38D008D8204FBB4282
:1033700037D0B3F5E12FBDD14FF0E86304E01D4F26
:10338000BB42B7D14FF08053C5F8243503693443AD
:103390002243043303C9C5F86C2583E803000020E9
:1033A000F0BD4FF41D03EFE7134BEDE74FF49E2301
:1033B000EAE74FF4A033E7E74FF41C33E4E74FF4B8
:1033C0001D23E1E70D4BDFE70D4BDDE74FF06C739D
:1033D000DAE70C4BD8E74FF46503D5E74FF070639D
:1033E000D2E74FF08063CFE700B0130000A04E009B
:1033F00090D0030040420F000050270000C075002D
:1034000000F03A0000903A01036810B55A090CBF69
:103410004FF0FF32002203F01F0322FA03F3DB0711
:1034200004460AD40E490F484FF4057205F04CFCCF
:103430004FF405710A4805F013FD236803F01F02DD
:103440005B0922600AD00649064840F2192205F0BD
:103450003BFC40F21921024805F002FD024810BD74
:10346000FEA90000F29B000000258450F8B5054637
:103470000F46066905F0F4FF10B92C4B1B7883B991
:103480004FF02003EFF3118483F31188BFF36F8FA4
:10349000284605F0C9FE28BB84F31188BFF36F8F5F
:1034A000EEE76424284605F0BFFE70B9012005F060
:1034B00073FF013CF6D10021212002F06DFBF0E703
:1034C00084F31188BFF36F8FF5E74FF02003EFF31C
:1034D000118483F31188BFF36F8F284605F0A4FE93
:1034E0000028EDD0012206F8107F69680B68C3F848
:1034F0004465C3F848250022C3F82021D3F82001F1
:10350000C3F85821D3F858214A68D20641BF08228F
:10351000C3F800254FF48002C3F8042301229A6007
:1035200084F31188BFF36F8FF8BD00BF9917002097
:1035300030B585B06C460546084B0FCB84E80F00CC
:10354000002201210820FEF7B5FE0820FEF794FEB8
:103550002146284605F08BFE05B030BDEC970000F3
:1035600030B585B06C460546084B0FCB84E80F009C
:10357000002201210920FEF79DFE0920FEF77CFEB6
:103580002146284605F073FE05B030BDFC970000CB
:103590002DE9F3410F46164640B91A491A4826222A
:1035A00005F092FB2621174805F05AFC47B915494A
:1035B0001548272205F088FB2721124805F050FC0A
:1035C0004FF4806500246FF01500DFF84080A642BC
:1035D00002D802B0BDE8F081331BB3F5806F38BF6D
:1035E0001D46404601AB2A46391902F003FF019BF4
:1035F000AB4203D10028ECD12C44E8E76FF0150072
:10360000E7E700BF48AA0000F29B0000940A0020F0
:10361000002208B51146044802F0B8FE002818BF81
:103620006FF0150008BD00BF940A00200348452133
:1036300008B505F02AFC0020FFF7C8F983AA0000AE
:103640002DE9F0430025214C214E54F8048CDFF87D
:10365000889085B0A84503D8002005B0BDE8F08368
:10366000636A96E807001F6801AB83E807000C2235
:103670001946384605F017FD90B98FB1636A216984
:103680001B681A6991420BD19A69A169914207D8C6
:10369000E169914204D962695B6932EA03030AD0A5
:1036A000276A67B10B4805F00FFB404080F3118893
:1036B0004FF0040002DFE36801351C44CAE74846C6
:1036C00005F002FB636A1F60F5E700BF3C020000E3
:1036D0000C980000A5AA0000CEAA0000054B1868AF
:1036E000043B1B68092B03D1431E584258417047C5
:1036F000002070473401FF004A4A08B5136843F0C0
:1037000002031360484B1B68092B01BF4FF0502385
:103710000022C3F81421C3F81821FFF7DFFF30B1EE
:103720000123424A1360A2F63822C2F878353E4B94
:103730001B68092B07D13E4B1B68012B1EBF0122C2
:103740003C4BC3F87825FFF7C9FF10B10E223A4B66
:103750001A60354B1B68092B04D10022374B1A60C5
:1037600001225A600022D30003F57F03D3F800132F
:10377000013108D0D3F800130132D3F80433B2F585
:10378000807F0B60EFD12E4BDA69D1073BD52D4BF3
:103790001946D3F80024012AFBD1C3F80425D1F837
:1037A0000034012BFBD1264BDA69D20708D5DA6940
:1037B000244922F00102DA61D1F80024012AFBD168
:1037C0001A6A01320AD11A6A22F0FF0242F020027C
:1037D0001A621C4AD2F80034012BFBD10022194B8B
:1037E000C3F80425D3F80024012AFBD1BFF34F8F7F
:1037F0001549164BCA6802F4E0621343CB60BFF36D
:103800004F8F00BFFDE71B6A0133C0D00E4AD2F8CC
:103810008C3043F44063C2F88C300D4B0D4A1A6073
:1038200008BD00BFD0ED00E03001FF00384A005075
:103830003401FF0000400050E4AE03500C4700503C
:103840000080FF000090035000ED00E00400FA0546
:10385000840000200090D00308B570B101281BD06F
:103860004FF44F721349144805F02EFA11484FF4E3
:103870004F7105F0F5FA00200DE031B14FF0502303
:10388000D3F8183403F003030B704FF05023D3F830
:103890001804C0F3004008BD31B14FF05023D3F8F5
:1038A0000C3403F001030B704FF05023D3F80C04D9
:1038B000EFE700BF01AB0000F29B000010B504462B
:1038C00040B909490948B52205F0FEF9B521064875
:1038D00005F0C6FA064B1A7922B9012205481C6088
:1038E0001A7110BD0448FCE735AB0000F29B0000E4
:1038F000500C00200000AD0B0C00AD0B08B50B4BBD
:103900001B7943B90A490B48CE2205F0DDF9CE21D7
:10391000074805F0A5FA0520FEF7BEFC20B9BDE872
:1039200008400520FEF7A8BC08BD00BF500C0020D1
:1039300035AB0000F29B0000224B13B51B79044607
:1039400053B9214921484FF4857205F0BDF94FF470
:1039500085711D4805F084FA6CB1012C28D04FF414
:103960009E721949194805F0AFF94FF49E71164837
:1039700005F076FA18E020460DF10701FFF76CFF1D
:103980004FF0502390B19DF80720022A0ED1C3F8C2
:10399000182500220E4B1A601B6802224FF050239C
:1039A000C3F8042301229A6002B010BD0122EEE7A1
:1039B0000022084B1A601B684FF05023C3F80443E1
:1039C0001C60F1E7500C002035AB0000F29B0000BA
:1039D00004510050005100502D4B13B51B79044683
:1039E00053B92C492C4840F2431205F06DF940F2CE
:1039F0004311284805F034FA74B1012C27D0254929
:103A0000254840F25F1205F05FF940F25F1121484E
:103A100005F026FA02B010BD4FF050230222C3F881
:103A200008230122C3F8044142F2107403F58273A3
:103A30001B681A4B1A6000210846FFF70DFF00288B
:103A4000E8D0012005F0A8FC013CF4D1E2E74FF0FA
:103A500050230022C3F80843C3F8002103F5807304
:103A60001B680F4B1C608DF8074042F21074012058
:103A70000DF10701FFF7F0FE0028CBD09DF80700FD
:103A80000128C7D105F088FC013CF0D1C2E700BF96
:103A9000500C002035AB0000F29B00000C50005091
:103AA00004500050164B07B51A6852B10020186038
:103AB0001B6801224FF05023C3F80823114B1B68E9
:103AC0009847114B1A688AB100200DF10701186060
:103AD0001B68FFF7C1FE9DF807104FF05023012926
:103AE0004FF0020205D1C3F81825996003B05DF8C4
:103AF00004FBC3F80823034B01201B689847F5E734
:103B000000510050500C002004510050036810B5C3
:103B10005A090CBF4FF0FF32002203F01F0322FAB4
:103B200003F3DB0704460AD40E490F484FF405722D
:103B300005F0CAF84FF405710A4805F091F92368B9
:103B400003F01F025B0922600AD00649064840F2D2
:103B5000192205F0B9F840F21921024805F080F960
:103B6000024810BDFEA90000F29B00000025845011
:103B70002DE9F3470646924699460C4651B931491C
:103B800031484FF4837205F09FF84FF483712D484C
:103B900005F066F9D4E900239A420AD129492A4856
:103BA00040F2071205F090F840F20711254805F0A1
:103BB00057F9342796F80480244D07FB08F7E919D4
:103BC00091F82D30002B3BD18B6081F8303081F89B
:103BD0002F30637BC1F8049081F83230236845F8B8
:103BE00007A001A8D6F8009040F20C6A0193FFF7F5
:103BF0008DFF019B803340F823A0636801A80193E7
:103C0000FFF784FF019B803340F823A0D4E9002311
:103C1000C9F80825C9F80C35A368C9F82435EB594B
:103C200023B1306840F30730FEF726FB342303FB53
:103C300008550123064885F82D3002B0BDE8F0870D
:103C40000448FAE772AB0000F29B0000580C002019
:103C50000000AD0B0500AD0B342270B50F4D04799B
:103C6000064602FB045292F82D20012A0AD00C4984
:103C70000C484FF4B57205F027F84FF4B5710848B9
:103C800005F0EEF806223368C3F80025342303FB61
:103C90000454022384F82D3070BD00BF580C00205E
:103CA00072AB0000F29B0000342270B5144D047911
:103CB000064602FB045292F82D2052B911491248CF
:103CC00040F2751205F000F840F275110D4805F04C
:103CD000C7F83423002103FB045332680B48996072
:103CE000C2F80803D2F8000220F4BC50C2F8000267
:103CF000C2F80015012283F82F1083F82D2070BD23
:103D0000580C002072AB0000F29B000002029C01E4
:103D10002DE9F047037980460D4617463BB94B68BD
:103D2000B3F5805F03D28B68B3F5805F0AD3BC49DB
:103D3000BC4840F28A2204F0C7FF40F28A21B8480A
:103D400005F08EF8342498F80490B74E04FB09F47B
:103D50003359FBB92B78022B0ED02B78032B19D1BA
:103D600040F29322AE49AF4804F0AEFF40F29321F7
:103D7000AB4805F075F80DE040F29222A849A94839
:103D800004F0A2FF40F29221A54805F069F83359EA
:103D9000002BE2D03423002203FB0963D8F8004053
:103DA00083F82E206B6853B1EB6803F06043B3F1E6
:103DB000005F04D0DFF878824046BDE8F0874FF01E
:103DC000340C0CFB096C994BC4F808339CF82F3069
:103DD00003F0FF0A33B1DCF80830DFF85882C4F88A
:103DE0000433E9E717F0140F0CBF01230023A846A2
:103DF0008CF82F300CF10C0EB8E80F00AEE80F0075
:103E0000D8F80030CCF82070CEF80030C7F300139B
:103E10008CF830306B78C4F88835C4F804A1D4F835
:103E20000431C4F824A1D4F82431C4F860A1D4F832
:103E30006031C4F848A1D4F8483117F0010318BF25
:103E40000123C4F8503517F0020318BF0123C4F84A
:103E500040352B78032B00F2DF80DFE803F0AECA99
:103E60009302F9060AD56E496E484FF4E77204F0E2
:103E70002BFF4FF4E7716A4804F0F2FF3A070AD5C6
:103E80006749684840F2CF1204F01EFF40F2CF119C
:103E9000634804F0E5FF7B070AD5614961484FF4A8
:103EA000E87204F011FF4FF4E8715D4804F0D8FFA8
:103EB0002A6902F06043B3F1005F7FF47BAF4FF4F7
:103EC0008073E968C4F800326B68C4F84415C4F81C
:103ED00048350023C4F85031D4F850110121216233
:103EE000A160D4F850110029FBD0C4F85031D4F8A7
:103EF0005031AB68C4F84425C4F8483534234FF436
:103F0000802203FB09639A600823DFF82C813807BD
:103F100007D42A78032A04D00122E2506B6803B93F
:103F20006261342303FB09F3F218F358002B40F0CD
:103F300087800125D4F84821D4F80411002940F0E5
:103F40009780003A18BF0122D4F82411002900F00C
:103F50009580C4F82431D4F82411D4F86001D4F841
:103F6000001210B111F4007F04D1256265610028B0
:103F7000E0D00022C90540F18180C4F84831D4F86E
:103F80004821D7E76B68EA68C4F84425C4F8483587
:103F90002B6903F06042B2F1005F7FF40BAFAA68B7
:103FA000C4F834354FF48453C4F83825C4F80032CB
:103FB0003423022203FB096312E06B68EA6817F0FE
:103FC000200FC4F84425C4F848354FF034030BD013
:103FD0004FF48072C4F800224FF4802203FB09637F
:103FE0009A60012323628FE74FF40072C4F8002225
:103FF000DFE76B68EA68C4F83425C4F838354FF455
:104000008053C4F800323423022203FB09639A6010
:1040100001232362002378E70823DFF8208076E776
:1040200072AB0000F29B0000580C002002029C01C1
:104030000A00AD0B0B00AD0B0000AD0B0400AD0B87
:10404000790744BF002393607B0606D4342303FB27
:1040500009639A6842F002029A60342303FB0966FE
:10406000B36843F40073B360B368C4F80433A3E6E1
:10407000C4F80431D4F80421012265E7002A3FF492
:1040800059AF3421002001FB0962D4F8C434C4F8CC
:10409000C43482F82F008BB10F4A104913F0010F7E
:1040A00014BF90468846013213F0020F18BF9046A5
:1040B00013F0040F0A4B18BF98467DE67B063FF5C8
:1040C0007BAE204609FB016105F068F9034B00282F
:1040D00008BF984670E600BF0000AE0B0100AD0BB4
:1040E0000200AE0BF0B5624C87B0236853B961494A
:1040F000614840F2CD2204F0E7FD40F2CD215D4859
:1041000004F0AEFE5D4BD3F824211D46FAB1002227
:10411000C3F82421D3F82421D3F80421BAB9A26822
:10412000C3F808230222A260A268C3F80423D3F8CC
:1041300060211AB1D3F800329E0503D401224F4BFF
:104140001A625A61012384F82E3007B0F0BDD5F809
:104150000431002B54D00023C5F80431D5F80431C4
:10416000236A5D060AD494F82E303BB9404943488F
:1041700005F014F980F0010084F82E00236A13F092
:10418000040722D13E4E01AD0FCE0FC5336894F81F
:1041900030C02B60394BC3F86071D3F86021C3F88D
:1041A0005C71D3F85C21BCF1000F02D094F82E2092
:1041B0005AB10022C3F80022A260324AC3F8082391
:1041C0004FF48062304BC3F880212C4AD2F8C434BB
:1041D0009807C2F8C4343CD501238DF8003094F818
:1041E00030300BB984F82F30236A5B0703D594F87D
:1041F0002E30002BA9D0D4E9003168469847A4E7B7
:10420000C5F84831D5F84831237B83B91C4F01AE3E
:104210000FCF0FC63B68336094F83030002BD4D1F9
:10422000C5F80032A360174BC5F80833C8E74FF450
:104230000073C5F8003240F20223A36003F1CE738D
:10424000C5F80833A368C5F804330123AB602B62BB
:104250007BE7590701D50223BFE7DA0701D503231E
:10426000BBE794F82E30002BB7D00423B5E700BF8E
:10427000580C002072AB0000F29B000000A0005020
:10428000640C002002029C0100E100E0036810B50C
:104290005A090CBF4FF0FF32002203F01F0322FA2D
:1042A00003F3DB0704460AD40E490F484FF40572A6
:1042B00004F00AFD4FF405710A4804F0D1FD2368AB
:1042C00003F01F025B0922600AD00649064840F24B
:1042D000192204F0F9FC40F21921024804F0C0FD53
:1042E000024810BDFEA90000F29B0000002584508A
:1042F000F7B50C46064605F081F8204605F07EF835
:1043000001A840F20D650196FFF7C0FF019B012750
:10431000803340F8235001A80194FFF7B7FF019BB9
:10432000803340F82350042005F036F8092501A811
:104330000194FFF7ABFF019A0369D340DB0714D464
:1043400001A80196FFF7A2FF019B013D07FA03F3C5
:10435000C360042005F020F8304605F04FF8042033
:1043600005F01AF815F0FF05E1D101A80194FFF757
:104370008DFF0123019A9340C360042005F00CF8DF
:10438000204605F03BF8042005F006F801A801944A
:10439000FFF77CFF019A03690348D34003F0010350
:1043A000C01A03B0F0BD00BF0100AD0B0E4B70B5DD
:1043B00053F82040013053F82060A64200D870BD69
:1043C000D4E900352846984765B1EB6830B100283C
:1043D000B8BF4042FF28A8BFFF2018705A7842F0AB
:1043E00001025A700834E8E71C9A000070B50546CF
:1043F00010B90024204670BD0378002BF9D00F4A75
:104400000F4C1646944208D10D4CB442F1D02046D0
:1044100005F001F850B91834F7E7204604F0FBFF27
:1044200010B12368AB42E5D01834EBE72846216889
:1044300004F02DFE0028EED1DCE700BF9001002043
:1044400000010020F7B504460E464FF02003EFF3BD
:10445000118783F31188BFF36F8F01F0CDFB00222A
:10446000042C98BF1D4B054694BF53F824301C4BB9
:104470000092452122461B4804F007FD3EB1F36936
:10448000C3F308031BB14521174804F0FEFC35B106
:10449000284604F0EBFF034608B1027802B9134B3B
:1044A0002A464521124804F0F0FC31462046FFF729
:1044B000BDF8042C08D10F490F488F2204F004FCEA
:1044C0008F210C4804F0CCFC87F31188BFF36F8F69
:1044D000284603B0BDE8F040FEF7CCBA349A00009D
:1044E000AEAB0000C4AB0000F1AB0000BCAB000001
:1044F00017AC000034AC0000F29B00000248034AF5
:104500000021121A04F021BEE00100209C170020B7
:10451000012208B5094B02201A70FFF747FF01F08E
:10452000D1FE0320FFF742FF00F0D6F904F0B2FB02
:10453000034A137B23F00103137308BD991700206E
:10454000600200202DE980483F4BA7B003F50067CB
:1045500087F3088883F30A880024E0233B4D4FF05B
:10456000010B85F82230EC772C766C76AC76EC7605
:104570006B6A374E43F4E0236B626B6ADFF8E8A0A6
:1045800043F400236B62AC63EB68DFF8E0809BB21E
:1045900043F0BF6343F40833EB60FEF7FDF9FDF72A
:1045A000DFFE4FF0FF33AB62EB62FEF791FCFEF7EC
:1045B000E9FA40F20113274DADF8243006ABAB60A9
:1045C000CDE91F4404F026FF2046FFF7EFFE01204F
:1045D000FFF7ECFE01F0C0F91F4B6E624FF4805202
:1045E0001E49059330465346CDE9034BCDE90144BE
:1045F000009400F01DF9737B814623F004033046DC
:10460000737301F021F80F234FF4A072CDE9024338
:104610001349144B4046CDE904B4CDE9005400F0F1
:1046200007F998F80D30524623F0040388F80D304E
:1046300005F1180349463046C5E90633C5F80C8034
:104640002C756F60FDF778FEE028002000ED00E09B
:10465000600200208C0C0020A0AC0000A0170020FD
:10466000A0270020214A000011450000E0010020A1
:104670002DE9F041144D154CA846154EAC4208D911
:10468000314614483C2204F01FFB3C21304604F024
:10469000E7FB444502D30020BDE8F081D4E90412D1
:1046A00042EA010313F003030BD1E068A3618342E4
:1046B00001D12034E2E7A76901331760A2610A44FF
:1046C000F5E76FF01500E7E790010020900100206A
:1046D000A8AC0000F29B00002DE9F74304460D460C
:1046E0009046994600F108064FF02003EFF311873A
:1046F00083F31188BFF36F8F304600F06DF940B936
:104700001F492048812204F0DFFA81211C4804F06F
:10471000A7FB304600F07CF9A369C3B12B601B688E
:10472000A361E3690133E3610024304600F062F9DC
:1047300040B913491348AC2204F0C6FAAC21104822
:1047400004F08EFB87F31188BFF36F8F13E058EAF4
:10475000090203D16FF00B042B60E6E722463946CD
:104760003046CDE9008900F089FD044618B9064BB2
:104770009B685B692B60204603B0BDE8F08300BFF7
:104780002C9C0000F29B00008C0C00202DE9F041D5
:1047900004460D4600F108064FF02003EFF31187A1
:1047A00083F31188BFF36F8F304600F015F940B9DD
:1047B0001D491E48812204F087FA81211A4804F01D
:1047C0004FFB304600F024F9D4F81880B8F1000F00
:1047D0000FD1204601F082F858B12A68C0F87880DD
:1047E000426100F031FF39463046BDE8F04100F04B
:1047F000A5BB2B68A26930461A602B68A361E369E8
:10480000013BE36100F0F6F840B907490748AC22E4
:1048100004F05AFAAC21044804F022FB87F3118813
:10482000BFF36F8FBDE8F0812C9C0000F29B00006D
:104830002DE9F04385B0DDF83C900446B9F10F0F47
:104840000F46154698462ED11F4B98452FD104F19F
:104850005803C4E91633109B0026237304236373A3
:104860000E9BE81D02930D9B20F0070001930C9B0B
:104870003D18C4E9197000932A464346394620463C
:10488000C4E90666A66084F80E90E673E666FDF756
:1048900037FD0E4B66659B6803B11B6F2846236787
:1048A00005B0BDE8F08309F110031E2BCFD94FF4FA
:1048B00002720749074804F007FA4FF402710448EE
:1048C00004F0CEFAC3E700BF214A00008C0C0020A0
:1048D000CDAC0000F29B00002DE9F047394F3A4D76
:1048E0003E46DFF8EC8086B0BD420AD941463748E3
:1048F0004FF4367204F0E8F94FF43671404604F094
:10490000AFFAB54205F130041DD300F04DFB40F283
:10491000E7384FF000092C4C2D4DDFF8B0A0B44221
:104920000AD92946504640F2F72204F0CDF940F268
:10493000F721284604F094FAB44221D306B0BDE82A
:10494000F04700F019BD54F8043C059354F8103CAE
:10495000049354F8143C039354F8183C029354F80D
:104960001C3C019354F8203C009354E90A2354E979
:104970000C01FFF75DFF54F8303C5D652546B3E759
:10498000636A5A1C0FD04FF400424046494623EA5E
:10499000E373C2FB0301494508BF4045276804D1C2
:1049A000384600F087FE3034B9E74FF47A720023BE
:1049B000FBF744FC02460B4607F11800054901F0DD
:1049C0001FFAF0E79001002090010020F29B000008
:1049D000CDAC000039570000006838B1044B00F03E
:1049E00003001B7DC01A18BF0120704701207047CB
:1049F0008C0C0020054903468A68087D196802432B
:104A00000020914204BF1860012070478C0C0020E8
:104A1000024A117D93680B43036070478C0C0020A1
:104A200008B5094C4FF02002EFF3118382F311888F
:104A3000BFF36F8F01F0E0FA2062FCF79DFC0028C5
:104A4000F0D1FDF793FCEDE78C0C00202DE9F3414C
:104A5000044616461F46EFF3058343B15F4960489D
:104A6000652204F031F965215C4804F0F9F94FF052
:104A70002003EFF3118883F31188BFF36F8F594838
:104A8000FFF7AAFF40B958495548812204F01CF9A4
:104A90008121554804F0E4F95248FFF7B9FFE36873
:104AA000524AD3B1A0689168884233D056EA0703CE
:104AB00032D14C48FFF79EFF40B94B494848AC22E1
:104AC00004F002F9AC21484804F0CAF988F31188CF
:104AD000BFF36F8F6FF00F0019E0916891F90E101E
:104AE0000133E36093683F482161A360FFF782FFD1
:104AF00040B93D493A48AC2204F0E6F8AC213A48C6
:104B000004F0AEF988F31188BFF36F8F002002B074
:104B1000BDE8F0812169E3E790F90E3091F90E10BC
:104B20009942A8BF194621EAE1718B423CDD00F0B1
:104B30004BFE054622464146CDE90067294800F074
:104B40009DFB0028E3D04FF02003EFF3118683F3A1
:104B50001188BFF36F8F2348FFF73EFF40B922490A
:104B60001F48812204F0B0F881211F4804F078F931
:104B70001C48FFF74DFF236821699C4207D033B1E1
:104B800093F90E309942A8BF194621EAE171A06855
:104B900090F90E30994209D16DB13146114800F0BB
:104BA000CDF96FF00A00B2E70025C3E700F00CFE74
:104BB0000028F2D1F0E70B48FFF71CFF40B90A4983
:104BC0000748AC2204F080F8AC21074804F048F90B
:104BD00086F31188BFF36F8FE3E700BFF0AC0000EE
:104BE000F29B0000BC0C00202C9C00008C0C0020D0
:104BF00038B50446EFF3058343B145494548C7221C
:104C000004F062F8C721424804F02AF9A368002B97
:104C100078D0414DAA68934277D1E36843B93C49C3
:104C20003C48DF2204F050F8DF21394804F018F93D
:104C3000EFF3058343B139493648FE2204F044F8C6
:104C4000FE21364804F00CF9AB68DB7B012B08D160
:104C500032493048FF2204F037F8FF212F4804F092
:104C6000FFF8AA68D37B013BD373E368012B05D01F
:104C7000013BE36000F080FB002038BD4FF02003D3
:104C8000EFF3118583F31188BFF36F8F2448FFF78B
:104C9000A3FE40B923491F48812204F015F8812161
:104CA000204804F0DDF81E48FFF7B2FEA068216935
:104CB00090F90E30994201D000F086FD204600F0B8
:104CC0000DFEA06058B190F90E202261002282678B
:104CD00000F0BAFC2946124800F030F9CAE7E0605B
:104CE0000F48FFF787FE40B90E490A48AC2203F08F
:104CF000EBFFAC210B4804F0B3F885F31188BFF348
:104D00006F8FB7E76FF01500B7E74FF0FF30B4E7EC
:104D1000F0AC0000F29B00008C0C002012AD0000F3
:104D2000BC0C00202C9C000038B504464FF020033A
:104D3000EFF3118583F31188BFF36F8F1248FFF7EC
:104D40004BFE40B911491248812203F0BDFF812179
:104D50000E4804F085F80C48FFF75AFE204600F094
:104D6000BDFD48B10022826700F06EFC2946BDE817
:104D70003840054800F0E2B8D4E902329A4218BF40
:104D80000133A360F2E700BFC00C00202C9C0000A0
:104D9000F29B0000F7B5044616461F46EFF3058365
:104DA0005BB156EA070308D02B492C48792203F05F
:104DB0008BFF7921284804F053F84FF02003EFF3DC
:104DC000118583F31188BFF36F8F2548FFF704FE29
:104DD00040B924492148812203F076FF81212148EE
:104DE00004F03EF81E48FFF713FEA368ABB1013B89
:104DF0001B48A360FFF7FEFD40B91A491748AC22D3
:104E000003F062FFAC21174804F02AF885F31188FB
:104E1000BFF36F8F002003B0F0BD56EA070313D134
:104E20000F48FFF7E7FD40B90E490C48AC2203F0EC
:104E30004BFFAC210B4804F013F885F31188BFF346
:104E40006F8F6FF00F00E6E722462946CDE9006735
:104E5000034800F013FADEE73DAD0000F29B0000CE
:104E6000C00C00202C9C000010B5084C23685BB1DE
:104E7000FCF7ECFD03462068054A03440021BDE829
:104E80001040136101F0EEB810BD00BFD00C00203F
:104E90008C0C0020F8B504460D464FF02003EFF3CC
:104EA000118683F31188BFF36F8F1E48FFF794FDBF
:104EB00040B91D491D48812203F006FF81211A488F
:104EC00003F0CEFF1748FFF7A3FD4FF40047002281
:104ED00040F2E7300021164BE7FB04011A61002382
:104EE0004FF47A72FBF7AAF9002C124B16DC18600B
:104EF000114B1D60FFF7B8FF0A48FFF77BFD40B973
:104F000009490A48AC2203F0DFFEAC21064803F051
:104F1000A7FF86F31188BFF36F8FF8BD0228B8BFD3
:104F20000220E4E7C80C00202C9C0000F29B00004B
:104F30008C0C0020D00C0020CC0C002010B50346B7
:104F40000C46C1B9EFF30582AAB9144A516A9268B6
:104F5000914210D0FFF74EFD40B911491148C322CC
:104F600003F0B2FEC3210E4803F07AFFBDE8104003
:104F70000020FDF72BB91846FFF73CFD40B9084962
:104F80000848AC2203F0A0FEAC21054803F068FFFE
:104F900084F31188BFF36F8F10BD00BF8C0C00200D
:104FA0002C9C0000F29B000038B54FF02003EFF37B
:104FB000118583F31188BFF36F8F2048FFF70CFD35
:104FC00040B91F491F48812203F07EFE81211C4801
:104FD00003F046FF1948FFF71BFDEFF3058343B1CC
:104FE00019491848FE2203F06FFEFE21164803F00F
:104FF00037FF164CA268D27B012A08D1124911480A
:10500000FF2203F061FEFF210F4803F029FFA26891
:10501000D37B013BD3730948FFF7ECFC40B9084947
:105020000848AC2203F050FEAC21054803F018FFFD
:1050300085F31188BFF36F8F38BD00BFC80C002007
:105040002C9C0000F29B000012AD00008C0C002094
:105050000B4B10B599420C460AD10A490A484FF445
:10506000717203F031FE4FF47171064803F0F8FEDF
:10507000D4E9003213605A600023C4E9003310BD44
:10508000E00100205DAD0000F29B0000836810B5D8
:10509000044653B90A490B4840F24F2203F014FE6C
:1050A00040F24F21064803F0DBFE2146A068FFF7DF
:1050B000CFFF637B23F0020363730023A36010BD63
:1050C0005DAD0000F29B000038B50246124804F0C6
:1050D000F3F9124D044600B9EC68AAB9AB6843B9BC
:1050E0000F491048852203F0EFFD85210C4803F09D
:1050F000B7FEAB685A7BD20606D1A26922B9DA891B
:105100007F2A01D96B6238BDAB68A34201D0FFF79B
:10511000ABFE6C62F7E700BFB40C00208C0C0020E3
:105120005DAD0000F29B000010B590F90D20044623
:10513000002A437B06DA03F07F03014643730648E7
:10514000FFF786FF054B9868031B58425841BDE89E
:105150001040FFF7B9BF00BFB40C00208C0C00203A
:1051600038B504460D46FFF7DFFF637B43F00203CB
:10517000637325B3184BA5609C420AD117491848A0
:1051800040F2B53203F0A0FD40F2B531134803F010
:1051900067FE2B689D4208BF0023002B38BF002309
:1051A0009BB194F90E1093F90E20914208D0521A37
:1051B000002A05DD5A68C4E9003214605C6038BD1D
:1051C0006A68934201D01B68EAE76B68C4E9005340
:1051D0001C606C60F3E700BFE00100205DAD0000E3
:1051E000F29B00002DE9F04104460D4616461F468D
:1051F0004FF02003EFF3118883F31188BFF36F8F13
:105200001A48FFF7E9FB40B919491A48812203F00F
:105210005BFD8121164803F023FE1448FFF7F8FBDD
:1052200020462946FFF79CFF1048FFF7E3FB40B9F3
:105230000F491048AC2203F047FDAC210C4803F0A5
:105240000FFE88F31188BFF36F8F7B1C08BFB6F188
:10525000FF3F08D032463B4604F118000649BDE83E
:10526000F04100F0CDBDBDE8F08100BFC80C0020CA
:105270002C9C0000F29B00003957000038B5054611
:105280000D4B0C4698680D4B11461860DDE9042360
:10529000FFF7A8FF2846FFF7ADFB40B908490948CA
:1052A000C32203F011FDC321054803F0D9FD2046B8
:1052B000BDE83840FCF78ABF8C0C0020C40C0020ED
:1052C0002C9C0000F29B000070B50446183000F0E2
:1052D00057FE4FF02003EFF3118683F31188BFF3DD
:1052E0006F8F2048FFF778FB40B91F491F48812284
:1052F00003F0EAFC81211C4803F0B2FD1948FFF7D6
:1053000087FB94F90D20637B002A06DA03F07F0304
:10531000214617486373FFF79BFE164D637BA86811
:1053200043F010036373031B58425841FFF7CCFE50
:105330000C48FFF75FFB40B90B490C48AC2203F067
:10534000C3FCAC21084803F08BFD86F31188BFF342
:105350006F8FAB68A34203D1BDE8704004F0A2B8E0
:1053600070BD00BFC80C00202C9C0000F29B000008
:10537000B40C00208C0C002038B54FF02003EFF364
:10538000118583F31188BFF36F8F2448FFF724FB47
:1053900040B923492348812203F096FC812120480B
:1053A00003F05EFD204C1D48FFF732FBA268D27B64
:1053B00052B91E491B4840F2523203F085FC40F2BC
:1053C00052311A4803F04CFDEFF3058353B11749EE
:1053D000144840F2533203F077FC40F25331134843
:1053E00003F03EFDA2680020D37B0133D373FFF7A7
:1053F0006BFE0A48FFF7FEFA40B909490948AC229A
:1054000003F062FCAC21064803F02AFD85F3118805
:10541000BFF36F8FBDE8384004F044B8C80C0020DB
:105420002C9C0000F29B00008C0C00205DAD000065
:1054300070B590F90D200446002A437B06DA03F08C
:105440007F03014643732048FFF702FE637B63F04E
:105450007F0363731D4B9C420AD11D491D4840F2D6
:10546000B53203F031FC40F2B531194803F0F8FCD5
:10547000194A114651F8283FD56A8B4208BF0023CC
:10548000002B38BF0023CBB194F90E6093F90E00C6
:1054900086420FD0801B00280CDD5968C4E900311A
:1054A0000C605C609068031B58425841BDE8704036
:1054B000FFF70ABEAB4201D01B68E4E7C4E9001560
:1054C0002C60D462EEE700BFB40C0020E0010020A5
:1054D0005DAD0000F29B00008C0C002070B504460E
:1054E0004FF02003EFF3118583F31188BFF36F8F23
:1054F0002548FFF771FA40B924492548812203F075
:10550000E3FB8121214803F0ABFC1F48FFF780FA41
:10551000204B214A986811688842194613D1FFF739
:10552000A3FC1948FFF766FA40B918491848AC229D
:1055300003F0CAFBAC21154803F092FC85F31188F7
:10554000BFF36F8F70BD00261660144A1268BAB19F
:10555000C2897F2A14D8427BD20611D1104A90F911
:105560000E60126896420BDB0E4A904208D01A6910
:10557000A24202DCFFF75CFFD1E7121B1A61D0E701
:1055800000230B61CDE700BFC80C00202C9C00005D
:10559000F29B00008C0C0020C40C0020D00C0020DA
:1055A000CC0C0020E001002070B590F90D200446DD
:1055B000002A437B3FDBDA063DD18569002D3AD1D5
:1055C00063F07F0343731C4B98420AD11B491C486C
:1055D00040F2B53203F078FB40F2B531174803F0E2
:1055E0003FFC18490B4653F8280F984218BF054650
:1055F000002D1A462B4638BF0023CD6AB3B194F96B
:105600000E6093F90E0086420CD0801B002809DD45
:105610005A68C4E9003214605C600020BDE8704044
:10562000FFF752BDAB4201D01B68E7E7C4E9002594
:105630002C60CC62F1E770BDE00100205DAD0000A0
:10564000F29B00008C0C002038B504464FF020037C
:10565000EFF3118583F31188BFF36F8F1248FFF7C3
:10566000BBF940B911491248812203F02DFB812179
:105670000E4803F0F5FB0C48FFF7CAF92046FFF788
:1056800093FF0948FFF7B6F940B908490848AC222A
:1056900003F01AFBAC21054803F0E2FB85F3118807
:1056A000BFF36F8F38BD00BFC80C00202C9C0000DA
:1056B000F29B000038B504464FF02003EFF311854C
:1056C00083F31188BFF36F8F1848FFF785F940B94E
:1056D00017491848812203F0F7FA8121144803F092
:1056E000BFFB1248FFF794F9637B5A0711D40F48A8
:1056F000FFF780F940B90E490E48AC2203F0E4FAF6
:10570000AC210B4803F0ACFB85F31188BFF36F8F1E
:1057100038BD23F0040320466373FFF745FF294695
:10572000BDE838400148FFF709BC00BFC80C0020A5
:105730002C9C0000F29B000070B504464FF0200343
:10574000EFF3118683F31188BFF36F8F1B48FFF7C8
:1057500043F940B91A491B48812203F0B5FA812167
:10576000174803F07DFB1548FFF752F914F80B3C7E
:1057700013F0280F10D154F8103CA4F1180513B100
:105780002846FFF783FC14F80B3C284623F014034B
:1057900004F80B3CFFF708FF0848FFF72BF940B966
:1057A00007490848AC2203F08FFAAC21044803F003
:1057B00057FB86F31188BFF36F8F70BDC80C0020B4
:1057C0002C9C0000F29B0000F8B504460E464FF0FA
:1057D0002003EFF3118783F31188BFF36F8F3848ED
:1057E000FFF7FAF840B937493748812203F06CFADD
:1057F0008121344803F034FB3148FFF709F9637B1A
:1058000076B2DA0658D1A569002D55D103F07F0391
:10581000637321462D48FFF71BFC637BA67363F07F
:105820007F0363732A4B9C420AD12A49264840F2DF
:10583000B53203F049FA40F2B531264803F010FBC7
:1058400025490B4653F8280F984218BF0546002DEE
:105850001A462B4638BF0023CD6A43B394F90E6035
:1058600093F90E0086421ED0801B00281BDD5A686B
:10587000C4E9003214605C600120FFF725FC0124BC
:105880000F48FFF7B7F840B90E490F48AC2203F0B4
:105890001BFAAC210B4803F0E3FA87F31188BFF33E
:1058A0006F8F2046F8BDAB4201D01B68D5E7C4E935
:1058B00000252C60CC62DFE7A6730024E0E700BF80
:1058C000C80C00202C9C0000F29B0000B40C0020AF
:1058D000E00100205DAD00008C0C002038B50446CE
:1058E0004FF02003EFF3118583F31188BFF36F8F1F
:1058F0001648FFF771F840B915491648812203F0A0
:10590000E3F98121124803F0ABFA1048FFF780F861
:10591000204603F0D1FD044628B1FFF7B7FB04F1A0
:10592000180000F02DFB0948FFF764F840B908495A
:105930000848AC2203F0C8F9AC21054803F090FAFE
:1059400085F31188BFF36F8F204638BDC80C002047
:105950002C9C0000F29B00000021044B084603F140
:105960002802C3E90A22FFF795BA00BF8C0C002079
:10597000F8B5EFF3058353B1404941484FF49662BF
:1059800003F0A2F94FF496613C4803F069FA3D4DEB
:105990003D4EAB68B34267D04FF02003EFF3118761
:1059A00083F31188BFF36F8F3848FFF715F840B9BC
:1059B00037493348812203F087F98121344803F0C5
:1059C0004FFA3248FFF724F8A96832484B7B03F0BE
:1059D0007F034B73FFF73CFBAC68637BB44263F01F
:1059E0007F0363730AD12549254840F2B53203F09D
:1059F0006BF940F2B531214803F032FAAB6A254821
:105A0000E96A834208BF0023002B38BF002333B369
:105A100094F90E6093F90E2096421CD0921B002A36
:105A200019DD5A68C4E9003214605C600120FFF798
:105A30004BFB1648FEF7DEFF40B915491048C3225C
:105A400003F042F9C321124803F00AFA3846BDE8D0
:105A5000F840FCF7BBBB8B4201D01B68D7E7C4E919
:105A600000010C60EC62E1E74FF02003EFF31180DE
:105A700083F31188BFF36F8FE9E700BF5DAD0000CE
:105A8000F29B00008C0C0020E0010020C80C0020DC
:105A90002C9C0000B40C00202DE9F04106460F4676
:105AA000EFF3058353B13549354840F2D14203F055
:105AB0000BF940F2D141314803F0D2F956EA07031D
:105AC00004D1FFF755FF0020BDE8F08103F0FEFC94
:105AD00084194FF02003EFF3118883F31188BFF38B
