:020000040000FA
:10000000C0A60120812D0000BB600000E12D000092
:10001000E12D0000E12D0000E12D0000E12D0000A8
:10002000000000000000000000000000BD2B0000E8
:10003000E12D000000000000000000005D5E0000F7
:10004000592D0000592D0000592D0000592D000098
:10005000592D0000592D0000592D0000592D000088
:10006000592D0000592D0000592D0000592D000078
:10007000592D0000592D0000592D0000592D000068
:10008000592D0000592D0000592D0000592D000058
:10009000592D0000592D0000592D0000592D000048
:1000A000592D0000592D0000592D0000592D000038
:1000B000592D0000592D0000592D0000592D000028
:1000C000592D0000592D0000592D0000592D000018
:1000D000592D0000592D0000592D0000592D000008
:1000E000592D0000592D0000592D0000592D0000F8
:1000F000592D0000592D0000592D0000592D0000E8
:10010000592D0000592D0000592D0000592D0000D7
:10011000592D0000592D0000592D0000592D0000C7
:10012000592D0000592D0000592D0000592D0000B7
:10013000592D0000592D0000592D0000592D0000A7
:10014000592D000053B94AB9002908BF00281CBF27
:100150004FF0FF314FF0FF3000F070B9ADF1080CF7
:100160006DE904CE00F006F8DDF804E0DDE90223D5
:1001700004B070472DE9F047089E0D4604468A46B4
:10018000002B7FD18A42174641D9B2FA82F24AB196
:10019000C2F1200105FA02F39740944020FA01F1E0
:1001A00041EA030A4FEA17484FEA144C1FFA87F94D
:1001B000BAFBF8FE08FB1EA30EFB09F14CEA034351
:1001C000994206D9FB1802D2994200F224810EF11D
:1001D000FF3E591AA3B2B1FBF8F008FB101100FB67
:1001E00009F943EA0144A14505D93C1902D2A145C8
:1001F00000F20E810138A4EB090440EA0E40002110
:100200001EB1D4400023C6E90043BDE8F08702B91F
:10021000FFDEB2FA82F2002A4FD1CB1B4FEA174E13
:100220001FFA87F80121250CB3FBFEFC0EFB1C30E6
:100230002B4608FB0CF945EA0045A9450AD97D196A
:100240002CBF01230023A94502D9002B00F0D9803F
:100250000CF1FF3CA5EB0905A3B2B5FBFEF00EFBCC
:10026000105508FB00F843EA0544A04505D93C19A0
:1002700002D2A04500F2C9800138A4EB080440EA8C
:100280000C40BDE78B4208D9002E00F0B180002160
:10029000C6E900050846BDE8F087B3FA83F10029F6
:1002A00046D1AB42C0F0A780824240F2A48008460B
:1002B000002EAAD0C6E9004AA7E7C2F12000974065
:1002C00001FA02F34FEA174EC14024FA00F51FFA73
:1002D00087F894401D43B1FBFEF02B0C0EFB101170
:1002E00000FB08FC43EA01439C4509D9FB182CBFDD
:1002F000012100219C4502D9002900F09580013898
:10030000A3EB0C03ADB2B3FBFEF10EFB113301FB0B
:1003100008FC45EA0345AC4505D97D1902D2AC4538
:1003200000F289800139A5EB0C0341EA00417AE72C
:10033000C1F120048B4002FA01F705FA01FCE2400A
:1003400020FA04F8E54000FA01FE134348EA0C02E3
:100350004FEA13484FEA124C1FFA83F9B5FBF8FA3B
:1003600008FB1A550AFB09F04CEA054C60450AD90E
:1003700013EB0C0C2CBF01250025604501D9002D85
:1003800055D00AF1FF3AACEB000C92B2BCFBF8F08E
:1003900008FB10CC00FB09F942EA0C4CE14505D9F9
:1003A00013EB0C0C01D2E1453BD8013840EA0A407E
:1003B000ACEB090CA0FB0789CC4545464A4602D365
:1003C00006D1C64504D20138B8EB070569EB030234
:1003D0002EB3BEEB05036CEB020C23FA01F20CFA10
:1003E00004F42CFA01F300211443C6E900430CE79E
:1003F0003146304609E7841A65EB030301209A462B
:1004000056E7ACF1020C3D4424E702383C4434E7A3
:1004100002383C44EFE6AEF1020E3B44D9E63146E9
:10042000F3E602389C44C1E702383B4468E7AAF18E
:10043000020A9C44A7E702393D4474E7704700BFB5
:100440007FB5404B404A4148C3F800264921C3F8D4
:100450000426C3F80826C3F80C26C3F81026C3F8F0
:100460001426C3F81826C3F81C2605F0A8FB00F0D4
:10047000B1F8374800F080F828B94521344A3548AA
:1004800005F09DFBFEE7344804F0A8FD0446026930
:100490008168136823F0806313600B684FF48872DF
:1004A0001A219847A36820465B6801A9984790B92C
:1004B000019B5A010FD44FF05023D3F800340BB1F5
:1004C000DB0708D54921254805F079FB01F0F8FE46
:1004D000234802F075FA01A800F0D4FC214B1B68F8
:1004E000834204D04521204805F069FBFEE7039ACA
:1004F00049211E4805F063FB49211D4805F05FFBBB
:1005000069469DF8080000F043F8009B039C1C44DA
:10051000019B1D8966194FF02002EFF3118382F3CE
:100520001188BFF36F8F05F09AFC00F04DFF6359FF
:1005300083F308887368984745210E4805F03FFB10
:10054000FEE700BF008001503546526EE388000090
:10055000FC8800000F8900002E890000358900000A
:1005600048850000FC460120598900007C89000074
:10057000AB890000D089000010B5044C236813B982
:1005800004F02CFD2060206810BD00BFF84601205B
:10059000024608B538B105480023452105F00FFB98
:1005A0006FF0150008BD0860FCE700BFF38900008C
:1005B0001FB5074A03460C461068194601AA05F004
:1005C0009BFE18B9019B2360029B636004B010BDC1
:1005D000F84601204FF4C051014804F007B800BFAD
:1005E000FA5C01202DE9F04FDFF8F891F9B038A856
:1005F0001746DDE984481D46DDF808B2D9F80060E9
:1006000007F086FC002138A804F000F9CDF80C9022
:100610003CB1B8F1000F04DD4246214638A807F08E
:100620007BFC4FF000097B89B7F808809844FB6891
:100630009844C8454BD80DA938A807F0AAFC869B5A
:1006400023B1202218460DA905F06AFD00232A4691
:10065000009339464FF6FF7307A804F041FF0446A4
:10066000002840F0B58080464FF0FF37DFF87891E2
:100670000DF1160305AA06A907A804F07DFF041EC4
:10068000C0F2A68040F09780BDF816A0BAF1100F16
:1006900034D1BDF81480B8F1200F40F09780434664
:1006A0002846069938AA05F0B8FA0446002840F012
:1006B0008F80424638A90DA804F0A9FF0446474B95
:1006C0001B68834240F084804FF00108D0E7839A92
:1006D000A8EB09039A4228BF1A4649461346924698
:1006E00028465A4605F099FA0446002870D1524629
:1006F000594638A807F010FCD1449AE7BAF1010F27
:1007000036D1BDF81430202B60D82846069938AA77
:1007100005F083FA044600285AD19DF814A0BAF1D6
:10072000200F03D94FF0FF342746A1E7D9F8003056
:100730002B4F0293029B9C42F4DA1DA807F0E8FBC2
:1007400000211DA804F062F87B681DA81A6857F8FC
:10075000081B07F0E1FB15A91DA807F01AFC52467B
:1007600038A915A805F0CCFC0028DDD00134E1E75C
:10077000BAF1200F7FF47CAF002F19DBD9F80030DD
:10078000BB4215DDBDF81430B3F5807F1ED128467D
:10079000069938AA05F041FA0446C8B9FFB2514695
:1007A000BDF81430009738AA0DA800F01FF80646CF
:1007B0004FF0FF375CE7B8F1000F0DD0074B1B6817
:1007C000B34201D0039B1E68344601E04FF0FF3472
:1007D000204679B0BDE8F08F0124F9E7FC460120FE
:1007E0005485000000450120508500002DE9F04FA0
:1007F00091460022ADF54B7D98466B4B07468A46E5
:1008000027A811469DF850631D6807F03DFB674B14
:100810008AAA53F8364003EBC6035B680294196852
:1008200002A80C443023214606F01DF868BB029B49
:100830008A9A13449C4228D1214629AA02A806F08C
:1008400026F810BB0DF1B00B5A46214602A806F05F
:100850001EF80646C8B929A806F004FC029B289099
:100860009C4212D133463246CDE9006B29A927A814
:1008700007F0C6FA48B927A803F066FF28B929A8E7
:1008800006F0F0FB804528900AD027A807F007FB68
:1008900027A807F004FB28460DF54B7DBDE8F08F37
:1008A000B8F5807F02D04FF0FF35F1E7BAF1200FA5
:1008B000F9D149468AAA27A803F06AFF044600280E
:1008C000F1D19DF82733BC2BEDD10DF5A478DF26AF
:1008D000454603900CA807F01BFB00210CA803F071
:1008E00095FF20220DF207310CA807F015FB04221A
:1008F00003A90CA807F010FB04A90CA807F049FBFA
:100900001F2ED4BFB1464FF020099DF80F3040464E
:1009100001334A4604A9A6EB09068DF80F3005F00D
:10092000FFFB002EC844D5DC28462A46DF238AAECA
:10093000117816F801CB013B81EA0C0102F8011B8A
:10094000F6D12B7803F07F032B7010F8016B002E8B
:10095000A9D10134BE2CF8D195F8BE30012BA2D11B
:100960000CA807F0D5FA31460CA803F04FFF082277
:100970000F490CA807F0D0FA394620220CA807F03E
:10098000CBFA20220DF207210CA807F0C5FA04A922
:100990000CA807F0FEFA20220DF2073104A804F09B
:1009A00036FE054681E700BF004501205485000062
:1009B000198A00002DE9F041022386B00D466F46EA
:1009C0000026DFF86C80ADF8003017F8010B01A9A4
:1009D00001F0CCF90446D8B901981023816802AA25
:1009E000103905F01AF9044628B1019805F014F9F8
:1009F0000EE00126E9E71022414602A805F080FB3F
:100A000050B1019805F008F9002EF2D04FF0FF34F4
:100A1000204606B0BDE8F081019805F02CFE0423C5
:100A2000A0F108012A46019805F0F7F80446DCE732
:100A3000248700002DE9F041384B88B0064600209D
:100A40000D461C6804F043FD06A9C0B201F08EF902
:100A5000002857D1294604F03AFD2C2407A9C0B23A
:100A600004FB056401F082F9002836D04FF02C0811
:100A700008FB05F806EB0807396911F0100137D1BA
:100A80004FF480730193264B224600930846CDE92C
:100A90000311069B0291FFF7A5FD0446214B56F872
:100AA000082006989A420CD13A89FB68D1438B42C0
:100AB00007D813448268934203D21B4B1B68A3429E
:100AC0001DD045B38268002105F0F3F8174A45218F
:100AD000174805F074F8012411E0079805F022F991
:100AE0000746079805F098F8631EE21C93420DD163
:100AF000002DF0D03046069904F083FE2C4606986F
:100B000005F08AF8204608B0BDE8F08113F8011F0F
:100B1000B942EBD0AAE7074AD9E700BF0045012058
:100B2000FA7801203DB8F396FC460120218A0000A6
:100B3000338A00002B8A000073B50D46002104465D
:100B40002846CDE9001104F01BFE30B3164E226892
:100B5000B24203D1204601AA04F089FDE36AB34200
:100B600004D16A460121204604F081FDDDE900320E
:100B7000934288BF0193019BAB60019A29462046AE
:100B800000F026FB094B1A68002A03DD57210848AC
:100B900005F015F8002002B070BD05F10801FFF75F
:100BA00009FFAB680193E8E73DB8F3966057012071
:100BB0005B8A00002DE9F84F884691469A46002648
:100BC000DFF870B0194C1A4D0B9B9E4201D30020E8
:100BD0000FE00B9B40469F1BB7F5806F28BF4FF47B
:100BE0008067144A3B4606EB0A0105F016F810B17F
:100BF0000120BDE8F88F0A993B465A4648467118CD
:100C000005F028F80028F3D1C4F800563E44C4F893
:100C10000456C4F80856C4F80C56C4F81056C4F864
:100C20001456C4F81856C4F81C56CDE7008001507D
:100C30003546526EFA7401202DE9F043894B044683
:100C4000602285B00F4600211E6805F094FA00214D
:100C5000854B08466362854B236504F038FC04F13C
:100C60002001C0B201F082F80121002004F02FFC25
:100C700004F14C01C0B201F079F80546204604F0B9
:100C800056FD024638B14FF480725721784804F07F
:100C900096FF01238DE00146204604F030FD80469A
:100CA00018B1002257217348F1E7204600F0A6F959
:100CB0000028EED0684604F05AFD6946204604F04C
:100CC000F5FD18B1424657216B48E0E7684604F04D
:100CD00057FD80F001016A462046C9B204F00FFDBD
:100CE00002460028DDD1684604F04AFD804660BB1C
:100CF00069462046FFF720FF9DF8073084F85830FA
:100D0000033B012B06D8404604F01DFE10B1FF2323
:100D100084F858309DF80730023B022B0BD8002096
:100D200004F0FFFD38B1FF2384F8583045215348C3
:100D300004F045FFFEE794F85830FF2BF6D06A46E2
:100D40000021204604F0DBFCA3E79DF80790B9F1F1
:100D5000010F23D1104603F063F8831E022B804657
:100D60000DD849462046FFF765FE454B1B68984263
:100D700005D001280CBF4FF001084FF0050884F89A
:100D8000588094F85830042B8DF8073014D8012B74
:100D900018D82FD0FF2384F858302BE001212046AB
:100DA000FFF748FE364B1B68984214BF05239DF899
:100DB000073084F85830E4E7052BEBD1002004F02D
:100DC000C2FD12E069462046FFF7B6FE94F858309F
:100DD0000546DA1E012A0BD8002004F0B4FD0546B2
:100DE0000028D7D1002004F09CFD054610B1D1E7C2
:100DF000022BF7D094F85830FF2B04D145211F481F
:100E000004F0DDFEFEE7012B06D06A4600212046F5
:100E100004F075FC0546B8B900212046FFF70AFE2C
:100E20000646DFF85C80D8F8003098420CD11022DA
:100E30000021684605F09FF9236AD8F800605A78C7
:100E40003A715B683C60BB60E06C04F0E5FE206AD0
:100E500004F0E2FE002D14BF2846304605B0BDE880
:100E6000F08300BF0045012060470120604F012052
:100E70008A8A0000CC8A0000F88A0000228B0000D9
:100E8000FC46012008B501460148FFF7D5FE08BD24
:100E90000047012073B516461C4633B3436A5D68AC
:100EA0006379012B15D101BB1F4B22681B689A4245
:100EB00098BF0025002004F00AFB01A9C0B200F091
:100EC00055FFF0B10125019804F0A6FE284602B0B6
:100ED00070BD022B09D12368012B08D9124A126870
:100EE000934202D8B1FA81F149090025E2E7FCD129
:100EF0000029DFD00129F8D12179023918BF012159
:100F0000F3E7294620233246019804F086FE054681
:100F10000028D7D1002CD6D0356804482D1A18BF28
:100F20004FF0FF35CFE700BF044501203DB8F396F1
:100F30002DE9F04F07460C4685B0014600201646C5
:100F400004F06CFB051E52DB3846E46D04F070FBC8
:100F50005FFA84F94FF0000A4FF0010B4FF0FF34B5
:100F600005F1FF3809FB08089DB9BAF1010F03DD4F
:100F70004521214804F023FE631C06D0FF2C2ADC07
:100F800040F2011301343460B380284605B0BDE857
:100F9000F08F6B1E00934146012338460DF10F027E
:100FA00004F03BFE031E019323DB012238460DF1C2
:100FB0000F0105F071FB019B40B15B4501D00AF1C7
:100FC000010A9B46009DA8EB0908CDE7B4F1FF3F5D
:100FD00008BF2C46F5E70223A4F5807473716310F3
:100FE00004F001040133013433603471CDE7072587
:100FF000CBE70125C9E700BF2E8B0000816A426D57
:1010000038B5914208D0531C8B4205D05721144863
:1010100004F0D5FD002038BDB1F5807F1CD95721E3
:101020001048F5E7446A056D04EBC30405EBC305FE
:1010300064686D68AC4202D057210B48E8E7013381
:101040009A42EFD1914205D9436A03EBC202536839
:10105000A342F1D10120DEE700231C46F0E700BFE8
:10106000518B0000898B0000B88B000000B589B05F
:10107000022004A905F073FB9DF81020012A41D03D
:10108000254B2649032A18BF0B469DF813204921FA
:1010900002929DF81220224801929DF811200092A0
:1010A000204A04F08CFD062006A905F058FB9DF8A7
:1010B0001820012A28D0184B1849032A18BF0B46BC
:1010C0009DF81B20492102929DF81A201448019294
:1010D0009DF819200092144A04F071FD9DF810301B
:1010E000012B13D19DF81230032B0FD19DF818302E
:1010F000012B0BD00D48492104F061FD022009B0FD
:101100005DF804FB0A4BC0E7094BD9E709484921C0
:1011100004F055FD0020F2E7E98B0000EF8B0000A2
:10112000018C0000F38B0000428C0000528C000008
:10113000E48B0000718C000070B5064618464B68C1
:1011400014461D4A03F0FF2393420D4686B02ED16C
:101150000B68012B2BD104A905F001FB9DF8102091
:10116000012A26D0154B1649032A18BF0B469DF8B5
:101170001320492102929DF81220124801929DF8F5
:1011800011200092104A04F01AFD9DF81030032B34
:101190000DD12146304604F034FB204605F0D6FA46
:1011A0002046A96804F054FA204602F0DBFD06B0A0
:1011B00070BD064BDBE700BF00010004E98B0000B7
:1011C000EF8B0000018C0000428C0000E48B0000DB
:1011D000436A2DE9F04F0C465E6805460121002365
:1011E0008BB033449A42084601F10101F9D8734F9C
:1011F0003860204604F0C4FA0397B8B1E86D04F0F3
:1012000008FA0022AB6A013B3244824201D2013B20
:10121000FAE7039A12689A4208D35721684804F003
:10122000CEFC0123E3710BB0BDE8F08F08A90220CA
:1012300000F09CFD09A9062000F098FD0623214638
:101240002846099AFFF778FF6379012B08D1039BA1
:10125000DFF870B11F68039B1B68A7B901232360E7
:1012600002230127DFF85C8163710693039BDDF89D
:1012700020901B689F424AD9484604F0CDFC09984B
:1012800004F0CAFCCFE7226801339B1A9F423CD886
:101290006B6A012A196853F8370003EBC70353F848
:1012A000083CDDF82080A0EB0109A3EB010A12D174
:1012B000E268099B022A0AD041462846049304F0BA
:1012C000A0FA22464146284604F0D1FA049B19466A
:1012D000284604F096FA32464946404604F08FFA12
:1012E0005346424641462846CDE90096FFF762FC48
:1012F0002146284604F051FA23680133236020B1C7
:10130000DBF800300133CBF80030013FA3E723685E
:101310009F4250D36A6AFB0052F83710083B059190
:101320001168DDF824A00491296DC8580968A0EB64
:10133000010B217901293CD1D158049B3246C91AAD
:101340004846079104F05BFA07995B464A460091CC
:10135000284651460196FFF72DFC2146284604F009
:101360001CFA069B237120B1D8F800300133C8F86D
:10137000003032465946504604F041FADDE9042374
:1013800049469B1A28465246CDE900B6FFF712FCA3
:101390002146284604F001FA2368013323604FF008
:1013A0000103237138B1D8F800300133C8F8003098
:1013B00001E00229DDD0013758E700BF04450120D4
:1013C000888C0000605701200122124B12491A60DC
:1013D0004FF0FF33C1F84833C1F8083301F58051AD
:1013E0004A60043100210D4AC2F84833C2F808337C
:1013F000A2F55042C2F80015C2F8083302F5805237
:10140000C2F80015C2F808334FF05022C2F8083372
:10141000704700BF0440015000400150005001508F
:101420002DE9F0430546079810B91060BDE8F08338
:101430000324B0FBF4F404EB4407B84218BF0134B2
:10144000B4F1804F05D34FF0FF3313606FF00B0002
:10145000ECE7A40001348C4200D80DB91460F5E724
:101460002E460024DFF8B4E0BC4231469C4606F12B
:10147000040603F1030329D3844222D201348442B7
:1014800028BF00239CF80060244F38BF9CF801302F
:101490004FEAA60C17F80CC0844281F800C007EB95
:1014A000131C2FBF3D239B0003F03C03FB5C360164
:1014B0008B703D2306F030061CF80660CB704E7032
:1014C000043100204D1B15600870AFE713F803CC02
:1014D00013F8021C4FEAAC091EF809904FEA0C1CE5
:1014E00013F8018C0CF0300C06F8049C0EEB11196B
:1014F00019F80CC0890006F803CC01F03C010EEB92
:10150000981C1CF8011008F03F0806F8021C1EF891
:101510000810033406F8011CA6E700BF458E000042
:101520004FF0000C2DE9F043074665466046079EE4
:10153000DFF82081B5420AD32E4604E00135AE42E1
:101540000EF1010E05D1A8BB1060BDE8F0834FF08D
:10155000000E5C5D202CF1D0AE42F4D0A6EB050964
:10156000B9F1010F15D90D2C13D103EB050999F829
:101570000190B9F10A0F1BD0BEF1000F06D13D2C2E
:1015800009D10CF1010CBCF1020F07D96FF0150065
:10159000DBE70A2CEFE714F0800FF7D118F80440CE
:1015A0007F2CF3D03F2C02D8BCF1000FEED10130DC
:1015B0000135BFE7062500F007046C4304F1070E70
:1015C000C4086C43A4EB0C0404EBDE0487B18C422A
:1015D0000ED80025394603242846DFF878E0DFF8E6
:1015E00078801E449E4207D1C91B00201160ACE7E1
:1015F0006FF00B001460A8E713F8019BA9F10A0C27
:101600005FFA8CFCBCF1160F04D828FA0CFC1CF015
:10161000010FE7D11EF809C00130BCF1400F08BF2F
:10162000013C0CF03F0C04284CEA8515DAD17CB162
:10163000280C012C087002D101310020D2E7022CC5
:101640004FEA1520487016BF8D7002310331F4E760
:101650002046C7E7C58D0000090040000B68013334
:101660000B60014B1B6818470845012007B50B4666
:10167000002102460191034801A900F0EBF803B0F4
:101680005DF804FB5D1600002DE9F84FB0F81890E6
:10169000044619F0080893460DD001290CBF49F003
:1016A000100949F02009A0F818908BF31188BFF3B6
:1016B0006F8FBDE8F88F09F00709022907D120468E
:1016C00004F0CFF90028F0D00128238B50D16769AE
:1016D000218B002F15DA256821F00701C4E9008865
:1016E00041F0010121830026218B01F0070ACA4540
:1016F00002D0A368002B5CD10DB9002E74D000235A
:1017000058E001F007035A1F012A20D821F00701F1
:10171000062B256889B2C4E900880CD1002D2B4620
:1017200038BF00232BB1628B1B6801326283002B10
:10173000F8D141F002012046218304F092F90646D7
:101740000028D1D0238B43F020032383CBE7042B45
:101750000CD121F0070189B22046218304F081F9E0
:1017600005460028BFD041F0200121830025BAE7BB
:10177000032809D1226923F00703166843F0060302
:10178000002523832F46AFE7042806D1226923F0E2
:101790000703566843F00403F2E7052806D12269DF
:1017A00023F00703966843F00503E9E700252E467A
:1017B000E8E7012341F0080121838BF31188BFF38F
:1017C0006F8F03BB002D33D116B120462049B0479F
:1017D0004FF02003EFF3118B83F31188BFF36F8F6A
:1017E000238B23F008032383238BDA0628D50121DA
:1017F00023F010032383B4F8189009F00709002997
:101800007FF45BAF51E7A1680029DBD00B68002BA8
:1018100038BF0023994652463B462046D1F804B0D3
:10182000D847B9F1000FCDD04946D9F80030EEE7DE
:1018300029463B46524620462D6804F02EF9C1E762
:1018400013F020011EBF23F0200302212383D2E7DF
:10185000C75A00002DE9F04F8B464FF0000A8FB0B9
:101860001F46531E00900193019B58785C1C25284D
:1018700022D100204FF0FF36014634464FF00A0EC9
:1018800003F1020C02909CF80020CDF804C0392A24
:101890000CF1010C58D81F2A18D8002A00F0058234
:1018A0005946009B25209847019B59461878009B74
:1018B00098470AF1020AD7E7002800F0F681594656
:1018C000009B98470AF1010A0194CDE7A2F1200399
:1018D000192BE5D801A555F823F000BF45190000E4
:1018E000A1180000A118000045190000A11800006F
:1018F000C5190000A1180000A1180000A1180000DF
:10190000A1180000071A000045190000A1180000E6
:101910001B1A0000D3190000A1180000DF190000F5
:10192000FB190000FB190000FB190000FB19000067
:10193000FB190000FB190000FB190000FB19000057
:10194000FB19000010469EE7582A00F04581A2F1DD
:101950006303DDB2172DA3D8172BA1D801A555F825
:1019600023F000BF351C0000411A0000A118000040
:10197000A1180000A1180000211A0000411A00005F
:10198000A1180000A1180000211A0000A1180000F1
:10199000A1180000A11800007F1B0000A118000082
:1019A000A1180000171C0000A1180000411A000037
:1019B000A1180000A11800007F1B0000A118000062
:1019C000211A000059462520009B98470AF1010A78
:1019D0004AE7029B002603F0FE03029353E7002C24
:1019E0000BDA002E0BDA029B002B00F05A8124EA5E
:1019F000E4740EFB0424303C45E7002EF7DB0EFBBD
:101A00000626303E3FE7002E57F8043B01DB1E461A
:101A100039E71C1EBFF637AF64420223029332E758
:101A2000682A03D1682906D148212CE76C2A02D103
:101A30006C2900F0388100297FF432AF114622E78B
:101A40007A2908D13D4655F8043B98464FEAE37998
:101A5000752A19D111E06C29F4D04C2905D1FD1D4E
:101A600025F00705F5E80289F2E73B68752A9846F4
:101A700007F1040506D14FF00009202878D18D4FD9
:101A8000013C0CE04FEAE379B8F1000F79F1000373
:101A9000F3DAD8F10008884F69EB4909013C0DAB36
:101AA000079300230393039B40460693013B49465B
:101AB00003930A220023FEF745FB079B303203F80D
:101AC000012940460A22494607930023CDE90489AB
:101AD000FEF738FBDDE90423002B08BF0A2A804605
:101AE0008946E0D2069B0EAAC3F1010903EB020866
:101AF000002EA8F1040804DA029B13F0010F18BFAE
:101B00002646A6EB0903002B0393029BD4BFA4EB4C
:101B10000904A41B9A0740F1AE80AAEB070606EB66
:101B2000070A17F8010B002840F0A780039E013E2A
:101B300040F1A780039B4E465A1E0132ACBF1F46A0
:101B40000027013E40F1A28009F1FF320132ACBF13
:101B50004B460023264603EB0709013E40F19C80DB
:101B6000631E0133B8BF0024A1442F46CA447BE65C
:101B70002B280ABF514F524F04F1FF348FE7702AD0
:101B80002AD13D4655F8041B00295DD088464FF008
:101B900000094C4F023C02F06002A2F1390E002213
:101BA0000DF1340C08F00F03092B88BF7344303358
:101BB000B9F1000F0CF8013908BFB8F1100F4FEA66
:101BC000181302F1FF3043EA09734FEA19111ED2CC
:101BD000C2F101090EAB89E76C2906D13D4655F8E3
:101BE000043B4FF00009984606E04C29F6D1FD1D54
:101BF00025F00705F5E80289232806D1314B12F0BC
:101C0000200F314F18BF1F46C4E72D4FC3E70246D0
:101C100098468946C6E73D4655F8048B404604F091
:101C20005CFA002E814602DBB042A8BFB146002616
:101C3000234F66E73D4655F8043B4FF001098DF808
:101C400020300DF12008F2E74FF00509DFF87C8025
:101C5000EDE759462020009B9847013EF9D5621ECA
:101C6000531CACBF21460021C4F10004B8BF0024BE
:101C70008A44144451E72646EFE75946009B9847AB
:101C80004DE75946009B3020984750E7594618F8D1
:101C9000010B009B984754E75946009B202098472A
:101CA0005BE70123BAE64C21EDE550460FB0BDE8F5
:101CB000F08F00BFD8930000858E0000878E000053
:101CC000CC960000898E00008C8E00008F8E000064
:101CD000044608B54FF02002EFF3118382F3118818
:101CE000BFF36F8F04F0BBF8204601F047FA0348BA
:101CF00003F0AAFE00F0CAFFFCE700BF958E0000CB
:101D00004FF02002EFF3118382F31188BFF36F8F3E
:101D10000121044AC2F8401583F31188BFF36F8F85
:101D2000002070470090035020B1034B800143F026
:101D300001031847704700BF40850000094B30B5CC
:101D40001D68094B02461C6800239D4201DC0020EF
:101D500030BD1901615C04EB03109142F8D00133EE
:101D6000F3E700BF388600000C450120084B10B592
:101D70001B680C462BB1FFF7E1FF28B12060002063
:101D800010BD6FF00C00FBE76FF00100F8E700BF3B
:101D90000C45012030B589B00C4615460190FFF77F
:101DA000CDFFB8B14368226802938368C068CDE96B
:101DB00003350023CDE90623059303F00DFF60B141
:101DC000074901AA04F09CFA079808B9059B23600B
:101DD00009B030BD6FF01500FAE76FF01200F7E7B9
:101DE000DD5B000070B504460C250D480E46231A35
:101DF0009A100C4B40215343DBB25D4305F1400385
:101E0000184403F0A1FF011E04DB074B2B445B6861
:101E10009847002120463346BDE87040184700BF70
:101E200078570120B76DDBB6748500002DE9F041CD
:101E30000F4C104D031B9B105D43EBB20C255D4313
:101E4000074605F140000E462044402103F095FF6F
:101E5000011E08DB084B2C44C4E90E36074B5B59C6
:101E6000BDE8F041184738463346BDE8F041184711
:101E700078570120B76DDBB6E35D00007485000084
:101E800070B5002201210446052000F0C5FE0520A2
:101E900000F0A4FE0F4802F0E1F80F4B984215D174
:101EA00004F083FC26690D49304603F029FE002822
:101EB0000BDB012535642469084904F11C0003F09B
:101EC0001FFE002801DB0020E56470BD6FF00400F8
:101ED000FBE700BF151F00000000AD0B8C85000064
:101EE00001460C2300224B43084870B5C418403308
:101EF000D4E90E561844A26303F05DFF2DB13246BB
:101F00002B46BDE870400248184770BD7857012045
:101F1000E845012010B1012804D07047034B1B6C29
:101F20005B0701D1FFF7DCBF704700BF7857012086
:101F300008B54FF02003EFF3118183F31188BFF34D
:101F40006F8F124A136843F0020013F00103106010
:101F50000CD04FF05022D2F80C34D2F80C2413F0ED
:101F6000010303D00A4803F026FF012381F31188FF
:101F7000BFF36F8F23B1BDE808400020FFF7B0BF6B
:101F80000120BDE8084002F079B800BFC857012021
:101F9000B8570120074BD3E8EF2F22F00201C3E826
:101FA000E01F0028F7D1D30702D4012002F098B82F
:101FB000704700BFC85701202DE9F84301220646AB
:101FC0003649D1E8EF3FC1E8E02F0028F9D133B915
:101FD000334934484B60CB608A6003F0A4FD731E24
:101FE000012B32D8012E07D14FF05023D3F81C34E7
:101FF00003F00303022B28D006F016F9044618B9A3
:10200000294B1B78002B41D14FF02003EFF31185B2
:1020100083F31188BFF36F8F0124244FDFF8908082
:10202000DFF890904FF05022D2F81834D2F81824EC
:10203000D2030CD503F00303022B01D0012E06D1ED
:10204000F4B185F31188BFF36F8FBDE8F88328469C
:1020500000F02AFE4FF05022D2F81835DBB2012BE7
:10206000E0D139680029DDD00021396039680221CA
:10207000C2F818152022C8F88021C9F80030D1E72D
:102080004FF050230222C3F80423DEE74FF0502321
:1020900002220546C3F80823BFE700BFCC57012042
:1020A0006857012094570120BE7E01200451005042
:1020B00000E100E008500050F8B5002427460F4E1C
:1020C0000F4B104A18461D6804B1F8BDD2F804132E
:1020D000C903FAD531680029F7D0346031684FF46C
:1020E0008031C2F848130124D2F8401525B10020F0
:1020F0005A681F60A847E3E70560E6E740510150D2
:10210000D45701200050015038B500244FF48033DB
:102110004FF400120D4D0121C5F80845C5F80433F0
:102120000B4B1520C3F88021224600F075FD1520C9
:1021300000F054FD0123074A02201360064A2B6079
:102140001360FFF739FF204638BD00BF0050015033
:1021500000E100E008500150DC570120014803F085
:1021600063B800BF3C860000F7B5264D2868836839
:102170005B6C03B19847286883685B6BA3B9224CFA
:10218000224E286883689B698BB101220DF10701FB
:10219000984701280BD1236893B933684BB945217F
:1021A0001B4803F00CFD02E098470028E7D103B07C
:1021B000F0BD71681A688B42326000D17260236092
:1021C00014499DF807700A880846B2F5007F06D2C8
:1021D000236802F1010C1344A1F800C01F720A2FFA
:1021E000CFD1236802880C495A6000221A604E68D9
:1021F00026B9C1E9003302802260C1E733604B6039
:10220000F9E700BF085C0120E8570120E0570120F2
:10221000EC8E0000F85C0120005C0120044B10B53E
:10222000044618688368E1B25B689847204610BD91
:10223000085C0120F8B506460B4615464FF0200213
:10224000EFF3118C82F31188BFF36F8F194C216863
:1022500049B1194A5068884205D00020086050688A
:1022600098B9C2E90011154A116829B15768086880
:10227000B942106008BF50608CF31188BFF36F8FB4
:10228000216029B900202860F8BD01605160EAE7AB
:1022900048680831F6D05C1E8442A8BF0446304628
:1022A000224603F03DFF0023335501232B60E01845
:1022B000EAE700BFEC570120E0570120005C012055
:1022C00037B500251E4B1F4AC3E900551E4B03F5C9
:1022D00002711360C3F80852196051601B4802F084
:1022E0007DFE1B4C206038B3836823B19B6C13B117
:1022F0002A4618499847206883685B6B83B19847E2
:1023000070B90023144A2068138082681C46926AC0
:1023100082B984F31188BFF36F8F002003B030BD02
:10232000206883689B69002BEBD001220DF1070127
:102330009847E5E79047ECE74FF0FF30EEE700BF46
:10234000005C0120E0570120F05701201B8F0000A6
:10235000085C012069210000F85C012038B5436861
:10236000044698188028154608D80648184403F0F3
:10237000D7FE002062682A44626038BD4FF00040FA
:10238000FBE700BFFA79012040F606132DE9F04182
:10239000DFF81481D2B0D8F80000ADF80C303D4B16
:1023A00081885C680378C4F307220133037000233B
:1023B00042EA042242800A0242EA112243708280E9
:1023C0000821009341F2210203F0F1FA0122324F79
:1023D00003462146ADF810000092384641F2210232
:1023E00003F0E5FA02252D4E40BA3368ADF810002F
:1023F000022103A85B68984704F10A035BBA0DF158
:102400001201022206A8ADF8123003F089FED8F8B6
:10241000001008220DF11A00ADF8125003F080FEF2
:10242000BDF8120006AB083080B222463946ADF83E
:102430001200184403F074FEBDF8120006AB2044ED
:1024400080B22A46ADF8120004A9184403F068FED1
:10245000BDF8123005AA2B449BB2ADF812300093A0
:10246000AD2106AB26A8FEF7DBFF05993368ADF872
:10247000121026A85B6889B29847336829465B68C2
:10248000074898474921074803F099FB52B0BDE837
:10249000F08100BF10450120FA7901200C5C012079
:1024A000318F0000348F0000105C012038B50C4CD7
:1024B0000C4D4FF0FF322146284605F087FE0A49B1
:1024C000204603F001FD00230022204605F05CFEBB
:1024D0002146284605F089FEBDE83840FFF754BF85
:1024E000245C0120145C01203C8F00002DE9FF4199
:1024F0000C681B4F02380D46C4F500710090194B53
:10250000381903AA0131FFF70BF8044628BB2B68E2
:10251000039A1344022B2B601BD93988023B0E020D
:1025200046EA1126B6B29E4213D14FF00108034687
:1025300041F221023146CDF80080B81C03F037FA91
:1025400038B9022E05D92B68023B1F442B60BC70A2
:102550004446204604B0BDE8F0814FF0FF34F8E770
:102560007A7A01207D7C01202DE9F04F072904466D
:10257000B3B060D9057815F0FD055CD14288A1F1B2
:102580000806130243EA12239BB2B34253D3828854
:10259000B74BB8491860130243EA122383802A46D6
:1025A000B5484D6005F0E3FDA388012B40F0ED81B7
:1025B000E3792BB1012B00F09D80FFF777FF3AE024
:1025C0004FF0FF32AD49AC4805F000FEAC49AB48D6
:1025D00003F07AFC4FF0FF32A84808A905F0F3FD9C
:1025E00000260027A74DDFF8C482DFF8C4923146E9
:1025F000002002F06CFF07A9C0B2FFF7B7FB04464A
:1026000058B92023014610AA079803F006FB109B37
:10261000AB4216D0079803F0FFFA002F08BF012E37
:102620000CD108A9954805F0E0FD9449924805F0C1
:10263000DCFDFFF7A9FE33B0BDE8F08F01260027CF
:10264000D5E740230DF1600A019321462046CDE9EC
:102650000344079B0294CDF800A010AAFDF7C2FF27
:102660000028D7D1079803F0D7FA4FF0FF320CA912
:1026700008A805F0ABFD41460CA803F025FC324646
:102680003B460CA805F080FD49460CA803F01CFC55
:102690009DF85410504603F0F5FB4FF02E0B32AB73
:1026A000441C18449DF8551000F868BC0AEB04005F
:1026B00003F0E8FB32AB2044441C1844BDF856102C
:1026C00000F868BC0AEB040003F0DCFB32AB044406
:1026D00023440134169903F868BC0AEB040003F0A4
:1026E000D1FB51460CA803F0EFFB0CA908A805F09C
:1026F0007CFD92E7314618AA04F10800089500F025
:1027000039FA08B9032638E04FF0FF384FF00009D6
:102710002A4628462C4646464F46AB46DDF8C4C0FE
:1027200018AB944552D1002F08BFB6F1FF3FE9D056
:10273000BBF1000FE6D0002102F0C9FE08A9C0B22B
:10274000FFF714FB0028DDD156EA0703DFF848A1A4
:102750000BD1089BCAF800009A680023424573EB2E
:102760000903CFDB484BC3F800800023DAF80010E0
:10277000BB4208BFB1423FD0002632464921434800
:1027800003F01DFA4FF0FF323C493B4805F01EFDB7
:102790003F493A4803F098FB32463848F31705F0B2
:1027A000F3FC4EB93B49354803F08EFB3A4B3348B6
:1027B0001A68334605F0E0FC30492F4805F015FD56
:1027C000FFF7E2FD089803F027FA34E7197C0329A4
:1027D00004D8DFE801F00206090E986801321433CC
:1027E0009FE7D3E902B4F9E7996888464FEAE179AF
:1027F000F4E79E68F717F1E7234B21441A689846DF
:1028000091423FF67FAF089803F083FAB4FBF0F3F0
:1028100003FB1043DAF80000D8F8002001199142B8
:1028200038BFE41A0CA9204428BFDDB2FDF7C0FE72
:10283000064620B14521194803F0C1F99DE7184B20
:102840000C9A19681F468A4234D0492115481A60EB
:1028500003F0B5F9DDE90C12089803F02AFA0646F0
:1028600040B332464521104803F0A9F985E700BF7F
:10287000105C012010450120145C0120245C012023
:102880003F8F00003DB8F396385C01201E90000099
:102890003C8F00002C900000345C0120538F00001E
:1028A000184501207E8F0000A18F0000468F000098
:1028B0004B8F0000DAF8002049213D48A31803F0AF
:1028C0007EF9002D48D0661B2FD033465A46DAF8E1
:1028D0000010089803F0BEF900287FF413AF2C46CF
:1028E000DAF80030B3443344CAF800302A46594677
:1028F00010A803F015FC089803F014FA10AB014679
:10290000C5F10802581903F036FC089DDAF800609A
:10291000284603F0FEF931460346284610AA03F084
:1029200099F900287FF4EEAE01E0002CDED1DAF850
:1029300000301C44D8F80030CAF800409C427FF4B4
:102940001BAF089802F074FE0CA9FDF731FE064695
:1029500040B1452117486FE723465A46DAF8001080
:102960000898DCE70C9A3B689A427FF705AF49214B
:10297000114803F024F9DDE90C12089803F099F9E5
:10298000064600283FF4F9AE6BE7002B7FF453AE08
:10299000E379012B3FF411AE052B7FF44CAEFFF72A
:1029A00085FD064805F046FC0120FFF791F942E657
:1029B000C48F0000E48F00007E8F000090D00300E1
:1029C0002DE9F3411B4F002405463E461A4BDFF824
:1029D0006C8000941860C4F500712B6801AA013165
:1029E000381998470028019B01DC002BF3D00444E0
:1029F0002BB940F201239C42EDD10024EBE7337860
:102A0000062B09D17378092B0BD10023009369465B
:102A1000A01EFFF76BFD04E0042B02D17378142B8A
:102A2000F5D00128E9D1009940460239FFF79CFD15
:102A3000E3E700BF7B7C01200C5C01207C7A012055
:102A40002DE9F041076805460C4617B90020BDE89E
:102A5000F08100231A46D0F8088003F0D4FA88B138
:102A6000D4E900123E4803F04BFB064650B903463A
:102A7000024604F10801284603F08BFA10B12674CF
:102A80000120E4E7002321461A4628462F60C5F8B6
:102A9000088003F0B8FA80B1D4E90012314803F09D
:102AA0002FFB034648B9024604F10801284603F00B
:102AB000AAFA10B101202074C9E7002321461A4662
:102AC00028462F60C5F8088003F09DFA80B1D4E94C
:102AD0000012254803F014FB034648B9024604F1EE
:102AE0000801284603F055FA10B102232374C7E702
:102AF000002321461A4628462F60C5F8088003F0B7
:102B000082FA78B1D4E90012184803F0F9FA0346C2
:102B100040B9024604F10801284603F03AFA08B128
:102B20000323E3E7002321461A4628462F60C5F811
:102B3000088003F068FA002888D0D4E900120C4815
:102B400003F0DEFA0346002880D1024604F10801B2
:102B5000284603F058FA00283FF478AF0423C5E76D
:102B60004C8C000030900000359000002C9000004C
:102B70003990000070B501258CB0099009AE084469
:102B800005230A90144630462A4607A90B9503F000
:102B900045FA002360B11422CDE90143CDE90332A7
:102BA00005212846044B009604F1640203F054FA10
:102BB00000F001000CB070BD412A00001EF0040FAF
:102BC0000CBFEFF30880EFF30980816911F8021C54
:102BD0000229FFD001B503F06CFA01BD43B2002B0E
:102BE00008DB012200F01F0002FA00F0024A5B0934
:102BF00042F82300704700BF00E100E0054B4209A6
:102C000053F82220012300F01F0003FA00F01040C7
:102C1000704700BF00E100E043B2002B01F1010169
:102C2000ACBF03F16043064B4FEA4111C9B2ABBFE1
:102C300003F5614300F00F0083F800131954704747
:102C400014ED00E00446084611461A46002383F3BB
:102C50000B880A4B2025A3F5205686F30B8883F3B7
:102C6000098863B64FF0000383F31188BFF36F8FB9
:102C7000A04785F31188BFF36F8FFEE7C0A6012040
:102C8000014910220A60704710ED00E072B6404022
:102C900080F31188BFF36F8FBFF34F8F30BF62B6E1
:102CA000BFF36F8F704700BF72B6494081F3118840
:102CB00020BF80F3118862B6704700BF37B5054664
:102CC0000C46C9B18B6810480093D1E90023452117
:102CD00002F075FF636945210093D4E903230B4893
:102CE00002F06DFF4521E269094802F068FF4521C5
:102CF000A269084802F063FF2146284603B0BDE8F8
:102D0000304002F097B900BF3D9000007190000084
:102D1000A5900000B990000030BFFFF7FDBF00BFD5
:102D20000B4A08B50B4B22F07F029A60BFF34F8F1E
:102D3000BFF36F8FD3F8882022F47002C3F8882085
:102D400002F0B6F902F00CFA00F060FA02F0D2F9E3
:102D50000000000000ED00E001B5EFF30580A0F1F8
:102D600010004FEAC0000449014409C99847BDE872
:102D700001400249084700009882000079310000B4
:102D8000002080F31488BFF36F8F002080F30A883F
:102D900080F30B8802F011FF00200E490860BFF39A
:102DA0004F8F0D4880F3088800F00AFA202080F346
:102DB00011880A484FF40061401880F30988EFF346
:102DC00014800221084380F31488BFF36F8FFFF74C
:102DD000A7FF000094ED00E0C0A60120C0A60120DE
:102DE000EFF30880EFF3098101B5724600F008F9AE
:102DF00001BD00BF70B5224C06460D462148452155
:102E000002F0DDFEA26AD00603D545211E4802F07D
:102E1000D6FEA36A190703D545211C4802F0CFFE50
:102E2000174CA36A9A0710D54521194802F0C7FE2E
:102E3000626BA36A1B0608D54521164802F0BFFE47
:102E40001EB1A36A23F08003A3620D4CA26AD007CF
:102E500003D54521104802F0B2FEA36A990603D5B6
:102E600045210E4802F0ABFE0020054B9A6AD206BF
:102E700058BF9A6A9A6A42F0FF029A62287070BD3F
:102E800000ED00E0EC900000079100003F91000091
:102E900057910000749100008F910000B3910000E1
:102EA00070B5234C06460D462248452102F087FEA8
:102EB000A26AD10403D545211F4802F080FEA36A0F
:102EC0001A0503D545211D4802F079FE184CA36A66
:102ED0009B0510D51A48452102F071FEA26BA36A2A
:102EE000180408D54521174802F069FE1EB1A36AEF
:102EF00023F40043A3620E4CA36A590503D5452170
:102F0000114802F05CFEA36ADA050BD545210F4893
:102F100002F055FE0020064A936A43F47F43936211
:102F2000287070BDA36A9B04F4D545210848EFE7DB
:102F300000ED00E0E7910000029200003F910000E8
:102F4000189200003692000050920000709200002B
:102F5000B391000038B5214C4521214802F02FFEE5
:102F6000A26A950103D545211E4802F028FEA36AF6
:102F7000DC0103D545211C4802F021FE174DAC6A47
:102F800014F4801404D04521184802F018FE0224DD
:102F9000AB6A180303D54521154802F010FE0F4D0A
:102FA000AA6A510303D54521124802F008FEAB6A14
:102FB0009A0303D54521104802F001FE074DAB6A84
:102FC000DB0303D545210D4802F0F9FDAB6A20462D
:102FD0006FEA03436FEA1343AB6238BD00ED00E0D4
:102FE0008D920000AA920000C2920000E1920000BF
:102FF00010930000339300005D9300007C93000069
:103000002DE9F0434A4B0F46D3F8049000258BB0CE
:10301000C9F3080885F31188BFF36F8F02F07F436F
:10302000B3F17F4F07D102F00C03082B05D14521E6
:10303000404802F0C4FD2F4603E0120701D40746C2
:1030400001250022A8F1030614468DF80720092E59
:103050005BD8DFE806F0054F53335A5A5A5A5A578D
:103060004521354802F0ABFD314B8DF80740DC6A55
:1030700014F0020405D04521304802F0A0FD0024E0
:103080001FE0DB6A5B001CD545212D4802F097FD4F
:103090002C4B1B782BB101200DF10701FFF7AAFE85
:1030A0000EE0294B1B782BB101200DF10701FFF732
:1030B000F7FE05E0254B1B889BB213B1FFF74AFFD3
:1030C00004469DF8073093B92022394602A803F040
:1030D00027F8099B35B3C3F3080222B96FEA5323DB
:1030E0006FEA43230993204602A9FFF7E7FD0BB0DF
:1030F000BDE8F08300200DF10701CFE700200DF1BE
:103100000701D4E745211248B7E7124919F4F87FBF
:10311000114A124808BF0A46A8F11003452102F0DF
:103120004EFDACE723F4FF7323F00103DAE700BFA1
:1031300000ED00E0DA9300000A94000026940000FD
:103140004C94000028ED00E029ED00E02AED00E0BD
:1031500070940000AC930000C193000099940000AB
:10316000044B5A6942F010025A615A6942F4806273
:103170005A61704700ED00E0704700BFBFF34F8F0A
:103180000549064BCA6802F4E0621343CB60BFF303
:103190004F8F00BFFDE700BF00ED00E00400FA051F
:1031A00000231846054A1168C1F307218B4200D15C
:1031B0007047936010610133F8E700BF90ED00E0C5
:1031C00010B572B6002484F31388FFF7E9FF0E4AA6
:1031D000234611464FF0FF3403F120000133102B3A
:1031E00042F82040F8D100234FF0FF3003F1600295
:1031F0000133102B41F82200F8D162B6BFF34F8F94
:10320000BFF36F8F10BD00BF00E100E0002320215D
:103210000348C2180133412B82F80013F9D17047DB
:1032200000E100E00121024B024A034800F00CB922
:1032300000000420004501204486000010B50B6802
:103240000C7A23F01F0204F01F031A43CB686409B1
:1032500023F01F03044943EA440343F00103886059
:10326000CA600B6110BD00BF90ED00E030B54B6847
:103270000C6885B00A898D7A0094013B24F01F0404
:10328000234402F01F0242EA451223F01F030F28D5
:1032900004468DF80820039309D9024645210648C3
:1032A00002F08DFC6FF01504204605B030BD694674
:1032B000FFF7C4FFF8E700BFB59400002DE9F04F19
:1032C0008946144606464FF00008524D85B0C84561
:1032D00023DA7768002F42D01F2F17D9FB0615D1AC
:1032E000D6F800A01AF01F0F10D1504602F0ECFEE5
:1032F000834607EB0A00013802F0E6FE834510D052
:103300006FF0150B5A464521434802E042464521DD
:10331000424802F054FC6FF01504204605B0BDE8A9
:10332000F08F1BF1160FEDD0631E5B45EADBC5F88D
:1033300008B0E968C5F808B02F6921F01F01D6E987
:1033400000321A44994247F01F0702F1FF3A1CD19C
:10335000574508D131465FFA8BF0FFF787FF08F138
:1033600001080C36B3E73146C5F808B0EB6822F027
:103370001F0203F01F031A43EA60E0B2FFF776FF73
:1033800010F1160FC7D0441CE9E7013B5745E0B2E6
:1033900023F01F03C5F808B006D12A69314602F0B0
:1033A0001F0213432B61E9E7296901F01F010B4359
:1033B0002B613146FFF75AFF10F1160FABD0C5F85D
:1033C00008B0EA689DF80830013F62F304038DF805
:1033D00008302B699DF808205B0863F347128DF8CD
:1033E0000820D6E900321344009323F01F033B4426
:1033F000441CA3EB0A0AE0B22AF01F030F28039330
:1034000003D902464521064883E76946FFF716FFC0
:10341000B9E700BF90ED00E008950000E0940000DF
:10342000B59400000522034B5A60BFF34F8FBFF3E2
:103430006F8F704790ED00E0BFF35F8F0022014B6C
:103440005A60704790ED00E010B5034C2278FFF70A
:1034500035FF207010BD00BF7C7E012038B50E4CBA
:103460002568102D14D8FFF7E7FF00200B4B0C4AFE
:103470001A63854205D10B4B1D70FFF7D3FF002067
:1034800038BD616801EB0011FFF7D8FE0130F0E7AD
:103490004FF0FF30F4E700BF5086000090ED00E0F1
:1034A000AAFF44007C7E012000F01F02054800EBCB
:1034B0008200D0F8003223F4403343EA0143C0F8DD
:1034C000003270470025845008B5094B1A786AB954
:1034D00001210D2019700521FFF79EFB0D20FFF73C
:1034E0007DFB4FF00042034BC3F80423002008BDCE
:1034F0007D7E012000D00050F7B50E46416806F0F1
:103500001F05097AB2F5A03F076945EA41150AD1BE
:103510005C4805F01F01803150F82110C80707D51D
:103520006FF0850093E0B2F5005FF96800F09180DC
:103530000121F868B1400143F96001217869B14087
:10354000B2F5A03F0CBF0843884378610020BA69F8
:10355000B3F5C02F0CBF0A438A43BA613A69B3F589
:10356000802F0CBF114322EA0101474A3961D2F88A
:103570000433DBB200F5A27152F82110C1F304212B
:103580008D426BD123FA00F1C90767D5830003F19F
:10359000A04303F55043D3F8101521F00101C3F8FF
:1035A000101501238340C2F80833C0B200F038FE82
:1035B00028460021FFF778FFF868F04010F001007E
:1035C00045D07869F04010F001044ED0BB690DF190
:1035D0000700F340DB0757BF3969032621FA06F6D7
:1035E00006F001065CBFC6F10206F6B200F03AFE34
:1035F000264B984236D100209DF807102D028B00F3
:1036000003F1A04303F55043D3F8102505F4F85512
:1036100022F4473222F44072C3F81025D3F8102563
:1036200015438A0002F1A04202F5514245EA0646DE
:10363000C3F8106510601268D3F8102542F001023B
:10364000C3F810250123104A8B40C2F8043303B09D
:10365000F0BD0120B04021EA00016DE701300828EB
:1036600088D1A5E76FF01200F1E739692846F140EB
:1036700001F00101C1F10301C9B2FFF715FF2046B6
:10368000E5E700BF0025845000D000500000AD0BDE
:10369000284B70B546682848134083423BD00DD86C
:1036A000062B15D005D89BB1022B36D06FF0150034
:1036B00030E0B3F5801FF9D1012309E01F488342B0
:1036C0002DD0B3F5A00F2CD0B3F5800FEED102238F
:1036D000D0064CBF0325C2F3401582F4807412F467
:1036E000007FC2F34020C4F3002406D012F4006F20
:1036F000766818D001228A40B26040EA4402002075
:1037000042EA032301F01F010D4A43EA8503803199
:1037100042F8213070BD0723DAE70423D8E70523F8
:10372000D6E70323D4E7520542BF01228A40F26064
:10373000E3E700BF0600F0000600100002004000B2
:10374000002584502DE9F84F454D2E68002E5BD0A2
:10375000444B4FF00108D3E90520D968024321EA20
:103760000209414A4F464FF0000B924614691B690B
:103770005C4029EA04047FBB2F602B6800230125ED
:103780001F463A48D0F8042305FA03F1114211D03C
:103790009A0002F1A04202F55142116851B103F5BD
:1037A000A27150F821101760C1F3042105FA01F14C
:1037B00012680C430133082BE4D13CBB56B10126FF
:1037C0000027284DEC68D5E905210A4324EA0204C4
:1037D000002C33D1BDE8F88F18EA070F0FD018EA94
:1037E000090F0BF01F0008BF00F180034FF000012C
:1037F00008BF5AF82330FFF757FE27EA08070BF1F6
:10380000010B4FEA4808B6E73446B7E7154B59684D
:103810000029D3D00D68164F002D38BF00258A68C7
:10382000224002D038464B689847002DC6D02B68FE
:103830002946002B38BF00231D46F0E726420CD056
:10384000296907F01F00F94001F00101C1F10301EE
:10385000C9B2FFF729FE24EA060401377600B7E76C
:103860007CD10050405C01200025845000D00050E5
:1038700048460120024B0B6001231360704700BFD4
:10388000605C012000487047C086000010B502F05F
:103890009DFF034C206002F096FF6060002010BD89
:1038A000605C0120F8B50E46144602F08CFF2146FC
:1038B0000546304602F0CDFC3746F8B1B6FBF5F3CD
:1038C00005FB136323B9B4FBF5F005FB104040B1D1
:1038D0002346324645210C4802F071F96FF015007D
:1038E0000BE0A54209D802F06EFF0546384600F00D
:1038F000FBFC641B2F44F9D12046F8BD2346324619
:1039000045210248E8E700BF3F95000063950000AD
:1039100070B50D461946284616461C4602F099FC1D
:1039200040B9094823462A46452102F048F96FF07C
:10393000150070BD34B122462946304602F0F0FB36
:103940000020F6E72046F4E763950000F8B50E4640
:103950001946304617461C4602F07BFC40B9234608
:1039600032464521124802F02AF96FF01500F8BDE1
:1039700044EA060515F0030504D0234632464521E6
:103980000C48F0E78CB12B19032BA6EB050006D8E9
:10399000094AD2F80034DB07FBD50020E7E77B1BA0
:1039A000196800F0BFFC043DEDE72046DFE700BFEB
:1039B000639500008595000000900350F0B54B79A9
:1039C000012B2AD0032B25D110268B79032B21D153
:1039D000CC792CB1012C1DD143685B689B0719D0B1
:1039E0000A7912B1022A15D10E220B684568B3F587
:1039F000164F2D6865D02DD8B3F5165F64D016D854
:103A0000B3F5966F62D00AD8B3F5967F61D0B3F55F
:103A1000167F61D06FF0850052E00026D5E7B3F540
:103A2000166F5CD0B3F5965FF4D1374B3CE0B3F53D
:103A3000E14F57D007D8B3F5615F55D0B3F5964F36
:103A4000E8D1324B30E047F61227BB42E2D14FF4C7
:103A5000000329E0B3F5613F48D013D8B3F5963F92
:103A600047D009D84DF6C027BB4244D0B3F5614FCB
:103A7000D0D14FF46B0317E0B3F5E13FCAD14FF05B
:103A8000EB7311E0B3F5612F38D008D8204FBB425B
:103A900037D0B3F5E12FBDD14FF0E86304E01D4FFF
:103AA000BB42B7D14FF08053C5F824350369344386
:103AB0002243043303C9C5F86C2583E803000020C2
:103AC000F0BD4FF41D03EFE7134BEDE74FF49E23DA
:103AD000EAE74FF4A033E7E74FF41C33E4E74FF491
:103AE0001D23E1E70D4BDFE70D4BDDE74FF06C7376
:103AF000DAE70C4BD8E74FF46503D5E74FF0706376
:103B0000D2E74FF08063CFE700B0130000A04E0073
:103B100090D0030040420F000050270000C0750005
:103B200000F03A0000903A01F8B505460F460669E4
:103B300004F07AFB10B91E4B1B78A3B94FF0200399
:103B4000EFF3118483F31188BFF36F8F284602F0DF
:103B500070FC00BB84F31188BFF36F8FEEE784F332
:103B60001188BFF36F8F6424284602F062FC28B9E5
:103B7000012002F018FE013CF6D1F4E74FF02003DB
:103B8000EFF3118483F31188BFF36F8F284602F09F
:103B900050FC0028E3D031460122284601F8147F6A
:103BA00002F0DAFC84F31188BFF36F8FF8BD00BF19
:103BB000BE7E012043682DE9F0411C6800230669A0
:103BC0000F46C4F800350546306008680121444BB3
:103BD00000F01F02914099600321803243F82210C7
:103BE0007A68511C1FBF4FF00C0C02F01F0180318E
:103BF00043F821C0B968C4F80C05481C18BF0C2054
:103C0000C4F814251EBF01F01F02803243F82200C1
:103C1000F868421C0CD04FF0010C00F01F020CFAA7
:103C200002FCC3F808C04FF0030C803243F822C0F6
:103C3000C4F80805C4F81015296928460431FFF7AF
:103C4000BDFE804680B96B685B6819071CD506F11C
:103C5000160000F0BBFA234B984208D045212248B9
:103C600001F0ADFF6FF004084046BDE8F081B37D80
:103C700043F00043C4F8A031C4F88C300123B27D76
:103C800093401A4AC2F804350823C4F800357B680B
:103C900001330CD00023C4F81031D4F8103106F1F0
:103CA0001503C4F834350123C4F8383523606B6834
:103CB00014365B681A075CBF4FF48072C4F80423A3
:103CC000DB0644BF4FF48003C4F804330023C4F878
:103CD0004465C4F848350123A360E360C4E700BF2E
:103CE000002584500000AD0BB2950000007001501B
:103CF00030B585B06C460546084B0FCB84E80F0005
:103D0000002201210820FEF787FF0820FEF766FF4A
:103D100021462846FFF74EFF05B030BD2085000044
:103D200030B585B06C460546084B0FCB84E80F00D4
:103D3000002201210920FEF76FFF0920FEF74EFF48
:103D400021462846FFF736FF05B030BD308500001C
:103D50000348452108B501F032FF0020FFF70EFAB5
:103D6000ED950000816808B5044A1023103901F070
:103D700071FF003818BF012008BD00BF2487000074
:103D800030B50C46816887B0102302AA1039054669
:103D900001F043FF002811DB1022284602A902F09F
:103DA00059FC68B103232370A968012328460DF14B
:103DB0000702283901F031FF00280BDA01202AE040
:103DC0001022164902A802F09BF9002814BF022312
:103DD0000123E8E79DF80730284603F00F021B098E
:103DE0006270237101220DF1070102F033FC10B95A
:103DF0006378042B03D90123637000232371AA681D
:103E00002846203AA11C02F04DFC0028D6D12846B5
:103E1000E11C02F0A0FC07B030BD00BF2487000009
:103E20002DE9F04385B06946022002F098FC18B1F4
:103E3000FF2005B0BDE8F083062002A902F08FFC48
:103E400002460028F4D19DF800509DF808609DF8C6
:103E500003709DF80B809DF802901E4C2946207837
:103E600002F00CFC00B33146607802F007FCD8B1D8
:103E7000A378042B01D0BB4216D1E378042B01D0E8
:103E8000434511D12379042B0CD16379022B16D130
:103E9000114A1248492101F092FE6079831E022BDB
:103EA000C7D9C5E74B45F0D00132032A04F1060417
:103EB000D4D10B48492101F082FE0120B9E7032B40
:103EC00005D0084A0849042B18BF0A46E1E7074A0B
:103ED000DFE700BF5A9600001696000032960000F9
:103EE000459600000F960000209600001B960000EB
:103EF000054B1868043B1B68092B03D1431E58422D
:103F000058417047002070473401FF0008B5474B07
:103F10001B68092B01BF4FF050230022C3F8142166
:103F2000C3F81821FFF7E4FF30B10123404A1360C2
:103F3000A2F63822C2F878353C4B1B68092B07D112
:103F40003C4B1B68012B1EBF01223B4BC3F878255D
:103F5000FFF7CEFF10B10E22384B1A60334B1B68AF
:103F6000092B04D10022364B1A6001225A6000222C
:103F7000D30003F57F03D3F80013013108D0D3F841
:103F800000130132D3F80433B2F5807F0B60EFD118
:103F90002C4BDA69D1073BD52B4B1946D3F80024BB
:103FA000012AFBD1C3F80425D1F80034012BFBD141
:103FB000244BDA69D20708D5DA69234922F00102D5
:103FC000DA61D1F80024012AFBD11A6A01320AD140
:103FD0001A6A22F0FF0242F020021A621A4AD2F84C
:103FE0000034012BFBD10022174BC3F80425D3F872
:103FF0000024012AFBD1BFF34F8F1449144BCA6828
:1040000002F4E0621343CB60BFF34F8F00BFFDE7C4
:104010001B6A0133C0D00D4AD2F88C3043F44063A0
:10402000C2F88C300B4B0C4A1A6008BD3001FF00FF
:10403000384A00503401FF0000400050E4AE035005
:104040000C4700500080FF000090035000ED00E09E
:104050000400FA05744501200090D003044B1A793E
:1040600022B9012218601A7102487047024870474D
:10407000705C01200000AD0B0C00AD0B10B10128ED
:1040800020D070474FF05022D2F81834D2F81814CC
:10409000C90311D503F00303022B0DD1C2F8183563
:1040A00000220D4B1A601B6802224FF05023C3F808
:1040B000042301229A6070474FF050230122C3F875
:1040C0001825EDE70022054B1A601B684FF05023BE
:1040D000C3F80403186070470451005000510050A9
:1040E00038B510B1012818D038BD4FF05023022246
:1040F000012142F210751C46C3F80823154A1060CE
:104100001268154A1160D4F81834DB03ECD501208D
:1041100002F049FB013DF6D1E6E74FF050240022C2
:1041200042F210750D4BC4F808031A601B680C4B63
:104130001860D4F80C34D4F80C2403F00103D20333
:10414000D2D5002BD0D0012002F02DFB013DF0D1C3
:10415000CAE700BF045100500C50005000510050FD
:1041600004500050164B10B51A6852B10020186068
:104170001B6801224FF05023C3F80823114B1B6822
:104180009847114B1A688AB100221A601B684FF0D9
:104190005023D3F81824D3F8181402F00302012A8C
:1041A0004FF0020103D1C3F818159A6010BDC3F88F
:1041B0000813044B0120BDE810401B68184700BFDE
:1041C00000510050705C012004510050F0B54FF0D8
:1041D0002003EFF3118783F31188BFF36F8F0D4A2C
:1041E0001668F14389B291B10025ECB221FA04F3CB
:1041F000DB0705F10105F8D50123A3403343047023
:104200000548136087F31188BFF36F8FF0BD034833
:10421000F8E700BF785C01200000AD0B0200AD0B99
:10422000012303FA00F010F0FF0F12D04FF020032B
:10423000EFF3118183F31188BFF36F8F064AD36CBC
:1042400023EA0000D06481F31188BFF36F8F034825
:1042500070470348704700BF7C5C01200000AD0B35
:104260000400AD0B2DE9F041FF2200240126054694
:10427000DFF858E01448DFF85880E3B24FF020012F
:10428000EFF3118C81F31188BFF36F8F22FA03F1E2
:10429000C9070AD5DEF84C1006FA03F7394201BF08
:1042A00040463943CEF84C102B708CF31188BFF385
:1042B0006F8F404505D006FA03F39A4304F10104D9
:1042C000DBD1BDE8F08100BF0200AD0B7C5C0120BA
:1042D0000000AD0B0022034BC3F88425C3F804256E
:1042E000704700BF0090035008B5C0F30B0383B9BB
:1042F0000222094BC3F88425C3F804254FF0FF328E
:104300000260D3F80024D207FBD5FFF7E3FF034890
:1043100008BD0348FCE700BF009003500000AD0B50
:104320000A00AD0B0122074BC3F88425C3F804250E
:10433000D3F80824D207FBD50160BFF35F8FFFF7E6
:10434000C9BF00BF0090035001680E4A0346914266
:1043500015D1C169A2F11022A2F1EF1291420ED142
:104360008268012A0BD8C26812B101698A4206D05C
:10437000586928B19B691B1A58425841704701205F
:10438000704700BF55AA00FF0D4B70B59E68A6B1DF
:104390003046FFF7D9FF044678B9F3686BB9356941
:1043A0000DB9204670BD2846FFF7CEFF28B9EB684F
:1043B000B34202D12E462D69F2E70124F1E700BF96
:1043C000CC5C01202DE9F843404D2C68D4B1AC6899
:1043D000C4B100284DD000294BD001FB00F6B6FB3C
:1043E000F0F0884245D1301D43D8B1070DD026F0FA
:1043F00003070437EC6803E06368BB423BD2A4695F
:10440000002CF9D12046BDE8F8833746F2E7E86092
:1044100044E007F1200C04EB0C0320395960002123
:10442000DFF8B0E0C3E902142169196144F80CE037
:10443000DFF8A4C0C3F81CC001B1CB60C3E90520FC
:10444000AAB193619A6902B15361236100234FF0CD
:104450000109C4E905332B69C4E90179DB072DD5CE
:10446000FFF792FF50B31A4B48461B6825E0EB60FC
:10447000E8E70024C6E7A3681BB1154B01201B68C1
:104480009847D4E90520616804F12008C91B232955
:10449000BFD80123A360002AB9D09061A36903B1FA
:1044A0005A610023C4E905332B69DA0706D5FFF703
:1044B0006BFF18B10120064B1B689847324600215C
:1044C0004046444601F057FE9CE700BFCC5C01200B
:1044D0007C45012055AA00FF669911EE2DE9F041B7
:1044E000054600287CD03F4E3368002B78D0B26858
:1044F000002A75D0834203D872681344984203D3CC
:10450000394B01201B689847A5F120042046FFF78E
:104510001BFF18B1344B01201B68984755F8183C15
:10452000012B03D0304B01201B689847002355F81E
:10453000147C45F8183CAFB1BA6892B955F81C3CE8
:1045400003F120027B6813447B6055F8103C3B610B
:1045500003B1DF6020462022002101F00CFE23463B
:104560003C461F462069002832D08368002B2FD19B
:10457000636842682033134463600369D4E905210A
:104580002361DAB901BB426981696261A161EAB163
:104590009461A26902B1546103B1DC602022002160
:1045A00001F0E9FD33699B071AD5FFF7EDFEB8B1BD
:1045B000BDE8F0410C4B01201B6818479161A169CF
:1045C0000029E0D04A61DEE7F160F8E7F460E0E757
:1045D000002FE7D1F368A36103B15C61F460E1E708
:1045E000BDE8F081CC5C01207C45012038B50D464A
:1045F000142200210446124801F0BDFD1149124861
:1046000000F032F8232D1AD914F003031FBF043D24
:10461000ED18C3F10403E4182A460021204601F0F6
:10462000AAFD074B094AC3E900459C602260A2F13C
:104630001022203DA2F1EF126560E261DC6038BD1E
:10464000CC5C0120DD440000C543000055AA00FFFA
:10465000014B1B68184700BF78450120014B1B68C0
:10466000184700BF80450120024B1860024B002014
:104670001960704778450120804501200A4619B12C
:10468000024B00211B681847704700BF844501207A
:10469000F8B500F108064768044630460D4602F0BA
:1046A000E1FC874216D16368B3F5807F12D8002100
:1046B000304602F04EFE00280CDD0021304602F0AC
:1046C000A4FC38B145B9002104F1140002F041FE08
:1046D00000281EDC1B481EE004F12C060021304699
:1046E00002F037FE0028F5DD0021304602F08DFC97
:1046F0000028EFD004F138060021304602F029FEF0
:104700000028E7DD0021304602F07FFC0028DAD1E6
:10471000E0E70DB90020F8BD002104F1440002F0EB
:1047200018FE0028D6DD002104F1500002F011FE31
:104730000028CFDD002104F15C0002F00AFE002811
:10474000E8DCC7E780BFFFFF70B500210446FFF734
:104750009FFF0546B8B904F10806304602F066FC32
:104760007F2810D914342946204602F04EFC50B15F
:10477000204602F05BFC012805D93146204602F0B4
:10478000A5FD002800DB014D284670BD00BEFFFFDF
:10479000F0B50C4687B0002105461646FFF778FFB6
:1047A00080BB03A802F0ABFB21466A6803A802F0B5
:1047B0005FFC0446D0B905F10804214603A802F0C5
:1047C00085FD00281BDA05F1680303A9009308465C
:1047D000234605F114026F6803F005F9044628B971
:1047E0003A46314603A802F07BFC044603A802F0D7
:1047F0008CFB0CB1A4F58544204607B0F0BD6FF0EA
:104800000304F3E7004CF7E780BFFFFF0023C0E994
:104810000033C1B9194A1A4BDFF88CC0C0E9022332
:10482000184B194AC0E904C3184BC0E90623184BBA
:10483000036203F17453A3F52303A3F69243436287
:10484000816600207047134B134ADFF860C0C0E94F
:10485000022303F1794303F5740303F50163036154
:104860000E4BC0E905C303F1D14303F5C01303F5B3
:104870001E63C3610A4B03620A4BE0E767E6096AFD
:1048800085AE67BB3AF54FA57F520E518C68059BEC
:10489000ABD9831F07D57C36D89E05C1310BC0FF2D
:1048A000A78FF964A44FFABE72F36E3C39590EF724
:1048B0002DE9F04F00F10803D3B004934AAB059300
:1048C00000F128030693DDE9043253F8040B42F8A3
:1048D000040B06989842F8D10AAA01F140004B78DF
:1048E0000C781B0443EA0463CC780431234311F8A9
:1048F000024C884243EA042342F8043BEFD1A44827
:104900000DF1200BDE46DDE94A728146509BDDF851
:1049100044C1DDF838A14F9E01900093DDE94C3190
:10492000DEF80840D9F800004FEAFA2585EABA1502
:10493000204485EA7A6505440098009C704000EAAE
:104940000A006040054447EA02044FEA7730AC446D
:1049500080EAB70007EA02051C4080EAB7502C4302
:104960000444D9F80450DEF80C0061440544009872
:10497000A4448AEA060405440C404FEAF12074403E
:1049800080EAB110254480EA716028444CEA0704AB
:104990004FEA7C350CEA070885EABC05144044EA76
:1049A000080485EABC55254405440344D9F8084069
:1049B000DEF810000EF1200E0444264481EA0A04B9
:1049C0001C4084EA0A0806EB08044FEAF32686EA4C
:1049D000B31686EA736626444CEA05004FEA75343E
:1049E0000CEA050884EAB504384040EA080084EA85
:1049F000B554044434443244D9F80C005EF80C6CCD
:104A000009F120093044824481EA0300104080EA21
:104A100001080AEB08004FEAF22A8AEAB21A8AEA87
:104A2000726A824445EA04064FEA74300AEB0708CA
:104A300080EAB40005EA040706EA0C063E4380EA71
:104A4000B4505EF8087C304459F8106C50443E4431
:104A500083EA020A31440AEA080A4FEAF8268AEA97
:104A6000030A86EAB816514486EA78660E4444EA98
:104A700000074FEA703104EA000A81EAB0012F40D2
:104A800047EA0A0781EAB05139443144B4445EF838
:104A9000047C59F80C6C82EA080A3E4433440AEA62
:104AA0000C0A4FEAFC268AEA020A86EABC1653443C
:104AB00086EA7C661E44AB19009340EA01054FEA82
:104AC000713300EA0107254083EAB1033D4383EADD
:104AD000B1532B44334459F8085CDEF80060354488
:104AE000009E154488EA0C02324082EA0807EA195F
:104AF0004FEAF62585EAB61585EA76651544661906
:104B00004FEA733241EA0304044001EA030782EAF0
:104B1000B3023C4382EAB35222442A4459F8044C7B
:104B2000DEF804502C44A044009C4FEA72358CEA15
:104B30000404344084EA0C0708EB07044FEAF62823
:104B400088EAB61888EA766885EAB20543EA020779
:104B500044440F4085EAB25803EA02053D4300EBA6
:104B6000040A18A84544704504EB05077FF4D8AE45
:104B70000098CDE94A72CDE94C31CDE90845CDE93F
:104B80004F6038A8CDF844C1CDF838A1079001E0B6
:104B900034870000DBF84000DBF80C504FEAF04EA1
:104BA0008EEA704EDBF808408EEA902EDBF82C007F
:104BB0004FEAB548204488EAF5184FEAFA2488EA13
:104BC000D50884EABA1486440EEB080084EA7A6EAB
:104BD000009C03907440009804EA0A044440019841
:104BE0007444006C8AEA060E2044039C0BF1200BEF
:104BF0002044844401EB0C0847EA02004FEA773175
:104C0000CBF8284081EAB70107EA0204184081EA9C
:104C1000B75120430844DBF8241084444FEAF140A4
:104C200080EA71405BF8104C80EA9120DBF81010AC
:104C30000EEA080E29444FEAB445014485EAF4150A
:104C4000019885EAD4052944406C009D8EEA060E41
:104C500028444FEAF825084485EAB81585EA7865BE
:104C6000864405EB0E00034400934FEA7C3547EA87
:104C70000C0307EA0C0E85EABC05134043EA0E0359
:104C800085EABC551D44039B05444FEAF34080EA86
:104C9000734080EA9320DBF814305BF80CEC23447B
:104CA000034400988AEA080909EA000901984FEAD2
:104CB000BE44806C84EAFE1484EADE04234430445B
:104CC000184489EA0A09814400984FEA75364FEA88
:104CD000F02484EAB01484EA706404EB090002440E
:104CE0004CEA0504029286EAB5060CEA05023C404D
:104CF00086EAB5561443344404444FEAF14080EA4E
:104D00007140CBF82C1080EA9121DBF818005BF899
:104D1000082C864471444FEAB24E8EEAF21E8EEAA7
:104D2000D20E8E440099029888EA0101CBF8303007
:104D30000140019881EA0801C66C02985644764405
:104D40003144029E4FEAF02080EAB61080EA766095
:104D5000461845EA040005EA04014FEA743A00EAFD
:104D60000C008AEAB40A08434FEAF3418AEAB45ACB
:104D700081EA7341504481EA9323DBF81C103044EC
:104D800007EB06095BF8046C0A4413444FEAB64289
:104D900082EAF61282EAD6021A440299009BCBF804
:104DA00034E083EA010707EA09075F40019B4FEA05
:104DB000F9211B6D81EAB911134443441F4481EA70
:104DC0007961CB1944EA00074FEA703104EA000820
:104DD00081EAB0012F4047EA080781EAB05139441F
:104DE00019449C44DBF80080DBF820304FEAFE4792
:104DF00087EA7E4787EA9E2E9F194FEAB84383EAE7
:104E0000F81383EAD80377441F44029B009E83EA89
:104E1000090E0EEA0C0E8EEA030E019BCBF8382029
:104E20005B6DCBF83C703B4433449E444FEAFC231B
:104E300083EABC1383EA7C6303EB0E06AB19009391
:104E400040EA01054FEA713300EA010E254083EA8A
:104E5000B10345EA0E0583EAB1532B443344DBF832
:104E600024504FEAF246DBF804E086EA724686EA0E
:104E7000922205EB080616444FEABE4282EAFE1271
:104E800082EADE021644009A89EA0C0808EA02085F
:104E9000019ACBF84060956D029A35441544009A0A
:104EA000009E4FEAF22288EA090882EAB61282EAF4
:104EB00076624544154466194FEA733241EA0304A9
:104EC000044082EAB30201EA030844EA080482EAE1
:104ED000B35222444FEAF74484EA77442A4484EAEE
:104EE0009727DBF80850039CA6444FEAB54484EAB0
:104EF000F51484EAD505009C77448CEA040E019CE5
:104F00003D44E76D0EEA060E2F444FEAF6248EEA82
:104F10000C0E4F4484EAB614774484EA76643C4429
:104F200000EB040A0198CBF844504FEA723585EA49
:104F3000B205203043EA020785EAB25E0F4003EA79
:104F40000205019007983D437544584504EB050759
:104F50007FF420AE0098CDE94A72CDE94F60CDE9EB
:104F60004C31CDE90845CDF844C1CDF838A1049BBA
:104F700005991B6851F8042B1344049A059142F8D3
:104F8000043B069B04929342F1D108A84FF494711C
:104F9000FFF774FB002053B0BDE8F08F0E4B70B5E7
:104FA00053F82040013053F82060A64200D870BD6D
:104FB000D4E900352846984765B1EB6830B1002840
:104FC000B8BF4042FF28A8BFFF2018705A7842F0AF
:104FD00001025A700834E8E73488000070B50546CD
:104FE00010B90024204670BD0378002BF9D00F4A79
:104FF0000F4C1646944208D10D4CB442F1D02046D5
:1050000003F009F950B91834F7E7204603F003F923
:1050100010B12368AB42E5D01834EBE7284621688D
:1050200001F062F80028EED1DCE700BF78460120ED
:10503000E845012073B504460D464FF02003EFF319
:10504000118683F31188BFF36F8F0022042896BF67
:10505000114B124B53F82030009245210246104864
:1050600000F0ADFD3DB1EB69C3F308031BB1452171
:105070000C4800F0A4FD00220B4B45210B4800F02A
:105080009EFD29462046FEF763FE86F31188BFF396
:105090006F8F02B070BD00BF488800006C960000A2
:1050A0007A960000A7960000CD960000D5960000E5
:1050B0000248034A0021121A01F05DB87846012027
:1050C000C07E0120012208B5084B02201A70FFF7AC
:1050D00065FF03F0B3F80320FFF760FFFBF7B0F9BB
:1050E000034A137B23F00103137308BDBE7E012026
:1050F0007846012008B5174B03F5006282F3088853
:1051000083F30A880025E023134C84F82230E577E6
:1051100025766576A576636A43F4E0236362FEF73D
:105120001FF8FDF7ADFD4FF0FF33A362E362FEF71A
:1051300095F9FEF777F803F06DF82846FFF72EFF94
:105140000120FFF72BFF2B462A4629460348FDF78F
:1051500079FD00BFC0A6012000ED00E0C5500000B1
:1051600008B50648064A0749121A00F0D9FFBDE8FB
:105170000840054A0549064800F0D2BF0045012015
:10518000784601205897000000000000409700007A
:105190000045012010B50A4C23681BB101230020F3
:1051A000236010BD00F048F80028F7D00138062829
:1051B00003D8044B53F8200010BD034810BD00BFB6
:1051C000E05C01205C880000FE8FFFFFBFF34F8F83
:1051D0000549064BCA6802F4E0621343CB60BFF393
:1051E0004F8F00BFFDE700BF00ED00E00400FA05AF
:1051F0004FF0FE33002130B4064A074D074C2B60B8
:1052000013602360064A074CEB606368C2F8001520
:1052100030BC18470414845000148450081484507F
:105220000000845088450120024BD0E90012C3E9F8
:10523000001270478845012010B500F033F820B106
:10524000032400F067F8204610BD00F035F890B94F
:1052500000F0B0F890B90F4B1B681B0EF02B08D173
:105260000D4A0E4B12689A420AD0072400F01CF82F
:10527000E7E70624FAE70424204610BD0024F5E7FA
:10528000012000F097F804460028F7D1044B18607D
:10529000D9E700BF28198450241A84500000E02068
:1052A0000C1A84500020704700207047014B186092
:1052B000704700BF041A845010B5114800F048F838
:1052C00000B110BD0F4800F043F80028F9D10E4C92
:1052D000204600F03DF80028F3D10C4B0C481C6030
:1052E00000F036F801460028EBD100F02DF8044616
:1052F00008B1204610BD00F03FF82046FAE700BF95
:105300009C4501209045012098450120A0450120A1
:105310009445012008B5084800F024F8074800F03B
:1053200021F8074800F01EF8064800F01BF8BDE819
:10533000084000F00BB800BF9C45012090450120BB
:10534000984501209445012000207047704700BF18
:1053500008B5034B02681B6810689847002008BD19
:10536000AC45012008B5034B02685B68106898479C
:10537000002008BDAC45012070B5094C094D2069DD
:10538000AB68984718B1084B08485B6898470021FC
:10539000074AEB6811602069BDE87040184700BFFC
:1053A000BC450120AC4501208845012078880000DB
:1053B000E45C012070B51A4D1A4E0446B2682869A3
:1053C0009047F0B95CB1184C2368ABB1012B1AD0EF
:1053D000013B23602869F3689847002070BD124C98
:1053E000216839B90120114B114AC3F8000513682F
:1053F000002BFCD101312160F36828699847002017
:1054000070BD0C4870BD0A4A1368002BFCD1074AD6
:105410006FF07E40C2F80035FFF748FF2368D7E7FA
:10542000BC450120AC450120E45C01200000845013
:1054300010198450E98FFFFF48B143682BB1BFF3C7
:105440005F8F0023036018467047024870476FF46F
:10545000E0407047EA8FFFFF10B5044628B163684B
:1054600013B100232360636010BD024B02485B68E8
:105470009847F4E7884501209888000010B5044655
:1054800030B100226368226043F00103636010BD05
:105490000148FFF7ADFEF4E7C088000080B1436823
:1054A00063B10122D0E8EF3FC0E8E12F0029F9D134
:1054B000012BF7D0BFF35F8F002070470248704781
:1054C0006FF4E040704700BFEA8FFFFF704729B1DB
:1054D000012914BF6FF015000620704702207047A5
:1054E0002DE9F7430E4617469946044628B94FF072
:1054F000FF38404603B0BDE8F0830029F7D0002A0A
:10550000F5D0CB680D8938461D44042329460DEBA0
:10551000030200F082FB80460028E8D146F608121C
:10552000BDF804107389914223D1BDF80610994249
:10553000DDD1042338460DEB0302294400F06DFB56
:105540000028D4D146F60713BDF804209A42CED1E4
:105550009DF82830BDF80620A3727389C4E900675E
:105560002B44E36004351344A4F80890636125617B
:10557000BFE7002BE6D0BAE72DE9F7430F46904688
:105580001E46044620B94FF0FF3003B0BDE8F0835B
:105590000368002BF7D04368002BF4D04FF6FF7957
:1055A000D4E904239A4216D223685B8923B1E368C5
:1055B000934204BF043323610423216960680DEB27
:1055C000030200F02AFB0028DDD1A37A256923B16C
:1055D000E368AB4201D80120D7E72189BDF8063046
:1055E000494503F1040203D0BDF804C08C450BD13A
:1055F00016B1BDF80410318004353D60A8F80030C4
:10560000236913442361C0E715442561C8E700F00E
:1056100077BD4FF440735843303070470B7803F038
:10562000FB03022B14BF4FF0FF304FF44070704764
:1056300010B5044600F06DFB4FF44072A368303B98
:1056400002FB103010BD81680122203901F074B8CE
:1056500013B50446019101F00EF80423A0F10801EE
:105660000DEB0302204601F03AF802B010BDF7B589
:10567000054600200C461746FFF729FF6946C0B2D1
:10568000FCF774FB30B10125009800F0C5FA2846FC
:1056900003B0F0BD2C2101FB04542189E36800987C
:1056A000CE18042331460DEB030200F0B6FA05468E
:1056B0000028E8D146F60813BDF8042064899A4210
:1056C0001AD1BDF806309C4201D00325DCE7042343
:1056D00000980DEB0302A11900F09FFA0028D2D127
:1056E00046F60713BDF804209A42EED1BDF8061025
:1056F000214431443960C7E7002CF1D0E5E7F8B523
:1057000013460F461646002102460546FBF7C2FB2C
:10571000044650B933460121284605F12C02FBF717
:10572000B9FB10B1002F18BF04462046F8BD37B5AD
:105730004FF480750446426A01A902200195FCF7E6
:1057400029FB48B9019B0620226DA36201A901959E
:10575000FCF720FB054608B1012505E0019B206A06
:10576000636500F0D6FAE065284603B030BD01233A
:10577000036003F1012343600023C0E90233704753
:105780004379012B07D10368012B04D10079431E13
:10579000584258417047002070477FB506460D4675
:1057A000022001A9FCF7E2FA38BB0198FFF740FF9D
:1057B000F16D0446284600F0E4F80444019800F036
:1057C000A8FA0646019800F0ADFA082201460DEB52
:1057D000020000F0D0FC2B7921468DF808300198AA
:1057E000334602AA00F036FA041E18BF01240198BD
:1057F00000F012FA204604B070BD0124F7E700F073
:1058000058BA2DE9F8430E46002107460846FFF72F
:105810005EFE044601210020FFF759FE33789C42CA
:1058200021D0984221D101242C2303FB0474F86D6C
:10583000A56AFFF7EEFE4FF000080746013D636AD8
:10584000304603EBC50253F83510D2F804901B68BC
:105850004A46C91AC844FFF7D2FFB84505F1FF35DB
:10586000EDD3BDE8F8830024DEE70120F9E737B582
:1058700015460C460620694600F071FFE9790129BA
:1058800003D00022204600F07EFF9DF80330012B5C
:1058900002D1204600F05AFFA9682046FFF7D8FE43
:1058A0002046FEF75FFA002003B030BD73B50D4609
:1058B0000646FBF7DBFB0446E86030B102282ED138
:1058C00001A9FCF753FA18B10124204602B070BDBB
:1058D0002A4631460198FBF72BFB0446D8B90198BC
:1058E00000F0C9FE012301460DF10302019800F00A
:1058F00094F904460028E7D1012201980DF1030133
:1059000000F0CAFE10B101238DF803309DF803307A
:1059100003F00F03EB71019800F07EF9D5E707243F
:10592000D3E713B5022001A9FCF720FA48B9019882
:10593000FFF789FE0446019800F06EF9204602B098
:1059400010BD0124FAE71FB5022001A9FCF70EFAE9
:10595000A8B9019802A9FEF713FA044668B99DF8A0
:105960000B30032B03D1019800F0F0FE04460198A0
:1059700000F052F9204604B010BD0124F7E70124DD
:10598000F8E730B543790468012B0ABF01220222EF
:10599000002501FB02F204F1FF3402FB04F203795B
:1059A00018BF0D02013B01FB0321481930BD2DE951
:1059B000F0419DF818400546002C14BF0224002435
:1059C00018464FF0800C002367189F421AD8BDE894
:1059D000F081204644008B42A4B208D295F80080A2
:1059E0002CFA06FE18EA0E0F18BF44F0010400045A
:1059F00006F1010648BF5440082EEAD12046013383
:105A00000135E2E70026E5E7034658B1426802F0B7
:105A10000302012A03D0032A04D1026812B1002034
:105A2000986070476FF0150070474268034602F0B7
:105A30000302032A4FF00002816014BF1046006881
:105A40005A607047002070470FB407B504A951F899
:105A5000040B0191FBF70AFE03B05DF804EB04B000
:105A60007047038B13F0070305D10368002B0CBFAD
:105A7000002003207047022B05D1438B002B14BF5D
:105A8000002004207047012B05D10368002B0CBFB8
:105A9000002005207047002070472DE9F0410D4699
:105AA00007461946281D90461E46FFF7BEFF0446CE
:105AB00038B13346424629463846A446BDE8F0414F
:105AC0006047BDE8F08110B44FF02004EFF311827D
:105AD00084F31188BFF36F8F416110BC0121FBF784
