:020000040000FA
:10000000786D0020352D000049620000212D000090
:10001000212D0000212D0000212D0000212D0000A8
:10002000000000000000000000000000FD2D0000A6
:10003000212D000000000000212D0000212D0000D6
:10004000752F0000752F0000752F0000752F000020
:10005000752F0000752F0000752F0000752F000010
:10006000752F0000752F0000752F0000752F000000
:10007000752F0000752F0000752F0000752F0000F0
:10008000752F0000752F0000752F0000752F0000E0
:10009000752F0000752F0000752F0000752F0000D0
:1000A000752F0000752F0000752F0000752F0000C0
:1000B000752F0000752F0000752F0000752F0000B0
:1000C000752F0000752F0000752F0000752F0000A0
:1000D000752F0000752F0000752F0000752F000090
:1000E000752F0000752F0000752F0000752F000080
:1000F000752F0000752F0000752F0000752F000070
:10010000752F0000752F0000752F0000752F00005F
:10011000752F0000752F0000752F0000752F00004F
:10012000752F0000752F0000752F0000752F00003F
:10013000752F0000752F0000752F0000752F00002F
:10014000752F000053B94AB9002908BF00281CBF09
:100150004FF0FF314FF0FF3000F00CB8ADF1080C5C
:100160006DE904CE00F008F8DDF804E0DDE90223D3
:1001700004B07047704700BF2DE9F04786468C46B3
:100180000846089E154674461946002B40F0C1806B
:100190008542B2FA82F245D94AB1C2F1200300FA8F
:1001A00002FC954094402EFA03F343EA0C0C4FEA0C
:1001B000154EA8B2230CBCFBFEF80EFB18CC08FBB6
:1001C00000F943EA0C43994528D9EB1808F1FF37A9
:1001D00004D2994502D9A8F102072B44A3EB0903E5
:1001E000A4B2B3FBFEFC0EFB1C330CFB00F044EA94
:1001F0000344A04214D92C190CF1FF3304D2A042BD
:1002000002D9ACF102032C44241A43EA07401EB180
:10021000D440002334607360BDE8F0874746DDE7D3
:100220006346F1E792BB431B01214FEA154EAFB283
:10023000200CB3FBFEFC0EFB1C330CFB07F840EA62
:100240000343984561D9EB180CF1FF3004D298456F
:1002500002D9ACF102002B44A3EB0803A4B2B3FB18
:10026000FEFC0EFB1C330CFB07F744EA0344A742D9
:100270004DD92C190CF1FF3304D2A74202D9ACF1AD
:1002800002032C44E41B43EA0040C0E7C2F1200310
:100290009540944020FA03F12EFA03F34FEA154EED
:1002A0009040AFB20343B1FBFEFC0EFB1C10190CD7
:1002B0000CFB07F841EA0041884522D969180CF186
:1002C000FF3004D2884502D9ACF102002944A1EBE9
:1002D00008019BB2B1FBFEFC0EFB1C110CFB07F7E7
:1002E00043EA01439F420ED9EB180CF1FF3104D2CF
:1002F0009F4202D9ACF102012B44DB1B41EA0041D1
:1003000093E76046E3E76146F7E76046A4E76346A4
:10031000B8E7834206D916B9002108467CE7C6E94A
:1003200000E0F9E7B3FA83F78FB9834201D372454E
:1003300008D8BEEB020460EB030301209C461EB903
:10034000002169E73846FAE7C6E9004CF8E7C7F14B
:10035000200CBB400EFA07F522FA0CF42EFA0CF131
:10036000BA401C4320FA0CF3B8404FEA1449014349
:100370001FFA84FEB3FBF9F809FB18300B0C08FBDD
:100380000EFA43EA00439A4540D9E31808F1FF30DA
:1003900004D29A4502D9A8F102002344A3EB0A0330
:1003A00089B2B3FBF9F809FB183308FB0EFE41EAEA
:1003B00003418E452CD9611808F1FF3304D28E45D4
:1003C00002D9A8F10203214443EA0040A1EB0E0147
:1003D000A0FB02984145CE46434602D306D14D4587
:1003E00004D20138B9EB020E68EB0403002EA7D04B
:1003F000B5EB0E0261EB030101FA0CFC22FA07F3E4
:10040000F9404CEA0303C6E9003199E74046C5E7E5
:100410004346D9E77FB5434B434A4921C3F80026F9
:100420004248C3F80426C3F80826C3F80C26C3F8CC
:100430001026C3F81426C3F81826C3F81C2605F0A6
:100440001CFE00F0A9F83A4C204608F05CFA20B3F4
:100450002569A6682B681A2143F080632B6020462B
:100460003368344A98472046736801A9984720B9F1
:100470002A68019B53405A010FD54FF05023D3F8FF
:1004800000340BB1DB0708D549212B4805F0F5FDF9
:1004900001F094FE294802F099FA00F0EDFA0546C1
:1004A00001A800F091FD0446284600F0F5FA244B1F
:1004B0001B68A34205D04521224805F0DEFD05F06A
:1004C0005BFB039A4921204805F0D7FD49211F48CD
:1004D00005F0D3FD69469DF8080000F03BF8009B4D
:1004E000039C1C44019B1D8903F0C8FC661901F0A4
:1004F00097F801F067F801F081F8002383F30B8887
:1005000083F30A88625982F3088883F31488BFF35F
:100510006F8FBFF36F8F7368984745210C4805F0C4
:10052000ACFDFEE7008001503546526E049000009D
:10053000B8890000110001001D900000188C000017
:10054000080000204190000064900000939000009B
:10055000B8900000024608B538B10548002345218F
:1005600005F08BFD6FF0150008BD0860FCE700BFCB
:10057000DB90000021B1012906D06FF01500704713
:10058000044B53F830007047024B03EBC00358682C
:10059000704700BF208C00004FF4C051014803F0A9
:1005A000F7BE00BFAE1B00202DE9F04FDFF8E0B131
:1005B000F9B038A8DDE9848916461C46869FDBF829
:1005C000005007F0DDFC002138A803F0F5FFB8F17A
:1005D000000F07D0B9F1000F04DD4A46414638A8A4
:1005E00007F0D2FC4FF0000833897289D6F80CA0CE
:1005F00013449A44C2454CD80DA938A807F008FD09
:1006000027B1202238460DA905F057FE00232246C7
:10061000009331464FF6FF7307A805F0E6F98046D0
:10062000002833D120460C9E00F010FA86422DD8C7
:100630004FF0FF37DFF85C910DF1160305AA06A90C
:1006400007A805F020FA002820DB40F09880BDF8CC
:100650001660102E35D1BDF81460202E16D1334609
:100660002046069938AA05F016FD78B900F004FA7C
:100670003246804638A90DA800F096F90646404655
:1006800000F00AFA444B1B68B34217D0DBF8005065
:1006900078E0839BAAEB0809994528BF9946414613
:1006A0004B462046829A05F0F6FC0028EED14A46D9
:1006B000829938A807F068FCC8449BE74FF001080E
:1006C000BAE7012E35D1BDF81430202BDED82046F4
:1006D000069938AA05F0DFFC07460028D6D19DF818
:1006E00014A0BAF1200F02D94FF0FF37A4E7D9F8D0
:1006F00000302A4E0393039B9F42F5DA1DA807F0B2
:100700003FFC00211DA803F057FF72681DA8126866
:1007100056F8081B07F038FC15A91DA807F078FC4F
:10072000524638A915A805F0A1FD002884D001374C
:10073000E1E7202E80D17B1C3FF47EAFD9F800305A
:10074000BB42D1DDBDF81430B3F5807F9ED1204689
:10075000069938AA05F09FFC002897D100F08CF983
:10076000FFB282463146BDF8143038AA00970DA872
:1007700000F016F80546504600F08EF9B4E7B8F1DF
:10078000000F83D000F080F9284679B0BDE8F08FE3
:1007900004000020288C0000080000202C8C0000A1
:1007A0002DE9F04FDFF8F4B1ADF54D7D804629A875
:1007B0001E469DF858738A469146DBF8005007F0B4
:1007C0009AFB0422012129A803F072FE744B8CAA23
:1007D00053F8374003EBC7035B6804941B6804A815
:1007E0001C442146302306F0ADF9002840F0CC80AF
:1007F000049B8C9A13449C4240F0C68021462BAA4D
:1008000004A806F0B3F9002840F0BE802EAF3A46A7
:10081000214604A806F0AAF90390002840F0B4800D
:100820002BA806F09AFA049A2A90944240F0AC80E1
:10083000039B01971A4600932BA929A807F018FBE0
:10084000002840F0A18029A803F048FE002840F0CD
:100850009B802BA806F081FA2A9029A807F055FB67
:10086000864240F0918000F007F9B6F5807F074698
:10087000DBF8005040F08380BAF1200F7FD1494669
:100880008CAA29A803F050FE0446002877D19DF8D1
:100890002F33BC2B73D1DF2605900DF5A87A0EA857
:1008A00007F06EFB00210EA803F086FE20220DF259
:1008B0000F310EA807F068FB042205A90EA807F067
:1008C00063FB06A90EA807F0A3FB202EB146A8BF24
:1008D0004FF020099DF81730504601334A4606A9CB
:1008E000A6EB09068DF8173005F0E7FC002ECA4488
:1008F000D5DC54AA104600218CAB067813F801CB46
:10090000013186EA0C06DF2900F8016BF5D19DF86C
:10091000503103F07F038DF8503112F8016B76BB34
:100920000134BE2CF9D19DF80E32012B27D10EA82F
:1009300007F026FB31460EA803F03EFE08221949B7
:100940000EA807F021FB414620220EA807F01CFB51
:1009500020220DF20F210EA807F016FB06A90EA803
:1009600007F056FB00F088F8202204460DF20F3104
:1009700006A800F019F80546204600F08DF800F0B2
:1009800083F8384600F088F829A807F0C0FA00F08C
:100990007BF828460DF54D7DBDE8F08F0400002062
:1009A0002C8C00000191000070B5094B04461D68B5
:1009B0000023934205D1074B1D6800F065F82846D7
:1009C00070BDE65CC85C8642F7D10133F1E700BF39
:1009D0000400002008000020094A40000B7852F86B
:1009E00020108B4209D0013052F82000834214BFFE
:1009F0004FF0FF304FF4407070474FF44070704735
:100A0000348C00001FB50F4B0C4613F8300001F07A
:100A1000C9FA50B92068102381686A46103905F078
:100A20003AFB28B1206805F035FB4FF0FF3006E0B7
:100A300010226846044905F019FC0028F2D104B0E0
:100A400010BD00BF348C0000F48F000013B50446C5
:100A500005F06AF86A460146204604F0ADFF30B161
:100A60000448452105F009FB002002B010BD0098A4
:100A7000FBE700BF09910000024B1868421C1A6096
:100A8000704700BFD8010020024A1368013B136081
:100A9000704700BFD8010020034B1B68834201D080
:100AA00005F06AB8704700BFD80100202DE9F04F6B
:100AB000414B8BB0064600200D461C68FFF75AFDDF
:100AC00008A9C0B201F06EFA28B1FFF7DDFF204699
:100AD0000BB0BDE8F08F2946FFF74CFD4FF02C0B13
:100AE00009A9C0B20BFB056B01F05CFA002844D0E9
:100AF0002C276F4306EB0708D8F8104014F01004B9
:100B00004CD1FFF7B9FF089B81460793FFF7B4FF6D
:100B10004FF480720192294A21468246CDE903446E
:100B2000079B0294009220465A46FFF73DFD04467B
:100B30005046FFF7B1FFFFF7A7FF4846FFF7ACFFAE
:100B40001F4BF25908989A420CD1D8F80C20B8F8EB
:100B500008309B1806D28268934203D2194B1B6857
:100B6000A34222D02DB38268002105F0BEFA164AB6
:100B70004521164805F081FA15E0099805F0D0FAEC
:100B80000446099805F086FA0BF1FF330BF10302D6
:100B900013F8011FA142ABD19342F9D11DB13046E8
:100BA000089905F0BFF80A4B1C68089805F072FA1E
:100BB0008BE7084ADCE700BF04000020AE330020CA
:100BC0003DB8F396080000204C91000056910000BB
:100BD00000000020449100007FB50D46002104462E
:100BE0002846CDE9021105F05CF828B32368194EB8
:100BF000B34203D1204603AA04F0E7FFE36AB342FD
:100C000004D10121204602AA04F0DFFFDDE902320F
:100C1000934288BF0393039BAB60039A2946204607
:100C200000F0D8FB0C4B1A68002A03DD57210B4853
:100C300005F023FA04B070BD01A9FFF7E3FE0198A7
:100C400005F1080104F07BFFAB680198039305F000
:100C500021FAE2E73DB8F3963C1600207E910000B1
:100C60002DE9F84F884691469A460026DFF868B08D
:100C70001A4C1B4D0B9B9E4201D300200FE00B9B97
:100C800040469F1BB7F5806F28BF4FF48067124A1C
:100C90003B4606EB0A0105F0FEF910B10120BDE864
:100CA000F88F0A993B465A464846711805F008FAEB
:100CB0000028F3D1C4F800563E44C4F80456C4F8E2
:100CC0000856C4F80C56C4F81056C4F81456C4F8A4
:100CD0001856C4F81C56CDE7DC11002000800150E6
:100CE0003546526E2DE9F0410E460021AC4B0446CC
:100CF0004362AC4B88B003650846FFF73BFC04F148
:100D000020010546C0B201F04DF948B100232A4642
:100D1000452101900093A44805F0AFF904F02CFFA1
:100D200001210020FFF726FC04F14C010546C0B26A
:100D300001F038F950B101232A4645210190009372
:100D40009948002305F099F904F016FF204604F0B5
:100D50007DFF054668B900222046114604F01FFFBA
:100D6000054608B300225721904805F086F9012373
:100D70009FE04FF4807257218D4805F07EF90123E2
:100D80009D4284F85830E6D194F85830042B8DF801
:100D9000173000F29180012B00F2958000F0A880BE
:100DA000FF2384F85830A3E0204600F029FA0028F9
:100DB000DDD004A804F06CFF0146204605F007F8DA
:100DC00018B12A4657217B48CFE704A804F069FFF1
:100DD00080F0010104AA2046C9B204F0E0FE0246F8
:100DE0000028BFD104A804F05CFF054660BB204684
:100DF00004A9FFF7F1FE9DF8173084F85830033B43
:100E0000012B06D8284600F00FF910B1FF2384F813
:100E100058309DF81730023B022B0BD8002000F011
:100E2000EDF838B1FF2384F858304521624805F0C9
:100E300024F9FEE794F85830FF2BF6D00021204625
:100E400004AA04F0ACFE92E79DF81770012F1ED1A2
:100E5000104603F0A1F8831E022B054614D8FFF7B5
:100E60000BFE394680462046FFF720FE07464046E7
:100E7000FFF712FE514B1B689F4205D0504B1D6877
:100E8000AF4214BF0525012584F858507CE7FFF7D1
:100E9000F3FD012107462046FFF708FE05463846C8
:100EA000FFF7FAFD454B1B689D4214BF05239DF8D3
:100EB000173084F8583067E7052B7FF471AF0020B6
:100EC00000F0B2F811E0204604A9FFF785FE94F87F
:100ED0005830DA1E012A34D8002000F0A5F8002886
:100EE0007FF45EAF002000F089F800287FF458AF4F
:100EF00094F85830FF2B05D145212F4805F0BDF857
:100F000004F03AFE002194F858302E4F012B039143
:100F10001AD0204604AA04F042FEA8B13D6810226F
:100F200000210DEB020005F0D3F9E06C05F0B2F8FA
:100F3000206A05F0AFF8FFF7A7FD284608B0BDE826
:100F4000F081022BD4D1CDE7FFF796FD002180463A
:100F50002046FFF7ABFD05464046FFF79DFDDFF855
:100F60005C80D8F800309D42D8D13B689D42D5D0F6
:100F7000134B1B689D42D1D0039B01330393039B0A
:100F8000012B01D004F0F8FD206A04F013FD30714C
:100F9000236A5B683460D8F80050B360BFE700BFD5
:100FA000DC090020DC010020AD9100003C92000033
:100FB000FA91000068920000929200000800002060
:100FC000000000200400002070B50B4E0446602293
:100FD0000021304605F07CF9FFF74EFD214605461D
:100FE0003046FFF77FFE04462846FFF755FDFFF722
:100FF0004BFD204670BD00BFDC15002013B5094B2A
:1010000001A913F8300000F0CDFF48B9019805F0B0
:1010100045FD0446019805F03DF8204602B010BD9C
:101020000124FAE73C8C00001FB50F4B01A913F80F
:10103000300000F0B7FFA8B9019802A902F056FFEE
:10104000044668B99DF80B30032B03D1019805F0D5
:10105000F3FC0446019805F01DF8204604B010BDCD
:101060000124F7E70124F8E73C8C00002DE9F34167
:1010700006460C4617461D460BB9002628E01846C2
:1010800004F00FFE0028F8D16946FFF7BBFC00987A
:1010900038B90124009804F0FDFF204602B0BDE8F5
:1010A000F08101A904F04BFD0028F2D1009804F072
:1010B000F1FF3046019904F0C6FE736A5E686B79F1
:1010C000012B21D1002CD8D12B68834298BF002658
:1010D00021460020FFF74EFA6946C0B200F062FFD9
:1010E0000028D6D120233A463146009804F0D3FF99
:1010F00004460028CDD1002DCCD03C680D4BE41A1D
:1011000018BF4FF0FF34C5E7022BB6D12B68012B77
:1011100005D98342B1D8B4FA84F46409ADE7ACD1FF
:10112000002CD5D0012CA8D12C79023C18BF012469
:10113000A3E700BF3DB8F3962DE9F04F07460C46F4
:1011400085B0014600201646FFF746FC051E51DB20
:101150003846E46D04F0E8FC5FFA84F94FF0000AC9
:101160004FF0010B4FF0FF346B1E09FB03089DB9D4
:10117000BAF1010F03DD4521204804F07EFF631C16
:1011800006D0FF2C2ADC40F2011301343460B38016
:10119000284605B0BDE8F08F6B1E00934146012341
:1011A00038460DF10F0204F076FF031E019323DB96
:1011B000012238460DF10F0105F0D9FB019B40B12A
:1011C0005B4501D00AF1010A9B46009DA8EB090886
:1011D000CDE7B4F1FF3F08BF2C46F5E70223A4F5A5
:1011E00080747371631004F00104013301343360BF
:1011F0003471CDE70725CBE70125C9E79E920000B2
:1012000038B5816A426D914208D0531C8B4205D09B
:101210005721144804F031FF002038BDB1F5807F1C
:101220001CD957211048F5E7446A056D04EBC30447
:1012300005EBC30564686D68AC4202D057210B48CA
:10124000E8E701339A42EFD1914205D9436A03EBB3
:10125000C2035B68A342F1D10120DEE700231C46F4
:10126000F0E700BFC1920000F9920000289300004F
:1012700000B589B0022004A905F0EBFB9DF8102011
:10128000012A41D0254B2649032A08BF0B469DF869
:101290001320492102929DF81220224801929DF8C4
:1012A00011200092204A04F0E8FE082006A905F06B
:1012B000D0FB9DF81820012A28D0184B1849032A82
:1012C00008BF0B469DF81B20492102929DF81A2069
:1012D000144801929DF819200092144A04F0CDFEA2
:1012E0009DF81030012B13D19DF81230032B0FD134
:1012F0009DF81830012B0BD00D48492104F0BDFE9C
:10130000022009B05DF804FB0A4BC0E7094BD9E79E
:101310000948492104F0B1FE0020F2E7549300008F
:101320005D9300007193000063930000B29300008E
:10133000C293000058930000E193000070B54B6821
:1013400014461E4A03F0FF23934206460D4686B01C
:101350002FD10B68012B2CD1204604A902F0C6FD29
:101360009DF81020012A26D0154B1649032A08BFE4
:101370000B469DF81320492102929DF81220124835
:1013800001929DF811200092104A04F076FE9DF81B
:101390001030032B0DD12146304604F0C3FC20460B
:1013A00005F04AFB2046A96804F0D7FB204602F06E
:1013B0007DFD06B070BD064BDBE700BF00010004F9
:1013C000549300005D93000071930000B2930000FD
:1013D000589300002DE9F04F1646054689B00C469B
:1013E0007448492104F049FE3146284604F02BFD9B
:1013F0006B6A824620465E6804F053FCE8B1E86DF3
:1014000004F08DFB0023AF6A013F3344834201D2D5
:10141000013FFAE7BA4510D35721674804F02DFE83
:1014200007FB06F357210AFB0662644804F025FE19
:101430000123E37109B0BDE8F08F06A9022000F096
:10144000B1FD07A9082000F0ADFD21462846079A06
:10145000FFF774FF6379012B4BD15746DFF860B17A
:1014600041E02268C2F1010353449F423AD86B6ABB
:10147000012A196853F8370003EBC70353F8083CF7
:10148000A0EB0109A3EB0103049311D1079B039384
:10149000E368022B08D04146284604F043FC22466C
:1014A0004146284604F074FC2846039904F03AFCAF
:1014B00032464946404604F033FC049B42464146CE
:1014C0002846CDE90096FFF7CBFB2146284604F0DD
:1014D000F5FB23680133236020B1DBF800300133D2
:1014E000CBF80030013FDDF81880002FB9D101237F
:1014F0002360022301276371BA45DDF8189006D2F4
:10150000484604F0C7FD079804F0C4FD92E723683D
:101510009F424DD36A6AFB0052F83710083B049192
:101520001168DDF81CB00391D1582A6DD0581368AA
:10153000A0EB03082379012B38D1039B3246C91A4B
:101540004846059104F0ECFB059943464A46009154
:10155000284659460196FFF783FB2146284604F0AA
:10156000ADFB0223237118B1154A136801331360D0
:1015700032464146584604F0D3FBDDE90323494691
:101580009B1A28465A46CDE90086FFF769FB21469B
:10159000284604F093FB2368013323600123237161
:1015A00030B1074A13680133136001E0022BDFD02A
:1015B0000137A1E7F8930000219400005094000047
:1015C0003C160020BFF36F8F72B600234FF0FF3040
:1015D000094A03F120010133102B42F82100F8D110
:1015E00000234FF0FF30044A03F160010133102B58
:1015F00042F82100F8D1704700E100E000231846CE
:101600000649D1F89020C2F30722934200DB7047CD
:10161000C1F89830C1F8A0000133F6E700ED00E012
:1016200038B501224FF0FF3400251A4B29465A6085
:10163000C3F84843C3F8084303F580535A60C3F81E
:101640004843C3F80843A3F55043C3F8005580222C
:10165000C3F80843104804F03BFE802229460F4897
:1016600004F036FE0E4B8022C3F800552946C3F81D
:1016700008430C4804F02CFE802229460A4804F056
:1016800027FE0A4BC3F808454FF05023C3F8084320
:1016900038BD00BF00400150808000508081005064
:1016A00000900050809000508091005000700150D8
:1016B0002DE9F043079D15B91560002012E00324C1
:1016C000B5FBF4F404EB4407BD4218BF0134B4F198
:1016D000804F09D2A40001348C4200D838B96FF091
:1016E0000B001460BDE8F0834FF0FF34F7E70446C9
:1016F0000021DFF8B4E0B94203F1030C04F1040661
:101700002BD3A942274623D201F1010CAC451F7807
:1017100028BF002324494FEAA70E38BF5B7811F891
:101720000EE0AC4584F800E001EB131E2EBF3D2314
:101730009B0003F03C034FEA071738BFCB5C07F070
:1017400030071EF80770A3703D2367703746E370BB
:101750000023381A10603B70AFE71CF8034C1CF8EC
:10176000023C4FEAA4091EF8099024011CF8018CE0
:1017700004F0300406F8049C0EEB131919F8044029
:101780009B0006F8034C03F03C030EEB9814E35C5B
:1017900008F03F0806F8023C1EF80830344606F808
:1017A000013C03316346A6E70F9600002DE9F043A4
:1017B00000273C463D46DDF81CE0DFF828817545F2
:1017C0001FD3E4BB00201460BDE8F08301367645EA
:1017D00033D013F806C0BCF1200FF7D0AEEB0609EA
:1017E000B9F1010FA6EB05050DD0BCF10D0F0AD123
:1017F00003EB060999F80190B9F10A0F6ED1751C37
:10180000DDE72E46E3E7BCF10A0FF8D02DB9BCF1B5
:101810003D0F05D10137022F0DD96FF01500D3E729
:101820001CF0800FF9D118F80C507F2DF5D03F2D0A
:1018300001D8002FF1D10134E1E73546C1E74FF07F
:10184000060C04F00706E4080CFB06F60CFB04F497
:101850000736E41B04EBD60470B18C420CD8002789
:10186000014603263C46DFF87CE0DFF87C801D441F
:101870009D4205D10C1AA5E76FF00B001460A3E799
:1018800013F8019BA9F10A0C5FFA8CFCBCF1160F4E
:1018900004D848FA0CFC1CF0010FE9D01EF809C06E
:1018A0000134BCF1400F08BF013E0CF03F0C042C8A
:1018B0004CEA8717DCD17EB13C0C012E0C7002D1B2
:1018C00001310024D4E7022E4FEA17244C7016BFD2
:1018D0008F7002310331F4E73446C9E7002DA2D0FE
:1018E0009BE700BF8F950000F6FFBFFF014B1B6811
:1018F000184700BF0C00002007B50B460021024628
:101900000091034800F014F903B05DF804FB00BF38
:10191000ED1800002DE9F047058B04462807904696
:1019200011D4022905F0070540F0CD80204604F0CF
:10193000CAFA78B10138218B042811D8DFE800F009
:10194000C3106D85950001290CBF45F0100545F0C9
:101950002005258388F31188BFF36F8FBDE8F087DA
:1019600001F0070AAA4500F0A6800027B9463E46C6
:10197000A368002B00F0BD8041F00801218388F3AB
:101980001188BFF36F8FA168002900F0BB800D683C
:10199000002900F0B780334652462046D1F8048033
:1019A000C047002D76D02B6829461D46F0E701F090
:1019B00007035A1F012A1BD8002221F00701062B1A
:1019C000276889B2C4E9002209D13B4603E0628B53
:1019D000013262831B68002BF9D141F002012046DD
:1019E000218304F070FA00287BD041F0200177E0D9
:1019F000042B0AD121F0070189B22046218304F08B
:101A000062FA10B141F020012183218B01F0070A15
:101A1000AA4550D00027B946AAE7236921F007015B
:101A200041F00601062DD3F8009021832DD1B9F1A4
:101A3000000F40D041F00801218388F31188BFF3E3
:101A40006F8F20463949C84729E021F007012369F3
:101A500041F0040189B2042DD3F804902183E6D02B
:101A600000274FF0040A3E4682E721F00701236970
:101A700041F0050189B2052DD3F808902183D6D015
:101A800000274FF0050A3E4672E700274FF0060A8E
:101A90003E466DE72B4687E7B9F1000FD1D14FF0F5
:101AA0002003EFF3118883F31288BFF36F8F238B2A
:101AB00023F008032383258BEA062ED525F0100397
:101AC000238305F007056669218B002EBFF66FAFF3
:101AD00000232768C4E9003321F0070141F0010128
:101AE0002183218B4FF0000901F0070AAA457FF4FA
:101AF0003FAF002F9BD041F00801218388F311886C
:101B0000BFF36F8F002FC7D03D683946334652462A
:101B1000204604F004FA2F46F4E7AB067FF51AAF2F
:101B200025F02003238305F00705FFE64B5F000047
:101B30002DE9F04F82464FF000098DB01D46531E2F
:101B400001910393039B58785C1C252819D1002030
:101B50004FF0FF381E464446034602360290317865
:101B60000396392955D81F2914D8002900F0EF8190
:101B700001992520D04701993078D04709F1020911
:101B8000E0E7002800F0E3810199D04709F101095D
:101B90000394D7E7A1F12002192AE9D801A757F841
:101BA00022F000BF0D1C0000711B0000711B000023
:101BB0000D1C0000711B00008D1C0000711B00003B
:101BC000711B0000711B0000711B0000D91C00007C
:101BD0000D1C0000711B0000ED1C0000991C000092
:101BE000711B0000A71C0000C71C0000C71C0000E0
:101BF000C71C0000C71C0000C71C0000C71C000059
:101C0000C71C0000C71C0000C71C000008460136A6
:101C1000A5E7582900F0EB80A1F16302D7B2172F96
:101C2000A6D8172AA4D801A757F822F0951E0000BD
:101C3000131D0000711B0000711B0000711B0000D0
:101C4000F31C0000131D0000711B0000711B00003D
:101C5000F31C0000711B0000711B0000711B0000D1
:101C6000C91D0000711B0000711B0000691E0000EF
:101C7000711B0000131D0000711B0000711B000090
:101C8000C91D0000711B0000F31C000025200199F4
:101C9000D04709F1010955E7029A4FF0000802F018
:101CA000FE020292B3E7002C0DDAB8F1000F0DDA54
:101CB000029A002A00F043810A2224EAE47402FB1B
:101CC0000414303CA3E7B8F1000FF5DB0A2202FB55
:101CD0000812A2F130089AE7B8F1000F55F8042B6A
:101CE00080F22F81002A80F22E8154420222029239
:101CF0008DE7682903D1682B06D1482387E76C2933
:101D000002D16C2B00F02181002B7FF431AF0B4608
:101D10007DE77A2B06D1752955F8046B14D14FF065
:101D2000000B0CE06C2BF6D04C2BF4D1073525F0D2
:101D30000703752903F10805D3E9006B06D12028B4
:101D40003BD1854F013C09E04FEAE67BBBF1000F38
:101D5000F5DA7642814F6BEB4B0B013C0DF12D0315
:101D6000059300230493304659460A220023FEF7C8
:101D7000E9F9059BB446303203F8012D5A46059324
:101D8000049BBCF10A0F8B4672F1000203F1FF3194
:101D900006460491E7D2C3F1010B30330DEB030685
:101DA000B8F1000FA6F104066DDA029BD9077DD4C5
:101DB000A8EB0B03A4EB0B0413E02B280ABF684F1E
:101DC000684F04F1FF34C9E770290FD155F8042B8F
:101DD0000023FAB96FF004034FF0050B614F624E18
:101DE000053C029A920770D4A04666E078216C2BDD
:101DF00003D1002355F8042B08E04C2BF9D107350B
:101E000025F007031D465B6855F8082B232825D1CC
:101E1000880621D5554F023C002601F06001A1F152
:101E2000390B0DF12D0E02F00F01092988BF59441D
:101E300030310EF8011D102A4FEA121141EA0371E8
:101E40004FEA131C73F1000306F1FF3008D2C6F10C
:101E5000010B06F13003A1E7454FDCE7414FDBE71B
:101E600006460A466346DEE755F8046B304604F042
:101E7000F6F9B8F1000F834602DB4045A8BFC34620
:101E80004FF00008374FA8EB0B03002B92DDA4EBBB
:101E90000804A6E755F8043B4FF0010B8DF8183005
:101EA000304F4FF0FF33013C06AE9AE7A046EAE719
:101EB000029320200199D047029BB8F10108F7D581
:101EC00024EAE472013C9144A41AB84606E0049363
:101ED00002920199D047029A049B9046424612F81A
:101EE000010B0028F3D11A46013A15D5002BACBFDF
:101EF000C7EB03077F425B46013B15D5BBF1000FE3
:101F0000A8BF5F4426464F44013E14D5002CA8BF0D
:101F10003F1907EB080915E6049302923020019956
:101F2000D047049B029ADFE70293019916F8010B50
:101F3000D047029BE0E701992020D047E4E7012247
:101F4000D5E6904663E6144661E64C235FE64846D4
:101F50000DB0BDE8F08F00BF519600004F96000015
:101F600053960000B89600005B960000559600005E
:101F700058960000044608B54FF02002EFF3118395
:101F800082F31288BFF36F8F01F078FF204600F0D4
:101F900001FF034803F08AFF00F0C6FFFCE700BF23
:101FA0006196000070B5114B0D461C68DCB1104BFA
:101FB000196800238B4202DB6FF0010070BD2246DE
:101FC00012F8106B864202D014460133F2E7E06843
:101FD00010B96FF01200F1E706F095FC0028F8D078
:101FE00000202C60EAE76FF00C00E7E7100000200B
:101FF000488C000070B588B005460C46C0B26946F2
:102000001646FFF7CFFF00281BDB0098C8B14368D6
:102010002268029383680195CDE903360023CDE958
:1020200006230593C56804F035F86DB128460849C4
:1020300001AA04F072FA079808B9059B236008B05A
:1020400070BD6FF01500FAE76FF01200F7E700BF00
:102050002F610000014803F035BB00BF1C8D00005C
:10206000F7B5254E30688368DB6B03B1984730685D
:102070008368DB6A002B31D1204C214D30688368A6
:102080001B69002B2DD001220DF107019847012873
:1020900027D1236843B92B682BB369681A688B4230
:1020A0002A6000D16A602360164A9DF807001188F3
:1020B0007F2904D823684F1C0B44178018720A2804
:1020C000DCD1002023681188186059600E494D68E2
:1020D00075B9C1E9003310802060CEE79847002829
:1020E000CAD103B0F0BD4521084803F0C6FFF8E7A8
:1020F0002B604B60EFE700BF981A002040160020CD
:1021000050160020AC1B0020481600208A960000C4
:1021100010B5044B044618688368E1B25B689847C1
:10212000204610BD981A0020F8B505461646084608
:102130004FF02003EFF3118783F31288BFF36F8F03
:102140001B490B684BB11B4C62689A4205D00022B8
:102150001A60626862B9C4E90033174A136853B958
:1021600087F31188BFF36F8F18460B603360F8BD9B
:1021700013606360F1E7D2F804C01C686345146023
:1021800008BF546087F31188BFF36F8F5C680B60E2
:10219000A042D8BF00F1FF3403F1080122462846CF
:1021A00004F08BF80023601C2B550123DEE700BFF1
:1021B000441600205016002048160020002313B5B6
:1021C0001C462049204AC1E90033C2E900331F4AB6
:1021D0004868146020BBC1E900220133082B02F1DA
:1021E0008802F5D11A4C1B48206006F08CFB28B3FE
:1021F0002068836823B11B6C13B1002216499847ED
:1022000020688368DB6A0BB1984760B120688368F7
:102210001B69002BFAD001220DF107019847F4E762
:1022200002604A60D9E700220C4B20681A8083685C
:102230001B6A03B19847002002B010BD4FF0FF3079
:10224000FAE700BF5016002048160020581600205C
:10225000981A0020CC89000061200000AC1B0020EF
:1022600041F204432DE9F043EFB0ADF8083040F6F9
:1022700006130025ADF80C30DFF81091444BD9F867
:1022800000101B68434E4D70A3EB06080B782846E0
:102290005A1C62F302030B7098FA98F34B808B88F8
:1022A00008225BBA8B8003F0EBFD31464246ADF865
:1022B000100003F0E5FD02271FFA88F440BA04F18C
:1022C0000A035BBA0222ADF810000DF1120106A854
:1022D000ADF8123003F0F1FF0822D9F800100DF12B
:1022E0001A00ADF8127003F0E8FFBDF8120006AB5B
:1022F000083080B231464246ADF81200184403F06F
:10230000DCFFBDF812303A461C44A0B22C4606ABA6
:10231000ADF8120004A9184403F0CFFFBDF8123045
:10232000ED213B449BB2ADF81230009305AA06ABF9
:1023300032A8FFF7BDF9059B174E184FADF81230C4
:10234000BDF81230A34206DC4921154803F095FE82
:102350006FB0BDE8F083336802215B68A4B903A8BD
:102360009847BDF8125033682D1B7C2DA8BF7C25E3
:1023700032AA101929465B6898473368012138460C
:102380005B682C449847DBE702A8E9E7E41A0020E1
:10239000B41A0020AE340020E81A0020B7960000DE
:1023A000C8960000F0B583680C469A42064611466E
:1023B00085B01DD294421DDC02AA03F0FDFAB8B923
:1023C000DDE902531D446B1ECDE900302246492150
:1023D0000B48E3172F1B03F050FE3A4621463046C8
:1023E00003F083FE024640B14521064803F045FE56
:1023F0006FF01504204605B0F0BD2C46FAE700BF8B
:10240000D0960000EF960000F0B50C68164F85B02E
:1024100002380D46C4F580610090144B381903AAA8
:102420000131FFF7C3F90446D0B92B68039A13446E
:10243000022B2B6011D93E88023B76BAB6B29E427F
:102440000BD13246B91C03F01BFD30B9022E04D962
:102450002B689A1E2A60FC540124204605B0F0BD6A
:102460004FF0FF34F9E700BF533500205639002004
:1024700007B5CDE900016946024806F02CFA03B021
:102480005DF804FBB41A002038B505460A4C0A2151
:10249000204606F027FA02210848FFF7E9FF2946FF
:1024A000204606F001FA20460A2106F023FABDE88C
:1024B0003840FFF7D5BE00BFB41A002011970000C6
:1024C0002DE9F0474FF0FF34C6B00B4601210394CD
:1024D000049405940024024600912EA80421CDE91D
:1024E000064405F057FF402221461EA803F0F0FEE7
:1024F0008F4B03211A93052304221B938D4B04AFAA
:10250000CDE91C378C4B8D481F938D4B03AE219327
:1025100008AB22938B4B05AD24938B4BCDE929015E
:10252000CDE92635CDE92B36259107AB1AA92EA882
:10253000209203F031FE38B303252A46492183480F
:1025400003F09BFD0A21824806F0CCF90221814864
:10255000FFF78EFF29467E4806F0A6F945B903210C
:102560007648FFF785FF7C4B7948196806F0A6F995
:102570000A21774806F0BEF9FFF772FE069803F0CD
:1025800089FD46B0BDE8F0873368DDE908845A1C50
:10259000D2D0B8F1000FCFD0704A2BB93968B1F161
:1025A000FF3F18BF0B46136000211068FDF7E2FFE4
:1025B00006A9C0B2FFF7F6FC0028BDD13368664F0C
:1025C000002B53D1069E3B603046D6F8089003F0AE
:1025D000ABFA634A0146304603F0EEF928B14521D3
:1025E000604803F04AFD0125A7E72B684B45A3D8B7
:1025F0005D4A10605D4A13603A685B4D2244296869
:102600000698013AFFF7CEFE0028286094DB069872
:1026100003F07FFDB4FBF0F303FB10403A68C1B256
:10262000DFF84891641A1319D9F800501944A942E7
:1026300038BF002049215FFA80FA4D4803F01DFDA4
:10264000069803F066FD012806D9069803F061FD9F
:10265000013818EA000F4BD12346424639680698E4
:1026600003F02EFD00287FF467AF2EE03A68934216
:1026700001D0002561E73D4A234412689342BBD94B
:102680005AE7A642069888BFE6B203F049FD402209
:1026900001460AA803F01CFE324641460AA803F090
:1026A0000CFE3346396806980AAA03F009FD054670
:1026B00000287FF442AF3B68B04433443B60A41B26
:1026C000069803F026FDA042DBD9BAF1000F11D124
:1026D0003B68D9F800205344234493423B60C8D15F
:1026E0001F4B06981A681146FFF75CFEC50F24E7DA
:1026F0004026E5E7069803F013FD082201460AA8E4
:1027000003F0E6FD524608EB04010AA803F0D5FDEC
:10271000069E39683046651803F0FBFC29460346DF
:102720000AAA304603F0CCFC00287FF405AFCFE7BF
:10273000BC930000FB850000149700001D9700006B
:1027400005860000199700000186000041970000EF
:10275000B41A002011970000AC1A0020B01A002013
:10276000A41A002009910000A01A00209C1A002041
:1027700021970000002307B502210093034AA423F8
:10278000034806F0B9F803B05DF804FBAE3400204E
:10279000B41A00202DE9F04707290446B0B070D9DB
:1027A000037813F0050F6CD14388A1F108055BBADB
:1027B0009BB2AB4265D3794B186083885BBA838048
:1027C000FFF7D8FFA088012840F0D580E37943B116
:1027D000012B00F0C880082030B0BDE8F047FFF7BB
:1027E00053BE247814F00704F5D101466C4806F076
:1027F00079F806216B48FFF73BFE0521684806F093
:102800006DF8694E694FDFF8A88121460020D6F89F
:102810000090FDF7AFFE08A9C0B2FFF7C3FB054665
:1028200020BB2023014610AA089803F034FC109B1B
:10283000BB4213D1FEF720F94023019320AB82461F
:102840002946009310AA089B2846CDE90355029516
:10285000FDF7AAFE81465046FEF71EF9D8F8003073
:10286000089D4B4512D0284603F014FC64B10521A5
:102870004B4806F03BF80121494806F03BF8FFF7CA
:10288000EFFC30B0BDE8F0870124BEE700232A4604
:10289000009310A94FF6FF730AA803F0A6F80028CA
:1028A00046D04FF0FF35089803F0F4FB14213C4864
:1028B00006F018F804213F48FFF7DAFD21463848B2
:1028C00005F0FCFF5DB904213B48FFF7D1FD18ABD3
:1028D0000A93202332480AA90B9305F0F9FF072138
:1028E0003648FFF7C5FDBDF85630402101939DF8ED
:1028F0005530334A009320A89DF8543000F04EFB29
:10290000169B4BB1421E3E2A06D820ADC0F14001B5
:102910002C4A284400F042FB20A803F0A0FC01460A
:1029200020A8FFF7A5FD14211D4805F0E3FF9DE752
:102930000DF11E0307AA09A90AA803F0A4F80028AC
:10294000AFD1BDF81E30102BF2D1BDF81C30202BBA
:10295000A7D12846099918AA03F09DFB051E18BFA8
:1029600001256D429FE7294604F1080030B0BDE81B
:10297000F047FFF7A5BD00287FF42DAFE379012BC9
:102980003FF42AAF052B7FF426AFFFF77DFD0E48FD
:1029900005F0B4FF0120FFF7EDFA00BFE41A0020B4
:1029A000B41A00204F970000040000203DB8F396B1
:1029B00008000020569700005B9700006097000019
:1029C000689700007497000090D0030001232DE960
:1029D000F743002407462D4E2D4D33702D4BDFF865
:1029E000B8800094186000F09FFADFF8B090C9F842
:1029F0000056C4F58061C9F80456C9F80856C9F8EC
:102A00000C56C9F81056C9F81456C9F81856C9F822
:102A10001C563B6801AA013108EB040098470028C6
:102A2000019B00DC6BB3044453B940F201439C4268
:102A300023D1337813B903B0BDE8F0830024D6E77F
:102A400098F80030062B0AD198F80130092B0CD1E8
:102A5000002300936946A01EFFF7D6FC05E0042B77
:102A600003D198F80130142BF4D00128E1D100995A
:102A70000B480239FFF78EFEDBE73378002BB6D127
:102A8000D9E73378002BAED1D5E700BF523500200F
:102A90003546526EE81A002054390020008001505B
:102AA0005535002030BFFFF7FDBF00BF704700BFA6
:102AB000154B9A6A12F0007F9A6A14BF1E201D20DF
:102AC00012F0807F9A6A18BF1F2012F4801F9A6A42
:102AD00018BF022012F4002F9A6A18BF212012F4A6
:102AE000802F9A6A18BF222012F4003F9A6A18BFFA
:102AF000232012F4803F9A6A18BF24206FEA024212
:102B00006FEA12429A62704700ED00E010B5194B6F
:102B10000246986A9C6A10F4805F14BF1720162042
:102B200014F4006F9C6A18BF1820A40509D5986B8F
:102B3000986A000404D51AB19A6A22F400429A6293
:102B400019200C4B9A6A12F4806F9A6A18BF1A20E7
:102B5000D2050CD49B6A13F4005F18BF1C20054AF1
:102B6000936A43F47F43936200230B7010BD1B20D4
:102B7000F5E700BF00ED00E010B51C4B0246986A77
:102B80009C6A10F0100F14BF1120102014F0080FD1
:102B90009C6A18BF1220A40709D5586B986A0006D2
:102BA00004D51AB19A6A22F080029A6213200F4B60
:102BB0009A6A12F0010F9A6A18BF142012F0200FBF
:102BC0009A6A18BF1520D40658BF9B6A074B9A6AA9
:102BD000920642BF5A6A22F400525A629A6A42F03E
:102BE000FF029A6200230B7010BD00BF00ED00E0F1
:102BF00070B5444B06465B6800258AB0C3F30803F2
:102C000085F31188BFF36F8F02F07F40B0F17F4FE3
:102C100011D102F00C0008280DD010074CBF0E4651
:102C200001250022033B8DF80720032B05D8DFE8A0
:102C300003F01E5C60592E46F3E700249DF8073030
:102C40009BB92022314602A803F037FB099B002DD7
:102C500053D0C3F3080222B96FEA53236FEA432328
:102C60000993204602A903F0E9FA0AB070BD254B8A
:102C7000DA6A9107E1D4DA6A002ADEDBDA6A520006
:102C8000DBD55A69B16942F480725A61BFF34F8F44
:102C9000BFF36F8F5A6931F8021C22F480725A61B7
:102CA000BFF34F8FBFF36F8F4DF60272914209D081
:102CB0009A6AD2B242B101200DF10701FFF75CFF21
:102CC0000446BBE73468B9E79A6A12F47F4F05D02F
:102CD00001200DF10701FFF719FFF1E79B6AB3F53A
:102CE000803FAAD3FFF7E4FEEAE700200DF10701D9
:102CF000E4E700200DF10701EDE723F4FF7323F073
:102D00000103ADE700ED00E0044B5A6942F0100208
:102D10005A615A6942F480625A61704700ED00E0DE
:102D2000EFF30880EFF3098101B57246FFF760FF0A
:102D300001BD00BF002080F31488BFF36F8F002017
:102D400080F30A8880F30B8800F054F900200E49C4
:102D50000860BFF34F8F0D4880F3088800F02CF80F
:102D6000202080F311880A484FF40061401880F356
:102D70000988EFF314800221084380F31488BFF31D
:102D80006F8F00F091F8000094ED00E0786D002066
:102D9000783D0020BFF34F8F0549064BCA6802F407
:102DA000E0621343CB60BFF34F8F00BFFDE700BF6E
:102DB00000ED00E00400FA0572B6002383F31388E7
:102DC0004FF0FF300C4A03F120010133102B42F881
:102DD0002100F8D100234FF0FF30074A03F16001D2
:102DE0000133102B42F82100F8D162B6BFF34F8FA8
:102DF000BFF36F8F704700BF00E100E01EF0040FCB
:102E00000CBFEFF30880EFF30980816911F8021C11
:102E10000229FFD001B503F013FA01BD40B200282A
:102E200007DB01234109034A00F01F00834042F8F9
:102E30002130704700E100E040B200280CDB0122A5
:102E40000649430900F01F008240203341F8232047
:102E5000BFF34F8FBFF36F8F704700BF00E100E0FB
:102E6000054B420953F82220012300F01F0003FA0A
:102E700000F01040704700BF00E100E040B20028C1
:102E800001F10101ACBF00F16040064B4FEA411176
:102E9000C9B2ABBF00F5614000F00F0080F800132D
:102EA0001954704714ED00E00B4A08B50B4B22F0A3
:102EB0007F029A60BFF34F8FBFF36F8FD3F88820E4
:102EC00022F47002C3F8882002F0A2FA02F0E4FAB9
:102ED00000F044F802F0A8FA0000000000ED00E065
:102EE0000446084611461A46002383F30B880A4B12
:102EF0002025A3F5205686F30B8883F3098863B653
:102F00004FF0000383F31188BFF36F8FA04785F361
:102F10001188BFF36F8FFEE7786D00200149102202
:102F20000A60704710ED00E072B6404080F31188EF
:102F3000BFF36F8FBFF34F8F30BF62B6BFF36F8F9A
:102F4000704700BF72B6494081F31188BFF34F8FBD
:102F500020BF80F3118862B6704700BF0023202194
:102F60000348C2180133412B82F80013F9D170478E
:102F700000E100E001B5EFF30580A0F110004FEA99
:102F8000C0000449014409C99847BDE8014002490D
:102F900008470000F4890000AD2A00000CB410B509
:102FA00086B009B90DF10B000024CDE9040109AB8D
:102FB000089A009404A905480393FEF7B9FD049B01
:102FC0001C7006B0BDE8104002B07047E36200001C
:102FD0000122024B0020C3F84025704700900350A7
:102FE00020B1034B800143F001031847704700BF35
:102FF000108C000001F028BC084B70B5C31A0D46B8
:1030000007499B10044659434022064803F092F9B1
:103010002B4601462046BDE870401847001B0020A3
:10302000B76DDBB6A4890000402373B50B4C009349
:10303000041B0B460D460A49A41061430646094A83
:10304000094803F0A3F9011E05DA30462B4602B009
:10305000BDE87040184702B070BD00BF001B0020E3
:10306000B76DDBB6FD630000A489000010B54FF01A
:103070002003EFF3118483F31288BFF36F8F074AA5
:10308000136823F00201DB07116002D4012005F070
:10309000C7F884F31188BFF36F8F10BD501B002059
:1030A00070B50022012104460520FFF7E7FE0F4816
:1030B00001F0C2FC0E4B984215D101F0CDFC2669FF
:1030C0000C49304602F04FFF00280BDB0125356428
:1030D0002469084904F11C0002F045FF002801DBC7
:1030E0000020E56470BD6FF00400FBE72D310000A7
:1030F0000000AD0B248D000001460C2300224B4341
:1031000070B50848C41840331844D4E90E56A26379
:1031100003F0FDF82DB132462B46BDE87040024861
:10312000184770BD001B0020A489000010B10128C1
:1031300004D07047034B1B6C5B0701D1FFF7DCBF6A
:10314000704700BF001B002008B54FF02003EFF3CD
:10315000118183F31288BFF36F8F124A136843F013
:1031600002001060DA0708D481F31188BFF36F8F73
:10317000BDE80840012001F083BC4FF05023D3F894
:103180000C24D3F80C34DB07EED5074803F0BFF866
:1031900081F31188BFF36F8FBDE808400020FFF76F
:1031A000ABBF00BF501B0020401B00202DE9F8439F
:1031B000012207463449D1E8EF3FC1E8E02F00285B
:1031C000F9D133B9314932484B60CB608A6002F0A3
:1031D000DDFE7B1E012B2DD8012F07D14FF0502390
:1031E000D3F81C3403F00303022B23D005F0AAFB11
:1031F000054608BB274B1B78F3B14FF05023022242
:103200000646C3F808234FF050244FF00008DFF8BB
:103210008890D4F81824D4F81834D20316D503F0C3
:103220000303022B01D0012F10D13DB386F3118887
:10323000BFF36F8FBDE8F8834FF02003EFF31186E3
:1032400083F31288BFF36F8F0125DCE73046FFF769
:1032500079FED4F81835DBB2012BDAD1D4F8042189
:10326000002AD6D0C4F80481D4F804210222C4F87C
:1032700018252022C9F88021A360CAE74FF0502307
:103280000222C3F80423D5E7FC1A0020EC1A002020
:103290001C1B0020773D002000E100E0024B0B608A
:1032A00001231360704700BF541B00200048704783
:1032B000788D000010B505F017F8034C206005F07C
:1032C00010F86060002010BD541B0020F8B50E46B9
:1032D0001946304617461D4603F09FF8B8B146EA36
:1032E000050414F0030412D14DB12B19032BA6EBE6
:1032F000040006D8074AD2F80034DB07FBD50020CB
:10330000F8BD3B1B196801F0E3FF043CEDE76FF0EB
:103310001500F5E70090035038B545682B69B3B147
:103320001035284601F09CFE044680B90146284627
:1033300001F060FE084B98420BD12246284607490F
:1033400001F040FE224605210D20FFF797FD0020E9
:1033500038BD6FF00400FBE70000AD0B61330000E7
:10336000430970B507D10B4B596821B101250C6891
:10337000094E854001B970BD8A682A4002D03046A6
:103380004B6898471CB1236821461C46F2E7234648
:10339000FAE700BF5C1B0020B88900002DE9F0436C
:1033A00040F206354668D00648BF0320337B02EA68
:1033B000050558BFC2F3401087B001F01F07B5F5EF
:1033C000837F144647EA43178DF8030041D00FD896
:1033D000062D18D007D8B5B1022D3CD06FF01500DE
:1033E00007B0BDE8F083B5F5807FF7D101250AE08D
:1033F00040F20222954230D0B5F5407F2FD0B5F58E
:10340000007FEBD1022522032BD5012372688B406C
:103410009360326962BB07F01F037F0975D13D4A93
:1034200084F4803102EB8302D2F80032C1F3004110
:10343000C4F3404423F4E16344EA410423F0070366
:103440001C4344EA800444EA0524C2F800420020F8
:10345000C6E70725D7E70425D5E70525D3E70325E4
:10346000D1E7630341BF012372688B40D360D0E78B
:103470001036394630460DF1020201F0A9FD14F470
:10348000403F80460CD13946304604F023FF224BA2
:103490009845DCD130469DF8021001F0EBFDD6E7EF
:1034A0004FF0000901AB3946304603AACDE9043993
:1034B000CDE90199CDF80C9001F05EFC164B9842D5
:1034C0008CD114F4003315D09DF8033084F480348B
:1034D000C4F300448DF80E3039464B46304603AAFB
:1034E0008DF80C508DF80D4001F0F4FC0A4B984219
:1034F000CDD073E7CDE9043339460DF103033046EF
:1035000003AA039301F038FCF0E7803352F823302C
:10351000FFDE00BF002584500000AD0BF0B5406811
:1035200001F01F04057B87B044EA45140569002DAE
:103530005FD0B2F5001F00F1100506D121462846E4
:1035400004F0CAFE002007B0F0BD0027B2F5800FDE
:1035500001AE0197776037D1B3F1007F14BF052327
:1035600004238DF804300023CDE9046303938368BA
:1035700023FA01F111F0010118D1B2F1A07F15D1A8
:1035800004F01F03620903F1800338D11D4A52F889
:103590002330DB070AD40DF10306324621462846C4
:1035A00001F016FD184B984219D002962146284684
:1035B00003AA01F0E1FB154B98421DD101222146DF
:1035C000284601F063FDBDE7B3F1C06F05D0B3F14C
:1035D000007F14BF01230223C3E70323C1E7314661
:1035E000284601F04DFD094B9842DED06FF00B00EC
:1035F000A9E76FF08500A6E76FF01500A3E751F883
:103600002330FFDE002584500400AD0B0000AD0B1D
:103610002DE9F043594D5A4E5A4F00EB810181423A
:1036200002D10020BDE8F083046814F4805FC4F385
:10363000432C04F07F0340F08F807F2B4FEA14442B
:1036400008BF4FF0FF3315F80CC0192C00F287802B
:10365000DFE804F00D13191C1F251C8585858536B0
:103660006185858585858585858564797C7FC2F8BA
:103670000C355C1C5CD10430D1E7C2F814355C1CFD
:10368000F9D000245DE0C2F80835F2E7C2F8103541
:10369000F5E75C1CC2F80835EDD0002404E05C1CA2
:1036A000C2F80C35E7D001245FEA531E5AD14FF01F
:1036B0000108DFF8CCE008FA03F9CEF80C900AE034
:1036C000C2F80835BCF1000FD9D15C1CD3D000245E
:1036D0004FF0060CA046D0F8009009F4005EBEF151
:1036E000000F1CBF4FF00008012403F01F0E5B0900
:1036F0003ED106EB8E0EDEF80032C9F3C1193B4015
:1037000043EA890343EA0C2343EA080343EA4403F8
:10371000CEF80032AFE7C2F80C35D3E7C2F8603517
:10372000B3F1FF3F0468A6D0C4F38034002CBAD0B4
:103730005C091AD10124DFF848E004FA03F8CEF856
:103740000880A046C7E7C2F86435E9E7C2F86835E3
:10375000E6E7C2F86C35E3E76FF0150062E76FF05B
:1037600085005FE70023DB60FFDE00239B60FBE753
:1037700000230EF1800E53F82E30F5E7B2970000CB
:1037800000258450F0F8FCFFF8B504460D460769A3
:1037900005F0D8F890B91F4B1B787BB164266068A0
:1037A00003F00EF8E0B9012004F0D8FC013EF6D198
:1037B000F4E781F31188BFF36F8FEFE74FF0200339
:1037C000EFF3118183F31288BFF36F8F60680E46A9
:1037D00002F0F6FF90B981F31188BFF36F8FEDE728
:1037E0004FF02003EFF3118183F31288BFF36F8F43
:1037F00060680E4602F0E4FF0028DAD07B690122FF
:103800001D702046796902F01BFF86F31188BFF313
:103810006F8FF8BD773D00202DE9F74306464FF046
:103820000008002201210820FFF728FB0820FFF7ED
:10383000F5FA776835693C684146C4F800852E6022
:10384000D7F80C9001AA484602F0E0FE002839DBC8
:10385000019BD9F8002019791868FFF7D9FE0028D4
:1038600030DB6B7AD6F810C0012B03D0032B27D1A5
:103870004FF01008AB7A032B22D1E97A09B1012964
:103880001ED12A7A12B1022A1AD10E226B687068F0
:10389000B3F5164F006800F0B28034D8B3F5165F68
:1038A00000F0B0801AD8B3F5966F00F0AD800CD858
:1038B000B3F5967F00F0AB80B3F5167F00F0AA80D9
:1038C0006FF0850003B0BDE8F083B3F5166F00F02C
:1038D000A480B3F5965FF3D15C4B43E0B3F5E14FC1
:1038E00000F09E8008D8B3F5615F00F09B80B3F5CF
:1038F000964FE5D1564B35E047F6122E7345DFD192
:103900004FF400032EE0B3F5613F00F08D8015D831
:10391000B3F5963F00F08B800AD84DF6C02E734564
:1039200000F08780B3F5614FCAD14FF46B0319E003
:10393000B3F5E13FC4D14FF0EB7313E0B3F5612F62
:103940007AD009D8DFF80CE1734578D0B3F5E12FD0
:10395000B6D14FF0E86305E0DFF8FCE07345AFD186
:103960004FF08053C0F82435736841EA08011B68A2
:103970000A43C3F86C250CF10403D5E9010183E87F
:1039800003007B68990712D505F11C0001F002F9CC
:10399000324B984256D1287F04F10C0204F5907105
:1039A00004F0DEFB01202B7F984001F03FF8082354
:1039B000C4F800353B7A53B9C4F81031D4F810314B
:1039C000AB69C4F834350123C4F8383523607B680B
:1039D00000209A075CBF4FF48073C4F804337B68FF
:1039E000DB0644BF4FF48003C4F804336B69C4F8AA
:1039F00044350123C4F84805A360E36062E74FF44F
:103A00001D03AFE7164BADE74FF49E23AAE74FF433
:103A1000A033A7E74FF41C33A4E74FF41D23A1E71D
:103A2000104B9FE7104B9DE74FF06C739AE70F4BDD
:103A300098E74FF4650395E74FF0706392E74FF016
:103A400080638FE76FF004003CE700BF00B0130015
:103A500000A04E0090D0030040420F000000AD0BCC
:103A60000050270000C0750000F03A0000903A01B5
:103A70000123834070B5DC430B4AD2E8EF1F01EA13
:103A80000405C2E8E65F002EF7D14FF48032824091
:103A90000648C0F80823BFF35F8FBFF36F8F0B4258
:103AA00014BF0120002070BD6C1B0020005001508D
:103AB00070B40E4922F07F46D1E90034D01AC31801
:103AC00044F10004C1E90034A6F50013B3F5400F3A
:103AD00009D2074B1B681A0A1B069C19054B42F1B9
:103AE0000005C3E9004570BC01F036BD400100206F
:103AF000701B002048010020D9B101230D4A8340EA
:103B0000D2E8EFCF4CEA030CC2E8E1CF0029F7D1AD
:103B10004FF48033084A8340C2F80433074BD3E89C
:103B2000AF3FC340DB0742BF4FF40012044BC3F862
:103B3000002170476C1B002000500150681B0020C2
:103B400000E100E00D4B1868010A0006BFF35F8F2B
:103B50000B4BD3F80435181841F10001B3F5801F61
:103B60000AD2084BD3E90023904271EB030303D23E
:103B700010F1807041F10001704700BF701B002000
:103B800000500150480100202DE9F04F85B0164645
:103B90001F4604469DF840A0FFF76AFF0190FFF71B
:103BA000D1FFB04271EB070352D23B4B301A67EBA7
:103BB0000101984271F100014DD2384B03EB04131F
:103BC000D3E902239F4208BF964258D04FF4803871
:103BD000334908FA04F8204626F07F4BC1F84883A1
:103BE00002F096FE4FF00309584604F15005AD006F
:103BF000ADB205F1502504F5A87305F580350293A3
:103C0000029A20F07F4341F82230C1F84483D1F872
:103C10000435244AC01A033820F07F4090422ED940
:103C2000286868B1D1F80435A3EB0B0020F07F4081
:103C3000B0F5000F039322D9204602F069FE039BE2
:103C4000BAF1000F07D109EB030009F10109D7E729
:103C5000BAF1000F09D06FF0150520460199FFF762
:103C60004BFF284605B0BDE8F08F01230E4AA34064
:103C7000D2E8EF0F1843C2E8E10F0029F8D1074955
:103C80000E982301C8500F9B01EB04120025C2E9D6
:103C900002675360E1E700BF0100800030010020AF
:103CA00000500150FDFF7F00681B00207FB50025FC
:103CB0004FF0FF304FF0FF31194C1A4B0226C4F879
:103CC0000833C4F84833184BC4F80855C3E9020157
:103CD0004FF480334FF40012C4F80433134B012126
:103CE000C4F804631520C3F880212A46FFF7C6F8FC
:103CF0001520FFF793F801230D4AA360236013609A
:103D00000C4B0D4A009328460023CDE90155FFF7DF
:103D10003BFF3046FFF74AFA284604B070BD00BFAB
:103D20000050015003000F003001002000E100E0CE
:103D30006C1B0020B13A0000FFFF7F002DE9F74324
:103D40002E4BD3F8042390070BD5D3F8042142B1AE
:103D50000022C3F804212A4AD3F80431136801333E
:103D60001360264AD2F80433D90327D5254BD3E86C
:103D7000EF1F21F00100C3E8E40F002CF7D1CB07BF
:103D800002D4D2F84031CBB100251C4CC4F84051CC
:103D9000D4F84031FFF7D6FE4FF02003EFF3118245
:103DA00083F31288BFF36F8F174BD3E90267B042DA
:103DB000B94106D282F31188BFF36F8F03B0BDE81B
:103DC000F0834FF0FF38D3E900104FF0FF391D604A
:103DD000C3E902894FF48033C4F84833C4F8405132
:103DE000D4F8403182F31188BFF36F8F0029E5D0FA
:103DF000009032463B4628468847DFE70050015096
:103E0000701B0020681B00203001002030B5431CCF
:103E1000124C85B005D08442A8BF0446012CB8BF1F
:103E20000124FFF78FFE0E4B0C4DD3E90013401A0F
:103E3000B0F5000F0FD22218AA4228BF2A46002050
:103E400052180849CDE90100009143F10003FFF742
:103E50009BFE05B030BD2A46F1E700BFFFFF7F00A3
:103E600040010020B13A000008B5FFF76BFE024B9D
:103E70001B68C01A08BD00BF40010020012310B517
:103E8000074C15206360FEF7D7FF4FF40012054B77
:103E9000C4F80833C4F84833034BC3F8802110BD7D
:103EA0000050015003000F0000E100E030B58168D0
:103EB00085B0103921F00704054602F031F91022CF
:103EC0000146684602F004FA10226846064902F0EC
:103ED000F4F910236A462146284602F0F1F800382A
:103EE00018BF012005B030BDF48F000030B50D467D
:103EF000816887B0102302AA1039044602F0CBF87B
:103F0000002802DA012007B030BD1022204602A9A5
:103F100002F02DFD00283AD110221E4902A802F01D
:103F2000A5F900280CBF012302232B70204602F0C4
:103F30000AFD012301460DF10702204602F0ABF80D
:103F40000028DFDB9DF80730204603F00F021B0935
:103F50006A702B7101220DF1070102F008FD10B902
:103F60006B78042B03D901236B7000232B71A2689B
:103F70002046183A22F00702083AA91C02F00AFD6E
:103F80000028BFD12046E91C02F05DFDBBE70323FA
:103F9000CBE700BFF48F0000F0B5354F85B0460089
:103FA0000546694657F8260002F053FD044610B155
:103FB000FF2005B0F0BD013657F8260002A902F037
:103FC00048FD012837D12A4649212A4802F055F8F0
:103FD000294B8DF80C40029300229DF800609DF85B
:103FE0000870264C3146207802F0B3FC50B33946B5
:103FF000607802F0AEFC28B3A378042B03D09DF8C0
:10400000031099421ED1E378042B03D09DF80B10C6
:10401000994217D12379042B10D16279022A1DD13C
:10402000174B18482A46492102F027F86079831E69
:10403000022BBED9BCE70028CED0B9E79DF802100C
:104040009942EAD00132032A04F10604CAD10E488B
:104050002A46492102F011F80120AAE7032A05D0D7
:104060000A4B0B49042A08BF0B46DAE7094BD8E78D
:10407000348E0000E7970000030103037C980000E2
:10408000C99700003298000056980000CE970000B3
:10409000E0970000C4970000014B1B68184700BF61
:1040A00050000020014B1B68184700BF4C00002047
:1040B000024B1860024B002019607047500000202E
:1040C0004C000020044B1A790AB1824201D11868D1
:1040D00070470833F7E700BF3C8E000001680E4AC6
:1040E0000346914215D1C169A2F11022A2F1EF124B
:1040F00091420ED18268012A0BD8C26812B10169BF
:104100008A4206D0586928B19B691B1A5842584107
:1041100070470120704700BF55AA00FF70B50D4BD6
:104120009E68A6B13046FFF7D9FF044678B9F36818
:104130006BB935690DB9204670BD2846FFF7CEFF33
:1041400028B9EB68B34202D12E462D69F2E701246B
:10415000F1E700BF741B00202DE9F8433F4F3C6896
:10416000D4B1BC68C4B100284AD0002948D001FBB2
:1041700000F5B5FBF0F0884242D1281D40D8A907D0
:104180000DD025F003060436FC6803E06368B342F3
:1041900038D2A469002CF9D12046BDE8F8832E4618
:1041A000F2E7FB6041E006F120016318203A5A6013
:1041B0000022C3E902242A4822691A616050294971
:1041C000D96102B1D36062695A61A1699961AAB1EA
:1041D00093619A6902B153614FF001092361002391
:1041E000C4E90169C4E905333B69DB072ED5FFF754
:1041F00095FF58B31C4B48461B6826E0FB60E8E778
:104200000024C9E7A3681BB1174B01201B6898471E
:10421000626804F12008921B232AC4D80123A360FA
:10422000D4E90523002ABCD09361A3690BB162696C
:104230005A610023C4E905333B69DA0706D5FFF765
:104240006DFF18B10120084B1B6898472A460021D2
:104250004046444602F03CF89EE700BF741B002035
:1042600055AA00FF669911EE4800002070B505467A
:10427000002800F08880444E3368002B00F08380D3
:10428000B268002A7FD0834203D8726813449842F0
:1042900003D33E4B01201B689847A5F1200420461C
:1042A000FFF71CFF18B1394B01201B68984755F8E0
:1042B000183C012B03D0354B01201B689847002385
:1042C00045F8183C55F8143C3BB39A682ABB55F89E
:1042D0001C2C02F120015A680A445A6055E9053243
:1042E0001A6155F8145C2B6903B1DD6020220021AE
:1042F000204601F0EDFF286910B18368002B2ED015
:1043000033699B073FD5FFF709FF00283BD0BDE885
:1043100070401E4B01201B68184755F8100C0028F0
:104320002AD0836843BB42686368134420336360C8
:1043300003692361D4E905239AB9CBB94369636161
:104340008269A261B3B19C61A36903B15C61236915
:1043500003B1DC602022002101F0BAFFD0E72C4637
:10436000E1E79361A369002BE8D062695A61E5E750
:10437000F360F7E7F460E7E7F36845F8083C03B15A
:104380005C61F460BCE770BD741B00204800002035
:1043900038B50C46142200210546134801F098FF59
:1043A00012491348FFF784FE232C1CD915F0030390
:1043B0001FBF043CE418C3F10403ED18224600219A
:1043C000284601F085FF084B0A49C3E90054203C08
:1043D0009D606C609A6811609A68A1F11021A1F14A
:1043E000EF11D161DA6038BD741B00206D4200000E
:1043F0005941000055AA00FFF8B500F108064768CA
:10440000044630460D4602F0A8FC87424BD1636853
:10441000B3F5807F47D80021304602F096FD002892
:1044200041DD0021304602F084FCE0B345B9294665
:1044300004F1140002F089FD002834DD0020F8BDED
:1044400004F12C050021284602F07FFD00282ADD1A
:104450000021284602F06DFC28B304F13805002144
:10446000284602F072FD00281DDD0021284602F0DA
:1044700060FCC0B1002104F1140002F066FD0028C8
:1044800011DD002104F1440002F05FFD00280ADD87
:10449000002104F1500002F058FD002803DD002146
:1044A00004F15C00C6E70148C9E700BF80BFFFFF19
:1044B000012938B50546144601D0074838BD22B950
:1044C00001230020C5E92934F8E71046FFF7FAFD7B
:1044D0000028F5D1F1E700BF00BFFFFF70B5002154
:1044E0000446FFF789FF054610B10E4D284670BD02
:1044F00004F10806304602F02CFC7F28F5D914346C
:104500002946204602F015FC0028EED0204602F095
:1045100020FC0128E9D93146204602F0D5FC0028CC
:10452000E4DBE2E700BEFFFFF0B50C4687B00021F8
:1045300005461646FFF760FF002839D103A802F0B0
:1045400050FB21466A6803A802F00DFC044618B12E
:1045500003A802F04CFB0CE005F10804214603A877
:1045600002F0B2FC002807DB03A802F040FB6FF06A
:104570000304A4F5854418E005F1680303A96F68F6
:104580000846009305F11402234602F0B8FF0446E2
:104590000028DDD13A46314603A802F0FAFB044672
:1045A00003A802F024FB002CE3D1204607B0F0BDA5
:1045B000004CFAE780BFFFFF012903462DE9F041D7
:1045C00043D8234A002918BF9046224A224F18BFD9
:1045D000964602F1794202F5740202F5016218BFB3
:1045E00094461E4A1E4818BF17461E4A1E4E18BF44
:1045F000164602F1D14208BF804602F5C0121B48A0
:1046000002F51E6208BF8646194D1A4818BF1546A6
:10461000194A08BF8446194C194818BF1446A2F11C
:104620001162A2F50C22A2F28E2218BF02460020CF
:10463000C3E9028EC3E90000C3E904C7C3E9066504
:10464000C3E908429966BDE8F0816FF07300FAE7AC
:10465000D89E05C107D57C363AF54FA539590EF7D6
:1046600067E6096A310BC0FF7F520E5185AE67BB0A
:104670008C68059B72F36E3CA78FF964ABD9831FDE
:10468000A44FFABE2DE9F04FD1B00DF58E7B5A46FE
:10469000031D019300F124030393019B53F8040FBE
:1046A00042F8040F03989842F8D1DDE948074FF02B
:1046B00000094F9B4CAD0293DDE94AE30493424B62
:1046C00006AA059395E82011B9F10F0F63D84C782D
:1046D0000B78240444EA0364CB7823438C7843EAC0
:1046E00004234FEAF52A8CEA0804059E8AEAB51AE3
:1046F0002C408AEA756A84EA0C04544456F804ABE8
:10470000936054442344029C4FEA703A234440EAA5
:10471000070405968AEAB00A04EA0E0400EA0706CE
:104720008AEAB05A3443544409F10109DDF810A073
:10473000B9F1400F9A4402F10402234401F104014B
:10474000CDF808C0CDF810E01ED1CDE90634CDE992
:104750004E8CCDE94CA5CDE94A7ECDE94830019A91
:1047600052F8043F01925BF8042F1344019A13603E
:10477000039B9342F3D106A84FF4947100F0AAFF73
:10478000002051B0BDE8F08FBE46C4460746A8469B
:104790001846554698E7136852F8384C4FEAF34AE2
:1047A0008AEA734A8AEA932A52F8143C52F8346C23
:1047B000234452F8344C53444FEAB44484EAF61488
:1047C00084EAD60423448CE7548E000008B5EFF346
:1047D0001083012B0C4A07D1126ABFF34F8F511C73
:1047E0004A424A41104608BD03F096FC00B172B639
:1047F000126ABFF34F8F531C5A425A4103F08CFC8C
:104800000028EFD062B6EDE70080FF0008B5EFF3B7
:104810001083012B0B4A06D1D269BFF34F8F02F0F0
:104820000102104608BD03F077FC00B172B6D269F0
:10483000BFF34F8F02F0010203F06EFC0028F0D0AE
:1048400062B6EEE70080FF0010B503F065FC30B102
:104850004FF050230022C3F81421C3F8182103F0AD
:104860006AFC28B101224D4BC3F8382AC3F87825D9
:104870004FF47F02D2F83031D2F83421BFF34F8F9A
:10488000C3F30B03092B05D1012A1EBF0122434BA1
:10489000C3F8782503F04FFC18B10E22404BC3F843
:1048A000E42E03F039FC30B100223C4BC3F80C2756
:1048B0000122C3F810270022D30003F57F03D3F8A9
:1048C0000013BFF34F8F013108D0D3F8001301322A
:1048D000D3F80433B2F5807F0B60EDD1EFF3108491
:1048E000FFF794FF00284DD0BFF34F8F2D4BD3F827
:1048F0000024012AFBD1C3F80425D3F80024012A9F
:10490000FBD1012C03D003F007FC00B172B6FFF716
:104910007DFF58B1244AD36923F00103D361BFF36B
:104920004F8F204AD2F80034012BFBD1FFF74EFF06
:1049300068B11D4A136A23F0FF0343F0200313629A
:10494000BFF34F8F174AD2F80034012BFBD1012C53
:1049500003D003F0E1FB00B162B60022114BC3F8B3
:104960000425D3F80024012AFBD1BFF34F8F0F4950
:104970000F4BCA6802F4E0621343CB60BFF34F8F62
:1049800000BFFDE7FFF722FF0028ADD1074AD2F8AC
:104990008C3043F44063C2F88C3010BD00400050AE
:1049A00000A00350009003500080FF0000ED00E0E5
:1049B0000400FA0530B50468ACB1B4FA84F30122FE
:1049C000C3F11F03DBB29A4024EA0202D0E8EF5F92
:1049D000A54204D1C0E8EC2FBCF1000FF6D1EAD11A
:1049E00002480B7030BD0248FCE700BF0000AD0B71
:1049F0000200AD0B10B50368CB40DB0710D40123D8
:104A00008B40026843EA0201D0E8EF4F944204D1A0
:104A1000C0E8EC1FBCF1000FF6D1F2D1014810BD87
:104A20000148FCE70000AD0B0400AD0B014BC3F8DF
:104A30000405704700700150044B1A7922B9012215
:104A400018601A710248704702487047881B00209E
:104A50000000AD0B0C00AD0B08B5084B1B6833B163
:104A60000520FEF7FDF910B90520FEF7D7F94FF044
:104A700050230122C3F8182508BD00BF881B002061
:104A800010B510B1012847D010BD4FF05023D3F816
:104A90001814D3F81824C90322D502F00303022BFB
:104AA00005D0012B02D0002003F061FB01234FF061
:104AB00050220220C2F8183508224FF482730021D8
:104AC00003F1502319601C68012402F15022146084
:104AD000164A126822B34FF05023C3F80403D3E7F9
:104AE000D3F81424D207E1D5D3F81C2402F0030232
:104AF000013A012AD7D80D4A12681AB10222C3F826
:104B00000423C1E7D3F80421002AFBD00022C3F814
:104B10000421D3F80431B7E700224FF48073CEE7C5
:104B20001A68002AFCD019601B68ADE7881B0020BA
:104B30004FF0502310B5D3F8002152B10020C3F834
:104B40000001D3F800210122C3F80823104B1B6891
:104B500098474FF05023D3F8042182B10022C3F8C4
:104B60000421D3F80421D3F81824D3F818240221FF
:104B700002F00302012A03D1C3F818159A6010BD90
:104B8000C3F80813024B0120BDE810401B6818470A
:104B9000881B002001460148FFF70CBF540000208D
:104BA000036803F01F025B090260024818BF00207F
:104BB000704700BF0025845070B50D4C00F108030C
:104BC00034F813300546DA050E4607D5C3F3432300
:104BD00004EBC302526854F833309847A3682BB1F2
:104BE00031462846E268BDE87040184770BD00BFF6
:104BF00058000020024611F0010004D003490B6A5E
:104C000013600B6203B90020704700BF0025845079
:104C100010B4124AC0B2083032F81030D9051BD592
:104C2000C3F3432123F4F85322F81030002002F19B
:104C30000E0434F8023F13F4807F03D0C3F3432300
:104C4000994209D001302028F3D1002342F83130B5
:104C5000034810BCFFF7CEBE10BC704758000020C0
:104C6000B0000020F0B505460020012604460746A6
:104C70008C420BD1114BD3F87C2132B10022C3F806
:104C80007C21D3F87C3140F00040F0BDE3B29B00C2
:104C900003F580729B0806FA03F31D420BD002F164
:104CA000A04202F55042D2F800C0BCF1000F02D081
:104CB0001760126818430134DAE700BF00D00050D3
:104CC000CBB2024608460D49083331F81330990635
:104CD00011D599070FD4012110685B0B9940C0F8DA
:104CE0000813126802EB8303D3F8102522F00302A5
:104CF000C3F810257047002103F0DDBA58000020EA
:104D0000F7B5194ECDB2083536F815300746DB0732
:104D10000C4626D5FFF7D4FF36F815309A0608D58D
:104D20005A0B3B6803EB82030022C3F81025C3F83B
:104D300010252046FFF76CFF002301A826F8153048
:104D40000194FFF72DFF019B00EB8300D0F80022B8
:104D5000064B134043F00203C0F80032044803B08E
:104D6000F0BD0448FBE700BF58000020F0F8FCFF4E
:104D70000000AD0B0400AD0B2DE9FF4113680746A1
:104D80000C461646FBB1DFF83C81CDB2083538F849
:104D9000152002F02202222A22D000222046CDE94C
:104DA00000228DF80E208DF80F200DF10E010DF16F
:104DB0000F0203F037FA38F8153023F0020343F0FE
:104DC000010328F8153073684BB31A785868DFF878
:104DD000F4C0E3B208333CF813108D0702D5B0B12C
:104DE00039481FE021F02001C904C90C2CF8131028
:104DF00068B1032AF4D870683D68406890F800E014
:104E000005EB8E058AB9C5F81025C5F810253CF8C4
:104E1000131021F01C0141EA82022CF81320B36820
:104E20002BBB2A4804B0BDE8F081D5F8108541EAD3
:104E30004E3128F00308C5F810853D6841F0200187
:104E400005EB8E05D5F810052CF8131020F447302B
:104E500020F44070C5F810052002D5F8107500F454
:104E6000F85040EA02403843C5F81005CFE7204625
:104E7000D3E90067FFF7CCFE002ED2D0114DD5E963
:104E80000023964203D19F4201D1002209E010483D
:104E90000DF10F01FFF78EFD0C4B9842C2D19DF82A
:104EA0000F20E4B205EBC20308345F6035F814301C
:104EB00045F8326043EA422343F4807325F8143006
:104EC000AFE700BF580000200400AD0B0000AD0BA1
:104ED000B00000202DE9FF4107460C461E4612B3E4
:104EE000DFF8D480CDB2083538F81530980701D4F2
:104EF000990621D413F01C0F02D05378012B1BD03C
:104F000001238DF80F3000232046CDE900230DF159
:104F10000F01931C013203F085F938F8153043F086
:104F2000030328F81530002E44D0234DE1B2083198
:104F300035F81120930703D4204804B0BDE8F08170
:104F4000002096F800E03B6822F02002D20403EB38
:104F50008E03D20CC3F8100525F81120C3F81005F4
:104F600096F801C04FEA8E08BCF1000F22D03868D5
:104F7000B6784044D0F810354FEA0C4C23F498131F
:104F800023F4F853C0F81035230203F4F8530CF45B
:104F9000403C3605D0F8107543EA0C0306F4801641
:104FA000334342EA4E323B4342F02002C0F8103510
:104FB00025F811200248C0E7580000200400AD0B7E
:104FC0000000AD0B014BC3E90212704758000020EE
:104FD000054BC9B2083133F81130990643BF5B0B5A
:104FE0000248137002487047580000200000AD0BC3
:104FF0000400AD0B70B5174E054696F860403CBBFB
:105000002146402206F1100001F062F921462D6888
:10501000306D884212D1002345F30730C5F87C314A
:10502000D5F87C31FDF7FAFE4FF00043C5F80433A4
:105030000123094886F86030B36570BDCBB29B0090
:1050400003F580727C2B04BFAC50AB580131E0E714
:105050000248F2E7580000200000AD0B0C00AD0B39
:10506000034B93F86000003818BF0120704700BF61
:10507000580000200148FFF7BDBC00BFAC00002075
:105080000148FFF797BC00BFAC00002073B5CBB25E
:105090000C461D49083331F8133099061AD513F020
:1050A000020617D15B0B05689C0004F580716E50F9
:1050B000695801682144D1F8104544F00104C1F851
:1050C00010452AB10122016802FA03F3C1F8043342
:1050D00002B070BDC3F38203042B11D0052B11D095
:1050E00001A80194FFF75CFD019A0369D34003F026
:1050F0000103991C204602B0BDE8704003F0DBB804
:105100000321F7E70221F5E7580000202DE9F347D6
:10511000534B544FD3F80403396DC0B240F00040F4
:10512000FFF7A0FD051E18DA00236846F96D00930D
:105130004FF00108FFF75EFD97F85C30DA0757D4AF
:10514000396D4FF00040FFF78DFD6846F96DFFF7B0
:1051500051FD0028F0D125F000450124002D66D135
:1051600002B0BDE8F08794FAA4F4B4FA84F4E0083D
:1051700004F1080337F8139004F007021DF800301B
:1051800008FA02F223EA02030DF8003001A80194A4
:10519000FFF706FD019B4FEA9901803350F8236029
:1051A000C9F3820A4B07D146C6F3014624D52046EF
:1051B0005146FFF701FD01A80194FFF7F1FC019BA7
:1051C000F6B2803350F82330C3F301439E4207D137
:1051D0000021204603F06FF83146204603F06BF8BB
:1051E00001A80194FFF7DCFC019B08FA03F30362BA
:1051F000009C002CB7D1A3E7022E0CD1032120463E
:1052000003F059F80AF00503012BE9D1494620467D
:10521000FFF7D2FCE4E70221204603F04CF8BAF194
:10522000030FF3D0032EDBD1BAF1020FEDE795FAAD
:10523000A5F3B3FA83F304FA03F29B0003F1A0434E
:1052400003F55043D3F81005D3F81015C0F304202C
:10525000C1F3014125EA0205FFF7AEFC7EE700BF7E
:1052600000D00050580000200022034BC3F88425D2
:10527000C3F80425704700BF00900350044AD2F8D9
:105280000834DB07FBD50160BFF35F8F704700BFB9
:105290000090035008B5C0F30B0383B90222094BF9
:1052A000C3F88425C3F804254FF0FF320260D3F819
:1052B0000024D207FBD5FFF7D7FF034808BD0348FA
:1052C000FCE700BF009003500000AD0B0A00AD0BDF
:1052D000012208B5054BC3F88425C3F80425FFF760
:1052E000CDFFBDE80840FFF7BFBF00BF00900350EF
:1052F0000346084600B97047421E995C09B910463A
:10530000F8E7022807D90238062896BF024B002387
:105310001B5C0120984070478E98000070B51C46B9
:10532000012C054603681646C06816D11278172A64
:1053300004D90233984214D3002321E00133984268
:105340000FD30024284603F027FA60B13444B44256
:1053500019D1AB680133AB6006E0621C134498427C
:1053600006D26B690BB9002070BD0822DA60FAE73B
:105370000CB93278E6E7A31E062BDDD8054AD35CCC
:105380001833DAB2DEE72B685A1C2A6014F8012DB4
:105390001A70DCE78E980000104B70B553F820406F
:1053A000013053F82060A64200D870BDD4E9003522
:1053B00095B153B12846984738B10028B8BF40424C
:1053C000FF28A8BFFF20EB681870EA68537843F005
:1053D000010353700834E6E79847FBE7548F000059
:1053E000012208B5084B03201A70FFF7D5FF00F023
:1053F0001BF90420FFF7D0FFFBF70CF8034A137BDF
:1054000023F00103137308BD773D002050010020F5
:1054100008B50348034A0021121A03F08FFA08BDA9
:1054200030010020783D002008B50020FFF7B4FFD0
:10543000164B03F5006282F3088883F30A8800257F
:10544000E023134C84F82230E57725766576A5763F
:1054500084F82050636A43F4E023636284F82350A5
:10546000FDF752FCFDF75AFD4FF0FF33A362E362F4
:1054700003F048FA0120FFF78FFF0220FFF78CFFAF
:105480002B462A4629460348FDF72AFD783D002091
:1054900000ED00E0E153000008B50648064A074960
:1054A000121A03F04DFABDE80840054A05490648BE
:1054B00003F046BA000000202C010020C498000030
:1054C00000000000C498000000000020034B1B688F
:1054D0000BB9FEF7C9BC0020704700BF901B00202D
:1054E00010B50E4B1C689C4204D1FFF7EFFF6FF024
:1054F000004010BDFFF7EAFF002CF8D0D4E90432D9
:105500001B1A62EBE072B3F1004F72F10001EEDAA8
:10551000002AACBF18460020EBE700BFBC0000200B
:1055200030B570B10B4B5B6898420AD0036843B149
:10553000D3E90421D0E90445121941EB0501C3E97F
:105540000421D0E9003213605A600023C0E900331F
:1055500030BD00BFBC0000202DE9F84F4FF0200304
:10556000EFF3118C83F31288BFF36F8FDFF8ACA0D9
:10557000DFF8AC900024C9F80000DAF8000000253C
:10558000504508BF0020274FE046D7E90021D9F851
:10559000003080B3D0E9046C4FEAE37EB3427EEB87
:1055A0000C0B05DAF61A6CEB0E04C0E9046422E079
:1055B000B21841EBE671C0E90445C7E90021FFF7E5
:1055C000AFFF88F31188BFF36F8F836898474FF060
:1055D0002003EFF3118883F31288BFF36F8FD9F89C
:1055E0000030DAF800009B1B5045C446C9F8003073
:1055F000CAD1D7E9002100249A1841EBE373C7E927
:105600000023C9F80040FFF76BFF2146FEF7FEFBC1
:1056100088F31188BFF36F8FBDE8F88FBC000020BE
:10562000901B0020D0010020014800F03FBC00BFCB
:105630009598000010B50A4C23681BB10123236024
:10564000002010BD00F050F80028F7D001380628DF
:1056500003D8044B53F8200010BD034810BD00BF11
:10566000941B00206C8F0000FE8FFFFFBFF34F8F55
:105670000549064BCA6802F4E0621343CB60BFF3EE
:105680004F8F00BFFDE700BF00ED00E00400FA050A
:1056900030B44FF0FE320025074B084C08494968EA
:1056A000C3F80024C3F80424C3F80824C3F80C2466
:1056B000C4F8005530BC08470010845000008450E6
:1056C000C4000020024BD0E90012C3E90012704769
:1056D000C400002038B131B100220144034601303A
:1056E00088421A70FAD1704738B500F02FF820B10F
:1056F000032400F063F8204638BD00F031F898B973
:1057000000F0ACF898B90F4DD5F828391B0EF02BE6
:1057100008D1D5F8242A0C4B9A420AD0072400F06D
:1057200017F8E6E70624FAE70424204638BD0024EB
:10573000F5E7012000F092F804460028F7D1C5F8FB
:105740000C0AD8E7001084500000E02000207047C9
:1057500000207047014BC3F8040A704700108450C2
:1057600010B5114800F048F800B110BD0F4800F026
:1057700043F80028F9D10E4C204600F03DF80028EF
:10578000F3D10C4B0C481C6000F036F801460028A1
:10579000EBD100F02DF8044608B1204610BD00F012
:1057A0003FF82046FAE700BFDC000020D8000020C8
:1057B000D4000020CC000020D000002008B508480C
:1057C00000F024F8074800F021F8074800F01EF820
:1057D000064800F01BF8BDE8084000F00BB800BF19
:1057E000DC000020D8000020D4000020D0000020E1
:1057F00000207047704700BF08B5034B02681B6864
:1058000010689847002008BDF400002008B5034B3D
:1058100002685B6810689847002008BDF40000200B
:1058200070B5094C094D2069AB68984718B1084B11
:1058300008485B6898470021074AEB6811602069B7
:10584000BDE87040184700BFE0000020F4000020D1
:10585000C4000020888F0000981B0020F8B51A4D66
:105860001A4E0446B26828699047E8B9184F3B6859
:105870004CB1A3B1012B19D0013B3B602869F368FF
:1058800098470020F8BD43B90121124AC2F800151B
:105890001149D1F81029002AFBD101333B60F3688C
:1058A000286998470020F8BD0C48F8BD0A4AD2F88C
:1058B0001039002BFBD1074A6FF07E40C2F800354B
:1058C000FFF748FF3B68D7E7E0000020F400002026
:1058D000981B00200000845000108450E98FFFFFC7
:1058E00010B5044650B1636813F0685F05D0064AEE
:1058F000934202D000236260236010BD034B044832
:105900005B689847EFE700BF2C5F5CA9C4000020EC
:10591000A88F0000C8B143680D4A934213D013F01A
:10592000685F0ED0012350E8002F194640E8001CA4
:105930009CF0000FF7D1012AF5D0BFF35F8F002054
:10594000704704487047044870476FF4E040704760
:105950002C5F5CA9E98FFFFFEA8FFFFF034680B150
:10596000426809498A420AD012F0685F05D0BFF345
:105970005F8F002210461A60704704487047044841
:1059800070476FF4E04070472C5F5CA9E98FFFFF20
:10599000EA8FFFFF10B5044620B10023034A2360BD
:1059A000626010BD0248FFF773FEF6E73A00003A66
:1059B000D08F00000020704730B5836804468B42CA
:1059C000154685B00ED96368C068194401AA00F075
:1059D000A0FD28B96268019B9B1A2B60029B6B603B
:1059E00005B030BD6FF02100FAE72DE9F7430E4610
:1059F00017469946044628B94FF0FF38404603B091
:105A0000BDE8F0830029F7D0002AF5D0CB680D89D6
:105A100038461D44042329460DEB030200F03BFBEE
:105A200080460028E8D146F60812BDF804107389B4
:105A3000914225D1BDF806109942DDD104233846A4
:105A40000DEB0302294400F026FB0028D4D146F6D2
:105A50000713BDF804209A42CED1C4E900679DF82F
:105A60002830A4F80890A3727389BDF806202B444F
:105A7000E360738913442B44043563612561BDE7FA
:105A8000002BE4D0B8E72DE9F3410E4617461D463A
:105A9000044620B94FF0FF3002B0BDE8F081036842
:105AA000002BF7D04368002BF4D04FF6FF78D4E9F1
:105AB00004239A4216D223685B8923B1E368934298
:105AC00004BF043323610423216960680DEB0302E2
:105AD00000F0E1FA0028DDD1A37A2BB1D4E903323A
