:020000040000FA
:1000000058A60120412E00005F670000152E000059
:10001000152E0000152E0000152E0000152E0000D4
:10002000000000000000000000000000D1290000D6
:10003000152E000000000000152E0000152E0000F7
:100040002D2A00002D2A00002D2A00002D2A000054
:100050002D2A00002D2A00002D2A00002D2A000044
:100060002D2A00002D2A00002D2A00002D2A000034
:100070002D2A00002D2A00002D2A00002D2A000024
:100080002D2A00002D2A00002D2A00002D2A000014
:100090002D2A00002D2A00002D2A00002D2A000004
:1000A0002D2A00002D2A00002D2A00002D2A0000F4
:1000B0002D2A00002D2A00002D2A00002D2A0000E4
:1000C0002D2A00002D2A00002D2A00002D2A0000D4
:1000D0002D2A00002D2A00002D2A00002D2A0000C4
:1000E0002D2A00002D2A00002D2A00002D2A0000B4
:1000F0002D2A00002D2A00002D2A00002D2A0000A4
:100100002D2A00002D2A00002D2A00002D2A000093
:100110002D2A00002D2A00002D2A00002D2A000083
:100120002D2A00002D2A00002D2A00002D2A000073
:100130002D2A00002D2A00002D2A00002D2A000063
:100140002D2A000053B94AB9002908BF00281CBF56
:100150004FF0FF314FF0FF3000F070B9ADF1080CF7
:100160006DE904CE00F006F8DDF804E0DDE90223D5
:1001700004B070472DE9F047089E0D4604468A46B4
:10018000002B7FD18A42174641D9B2FA82F24AB196
:10019000C2F1200105FA02F39740944020FA01F1E0
:1001A00041EA030A4FEA17484FEA144C1FFA87F94D
:1001B000BAFBF8FE08FB1EA30EFB09F14CEA034351
:1001C000994206D9FB1802D2994200F224810EF11D
:1001D000FF3E591AA3B2B1FBF8F008FB101100FB67
:1001E00009F943EA0144A14505D93C1902D2A145C8
:1001F00000F20E810138A4EB090440EA0E40002110
:100200001EB1D4400023C6E90043BDE8F08702B91F
:10021000FFDEB2FA82F2002A4FD1CB1B4FEA174E13
:100220001FFA87F80121250CB3FBFEFC0EFB1C30E6
:100230002B4608FB0CF945EA0045A9450AD97D196A
:100240002CBF01230023A94502D9002B00F0D9803F
:100250000CF1FF3CA5EB0905A3B2B5FBFEF00EFBCC
:10026000105508FB00F843EA0544A04505D93C19A0
:1002700002D2A04500F2C9800138A4EB080440EA8C
:100280000C40BDE78B4208D9002E00F0B180002160
:10029000C6E900050846BDE8F087B3FA83F10029F6
:1002A00046D1AB42C0F0A780824240F2A48008460B
:1002B000002EAAD0C6E9004AA7E7C2F12000974065
:1002C00001FA02F34FEA174EC14024FA00F51FFA73
:1002D00087F894401D43B1FBFEF02B0C0EFB101170
:1002E00000FB08FC43EA01439C4509D9FB182CBFDD
:1002F000012100219C4502D9002900F09580013898
:10030000A3EB0C03ADB2B3FBFEF10EFB113301FB0B
:1003100008FC45EA0345AC4505D97D1902D2AC4538
:1003200000F289800139A5EB0C0341EA00417AE72C
:10033000C1F120048B4002FA01F705FA01FCE2400A
:1003400020FA04F8E54000FA01FE134348EA0C02E3
:100350004FEA13484FEA124C1FFA83F9B5FBF8FA3B
:1003600008FB1A550AFB09F04CEA054C60450AD90E
:1003700013EB0C0C2CBF01250025604501D9002D85
:1003800055D00AF1FF3AACEB000C92B2BCFBF8F08E
:1003900008FB10CC00FB09F942EA0C4CE14505D9F9
:1003A00013EB0C0C01D2E1453BD8013840EA0A407E
:1003B000ACEB090CA0FB0789CC4545464A4602D365
:1003C00006D1C64504D20138B8EB070569EB030234
:1003D0002EB3BEEB05036CEB020C23FA01F20CFA10
:1003E00004F42CFA01F300211443C6E900430CE79E
:1003F0003146304609E7841A65EB030301209A462B
:1004000056E7ACF1020C3D4424E702383C4434E7A3
:1004100002383C44EFE6AEF1020E3B44D9E63146E9
:10042000F3E602389C44C1E702383B4468E7AAF18E
:10043000020A9C44A7E702393D4474E7704700BFB5
:100440007FB53F4B3F4A4048C3F800264921C3F8D7
:100450000426C3F80826C3F80C26C3F81026C3F8F0
:100460001426C3F81826C3F81C2605F032FE00F047
:10047000AFF8364800F07EF828B94521334A3448B1
:1004800005F027FEFEE7334804F070FF04460269DA
:100490008168136823F0806313600B684FF48872DF
:1004A0001A219847A36820465B6801A9984790B92C
:1004B000019B5A010FD44FF05023D3F800340BB1F5
:1004C000DB0708D54921244805F003FE01F05AFD59
:1004D000224802F0D9F801A800F0DAFC204B1B6892
:1004E000834204D045211F4805F0F3FDFEE7039A3F
:1004F00049211D4805F0EDFD49211C4805F0E9FDA5
:1005000069469DF8080000F041F8009B039C1C44DC
:10051000019B1D8900F064FF66194FF02002EFF384
:10052000118382F31288BFF36F8F635983F30888B6
:100530007368984745210E4805F0CBFDFEE700BFE4
:10054000008001503546526E3B90000054900000F0
:1005500067900000869000008D900000688C00007D
:100560001C470120B1900000D490000003910000CE
:100570002891000010B5044C236813B904F0F6FE6E
:100580002060206810BD00BF18470120024608B552
:1005900038B105480023452105F09BFD6FF015009B
:1005A00008BD0860FCE700BF4B9100001FB5074A7B
:1005B00003460C461068194601AA06F054FA18B909
:1005C000019B2360029B636004B010BD18470120AB
:1005D0004FF4C051014803F059BF00BF8E600120A5
:1005E0002DE9F04FDFF8F891F9B038A81746DDE9AA
:1005F00084481D46DDF808B2D9F8006008F085F897
:10060000002138A804F052F8CDF80C903CB1B8F1B4
:10061000000F04DD4246214638A808F07AF84FF072
:1006200000097B89B7F808809844FB689844C8455E
:100630004BD80DA938A808F0A9F8869B23B1202231
:1006400018460DA906F0D5F800232A46009339462E
:100650004FF6FF7307A805F0CBF90446002840F0D9
:10066000B58080464FF0FF37DFF878910DF1160323
:1006700005AA06A907A805F007FA041EC0F2A6807D
:1006800040F09780BDF816A0BAF1100F34D1BDF834
:100690001480B8F1200F40F0978043462846069911
:1006A00038AA05F024FD0446002840F08F80424619
:1006B00038A90DA805F033FA0446474B1B6883425E
:1006C00040F084804FF00108D0E7839AA8EB09033B
:1006D0009A4228BF1A4649461346924628465A4629
:1006E00005F005FD0446002870D15246594638A849
:1006F00008F00FF8D1449AE7BAF1010F36D1BDF8EE
:100700001430202B60D82846069938AA05F0EFFC53
:10071000044600285AD19DF814A0BAF1200F03D93D
:100720004FF0FF342746A1E7D9F800302B4F029352
:10073000029B9C42F4DA1DA807F0E7FF00211DA8E8
:1007400003F0B4FF7B681DA81A6857F8081B07F070
:10075000E0FF15A91DA808F019F8524638A915A8F8
:1007600006F020F80028DDD00134E1E7BAF1200FCF
:100770007FF47CAF002F19DBD9F80030BB4215DDC8
:10078000BDF81430B3F5807F1ED12846069938AAEB
:1007900005F0ADFC0446C8B9FFB25146BDF81430AF
:1007A000009738AA0DA800F01FF806464FF0FF3753
:1007B0005CE7B8F1000F0DD0074B1B68B34201D0C6
:1007C000039B1E68344601E04FF0FF34204679B0A9
:1007D000BDE8F08F0124F9E71C470120748C00006C
:1007E00000450120708C00002DE9F04F9846ADF5D2
:1007F0004B7D6B4B074627A89DF850638A46914670
:100800001D6807F03FFF674B8AAA53F8364003EB99
:10081000C6035B680294196802A80C443023214681
:1008200006F0E1FB68BB029B8A9A13449C4228D1E4
:10083000214629AA02A806F0EAFB10BB0DF1B00B75
:100840005A46214602A806F0E2FB0646C8B929A886
:1008500007F019F8029B28909C4212D13346324689
:10086000CDE9006B29A927A807F0C8FE48B927A839
:1008700003F0BAFE28B929A807F005F880452890AA
:100880000AD027A807F008FF27A807F005FF284689
:100890000DF54B7DBDE8F08FB8F5807F02D04FF0AD
:1008A000FF35F1E7BAF1200FF9D149468AAA27A806
:1008B00003F0BEFE04460028F1D19DF82733BC2B7F
:1008C000EDD10DF5A478DF26454603900CA807F07E
:1008D0001CFF00210CA803F0E9FE20220DF20731D5
:1008E0000CA807F016FF042203A90CA807F011FFBB
:1008F00004A90CA807F04AFF1F2ED4BFB1464FF041
:1009000020099DF80F30404601334A4604A9A6EB62
:1009100009068DF80F3005F06CFF002EC844D5DCB9
:1009200028462A46DF238AAE117816F801CB013B10
:1009300081EA0C0102F8011BF6D12B7803F07F034A
:100940002B7010F8016B002EA9D10134BE2CF8D108
:1009500095F8BE30012BA2D10CA807F0D6FE314687
:100960000CA803F0A3FE08220F490CA807F0D1FE43
:10097000394620220CA807F0CCFE20220DF20721D8
:100980000CA807F0C6FE04A90CA807F0FFFE202261
:100990000DF2073104A805F0C2F8054681E700BF53
:1009A00000450120748C0000719100002DE9F04198
:1009B000022386B00D466F460026DFF86880ADF84A
:1009C000003017F8010B01A901F0D8F90446A0B9CD
:1009D00001981023816802AA103905F088FB0446AB
:1009E000019805F083FB44B91022414602A805F0A6
:1009F000D9FE40B12EB14FF0FF34204606B0BDE81D
:100A0000F0810126DDE7019806F00AFA0423A0F13F
:100A100008012A46019805F06AFB0446019805F092
:100A200065FBEAE77C8E00002DE9F041384B88B089
:100A3000064600200D461C6804F0CFFF06A9C0B290
:100A400001F09CF9002857D1294604F0C6FF2C2458
:100A500007A9C0B204FB056401F090F9002836D064
:100A60004FF02C0808FB05F806EB0807396911F070
:100A7000100137D14FF480730193264B2246009327
:100A80000846CDE90311069B0291FFF7A9FD044634
:100A9000214B56F8082006989A420CD13A89FB68F7
:100AA000D1438B4207D813448268934203D21B4B35
:100AB0001B68A3421DD045B38268002105F066FB88
:100AC000174A4521174805F004FB012411E0079857
:100AD00005F094FB0746079805F008FB631EE21C2F
:100AE00093420DD1002DF0D03046069905F014F94F
:100AF0002C46069805F0FAFA204608B0BDE8F081C9
:100B000013F8011FB942EBD0AAE7074AD9E700BFA3
:100B1000004501208E7801203DB8F3961C47012046
:100B2000799100008B9100008391000073B50D4610
:100B3000002104462846CDE9001105F0ACF830B399
:100B4000164E2268B24203D1204601AA05F018F8D9
:100B5000E36AB34204D16A460121204605F010F849
:100B6000DDE90032934288BF0193019BAB60019A9B
:100B70002946204600F03AFB094B1A68002A03DD9B
:100B80005721084805F0A5FA002002B070BD05F114
:100B90000801FFF70BFFAB680193E8E73DB8F39658
:100BA000805B0120B39100002DE9F84F8846914603
:100BB0009A460026DFF870B0194C1A4D0B9B9E42E6
:100BC00001D300200FE00B9B40469F1BB7F5806FC1
:100BD00028BF4FF48067144A3B4606EB0A0105F034
:100BE00086FA10B10120BDE8F88F0A993B465A46B3
:100BF0004846711805F097FA0028F3D1C4F800565A
:100C00003E44C4F80456C4F80856C4F80C56C4F858
:100C10001056C4F81456C4F81856C4F81C56CDE73C
:100C2000008001503546526E804701202DE9F04387
:100C30000F4600218E4B85B01E688E4B04464362E2
:100C40008D4B0365084604F0C8FE04F12001C0B2D4
:100C500001F094F80121002004F0BFFE04F14C01E2
:100C6000C0B201F08BF80546204604F0E9FF80464B
:100C700068B900222046114604F0CAFF804608B336
:100C8000002257217D4805F024FA012392E04FF419
:100C9000807257217A4805F01CFA0123984584F8A0
:100CA0005830E6D194F85830042B8DF8073000F214
:100CB0008480012B00F2888000F09F80FF2384F85D
:100CC00058309AE0204600F0A7F90028DDD06846A9
:100CD00004F0D8FF6946204605F073F818B1424683
:100CE00057216848CFE7684604F0D5FF80F001013E
:100CF0006A462046C9B204F08BFF02460028BFD1E5
:100D0000684604F0C8FF804660BB69462046FFF78E
:100D10000DFF9DF8073084F85830033B012B06D8AF
:100D2000404605F09CF810B1FF2384F858309DF838
:100D30000730023B022B0BD8002005F07EF838B1BB
:100D4000FF2384F8583045214F4805F0C2F9FEE7EB
:100D500094F85830FF2BF6D06A460021204604F064
:100D600057FF92E79DF80790B9F1010F17D1104690
:100D700003F0C0F9831E022B80460DD84946204659
:100D8000FFF752FE414B1B68984205D001280CBF6B
:100D90004FF001084FF0050884F8588082E70121E0
:100DA0002046FFF741FE394B1B68984214BF0523CC
:100DB0009DF8073084F8583074E7052B7FF47EAF38
:100DC000002005F04CF813E069462046FFF7AEFE20
:100DD00094F858300546DA1E012A0CD8002005F098
:100DE0003EF8054600287FF469AF002005F025F89D
:100DF000054610B162E7022BF7D094F85830FF2B6C
:100E000004D14521204805F064F9FEE7012B06D006
:100E10006A460021204604F0FBFE0546D0B90021B9
:100E20002046FFF701FE0646DFF86080D8F8003064
:100E300098420FD110220021684605F0E5FC206A97
:100E400004F0D4FD00253871236AD8F800605B688F
:100E50003C60BB60E06C05F049F9206A05F046F99A
:100E6000002D14BF2846304605B0BDE8F08300BF12
:100E700000450120804B0120805301202492000076
:100E8000E2910000509200007A9200001C4701207D
:100E900038B5064D044660220021284605F0B4FC12
:100EA00021462846FFF7C2FE38BD00BF204701207B
:100EB00073B516461C4633B3436A5D686379012BEC
:100EC00015D101BB1F4B22681B689A4298BF0025B1
:100ED000002004F082FD01A9C0B200F04FFFF0B184
:100EE0000125019805F002F9284602B070BD022BD9
:100EF00009D12368012B08D9124A1268934202D8FB
:100F0000B1FA81F149090025E2E7FCD10029DFD0DF
:100F10000129F8D12179023918BF0121F3E72946C7
:100F200020233246019805F0E2F805460028D7D183
:100F3000002CD6D0356804482D1A18BF4FF0FF3565
:100F4000CFE700BF044501203DB8F3962DE9F04FEF
:100F500007460C4685B001460020164604F0E6FD23
:100F6000051E52DB3846E46D04F0EAFD5FFA84F9B1
:100F70004FF0000A4FF0010B4FF0FF3405F1FF383E
:100F800009FB08089DB9BAF1010F03DD452121488D
:100F900005F09FF8631C06D0FF2C2ADC40F20113F9
:100FA00001343460B380284605B0BDE8F08F6B1E75
:100FB00000934146012338460DF10F0205F097F8E2
:100FC000031E019323DB012238460DF10F0105F0CA
:100FD00038FF019B40B15B4501D00AF1010A9B46F5
:100FE000009DA8EB0908CDE7B4F1FF3F08BF2C46F0
:100FF000F5E70223A4F580747371631004F0010413
:101000000133013433603471CDE70725CBE7012587
:10101000C9E700BF86920000816A426D38B58A42F6
:1010200008D0531C8B4205D05721144805F051F8C5
:10103000002038BDB1F5807F1CD957211048F5E755
:10104000446A056D04EBC30405EBC30564686D6871
:10105000AC4202D057210B48E8E701339A42EFD166
:10106000914205D9436A03EBC2025368A342F1D10E
:101070000120DEE700231C46F0E700BFA992000034
:10108000E19200001093000000B589B0022004A98D
:1010900005F03CFF9DF81020012A41D0254B264940
:1010A000032A18BF0B469DF81320492102929DF890
:1010B0001220224801929DF811200092204A05F04A
:1010C00008F8062006A905F021FF9DF81820012A3E
:1010D00028D0184B1849032A18BF0B469DF81B202F
:1010E000492102929DF81A20144801929DF8192076
:1010F0000092144A04F0EDFF9DF81030012B13D13B
:101100009DF81230032B0FD19DF81830012B0BD016
:101110000D48492104F0DDFF022009B05DF804FB11
:101120000A4BC0E7094BD9E70948492104F0D1FF30
:101130000020F2E74193000047930000599300001C
:101140004B9300009A930000AA9300003C93000088
:10115000C993000070B54B6814461E4A03F0FF2384
:10116000934206460D4686B02FD10B68012B2CD139
:10117000204604A902F06EFF9DF81020012A26D017
:10118000154B1649032A18BF0B469DF81320492119
:1011900002929DF81220124801929DF811200092AF
:1011A000104A04F096FF9DF81030032B0DD1214614
:1011B000304604F0B1FD204605F09FFE2046A968A8
:1011C00004F0CFFC204602F037FF06B070BD064B9E
:1011D000DBE700BF000100044193000047930000DB
:1011E000599300009A9300003C930000436A2DE954
:1011F000F04F0C465E680546012100238BB0334456
:101200009A42084601F10101F9D8724F3860204630
:1012100004F041FD0397B8B1E86D04F082FC0022B0
:10122000AB6A013B3244904201D9013BFAE7039A91
:1012300012689A4208D35721674804F04AFF0123F5
:10124000E3710BB0BDE8F08F08A9022000F096FD15
:1012500009A9062000F092FD21462846099AFFF7C9
:1012600079FF6379012B08D1039BDFF870B11F6808
:10127000039B1B68A7B90123236002230127DFF822
:101280005C8163710693039BDDF820901B689F428D
:101290004AD9484604F02AFF099804F027FFD0E70E
:1012A000226801339B1A9F423CD86B6A012A196855
:1012B00053F8370003EBC70353F8083CDDF82080F0
:1012C000A0EB0109A3EB010A12D1E268099B022AF3
:1012D0000AD041462846049304F01EFD22464146AA
:1012E000284604F04FFD049B1946284604F014FDDF
:1012F00032464946404604F00DFD534642464146BB
:101300002846CDE90096FFF74FFC2146284604F019
:10131000CFFC23680133236020B1DBF800300133B8
:10132000CBF80030013FA3E723689F4250D36A6A9D
:10133000FB0052F83710083B05911168DDF824A036
:101340000491296DC8580968A0EB010B2179012986
:101350003CD1D158049B3246C91A4846079104F043
:10136000D9FC07995B464A460091284651460196AA
:10137000FFF71AFC2146284604F09AFC069B2371CD
:1013800020B1D8F800300133C8F800303246594651
:10139000504604F0BFFCDDE9042349469B1A284669
:1013A0005246CDE900B6FFF7FFFB2146284604F080
:1013B0007FFC2368013323604FF00103237138B1B0
:1013C000D8F800300133C8F8003001E00229DDD040
:1013D000013758E704450120E0930000805B0120BD
:1013E00038B54FF0FF34012300251A4A294613600F
:1013F000C2F84443C2F8044302F580521360164B0E
:101400008022C3F84843C3F80843A3F55043C3F808
:1014100000551248C3F8084305F0F6F98022294622
:101420000F4805F0F1F90F4B8022C3F8005529460B
:10143000C3F808430C4805F0E7F9802229460B4819
:1014400005F0E2F90A4BC3F808454FF05023C3F802
:10145000084338BD044001500050015080800050C6
:10146000808100500090005080900050809100508A
:10147000007001502DE9F0430546079810B910603F
:10148000BDE8F0830324B0FBF4F404EB4407B84256
:1014900018BF0134B4F1804F05D34FF0FF33136010
:1014A0006FF00B00ECE7A40001348C4200D80DB9BA
:1014B0001460F5E72E460024DFF8B4E0BC42314664
:1014C0009C4606F1040603F1030329D3844222D289
:1014D0000134844228BF00239CF80060244F38BFA9
:1014E0009CF801304FEAA60C17F80CC0844281F832
:1014F00000C007EB131C2FBF3D239B0003F03C03F0
:10150000FB5C36018B703D2306F030061CF806604C
:10151000CB704E70043100204D1B15600870AFE792
:1015200013F803CC13F8021C4FEAAC091EF809901B
:101530004FEA0C1C13F8018C0CF0300C06F8049CDC
:101540000EEB111919F80CC0890006F803CC01F054
:101550003C010EEB981C1CF8011008F03F0806F83F
:10156000021C1EF80810033406F8011CA6E700BF91
:101570009D9500004FF0000C2DE9F04307466546AD
:101580006046079EDFF82081B5420AD32E4604E06C
:101590000135AE420EF1010E05D1A8BB1060BDE8C9
:1015A000F0834FF0000E5C5D202CF1D0AE42F4D001
:1015B000A6EB0509B9F1010F15D90D2C13D103EBD9
:1015C000050999F80190B9F10A0F1BD0BEF1000F7F
:1015D00006D13D2C09D10CF1010CBCF1020F07D949
:1015E0006FF01500DBE70A2CEFE714F0800FF7D15E
:1015F00018F804407F2CF3D03F2C02D8BCF1000F28
:10160000EED101300135BFE7062500F007046C4339
:1016100004F1070EC4086C43A4EB0C0404EBDE04D5
:1016200087B18C420ED80025394603242846DFF8BE
:1016300078E0DFF878801E449E4207D1C91B002065
:101640001160ACE76FF00B001460A8E713F8019B82
:10165000A9F10A0C5FFA8CFCBCF1160F04D828FA29
:101660000CFC1CF0010FE7D11EF809C00130BCF1E1
:10167000400F08BF013C0CF03F0C04284CEA8515D4
:10168000DAD17CB1280C012C087002D10131002084
:10169000D2E7022C4FEA1520487016BF8D70023138
:1016A0000331F4E72046C7E71D950000090040001C
:1016B0000B6801330B60014B1B681847084501207C
:1016C00007B50B46002102460191034801A900F02D
:1016D000EBF803B05DF804FBB11600002DE9F84FFC
:1016E000B0F81890044619F0080893460DD0012967
:1016F0000CBF49F0100949F02009A0F818908BF3AD
:101700001188BFF36F8FBDE8F88F09F00709022930
:1017100007D1204604F031FC0028F0D00128238BAB
:1017200050D16769218B002F15DA256821F0070158
:10173000C4E9008841F0010121830026218B01F0DA
:10174000070ACA4502D0A368002B5CD10DB9002E50
:1017500074D0002358E001F007035A1F012A20D853
:1017600021F00701062B256889B2C4E900880CD155
:10177000002D2B4638BF00232BB1628B1B68013232
:101780006283002BF8D141F002012046218304F04E
:10179000F4FB06460028D1D0238B43F0200323839B
:1017A000CBE7042B0CD121F0070189B2204621831D
:1017B00004F0E3FB05460028BFD041F0200121835F
:1017C0000025BAE7032809D1226923F00703166828
:1017D00043F00603002523832F46AFE7042806D1F4
:1017E000226923F00703566843F00403F2E7052853
:1017F00006D1226923F00703966843F00503E9E761
:1018000000252E46E8E7012341F0080121838BF3F0
:101810001188BFF36F8F03BB002D33D116B1204663
:101820002049B0474FF02003EFF3118B83F3128868
:10183000BFF36F8F238B23F008032383238BDA06F8
:1018400028D5012123F010032383B4F8189009F060
:10185000070900297FF45BAF51E7A1680029DBD0BD
:101860000B68002B38BF0023994652463B46204662
:10187000D1F804B0D847B9F1000FCDD04946D9F816
:101880000030EEE729463B46524620462D6804F0DC
:1018900090FBC1E713F020011EBF23F020030221BB
:1018A0002383D2E7DF5F00002DE9F04F8B464FF036
:1018B000000A8FB01F46531E00900193019B587879
:1018C0005C1C252822D14FF0000C4FF0FF36184643
:1018D000614634464FF00A0E0230CDF808C0027857
:1018E0000190392A00F1010058D81F2A18D8002A7F
:1018F00000F0FF815946009B25209847019B5946DF
:101900001878009B98470AF1020AD7E7002800F0F0
:10191000F0815946009B98470AF1010A0194CDE7EE
:10192000A2F12003192BE5D801A555F823F000BF3B
:1019300099190000F5180000F51800009919000029
:10194000F5180000191A0000F5180000F51800003D
:10195000F5180000F51800005B1A00009919000046
:10196000F51800006F1A0000271A0000F518000093
:10197000331A00004F1A00004F1A00004F1A0000DF
:101980004F1A00004F1A00004F1A00004F1A0000B3
:101990004F1A00004F1A00009446A0E7582A00F0A2
:1019A0004081A2F16303DDB2172DA3D8172BA1D874
:1019B00001A555F823F000BF7D1C0000951A00001A
:1019C000F5180000F5180000F5180000751A000061
:1019D000951A0000F5180000F5180000751A0000AF
:1019E000F5180000F5180000F5180000CD1B0000E8
:1019F000F5180000F51800005F1C0000F518000045
:101A0000951A0000F5180000F5180000CD1B000025
:101A1000F5180000751A000059462520009B9847CC
:101A20000AF1010A4AE7029B002603F0FE03029333
:101A300055E7002C0BDA002E0BDA029B002B00F08E
:101A4000548124EAE4740EFB0424303C47E7002E62
:101A5000F7DB0EFB0626303E41E7002E57F8043B2D
:101A600001DB1E463BE71C1EBFF639AF6442022372
:101A7000029334E7682A03D1682906D148212EE76A
:101A80006C2A02D16C2900F0328100297FF432AF38
:101A9000114624E77A290FD13B68752A984607F149
:101AA000040540F088804FF00009BCF1200F40F0A1
:101AB0008580924F013C15E06C29EDD04C29EBD18B
:101AC000FD1D25F00705752AF5E80289EDD0B8F16E
:101AD000000F79F10003E8DAD8F10008884F69EBCC
:101AE0004909013C0DAB059300230393039B40463A
:101AF0000493013B494603930A220023FEF722FB8D
:101B0000059B303203F8012940460A2249460593D5
:101B10000023CDE90689FEF715FBDDE90623002B3E
:101B200008BF0A2A80468946E0D2049B0EAAC3F168
:101B3000010902EB0308002EA8F1040804DA029B55
:101B400013F0010F18BF2646A6EB0903002B0393E1
:101B5000029BD4BFA4EB0904A41B9A0740F1AF80F9
:101B6000AAEB070606EB070A17F8010B002840F05E
:101B7000A880039E013E40F1A880039B4E465A1E5A
:101B80000132ACBF1F460027013E40F1A38009F19E
:101B9000FF320132ACBF4B460023264603EB070958
:101BA000013E40F19D80631E0133B8BF0024A14473
:101BB0002F46CA4482E64FEAE37988E7BCF12B0F4F
:101BC0000ABF504F504F04F1FF348BE7702A28D1E1
:101BD0003D4655F8040B00285AD000214B4F023CDB
:101BE0004FF0000802F06002A2F139090DF1340E45
:101BF00000F00F03092B88BF4B44303300290EF847
:101C0000013908BF10284FEA101308F1FF3C43EADE
:101C100001734FEA11121ED20EABC8F101099844AC
:101C200089E76C2904D13D46002155F8040B06E0F4
:101C30004C29F8D1FD1D25F00705F5E80201BCF19E
:101C4000230F06D1314B12F0200F314F18BF1F4622
:101C5000C5E72D4FC4E7E04618461146C8E73D46A4
:101C600055F8048B404604F08AFD002E814602DBC5
:101C7000B042A8BFB1460026234F65E73D4655F860
:101C8000043B4FF001098DF820300DF12008F2E7F8
:101C90004FF00509DFF87C80EDE759462020009BD6
:101CA0009847013EF9D5621E531CACBF2146002166
:101CB000C4F10004B8BF00248A44144450E7264607
:101CC000EFE75946009B98474CE75946009B302068
:101CD00098474FE7594618F8010B009B984753E780
:101CE0005946009B202098475AE70123C0E64C2123
:101CF000F5E550460FB0BDE8F08F00BFFF9A000039
:101D0000DD950000DF950000999E0000E195000040
:101D1000E4950000E795000008B54FF02002EFF3CE
:101D2000118382F31288BFF36F8F01F0B9F8034873
:101D300004F016F900F0B2FDFCE700BFED950000DD
:101D40004FF02002EFF3118382F31288BFF36F8FFD
:101D50000121044AC2F8401583F31188BFF36F8F45
:101D6000002070470090035020B1034B800143F0E6
:101D700001031847704700BF608C00000C4B70B522
:101D80001B6873B10B4A15680022AA4202DB6FF090
:101D9000010070BD1C4613F8106B864204D001325E
:101DA000F3E76FF00C00F4E700200C60F1E700BFF0
:101DB0000C450120208D000070B588B005460C460A
:101DC000C0B269461646FFF7D9FF00281FDB009B0B
:101DD000EBB15A68216802929A68D868CDE9032667
:101DE00000220195CDE90612059203F0BFFA0546DF
:101DF000009804F07BF96DB12846084901AA04F067
:101E000036FE079808B9059B236008B070BD6FF0D7
:101E10001500FAE76FF01200F7E700BF0F6200004D
:101E2000014803F07BBC00BF248D0000F7B5264DB0
:101E3000286883685B6C03B19847286883685B6B8C
:101E4000A3B9224C224E286883689B698BB101227A
:101E50000DF10701984701280BD1236893B9336826
:101E60004BB945211B4804F034F902E0984700289B
:101E7000E7D103B0F0BD71681A688B42326000D1BF
:101E80007260236014499DF807700A880846B2F50D
:101E9000007F06D2236802F1010C1344A1F800C0B0
:101EA0001F720A2FCFD1236802880C495A60002282
:101EB0001A604E6826B9C1E9003302802260C1E78A
:101EC00033604B60F9E700BFAC5F01208C5B012001
:101ED000845B01201A9600008C600120A45F012021
:101EE000044B10B5044618688368E1B25B689847F4
:101EF000204610BDAC5F0120F8B506460B461546DE
:101F00004FF02002EFF3118C82F31288BFF36F8F32
:101F1000194C216849B1194A5068884205D00020FF
:101F20000860506898B9C2E90011154A116829B1D2
:101F300057680868B942106008BF50608CF3118878
:101F4000BFF36F8F216029B900202860F8BD0160C0
:101F50005160EAE748680831F6D05C1E8442A8BFA9
:101F600004463046224604F044FC00233355012346
:101F70002B60E018EAE700BF905B0120845B012042
:101F8000A45F012037B500251C4B1D4AC3E900554D
:101F90001C4B1D4C1D4803F502711360C3F8085219
:101FA00019605160206006F08BFC10B320688368D4
:101FB00023B19B6C13B12A46154998472068836862
:101FC0005B6B0BB1984748B1206883689B6903B984
:101FD000FEE701220DF107019847F4E700250D4BBC
:101FE00020681D8083689B6A33B19847284603B0F8
:101FF00030BD4FF0FF30FAE71846F8E7A45F012044
:10200000845B0120945B0120AC5F0120908900007B
:102010002D1E00008C60012040F606132DE9F041D2
:10202000DFF81481D2B0D8F80000ADF80C303D4B89
:102030003D4F1C680378E41B013303700023818843
:10204000C4F3072242EA042242800A0242EA112231
:10205000437082800821009341F2210203F033FF94
:10206000012203462146ADF810000092384641F2A5
:10207000210203F028FF02252C4E40BA3368ADF848
:102080001000022103A85B68984704F10A035BBAB9
:102090000DF11201022206A8ADF8123004F0A9FBDE
:1020A000D8F8001008220DF11A00ADF8125004F013
:1020B000A0FBBDF8120006AB083080B222463946BC
:1020C000ADF81200184404F094FBBDF8120006AB02
:1020D000204480B22A46ADF8120004A9184404F046
:1020E00088FBBDF8123005AA2B449BB2ADF8123024
:1020F0000093AD2106AB26A8FFF7BCF9059933681C
:10210000ADF8121026A85B6889B298473368294653
:102110005B68074898474921064803F0DAFF52B048
:10212000BDE8F081104501208E790120B05F0120CB
:102130007396000076960000B45F012037B50E4C10
:1021400005460A21204604F06CFA6B460B4A92E8D9
:10215000030083E803001946204604F03BFA2946B1
:10216000204604F02EFA0A21204604F075FAFFF703
:1021700053FF03B030BD00BF10450120308C00007C
:102180002DE9FF410C681B4F02380D46C4F5007164
:102190000090194B381903AA0131FFF7EBF90446F7
:1021A00028BB2B68039A1344022B2B601BD9398858
:1021B000023B0E0246EA1126B6B29E4213D14FF000
:1021C0000108034641F221023146CDF80080B81CD7
:1021D00003F079FE38B9022E05D92B68023B1F4463
:1021E0002B60BC704446204604B0BDE8F0814FF03F
:1021F000FF34F8E70E7A0120117C01202DE9F04F21
:1022000007290446A9B040F2C080027812F0FD050B
:1022100040F0BB804288A1F10806130243EA122372
:102220009BB2B342C0F0B180A74BA84F1860808822
:10223000030243EA102398B2A54B01283B6003F147
:102240008003A080FB6040F0FC8194F80780B8F127
:10225000000F07D0B8F1010F00F0AB800820FFF7A6
:102260006DFF92E001469B4E384604F0DAF996E89D
:10227000030008AB83E803001946384604F0AAF9C6
:102280003846052104F0C1F94446DFF8648206F1BE
:10229000080710362146002003F09FFB07A9C0B2B3
:1022A000FFF76CFD0546002864D12023014610AAE3
:1022B000079803F01CFF109B43456BD0864B1D68AD
:1022C000079803F013FF854B1B68AB4252D11421D2
:1022D0007E4804F0A6F997E803000AAB83E8030000
:1022E00019467A4804F076F92146784804F069F9ED
:1022F00096E803000CAB0DF1600983E80300194672
:10230000724804F067F99DF85410484603F0B0FF96
:102310004FF02E0A28AB451C18449DF8551000F8C4
:1023200040AC09EB050003F0A3FF28AB2844451C93
:102330001844BDF8561000F840AC09EB050003F056
:1023400097FF28AB05442B440135169903F840ACA0
:1023500009EB050003F08CFF4846CDF8389004F0F7
:102360000EFA0EA90F90594804F034F91421574879
:1023700004F072F964B10521544804F06AF9214669
:10238000524804F069F9FFF747FE29B0BDE8F08F25
:1023900001247FE74023019318AB2946CDE903557B
:1023A000029500932846079B10AAFEF719F90546E7
:1023B00086E731460AAB18AA04F10800089500F038
:1023C00059FA08B9032436E00A9B9E42FAD14FF02D
:1023D000FF3A4FF0FF3B2A462846D046D9462F46C3
:1023E000279C18ABA24256D1B9F1FF3F08BFB8F104
:1023F000FF3FE7D0002FE5D0002103F0EEFA08A957
:10240000C0B2FFF7BBFC0028DCD158EA0903344E08
:102410000AD1089B30609A680023524573EB0B0386
:10242000D0DB304BC3F800A000213368494508BF1A
:1024300043455FD00024224649212B4803F049FE42
:102440002A4D0A21214804F0ECF895E8030010AB6E
:1024500083E8030019461D4804F0BCF821461B48D8
:1024600004F0AFF86CB9D5E908010EAB83E80300BE
:102470001946164804F0AEF8194B1448196804F0D0
:10248000A0F80A21114804F0E7F8FFF7C5FD089805
:1024900003F02CFE79E7197A032904D8DFE801F06C
:1024A0000206090E186801320C339BE7D3E9007568
:1024B000F9E719688A464FEAE17BF4E7196888462C
:1024C0004FEAE179EFE700BFB45F0120104501203A
:1024D0008E790120388C0000004501201C47012026
:1024E000B85F0120C85F012049970000308C0000D0
:1024F0003DB8F3965C4A2B44116892468B423FF6F6
:1025000061AF089803F071FEB5FBF0F808FB1050BE
:102510005FFA80F83068DAF8003042199A4206D241
:10252000B8F1000F03D0A5EB08054FF000080CA987
:102530002844FEF73BF8044620B145214B4803F000
:10254000C8FD78E74A4B0C9A196899468A4211D01F
:10255000492148481A6003F0BCFDDDE90C120898D7
:1025600003F014FE044628B122464521424803F0F8
:10257000B0FD60E7326849214048AB1803F0A9FD7F
:10258000B8F1000F44D0B5EB08042CD023463A46EE
:102590003168089803F0C7FD00287FF413AF454663
:1025A00033682744234433603946424610A804F078
:1025B00020F9089803F022FE10AB0146C8F108028A
:1025C00003EB080004F020F9089C3768204603F06C
:1025D0000CFE39460346204610AA03F0A4FD00284D
:1025E0007FF4F0AE01E0002DDED133681D44DAF84F
:1025F000003035609D427FF41DAF089803F0A0FACB
:102600000CA9FDF7D3FF044638B145211C4896E7D5
:102610002B463A4631680898DFE70C9AD9F8003023
:102620009A427FF607AF4921124803F052FDDDE9D7
:102630000C12089803F0AAFD044600283FF4FBAEF4
:1026400092E700287FF40AAEE379012B3FF407AE4E
:10265000052B7FF403AEFFF771FD0A4806F040F941
:102660000120FFF759FB00BFC85F01207E960000E4
:1026700024450120A9960000CC960000EF960000AA
:102680000F97000090D003002DE9F341DFF8A480FC
:10269000002406464746234B234D0094186000F063
:1026A000FDF8224BC4F50071C3F8005601AAC3F827
:1026B00004560131C3F8085608EB0400C3F80C5661
:1026C000C3F81056C3F81456C3F81856C3F81C566E
:1026D000336898470028019B01DC002BDFD00444BD
:1026E0002BB940F201239C42D9D10024D7E73B7893
:1026F000062B09D17B78092B0BD100230093694667
:10270000A01EFFF73DFD04E0042B02D17B78142BC3
:10271000F5D00128E9D1009905480239FFF76EFD8F
:10272000E3E700BFB05F01203546526E00800150E4
:10273000107A01200F7C012030B585B005460C468B
:1027400003F084FE20B9002404F0010005B030BD80
:102750000C2304F13C02CDE9014305210120054B86
:10276000009503F083FE0446284603F07DFE002812
:10277000E9D0E9E77927000073B504460E4603F077
:10278000A9FF054638B3364B69460093052320461A
:10279000019303F058FE38B13146204603F007FE9E
:1027A00010B10023337240E0204603F096FFA8B139
:1027B0002C4B6946009304232046019303F043FE0B
:1027C00060B13146204603F03BFE38B10125357239
:1027D000204603F086FF284602B070BD204603F075
:1027E0007CFF78B1204B6946009303232046019378
:1027F00003F029FE30B13146204603F0D8FD08B180
:102800000223CFE7204603F068FF80B10325174B72
:10281000694620460093019503F015FE38B1314614
:10282000204603F0C4FD10B135720125D0E72046E3
:1028300003F053FF08B90025CAE70D4B6946009322
:1028400003232046019303F0FEFD0028F3D0314618
:10285000204603F0F5FD0028EDD00423A2E700BFD9
:10286000A4930000579700005C9700006F9600004B
:10287000609700001FB54FF0020C0124CDE9014C18
:10288000024C009403F031FF04B010BD3927000062
:10289000014910220A60704710ED00E072B6404016
:1028A00080F31188BFF36F8FBFF34F8F30BF62B6D5
:1028B000BFF36F8F704700BF72B6494081F3118834
:1028C00020BF80F3118862B6704700BF37B5054658
:1028D0000C46C9B18B6810480093D1E9002345210B
:1028E00003F0F7FB636945210093D4E903230B4808
:1028F00003F0EFFB4521E269094803F0EAFB4521BB
:10290000A269084803F0E5FB2146284603B0BDE86C
:10291000304002F057BD00BF649700009897000058
:10292000CC970000E097000043B2002B08DB0122A7
:1029300000F01F0002FA00F0024A5B0942F823008F
:10294000704700BF00E100E0054B420953F8222028
:10295000012300F01F0003FA00F01040704700BF91
:1029600000E100E043B2002B01F10101ACBF03F133
:102970006043064B4FEA4111C9B2ABBF03F5614357
:1029800000F00F0083F800131954704714ED00E0B5
:1029900030BFFFF7FDBF00BF0B4A08B50B4B22F05D
:1029A0007F029A60BFF34F8FBFF36F8FD3F88820F9
:1029B00022F47002C3F8882002F05AFD02F09CFD58
:1029C00000F032FA02F05EFD0000000000ED00E0D1
:1029D0001EF0040F0CBFEFF30880EFF3098081694C
:1029E00011F8021C0229FFD001B503F0B0FE01BDB1
:1029F0000446084611461A46002383F30B880A4B07
:102A00002025A3F5205686F30B8883F3098863B647
:102A10004FF0000383F31188BFF36F8FA04785F356
:102A20001188BFF36F8FFEE758A6012001B5EFF3C1
:102A30000580A0F110004FEAC0000449014409C913
:102A40009847BDE80140024908470000C0890000DE
:102A5000552A0000704700BF70B5224C06460D464F
:102A60002148452103F035FBA26AD00603D5452154
:102A70001E4803F02EFBA36A190703D545211C4805
:102A800003F027FB174CA36A9A0710D54521194874
:102A900003F01FFB626BA36A1B0608D5452116488D
:102AA00003F017FB1EB1A36A23F08003A3620D4C51
:102AB000A26AD00703D54521104803F00AFBA36A98
:102AC000990603D545210E4803F003FB0020054B72
:102AD0009A6AD20658BF9A6A9A6A42F0FF029A62CC
:102AE000287070BD00ED00E0139800002E980000E3
:102AF000669800007E9800009B980000B698000041
:102B0000DA98000070B5234C06460D462248452150
:102B100003F0DFFAA26AD10403D545211F4803F070
:102B2000D8FAA36A1A0503D545211D4803F0D1FA46
:102B3000184CA36A9B0510D51A48452103F0C9FA21
:102B4000A26BA36A180408D54521174803F0C1FAFF
:102B50001EB1A36A23F40043A3620E4CA36A590575
:102B600003D54521114803F0B4FAA36ADA050BD561
:102B700045210F4803F0ADFA0020064A936A43F45A
:102B80007F439362287070BDA36A9B04F4D54521EE
:102B90000848EFE700ED00E00E99000029990000D9
:102BA000669800003F9900005D9900007799000049
:102BB00097990000DA98000038B5214C452121484A
:102BC00003F087FAA26A950103D545211E4803F058
:102BD00080FAA36ADC0103D545211C4803F079FA89
:102BE000174DAC6A14F4801404D04521184803F042
:102BF00070FA0224AB6A180303D54521154803F087
:102C000068FA0F4DAA6A510303D54521124803F013
:102C100060FAAB6A9A0303D54521104803F059FACC
:102C2000074DAB6ADB0303D545210D4803F051FA8C
:102C3000AB6A20466FEA03436FEA1343AB6238BDC9
:102C400000ED00E0B4990000D1990000E99900007E
:102C5000089A0000379A00005A9A0000849A0000EF
:102C6000A39A00002DE9F043574B0F46D3F8049088
:102C700000258BB0C9F3080885F31188BFF36F8F67
:102C800002F07F43B3F17F4F07D102F00C03082B12
:102C900005D145214D4803F01CFA2F4603E01207E9
:102CA00001D4074601250022A8F1030614468DF839
:102CB0000720092E76D8DFE806F0056A6E6775757D
:102CC000757575724521424803F003FA3E4B8DF845
:102CD0000740DC6A14F0020405D045213D4803F0AA
:102CE000F8F9002406E0DA6A002A1DDA45213A489C
:102CF00003F0EFF99DF807309BB92022394602A86E
:102D000003F077FD099B002D59D0C3F3080222B9C7
:102D10006FEA53236FEA43230993204602A9FFF782
:102D2000D5FD0BB0BDE8F083DB6A5B00E2D5452141
:102D30002A4803F0CEF9BB6933F8022C4DF6027332
:102D40009A420CD003F1604303F626631B786BB103
:102D500001200DF10701FFF77FFE0446CAE7452178
:102D60003A681F4803F0B5F93C68C3E71D4B1B7870
:102D70002BB101200DF10701FFF7C4FEEDE71A4B5F
:102D80001B889BB2002BB5D0FFF716FFE5E70020AC
:102D90000DF10701DFE700200DF10701ECE7452108
:102DA00012489CE7124919F4F87F124A124808BFEA
:102DB0000A46A8F11003452103F08BF991E723F4AB
:102DC000FF7323F00103A7E700ED00E0019B000083
:102DD000319B00004D9B0000739B0000869B000010
:102DE000AA9B000029ED00E02AED00E0CB9B00004B
:102DF000D39A0000E89A0000F49B0000044B5A6943
:102E000042F010025A615A6942F480625A61704776
:102E100000ED00E0EFF30880EFF3098101B57246A1
:102E2000FFF720FF01BD00BF002320210348C21887
:102E30000133412B82F80013F9D1704700E100E023
:102E4000002080F31488BFF36F8F002080F30A887E
:102E500080F30B8805F04AFD00200E490860BFF39F
:102E60004F8F0D4880F3088800F03CF8202080F355
:102E700011880A484FF40061401880F30988EFF385
:102E800014800221084380F31488BFF36F8FFFF78B
:102E900083FD000094ED00E058A6012058A6012013
:102EA000BFF34F8F0549064BCA6802F4E062134333
:102EB000CB60BFF34F8F00BFFDE700BF00ED00E028
:102EC0000400FA0500231846054A1168C1F30721DA
:102ED0008B4200D17047936010610133F8E700BF67
:102EE00090ED00E010B572B6002484F31388FFF76C
:102EF000E9FF0E4A234611464FF0FF3403F120004C
:102F00000133102B42F82040F8D100234FF0FF305E
:102F100003F160020133102B41F82200F8D162B6B0
:102F2000BFF34F8FBFF36F8F10BD00BF00E100E014
:102F30000121024B024A034800F00CB900000420B2
:102F4000004501202C8D000010B50B680C7A23F091
:102F50001F0204F01F031A43CB68640923F01F0308
:102F6000044943EA440343F001038860CA600B61EB
:102F700010BD00BF90ED00E030B54B680C6885B027
:102F80000A898D7A0094013B24F01F04234402F047
:102F90001F0242EA451223F01F030F2804468DF852
:102FA0000820039309D902464521064803F091F809
:102FB0006FF01504204605B030BD6946FFF7C4FF29
:102FC000F8E700BF109C00002DE9F04F8946144639
:102FD00006464FF00008524D85B0C84523DA7768A1
:102FE000002F42D01F2F17D9FB0615D1D6F800A00D
:102FF0001AF01F0F10D1504603F0B8FB834607EBC1
:103000000A00013803F0B2FB834510D06FF0150BB6
:103010005A464521434802E042464521424803F0D2
:1030200058F86FF01504204605B0BDE8F08F1BF18D
:10303000160FEDD0631E5B45EADBC5F808B0E96802
:10304000C5F808B02F6921F01F01D6E900321A44F3
:10305000994247F01F0702F1FF3A1CD1574508D1AA
:1030600031465FFA8BF0FFF787FF08F101080C3655
:10307000B3E73146C5F808B0EB6822F01F0203F051
:103080001F031A43EA60E0B2FFF776FF10F1160F54
:10309000C7D0441CE9E7013B5745E0B223F01F03CA
:1030A000C5F808B006D12A69314602F01F02134361
:1030B0002B61E9E7296901F01F010B432B613146C0
:1030C000FFF75AFF10F1160FABD0C5F808B0EA6849
:1030D0009DF80830013F62F304038DF808302B6936
:1030E0009DF808205B0863F347128DF80820D6E9A5
:1030F00000321344009323F01F033B44441CA3EB12
:103100000A0AE0B22AF01F030F28039303D90246EC
:103110004521064883E76946FFF716FFB9E700BF78
:1031200090ED00E0639C00003B9C0000109C0000C0
:103130000522034B5A60BFF34F8FBFF36F8F704769
:1031400090ED00E0BFF35F8F0022014B5A607047A3
:1031500090ED00E010B5034C2278FFF735FF2070AA
:1031600010BD00BF107E012038B50E4C2568102D13
:1031700014D8FFF7E7FF00200B4B0C4A1A63854277
:1031800005D10B4B1D70FFF7D3FF002038BD6168E0
:1031900001EB0011FFF7D8FE0130F0E74FF0FF30F0
:1031A000F4E700BF388D000090ED00E0AAFF440076
:1031B000107E012070B504460C250D480E46231ADA
:1031C0009A100C4B40215343DBB25D4305F14003A1
:1031D000184403F02BFB011E04DB074B2B445B68F8
:1031E0009847002120463346BDE87040184700BF8D
:1031F000DC5F0120B76DDBB6788D00002DE9F04172
:103200000F4C104D031B9B105D43EBB20C255D432F
:10321000074605F140000E462044402103F01FFB05
:10322000011E08DB084B2C44C4E90E36074B5B59E2
:10323000BDE8F041184738463346BDE8F04118472D
:10324000DC5F0120B76DDBB6C7680000788D000039
:1032500070B50022012104460520FFF783FB0520FD
:10326000FFF762FB0F4801F037FC0F4B984215D176
:1032700005F011FB26690D49304602F0CDFE00280D
:103280000BDB012535642469084904F11C0002F0B8
:10329000C3FE002801DB0020E56470BD6FF0040070
:1032A000FBE700BFE53200000000AD0B908D000091
:1032B00001460C2300224B43084870B5C418403324
:1032C000D4E90E561844A26303F0E7FA2DB1324652
:1032D0002B46BDE870400248184770BDDC5F0120F6
:1032E0004889000010B1012804D07047034B1B6CC3
:1032F0005B0701D1FFF7DCBF704700BFDC5F012037
:1033000008B54FF02003EFF3118183F31288BFF368
:103310006F8F124A136843F0020013F0010310602C
:103320000CD04FF05022D2F80C34D2F80C2413F009
:10333000010303D00A4803F0B0FA012381F3118896
:10334000BFF36F8F23B1BDE808400020FFF7B0BF87
:103350000120BDE8084001F0CFBB00BF2C60012078
:103360001C600120074BD3E8EF2F22F00201C3E8D5
:10337000E01F0028F7D1D30702D4012001F0EEBBF3
:10338000704700BF2C6001202DE9F843012206465A
:103390003649D1E8EF3FC1E8E02F0028F9D133B931
:1033A000334934484B60CB608A6002F048FE731E9C
:1033B000012B32D8012E07D14FF05023D3F81C3403
:1033C00003F00303022B28D005F084FA044618B951
:1033D000294B1B78002B41D14FF02003EFF31185CF
:1033E00083F31288BFF36F8F0124244FDFF890809E
:1033F000DFF890904FF05022D2F81834D2F8182409
:10340000D2030CD503F00303022B01D0012E06D109
:10341000F4B185F31188BFF36F8FBDE8F8832846B8
:10342000FFF74AFA4FF05022D2F81835DBB2012BE1
:10343000E0D139680029DDD00021396039680221E6
:10344000C2F818152022C8F88021C9F80030D1E749
:103450004FF050230222C3F80423DEE74FF050233D
:1034600002220546C3F80823BFE700BF30600120F1
:10347000CC5F0120F85F0120517E012004510050F3
:1034800000E100E00850005030B5406801F01F0531
:10349000047BB2F5005F45EA441585B04FF00004A7
:1034A00004D1284601F01CFE00202CE0B2F5804F2C
:1034B000CDE9024429D1B3F5003F0CBF0423052315
:1034C0008DF80830836823FA01F1C90729D4B2F5D1
:1034D000A03F26D11B4A05F01F03803352F823304A
:1034E000DB071ED40DF107042146284601F066FDD6
:1034F000154B984214D1204601F0AAFD134B984277
:103500000ED06FF00B0005B030BDB3F5C02F05D065
:10351000B3F5003F0CBF02230123D1E70323CFE71C
:10352000039400232846194602AA01F007FC074B22
:10353000984204D10121284601F090FDB4E76FF0D4
:103540000400E0E7002584500400AD0B0000AD0B43
:1035500010B501F06DFD044668B901F041FD084B5E
:1035600098420AD12146074801F022FD2246052152
:103570000D20FFF7F7F9002010BD6FF00400FBE706
:103580000000AD0B89350000430970B517D10C4B15
:103590005968A1B10C680125002C38BF0024094EE0
:1035A00085408A682A4002D030464B68984734B13B
:1035B00023682146002B38BF00231C46F1E770BD6D
:1035C00034600120608900002DE9F043476801F074
:1035D0001F053B7B0E46144685B045EA4315CAB924
:1035E00002A9284601F0EAFC0446284601F09AFDAB
:1035F000474B984204D06FF0040005B0BDE8F0835B
:10360000844205D19DF8080001F01CFDA042F2D1D2
:103610000020F2E74FF000090DF103013046CDE93B
:10362000029901F0CBFC4B4680464946284602AA47
:1036300001F084FB364B984202D06FF01500DCE7B6
:10364000804503D19DF8030001F0FCFCA3054CD597
:10365000304B314A2340934239D00CD8062B14D03A
:1036600004D893B1022BE8D104230EE0B3F5801FF8
:10367000E3D1012309E0294A93422AD0B3F5A00FF0
:1036800029D0B3F5800FD8D102238DF8043084F40B
:103690008073C3F30023E0068DF805304CBF03238D
:1036A000C4F3401321058DF8063016D501217B683F
:1036B00001FA06F69E600022284601A901F0E4FB0B
:1036C000134B984214BF6FF01500002095E70723B5
:1036D000DBE70523D9E70323D7E7620541BF0121D3
:1036E0007B6801FA06F6DE60E5E7E3064FF00003CB
:1036F0004CBF0324C4F340141A46284601A98DF890
:10370000044001F01BFB024B984281D095E700BFBB
:103710000000AD0B0600F0000600100002004000A3
:10372000024B0B6001231360704700BF4060012013
:1037300000487047E88D000010B505F0BDF8034C57
:10374000206005F0B6F86060002010BD40600120E8
:10375000F8B50E46144605F0ACF82146054630464D
:1037600003F039F93746F8B1B6FBF5F305FB1363FF
:1037700023B9B4FBF5F005FB104040B123463246B7
:1037800045210C4802F0A5FC6FF015000BE0A542A6
:1037900009D805F08EF80546384601F097FD641B00
:1037A0002F44F9D12046F8BD234632464521024830
:1037B000E8E700BFBA9C0000DE9C000070B50D4633
:1037C0001946284616461C4603F005F940B9094833
:1037D00023462A46452102F07CFC6FF0150070BD9F
:1037E00034B122462946304603F003F80020F6E7BC
:1037F0002046F4E7DE9C0000F8B50E461946304638
:1038000017461C4603F0E7F840B9234632464521E7
:10381000124802F05EFC6FF01500F8BD44EA0605A0
:1038200015F0030504D02346324645210C48F0E745
:103830008CB12B19032BA6EB050006D8094AD2F848
:103840000034DB07FBD50020E7E77B1B196801F09C
:103850005BFD043DEDE72046DFE700BFDE9C000096
:10386000009D000000900350F0B54B79012B26D04D
:10387000032B21D110268B79032B1DD1CC790CB1D0
:10388000012C19D10A7912B1022A15D10E220B6826
:103890004568B3F5164F2D6865D02DD8B3F5165F82
:1038A00064D016D8B3F5966F62D00AD8B3F5967F78
:1038B00061D0B3F5167F61D06FF0850052E000262D
:1038C000D9E7B3F5166F5CD0B3F5965FF4D1374BFB
:1038D0003CE0B3F5E14F57D007D8B3F5615F55D061
:1038E000B3F5964FE8D1324B30E047F61227BB4292
:1038F000E2D14FF4000329E0B3F5613F48D013D87B
:10390000B3F5963F47D009D84DF6C027BB4244D007
:10391000B3F5614FD0D14FF46B0317E0B3F5E13F3E
:10392000CAD14FF0EB7311E0B3F5612F38D008D84E
:10393000204FBB4237D0B3F5E12FBDD14FF0E86344
:1039400004E01D4FBB42B7D14FF08053C5F824357A
:10395000036934432243043303C9C5F86C2583E863
:1039600003000020F0BD4FF41D03EFE7134BEDE71C
:103970004FF49E23EAE74FF4A033E7E74FF41C33FC
:10398000E4E74FF41D23E1E70D4BDFE70D4BDDE7E7
:103990004FF06C73DAE70C4BD8E74FF46503D5E7CB
:1039A0004FF07063D2E74FF08063CFE700B01300B1
:1039B00000A04E0090D0030040420F0000502700AE
:1039C00000C0750000F03A0000903A01F8B50546D5
:1039D0000F46066904F07EFF10B91E4B1B78A3B991
:1039E0004FF02003EFF3118483F31288BFF36F8F3E
:1039F000284603F0D5F800BB84F31188BFF36F8F1E
:103A0000EEE784F31188BFF36F8F6424284603F038
:103A1000C7F828B9012004F03CFF013CF6D1F4E7D7
:103A20004FF02003EFF3118483F31288BFF36F8FFD
:103A3000284603F0B5F80028E3D031460122284695
:103A400001F8147F03F03FF984F31188BFF36F8FFF
:103A5000F8BD00BF517E01202DE9F84300234768DF
:103A600005693C68C4F8003528604368DE68711C4D
:103A70000BD00121DFF83CC106F01F029140CCF8C9
:103A80000810032180324CF8221019694A1C0DD00D
:103A90001A7FDFF820C1002A14BF4FF00C0E4FF040
:103AA000000E01F01F0280324CF822E0D3F814C05F
:103AB000BCF1FF3F0ED04FF0010EDFF8F8800CF0A4
:103AC0001F020EFA02FEC8F808E04FF0030E803223
:103AD00048F822E0D3F818E0BEF1FF3F0DD05A7F3E
:103AE000DFF8D080002A14BF4FF00C094FF0000916
:103AF0000EF01F02803248F822901B68C3F80C6554
:103B0000C3F814150169C3F808C50431C3F810E5FA
:103B1000FFF7AAFE064678B97B6899071CD505F120
:103B2000160001F091F8204B984208D045211F481B
:103B300002F0CFFA6FF004063046BDE8F883AB7DA3
:103B400043F00043C4F8A031C4F88C300123AA7DAF
:103B50009340174AC2F804350823C4F800353B7A6D
:103B60005BB9C4F81031D4F8103105F11503C4F86D
:103B700034350123C4F8383523607B6814359A073F
:103B80005CBF4FF48072C4F80423DB0644BF4FF4DB
:103B90008003C4F804330023C4F84455C4F84835FE
:103BA0000123A360E360C7E70000AD0B2D9D00007B
:103BB0000070015000258450194970B5044622F068
:103BC0007F460868C1E90023A6F50013101AB3F573
:103BD000400F4FF000050AD20125124B19680A0662
:103BE0000B0A9219104943F10003C1E9002301F0C7
:103BF000E5FCA30003F1502303F58033D3F84025FF
:103C0000B2420BD11DB94FF40002C3F840254FF466
:103C10008030064B00FA04F4C3F8444370BD00BF83
:103C2000884601205060012070460120005001505C
:103C30000123834010B5DC430D4AD2E8EF1F01EAAF
:103C4000040CC2E8EECFBEF1000FF6D14FF4803283
:103C500002FA00F002F15022C2F80803BFF35F8FAE
:103C6000BFF36F8F0B4214BF0120002010BD00BFB7
:103C70004C60012001230E4A8340D2E8EF1F194314
:103C8000C2E8EC1FBCF1000FF7D14FF48033094AB2
:103C90008340C2F80433084BD3E8AF3F23FA00F067
:103CA000C30742BF4FF40012044BC3F80021704712
:103CB0004C600120005001504860012000E100E00C
:103CC0000D4B1B68190A1806BFF35F8F0B4BD3F817
:103CD0000435C01841F10001B3F5801F0AD2084B2A
:103CE000D3E90023994208BF904203D210F18070BB
:103CF00041F10001704700BF5060012000500150A9
:103D0000704601202DE9F74F16461F460546FFF77E
:103D10008FFF0090FFF7D4FFB94208BFB0427BD2BB
:103D200000234FF08072B6EB000867EB01094B45AA
:103D300008BF42457DD3404B03EB0513D3E9022373
:103D40009F4208BF964251D04FF4803B26F07F42FD
:103D500014464FEA850905F1500809F150294FEA48
:103D6000880809F580391FFA88F808F15028D9F831
:103D70004005324B08F580380BFA05FBD3F804A553
:103D8000A0EB0A0020F07F402AF07F410128C9F80B
:103D9000401505D10192132004F0A2FD274B019A92
:103DA0000AF1020CA4EB0C0020F07F400021B0F5DA
:103DB000000F88BF6446C8F80010D8F8000024F04F
:103DC0007F40C3F844B3C9F84005D3F804058245E1
:103DD00006D0201A023820F07F40B0F5000F19D825
:103DE000A41A24F07F44321947F10003124C290130
:103DF00004EB0510C0E902230C9A0D9B62500024CD
:103E00004360009B13B12846FFF734FF204603B000
:103E1000BDE8F08F2046B1E70123094AAB40D2E864
:103E2000EF1F1943C2E8E01F0028F8D132463B4695
:103E3000DCE76FF01504E4E77846012000500150FC
:103E40004860012073B500244FF0FF304FF0FF3180
:103E5000164D174BC5F80845C3E902014FF48033EE
:103E600002264FF40012C5F80433124B0121C5F8A5
:103E700004631520C3F880212246FEF773FD152048
:103E8000FEF752FD01230C4A204613600B4A2B60BB
:103E900013600B4B0B4A009301940023FFF732FF92
:103EA0003046FFF771FA204602B070BD0050015055
:103EB0007846012000E100E0085001504C600120EC
:103EC000B93B0000FFFF7F00334B2DE97343D3F86C
:103ED00004339A0709D5314B1A6832B100221A60AF
:103EE0002F4A1B681368013313604FF02003EFF370
:103EF000118283F31288BFF36F8F274BD3F80433FB
:103F0000DB030ED5274BD3E8EF1F21F00100C3E8F8
:103F1000E40F002CF7D1244B002936D11968002971
:103F200033D1002382F31188BFF36F8F53B3FFF7B0
:103F3000C7FE04464FF02003EFF3118083F312888D
:103F4000BFF36F8F194B0022D3E90289494508BF9F
:103F500044451FD3D3E900164FF0FF344FF0FF352F
:103F60001A604FF48032C3E902450B4BC3F8482373
:103F700080F31188BFF36F8F21B142464B4600207A
:103F80000096884702B0BDE87083002119601B6865
:103F90000123C7E71146EBE70050015004510150DF
:103FA00050600120486001204051015078460120B6
:103FB000144B13B5B0F1FF3F08BF1846441E002C48
:103FC0001DDD9C42A8BF1C46FFF77AFE0E4B0F4931
:103FD000D3E90023801AB0F5000F28BF0024013078
:103FE000044408480091844228BF04460020121966
:103FF000019043F10003FFF785FE02B010BD0024DD
:10400000E2E700BFFFFF7F0088460120B93B0000C8
:1040100008B5FFF755FE024B1B68C01A08BD00BF6C
:10402000884601200348452108B502F052F80020D7
:10403000FEF736FF6F9D0000816808B5044A102323
:10404000103902F070F8003818BF012008BD00BF19
:104050007C8E000030B50C46816887B0102302AA20
:104060001039054602F043F8002811DB10222846DB
:1040700002A902F0C4FE68B103232370A9680123DA
:1040800028460DF10702283902F031F800280BDA32
:1040900001202AE01022164902A802F083FB002822
:1040A00014BF02230123E8E79DF80730284603F0F8
:1040B0000F021B096270237101220DF1070102F04A
:1040C0009EFE10B96378042B03D90123637000238B
:1040D0002371AA682846203AA11C02F0B8FE0028E5
:1040E000D6D12846E11C02F00DFF07B030BD00BF5D
:1040F0007C8E00002DE9F04385B00546694602201C
:1041000002F004FF044618B1FF2005B0BDE8F083BB
:10411000062002A902F0FAFE012838D12A464921D8
:10412000284801F0D6FF284B8DF80C40029300225E
:104130009DF800509DF808609DF803709DF80B8075
:104140009DF80290214C2946207802F06CFE18B3AD
:104150003146607802F067FEF0B1A378042B01D0FD
:10416000BB4219D1E378042B01D0434514D1237904
:10417000042B0FD16379022B19D1154A1548492117
:1041800001F0A7FF6079831E022BBED9BCE700288F
:10419000CDD0B9E74B45EDD00132032A04F1060436
:1041A000D1D10D48492101F094FF0120ADE7032B47
:1041B00005D00A4A0A49042B18BF0A46DEE7094A15
:1041C000DCE700BFB49D000003010303279E00004D
:1041D000989D0000FF9D0000129E0000919D000030
:1041E000A29D00009D9D000001680E4A0346914279
:1041F00015D1C169A2F11022A2F1EF1291420ED1A4
:104200008268012A0BD8C26812B101698A4206D0BD
:10421000586928B19B691B1A5842584170470120C0
:10422000704700BF55AA00FF0D4B70B59E68A6B140
:104230003046FFF7D9FF044678B9F3686BB93569A2
:104240000DB9204670BD2846FFF7CEFF28B9EB68B0
:10425000B34202D12E462D69F2E70124F1E700BFF7
:10426000546001202DE9F843404D2C68D4B1AC686E
:10427000C4B100284DD000294BD001FB00F6B6FB9D
:10428000F0F0884245D1301D43D8B1070DD026F05B
:1042900003070437EC6803E06368BB423BD2A469C0
:1042A000002CF9D12046BDE8F8833746F2E7E860F4
:1042B00044E007F1200C04EB0C0320395960002185
:1042C000DFF8B0E0C3E902142169196144F80CE099
:1042D000DFF8A4C0C3F81CC001B1CB60C3E905205E
:1042E000AAB193619A6902B15361236100234FF02F
:1042F0000109C4E905332B69C4E90179DB072DD530
:10430000FFF792FF50B31A4B48461B6825E0EB605D
:10431000E8E70024C6E7A3681BB1154B01201B6822
:104320009847D4E90520616804F12008C91B2329B6
:10433000BFD80123A360002AB9D09061A36903B15B
:104340005A610023C4E905332B69DA0706D5FFF764
:104350006BFF18B10120064B1B68984732460021BD
:104360004046444602F050FA9CE700BF54600120EA
:104370008445012055AA00FF669911EE2DE9F04110
:10438000054600287CD03F4E3368002B78D0B268B9
:10439000002A75D0834203D872681344984203D32D
:1043A000394B01201B689847A5F120042046FFF7F0
:1043B0001BFF18B1344B01201B68984755F8183C77
:1043C000012B03D0304B01201B689847002355F880
:1043D000147C45F8183CAFB1BA6892B955F81C3C4A
:1043E00003F120027B6813447B6055F8103C3B616D
:1043F00003B1DF6020462022002102F005FA2346A7
:104400003C461F462069002832D08368002B2FD1FC
:10441000636842682033134463600369D4E905216B
:104420002361DAB901BB426981696261A161EAB1C4
:104430009461A26902B1546103B1DC6020220021C1
:1044400002F0E2F933699B071AD5FFF7EDFEB8B128
:10445000BDE8F0410C4B01201B6818479161A16930
:104460000029E0D04A61DEE7F160F8E7F460E0E7B8
:10447000002FE7D1F368A36103B15C61F460E1E769
:10448000BDE8F081546001208445012038B50D4617
:10449000142200210446124802F0B6F911491248CC
:1044A00000F032F8232D1AD914F003031FBF043D86
:1044B000ED18C3F10403E4182A460021204602F057
:1044C000A3F9074B094AC3E900459C602260A2F1A9
:1044D0001022203DA2F1EF126560E261DC6038BD80
:1044E000546001207D4300006542000055AA00FF92
:1044F000014B1B68184700BF80450120014B1B681A
:10450000184700BF88450120024B1860024B00206D
:104510001960704780450120884501200A4619B17D
:10452000024B00211B681847704700BF8C450120D3
:10453000F8B500F108064768044630460D4603F01A
:10454000A2F9874216D16368B3F5807F12D80021A3
:10455000304603F0F8FA00280CDD0021304603F065
:1045600065F938B145B9002104F1140003F0EBFA04
:1045700000281EDC1B481EE004F12C0600213046FA
:1045800003F0E1FA0028F5DD0021304603F04EF992
:104590000028EFD004F138060021304603F0D3FAAA
:1045A0000028E7DD0021304603F040F90028DAD189
:1045B000E0E70DB90020F8BD002104F1440003F04C
:1045C000C2FA0028D6DD002104F1500003F0BBFA46
:1045D0000028CFDD002104F15C0003F0B4FA0028CC
:1045E000E8DCC7E780BFFFFF70B500210446FFF796
:1045F0009FFF0546B8B904F10806304603F027F9D5
:104600007F2810D914342946204603F00FF950B101
:10461000204603F01CF9012805D93146204603F055
:104620004FFA002800DB014D284670BD00BEFFFF99
:10463000F0B50C4687B0002105461646FFF778FF17
:1046400080BB03A803F01FF821466A6803A803F0A3
:1046500020F90446D0B905F10804214603A803F067
:104660002FFA00281BDA05F1680303A90093084616
:10467000234605F114026F6803F08AFD044628B949
:104680003A46314603A803F025F9044603A803F08F
:1046900000F80CB1A4F58544204607B0F0BD6FF0DA
:1046A0000304F3E7004CF7E780BFFFFF0023C0E9F6
:1046B0000033C1B9194A1A4BDFF88CC0C0E9022394
:1046C000184B194AC0E904C3184BC0E90623184B1C
:1046D000036203F17453A3F52303A3F692434362E9
:1046E000816600207047134B134ADFF860C0C0E9B1
:1046F000022303F1794303F5740303F501630361B6
:104700000E4BC0E905C303F1D14303F5C01303F514
:104710001E63C3610A4B03620A4BE0E767E6096A5E
:1047200085AE67BB3AF54FA57F520E518C68059B4D
:10473000ABD9831F07D57C36D89E05C1310BC0FF8E
:10474000A78FF964A44FFABE72F36E3C39590EF785
:104750002DE9F04FD1B048AB019300F1080600F10C
:10476000280304933346019A53F8040B42F8040BD0
:1047700004988342F8D1DDE948474FF000094F9B88
:104780004CAD0293DDE94AE30393474B06AA059338
:1047900095E82011B9F10F0F6ED84B7891F800B061
:1047A0001B0443EA0B6391F803B091F802A043EABB
:1047B0000B0343EA0A234FEAF52B8BEAB51B8BEA7E
:1047C00075608CEA080B0BEA050B8BEA0C0B834433
:1047D0000598936050F804AB09F10109D3440590A2
:1047E00002985B4403444FEA743A44EA070004EA3F
:1047F000070B8AEAB40A00EA0E0002938AEAB45A66
:1048000040EA0B0000EB0A0BDDE9020303449A4681
:104810000346B9F1400FCDE902CE5B4402F1040238
:1048200001F1040121D1CDE94D58CDE94834CDF84D
:104830003CC1CDF830A14A97CDF81CB0CDF82CE1A1
:1048400006930199336851F8042B134446F8043B4E
:10485000049B0191B342F4D106A84FF49471FFF781
:104860005DFE002051B0BDE8F08FBE46C44627462D
:10487000A8461C4655468DE7136852F834BC4FEAEB
:10488000F34A8AEA734A52F8380C8AEA932A52F8B1
:10489000143C03444FEABB4080EAFB109A4480EA90
:1048A000DB03534487E700BF8C8E0000064A074BAA
:1048B0001B681068BFF34F8F092B03D1431E58426A
:1048C00058417047002070473401FF003001FF005D
:1048D00008B5554A554B1B681268BFF34F8F092B1B
:1048E00001BF4FF050230022C3F81421C3F8182150
:1048F000FFF7DCFF30B101234D4A1360A2F63822E6
:10490000C2F87835494B1A6804331B68BFF34F8FE0
:10491000092A05D1012B1EBF0122464BC3F8782579
:10492000FFF7C4FF10B10E22434B1A603F4B3E4AC3
:104930001B681268BFF34F8F092B04D100223F4B35
:104940001A6001225A600022D30003F57F03D3F8D6
:104950000013BFF34F8F013108D0D3F80013013299
:10496000D3F80433B2F5807F0B60EDD1344BDB69B3
:10497000BFF34F8FD90745D5324B1946D3F80024E2
:10498000012AFBD1C3F80425D1F80034012BFBD157
:104990002B4BDA69BFF34F8FD2070AD5DA6922F0C1
:1049A0000102DA61BFF34F8F264AD2F80034012B9F
:1049B000FBD1254B1B68BFF34F8F01330DD1204A2C
:1049C000136A23F0FF0343F020031362BFF34F8FFA
:1049D0001C4AD2F80034012BFBD10022194BC3F83A
:1049E0000425D3F80024012AFBD1BFF34F8F1749C8
:1049F000174BCA6802F4E0621343CB60BFF34F8FDA
:104A000000BFFDE7104B1B68BFF34F8F0133B3D0DE
:104A10000E4AD2F88C3043F44063C2F88C300D4B10
:104A20000D4A1A6008BD00BF3401FF003001FF00CD
:104A3000384A005000400050E4AE03500C4700508C
:104A40000080FF00009003502080FF0000ED00E098
:104A50000400FA05904501200090D00370B50125AF
:104A60000368B3FA83F2202AC2F11F0410D005FABA
:104A700004F223EA0202D0E8EF6F9E4204D1C0E8BC
:104A8000EC2FBCF1000FF6D1EAD102480C7070BDDA
:104A90000148FCE70000AD0B0200AD0B036810B548
:104AA000CB40DB0711D4012303FA01F1036841EA8B
:104AB0000302D0E8EF4F9C4204D1C0E8EC2FBCF1D8
:104AC000000FF6D1F2D1024810BD0248FCE700BF4A
:104AD0000000AD0B0400AD0B044B1A7922B9012282
:104AE00018601A71024870470248704768600120D8
:104AF0000000AD0B0C00AD0B10B1012820D07047A9
:104B00004FF05022D2F81834D2F81814C90311D536
:104B100003F00303022B0DD1C2F8183500220D4B10
:104B20001A601B6802224FF05023C3F804230122AD
:104B30009A6070474FF050230122C3F81825EDE723
:104B40000022054B1A601B684FF05023C3F8040382
:104B500018607047045100500051005038B510B132
:104B6000012818D038BD4FF050230222012142F213
:104B700010751C46C3F80823154A10601268154AC0
:104B80001160D4F81834DB03ECD5012003F081FE6A
:104B9000013DF6D1E6E74FF05024002242F21075B5
:104BA0000D4BC4F808031A601B680C4B1860D4F84E
:104BB0000C34D4F80C2403F00103D203D2D5002B1B
:104BC000D0D0012003F065FE013DF0D1CAE700BF5F
:104BD000045100500C50005000510050045000503F
:104BE000164B10B51A6852B1002018601B680122DC
:104BF0004FF05023C3F80823114B1B689847114B03
:104C00001A688AB100221A601B684FF05023D3F84B
:104C10001824D3F8181402F00302012A4FF00201FD
:104C200003D1C3F818159A6010BDC3F80813044BDC
:104C30000120BDE810401B68184700BF005100501C
:104C4000686001200451005001460148FFF706BF8B
:104C50009445012070B50D4C00F1080334F8133071
:104C60000546DA050E4607D5C3F3432304EBC3021A
:104C7000526854F833309847A3682BB13146284620
:104C8000E268BDE87040184770BD00BF984501203C
:104C9000124B083033F8102010B4D1051BD5C2F3E5
:104CA000432122F4F85223F81020002003F11004CD
:104CB00034F8022B12F4807F03D0C2F343229142D6
:104CC00009D001302028F3D10022054810BC43F858
:104CD0003120FFF7E3BE10BC704700BF98450120AC
:104CE000EC45012038B50C4C00F1080534F81530BE
:104CF0009A060AD500225B0B9B0003F1A04303F543
:104D00005043C3F81025C3F81025FFF7C1FF002357
:104D100024F8153038BD00BF9845012000F01F026F
:104D2000054800EB8200D0F8003223F4403343EA18
:104D30000143C0F80032704700258450F7B504469F
:104D4000F9B14C4F00F1080C37F81C0000F02205B7
:104D5000222D02D1484803B0F0BD484D04F01F0693
:104D600005EB8606D6F80052097825F00F0520F0ED
:104D7000020045EA810140F00100C6F8001227F860
:104D80001C0092B13B4804F1080630F81610157863
:104D90008F0752680CD5002ADCD130F8162022F09B
:104DA0001C0242EA850520F81650D3BB3448D2E7EE
:104DB00021F02001C904C90C20F81610002AECD0FB
:104DC000032DC7D892F800C06246920002F1A042BB
:104DD00002F5504225B9C2F81055C2F81055DCE76B
:104DE000D2F810754FEA042E27F00307C2F81075A9
:104DF000D2F810750EF4F85E27F4473727F44077A1
:104E0000C2F81075D2F8107541EA4C3147EA0547EF
:104E100047EA0E0741F02001C2F8107520F816107D
:104E2000BBE72046D3E90067FFF732FF002EBDD075
:104E3000104D2B689E4204D16B689F4201D1002225
:104E400009E010480DF10701FFF708FE0C4B9842EE
:104E500081D19DF8072005EBC20308345F6035F867
:104E6000143045F8326043EA422343F4807325F856
:104E700014309BE7984501200400AD0B00258450B9
:104E80000000AD0BEC4501202DE9F043002944D092
:104E9000434E00F1080C36F81C50AB0704D4AF06A3
:104EA00002D54048BDE8F08315F01C0F02D04B78C6
:104EB000012BF6D03C4B11F1010E00F01F0714BF7F
:104EC0000224002403EB87078B1C14BF4FF00C094E
:104ED0004FF0000944EA0904D7F8008244F4E06482
:104EE00044F0010428EA0408BEF1000F03D091F851
:104EF00001E04FEA4E0E0BB18C78A300097845F023
:104F0000030543EA012343EA080343EA0E0343F09F
:104F10000103C7F8003226F81C500AB92348C1E73C
:104F20001F4D00F1080635F81640A307B9D5002338
:104F3000177824F02004B90001F1A041E40401F540
:104F40005041E40CC1F8103525F81640C1F8103571
:104F500092F801C0BCF1000FE0D0D1F81035927882
:104F600023F4981323F4F853C1F81035D1F810E561
:104F7000030203F4F8534FEA0C4043EA0E0300F433
:104F800040301205034302F4801244EA47341343CD
:104F900044F02004C1F8103525F81640BEE700BFE4
:104FA000984501200400AD0B002584500000AD0B96
:104FB000014BC3E90201704798450120054B0830B9
:104FC00033F810309A0643BF5B0B03480B7003485D
:104FD000704700BF984501200000AD0B0400AD0BE9
:104FE00038B50E4C94F85850B5B94022294604F112
:104FF000100001F009FC0D20FDF796FC4FF0004277
:10500000074B08481D601B68074BC3F804230123A6
:1050100084F85830636538BD0448FCE798450120A2
:105020007CD100500000AD0B00D000500500AD0B4E
:10503000034B93F85800003818BF0120704700BF99
:105040009845012001460148FFF728BDE8450120A9
:1050500001460148FFF702BDE84501201D4B00F164
:10506000080233F8123010B49A061DD513F002046A
:105070001AD15B0B9A0002F1A04000F5514002F1F9
:10508000A042046002F550420068D2F8100540F0DA
:105090000100C2F8100529B1012202FA03F30E4AF9
:1050A000C2F8043310BC7047C3F38203042B0CD046
:1050B000052B0CD0094B196900F01F03D94001F0F2
:1050C0000101023110BCFFF729BE0321FAE70221DA
:1050D000F8E700BF9845012000D00050002584501B
:1050E0000E4B00F1080233F81230990613D59A07D7
:1050F00011D401225B0B9A4009499B0003F1A043A4
:10510000C1F8082303F55043D3F8102522F0030219
:10511000C3F8102570470021FFF700BE9845012015
:1051200000D000500C4B00F1080213F8123010B5FB
:10513000DB0704460DD5FFF7D3FF2046FFF7D2FD6E
:105140000222064B04F01F048034054843F8242053
:1051500010BD0448FCE700BF98450120002584509D
:105160000000AD0B0400AD0B2DE9F04F002601222D
:1051700034464B4B4B484C4985B01D6835B1D0F88F
:10518000045315421EBF1C601D68164304338B4236
:105190004FEA4202F1D1454F3B6883B1444D0DF1D6
:1051A0000C082B6A03932B624FF00109039840B956
:1051B00038603B682B6A03932B62002BF4D10124E7
:1051C00069E090FAA0FABAFA8AFA3A4A0AF10803B0
:1051D00032F813104FEADA0C0AF0070309FA03F465
:1051E00018F80C30C1F3820223EA040308F80C30EB
:1051F00005EB8A03D3F80042C8069346C4F3014482
:1052000018D5114650460193FFF724FD019BE4B2E7
:10521000D3F80032C3F301439C4207D1002150462A
:10522000FFF77CFD21465046FFF778FD09FA0AF0AA
:105230002862BBE7022C0CBF0321022150460192D9
:10524000FFF76CFD019A032A04D0022C07D1BBF1B1
:10525000010FEBD159465046FFF7FCFCE6E7032C63
:10526000E4D1BBF1020FF4E796FAA6F3B3FA83F3A5
:1052700004FA03F29B0003F1A04303F55043D3F873
:105280001005D3F81015C0F30420C1F3014126EA3C
:105290000206FFF7DFFC002EE6D105B0BDE8F08F77
:1052A00000D1005000D0005020D100507CD10050DF
:1052B00000258450984501200022034BC3F8842523
:1052C000C3F80425704700BF0090035008B5C0F331
:1052D0000B0383B90222094BC3F88425C3F80425C4
:1052E0004FF0FF320260D3F80024D207FBD5FFF75E
:1052F000E3FF034808BD0348FCE700BF00900350EC
:105300000000AD0B0A00AD0B0122074BC3F884254A
:10531000C3F80425D3F80824D207FBD50160BFF3F6
:105320005F8FFFF7C9BF00BF009003500E4B70B5F1
:1053300053F82040013053F82060A64200D870BDD9
:10534000D4E900352846984765B1EB6830B10028AC
:10535000B8BF4042FF28A8BFFF2018705A7842F01B
:1053600001025A700834E8E78C8F000070B50546DA
:1053700010B90024204670BD0378002BF9D00F4AE5
:105380000F4C1646944208D10D4CB442F1D0204641
:1053900003F096FA50B91834F7E7204603F090FA74
:1053A00010B12368AB42E5D01834EBE728462168FA
:1053B00001F0ECF90028EED1DCE700BFC089000065
:1053C0004889000073B504460D464FF02003EFF303
:1053D000118683F31288BFF36F8F0022042896BFD3
:1053E000114B124B53F820300092452102461048D1
:1053F00000F06FFE3DB1EB69C3F308031BB145211B
:105400000C4800F066FE00220B4B45210B4800F0D3
:1054100060FE29462046FEF705FE86F31188BFF39D
:105420006F8F02B070BD00BFA08F0000399E0000DA
:10543000479E0000749E00009A9E0000A29E0000FD
:10544000012208B5084B02201A70FFF76FFF03F026
:105450004BFA0320FFF76AFFFAF7F2FF034A137BC8
:1054600023F00103137308BD517E012090460120F3
:105470000248034A0021121A01F0C6B97046012001
:10548000547E012008B5194B03F5006282F30888A9
:1054900083F30A880025E023154C84F82230E57751
:1054A00025766576A57684F82050636A43F4E02378
:1054B000636284F82350FDF7A1FCFDF7E9F94FF092
:1054C000FF33A362E362FDF74FFEFDF731FD03F00A
:1054D000F6F92846FFF72AFF0120FFF727FF2B46A2
:1054E0002A4629460348FDF783FA00BF58A6012043
:1054F00000ED00E04154000008B50648064A07499F
:10550000121A01F076F9BDE80840054A0549064837
:1055100001F06FB90045012070460120249F000072
:10552000000000000C9F000000450120034B1B6899
:105530000BB9FEF76DBD0020704700BF7060012001
:1055400030B5036868B10A4A5268904209D043B145
:10555000D3E90421D0E90445121945EB0101C3E95F
:105560000421426813605A600023C0E9003330BD53
:10557000F445012038B5104B1C689C4208BF00243C
:10558000FFF7D4FF05468CB1D4E90401401B61EB61
:10559000E571012871F100030BDB6FF0004200237D
:1055A000824273EB010400DA104638BD6FF0004010
:1055B000FBE70020F9E700BFF44501202DE9F74F94
:1055C0004FF02003EFF3118483F31288BFF36F8F42
:1055D000DFF8ACA0294D5146DFF8A8B02860D5F817
:1055E00000C0DBF800006246DAE90089D3175845AD
:1055F000CDE900230DD060B1D0E90467B445BB41CB
:105600001DDA009BB6EB030C019B67EB0306C0E9B8
:1056100004C60026009B2E6013EB0802019B43EB9F
:105620000903C1E90023FFF7A5FF3146FEF7C0FCDF
:1056300084F31188BFF36F8F03B0BDE8F08F0022B1
:10564000002318EB060849EBE679C0E90423ACEB2C
:105650000606CAE900892E60FFF772FF84F31188FD
:10566000BFF36F8F836898474FF02003EFF31184E7
:1056700083F31288BFF36F8F0149B0E77060012098
:1056800010470120F445012010B50A4C23681BB1D6
:1056900001230020236010BD00F048F80028F7D057
:1056A0000138062803D8044B53F8200010BD0348E6
:1056B00010BD00BF74600120B48F0000FE8FFFFF9B
:1056C000BFF34F8F0549064BCA6802F4E0621343EB
:1056D000CB60BFF34F8F00BFFDE700BF00ED00E0E0
:1056E0000400FA054FF0FE33002130B4064A074D9E
:1056F000074C2B6013602360064A074CEB6063681D
:10570000C2F8001530BC18470414845000148450AB
:105710000814845000008450FC450120024BD0E95D
:105720000012C3E900127047FC45012010B500F0DB
:1057300033F820B1032400F067F8204610BD00F0D4
:1057400035F890B900F0B0F890B90F4B1B681B0EFC
:10575000F02B08D10D4A0E4B12689A420AD007244A
:1057600000F01CF8E7E70624FAE70424204610BD01
:105770000024F5E7012000F097F804460028F7D14F
:10578000044B1860D9E700BF28198450241A8450AC
:105790000000E0200C1A8450002070470020704761
:1057A000014B1860704700BF041A845010B51148AF
:1057B00000F048F800B110BD0F4800F043F8002891
:1057C000F9D10E4C204600F03DF80028F3D10C4BE7
:1057D0000C481C6000F036F801460028EBD100F0C0
:1057E0002DF8044608B1204610BD00F03FF82046D1
:1057F000FAE700BF10460120044601200C460120B4
:10580000144601200846012008B5084800F024F895
:10581000074800F021F8074800F01EF8064800F09D
:105820001BF8BDE8084000F00BB800BF104601208F
:10583000044601200C460120084601200020704744
:10584000704700BF08B5034B02681B681068984793
:10585000002008BD2046012008B5034B02685B68A4
:1058600010689847002008BD2046012070B5094CFB
:10587000094D2069AB68984718B1084B08485B6828
:1058800098470021074AEB6811602069BDE8704025
:10589000184700BF3046012020460120FC4501206A
:1058A000D08F00007860012070B51A4D1A4E044662
:1058B000B26828699047F0B95CB1184C2368ABB165
:1058C000012B1AD0013B23602869F3689847002018
:1058D00070BD124C216839B90120114B114AC3F82F
:1058E00000051368002BFCD101312160F3682869A1
:1058F0009847002070BD0C4870BD0A4A1368002B01
:10590000FCD1074A6FF07E40C2F80035FFF748FF30
:105910002368D7E730460120204601207860012027
:105920000000845010198450E98FFFFF10B5044621
:1059300030B16368DB0602D500232360636010BDCD
:10594000024B03485B689847F3E700BFFC45012022
:10595000F08F000068B143683BB1DB0607D5BFF3A9
:105960005F8F002303601846704703487047034861
:1059700070476FF4E0407047EA8FFFFFE98FFFFF49
:1059800010B5044620B1002211232260636010BDCF
:105990000148FFF7A7FEF6E718900000A0B14368A2
:1059A00083B1DB060CD50122D0E8EF3FC0E8E12F40
:1059B0000029F9D1012BF7D0BFF35F8F002070478A
:1059C00003487047034870476FF4E040704700BFDA
:1059D000E98FFFFFEA8FFFFF704729B1012914BF4C
:1059E0006FF01500062070470220704700207047B6
:1059F0002DE9F7430E4617469946044628B94FF05D
:105A0000FF38404603B0BDE8F0830029F7D0002AF4
:105A1000F5D0CB680D8938461D44042329460DEB8B
:105A2000030200F064FB80460028E8D146F6081225
:105A3000BDF804107389914223D1BDF80610994234
:105A4000DDD1042338460DEB0302294400F04FFB5F
:105A50000028D4D146F60713BDF804209A42CED1CF
:105A60009DF82830BDF80620A3727389C4E9006749
:105A70002B44E36004351344A4F808906361256166
:105A8000BFE7002BE6D0BAE72DE9F7430F46904673
:105A90001E46044620B94FF0FF3003B0BDE8F08346
:105AA0000368002BF7D04368002BF4D04FF6FF7942
:105AB000D4E904239A4216D223685B8923B1E368B0
:105AC000934204BF043323610423216960680DEB12
:105AD000030200F00CFB0028DDD1A37A256923B175
